{
	"contracts/Votes.sol": {
		"Vote": {
			"abi": [
				{
					"inputs": [
						{
							"internalType": "string",
							"name": "_nombre",
							"type": "string"
						},
						{
							"internalType": "string",
							"name": "_partido",
							"type": "string"
						},
						{
							"internalType": "uint8",
							"name": "_id1",
							"type": "uint8"
						},
						{
							"internalType": "string",
							"name": "_nombre2",
							"type": "string"
						},
						{
							"internalType": "string",
							"name": "_partido2",
							"type": "string"
						},
						{
							"internalType": "uint8",
							"name": "_id2",
							"type": "uint8"
						}
					],
					"stateMutability": "nonpayable",
					"type": "constructor"
				},
				{
					"inputs": [],
					"name": "c1",
					"outputs": [
						{
							"internalType": "uint8",
							"name": "id",
							"type": "uint8"
						},
						{
							"internalType": "string",
							"name": "nombre",
							"type": "string"
						},
						{
							"internalType": "string",
							"name": "partido",
							"type": "string"
						},
						{
							"internalType": "uint256",
							"name": "votos",
							"type": "uint256"
						}
					],
					"stateMutability": "view",
					"type": "function"
				},
				{
					"inputs": [],
					"name": "c2",
					"outputs": [
						{
							"internalType": "uint8",
							"name": "id",
							"type": "uint8"
						},
						{
							"internalType": "string",
							"name": "nombre",
							"type": "string"
						},
						{
							"internalType": "string",
							"name": "partido",
							"type": "string"
						},
						{
							"internalType": "uint256",
							"name": "votos",
							"type": "uint256"
						}
					],
					"stateMutability": "view",
					"type": "function"
				},
				{
					"inputs": [
						{
							"internalType": "address",
							"name": "votante",
							"type": "address"
						}
					],
					"name": "derechoAVotar",
					"outputs": [],
					"stateMutability": "nonpayable",
					"type": "function"
				},
				{
					"inputs": [
						{
							"internalType": "address",
							"name": "",
							"type": "address"
						}
					],
					"name": "votantes",
					"outputs": [
						{
							"internalType": "bool",
							"name": "votoRegistrado",
							"type": "bool"
						},
						{
							"internalType": "bool",
							"name": "puedeVotar",
							"type": "bool"
						}
					],
					"stateMutability": "view",
					"type": "function"
				},
				{
					"inputs": [
						{
							"internalType": "uint8",
							"name": "idCandidato",
							"type": "uint8"
						}
					],
					"name": "votar",
					"outputs": [],
					"stateMutability": "nonpayable",
					"type": "function"
				}
			],
			"devdoc": {
				"kind": "dev",
				"methods": {},
				"version": 1
			},
			"evm": {
				"assembly": "    /* \"contracts/Votes.sol\":291:2034  contract Vote {\r... */\n  mstore(0x40, 0x80)\n    /* \"contracts/Votes.sol\":768:1429  constructor(string memory _nombre, string memory _partido, uint8 _id1, string memory _nombre2, string memory _partido2, uint8 _id2){\r... */\n  callvalue\n  dup1\n  iszero\n  tag_1\n  jumpi\n  0x00\n  dup1\n  revert\ntag_1:\n  pop\n  mload(0x40)\n  sub(codesize, bytecodeSize)\n  dup1\n  bytecodeSize\n  dup4\n  codecopy\n  dup2\n  dup2\n  add\n  0x40\n  mstore\n  dup2\n  add\n  swap1\n  tag_2\n  swap2\n  swap1\n  tag_3\n  jump\t// in\ntag_2:\n    /* \"contracts/Votes.sol\":928:938  msg.sender */\n  caller\n    /* \"contracts/Votes.sol\":920:925  owner */\n  0x09\n  0x00\n    /* \"contracts/Votes.sol\":920:938  owner = msg.sender */\n  0x0100\n  exp\n  dup2\n  sload\n  dup2\n  0xffffffffffffffffffffffffffffffffffffffff\n  mul\n  not\n  and\n  swap1\n  dup4\n  0xffffffffffffffffffffffffffffffffffffffff\n  and\n  mul\n  or\n  swap1\n  sstore\n  pop\n    /* \"contracts/Votes.sol\":961:968  _nombre */\n  dup6\n    /* \"contracts/Votes.sol\":949:951  c1 */\n  0x01\n    /* \"contracts/Votes.sol\":949:958  c1.nombre */\n  dup1\n  add\n    /* \"contracts/Votes.sol\":949:968  c1.nombre = _nombre */\n  swap1\n  dup1\n  mload\n  swap1\n  0x20\n  add\n  swap1\n  tag_6\n  swap3\n  swap2\n  swap1\n  tag_7\n  jump\t// in\ntag_6:\n  pop\n    /* \"contracts/Votes.sol\":992:1000  _partido */\n  dup5\n    /* \"contracts/Votes.sol\":979:981  c1 */\n  0x01\n    /* \"contracts/Votes.sol\":979:989  c1.partido */\n  0x02\n  add\n    /* \"contracts/Votes.sol\":979:1000  c1.partido = _partido */\n  swap1\n  dup1\n  mload\n  swap1\n  0x20\n  add\n  swap1\n  tag_8\n  swap3\n  swap2\n  swap1\n  tag_7\n  jump\t// in\ntag_8:\n  pop\n    /* \"contracts/Votes.sol\":1019:1023  _id1 */\n  dup4\n    /* \"contracts/Votes.sol\":1011:1013  c1 */\n  0x01\n    /* \"contracts/Votes.sol\":1011:1016  c1.id */\n  0x00\n  add\n  0x00\n    /* \"contracts/Votes.sol\":1011:1023  c1.id = _id1 */\n  0x0100\n  exp\n  dup2\n  sload\n  dup2\n  0xff\n  mul\n  not\n  and\n  swap1\n  dup4\n  0xff\n  and\n  mul\n  or\n  swap1\n  sstore\n  pop\n    /* \"contracts/Votes.sol\":1203:1211  _nombre2 */\n  dup3\n    /* \"contracts/Votes.sol\":1191:1193  c2 */\n  0x05\n    /* \"contracts/Votes.sol\":1191:1200  c2.nombre */\n  0x01\n  add\n    /* \"contracts/Votes.sol\":1191:1211  c2.nombre = _nombre2 */\n  swap1\n  dup1\n  mload\n  swap1\n  0x20\n  add\n  swap1\n  tag_9\n  swap3\n  swap2\n  swap1\n  tag_7\n  jump\t// in\ntag_9:\n  pop\n    /* \"contracts/Votes.sol\":1235:1244  _partido2 */\n  dup2\n    /* \"contracts/Votes.sol\":1222:1224  c2 */\n  0x05\n    /* \"contracts/Votes.sol\":1222:1232  c2.partido */\n  0x02\n  add\n    /* \"contracts/Votes.sol\":1222:1244  c2.partido = _partido2 */\n  swap1\n  dup1\n  mload\n  swap1\n  0x20\n  add\n  swap1\n  tag_10\n  swap3\n  swap2\n  swap1\n  tag_7\n  jump\t// in\ntag_10:\n  pop\n    /* \"contracts/Votes.sol\":1263:1267  _id2 */\n  dup1\n    /* \"contracts/Votes.sol\":1255:1257  c2 */\n  0x05\n    /* \"contracts/Votes.sol\":1255:1260  c2.id */\n  0x00\n  add\n  0x00\n    /* \"contracts/Votes.sol\":1255:1267  c2.id = _id2 */\n  0x0100\n  exp\n  dup2\n  sload\n  dup2\n  0xff\n  mul\n  not\n  and\n  swap1\n  dup4\n  0xff\n  and\n  mul\n  or\n  swap1\n  sstore\n  pop\n    /* \"contracts/Votes.sol\":768:1429  constructor(string memory _nombre, string memory _partido, uint8 _id1, string memory _nombre2, string memory _partido2, uint8 _id2){\r... */\n  pop\n  pop\n  pop\n  pop\n  pop\n  pop\n    /* \"contracts/Votes.sol\":291:2034  contract Vote {\r... */\n  jump(tag_11)\ntag_7:\n  dup3\n  dup1\n  sload\n  tag_12\n  swap1\n  tag_13\n  jump\t// in\ntag_12:\n  swap1\n  0x00\n  mstore\n  keccak256(0x00, 0x20)\n  swap1\n  0x1f\n  add\n  0x20\n  swap1\n  div\n  dup2\n  add\n  swap3\n  dup3\n  tag_15\n  jumpi\n  0x00\n  dup6\n  sstore\n  jump(tag_14)\ntag_15:\n  dup3\n  0x1f\n  lt\n  tag_16\n  jumpi\n  dup1\n  mload\n  not(0xff)\n  and\n  dup4\n  dup1\n  add\n  or\n  dup6\n  sstore\n  jump(tag_14)\ntag_16:\n  dup3\n  dup1\n  add\n  0x01\n  add\n  dup6\n  sstore\n  dup3\n  iszero\n  tag_14\n  jumpi\n  swap2\n  dup3\n  add\ntag_17:\n  dup3\n  dup2\n  gt\n  iszero\n  tag_18\n  jumpi\n  dup3\n  mload\n  dup3\n  sstore\n  swap2\n  0x20\n  add\n  swap2\n  swap1\n  0x01\n  add\n  swap1\n  jump(tag_17)\ntag_18:\ntag_14:\n  pop\n  swap1\n  pop\n  tag_19\n  swap2\n  swap1\n  tag_20\n  jump\t// in\ntag_19:\n  pop\n  swap1\n  jump\t// out\ntag_20:\ntag_21:\n  dup1\n  dup3\n  gt\n  iszero\n  tag_22\n  jumpi\n  0x00\n  dup2\n  0x00\n  swap1\n  sstore\n  pop\n  0x01\n  add\n  jump(tag_21)\ntag_22:\n  pop\n  swap1\n  jump\t// out\n    /* \"#utility.yul\":7:428   */\ntag_24:\n    /* \"#utility.yul\":96:101   */\n  0x00\n    /* \"#utility.yul\":121:187   */\n  tag_26\n    /* \"#utility.yul\":137:186   */\n  tag_27\n    /* \"#utility.yul\":179:185   */\n  dup5\n    /* \"#utility.yul\":137:186   */\n  tag_28\n  jump\t// in\ntag_27:\n    /* \"#utility.yul\":121:187   */\n  tag_29\n  jump\t// in\ntag_26:\n    /* \"#utility.yul\":112:187   */\n  swap1\n  pop\n    /* \"#utility.yul\":210:216   */\n  dup3\n    /* \"#utility.yul\":203:208   */\n  dup2\n    /* \"#utility.yul\":196:217   */\n  mstore\n    /* \"#utility.yul\":248:252   */\n  0x20\n    /* \"#utility.yul\":241:246   */\n  dup2\n    /* \"#utility.yul\":237:253   */\n  add\n    /* \"#utility.yul\":286:289   */\n  dup5\n    /* \"#utility.yul\":277:283   */\n  dup5\n    /* \"#utility.yul\":272:275   */\n  dup5\n    /* \"#utility.yul\":268:284   */\n  add\n    /* \"#utility.yul\":265:290   */\n  gt\n    /* \"#utility.yul\":262:374   */\n  iszero\n  tag_30\n  jumpi\n    /* \"#utility.yul\":293:372   */\n  tag_31\n  tag_32\n  jump\t// in\ntag_31:\n    /* \"#utility.yul\":262:374   */\ntag_30:\n    /* \"#utility.yul\":383:422   */\n  tag_33\n    /* \"#utility.yul\":415:421   */\n  dup5\n    /* \"#utility.yul\":410:413   */\n  dup3\n    /* \"#utility.yul\":405:408   */\n  dup6\n    /* \"#utility.yul\":383:422   */\n  tag_34\n  jump\t// in\ntag_33:\n    /* \"#utility.yul\":102:428   */\n  pop\n    /* \"#utility.yul\":7:428   */\n  swap4\n  swap3\n  pop\n  pop\n  pop\n  jump\t// out\n    /* \"#utility.yul\":448:803   */\ntag_35:\n    /* \"#utility.yul\":515:520   */\n  0x00\n    /* \"#utility.yul\":564:567   */\n  dup3\n    /* \"#utility.yul\":557:561   */\n  0x1f\n    /* \"#utility.yul\":549:555   */\n  dup4\n    /* \"#utility.yul\":545:562   */\n  add\n    /* \"#utility.yul\":541:568   */\n  slt\n    /* \"#utility.yul\":531:653   */\n  tag_37\n  jumpi\n    /* \"#utility.yul\":572:651   */\n  tag_38\n  tag_39\n  jump\t// in\ntag_38:\n    /* \"#utility.yul\":531:653   */\ntag_37:\n    /* \"#utility.yul\":682:688   */\n  dup2\n    /* \"#utility.yul\":676:689   */\n  mload\n    /* \"#utility.yul\":707:797   */\n  tag_40\n    /* \"#utility.yul\":793:796   */\n  dup5\n    /* \"#utility.yul\":785:791   */\n  dup3\n    /* \"#utility.yul\":778:782   */\n  0x20\n    /* \"#utility.yul\":770:776   */\n  dup7\n    /* \"#utility.yul\":766:783   */\n  add\n    /* \"#utility.yul\":707:797   */\n  tag_24\n  jump\t// in\ntag_40:\n    /* \"#utility.yul\":698:797   */\n  swap2\n  pop\n    /* \"#utility.yul\":521:803   */\n  pop\n    /* \"#utility.yul\":448:803   */\n  swap3\n  swap2\n  pop\n  pop\n  jump\t// out\n    /* \"#utility.yul\":809:948   */\ntag_41:\n    /* \"#utility.yul\":864:869   */\n  0x00\n    /* \"#utility.yul\":895:901   */\n  dup2\n    /* \"#utility.yul\":889:902   */\n  mload\n    /* \"#utility.yul\":880:902   */\n  swap1\n  pop\n    /* \"#utility.yul\":911:942   */\n  tag_43\n    /* \"#utility.yul\":936:941   */\n  dup2\n    /* \"#utility.yul\":911:942   */\n  tag_44\n  jump\t// in\ntag_43:\n    /* \"#utility.yul\":809:948   */\n  swap3\n  swap2\n  pop\n  pop\n  jump\t// out\n    /* \"#utility.yul\":954:2772   */\ntag_3:\n    /* \"#utility.yul\":1105:1111   */\n  0x00\n    /* \"#utility.yul\":1113:1119   */\n  dup1\n    /* \"#utility.yul\":1121:1127   */\n  0x00\n    /* \"#utility.yul\":1129:1135   */\n  dup1\n    /* \"#utility.yul\":1137:1143   */\n  0x00\n    /* \"#utility.yul\":1145:1151   */\n  dup1\n    /* \"#utility.yul\":1194:1197   */\n  0xc0\n    /* \"#utility.yul\":1182:1191   */\n  dup8\n    /* \"#utility.yul\":1173:1180   */\n  dup10\n    /* \"#utility.yul\":1169:1192   */\n  sub\n    /* \"#utility.yul\":1165:1198   */\n  slt\n    /* \"#utility.yul\":1162:1282   */\n  iszero\n  tag_46\n  jumpi\n    /* \"#utility.yul\":1201:1280   */\n  tag_47\n  tag_48\n  jump\t// in\ntag_47:\n    /* \"#utility.yul\":1162:1282   */\ntag_46:\n    /* \"#utility.yul\":1342:1343   */\n  0x00\n    /* \"#utility.yul\":1331:1340   */\n  dup8\n    /* \"#utility.yul\":1327:1344   */\n  add\n    /* \"#utility.yul\":1321:1345   */\n  mload\n    /* \"#utility.yul\":1372:1390   */\n  0xffffffffffffffff\n    /* \"#utility.yul\":1364:1370   */\n  dup2\n    /* \"#utility.yul\":1361:1391   */\n  gt\n    /* \"#utility.yul\":1358:1475   */\n  iszero\n  tag_49\n  jumpi\n    /* \"#utility.yul\":1394:1473   */\n  tag_50\n  tag_51\n  jump\t// in\ntag_50:\n    /* \"#utility.yul\":1358:1475   */\ntag_49:\n    /* \"#utility.yul\":1499:1573   */\n  tag_52\n    /* \"#utility.yul\":1565:1572   */\n  dup10\n    /* \"#utility.yul\":1556:1562   */\n  dup3\n    /* \"#utility.yul\":1545:1554   */\n  dup11\n    /* \"#utility.yul\":1541:1563   */\n  add\n    /* \"#utility.yul\":1499:1573   */\n  tag_35\n  jump\t// in\ntag_52:\n    /* \"#utility.yul\":1489:1573   */\n  swap7\n  pop\n    /* \"#utility.yul\":1292:1583   */\n  pop\n    /* \"#utility.yul\":1643:1645   */\n  0x20\n    /* \"#utility.yul\":1632:1641   */\n  dup8\n    /* \"#utility.yul\":1628:1646   */\n  add\n    /* \"#utility.yul\":1622:1647   */\n  mload\n    /* \"#utility.yul\":1674:1692   */\n  0xffffffffffffffff\n    /* \"#utility.yul\":1666:1672   */\n  dup2\n    /* \"#utility.yul\":1663:1693   */\n  gt\n    /* \"#utility.yul\":1660:1777   */\n  iszero\n  tag_53\n  jumpi\n    /* \"#utility.yul\":1696:1775   */\n  tag_54\n  tag_51\n  jump\t// in\ntag_54:\n    /* \"#utility.yul\":1660:1777   */\ntag_53:\n    /* \"#utility.yul\":1801:1875   */\n  tag_55\n    /* \"#utility.yul\":1867:1874   */\n  dup10\n    /* \"#utility.yul\":1858:1864   */\n  dup3\n    /* \"#utility.yul\":1847:1856   */\n  dup11\n    /* \"#utility.yul\":1843:1865   */\n  add\n    /* \"#utility.yul\":1801:1875   */\n  tag_35\n  jump\t// in\ntag_55:\n    /* \"#utility.yul\":1791:1875   */\n  swap6\n  pop\n    /* \"#utility.yul\":1593:1885   */\n  pop\n    /* \"#utility.yul\":1924:1926   */\n  0x40\n    /* \"#utility.yul\":1950:2012   */\n  tag_56\n    /* \"#utility.yul\":2004:2011   */\n  dup10\n    /* \"#utility.yul\":1995:2001   */\n  dup3\n    /* \"#utility.yul\":1984:1993   */\n  dup11\n    /* \"#utility.yul\":1980:2002   */\n  add\n    /* \"#utility.yul\":1950:2012   */\n  tag_41\n  jump\t// in\ntag_56:\n    /* \"#utility.yul\":1940:2012   */\n  swap5\n  pop\n    /* \"#utility.yul\":1895:2022   */\n  pop\n    /* \"#utility.yul\":2082:2084   */\n  0x60\n    /* \"#utility.yul\":2071:2080   */\n  dup8\n    /* \"#utility.yul\":2067:2085   */\n  add\n    /* \"#utility.yul\":2061:2086   */\n  mload\n    /* \"#utility.yul\":2113:2131   */\n  0xffffffffffffffff\n    /* \"#utility.yul\":2105:2111   */\n  dup2\n    /* \"#utility.yul\":2102:2132   */\n  gt\n    /* \"#utility.yul\":2099:2216   */\n  iszero\n  tag_57\n  jumpi\n    /* \"#utility.yul\":2135:2214   */\n  tag_58\n  tag_51\n  jump\t// in\ntag_58:\n    /* \"#utility.yul\":2099:2216   */\ntag_57:\n    /* \"#utility.yul\":2240:2314   */\n  tag_59\n    /* \"#utility.yul\":2306:2313   */\n  dup10\n    /* \"#utility.yul\":2297:2303   */\n  dup3\n    /* \"#utility.yul\":2286:2295   */\n  dup11\n    /* \"#utility.yul\":2282:2304   */\n  add\n    /* \"#utility.yul\":2240:2314   */\n  tag_35\n  jump\t// in\ntag_59:\n    /* \"#utility.yul\":2230:2314   */\n  swap4\n  pop\n    /* \"#utility.yul\":2032:2324   */\n  pop\n    /* \"#utility.yul\":2384:2387   */\n  0x80\n    /* \"#utility.yul\":2373:2382   */\n  dup8\n    /* \"#utility.yul\":2369:2388   */\n  add\n    /* \"#utility.yul\":2363:2389   */\n  mload\n    /* \"#utility.yul\":2416:2434   */\n  0xffffffffffffffff\n    /* \"#utility.yul\":2408:2414   */\n  dup2\n    /* \"#utility.yul\":2405:2435   */\n  gt\n    /* \"#utility.yul\":2402:2519   */\n  iszero\n  tag_60\n  jumpi\n    /* \"#utility.yul\":2438:2517   */\n  tag_61\n  tag_51\n  jump\t// in\ntag_61:\n    /* \"#utility.yul\":2402:2519   */\ntag_60:\n    /* \"#utility.yul\":2543:2617   */\n  tag_62\n    /* \"#utility.yul\":2609:2616   */\n  dup10\n    /* \"#utility.yul\":2600:2606   */\n  dup3\n    /* \"#utility.yul\":2589:2598   */\n  dup11\n    /* \"#utility.yul\":2585:2607   */\n  add\n    /* \"#utility.yul\":2543:2617   */\n  tag_35\n  jump\t// in\ntag_62:\n    /* \"#utility.yul\":2533:2617   */\n  swap3\n  pop\n    /* \"#utility.yul\":2334:2627   */\n  pop\n    /* \"#utility.yul\":2666:2669   */\n  0xa0\n    /* \"#utility.yul\":2693:2755   */\n  tag_63\n    /* \"#utility.yul\":2747:2754   */\n  dup10\n    /* \"#utility.yul\":2738:2744   */\n  dup3\n    /* \"#utility.yul\":2727:2736   */\n  dup11\n    /* \"#utility.yul\":2723:2745   */\n  add\n    /* \"#utility.yul\":2693:2755   */\n  tag_41\n  jump\t// in\ntag_63:\n    /* \"#utility.yul\":2683:2755   */\n  swap2\n  pop\n    /* \"#utility.yul\":2637:2765   */\n  pop\n    /* \"#utility.yul\":954:2772   */\n  swap3\n  swap6\n  pop\n  swap3\n  swap6\n  pop\n  swap3\n  swap6\n  jump\t// out\n    /* \"#utility.yul\":2778:2907   */\ntag_29:\n    /* \"#utility.yul\":2812:2818   */\n  0x00\n    /* \"#utility.yul\":2839:2859   */\n  tag_65\n  tag_66\n  jump\t// in\ntag_65:\n    /* \"#utility.yul\":2829:2859   */\n  swap1\n  pop\n    /* \"#utility.yul\":2868:2901   */\n  tag_67\n    /* \"#utility.yul\":2896:2900   */\n  dup3\n    /* \"#utility.yul\":2888:2894   */\n  dup3\n    /* \"#utility.yul\":2868:2901   */\n  tag_68\n  jump\t// in\ntag_67:\n    /* \"#utility.yul\":2778:2907   */\n  swap2\n  swap1\n  pop\n  jump\t// out\n    /* \"#utility.yul\":2913:2988   */\ntag_66:\n    /* \"#utility.yul\":2946:2952   */\n  0x00\n    /* \"#utility.yul\":2979:2981   */\n  0x40\n    /* \"#utility.yul\":2973:2982   */\n  mload\n    /* \"#utility.yul\":2963:2982   */\n  swap1\n  pop\n    /* \"#utility.yul\":2913:2988   */\n  swap1\n  jump\t// out\n    /* \"#utility.yul\":2994:3302   */\ntag_28:\n    /* \"#utility.yul\":3056:3060   */\n  0x00\n    /* \"#utility.yul\":3146:3164   */\n  0xffffffffffffffff\n    /* \"#utility.yul\":3138:3144   */\n  dup3\n    /* \"#utility.yul\":3135:3165   */\n  gt\n    /* \"#utility.yul\":3132:3188   */\n  iszero\n  tag_71\n  jumpi\n    /* \"#utility.yul\":3168:3186   */\n  tag_72\n  tag_73\n  jump\t// in\ntag_72:\n    /* \"#utility.yul\":3132:3188   */\ntag_71:\n    /* \"#utility.yul\":3206:3235   */\n  tag_74\n    /* \"#utility.yul\":3228:3234   */\n  dup3\n    /* \"#utility.yul\":3206:3235   */\n  tag_75\n  jump\t// in\ntag_74:\n    /* \"#utility.yul\":3198:3235   */\n  swap1\n  pop\n    /* \"#utility.yul\":3290:3294   */\n  0x20\n    /* \"#utility.yul\":3284:3288   */\n  dup2\n    /* \"#utility.yul\":3280:3295   */\n  add\n    /* \"#utility.yul\":3272:3295   */\n  swap1\n  pop\n    /* \"#utility.yul\":2994:3302   */\n  swap2\n  swap1\n  pop\n  jump\t// out\n    /* \"#utility.yul\":3308:3394   */\ntag_76:\n    /* \"#utility.yul\":3343:3350   */\n  0x00\n    /* \"#utility.yul\":3383:3387   */\n  0xff\n    /* \"#utility.yul\":3376:3381   */\n  dup3\n    /* \"#utility.yul\":3372:3388   */\n  and\n    /* \"#utility.yul\":3361:3388   */\n  swap1\n  pop\n    /* \"#utility.yul\":3308:3394   */\n  swap2\n  swap1\n  pop\n  jump\t// out\n    /* \"#utility.yul\":3400:3707   */\ntag_34:\n    /* \"#utility.yul\":3468:3469   */\n  0x00\n    /* \"#utility.yul\":3478:3591   */\ntag_79:\n    /* \"#utility.yul\":3492:3498   */\n  dup4\n    /* \"#utility.yul\":3489:3490   */\n  dup2\n    /* \"#utility.yul\":3486:3499   */\n  lt\n    /* \"#utility.yul\":3478:3591   */\n  iszero\n  tag_81\n  jumpi\n    /* \"#utility.yul\":3577:3578   */\n  dup1\n    /* \"#utility.yul\":3572:3575   */\n  dup3\n    /* \"#utility.yul\":3568:3579   */\n  add\n    /* \"#utility.yul\":3562:3580   */\n  mload\n    /* \"#utility.yul\":3558:3559   */\n  dup2\n    /* \"#utility.yul\":3553:3556   */\n  dup5\n    /* \"#utility.yul\":3549:3560   */\n  add\n    /* \"#utility.yul\":3542:3581   */\n  mstore\n    /* \"#utility.yul\":3514:3516   */\n  0x20\n    /* \"#utility.yul\":3511:3512   */\n  dup2\n    /* \"#utility.yul\":3507:3517   */\n  add\n    /* \"#utility.yul\":3502:3517   */\n  swap1\n  pop\n    /* \"#utility.yul\":3478:3591   */\n  jump(tag_79)\ntag_81:\n    /* \"#utility.yul\":3609:3615   */\n  dup4\n    /* \"#utility.yul\":3606:3607   */\n  dup2\n    /* \"#utility.yul\":3603:3616   */\n  gt\n    /* \"#utility.yul\":3600:3701   */\n  iszero\n  tag_82\n  jumpi\n    /* \"#utility.yul\":3689:3690   */\n  0x00\n    /* \"#utility.yul\":3680:3686   */\n  dup5\n    /* \"#utility.yul\":3675:3678   */\n  dup5\n    /* \"#utility.yul\":3671:3687   */\n  add\n    /* \"#utility.yul\":3664:3691   */\n  mstore\n    /* \"#utility.yul\":3600:3701   */\ntag_82:\n    /* \"#utility.yul\":3449:3707   */\n  pop\n    /* \"#utility.yul\":3400:3707   */\n  pop\n  pop\n  pop\n  jump\t// out\n    /* \"#utility.yul\":3713:4033   */\ntag_13:\n    /* \"#utility.yul\":3757:3763   */\n  0x00\n    /* \"#utility.yul\":3794:3795   */\n  0x02\n    /* \"#utility.yul\":3788:3792   */\n  dup3\n    /* \"#utility.yul\":3784:3796   */\n  div\n    /* \"#utility.yul\":3774:3796   */\n  swap1\n  pop\n    /* \"#utility.yul\":3841:3842   */\n  0x01\n    /* \"#utility.yul\":3835:3839   */\n  dup3\n    /* \"#utility.yul\":3831:3843   */\n  and\n    /* \"#utility.yul\":3862:3880   */\n  dup1\n    /* \"#utility.yul\":3852:3933   */\n  tag_84\n  jumpi\n    /* \"#utility.yul\":3918:3922   */\n  0x7f\n    /* \"#utility.yul\":3910:3916   */\n  dup3\n    /* \"#utility.yul\":3906:3923   */\n  and\n    /* \"#utility.yul\":3896:3923   */\n  swap2\n  pop\n    /* \"#utility.yul\":3852:3933   */\ntag_84:\n    /* \"#utility.yul\":3980:3982   */\n  0x20\n    /* \"#utility.yul\":3972:3978   */\n  dup3\n    /* \"#utility.yul\":3969:3983   */\n  lt\n    /* \"#utility.yul\":3949:3967   */\n  dup2\n    /* \"#utility.yul\":3946:3984   */\n  eq\n    /* \"#utility.yul\":3943:4027   */\n  iszero\n  tag_85\n  jumpi\n    /* \"#utility.yul\":3999:4017   */\n  tag_86\n  tag_87\n  jump\t// in\ntag_86:\n    /* \"#utility.yul\":3943:4027   */\ntag_85:\n    /* \"#utility.yul\":3764:4033   */\n  pop\n    /* \"#utility.yul\":3713:4033   */\n  swap2\n  swap1\n  pop\n  jump\t// out\n    /* \"#utility.yul\":4039:4320   */\ntag_68:\n    /* \"#utility.yul\":4122:4149   */\n  tag_89\n    /* \"#utility.yul\":4144:4148   */\n  dup3\n    /* \"#utility.yul\":4122:4149   */\n  tag_75\n  jump\t// in\ntag_89:\n    /* \"#utility.yul\":4114:4120   */\n  dup2\n    /* \"#utility.yul\":4110:4150   */\n  add\n    /* \"#utility.yul\":4252:4258   */\n  dup2\n    /* \"#utility.yul\":4240:4250   */\n  dup2\n    /* \"#utility.yul\":4237:4259   */\n  lt\n    /* \"#utility.yul\":4216:4234   */\n  0xffffffffffffffff\n    /* \"#utility.yul\":4204:4214   */\n  dup3\n    /* \"#utility.yul\":4201:4235   */\n  gt\n    /* \"#utility.yul\":4198:4260   */\n  or\n    /* \"#utility.yul\":4195:4283   */\n  iszero\n  tag_90\n  jumpi\n    /* \"#utility.yul\":4263:4281   */\n  tag_91\n  tag_73\n  jump\t// in\ntag_91:\n    /* \"#utility.yul\":4195:4283   */\ntag_90:\n    /* \"#utility.yul\":4303:4313   */\n  dup1\n    /* \"#utility.yul\":4299:4301   */\n  0x40\n    /* \"#utility.yul\":4292:4314   */\n  mstore\n    /* \"#utility.yul\":4082:4320   */\n  pop\n    /* \"#utility.yul\":4039:4320   */\n  pop\n  pop\n  jump\t// out\n    /* \"#utility.yul\":4326:4506   */\ntag_87:\n    /* \"#utility.yul\":4374:4451   */\n  0x4e487b7100000000000000000000000000000000000000000000000000000000\n    /* \"#utility.yul\":4371:4372   */\n  0x00\n    /* \"#utility.yul\":4364:4452   */\n  mstore\n    /* \"#utility.yul\":4471:4475   */\n  0x22\n    /* \"#utility.yul\":4468:4469   */\n  0x04\n    /* \"#utility.yul\":4461:4476   */\n  mstore\n    /* \"#utility.yul\":4495:4499   */\n  0x24\n    /* \"#utility.yul\":4492:4493   */\n  0x00\n    /* \"#utility.yul\":4485:4500   */\n  revert\n    /* \"#utility.yul\":4512:4692   */\ntag_73:\n    /* \"#utility.yul\":4560:4637   */\n  0x4e487b7100000000000000000000000000000000000000000000000000000000\n    /* \"#utility.yul\":4557:4558   */\n  0x00\n    /* \"#utility.yul\":4550:4638   */\n  mstore\n    /* \"#utility.yul\":4657:4661   */\n  0x41\n    /* \"#utility.yul\":4654:4655   */\n  0x04\n    /* \"#utility.yul\":4647:4662   */\n  mstore\n    /* \"#utility.yul\":4681:4685   */\n  0x24\n    /* \"#utility.yul\":4678:4679   */\n  0x00\n    /* \"#utility.yul\":4671:4686   */\n  revert\n    /* \"#utility.yul\":4698:4815   */\ntag_39:\n    /* \"#utility.yul\":4807:4808   */\n  0x00\n    /* \"#utility.yul\":4804:4805   */\n  dup1\n    /* \"#utility.yul\":4797:4809   */\n  revert\n    /* \"#utility.yul\":4821:4938   */\ntag_32:\n    /* \"#utility.yul\":4930:4931   */\n  0x00\n    /* \"#utility.yul\":4927:4928   */\n  dup1\n    /* \"#utility.yul\":4920:4932   */\n  revert\n    /* \"#utility.yul\":4944:5061   */\ntag_51:\n    /* \"#utility.yul\":5053:5054   */\n  0x00\n    /* \"#utility.yul\":5050:5051   */\n  dup1\n    /* \"#utility.yul\":5043:5055   */\n  revert\n    /* \"#utility.yul\":5067:5184   */\ntag_48:\n    /* \"#utility.yul\":5176:5177   */\n  0x00\n    /* \"#utility.yul\":5173:5174   */\n  dup1\n    /* \"#utility.yul\":5166:5178   */\n  revert\n    /* \"#utility.yul\":5190:5292   */\ntag_75:\n    /* \"#utility.yul\":5231:5237   */\n  0x00\n    /* \"#utility.yul\":5282:5284   */\n  0x1f\n    /* \"#utility.yul\":5278:5285   */\n  not\n    /* \"#utility.yul\":5273:5275   */\n  0x1f\n    /* \"#utility.yul\":5266:5271   */\n  dup4\n    /* \"#utility.yul\":5262:5276   */\n  add\n    /* \"#utility.yul\":5258:5286   */\n  and\n    /* \"#utility.yul\":5248:5286   */\n  swap1\n  pop\n    /* \"#utility.yul\":5190:5292   */\n  swap2\n  swap1\n  pop\n  jump\t// out\n    /* \"#utility.yul\":5298:5416   */\ntag_44:\n    /* \"#utility.yul\":5369:5391   */\n  tag_100\n    /* \"#utility.yul\":5385:5390   */\n  dup2\n    /* \"#utility.yul\":5369:5391   */\n  tag_76\n  jump\t// in\ntag_100:\n    /* \"#utility.yul\":5362:5367   */\n  dup2\n    /* \"#utility.yul\":5359:5392   */\n  eq\n    /* \"#utility.yul\":5349:5410   */\n  tag_101\n  jumpi\n    /* \"#utility.yul\":5406:5407   */\n  0x00\n    /* \"#utility.yul\":5403:5404   */\n  dup1\n    /* \"#utility.yul\":5396:5408   */\n  revert\n    /* \"#utility.yul\":5349:5410   */\ntag_101:\n    /* \"#utility.yul\":5298:5416   */\n  pop\n  jump\t// out\n    /* \"contracts/Votes.sol\":291:2034  contract Vote {\r... */\ntag_11:\n  dataSize(sub_0)\n  dup1\n  dataOffset(sub_0)\n  0x00\n  codecopy\n  0x00\n  return\nstop\n\nsub_0: assembly {\n        /* \"contracts/Votes.sol\":291:2034  contract Vote {\r... */\n      mstore(0x40, 0x80)\n      callvalue\n      dup1\n      iszero\n      tag_1\n      jumpi\n      0x00\n      dup1\n      revert\n    tag_1:\n      pop\n      jumpi(tag_2, lt(calldatasize, 0x04))\n      shr(0xe0, calldataload(0x00))\n      dup1\n      0x48e257cb\n      eq\n      tag_3\n      jumpi\n      dup1\n      0x5f5069df\n      eq\n      tag_4\n      jumpi\n      dup1\n      0x5f57697c\n      eq\n      tag_5\n      jumpi\n      dup1\n      0x92dcef09\n      eq\n      tag_6\n      jumpi\n      dup1\n      0xa92284d0\n      eq\n      tag_7\n      jumpi\n    tag_2:\n      0x00\n      dup1\n      revert\n        /* \"contracts/Votes.sol\":714:734  candidatos public c2 */\n    tag_3:\n      tag_8\n      tag_9\n      jump\t// in\n    tag_8:\n      mload(0x40)\n      tag_10\n      swap5\n      swap4\n      swap3\n      swap2\n      swap1\n      tag_11\n      jump\t// in\n    tag_10:\n      mload(0x40)\n      dup1\n      swap2\n      sub\n      swap1\n      return\n        /* \"contracts/Votes.sol\":1476:1637  function derechoAVotar(address votante) public{\r... */\n    tag_4:\n      tag_12\n      0x04\n      dup1\n      calldatasize\n      sub\n      dup2\n      add\n      swap1\n      tag_13\n      swap2\n      swap1\n      tag_14\n      jump\t// in\n    tag_13:\n      tag_15\n      jump\t// in\n    tag_12:\n      stop\n        /* \"contracts/Votes.sol\":686:706  candidatos public c1 */\n    tag_5:\n      tag_16\n      tag_17\n      jump\t// in\n    tag_16:\n      mload(0x40)\n      tag_18\n      swap5\n      swap4\n      swap3\n      swap2\n      swap1\n      tag_11\n      jump\t// in\n    tag_18:\n      mload(0x40)\n      dup1\n      swap2\n      sub\n      swap1\n      return\n        /* \"contracts/Votes.sol\":1767:2023  function votar(uint8 idCandidato )public {\r... */\n    tag_6:\n      tag_19\n      0x04\n      dup1\n      calldatasize\n      sub\n      dup2\n      add\n      swap1\n      tag_20\n      swap2\n      swap1\n      tag_21\n      jump\t// in\n    tag_20:\n      tag_22\n      jump\t// in\n    tag_19:\n      stop\n        /* \"contracts/Votes.sol\":536:581  mapping (address => Votantes) public votantes */\n    tag_7:\n      tag_23\n      0x04\n      dup1\n      calldatasize\n      sub\n      dup2\n      add\n      swap1\n      tag_24\n      swap2\n      swap1\n      tag_14\n      jump\t// in\n    tag_24:\n      tag_25\n      jump\t// in\n    tag_23:\n      mload(0x40)\n      tag_26\n      swap3\n      swap2\n      swap1\n      tag_27\n      jump\t// in\n    tag_26:\n      mload(0x40)\n      dup1\n      swap2\n      sub\n      swap1\n      return\n        /* \"contracts/Votes.sol\":714:734  candidatos public c2 */\n    tag_9:\n      0x05\n      dup1\n      0x00\n      add\n      0x00\n      swap1\n      sload\n      swap1\n      0x0100\n      exp\n      swap1\n      div\n      0xff\n      and\n      swap1\n      dup1\n      0x01\n      add\n      dup1\n      sload\n      tag_28\n      swap1\n      tag_29\n      jump\t// in\n    tag_28:\n      dup1\n      0x1f\n      add\n      0x20\n      dup1\n      swap2\n      div\n      mul\n      0x20\n      add\n      mload(0x40)\n      swap1\n      dup2\n      add\n      0x40\n      mstore\n      dup1\n      swap3\n      swap2\n      swap1\n      dup2\n      dup2\n      mstore\n      0x20\n      add\n      dup3\n      dup1\n      sload\n      tag_30\n      swap1\n      tag_29\n      jump\t// in\n    tag_30:\n      dup1\n      iszero\n      tag_31\n      jumpi\n      dup1\n      0x1f\n      lt\n      tag_32\n      jumpi\n      0x0100\n      dup1\n      dup4\n      sload\n      div\n      mul\n      dup4\n      mstore\n      swap2\n      0x20\n      add\n      swap2\n      jump(tag_31)\n    tag_32:\n      dup3\n      add\n      swap2\n      swap1\n      0x00\n      mstore\n      keccak256(0x00, 0x20)\n      swap1\n    tag_33:\n      dup2\n      sload\n      dup2\n      mstore\n      swap1\n      0x01\n      add\n      swap1\n      0x20\n      add\n      dup1\n      dup4\n      gt\n      tag_33\n      jumpi\n      dup3\n      swap1\n      sub\n      0x1f\n      and\n      dup3\n      add\n      swap2\n    tag_31:\n      pop\n      pop\n      pop\n      pop\n      pop\n      swap1\n      dup1\n      0x02\n      add\n      dup1\n      sload\n      tag_34\n      swap1\n      tag_29\n      jump\t// in\n    tag_34:\n      dup1\n      0x1f\n      add\n      0x20\n      dup1\n      swap2\n      div\n      mul\n      0x20\n      add\n      mload(0x40)\n      swap1\n      dup2\n      add\n      0x40\n      mstore\n      dup1\n      swap3\n      swap2\n      swap1\n      dup2\n      dup2\n      mstore\n      0x20\n      add\n      dup3\n      dup1\n      sload\n      tag_35\n      swap1\n      tag_29\n      jump\t// in\n    tag_35:\n      dup1\n      iszero\n      tag_36\n      jumpi\n      dup1\n      0x1f\n      lt\n      tag_37\n      jumpi\n      0x0100\n      dup1\n      dup4\n      sload\n      div\n      mul\n      dup4\n      mstore\n      swap2\n      0x20\n      add\n      swap2\n      jump(tag_36)\n    tag_37:\n      dup3\n      add\n      swap2\n      swap1\n      0x00\n      mstore\n      keccak256(0x00, 0x20)\n      swap1\n    tag_38:\n      dup2\n      sload\n      dup2\n      mstore\n      swap1\n      0x01\n      add\n      swap1\n      0x20\n      add\n      dup1\n      dup4\n      gt\n      tag_38\n      jumpi\n      dup3\n      swap1\n      sub\n      0x1f\n      and\n      dup3\n      add\n      swap2\n    tag_36:\n      pop\n      pop\n      pop\n      pop\n      pop\n      swap1\n      dup1\n      0x03\n      add\n      sload\n      swap1\n      pop\n      dup5\n      jump\t// out\n        /* \"contracts/Votes.sol\":1476:1637  function derechoAVotar(address votante) public{\r... */\n    tag_15:\n        /* \"contracts/Votes.sol\":1550:1560  msg.sender */\n      caller\n        /* \"contracts/Votes.sol\":1541:1560  owner == msg.sender */\n      0xffffffffffffffffffffffffffffffffffffffff\n      and\n        /* \"contracts/Votes.sol\":1541:1546  owner */\n      0x09\n      0x00\n      swap1\n      sload\n      swap1\n      0x0100\n      exp\n      swap1\n      div\n      0xffffffffffffffffffffffffffffffffffffffff\n      and\n        /* \"contracts/Votes.sol\":1541:1560  owner == msg.sender */\n      0xffffffffffffffffffffffffffffffffffffffff\n      and\n      eq\n        /* \"contracts/Votes.sol\":1533:1583  require(owner == msg.sender, \"No eres el INE DEX\") */\n      tag_40\n      jumpi\n      mload(0x40)\n      0x08c379a000000000000000000000000000000000000000000000000000000000\n      dup2\n      mstore\n      0x04\n      add\n      tag_41\n      swap1\n      tag_42\n      jump\t// in\n    tag_41:\n      mload(0x40)\n      dup1\n      swap2\n      sub\n      swap1\n      revert\n    tag_40:\n        /* \"contracts/Votes.sol\":1625:1629  true */\n      0x01\n        /* \"contracts/Votes.sol\":1594:1602  votantes */\n      0x00\n        /* \"contracts/Votes.sol\":1594:1611  votantes[votante] */\n      dup1\n        /* \"contracts/Votes.sol\":1603:1610  votante */\n      dup4\n        /* \"contracts/Votes.sol\":1594:1611  votantes[votante] */\n      0xffffffffffffffffffffffffffffffffffffffff\n      and\n      0xffffffffffffffffffffffffffffffffffffffff\n      and\n      dup2\n      mstore\n      0x20\n      add\n      swap1\n      dup2\n      mstore\n      0x20\n      add\n      0x00\n      keccak256\n        /* \"contracts/Votes.sol\":1594:1622  votantes[votante].puedeVotar */\n      0x00\n      add\n      0x01\n        /* \"contracts/Votes.sol\":1594:1629  votantes[votante].puedeVotar = true */\n      0x0100\n      exp\n      dup2\n      sload\n      dup2\n      0xff\n      mul\n      not\n      and\n      swap1\n      dup4\n      iszero\n      iszero\n      mul\n      or\n      swap1\n      sstore\n      pop\n        /* \"contracts/Votes.sol\":1476:1637  function derechoAVotar(address votante) public{\r... */\n      pop\n      jump\t// out\n        /* \"contracts/Votes.sol\":686:706  candidatos public c1 */\n    tag_17:\n      0x01\n      dup1\n      0x00\n      add\n      0x00\n      swap1\n      sload\n      swap1\n      0x0100\n      exp\n      swap1\n      div\n      0xff\n      and\n      swap1\n      dup1\n      0x01\n      add\n      dup1\n      sload\n      tag_43\n      swap1\n      tag_29\n      jump\t// in\n    tag_43:\n      dup1\n      0x1f\n      add\n      0x20\n      dup1\n      swap2\n      div\n      mul\n      0x20\n      add\n      mload(0x40)\n      swap1\n      dup2\n      add\n      0x40\n      mstore\n      dup1\n      swap3\n      swap2\n      swap1\n      dup2\n      dup2\n      mstore\n      0x20\n      add\n      dup3\n      dup1\n      sload\n      tag_44\n      swap1\n      tag_29\n      jump\t// in\n    tag_44:\n      dup1\n      iszero\n      tag_45\n      jumpi\n      dup1\n      0x1f\n      lt\n      tag_46\n      jumpi\n      0x0100\n      dup1\n      dup4\n      sload\n      div\n      mul\n      dup4\n      mstore\n      swap2\n      0x20\n      add\n      swap2\n      jump(tag_45)\n    tag_46:\n      dup3\n      add\n      swap2\n      swap1\n      0x00\n      mstore\n      keccak256(0x00, 0x20)\n      swap1\n    tag_47:\n      dup2\n      sload\n      dup2\n      mstore\n      swap1\n      0x01\n      add\n      swap1\n      0x20\n      add\n      dup1\n      dup4\n      gt\n      tag_47\n      jumpi\n      dup3\n      swap1\n      sub\n      0x1f\n      and\n      dup3\n      add\n      swap2\n    tag_45:\n      pop\n      pop\n      pop\n      pop\n      pop\n      swap1\n      dup1\n      0x02\n      add\n      dup1\n      sload\n      tag_48\n      swap1\n      tag_29\n      jump\t// in\n    tag_48:\n      dup1\n      0x1f\n      add\n      0x20\n      dup1\n      swap2\n      div\n      mul\n      0x20\n      add\n      mload(0x40)\n      swap1\n      dup2\n      add\n      0x40\n      mstore\n      dup1\n      swap3\n      swap2\n      swap1\n      dup2\n      dup2\n      mstore\n      0x20\n      add\n      dup3\n      dup1\n      sload\n      tag_49\n      swap1\n      tag_29\n      jump\t// in\n    tag_49:\n      dup1\n      iszero\n      tag_50\n      jumpi\n      dup1\n      0x1f\n      lt\n      tag_51\n      jumpi\n      0x0100\n      dup1\n      dup4\n      sload\n      div\n      mul\n      dup4\n      mstore\n      swap2\n      0x20\n      add\n      swap2\n      jump(tag_50)\n    tag_51:\n      dup3\n      add\n      swap2\n      swap1\n      0x00\n      mstore\n      keccak256(0x00, 0x20)\n      swap1\n    tag_52:\n      dup2\n      sload\n      dup2\n      mstore\n      swap1\n      0x01\n      add\n      swap1\n      0x20\n      add\n      dup1\n      dup4\n      gt\n      tag_52\n      jumpi\n      dup3\n      swap1\n      sub\n      0x1f\n      and\n      dup3\n      add\n      swap2\n    tag_50:\n      pop\n      pop\n      pop\n      pop\n      pop\n      swap1\n      dup1\n      0x03\n      add\n      sload\n      swap1\n      pop\n      dup5\n      jump\t// out\n        /* \"contracts/Votes.sol\":1767:2023  function votar(uint8 idCandidato )public {\r... */\n    tag_22:\n        /* \"contracts/Votes.sol\":1827:1835  votantes */\n      0x00\n        /* \"contracts/Votes.sol\":1827:1847  votantes[msg.sender] */\n      dup1\n        /* \"contracts/Votes.sol\":1836:1846  msg.sender */\n      caller\n        /* \"contracts/Votes.sol\":1827:1847  votantes[msg.sender] */\n      0xffffffffffffffffffffffffffffffffffffffff\n      and\n      0xffffffffffffffffffffffffffffffffffffffff\n      and\n      dup2\n      mstore\n      0x20\n      add\n      swap1\n      dup2\n      mstore\n      0x20\n      add\n      0x00\n      keccak256\n        /* \"contracts/Votes.sol\":1827:1858  votantes[msg.sender].puedeVotar */\n      0x00\n      add\n      0x01\n      swap1\n      sload\n      swap1\n      0x0100\n      exp\n      swap1\n      div\n      0xff\n      and\n        /* \"contracts/Votes.sol\":1819:1888  require(votantes[msg.sender].puedeVotar, \"No tienes derecho a votar\") */\n      tag_54\n      jumpi\n      mload(0x40)\n      0x08c379a000000000000000000000000000000000000000000000000000000000\n      dup2\n      mstore\n      0x04\n      add\n      tag_55\n      swap1\n      tag_56\n      jump\t// in\n    tag_55:\n      mload(0x40)\n      dup1\n      swap2\n      sub\n      swap1\n      revert\n    tag_54:\n        /* \"contracts/Votes.sol\":1925:1927  c1 */\n      0x01\n        /* \"contracts/Votes.sol\":1925:1930  c1.id */\n      0x00\n      add\n      0x00\n      swap1\n      sload\n      swap1\n      0x0100\n      exp\n      swap1\n      div\n      0xff\n      and\n        /* \"contracts/Votes.sol\":1910:1930  idCandidato == c1.id */\n      0xff\n      and\n        /* \"contracts/Votes.sol\":1910:1921  idCandidato */\n      dup2\n        /* \"contracts/Votes.sol\":1910:1930  idCandidato == c1.id */\n      0xff\n      and\n      eq\n        /* \"contracts/Votes.sol\":1907:2014  if(idCandidato == c1.id ){\r... */\n      iszero\n      tag_57\n      jumpi\n        /* \"contracts/Votes.sol\":1958:1959  1 */\n      0x01\n        /* \"contracts/Votes.sol\":1946:1948  c1 */\n      dup1\n        /* \"contracts/Votes.sol\":1946:1954  c1.votos */\n      0x03\n      add\n      0x00\n        /* \"contracts/Votes.sol\":1946:1959  c1.votos += 1 */\n      dup3\n      dup3\n      sload\n      tag_58\n      swap2\n      swap1\n      tag_59\n      jump\t// in\n    tag_58:\n      swap3\n      pop\n      pop\n      dup2\n      swap1\n      sstore\n      pop\n        /* \"contracts/Votes.sol\":1907:2014  if(idCandidato == c1.id ){\r... */\n      jump(tag_60)\n    tag_57:\n        /* \"contracts/Votes.sol\":2002:2003  1 */\n      0x01\n        /* \"contracts/Votes.sol\":1990:1992  c2 */\n      0x05\n        /* \"contracts/Votes.sol\":1990:1998  c2.votos */\n      0x03\n      add\n      0x00\n        /* \"contracts/Votes.sol\":1990:2003  c2.votos += 1 */\n      dup3\n      dup3\n      sload\n      tag_61\n      swap2\n      swap1\n      tag_59\n      jump\t// in\n    tag_61:\n      swap3\n      pop\n      pop\n      dup2\n      swap1\n      sstore\n      pop\n        /* \"contracts/Votes.sol\":1907:2014  if(idCandidato == c1.id ){\r... */\n    tag_60:\n        /* \"contracts/Votes.sol\":1767:2023  function votar(uint8 idCandidato )public {\r... */\n      pop\n      jump\t// out\n        /* \"contracts/Votes.sol\":536:581  mapping (address => Votantes) public votantes */\n    tag_25:\n      mstore(0x20, 0x00)\n      dup1\n      0x00\n      mstore\n      keccak256(0x00, 0x40)\n      0x00\n      swap2\n      pop\n      swap1\n      pop\n      dup1\n      0x00\n      add\n      0x00\n      swap1\n      sload\n      swap1\n      0x0100\n      exp\n      swap1\n      div\n      0xff\n      and\n      swap1\n      dup1\n      0x00\n      add\n      0x01\n      swap1\n      sload\n      swap1\n      0x0100\n      exp\n      swap1\n      div\n      0xff\n      and\n      swap1\n      pop\n      dup3\n      jump\t// out\n        /* \"#utility.yul\":7:146   */\n    tag_63:\n        /* \"#utility.yul\":53:58   */\n      0x00\n        /* \"#utility.yul\":91:97   */\n      dup2\n        /* \"#utility.yul\":78:98   */\n      calldataload\n        /* \"#utility.yul\":69:98   */\n      swap1\n      pop\n        /* \"#utility.yul\":107:140   */\n      tag_65\n        /* \"#utility.yul\":134:139   */\n      dup2\n        /* \"#utility.yul\":107:140   */\n      tag_66\n      jump\t// in\n    tag_65:\n        /* \"#utility.yul\":7:146   */\n      swap3\n      swap2\n      pop\n      pop\n      jump\t// out\n        /* \"#utility.yul\":152:287   */\n    tag_67:\n        /* \"#utility.yul\":196:201   */\n      0x00\n        /* \"#utility.yul\":234:240   */\n      dup2\n        /* \"#utility.yul\":221:241   */\n      calldataload\n        /* \"#utility.yul\":212:241   */\n      swap1\n      pop\n        /* \"#utility.yul\":250:281   */\n      tag_69\n        /* \"#utility.yul\":275:280   */\n      dup2\n        /* \"#utility.yul\":250:281   */\n      tag_70\n      jump\t// in\n    tag_69:\n        /* \"#utility.yul\":152:287   */\n      swap3\n      swap2\n      pop\n      pop\n      jump\t// out\n        /* \"#utility.yul\":293:622   */\n    tag_14:\n        /* \"#utility.yul\":352:358   */\n      0x00\n        /* \"#utility.yul\":401:403   */\n      0x20\n        /* \"#utility.yul\":389:398   */\n      dup3\n        /* \"#utility.yul\":380:387   */\n      dup5\n        /* \"#utility.yul\":376:399   */\n      sub\n        /* \"#utility.yul\":372:404   */\n      slt\n        /* \"#utility.yul\":369:488   */\n      iszero\n      tag_72\n      jumpi\n        /* \"#utility.yul\":407:486   */\n      tag_73\n      tag_74\n      jump\t// in\n    tag_73:\n        /* \"#utility.yul\":369:488   */\n    tag_72:\n        /* \"#utility.yul\":527:528   */\n      0x00\n        /* \"#utility.yul\":552:605   */\n      tag_75\n        /* \"#utility.yul\":597:604   */\n      dup5\n        /* \"#utility.yul\":588:594   */\n      dup3\n        /* \"#utility.yul\":577:586   */\n      dup6\n        /* \"#utility.yul\":573:595   */\n      add\n        /* \"#utility.yul\":552:605   */\n      tag_63\n      jump\t// in\n    tag_75:\n        /* \"#utility.yul\":542:605   */\n      swap2\n      pop\n        /* \"#utility.yul\":498:615   */\n      pop\n        /* \"#utility.yul\":293:622   */\n      swap3\n      swap2\n      pop\n      pop\n      jump\t// out\n        /* \"#utility.yul\":628:953   */\n    tag_21:\n        /* \"#utility.yul\":685:691   */\n      0x00\n        /* \"#utility.yul\":734:736   */\n      0x20\n        /* \"#utility.yul\":722:731   */\n      dup3\n        /* \"#utility.yul\":713:720   */\n      dup5\n        /* \"#utility.yul\":709:732   */\n      sub\n        /* \"#utility.yul\":705:737   */\n      slt\n        /* \"#utility.yul\":702:821   */\n      iszero\n      tag_77\n      jumpi\n        /* \"#utility.yul\":740:819   */\n      tag_78\n      tag_74\n      jump\t// in\n    tag_78:\n        /* \"#utility.yul\":702:821   */\n    tag_77:\n        /* \"#utility.yul\":860:861   */\n      0x00\n        /* \"#utility.yul\":885:936   */\n      tag_79\n        /* \"#utility.yul\":928:935   */\n      dup5\n        /* \"#utility.yul\":919:925   */\n      dup3\n        /* \"#utility.yul\":908:917   */\n      dup6\n        /* \"#utility.yul\":904:926   */\n      add\n        /* \"#utility.yul\":885:936   */\n      tag_67\n      jump\t// in\n    tag_79:\n        /* \"#utility.yul\":875:936   */\n      swap2\n      pop\n        /* \"#utility.yul\":831:946   */\n      pop\n        /* \"#utility.yul\":628:953   */\n      swap3\n      swap2\n      pop\n      pop\n      jump\t// out\n        /* \"#utility.yul\":959:1068   */\n    tag_80:\n        /* \"#utility.yul\":1040:1061   */\n      tag_82\n        /* \"#utility.yul\":1055:1060   */\n      dup2\n        /* \"#utility.yul\":1040:1061   */\n      tag_83\n      jump\t// in\n    tag_82:\n        /* \"#utility.yul\":1035:1038   */\n      dup3\n        /* \"#utility.yul\":1028:1062   */\n      mstore\n        /* \"#utility.yul\":959:1068   */\n      pop\n      pop\n      jump\t// out\n        /* \"#utility.yul\":1074:1438   */\n    tag_84:\n        /* \"#utility.yul\":1162:1165   */\n      0x00\n        /* \"#utility.yul\":1190:1229   */\n      tag_86\n        /* \"#utility.yul\":1223:1228   */\n      dup3\n        /* \"#utility.yul\":1190:1229   */\n      tag_87\n      jump\t// in\n    tag_86:\n        /* \"#utility.yul\":1245:1316   */\n      tag_88\n        /* \"#utility.yul\":1309:1315   */\n      dup2\n        /* \"#utility.yul\":1304:1307   */\n      dup6\n        /* \"#utility.yul\":1245:1316   */\n      tag_89\n      jump\t// in\n    tag_88:\n        /* \"#utility.yul\":1238:1316   */\n      swap4\n      pop\n        /* \"#utility.yul\":1325:1377   */\n      tag_90\n        /* \"#utility.yul\":1370:1376   */\n      dup2\n        /* \"#utility.yul\":1365:1368   */\n      dup6\n        /* \"#utility.yul\":1358:1362   */\n      0x20\n        /* \"#utility.yul\":1351:1356   */\n      dup7\n        /* \"#utility.yul\":1347:1363   */\n      add\n        /* \"#utility.yul\":1325:1377   */\n      tag_91\n      jump\t// in\n    tag_90:\n        /* \"#utility.yul\":1402:1431   */\n      tag_92\n        /* \"#utility.yul\":1424:1430   */\n      dup2\n        /* \"#utility.yul\":1402:1431   */\n      tag_93\n      jump\t// in\n    tag_92:\n        /* \"#utility.yul\":1397:1400   */\n      dup5\n        /* \"#utility.yul\":1393:1432   */\n      add\n        /* \"#utility.yul\":1386:1432   */\n      swap2\n      pop\n        /* \"#utility.yul\":1166:1438   */\n      pop\n        /* \"#utility.yul\":1074:1438   */\n      swap3\n      swap2\n      pop\n      pop\n      jump\t// out\n        /* \"#utility.yul\":1444:1810   */\n    tag_94:\n        /* \"#utility.yul\":1586:1589   */\n      0x00\n        /* \"#utility.yul\":1607:1674   */\n      tag_96\n        /* \"#utility.yul\":1671:1673   */\n      0x12\n        /* \"#utility.yul\":1666:1669   */\n      dup4\n        /* \"#utility.yul\":1607:1674   */\n      tag_89\n      jump\t// in\n    tag_96:\n        /* \"#utility.yul\":1600:1674   */\n      swap2\n      pop\n        /* \"#utility.yul\":1683:1776   */\n      tag_97\n        /* \"#utility.yul\":1772:1775   */\n      dup3\n        /* \"#utility.yul\":1683:1776   */\n      tag_98\n      jump\t// in\n    tag_97:\n        /* \"#utility.yul\":1801:1803   */\n      0x20\n        /* \"#utility.yul\":1796:1799   */\n      dup3\n        /* \"#utility.yul\":1792:1804   */\n      add\n        /* \"#utility.yul\":1785:1804   */\n      swap1\n      pop\n        /* \"#utility.yul\":1444:1810   */\n      swap2\n      swap1\n      pop\n      jump\t// out\n        /* \"#utility.yul\":1816:2182   */\n    tag_99:\n        /* \"#utility.yul\":1958:1961   */\n      0x00\n        /* \"#utility.yul\":1979:2046   */\n      tag_101\n        /* \"#utility.yul\":2043:2045   */\n      0x19\n        /* \"#utility.yul\":2038:2041   */\n      dup4\n        /* \"#utility.yul\":1979:2046   */\n      tag_89\n      jump\t// in\n    tag_101:\n        /* \"#utility.yul\":1972:2046   */\n      swap2\n      pop\n        /* \"#utility.yul\":2055:2148   */\n      tag_102\n        /* \"#utility.yul\":2144:2147   */\n      dup3\n        /* \"#utility.yul\":2055:2148   */\n      tag_103\n      jump\t// in\n    tag_102:\n        /* \"#utility.yul\":2173:2175   */\n      0x20\n        /* \"#utility.yul\":2168:2171   */\n      dup3\n        /* \"#utility.yul\":2164:2176   */\n      add\n        /* \"#utility.yul\":2157:2176   */\n      swap1\n      pop\n        /* \"#utility.yul\":1816:2182   */\n      swap2\n      swap1\n      pop\n      jump\t// out\n        /* \"#utility.yul\":2188:2306   */\n    tag_104:\n        /* \"#utility.yul\":2275:2299   */\n      tag_106\n        /* \"#utility.yul\":2293:2298   */\n      dup2\n        /* \"#utility.yul\":2275:2299   */\n      tag_107\n      jump\t// in\n    tag_106:\n        /* \"#utility.yul\":2270:2273   */\n      dup3\n        /* \"#utility.yul\":2263:2300   */\n      mstore\n        /* \"#utility.yul\":2188:2306   */\n      pop\n      pop\n      jump\t// out\n        /* \"#utility.yul\":2312:2424   */\n    tag_108:\n        /* \"#utility.yul\":2395:2417   */\n      tag_110\n        /* \"#utility.yul\":2411:2416   */\n      dup2\n        /* \"#utility.yul\":2395:2417   */\n      tag_111\n      jump\t// in\n    tag_110:\n        /* \"#utility.yul\":2390:2393   */\n      dup3\n        /* \"#utility.yul\":2383:2418   */\n      mstore\n        /* \"#utility.yul\":2312:2424   */\n      pop\n      pop\n      jump\t// out\n        /* \"#utility.yul\":2430:2738   */\n    tag_27:\n        /* \"#utility.yul\":2539:2543   */\n      0x00\n        /* \"#utility.yul\":2577:2579   */\n      0x40\n        /* \"#utility.yul\":2566:2575   */\n      dup3\n        /* \"#utility.yul\":2562:2580   */\n      add\n        /* \"#utility.yul\":2554:2580   */\n      swap1\n      pop\n        /* \"#utility.yul\":2590:2655   */\n      tag_113\n        /* \"#utility.yul\":2652:2653   */\n      0x00\n        /* \"#utility.yul\":2641:2650   */\n      dup4\n        /* \"#utility.yul\":2637:2654   */\n      add\n        /* \"#utility.yul\":2628:2634   */\n      dup6\n        /* \"#utility.yul\":2590:2655   */\n      tag_80\n      jump\t// in\n    tag_113:\n        /* \"#utility.yul\":2665:2731   */\n      tag_114\n        /* \"#utility.yul\":2727:2729   */\n      0x20\n        /* \"#utility.yul\":2716:2725   */\n      dup4\n        /* \"#utility.yul\":2712:2730   */\n      add\n        /* \"#utility.yul\":2703:2709   */\n      dup5\n        /* \"#utility.yul\":2665:2731   */\n      tag_80\n      jump\t// in\n    tag_114:\n        /* \"#utility.yul\":2430:2738   */\n      swap4\n      swap3\n      pop\n      pop\n      pop\n      jump\t// out\n        /* \"#utility.yul\":2744:3163   */\n    tag_42:\n        /* \"#utility.yul\":2910:2914   */\n      0x00\n        /* \"#utility.yul\":2948:2950   */\n      0x20\n        /* \"#utility.yul\":2937:2946   */\n      dup3\n        /* \"#utility.yul\":2933:2951   */\n      add\n        /* \"#utility.yul\":2925:2951   */\n      swap1\n      pop\n        /* \"#utility.yul\":2997:3006   */\n      dup2\n        /* \"#utility.yul\":2991:2995   */\n      dup2\n        /* \"#utility.yul\":2987:3007   */\n      sub\n        /* \"#utility.yul\":2983:2984   */\n      0x00\n        /* \"#utility.yul\":2972:2981   */\n      dup4\n        /* \"#utility.yul\":2968:2985   */\n      add\n        /* \"#utility.yul\":2961:3008   */\n      mstore\n        /* \"#utility.yul\":3025:3156   */\n      tag_116\n        /* \"#utility.yul\":3151:3155   */\n      dup2\n        /* \"#utility.yul\":3025:3156   */\n      tag_94\n      jump\t// in\n    tag_116:\n        /* \"#utility.yul\":3017:3156   */\n      swap1\n      pop\n        /* \"#utility.yul\":2744:3163   */\n      swap2\n      swap1\n      pop\n      jump\t// out\n        /* \"#utility.yul\":3169:3588   */\n    tag_56:\n        /* \"#utility.yul\":3335:3339   */\n      0x00\n        /* \"#utility.yul\":3373:3375   */\n      0x20\n        /* \"#utility.yul\":3362:3371   */\n      dup3\n        /* \"#utility.yul\":3358:3376   */\n      add\n        /* \"#utility.yul\":3350:3376   */\n      swap1\n      pop\n        /* \"#utility.yul\":3422:3431   */\n      dup2\n        /* \"#utility.yul\":3416:3420   */\n      dup2\n        /* \"#utility.yul\":3412:3432   */\n      sub\n        /* \"#utility.yul\":3408:3409   */\n      0x00\n        /* \"#utility.yul\":3397:3406   */\n      dup4\n        /* \"#utility.yul\":3393:3410   */\n      add\n        /* \"#utility.yul\":3386:3433   */\n      mstore\n        /* \"#utility.yul\":3450:3581   */\n      tag_118\n        /* \"#utility.yul\":3576:3580   */\n      dup2\n        /* \"#utility.yul\":3450:3581   */\n      tag_99\n      jump\t// in\n    tag_118:\n        /* \"#utility.yul\":3442:3581   */\n      swap1\n      pop\n        /* \"#utility.yul\":3169:3588   */\n      swap2\n      swap1\n      pop\n      jump\t// out\n        /* \"#utility.yul\":3594:4321   */\n    tag_11:\n        /* \"#utility.yul\":3807:3811   */\n      0x00\n        /* \"#utility.yul\":3845:3848   */\n      0x80\n        /* \"#utility.yul\":3834:3843   */\n      dup3\n        /* \"#utility.yul\":3830:3849   */\n      add\n        /* \"#utility.yul\":3822:3849   */\n      swap1\n      pop\n        /* \"#utility.yul\":3859:3926   */\n      tag_120\n        /* \"#utility.yul\":3923:3924   */\n      0x00\n        /* \"#utility.yul\":3912:3921   */\n      dup4\n        /* \"#utility.yul\":3908:3925   */\n      add\n        /* \"#utility.yul\":3899:3905   */\n      dup8\n        /* \"#utility.yul\":3859:3926   */\n      tag_108\n      jump\t// in\n    tag_120:\n        /* \"#utility.yul\":3973:3982   */\n      dup2\n        /* \"#utility.yul\":3967:3971   */\n      dup2\n        /* \"#utility.yul\":3963:3983   */\n      sub\n        /* \"#utility.yul\":3958:3960   */\n      0x20\n        /* \"#utility.yul\":3947:3956   */\n      dup4\n        /* \"#utility.yul\":3943:3961   */\n      add\n        /* \"#utility.yul\":3936:3984   */\n      mstore\n        /* \"#utility.yul\":4001:4079   */\n      tag_121\n        /* \"#utility.yul\":4074:4078   */\n      dup2\n        /* \"#utility.yul\":4065:4071   */\n      dup7\n        /* \"#utility.yul\":4001:4079   */\n      tag_84\n      jump\t// in\n    tag_121:\n        /* \"#utility.yul\":3993:4079   */\n      swap1\n      pop\n        /* \"#utility.yul\":4126:4135   */\n      dup2\n        /* \"#utility.yul\":4120:4124   */\n      dup2\n        /* \"#utility.yul\":4116:4136   */\n      sub\n        /* \"#utility.yul\":4111:4113   */\n      0x40\n        /* \"#utility.yul\":4100:4109   */\n      dup4\n        /* \"#utility.yul\":4096:4114   */\n      add\n        /* \"#utility.yul\":4089:4137   */\n      mstore\n        /* \"#utility.yul\":4154:4232   */\n      tag_122\n        /* \"#utility.yul\":4227:4231   */\n      dup2\n        /* \"#utility.yul\":4218:4224   */\n      dup6\n        /* \"#utility.yul\":4154:4232   */\n      tag_84\n      jump\t// in\n    tag_122:\n        /* \"#utility.yul\":4146:4232   */\n      swap1\n      pop\n        /* \"#utility.yul\":4242:4314   */\n      tag_123\n        /* \"#utility.yul\":4310:4312   */\n      0x60\n        /* \"#utility.yul\":4299:4308   */\n      dup4\n        /* \"#utility.yul\":4295:4313   */\n      add\n        /* \"#utility.yul\":4286:4292   */\n      dup5\n        /* \"#utility.yul\":4242:4314   */\n      tag_104\n      jump\t// in\n    tag_123:\n        /* \"#utility.yul\":3594:4321   */\n      swap6\n      swap5\n      pop\n      pop\n      pop\n      pop\n      pop\n      jump\t// out\n        /* \"#utility.yul\":4408:4507   */\n    tag_87:\n        /* \"#utility.yul\":4460:4466   */\n      0x00\n        /* \"#utility.yul\":4494:4499   */\n      dup2\n        /* \"#utility.yul\":4488:4500   */\n      mload\n        /* \"#utility.yul\":4478:4500   */\n      swap1\n      pop\n        /* \"#utility.yul\":4408:4507   */\n      swap2\n      swap1\n      pop\n      jump\t// out\n        /* \"#utility.yul\":4513:4682   */\n    tag_89:\n        /* \"#utility.yul\":4597:4608   */\n      0x00\n        /* \"#utility.yul\":4631:4637   */\n      dup3\n        /* \"#utility.yul\":4626:4629   */\n      dup3\n        /* \"#utility.yul\":4619:4638   */\n      mstore\n        /* \"#utility.yul\":4671:4675   */\n      0x20\n        /* \"#utility.yul\":4666:4669   */\n      dup3\n        /* \"#utility.yul\":4662:4676   */\n      add\n        /* \"#utility.yul\":4647:4676   */\n      swap1\n      pop\n        /* \"#utility.yul\":4513:4682   */\n      swap3\n      swap2\n      pop\n      pop\n      jump\t// out\n        /* \"#utility.yul\":4688:4993   */\n    tag_59:\n        /* \"#utility.yul\":4728:4731   */\n      0x00\n        /* \"#utility.yul\":4747:4767   */\n      tag_129\n        /* \"#utility.yul\":4765:4766   */\n      dup3\n        /* \"#utility.yul\":4747:4767   */\n      tag_107\n      jump\t// in\n    tag_129:\n        /* \"#utility.yul\":4742:4767   */\n      swap2\n      pop\n        /* \"#utility.yul\":4781:4801   */\n      tag_130\n        /* \"#utility.yul\":4799:4800   */\n      dup4\n        /* \"#utility.yul\":4781:4801   */\n      tag_107\n      jump\t// in\n    tag_130:\n        /* \"#utility.yul\":4776:4801   */\n      swap3\n      pop\n        /* \"#utility.yul\":4935:4936   */\n      dup3\n        /* \"#utility.yul\":4867:4933   */\n      0xffffffffffffffffffffffffffffffffffffffffffffffffffffffffffffffff\n        /* \"#utility.yul\":4863:4937   */\n      sub\n        /* \"#utility.yul\":4860:4861   */\n      dup3\n        /* \"#utility.yul\":4857:4938   */\n      gt\n        /* \"#utility.yul\":4854:4961   */\n      iszero\n      tag_131\n      jumpi\n        /* \"#utility.yul\":4941:4959   */\n      tag_132\n      tag_133\n      jump\t// in\n    tag_132:\n        /* \"#utility.yul\":4854:4961   */\n    tag_131:\n        /* \"#utility.yul\":4985:4986   */\n      dup3\n        /* \"#utility.yul\":4982:4983   */\n      dup3\n        /* \"#utility.yul\":4978:4987   */\n      add\n        /* \"#utility.yul\":4971:4987   */\n      swap1\n      pop\n        /* \"#utility.yul\":4688:4993   */\n      swap3\n      swap2\n      pop\n      pop\n      jump\t// out\n        /* \"#utility.yul\":4999:5095   */\n    tag_134:\n        /* \"#utility.yul\":5036:5043   */\n      0x00\n        /* \"#utility.yul\":5065:5089   */\n      tag_136\n        /* \"#utility.yul\":5083:5088   */\n      dup3\n        /* \"#utility.yul\":5065:5089   */\n      tag_137\n      jump\t// in\n    tag_136:\n        /* \"#utility.yul\":5054:5089   */\n      swap1\n      pop\n        /* \"#utility.yul\":4999:5095   */\n      swap2\n      swap1\n      pop\n      jump\t// out\n        /* \"#utility.yul\":5101:5191   */\n    tag_83:\n        /* \"#utility.yul\":5135:5142   */\n      0x00\n        /* \"#utility.yul\":5178:5183   */\n      dup2\n        /* \"#utility.yul\":5171:5184   */\n      iszero\n        /* \"#utility.yul\":5164:5185   */\n      iszero\n        /* \"#utility.yul\":5153:5185   */\n      swap1\n      pop\n        /* \"#utility.yul\":5101:5191   */\n      swap2\n      swap1\n      pop\n      jump\t// out\n        /* \"#utility.yul\":5197:5323   */\n    tag_137:\n        /* \"#utility.yul\":5234:5241   */\n      0x00\n        /* \"#utility.yul\":5274:5316   */\n      0xffffffffffffffffffffffffffffffffffffffff\n        /* \"#utility.yul\":5267:5272   */\n      dup3\n        /* \"#utility.yul\":5263:5317   */\n      and\n        /* \"#utility.yul\":5252:5317   */\n      swap1\n      pop\n        /* \"#utility.yul\":5197:5323   */\n      swap2\n      swap1\n      pop\n      jump\t// out\n        /* \"#utility.yul\":5329:5406   */\n    tag_107:\n        /* \"#utility.yul\":5366:5373   */\n      0x00\n        /* \"#utility.yul\":5395:5400   */\n      dup2\n        /* \"#utility.yul\":5384:5400   */\n      swap1\n      pop\n        /* \"#utility.yul\":5329:5406   */\n      swap2\n      swap1\n      pop\n      jump\t// out\n        /* \"#utility.yul\":5412:5498   */\n    tag_111:\n        /* \"#utility.yul\":5447:5454   */\n      0x00\n        /* \"#utility.yul\":5487:5491   */\n      0xff\n        /* \"#utility.yul\":5480:5485   */\n      dup3\n        /* \"#utility.yul\":5476:5492   */\n      and\n        /* \"#utility.yul\":5465:5492   */\n      swap1\n      pop\n        /* \"#utility.yul\":5412:5498   */\n      swap2\n      swap1\n      pop\n      jump\t// out\n        /* \"#utility.yul\":5504:5811   */\n    tag_91:\n        /* \"#utility.yul\":5572:5573   */\n      0x00\n        /* \"#utility.yul\":5582:5695   */\n    tag_143:\n        /* \"#utility.yul\":5596:5602   */\n      dup4\n        /* \"#utility.yul\":5593:5594   */\n      dup2\n        /* \"#utility.yul\":5590:5603   */\n      lt\n        /* \"#utility.yul\":5582:5695   */\n      iszero\n      tag_145\n      jumpi\n        /* \"#utility.yul\":5681:5682   */\n      dup1\n        /* \"#utility.yul\":5676:5679   */\n      dup3\n        /* \"#utility.yul\":5672:5683   */\n      add\n        /* \"#utility.yul\":5666:5684   */\n      mload\n        /* \"#utility.yul\":5662:5663   */\n      dup2\n        /* \"#utility.yul\":5657:5660   */\n      dup5\n        /* \"#utility.yul\":5653:5664   */\n      add\n        /* \"#utility.yul\":5646:5685   */\n      mstore\n        /* \"#utility.yul\":5618:5620   */\n      0x20\n        /* \"#utility.yul\":5615:5616   */\n      dup2\n        /* \"#utility.yul\":5611:5621   */\n      add\n        /* \"#utility.yul\":5606:5621   */\n      swap1\n      pop\n        /* \"#utility.yul\":5582:5695   */\n      jump(tag_143)\n    tag_145:\n        /* \"#utility.yul\":5713:5719   */\n      dup4\n        /* \"#utility.yul\":5710:5711   */\n      dup2\n        /* \"#utility.yul\":5707:5720   */\n      gt\n        /* \"#utility.yul\":5704:5805   */\n      iszero\n      tag_146\n      jumpi\n        /* \"#utility.yul\":5793:5794   */\n      0x00\n        /* \"#utility.yul\":5784:5790   */\n      dup5\n        /* \"#utility.yul\":5779:5782   */\n      dup5\n        /* \"#utility.yul\":5775:5791   */\n      add\n        /* \"#utility.yul\":5768:5795   */\n      mstore\n        /* \"#utility.yul\":5704:5805   */\n    tag_146:\n        /* \"#utility.yul\":5553:5811   */\n      pop\n        /* \"#utility.yul\":5504:5811   */\n      pop\n      pop\n      pop\n      jump\t// out\n        /* \"#utility.yul\":5817:6137   */\n    tag_29:\n        /* \"#utility.yul\":5861:5867   */\n      0x00\n        /* \"#utility.yul\":5898:5899   */\n      0x02\n        /* \"#utility.yul\":5892:5896   */\n      dup3\n        /* \"#utility.yul\":5888:5900   */\n      div\n        /* \"#utility.yul\":5878:5900   */\n      swap1\n      pop\n        /* \"#utility.yul\":5945:5946   */\n      0x01\n        /* \"#utility.yul\":5939:5943   */\n      dup3\n        /* \"#utility.yul\":5935:5947   */\n      and\n        /* \"#utility.yul\":5966:5984   */\n      dup1\n        /* \"#utility.yul\":5956:6037   */\n      tag_148\n      jumpi\n        /* \"#utility.yul\":6022:6026   */\n      0x7f\n        /* \"#utility.yul\":6014:6020   */\n      dup3\n        /* \"#utility.yul\":6010:6027   */\n      and\n        /* \"#utility.yul\":6000:6027   */\n      swap2\n      pop\n        /* \"#utility.yul\":5956:6037   */\n    tag_148:\n        /* \"#utility.yul\":6084:6086   */\n      0x20\n        /* \"#utility.yul\":6076:6082   */\n      dup3\n        /* \"#utility.yul\":6073:6087   */\n      lt\n        /* \"#utility.yul\":6053:6071   */\n      dup2\n        /* \"#utility.yul\":6050:6088   */\n      eq\n        /* \"#utility.yul\":6047:6131   */\n      iszero\n      tag_149\n      jumpi\n        /* \"#utility.yul\":6103:6121   */\n      tag_150\n      tag_151\n      jump\t// in\n    tag_150:\n        /* \"#utility.yul\":6047:6131   */\n    tag_149:\n        /* \"#utility.yul\":5868:6137   */\n      pop\n        /* \"#utility.yul\":5817:6137   */\n      swap2\n      swap1\n      pop\n      jump\t// out\n        /* \"#utility.yul\":6143:6323   */\n    tag_133:\n        /* \"#utility.yul\":6191:6268   */\n      0x4e487b7100000000000000000000000000000000000000000000000000000000\n        /* \"#utility.yul\":6188:6189   */\n      0x00\n        /* \"#utility.yul\":6181:6269   */\n      mstore\n        /* \"#utility.yul\":6288:6292   */\n      0x11\n        /* \"#utility.yul\":6285:6286   */\n      0x04\n        /* \"#utility.yul\":6278:6293   */\n      mstore\n        /* \"#utility.yul\":6312:6316   */\n      0x24\n        /* \"#utility.yul\":6309:6310   */\n      0x00\n        /* \"#utility.yul\":6302:6317   */\n      revert\n        /* \"#utility.yul\":6329:6509   */\n    tag_151:\n        /* \"#utility.yul\":6377:6454   */\n      0x4e487b7100000000000000000000000000000000000000000000000000000000\n        /* \"#utility.yul\":6374:6375   */\n      0x00\n        /* \"#utility.yul\":6367:6455   */\n      mstore\n        /* \"#utility.yul\":6474:6478   */\n      0x22\n        /* \"#utility.yul\":6471:6472   */\n      0x04\n        /* \"#utility.yul\":6464:6479   */\n      mstore\n        /* \"#utility.yul\":6498:6502   */\n      0x24\n        /* \"#utility.yul\":6495:6496   */\n      0x00\n        /* \"#utility.yul\":6488:6503   */\n      revert\n        /* \"#utility.yul\":6638:6755   */\n    tag_74:\n        /* \"#utility.yul\":6747:6748   */\n      0x00\n        /* \"#utility.yul\":6744:6745   */\n      dup1\n        /* \"#utility.yul\":6737:6749   */\n      revert\n        /* \"#utility.yul\":6761:6863   */\n    tag_93:\n        /* \"#utility.yul\":6802:6808   */\n      0x00\n        /* \"#utility.yul\":6853:6855   */\n      0x1f\n        /* \"#utility.yul\":6849:6856   */\n      not\n        /* \"#utility.yul\":6844:6846   */\n      0x1f\n        /* \"#utility.yul\":6837:6842   */\n      dup4\n        /* \"#utility.yul\":6833:6847   */\n      add\n        /* \"#utility.yul\":6829:6857   */\n      and\n        /* \"#utility.yul\":6819:6857   */\n      swap1\n      pop\n        /* \"#utility.yul\":6761:6863   */\n      swap2\n      swap1\n      pop\n      jump\t// out\n        /* \"#utility.yul\":6869:7037   */\n    tag_98:\n        /* \"#utility.yul\":7009:7029   */\n      0x4e6f206572657320656c20494e45204445580000000000000000000000000000\n        /* \"#utility.yul\":7005:7006   */\n      0x00\n        /* \"#utility.yul\":6997:7003   */\n      dup3\n        /* \"#utility.yul\":6993:7007   */\n      add\n        /* \"#utility.yul\":6986:7030   */\n      mstore\n        /* \"#utility.yul\":6869:7037   */\n      pop\n      jump\t// out\n        /* \"#utility.yul\":7043:7218   */\n    tag_103:\n        /* \"#utility.yul\":7183:7210   */\n      0x4e6f207469656e6573206465726563686f206120766f74617200000000000000\n        /* \"#utility.yul\":7179:7180   */\n      0x00\n        /* \"#utility.yul\":7171:7177   */\n      dup3\n        /* \"#utility.yul\":7167:7181   */\n      add\n        /* \"#utility.yul\":7160:7211   */\n      mstore\n        /* \"#utility.yul\":7043:7218   */\n      pop\n      jump\t// out\n        /* \"#utility.yul\":7224:7346   */\n    tag_66:\n        /* \"#utility.yul\":7297:7321   */\n      tag_161\n        /* \"#utility.yul\":7315:7320   */\n      dup2\n        /* \"#utility.yul\":7297:7321   */\n      tag_134\n      jump\t// in\n    tag_161:\n        /* \"#utility.yul\":7290:7295   */\n      dup2\n        /* \"#utility.yul\":7287:7322   */\n      eq\n        /* \"#utility.yul\":7277:7340   */\n      tag_162\n      jumpi\n        /* \"#utility.yul\":7336:7337   */\n      0x00\n        /* \"#utility.yul\":7333:7334   */\n      dup1\n        /* \"#utility.yul\":7326:7338   */\n      revert\n        /* \"#utility.yul\":7277:7340   */\n    tag_162:\n        /* \"#utility.yul\":7224:7346   */\n      pop\n      jump\t// out\n        /* \"#utility.yul\":7352:7470   */\n    tag_70:\n        /* \"#utility.yul\":7423:7445   */\n      tag_164\n        /* \"#utility.yul\":7439:7444   */\n      dup2\n        /* \"#utility.yul\":7423:7445   */\n      tag_111\n      jump\t// in\n    tag_164:\n        /* \"#utility.yul\":7416:7421   */\n      dup2\n        /* \"#utility.yul\":7413:7446   */\n      eq\n        /* \"#utility.yul\":7403:7464   */\n      tag_165\n      jumpi\n        /* \"#utility.yul\":7460:7461   */\n      0x00\n        /* \"#utility.yul\":7457:7458   */\n      dup1\n        /* \"#utility.yul\":7450:7462   */\n      revert\n        /* \"#utility.yul\":7403:7464   */\n    tag_165:\n        /* \"#utility.yul\":7352:7470   */\n      pop\n      jump\t// out\n\n    auxdata: 0xa2646970667358221220dbf154b8577a9accfc547f32e58fa48fb77494924db193d6efb01cb88de7ac5264736f6c63430008070033\n}\n",
				"bytecode": {
					"linkReferences": {},
					"object": "60806040523480156200001157600080fd5b5060405162000f2138038062000f21833981810160405281019062000037919062000274565b33600960006101000a81548173ffffffffffffffffffffffffffffffffffffffff021916908373ffffffffffffffffffffffffffffffffffffffff16021790555085600180019080519060200190620000929291906200012f565b508460016002019080519060200190620000ae9291906200012f565b5083600160000160006101000a81548160ff021916908360ff1602179055508260056001019080519060200190620000e89291906200012f565b508160056002019080519060200190620001049291906200012f565b5080600560000160006101000a81548160ff021916908360ff16021790555050505050505062000537565b8280546200013d906200042e565b90600052602060002090601f016020900481019282620001615760008555620001ad565b82601f106200017c57805160ff1916838001178555620001ad565b82800160010185558215620001ad579182015b82811115620001ac5782518255916020019190600101906200018f565b5b509050620001bc9190620001c0565b5090565b5b80821115620001db576000816000905550600101620001c1565b5090565b6000620001f6620001f084620003b5565b6200038c565b905082815260208101848484011115620002155762000214620004fd565b5b62000222848285620003f8565b509392505050565b600082601f830112620002425762000241620004f8565b5b815162000254848260208601620001df565b91505092915050565b6000815190506200026e816200051d565b92915050565b60008060008060008060c0878903121562000294576200029362000507565b5b600087015167ffffffffffffffff811115620002b557620002b462000502565b5b620002c389828a016200022a565b965050602087015167ffffffffffffffff811115620002e757620002e662000502565b5b620002f589828a016200022a565b95505060406200030889828a016200025d565b945050606087015167ffffffffffffffff8111156200032c576200032b62000502565b5b6200033a89828a016200022a565b935050608087015167ffffffffffffffff8111156200035e576200035d62000502565b5b6200036c89828a016200022a565b92505060a06200037f89828a016200025d565b9150509295509295509295565b600062000398620003ab565b9050620003a6828262000464565b919050565b6000604051905090565b600067ffffffffffffffff821115620003d357620003d2620004c9565b5b620003de826200050c565b9050602081019050919050565b600060ff82169050919050565b60005b8381101562000418578082015181840152602081019050620003fb565b8381111562000428576000848401525b50505050565b600060028204905060018216806200044757607f821691505b602082108114156200045e576200045d6200049a565b5b50919050565b6200046f826200050c565b810181811067ffffffffffffffff82111715620004915762000490620004c9565b5b80604052505050565b7f4e487b7100000000000000000000000000000000000000000000000000000000600052602260045260246000fd5b7f4e487b7100000000000000000000000000000000000000000000000000000000600052604160045260246000fd5b600080fd5b600080fd5b600080fd5b600080fd5b6000601f19601f8301169050919050565b6200052881620003eb565b81146200053457600080fd5b50565b6109da80620005476000396000f3fe608060405234801561001057600080fd5b50600436106100575760003560e01c806348e257cb1461005c5780635f5069df1461007d5780635f57697c1461009957806392dcef09146100ba578063a92284d0146100d6575b600080fd5b610064610107565b6040516100749493929190610731565b60405180910390f35b610097600480360381019061009291906105c2565b610242565b005b6100a161032f565b6040516100b19493929190610731565b60405180910390f35b6100d460048036038101906100cf91906105ef565b61046a565b005b6100f060048036038101906100eb91906105c2565b61055a565b6040516100fe9291906106c8565b60405180910390f35b60058060000160009054906101000a900460ff169080600101805461012b9061087e565b80601f01602080910402602001604051908101604052809291908181526020018280546101579061087e565b80156101a45780601f10610179576101008083540402835291602001916101a4565b820191906000526020600020905b81548152906001019060200180831161018757829003601f168201915b5050505050908060020180546101b99061087e565b80601f01602080910402602001604051908101604052809291908181526020018280546101e59061087e565b80156102325780601f1061020757610100808354040283529160200191610232565b820191906000526020600020905b81548152906001019060200180831161021557829003601f168201915b5050505050908060030154905084565b3373ffffffffffffffffffffffffffffffffffffffff16600960009054906101000a900473ffffffffffffffffffffffffffffffffffffffff1673ffffffffffffffffffffffffffffffffffffffff16146102d2576040517f08c379a00000000000000000000000000000000000000000000000000000000081526004016102c9906106f1565b60405180910390fd5b60016000808373ffffffffffffffffffffffffffffffffffffffff1673ffffffffffffffffffffffffffffffffffffffff16815260200190815260200160002060000160016101000a81548160ff02191690831515021790555050565b60018060000160009054906101000a900460ff16908060010180546103539061087e565b80601f016020809104026020016040519081016040528092919081815260200182805461037f9061087e565b80156103cc5780601f106103a1576101008083540402835291602001916103cc565b820191906000526020600020905b8154815290600101906020018083116103af57829003601f168201915b5050505050908060020180546103e19061087e565b80601f016020809104026020016040519081016040528092919081815260200182805461040d9061087e565b801561045a5780601f1061042f5761010080835404028352916020019161045a565b820191906000526020600020905b81548152906001019060200180831161043d57829003601f168201915b5050505050908060030154905084565b6000803373ffffffffffffffffffffffffffffffffffffffff1673ffffffffffffffffffffffffffffffffffffffff16815260200190815260200160002060000160019054906101000a900460ff166104f8576040517f08c379a00000000000000000000000000000000000000000000000000000000081526004016104ef90610711565b60405180910390fd5b600160000160009054906101000a900460ff1660ff168160ff16141561053957600180600301600082825461052d91906107a0565b92505081905550610557565b60016005600301600082825461054f91906107a0565b925050819055505b50565b60006020528060005260406000206000915090508060000160009054906101000a900460ff16908060000160019054906101000a900460ff16905082565b6000813590506105a781610976565b92915050565b6000813590506105bc8161098d565b92915050565b6000602082840312156105d8576105d761090e565b5b60006105e684828501610598565b91505092915050565b6000602082840312156106055761060461090e565b5b6000610613848285016105ad565b91505092915050565b61062581610808565b82525050565b600061063682610784565b610640818561078f565b935061065081856020860161084b565b61065981610913565b840191505092915050565b600061067160128361078f565b915061067c82610924565b602082019050919050565b600061069460198361078f565b915061069f8261094d565b602082019050919050565b6106b381610834565b82525050565b6106c28161083e565b82525050565b60006040820190506106dd600083018561061c565b6106ea602083018461061c565b9392505050565b6000602082019050818103600083015261070a81610664565b9050919050565b6000602082019050818103600083015261072a81610687565b9050919050565b600060808201905061074660008301876106b9565b8181036020830152610758818661062b565b9050818103604083015261076c818561062b565b905061077b60608301846106aa565b95945050505050565b600081519050919050565b600082825260208201905092915050565b60006107ab82610834565b91506107b683610834565b9250827fffffffffffffffffffffffffffffffffffffffffffffffffffffffffffffffff038211156107eb576107ea6108b0565b5b828201905092915050565b600061080182610814565b9050919050565b60008115159050919050565b600073ffffffffffffffffffffffffffffffffffffffff82169050919050565b6000819050919050565b600060ff82169050919050565b60005b8381101561086957808201518184015260208101905061084e565b83811115610878576000848401525b50505050565b6000600282049050600182168061089657607f821691505b602082108114156108aa576108a96108df565b5b50919050565b7f4e487b7100000000000000000000000000000000000000000000000000000000600052601160045260246000fd5b7f4e487b7100000000000000000000000000000000000000000000000000000000600052602260045260246000fd5b600080fd5b6000601f19601f8301169050919050565b7f4e6f206572657320656c20494e45204445580000000000000000000000000000600082015250565b7f4e6f207469656e6573206465726563686f206120766f74617200000000000000600082015250565b61097f816107f6565b811461098a57600080fd5b50565b6109968161083e565b81146109a157600080fd5b5056fea2646970667358221220dbf154b8577a9accfc547f32e58fa48fb77494924db193d6efb01cb88de7ac5264736f6c63430008070033",
					"opcodes": "PUSH1 0x80 PUSH1 0x40 MSTORE CALLVALUE DUP1 ISZERO PUSH3 0x11 JUMPI PUSH1 0x0 DUP1 REVERT JUMPDEST POP PUSH1 0x40 MLOAD PUSH3 0xF21 CODESIZE SUB DUP1 PUSH3 0xF21 DUP4 CODECOPY DUP2 DUP2 ADD PUSH1 0x40 MSTORE DUP2 ADD SWAP1 PUSH3 0x37 SWAP2 SWAP1 PUSH3 0x274 JUMP JUMPDEST CALLER PUSH1 0x9 PUSH1 0x0 PUSH2 0x100 EXP DUP2 SLOAD DUP2 PUSH20 0xFFFFFFFFFFFFFFFFFFFFFFFFFFFFFFFFFFFFFFFF MUL NOT AND SWAP1 DUP4 PUSH20 0xFFFFFFFFFFFFFFFFFFFFFFFFFFFFFFFFFFFFFFFF AND MUL OR SWAP1 SSTORE POP DUP6 PUSH1 0x1 DUP1 ADD SWAP1 DUP1 MLOAD SWAP1 PUSH1 0x20 ADD SWAP1 PUSH3 0x92 SWAP3 SWAP2 SWAP1 PUSH3 0x12F JUMP JUMPDEST POP DUP5 PUSH1 0x1 PUSH1 0x2 ADD SWAP1 DUP1 MLOAD SWAP1 PUSH1 0x20 ADD SWAP1 PUSH3 0xAE SWAP3 SWAP2 SWAP1 PUSH3 0x12F JUMP JUMPDEST POP DUP4 PUSH1 0x1 PUSH1 0x0 ADD PUSH1 0x0 PUSH2 0x100 EXP DUP2 SLOAD DUP2 PUSH1 0xFF MUL NOT AND SWAP1 DUP4 PUSH1 0xFF AND MUL OR SWAP1 SSTORE POP DUP3 PUSH1 0x5 PUSH1 0x1 ADD SWAP1 DUP1 MLOAD SWAP1 PUSH1 0x20 ADD SWAP1 PUSH3 0xE8 SWAP3 SWAP2 SWAP1 PUSH3 0x12F JUMP JUMPDEST POP DUP2 PUSH1 0x5 PUSH1 0x2 ADD SWAP1 DUP1 MLOAD SWAP1 PUSH1 0x20 ADD SWAP1 PUSH3 0x104 SWAP3 SWAP2 SWAP1 PUSH3 0x12F JUMP JUMPDEST POP DUP1 PUSH1 0x5 PUSH1 0x0 ADD PUSH1 0x0 PUSH2 0x100 EXP DUP2 SLOAD DUP2 PUSH1 0xFF MUL NOT AND SWAP1 DUP4 PUSH1 0xFF AND MUL OR SWAP1 SSTORE POP POP POP POP POP POP POP PUSH3 0x537 JUMP JUMPDEST DUP3 DUP1 SLOAD PUSH3 0x13D SWAP1 PUSH3 0x42E JUMP JUMPDEST SWAP1 PUSH1 0x0 MSTORE PUSH1 0x20 PUSH1 0x0 KECCAK256 SWAP1 PUSH1 0x1F ADD PUSH1 0x20 SWAP1 DIV DUP2 ADD SWAP3 DUP3 PUSH3 0x161 JUMPI PUSH1 0x0 DUP6 SSTORE PUSH3 0x1AD JUMP JUMPDEST DUP3 PUSH1 0x1F LT PUSH3 0x17C JUMPI DUP1 MLOAD PUSH1 0xFF NOT AND DUP4 DUP1 ADD OR DUP6 SSTORE PUSH3 0x1AD JUMP JUMPDEST DUP3 DUP1 ADD PUSH1 0x1 ADD DUP6 SSTORE DUP3 ISZERO PUSH3 0x1AD JUMPI SWAP2 DUP3 ADD JUMPDEST DUP3 DUP2 GT ISZERO PUSH3 0x1AC JUMPI DUP3 MLOAD DUP3 SSTORE SWAP2 PUSH1 0x20 ADD SWAP2 SWAP1 PUSH1 0x1 ADD SWAP1 PUSH3 0x18F JUMP JUMPDEST JUMPDEST POP SWAP1 POP PUSH3 0x1BC SWAP2 SWAP1 PUSH3 0x1C0 JUMP JUMPDEST POP SWAP1 JUMP JUMPDEST JUMPDEST DUP1 DUP3 GT ISZERO PUSH3 0x1DB JUMPI PUSH1 0x0 DUP2 PUSH1 0x0 SWAP1 SSTORE POP PUSH1 0x1 ADD PUSH3 0x1C1 JUMP JUMPDEST POP SWAP1 JUMP JUMPDEST PUSH1 0x0 PUSH3 0x1F6 PUSH3 0x1F0 DUP5 PUSH3 0x3B5 JUMP JUMPDEST PUSH3 0x38C JUMP JUMPDEST SWAP1 POP DUP3 DUP2 MSTORE PUSH1 0x20 DUP2 ADD DUP5 DUP5 DUP5 ADD GT ISZERO PUSH3 0x215 JUMPI PUSH3 0x214 PUSH3 0x4FD JUMP JUMPDEST JUMPDEST PUSH3 0x222 DUP5 DUP3 DUP6 PUSH3 0x3F8 JUMP JUMPDEST POP SWAP4 SWAP3 POP POP POP JUMP JUMPDEST PUSH1 0x0 DUP3 PUSH1 0x1F DUP4 ADD SLT PUSH3 0x242 JUMPI PUSH3 0x241 PUSH3 0x4F8 JUMP JUMPDEST JUMPDEST DUP2 MLOAD PUSH3 0x254 DUP5 DUP3 PUSH1 0x20 DUP7 ADD PUSH3 0x1DF JUMP JUMPDEST SWAP2 POP POP SWAP3 SWAP2 POP POP JUMP JUMPDEST PUSH1 0x0 DUP2 MLOAD SWAP1 POP PUSH3 0x26E DUP2 PUSH3 0x51D JUMP JUMPDEST SWAP3 SWAP2 POP POP JUMP JUMPDEST PUSH1 0x0 DUP1 PUSH1 0x0 DUP1 PUSH1 0x0 DUP1 PUSH1 0xC0 DUP8 DUP10 SUB SLT ISZERO PUSH3 0x294 JUMPI PUSH3 0x293 PUSH3 0x507 JUMP JUMPDEST JUMPDEST PUSH1 0x0 DUP8 ADD MLOAD PUSH8 0xFFFFFFFFFFFFFFFF DUP2 GT ISZERO PUSH3 0x2B5 JUMPI PUSH3 0x2B4 PUSH3 0x502 JUMP JUMPDEST JUMPDEST PUSH3 0x2C3 DUP10 DUP3 DUP11 ADD PUSH3 0x22A JUMP JUMPDEST SWAP7 POP POP PUSH1 0x20 DUP8 ADD MLOAD PUSH8 0xFFFFFFFFFFFFFFFF DUP2 GT ISZERO PUSH3 0x2E7 JUMPI PUSH3 0x2E6 PUSH3 0x502 JUMP JUMPDEST JUMPDEST PUSH3 0x2F5 DUP10 DUP3 DUP11 ADD PUSH3 0x22A JUMP JUMPDEST SWAP6 POP POP PUSH1 0x40 PUSH3 0x308 DUP10 DUP3 DUP11 ADD PUSH3 0x25D JUMP JUMPDEST SWAP5 POP POP PUSH1 0x60 DUP8 ADD MLOAD PUSH8 0xFFFFFFFFFFFFFFFF DUP2 GT ISZERO PUSH3 0x32C JUMPI PUSH3 0x32B PUSH3 0x502 JUMP JUMPDEST JUMPDEST PUSH3 0x33A DUP10 DUP3 DUP11 ADD PUSH3 0x22A JUMP JUMPDEST SWAP4 POP POP PUSH1 0x80 DUP8 ADD MLOAD PUSH8 0xFFFFFFFFFFFFFFFF DUP2 GT ISZERO PUSH3 0x35E JUMPI PUSH3 0x35D PUSH3 0x502 JUMP JUMPDEST JUMPDEST PUSH3 0x36C DUP10 DUP3 DUP11 ADD PUSH3 0x22A JUMP JUMPDEST SWAP3 POP POP PUSH1 0xA0 PUSH3 0x37F DUP10 DUP3 DUP11 ADD PUSH3 0x25D JUMP JUMPDEST SWAP2 POP POP SWAP3 SWAP6 POP SWAP3 SWAP6 POP SWAP3 SWAP6 JUMP JUMPDEST PUSH1 0x0 PUSH3 0x398 PUSH3 0x3AB JUMP JUMPDEST SWAP1 POP PUSH3 0x3A6 DUP3 DUP3 PUSH3 0x464 JUMP JUMPDEST SWAP2 SWAP1 POP JUMP JUMPDEST PUSH1 0x0 PUSH1 0x40 MLOAD SWAP1 POP SWAP1 JUMP JUMPDEST PUSH1 0x0 PUSH8 0xFFFFFFFFFFFFFFFF DUP3 GT ISZERO PUSH3 0x3D3 JUMPI PUSH3 0x3D2 PUSH3 0x4C9 JUMP JUMPDEST JUMPDEST PUSH3 0x3DE DUP3 PUSH3 0x50C JUMP JUMPDEST SWAP1 POP PUSH1 0x20 DUP2 ADD SWAP1 POP SWAP2 SWAP1 POP JUMP JUMPDEST PUSH1 0x0 PUSH1 0xFF DUP3 AND SWAP1 POP SWAP2 SWAP1 POP JUMP JUMPDEST PUSH1 0x0 JUMPDEST DUP4 DUP2 LT ISZERO PUSH3 0x418 JUMPI DUP1 DUP3 ADD MLOAD DUP2 DUP5 ADD MSTORE PUSH1 0x20 DUP2 ADD SWAP1 POP PUSH3 0x3FB JUMP JUMPDEST DUP4 DUP2 GT ISZERO PUSH3 0x428 JUMPI PUSH1 0x0 DUP5 DUP5 ADD MSTORE JUMPDEST POP POP POP POP JUMP JUMPDEST PUSH1 0x0 PUSH1 0x2 DUP3 DIV SWAP1 POP PUSH1 0x1 DUP3 AND DUP1 PUSH3 0x447 JUMPI PUSH1 0x7F DUP3 AND SWAP2 POP JUMPDEST PUSH1 0x20 DUP3 LT DUP2 EQ ISZERO PUSH3 0x45E JUMPI PUSH3 0x45D PUSH3 0x49A JUMP JUMPDEST JUMPDEST POP SWAP2 SWAP1 POP JUMP JUMPDEST PUSH3 0x46F DUP3 PUSH3 0x50C JUMP JUMPDEST DUP2 ADD DUP2 DUP2 LT PUSH8 0xFFFFFFFFFFFFFFFF DUP3 GT OR ISZERO PUSH3 0x491 JUMPI PUSH3 0x490 PUSH3 0x4C9 JUMP JUMPDEST JUMPDEST DUP1 PUSH1 0x40 MSTORE POP POP POP JUMP JUMPDEST PUSH32 0x4E487B7100000000000000000000000000000000000000000000000000000000 PUSH1 0x0 MSTORE PUSH1 0x22 PUSH1 0x4 MSTORE PUSH1 0x24 PUSH1 0x0 REVERT JUMPDEST PUSH32 0x4E487B7100000000000000000000000000000000000000000000000000000000 PUSH1 0x0 MSTORE PUSH1 0x41 PUSH1 0x4 MSTORE PUSH1 0x24 PUSH1 0x0 REVERT JUMPDEST PUSH1 0x0 DUP1 REVERT JUMPDEST PUSH1 0x0 DUP1 REVERT JUMPDEST PUSH1 0x0 DUP1 REVERT JUMPDEST PUSH1 0x0 DUP1 REVERT JUMPDEST PUSH1 0x0 PUSH1 0x1F NOT PUSH1 0x1F DUP4 ADD AND SWAP1 POP SWAP2 SWAP1 POP JUMP JUMPDEST PUSH3 0x528 DUP2 PUSH3 0x3EB JUMP JUMPDEST DUP2 EQ PUSH3 0x534 JUMPI PUSH1 0x0 DUP1 REVERT JUMPDEST POP JUMP JUMPDEST PUSH2 0x9DA DUP1 PUSH3 0x547 PUSH1 0x0 CODECOPY PUSH1 0x0 RETURN INVALID PUSH1 0x80 PUSH1 0x40 MSTORE CALLVALUE DUP1 ISZERO PUSH2 0x10 JUMPI PUSH1 0x0 DUP1 REVERT JUMPDEST POP PUSH1 0x4 CALLDATASIZE LT PUSH2 0x57 JUMPI PUSH1 0x0 CALLDATALOAD PUSH1 0xE0 SHR DUP1 PUSH4 0x48E257CB EQ PUSH2 0x5C JUMPI DUP1 PUSH4 0x5F5069DF EQ PUSH2 0x7D JUMPI DUP1 PUSH4 0x5F57697C EQ PUSH2 0x99 JUMPI DUP1 PUSH4 0x92DCEF09 EQ PUSH2 0xBA JUMPI DUP1 PUSH4 0xA92284D0 EQ PUSH2 0xD6 JUMPI JUMPDEST PUSH1 0x0 DUP1 REVERT JUMPDEST PUSH2 0x64 PUSH2 0x107 JUMP JUMPDEST PUSH1 0x40 MLOAD PUSH2 0x74 SWAP5 SWAP4 SWAP3 SWAP2 SWAP1 PUSH2 0x731 JUMP JUMPDEST PUSH1 0x40 MLOAD DUP1 SWAP2 SUB SWAP1 RETURN JUMPDEST PUSH2 0x97 PUSH1 0x4 DUP1 CALLDATASIZE SUB DUP2 ADD SWAP1 PUSH2 0x92 SWAP2 SWAP1 PUSH2 0x5C2 JUMP JUMPDEST PUSH2 0x242 JUMP JUMPDEST STOP JUMPDEST PUSH2 0xA1 PUSH2 0x32F JUMP JUMPDEST PUSH1 0x40 MLOAD PUSH2 0xB1 SWAP5 SWAP4 SWAP3 SWAP2 SWAP1 PUSH2 0x731 JUMP JUMPDEST PUSH1 0x40 MLOAD DUP1 SWAP2 SUB SWAP1 RETURN JUMPDEST PUSH2 0xD4 PUSH1 0x4 DUP1 CALLDATASIZE SUB DUP2 ADD SWAP1 PUSH2 0xCF SWAP2 SWAP1 PUSH2 0x5EF JUMP JUMPDEST PUSH2 0x46A JUMP JUMPDEST STOP JUMPDEST PUSH2 0xF0 PUSH1 0x4 DUP1 CALLDATASIZE SUB DUP2 ADD SWAP1 PUSH2 0xEB SWAP2 SWAP1 PUSH2 0x5C2 JUMP JUMPDEST PUSH2 0x55A JUMP JUMPDEST PUSH1 0x40 MLOAD PUSH2 0xFE SWAP3 SWAP2 SWAP1 PUSH2 0x6C8 JUMP JUMPDEST PUSH1 0x40 MLOAD DUP1 SWAP2 SUB SWAP1 RETURN JUMPDEST PUSH1 0x5 DUP1 PUSH1 0x0 ADD PUSH1 0x0 SWAP1 SLOAD SWAP1 PUSH2 0x100 EXP SWAP1 DIV PUSH1 0xFF AND SWAP1 DUP1 PUSH1 0x1 ADD DUP1 SLOAD PUSH2 0x12B SWAP1 PUSH2 0x87E JUMP JUMPDEST DUP1 PUSH1 0x1F ADD PUSH1 0x20 DUP1 SWAP2 DIV MUL PUSH1 0x20 ADD PUSH1 0x40 MLOAD SWAP1 DUP2 ADD PUSH1 0x40 MSTORE DUP1 SWAP3 SWAP2 SWAP1 DUP2 DUP2 MSTORE PUSH1 0x20 ADD DUP3 DUP1 SLOAD PUSH2 0x157 SWAP1 PUSH2 0x87E JUMP JUMPDEST DUP1 ISZERO PUSH2 0x1A4 JUMPI DUP1 PUSH1 0x1F LT PUSH2 0x179 JUMPI PUSH2 0x100 DUP1 DUP4 SLOAD DIV MUL DUP4 MSTORE SWAP2 PUSH1 0x20 ADD SWAP2 PUSH2 0x1A4 JUMP JUMPDEST DUP3 ADD SWAP2 SWAP1 PUSH1 0x0 MSTORE PUSH1 0x20 PUSH1 0x0 KECCAK256 SWAP1 JUMPDEST DUP2 SLOAD DUP2 MSTORE SWAP1 PUSH1 0x1 ADD SWAP1 PUSH1 0x20 ADD DUP1 DUP4 GT PUSH2 0x187 JUMPI DUP3 SWAP1 SUB PUSH1 0x1F AND DUP3 ADD SWAP2 JUMPDEST POP POP POP POP POP SWAP1 DUP1 PUSH1 0x2 ADD DUP1 SLOAD PUSH2 0x1B9 SWAP1 PUSH2 0x87E JUMP JUMPDEST DUP1 PUSH1 0x1F ADD PUSH1 0x20 DUP1 SWAP2 DIV MUL PUSH1 0x20 ADD PUSH1 0x40 MLOAD SWAP1 DUP2 ADD PUSH1 0x40 MSTORE DUP1 SWAP3 SWAP2 SWAP1 DUP2 DUP2 MSTORE PUSH1 0x20 ADD DUP3 DUP1 SLOAD PUSH2 0x1E5 SWAP1 PUSH2 0x87E JUMP JUMPDEST DUP1 ISZERO PUSH2 0x232 JUMPI DUP1 PUSH1 0x1F LT PUSH2 0x207 JUMPI PUSH2 0x100 DUP1 DUP4 SLOAD DIV MUL DUP4 MSTORE SWAP2 PUSH1 0x20 ADD SWAP2 PUSH2 0x232 JUMP JUMPDEST DUP3 ADD SWAP2 SWAP1 PUSH1 0x0 MSTORE PUSH1 0x20 PUSH1 0x0 KECCAK256 SWAP1 JUMPDEST DUP2 SLOAD DUP2 MSTORE SWAP1 PUSH1 0x1 ADD SWAP1 PUSH1 0x20 ADD DUP1 DUP4 GT PUSH2 0x215 JUMPI DUP3 SWAP1 SUB PUSH1 0x1F AND DUP3 ADD SWAP2 JUMPDEST POP POP POP POP POP SWAP1 DUP1 PUSH1 0x3 ADD SLOAD SWAP1 POP DUP5 JUMP JUMPDEST CALLER PUSH20 0xFFFFFFFFFFFFFFFFFFFFFFFFFFFFFFFFFFFFFFFF AND PUSH1 0x9 PUSH1 0x0 SWAP1 SLOAD SWAP1 PUSH2 0x100 EXP SWAP1 DIV PUSH20 0xFFFFFFFFFFFFFFFFFFFFFFFFFFFFFFFFFFFFFFFF AND PUSH20 0xFFFFFFFFFFFFFFFFFFFFFFFFFFFFFFFFFFFFFFFF AND EQ PUSH2 0x2D2 JUMPI PUSH1 0x40 MLOAD PUSH32 0x8C379A000000000000000000000000000000000000000000000000000000000 DUP2 MSTORE PUSH1 0x4 ADD PUSH2 0x2C9 SWAP1 PUSH2 0x6F1 JUMP JUMPDEST PUSH1 0x40 MLOAD DUP1 SWAP2 SUB SWAP1 REVERT JUMPDEST PUSH1 0x1 PUSH1 0x0 DUP1 DUP4 PUSH20 0xFFFFFFFFFFFFFFFFFFFFFFFFFFFFFFFFFFFFFFFF AND PUSH20 0xFFFFFFFFFFFFFFFFFFFFFFFFFFFFFFFFFFFFFFFF AND DUP2 MSTORE PUSH1 0x20 ADD SWAP1 DUP2 MSTORE PUSH1 0x20 ADD PUSH1 0x0 KECCAK256 PUSH1 0x0 ADD PUSH1 0x1 PUSH2 0x100 EXP DUP2 SLOAD DUP2 PUSH1 0xFF MUL NOT AND SWAP1 DUP4 ISZERO ISZERO MUL OR SWAP1 SSTORE POP POP JUMP JUMPDEST PUSH1 0x1 DUP1 PUSH1 0x0 ADD PUSH1 0x0 SWAP1 SLOAD SWAP1 PUSH2 0x100 EXP SWAP1 DIV PUSH1 0xFF AND SWAP1 DUP1 PUSH1 0x1 ADD DUP1 SLOAD PUSH2 0x353 SWAP1 PUSH2 0x87E JUMP JUMPDEST DUP1 PUSH1 0x1F ADD PUSH1 0x20 DUP1 SWAP2 DIV MUL PUSH1 0x20 ADD PUSH1 0x40 MLOAD SWAP1 DUP2 ADD PUSH1 0x40 MSTORE DUP1 SWAP3 SWAP2 SWAP1 DUP2 DUP2 MSTORE PUSH1 0x20 ADD DUP3 DUP1 SLOAD PUSH2 0x37F SWAP1 PUSH2 0x87E JUMP JUMPDEST DUP1 ISZERO PUSH2 0x3CC JUMPI DUP1 PUSH1 0x1F LT PUSH2 0x3A1 JUMPI PUSH2 0x100 DUP1 DUP4 SLOAD DIV MUL DUP4 MSTORE SWAP2 PUSH1 0x20 ADD SWAP2 PUSH2 0x3CC JUMP JUMPDEST DUP3 ADD SWAP2 SWAP1 PUSH1 0x0 MSTORE PUSH1 0x20 PUSH1 0x0 KECCAK256 SWAP1 JUMPDEST DUP2 SLOAD DUP2 MSTORE SWAP1 PUSH1 0x1 ADD SWAP1 PUSH1 0x20 ADD DUP1 DUP4 GT PUSH2 0x3AF JUMPI DUP3 SWAP1 SUB PUSH1 0x1F AND DUP3 ADD SWAP2 JUMPDEST POP POP POP POP POP SWAP1 DUP1 PUSH1 0x2 ADD DUP1 SLOAD PUSH2 0x3E1 SWAP1 PUSH2 0x87E JUMP JUMPDEST DUP1 PUSH1 0x1F ADD PUSH1 0x20 DUP1 SWAP2 DIV MUL PUSH1 0x20 ADD PUSH1 0x40 MLOAD SWAP1 DUP2 ADD PUSH1 0x40 MSTORE DUP1 SWAP3 SWAP2 SWAP1 DUP2 DUP2 MSTORE PUSH1 0x20 ADD DUP3 DUP1 SLOAD PUSH2 0x40D SWAP1 PUSH2 0x87E JUMP JUMPDEST DUP1 ISZERO PUSH2 0x45A JUMPI DUP1 PUSH1 0x1F LT PUSH2 0x42F JUMPI PUSH2 0x100 DUP1 DUP4 SLOAD DIV MUL DUP4 MSTORE SWAP2 PUSH1 0x20 ADD SWAP2 PUSH2 0x45A JUMP JUMPDEST DUP3 ADD SWAP2 SWAP1 PUSH1 0x0 MSTORE PUSH1 0x20 PUSH1 0x0 KECCAK256 SWAP1 JUMPDEST DUP2 SLOAD DUP2 MSTORE SWAP1 PUSH1 0x1 ADD SWAP1 PUSH1 0x20 ADD DUP1 DUP4 GT PUSH2 0x43D JUMPI DUP3 SWAP1 SUB PUSH1 0x1F AND DUP3 ADD SWAP2 JUMPDEST POP POP POP POP POP SWAP1 DUP1 PUSH1 0x3 ADD SLOAD SWAP1 POP DUP5 JUMP JUMPDEST PUSH1 0x0 DUP1 CALLER PUSH20 0xFFFFFFFFFFFFFFFFFFFFFFFFFFFFFFFFFFFFFFFF AND PUSH20 0xFFFFFFFFFFFFFFFFFFFFFFFFFFFFFFFFFFFFFFFF AND DUP2 MSTORE PUSH1 0x20 ADD SWAP1 DUP2 MSTORE PUSH1 0x20 ADD PUSH1 0x0 KECCAK256 PUSH1 0x0 ADD PUSH1 0x1 SWAP1 SLOAD SWAP1 PUSH2 0x100 EXP SWAP1 DIV PUSH1 0xFF AND PUSH2 0x4F8 JUMPI PUSH1 0x40 MLOAD PUSH32 0x8C379A000000000000000000000000000000000000000000000000000000000 DUP2 MSTORE PUSH1 0x4 ADD PUSH2 0x4EF SWAP1 PUSH2 0x711 JUMP JUMPDEST PUSH1 0x40 MLOAD DUP1 SWAP2 SUB SWAP1 REVERT JUMPDEST PUSH1 0x1 PUSH1 0x0 ADD PUSH1 0x0 SWAP1 SLOAD SWAP1 PUSH2 0x100 EXP SWAP1 DIV PUSH1 0xFF AND PUSH1 0xFF AND DUP2 PUSH1 0xFF AND EQ ISZERO PUSH2 0x539 JUMPI PUSH1 0x1 DUP1 PUSH1 0x3 ADD PUSH1 0x0 DUP3 DUP3 SLOAD PUSH2 0x52D SWAP2 SWAP1 PUSH2 0x7A0 JUMP JUMPDEST SWAP3 POP POP DUP2 SWAP1 SSTORE POP PUSH2 0x557 JUMP JUMPDEST PUSH1 0x1 PUSH1 0x5 PUSH1 0x3 ADD PUSH1 0x0 DUP3 DUP3 SLOAD PUSH2 0x54F SWAP2 SWAP1 PUSH2 0x7A0 JUMP JUMPDEST SWAP3 POP POP DUP2 SWAP1 SSTORE POP JUMPDEST POP JUMP JUMPDEST PUSH1 0x0 PUSH1 0x20 MSTORE DUP1 PUSH1 0x0 MSTORE PUSH1 0x40 PUSH1 0x0 KECCAK256 PUSH1 0x0 SWAP2 POP SWAP1 POP DUP1 PUSH1 0x0 ADD PUSH1 0x0 SWAP1 SLOAD SWAP1 PUSH2 0x100 EXP SWAP1 DIV PUSH1 0xFF AND SWAP1 DUP1 PUSH1 0x0 ADD PUSH1 0x1 SWAP1 SLOAD SWAP1 PUSH2 0x100 EXP SWAP1 DIV PUSH1 0xFF AND SWAP1 POP DUP3 JUMP JUMPDEST PUSH1 0x0 DUP2 CALLDATALOAD SWAP1 POP PUSH2 0x5A7 DUP2 PUSH2 0x976 JUMP JUMPDEST SWAP3 SWAP2 POP POP JUMP JUMPDEST PUSH1 0x0 DUP2 CALLDATALOAD SWAP1 POP PUSH2 0x5BC DUP2 PUSH2 0x98D JUMP JUMPDEST SWAP3 SWAP2 POP POP JUMP JUMPDEST PUSH1 0x0 PUSH1 0x20 DUP3 DUP5 SUB SLT ISZERO PUSH2 0x5D8 JUMPI PUSH2 0x5D7 PUSH2 0x90E JUMP JUMPDEST JUMPDEST PUSH1 0x0 PUSH2 0x5E6 DUP5 DUP3 DUP6 ADD PUSH2 0x598 JUMP JUMPDEST SWAP2 POP POP SWAP3 SWAP2 POP POP JUMP JUMPDEST PUSH1 0x0 PUSH1 0x20 DUP3 DUP5 SUB SLT ISZERO PUSH2 0x605 JUMPI PUSH2 0x604 PUSH2 0x90E JUMP JUMPDEST JUMPDEST PUSH1 0x0 PUSH2 0x613 DUP5 DUP3 DUP6 ADD PUSH2 0x5AD JUMP JUMPDEST SWAP2 POP POP SWAP3 SWAP2 POP POP JUMP JUMPDEST PUSH2 0x625 DUP2 PUSH2 0x808 JUMP JUMPDEST DUP3 MSTORE POP POP JUMP JUMPDEST PUSH1 0x0 PUSH2 0x636 DUP3 PUSH2 0x784 JUMP JUMPDEST PUSH2 0x640 DUP2 DUP6 PUSH2 0x78F JUMP JUMPDEST SWAP4 POP PUSH2 0x650 DUP2 DUP6 PUSH1 0x20 DUP7 ADD PUSH2 0x84B JUMP JUMPDEST PUSH2 0x659 DUP2 PUSH2 0x913 JUMP JUMPDEST DUP5 ADD SWAP2 POP POP SWAP3 SWAP2 POP POP JUMP JUMPDEST PUSH1 0x0 PUSH2 0x671 PUSH1 0x12 DUP4 PUSH2 0x78F JUMP JUMPDEST SWAP2 POP PUSH2 0x67C DUP3 PUSH2 0x924 JUMP JUMPDEST PUSH1 0x20 DUP3 ADD SWAP1 POP SWAP2 SWAP1 POP JUMP JUMPDEST PUSH1 0x0 PUSH2 0x694 PUSH1 0x19 DUP4 PUSH2 0x78F JUMP JUMPDEST SWAP2 POP PUSH2 0x69F DUP3 PUSH2 0x94D JUMP JUMPDEST PUSH1 0x20 DUP3 ADD SWAP1 POP SWAP2 SWAP1 POP JUMP JUMPDEST PUSH2 0x6B3 DUP2 PUSH2 0x834 JUMP JUMPDEST DUP3 MSTORE POP POP JUMP JUMPDEST PUSH2 0x6C2 DUP2 PUSH2 0x83E JUMP JUMPDEST DUP3 MSTORE POP POP JUMP JUMPDEST PUSH1 0x0 PUSH1 0x40 DUP3 ADD SWAP1 POP PUSH2 0x6DD PUSH1 0x0 DUP4 ADD DUP6 PUSH2 0x61C JUMP JUMPDEST PUSH2 0x6EA PUSH1 0x20 DUP4 ADD DUP5 PUSH2 0x61C JUMP JUMPDEST SWAP4 SWAP3 POP POP POP JUMP JUMPDEST PUSH1 0x0 PUSH1 0x20 DUP3 ADD SWAP1 POP DUP2 DUP2 SUB PUSH1 0x0 DUP4 ADD MSTORE PUSH2 0x70A DUP2 PUSH2 0x664 JUMP JUMPDEST SWAP1 POP SWAP2 SWAP1 POP JUMP JUMPDEST PUSH1 0x0 PUSH1 0x20 DUP3 ADD SWAP1 POP DUP2 DUP2 SUB PUSH1 0x0 DUP4 ADD MSTORE PUSH2 0x72A DUP2 PUSH2 0x687 JUMP JUMPDEST SWAP1 POP SWAP2 SWAP1 POP JUMP JUMPDEST PUSH1 0x0 PUSH1 0x80 DUP3 ADD SWAP1 POP PUSH2 0x746 PUSH1 0x0 DUP4 ADD DUP8 PUSH2 0x6B9 JUMP JUMPDEST DUP2 DUP2 SUB PUSH1 0x20 DUP4 ADD MSTORE PUSH2 0x758 DUP2 DUP7 PUSH2 0x62B JUMP JUMPDEST SWAP1 POP DUP2 DUP2 SUB PUSH1 0x40 DUP4 ADD MSTORE PUSH2 0x76C DUP2 DUP6 PUSH2 0x62B JUMP JUMPDEST SWAP1 POP PUSH2 0x77B PUSH1 0x60 DUP4 ADD DUP5 PUSH2 0x6AA JUMP JUMPDEST SWAP6 SWAP5 POP POP POP POP POP JUMP JUMPDEST PUSH1 0x0 DUP2 MLOAD SWAP1 POP SWAP2 SWAP1 POP JUMP JUMPDEST PUSH1 0x0 DUP3 DUP3 MSTORE PUSH1 0x20 DUP3 ADD SWAP1 POP SWAP3 SWAP2 POP POP JUMP JUMPDEST PUSH1 0x0 PUSH2 0x7AB DUP3 PUSH2 0x834 JUMP JUMPDEST SWAP2 POP PUSH2 0x7B6 DUP4 PUSH2 0x834 JUMP JUMPDEST SWAP3 POP DUP3 PUSH32 0xFFFFFFFFFFFFFFFFFFFFFFFFFFFFFFFFFFFFFFFFFFFFFFFFFFFFFFFFFFFFFFFF SUB DUP3 GT ISZERO PUSH2 0x7EB JUMPI PUSH2 0x7EA PUSH2 0x8B0 JUMP JUMPDEST JUMPDEST DUP3 DUP3 ADD SWAP1 POP SWAP3 SWAP2 POP POP JUMP JUMPDEST PUSH1 0x0 PUSH2 0x801 DUP3 PUSH2 0x814 JUMP JUMPDEST SWAP1 POP SWAP2 SWAP1 POP JUMP JUMPDEST PUSH1 0x0 DUP2 ISZERO ISZERO SWAP1 POP SWAP2 SWAP1 POP JUMP JUMPDEST PUSH1 0x0 PUSH20 0xFFFFFFFFFFFFFFFFFFFFFFFFFFFFFFFFFFFFFFFF DUP3 AND SWAP1 POP SWAP2 SWAP1 POP JUMP JUMPDEST PUSH1 0x0 DUP2 SWAP1 POP SWAP2 SWAP1 POP JUMP JUMPDEST PUSH1 0x0 PUSH1 0xFF DUP3 AND SWAP1 POP SWAP2 SWAP1 POP JUMP JUMPDEST PUSH1 0x0 JUMPDEST DUP4 DUP2 LT ISZERO PUSH2 0x869 JUMPI DUP1 DUP3 ADD MLOAD DUP2 DUP5 ADD MSTORE PUSH1 0x20 DUP2 ADD SWAP1 POP PUSH2 0x84E JUMP JUMPDEST DUP4 DUP2 GT ISZERO PUSH2 0x878 JUMPI PUSH1 0x0 DUP5 DUP5 ADD MSTORE JUMPDEST POP POP POP POP JUMP JUMPDEST PUSH1 0x0 PUSH1 0x2 DUP3 DIV SWAP1 POP PUSH1 0x1 DUP3 AND DUP1 PUSH2 0x896 JUMPI PUSH1 0x7F DUP3 AND SWAP2 POP JUMPDEST PUSH1 0x20 DUP3 LT DUP2 EQ ISZERO PUSH2 0x8AA JUMPI PUSH2 0x8A9 PUSH2 0x8DF JUMP JUMPDEST JUMPDEST POP SWAP2 SWAP1 POP JUMP JUMPDEST PUSH32 0x4E487B7100000000000000000000000000000000000000000000000000000000 PUSH1 0x0 MSTORE PUSH1 0x11 PUSH1 0x4 MSTORE PUSH1 0x24 PUSH1 0x0 REVERT JUMPDEST PUSH32 0x4E487B7100000000000000000000000000000000000000000000000000000000 PUSH1 0x0 MSTORE PUSH1 0x22 PUSH1 0x4 MSTORE PUSH1 0x24 PUSH1 0x0 REVERT JUMPDEST PUSH1 0x0 DUP1 REVERT JUMPDEST PUSH1 0x0 PUSH1 0x1F NOT PUSH1 0x1F DUP4 ADD AND SWAP1 POP SWAP2 SWAP1 POP JUMP JUMPDEST PUSH32 0x4E6F206572657320656C20494E45204445580000000000000000000000000000 PUSH1 0x0 DUP3 ADD MSTORE POP JUMP JUMPDEST PUSH32 0x4E6F207469656E6573206465726563686F206120766F74617200000000000000 PUSH1 0x0 DUP3 ADD MSTORE POP JUMP JUMPDEST PUSH2 0x97F DUP2 PUSH2 0x7F6 JUMP JUMPDEST DUP2 EQ PUSH2 0x98A JUMPI PUSH1 0x0 DUP1 REVERT JUMPDEST POP JUMP JUMPDEST PUSH2 0x996 DUP2 PUSH2 0x83E JUMP JUMPDEST DUP2 EQ PUSH2 0x9A1 JUMPI PUSH1 0x0 DUP1 REVERT JUMPDEST POP JUMP INVALID LOG2 PUSH5 0x6970667358 0x22 SLT KECCAK256 0xDB CALL SLOAD 0xB8 JUMPI PUSH27 0x9ACCFC547F32E58FA48FB77494924DB193D6EFB01CB88DE7AC5264 PUSH20 0x6F6C634300080700330000000000000000000000 "
				},
				"gasEstimates": {
					"creation": {
						"codeDepositCost": "504400",
						"executionCost": "infinite",
						"totalCost": "infinite"
					},
					"external": {
						"c1()": "infinite",
						"c2()": "infinite",
						"derechoAVotar(address)": "27038",
						"votantes(address)": "infinite",
						"votar(uint8)": "infinite"
					}
				},
				"methodIdentifiers": {
					"c1()": "5f57697c",
					"c2()": "48e257cb",
					"derechoAVotar(address)": "5f5069df",
					"votantes(address)": "a92284d0",
					"votar(uint8)": "92dcef09"
				}
			},
			"storageLayout": {
				"storage": [
					{
						"astId": 20,
						"contract": "contracts/Votes.sol:Vote",
						"label": "votantes",
						"offset": 0,
						"slot": "0",
						"type": "t_mapping(t_address,t_struct(Votantes)15_storage)"
					},
					{
						"astId": 23,
						"contract": "contracts/Votes.sol:Vote",
						"label": "c1",
						"offset": 0,
						"slot": "1",
						"type": "t_struct(candidatos)10_storage"
					},
					{
						"astId": 26,
						"contract": "contracts/Votes.sol:Vote",
						"label": "c2",
						"offset": 0,
						"slot": "5",
						"type": "t_struct(candidatos)10_storage"
					},
					{
						"astId": 28,
						"contract": "contracts/Votes.sol:Vote",
						"label": "owner",
						"offset": 0,
						"slot": "9",
						"type": "t_address"
					}
				],
				"types": {
					"t_address": {
						"encoding": "inplace",
						"label": "address",
						"numberOfBytes": "20"
					},
					"t_bool": {
						"encoding": "inplace",
						"label": "bool",
						"numberOfBytes": "1"
					},
					"t_mapping(t_address,t_struct(Votantes)15_storage)": {
						"encoding": "mapping",
						"key": "t_address",
						"label": "mapping(address => struct Vote.Votantes)",
						"numberOfBytes": "32",
						"value": "t_struct(Votantes)15_storage"
					},
					"t_string_storage": {
						"encoding": "bytes",
						"label": "string",
						"numberOfBytes": "32"
					},
					"t_struct(Votantes)15_storage": {
						"encoding": "inplace",
						"label": "struct Vote.Votantes",
						"members": [
							{
								"astId": 12,
								"contract": "contracts/Votes.sol:Vote",
								"label": "votoRegistrado",
								"offset": 0,
								"slot": "0",
								"type": "t_bool"
							},
							{
								"astId": 14,
								"contract": "contracts/Votes.sol:Vote",
								"label": "puedeVotar",
								"offset": 1,
								"slot": "0",
								"type": "t_bool"
							}
						],
						"numberOfBytes": "32"
					},
					"t_struct(candidatos)10_storage": {
						"encoding": "inplace",
						"label": "struct Vote.candidatos",
						"members": [
							{
								"astId": 3,
								"contract": "contracts/Votes.sol:Vote",
								"label": "id",
								"offset": 0,
								"slot": "0",
								"type": "t_uint8"
							},
							{
								"astId": 5,
								"contract": "contracts/Votes.sol:Vote",
								"label": "nombre",
								"offset": 0,
								"slot": "1",
								"type": "t_string_storage"
							},
							{
								"astId": 7,
								"contract": "contracts/Votes.sol:Vote",
								"label": "partido",
								"offset": 0,
								"slot": "2",
								"type": "t_string_storage"
							},
							{
								"astId": 9,
								"contract": "contracts/Votes.sol:Vote",
								"label": "votos",
								"offset": 0,
								"slot": "3",
								"type": "t_uint256"
							}
						],
						"numberOfBytes": "128"
					},
					"t_uint256": {
						"encoding": "inplace",
						"label": "uint256",
						"numberOfBytes": "32"
					},
					"t_uint8": {
						"encoding": "inplace",
						"label": "uint8",
						"numberOfBytes": "1"
					}
				}
			},
			"userdoc": {
				"kind": "user",
				"methods": {},
				"version": 1
			}
		}
	}
}