{
	"contracts/Funciones.sol": {
		"Funciones": {
			"abi": [
				{
					"anonymous": false,
					"inputs": [
						{
							"indexed": false,
							"internalType": "address",
							"name": "",
							"type": "address"
						},
						{
							"indexed": false,
							"internalType": "uint16",
							"name": "",
							"type": "uint16"
						}
					],
					"name": "cambioPrecio",
					"type": "event"
				},
				{
					"inputs": [],
					"name": "decrementarPrecio",
					"outputs": [],
					"stateMutability": "nonpayable",
					"type": "function"
				},
				{
					"inputs": [],
					"name": "getData",
					"outputs": [
						{
							"internalType": "uint8",
							"name": "parametro3",
							"type": "uint8"
						}
					],
					"stateMutability": "pure",
					"type": "function"
				},
				{
					"inputs": [],
					"name": "getData2",
					"outputs": [
						{
							"internalType": "address",
							"name": "",
							"type": "address"
						}
					],
					"stateMutability": "view",
					"type": "function"
				},
				{
					"inputs": [],
					"name": "incrementar",
					"outputs": [
						{
							"internalType": "uint256",
							"name": "",
							"type": "uint256"
						}
					],
					"stateMutability": "view",
					"type": "function"
				},
				{
					"inputs": [],
					"name": "incrementarPrecio",
					"outputs": [],
					"stateMutability": "nonpayable",
					"type": "function"
				},
				{
					"inputs": [],
					"name": "operacion1",
					"outputs": [],
					"stateMutability": "nonpayable",
					"type": "function"
				},
				{
					"inputs": [],
					"name": "operacion2",
					"outputs": [],
					"stateMutability": "nonpayable",
					"type": "function"
				},
				{
					"inputs": [
						{
							"internalType": "uint8",
							"name": "parametro1",
							"type": "uint8"
						},
						{
							"internalType": "uint8",
							"name": "parametro2",
							"type": "uint8"
						}
					],
					"name": "setData",
					"outputs": [],
					"stateMutability": "pure",
					"type": "function"
				},
				{
					"inputs": [],
					"name": "suma",
					"outputs": [
						{
							"internalType": "uint256",
							"name": "",
							"type": "uint256"
						}
					],
					"stateMutability": "pure",
					"type": "function"
				}
			],
			"devdoc": {
				"kind": "dev",
				"methods": {},
				"version": 1
			},
			"evm": {
				"assembly": "    /* \"contracts/Funciones.sol\":77:1737  contract Funciones{\r... */\n  mstore(0x40, 0x80)\n    /* \"contracts/Funciones.sol\":527:537  msg.sender */\n  caller\n    /* \"contracts/Funciones.sol\":510:537  address sender = msg.sender */\n  0x00\n  dup1\n  0x0100\n  exp\n  dup2\n  sload\n  dup2\n  0xffffffffffffffffffffffffffffffffffffffff\n  mul\n  not\n  and\n  swap1\n  dup4\n  0xffffffffffffffffffffffffffffffffffffffff\n  and\n  mul\n  or\n  swap1\n  sstore\n  pop\n    /* \"contracts/Funciones.sol\":664:665  2 */\n  0x02\n    /* \"contracts/Funciones.sol\":650:665  int numero1 = 2 */\n  0x01\n  sstore\n    /* \"contracts/Funciones.sol\":686:687  3 */\n  0x03\n    /* \"contracts/Funciones.sol\":672:687  int numero2 = 3 */\n  0x02\n  sstore\n    /* \"contracts/Funciones.sol\":1147:1148  8 */\n  0x08\n    /* \"contracts/Funciones.sol\":1138:1148  uint x = 8 */\n  0x04\n  sstore\n    /* \"contracts/Funciones.sol\":77:1737  contract Funciones{\r... */\n  callvalue\n  dup1\n  iszero\n  tag_1\n  jumpi\n  0x00\n  dup1\n  revert\ntag_1:\n  pop\n  dataSize(sub_0)\n  dup1\n  dataOffset(sub_0)\n  0x00\n  codecopy\n  0x00\n  return\nstop\n\nsub_0: assembly {\n        /* \"contracts/Funciones.sol\":77:1737  contract Funciones{\r... */\n      mstore(0x40, 0x80)\n      callvalue\n      dup1\n      iszero\n      tag_1\n      jumpi\n      0x00\n      dup1\n      revert\n    tag_1:\n      pop\n      jumpi(tag_2, lt(calldatasize, 0x04))\n      shr(0xe0, calldataload(0x00))\n      dup1\n      0x7e7d8ec6\n      gt\n      tag_12\n      jumpi\n      dup1\n      0x7e7d8ec6\n      eq\n      tag_7\n      jumpi\n      dup1\n      0x86af6ba7\n      eq\n      tag_8\n      jumpi\n      dup1\n      0x8846636c\n      eq\n      tag_9\n      jumpi\n      dup1\n      0x91607a99\n      eq\n      tag_10\n      jumpi\n      dup1\n      0xa898fd70\n      eq\n      tag_11\n      jumpi\n      jump(tag_2)\n    tag_12:\n      dup1\n      0x191dbb34\n      eq\n      tag_3\n      jumpi\n      dup1\n      0x1e3d73a1\n      eq\n      tag_4\n      jumpi\n      dup1\n      0x3bc5de30\n      eq\n      tag_5\n      jumpi\n      dup1\n      0x5cc31747\n      eq\n      tag_6\n      jumpi\n    tag_2:\n      0x00\n      dup1\n      revert\n        /* \"contracts/Funciones.sol\":791:837  function operacion2() public{\r... */\n    tag_3:\n      tag_13\n      tag_14\n      jump\t// in\n    tag_13:\n      stop\n        /* \"contracts/Funciones.sol\":146:283  function setData (uint8 parametro1, uint8 parametro2) public pure{\r... */\n    tag_4:\n      tag_15\n      0x04\n      dup1\n      calldatasize\n      sub\n      dup2\n      add\n      swap1\n      tag_16\n      swap2\n      swap1\n      tag_17\n      jump\t// in\n    tag_16:\n      tag_18\n      jump\t// in\n    tag_15:\n      stop\n        /* \"contracts/Funciones.sol\":334:462  function getData() public pure returns (uint8 parametro3){\r... */\n    tag_5:\n      tag_19\n      tag_20\n      jump\t// in\n    tag_19:\n      mload(0x40)\n      tag_21\n      swap2\n      swap1\n      tag_22\n      jump\t// in\n    tag_21:\n      mload(0x40)\n      dup1\n      swap2\n      sub\n      swap1\n      return\n        /* \"contracts/Funciones.sol\":1547:1688  function decrementarPrecio () public validarPrecio(){\r... */\n    tag_6:\n      tag_23\n      tag_24\n      jump\t// in\n    tag_23:\n      stop\n        /* \"contracts/Funciones.sol\":1050:1130  function suma() public pure returns(uint){\r... */\n    tag_7:\n      tag_25\n      tag_26\n      jump\t// in\n    tag_25:\n      mload(0x40)\n      tag_27\n      swap2\n      swap1\n      tag_28\n      jump\t// in\n    tag_27:\n      mload(0x40)\n      dup1\n      swap2\n      sub\n      swap1\n      return\n        /* \"contracts/Funciones.sol\":1399:1540  function incrementarPrecio () public validarPrecio(){\r... */\n    tag_8:\n      tag_29\n      tag_30\n      jump\t// in\n    tag_29:\n      stop\n        /* \"contracts/Funciones.sol\":735:783  function operacion1() external{\r... */\n    tag_9:\n      tag_31\n      tag_32\n      jump\t// in\n    tag_31:\n      stop\n        /* \"contracts/Funciones.sol\":1157:1239  function incrementar() public view returns (uint){\r... */\n    tag_10:\n      tag_33\n      tag_34\n      jump\t// in\n    tag_33:\n      mload(0x40)\n      tag_35\n      swap2\n      swap1\n      tag_28\n      jump\t// in\n    tag_35:\n      mload(0x40)\n      dup1\n      swap2\n      sub\n      swap1\n      return\n        /* \"contracts/Funciones.sol\":561:642  function getData2() public view returns (address){\r... */\n    tag_11:\n      tag_36\n      tag_37\n      jump\t// in\n    tag_36:\n      mload(0x40)\n      tag_38\n      swap2\n      swap1\n      tag_39\n      jump\t// in\n    tag_38:\n      mload(0x40)\n      dup1\n      swap2\n      sub\n      swap1\n      return\n        /* \"contracts/Funciones.sol\":791:837  function operacion2() public{\r... */\n    tag_14:\n      jump\t// out\n        /* \"contracts/Funciones.sol\":146:283  function setData (uint8 parametro1, uint8 parametro2) public pure{\r... */\n    tag_18:\n        /* \"contracts/Funciones.sol\":248:249  1 */\n      0x01\n        /* \"contracts/Funciones.sol\":235:245  parametro1 */\n      dup3\n        /* \"contracts/Funciones.sol\":235:249  parametro1 + 1 */\n      tag_42\n      swap2\n      swap1\n      tag_43\n      jump\t// in\n    tag_42:\n        /* \"contracts/Funciones.sol\":222:249  parametro1 = parametro1 + 1 */\n      swap2\n      pop\n        /* \"contracts/Funciones.sol\":274:275  1 */\n      0x01\n        /* \"contracts/Funciones.sol\":260:275  parametro2 += 1 */\n      dup2\n      tag_44\n      swap2\n      swap1\n      tag_43\n      jump\t// in\n    tag_44:\n      swap1\n      pop\n        /* \"contracts/Funciones.sol\":146:283  function setData (uint8 parametro1, uint8 parametro2) public pure{\r... */\n      pop\n      pop\n      jump\t// out\n        /* \"contracts/Funciones.sol\":334:462  function getData() public pure returns (uint8 parametro3){\r... */\n    tag_20:\n        /* \"contracts/Funciones.sol\":374:390  uint8 parametro3 */\n      0x00\n        /* \"contracts/Funciones.sol\":416:426  parametro3 */\n      dup1\n        /* \"contracts/Funciones.sol\":402:426  parametro3 += parametro3 */\n      dup2\n      tag_46\n      swap2\n      swap1\n      tag_43\n      jump\t// in\n    tag_46:\n      swap1\n      pop\n        /* \"contracts/Funciones.sol\":334:462  function getData() public pure returns (uint8 parametro3){\r... */\n      swap1\n      jump\t// out\n        /* \"contracts/Funciones.sol\":1547:1688  function decrementarPrecio () public validarPrecio(){\r... */\n    tag_24:\n        /* \"contracts/Funciones.sol\":1335:1336  5 */\n      0x05\n        /* \"contracts/Funciones.sol\":1326:1332  precio */\n      dup1\n      0x00\n      swap1\n      sload\n      swap1\n      0x0100\n      exp\n      swap1\n      div\n      0xffff\n      and\n        /* \"contracts/Funciones.sol\":1326:1336  precio < 5 */\n      0xffff\n      and\n      lt\n        /* \"contracts/Funciones.sol\":1318:1349  require(precio < 5, \"Invalido\") */\n      tag_48\n      jumpi\n      mload(0x40)\n      0x08c379a000000000000000000000000000000000000000000000000000000000\n      dup2\n      mstore\n      0x04\n      add\n      tag_49\n      swap1\n      tag_50\n      jump\t// in\n    tag_49:\n      mload(0x40)\n      dup1\n      swap2\n      sub\n      swap1\n      revert\n    tag_48:\n        /* \"contracts/Funciones.sol\":1628:1630  10 */\n      0x0a\n        /* \"contracts/Funciones.sol\":1619:1625  precio */\n      0x05\n      0x00\n      swap1\n      sload\n      swap1\n      0x0100\n      exp\n      swap1\n      div\n      0xffff\n      and\n        /* \"contracts/Funciones.sol\":1619:1630  precio - 10 */\n      tag_52\n      swap2\n      swap1\n      tag_53\n      jump\t// in\n    tag_52:\n        /* \"contracts/Funciones.sol\":1610:1616  precio */\n      0x05\n      0x00\n        /* \"contracts/Funciones.sol\":1610:1630  precio = precio - 10 */\n      0x0100\n      exp\n      dup2\n      sload\n      dup2\n      0xffff\n      mul\n      not\n      and\n      swap1\n      dup4\n      0xffff\n      and\n      mul\n      or\n      swap1\n      sstore\n      pop\n        /* \"contracts/Funciones.sol\":1647:1680  cambioPrecio(msg.sender , precio) */\n      0xc87fc62b262b7387b8a3ed60e6d48ba88b07d6693bab9a9dd94f3292d42b7c5d\n        /* \"contracts/Funciones.sol\":1660:1670  msg.sender */\n      caller\n        /* \"contracts/Funciones.sol\":1673:1679  precio */\n      0x05\n      0x00\n      swap1\n      sload\n      swap1\n      0x0100\n      exp\n      swap1\n      div\n      0xffff\n      and\n        /* \"contracts/Funciones.sol\":1647:1680  cambioPrecio(msg.sender , precio) */\n      mload(0x40)\n      tag_54\n      swap3\n      swap2\n      swap1\n      tag_55\n      jump\t// in\n    tag_54:\n      mload(0x40)\n      dup1\n      swap2\n      sub\n      swap1\n      log1\n        /* \"contracts/Funciones.sol\":1547:1688  function decrementarPrecio () public validarPrecio(){\r... */\n      jump\t// out\n        /* \"contracts/Funciones.sol\":1050:1130  function suma() public pure returns(uint){\r... */\n    tag_26:\n        /* \"contracts/Funciones.sol\":1086:1090  uint */\n      0x00\n        /* \"contracts/Funciones.sol\":1119:1122  2+2 */\n      0x04\n        /* \"contracts/Funciones.sol\":1112:1122  return 2+2 */\n      swap1\n      pop\n        /* \"contracts/Funciones.sol\":1050:1130  function suma() public pure returns(uint){\r... */\n      swap1\n      jump\t// out\n        /* \"contracts/Funciones.sol\":1399:1540  function incrementarPrecio () public validarPrecio(){\r... */\n    tag_30:\n        /* \"contracts/Funciones.sol\":1335:1336  5 */\n      0x05\n        /* \"contracts/Funciones.sol\":1326:1332  precio */\n      dup1\n      0x00\n      swap1\n      sload\n      swap1\n      0x0100\n      exp\n      swap1\n      div\n      0xffff\n      and\n        /* \"contracts/Funciones.sol\":1326:1336  precio < 5 */\n      0xffff\n      and\n      lt\n        /* \"contracts/Funciones.sol\":1318:1349  require(precio < 5, \"Invalido\") */\n      tag_58\n      jumpi\n      mload(0x40)\n      0x08c379a000000000000000000000000000000000000000000000000000000000\n      dup2\n      mstore\n      0x04\n      add\n      tag_59\n      swap1\n      tag_50\n      jump\t// in\n    tag_59:\n      mload(0x40)\n      dup1\n      swap2\n      sub\n      swap1\n      revert\n    tag_58:\n        /* \"contracts/Funciones.sol\":1480:1482  10 */\n      0x0a\n        /* \"contracts/Funciones.sol\":1471:1477  precio */\n      0x05\n      0x00\n      swap1\n      sload\n      swap1\n      0x0100\n      exp\n      swap1\n      div\n      0xffff\n      and\n        /* \"contracts/Funciones.sol\":1471:1482  precio + 10 */\n      tag_61\n      swap2\n      swap1\n      tag_62\n      jump\t// in\n    tag_61:\n        /* \"contracts/Funciones.sol\":1462:1468  precio */\n      0x05\n      0x00\n        /* \"contracts/Funciones.sol\":1462:1482  precio = precio + 10 */\n      0x0100\n      exp\n      dup2\n      sload\n      dup2\n      0xffff\n      mul\n      not\n      and\n      swap1\n      dup4\n      0xffff\n      and\n      mul\n      or\n      swap1\n      sstore\n      pop\n        /* \"contracts/Funciones.sol\":1499:1532  cambioPrecio(msg.sender , precio) */\n      0xc87fc62b262b7387b8a3ed60e6d48ba88b07d6693bab9a9dd94f3292d42b7c5d\n        /* \"contracts/Funciones.sol\":1512:1522  msg.sender */\n      caller\n        /* \"contracts/Funciones.sol\":1525:1531  precio */\n      0x05\n      0x00\n      swap1\n      sload\n      swap1\n      0x0100\n      exp\n      swap1\n      div\n      0xffff\n      and\n        /* \"contracts/Funciones.sol\":1499:1532  cambioPrecio(msg.sender , precio) */\n      mload(0x40)\n      tag_63\n      swap3\n      swap2\n      swap1\n      tag_55\n      jump\t// in\n    tag_63:\n      mload(0x40)\n      dup1\n      swap2\n      sub\n      swap1\n      log1\n        /* \"contracts/Funciones.sol\":1399:1540  function incrementarPrecio () public validarPrecio(){\r... */\n      jump\t// out\n        /* \"contracts/Funciones.sol\":735:783  function operacion1() external{\r... */\n    tag_32:\n      jump\t// out\n        /* \"contracts/Funciones.sol\":1157:1239  function incrementar() public view returns (uint){\r... */\n    tag_34:\n        /* \"contracts/Funciones.sol\":1201:1205  uint */\n      0x00\n        /* \"contracts/Funciones.sol\":1230:1231  2 */\n      0x02\n        /* \"contracts/Funciones.sol\":1226:1227  x */\n      sload(0x04)\n        /* \"contracts/Funciones.sol\":1226:1231  x + 2 */\n      tag_66\n      swap2\n      swap1\n      tag_67\n      jump\t// in\n    tag_66:\n        /* \"contracts/Funciones.sol\":1219:1231  return x + 2 */\n      swap1\n      pop\n        /* \"contracts/Funciones.sol\":1157:1239  function incrementar() public view returns (uint){\r... */\n      swap1\n      jump\t// out\n        /* \"contracts/Funciones.sol\":561:642  function getData2() public view returns (address){\r... */\n    tag_37:\n        /* \"contracts/Funciones.sol\":602:609  address */\n      0x00\n        /* \"contracts/Funciones.sol\":628:634  sender */\n      dup1\n      0x00\n      swap1\n      sload\n      swap1\n      0x0100\n      exp\n      swap1\n      div\n      0xffffffffffffffffffffffffffffffffffffffff\n      and\n        /* \"contracts/Funciones.sol\":621:634  return sender */\n      swap1\n      pop\n        /* \"contracts/Funciones.sol\":561:642  function getData2() public view returns (address){\r... */\n      swap1\n      jump\t// out\n        /* \"#utility.yul\":7:142   */\n    tag_70:\n        /* \"#utility.yul\":51:56   */\n      0x00\n        /* \"#utility.yul\":89:95   */\n      dup2\n        /* \"#utility.yul\":76:96   */\n      calldataload\n        /* \"#utility.yul\":67:96   */\n      swap1\n      pop\n        /* \"#utility.yul\":105:136   */\n      tag_72\n        /* \"#utility.yul\":130:135   */\n      dup2\n        /* \"#utility.yul\":105:136   */\n      tag_73\n      jump\t// in\n    tag_72:\n        /* \"#utility.yul\":7:142   */\n      swap3\n      swap2\n      pop\n      pop\n      jump\t// out\n        /* \"#utility.yul\":148:614   */\n    tag_17:\n        /* \"#utility.yul\":212:218   */\n      0x00\n        /* \"#utility.yul\":220:226   */\n      dup1\n        /* \"#utility.yul\":269:271   */\n      0x40\n        /* \"#utility.yul\":257:266   */\n      dup4\n        /* \"#utility.yul\":248:255   */\n      dup6\n        /* \"#utility.yul\":244:267   */\n      sub\n        /* \"#utility.yul\":240:272   */\n      slt\n        /* \"#utility.yul\":237:356   */\n      iszero\n      tag_75\n      jumpi\n        /* \"#utility.yul\":275:354   */\n      tag_76\n      tag_77\n      jump\t// in\n    tag_76:\n        /* \"#utility.yul\":237:356   */\n    tag_75:\n        /* \"#utility.yul\":395:396   */\n      0x00\n        /* \"#utility.yul\":420:471   */\n      tag_78\n        /* \"#utility.yul\":463:470   */\n      dup6\n        /* \"#utility.yul\":454:460   */\n      dup3\n        /* \"#utility.yul\":443:452   */\n      dup7\n        /* \"#utility.yul\":439:461   */\n      add\n        /* \"#utility.yul\":420:471   */\n      tag_70\n      jump\t// in\n    tag_78:\n        /* \"#utility.yul\":410:471   */\n      swap3\n      pop\n        /* \"#utility.yul\":366:481   */\n      pop\n        /* \"#utility.yul\":520:522   */\n      0x20\n        /* \"#utility.yul\":546:597   */\n      tag_79\n        /* \"#utility.yul\":589:596   */\n      dup6\n        /* \"#utility.yul\":580:586   */\n      dup3\n        /* \"#utility.yul\":569:578   */\n      dup7\n        /* \"#utility.yul\":565:587   */\n      add\n        /* \"#utility.yul\":546:597   */\n      tag_70\n      jump\t// in\n    tag_79:\n        /* \"#utility.yul\":536:597   */\n      swap2\n      pop\n        /* \"#utility.yul\":491:607   */\n      pop\n        /* \"#utility.yul\":148:614   */\n      swap3\n      pop\n      swap3\n      swap1\n      pop\n      jump\t// out\n        /* \"#utility.yul\":620:738   */\n    tag_80:\n        /* \"#utility.yul\":707:731   */\n      tag_82\n        /* \"#utility.yul\":725:730   */\n      dup2\n        /* \"#utility.yul\":707:731   */\n      tag_83\n      jump\t// in\n    tag_82:\n        /* \"#utility.yul\":702:705   */\n      dup3\n        /* \"#utility.yul\":695:732   */\n      mstore\n        /* \"#utility.yul\":620:738   */\n      pop\n      pop\n      jump\t// out\n        /* \"#utility.yul\":744:1109   */\n    tag_84:\n        /* \"#utility.yul\":886:889   */\n      0x00\n        /* \"#utility.yul\":907:973   */\n      tag_86\n        /* \"#utility.yul\":971:972   */\n      0x08\n        /* \"#utility.yul\":966:969   */\n      dup4\n        /* \"#utility.yul\":907:973   */\n      tag_87\n      jump\t// in\n    tag_86:\n        /* \"#utility.yul\":900:973   */\n      swap2\n      pop\n        /* \"#utility.yul\":982:1075   */\n      tag_88\n        /* \"#utility.yul\":1071:1074   */\n      dup3\n        /* \"#utility.yul\":982:1075   */\n      tag_89\n      jump\t// in\n    tag_88:\n        /* \"#utility.yul\":1100:1102   */\n      0x20\n        /* \"#utility.yul\":1095:1098   */\n      dup3\n        /* \"#utility.yul\":1091:1103   */\n      add\n        /* \"#utility.yul\":1084:1103   */\n      swap1\n      pop\n        /* \"#utility.yul\":744:1109   */\n      swap2\n      swap1\n      pop\n      jump\t// out\n        /* \"#utility.yul\":1115:1230   */\n    tag_90:\n        /* \"#utility.yul\":1200:1223   */\n      tag_92\n        /* \"#utility.yul\":1217:1222   */\n      dup2\n        /* \"#utility.yul\":1200:1223   */\n      tag_93\n      jump\t// in\n    tag_92:\n        /* \"#utility.yul\":1195:1198   */\n      dup3\n        /* \"#utility.yul\":1188:1224   */\n      mstore\n        /* \"#utility.yul\":1115:1230   */\n      pop\n      pop\n      jump\t// out\n        /* \"#utility.yul\":1236:1354   */\n    tag_94:\n        /* \"#utility.yul\":1323:1347   */\n      tag_96\n        /* \"#utility.yul\":1341:1346   */\n      dup2\n        /* \"#utility.yul\":1323:1347   */\n      tag_97\n      jump\t// in\n    tag_96:\n        /* \"#utility.yul\":1318:1321   */\n      dup3\n        /* \"#utility.yul\":1311:1348   */\n      mstore\n        /* \"#utility.yul\":1236:1354   */\n      pop\n      pop\n      jump\t// out\n        /* \"#utility.yul\":1360:1472   */\n    tag_98:\n        /* \"#utility.yul\":1443:1465   */\n      tag_100\n        /* \"#utility.yul\":1459:1464   */\n      dup2\n        /* \"#utility.yul\":1443:1465   */\n      tag_101\n      jump\t// in\n    tag_100:\n        /* \"#utility.yul\":1438:1441   */\n      dup3\n        /* \"#utility.yul\":1431:1466   */\n      mstore\n        /* \"#utility.yul\":1360:1472   */\n      pop\n      pop\n      jump\t// out\n        /* \"#utility.yul\":1478:1700   */\n    tag_39:\n        /* \"#utility.yul\":1571:1575   */\n      0x00\n        /* \"#utility.yul\":1609:1611   */\n      0x20\n        /* \"#utility.yul\":1598:1607   */\n      dup3\n        /* \"#utility.yul\":1594:1612   */\n      add\n        /* \"#utility.yul\":1586:1612   */\n      swap1\n      pop\n        /* \"#utility.yul\":1622:1693   */\n      tag_103\n        /* \"#utility.yul\":1690:1691   */\n      0x00\n        /* \"#utility.yul\":1679:1688   */\n      dup4\n        /* \"#utility.yul\":1675:1692   */\n      add\n        /* \"#utility.yul\":1666:1672   */\n      dup5\n        /* \"#utility.yul\":1622:1693   */\n      tag_80\n      jump\t// in\n    tag_103:\n        /* \"#utility.yul\":1478:1700   */\n      swap3\n      swap2\n      pop\n      pop\n      jump\t// out\n        /* \"#utility.yul\":1706:2034   */\n    tag_55:\n        /* \"#utility.yul\":1825:1829   */\n      0x00\n        /* \"#utility.yul\":1863:1865   */\n      0x40\n        /* \"#utility.yul\":1852:1861   */\n      dup3\n        /* \"#utility.yul\":1848:1866   */\n      add\n        /* \"#utility.yul\":1840:1866   */\n      swap1\n      pop\n        /* \"#utility.yul\":1876:1947   */\n      tag_105\n        /* \"#utility.yul\":1944:1945   */\n      0x00\n        /* \"#utility.yul\":1933:1942   */\n      dup4\n        /* \"#utility.yul\":1929:1946   */\n      add\n        /* \"#utility.yul\":1920:1926   */\n      dup6\n        /* \"#utility.yul\":1876:1947   */\n      tag_80\n      jump\t// in\n    tag_105:\n        /* \"#utility.yul\":1957:2027   */\n      tag_106\n        /* \"#utility.yul\":2023:2025   */\n      0x20\n        /* \"#utility.yul\":2012:2021   */\n      dup4\n        /* \"#utility.yul\":2008:2026   */\n      add\n        /* \"#utility.yul\":1999:2005   */\n      dup5\n        /* \"#utility.yul\":1957:2027   */\n      tag_90\n      jump\t// in\n    tag_106:\n        /* \"#utility.yul\":1706:2034   */\n      swap4\n      swap3\n      pop\n      pop\n      pop\n      jump\t// out\n        /* \"#utility.yul\":2040:2459   */\n    tag_50:\n        /* \"#utility.yul\":2206:2210   */\n      0x00\n        /* \"#utility.yul\":2244:2246   */\n      0x20\n        /* \"#utility.yul\":2233:2242   */\n      dup3\n        /* \"#utility.yul\":2229:2247   */\n      add\n        /* \"#utility.yul\":2221:2247   */\n      swap1\n      pop\n        /* \"#utility.yul\":2293:2302   */\n      dup2\n        /* \"#utility.yul\":2287:2291   */\n      dup2\n        /* \"#utility.yul\":2283:2303   */\n      sub\n        /* \"#utility.yul\":2279:2280   */\n      0x00\n        /* \"#utility.yul\":2268:2277   */\n      dup4\n        /* \"#utility.yul\":2264:2281   */\n      add\n        /* \"#utility.yul\":2257:2304   */\n      mstore\n        /* \"#utility.yul\":2321:2452   */\n      tag_108\n        /* \"#utility.yul\":2447:2451   */\n      dup2\n        /* \"#utility.yul\":2321:2452   */\n      tag_84\n      jump\t// in\n    tag_108:\n        /* \"#utility.yul\":2313:2452   */\n      swap1\n      pop\n        /* \"#utility.yul\":2040:2459   */\n      swap2\n      swap1\n      pop\n      jump\t// out\n        /* \"#utility.yul\":2465:2687   */\n    tag_28:\n        /* \"#utility.yul\":2558:2562   */\n      0x00\n        /* \"#utility.yul\":2596:2598   */\n      0x20\n        /* \"#utility.yul\":2585:2594   */\n      dup3\n        /* \"#utility.yul\":2581:2599   */\n      add\n        /* \"#utility.yul\":2573:2599   */\n      swap1\n      pop\n        /* \"#utility.yul\":2609:2680   */\n      tag_110\n        /* \"#utility.yul\":2677:2678   */\n      0x00\n        /* \"#utility.yul\":2666:2675   */\n      dup4\n        /* \"#utility.yul\":2662:2679   */\n      add\n        /* \"#utility.yul\":2653:2659   */\n      dup5\n        /* \"#utility.yul\":2609:2680   */\n      tag_94\n      jump\t// in\n    tag_110:\n        /* \"#utility.yul\":2465:2687   */\n      swap3\n      swap2\n      pop\n      pop\n      jump\t// out\n        /* \"#utility.yul\":2693:2907   */\n    tag_22:\n        /* \"#utility.yul\":2782:2786   */\n      0x00\n        /* \"#utility.yul\":2820:2822   */\n      0x20\n        /* \"#utility.yul\":2809:2818   */\n      dup3\n        /* \"#utility.yul\":2805:2823   */\n      add\n        /* \"#utility.yul\":2797:2823   */\n      swap1\n      pop\n        /* \"#utility.yul\":2833:2900   */\n      tag_112\n        /* \"#utility.yul\":2897:2898   */\n      0x00\n        /* \"#utility.yul\":2886:2895   */\n      dup4\n        /* \"#utility.yul\":2882:2899   */\n      add\n        /* \"#utility.yul\":2873:2879   */\n      dup5\n        /* \"#utility.yul\":2833:2900   */\n      tag_98\n      jump\t// in\n    tag_112:\n        /* \"#utility.yul\":2693:2907   */\n      swap3\n      swap2\n      pop\n      pop\n      jump\t// out\n        /* \"#utility.yul\":2994:3163   */\n    tag_87:\n        /* \"#utility.yul\":3078:3089   */\n      0x00\n        /* \"#utility.yul\":3112:3118   */\n      dup3\n        /* \"#utility.yul\":3107:3110   */\n      dup3\n        /* \"#utility.yul\":3100:3119   */\n      mstore\n        /* \"#utility.yul\":3152:3156   */\n      0x20\n        /* \"#utility.yul\":3147:3150   */\n      dup3\n        /* \"#utility.yul\":3143:3157   */\n      add\n        /* \"#utility.yul\":3128:3157   */\n      swap1\n      pop\n        /* \"#utility.yul\":2994:3163   */\n      swap3\n      swap2\n      pop\n      pop\n      jump\t// out\n        /* \"#utility.yul\":3169:3411   */\n    tag_62:\n        /* \"#utility.yul\":3208:3211   */\n      0x00\n        /* \"#utility.yul\":3227:3246   */\n      tag_117\n        /* \"#utility.yul\":3244:3245   */\n      dup3\n        /* \"#utility.yul\":3227:3246   */\n      tag_93\n      jump\t// in\n    tag_117:\n        /* \"#utility.yul\":3222:3246   */\n      swap2\n      pop\n        /* \"#utility.yul\":3260:3279   */\n      tag_118\n        /* \"#utility.yul\":3277:3278   */\n      dup4\n        /* \"#utility.yul\":3260:3279   */\n      tag_93\n      jump\t// in\n    tag_118:\n        /* \"#utility.yul\":3255:3279   */\n      swap3\n      pop\n        /* \"#utility.yul\":3353:3354   */\n      dup3\n        /* \"#utility.yul\":3345:3351   */\n      0xffff\n        /* \"#utility.yul\":3341:3355   */\n      sub\n        /* \"#utility.yul\":3338:3339   */\n      dup3\n        /* \"#utility.yul\":3335:3356   */\n      gt\n        /* \"#utility.yul\":3332:3379   */\n      iszero\n      tag_119\n      jumpi\n        /* \"#utility.yul\":3359:3377   */\n      tag_120\n      tag_121\n      jump\t// in\n    tag_120:\n        /* \"#utility.yul\":3332:3379   */\n    tag_119:\n        /* \"#utility.yul\":3403:3404   */\n      dup3\n        /* \"#utility.yul\":3400:3401   */\n      dup3\n        /* \"#utility.yul\":3396:3405   */\n      add\n        /* \"#utility.yul\":3389:3405   */\n      swap1\n      pop\n        /* \"#utility.yul\":3169:3411   */\n      swap3\n      swap2\n      pop\n      pop\n      jump\t// out\n        /* \"#utility.yul\":3417:3722   */\n    tag_67:\n        /* \"#utility.yul\":3457:3460   */\n      0x00\n        /* \"#utility.yul\":3476:3496   */\n      tag_123\n        /* \"#utility.yul\":3494:3495   */\n      dup3\n        /* \"#utility.yul\":3476:3496   */\n      tag_97\n      jump\t// in\n    tag_123:\n        /* \"#utility.yul\":3471:3496   */\n      swap2\n      pop\n        /* \"#utility.yul\":3510:3530   */\n      tag_124\n        /* \"#utility.yul\":3528:3529   */\n      dup4\n        /* \"#utility.yul\":3510:3530   */\n      tag_97\n      jump\t// in\n    tag_124:\n        /* \"#utility.yul\":3505:3530   */\n      swap3\n      pop\n        /* \"#utility.yul\":3664:3665   */\n      dup3\n        /* \"#utility.yul\":3596:3662   */\n      0xffffffffffffffffffffffffffffffffffffffffffffffffffffffffffffffff\n        /* \"#utility.yul\":3592:3666   */\n      sub\n        /* \"#utility.yul\":3589:3590   */\n      dup3\n        /* \"#utility.yul\":3586:3667   */\n      gt\n        /* \"#utility.yul\":3583:3690   */\n      iszero\n      tag_125\n      jumpi\n        /* \"#utility.yul\":3670:3688   */\n      tag_126\n      tag_121\n      jump\t// in\n    tag_126:\n        /* \"#utility.yul\":3583:3690   */\n    tag_125:\n        /* \"#utility.yul\":3714:3715   */\n      dup3\n        /* \"#utility.yul\":3711:3712   */\n      dup3\n        /* \"#utility.yul\":3707:3716   */\n      add\n        /* \"#utility.yul\":3700:3716   */\n      swap1\n      pop\n        /* \"#utility.yul\":3417:3722   */\n      swap3\n      swap2\n      pop\n      pop\n      jump\t// out\n        /* \"#utility.yul\":3728:3965   */\n    tag_43:\n        /* \"#utility.yul\":3766:3769   */\n      0x00\n        /* \"#utility.yul\":3785:3803   */\n      tag_128\n        /* \"#utility.yul\":3801:3802   */\n      dup3\n        /* \"#utility.yul\":3785:3803   */\n      tag_101\n      jump\t// in\n    tag_128:\n        /* \"#utility.yul\":3780:3803   */\n      swap2\n      pop\n        /* \"#utility.yul\":3817:3835   */\n      tag_129\n        /* \"#utility.yul\":3833:3834   */\n      dup4\n        /* \"#utility.yul\":3817:3835   */\n      tag_101\n      jump\t// in\n    tag_129:\n        /* \"#utility.yul\":3812:3835   */\n      swap3\n      pop\n        /* \"#utility.yul\":3907:3908   */\n      dup3\n        /* \"#utility.yul\":3901:3905   */\n      0xff\n        /* \"#utility.yul\":3897:3909   */\n      sub\n        /* \"#utility.yul\":3894:3895   */\n      dup3\n        /* \"#utility.yul\":3891:3910   */\n      gt\n        /* \"#utility.yul\":3888:3933   */\n      iszero\n      tag_130\n      jumpi\n        /* \"#utility.yul\":3913:3931   */\n      tag_131\n      tag_121\n      jump\t// in\n    tag_131:\n        /* \"#utility.yul\":3888:3933   */\n    tag_130:\n        /* \"#utility.yul\":3957:3958   */\n      dup3\n        /* \"#utility.yul\":3954:3955   */\n      dup3\n        /* \"#utility.yul\":3950:3959   */\n      add\n        /* \"#utility.yul\":3943:3959   */\n      swap1\n      pop\n        /* \"#utility.yul\":3728:3965   */\n      swap3\n      swap2\n      pop\n      pop\n      jump\t// out\n        /* \"#utility.yul\":3971:4159   */\n    tag_53:\n        /* \"#utility.yul\":4010:4014   */\n      0x00\n        /* \"#utility.yul\":4030:4049   */\n      tag_133\n        /* \"#utility.yul\":4047:4048   */\n      dup3\n        /* \"#utility.yul\":4030:4049   */\n      tag_93\n      jump\t// in\n    tag_133:\n        /* \"#utility.yul\":4025:4049   */\n      swap2\n      pop\n        /* \"#utility.yul\":4063:4082   */\n      tag_134\n        /* \"#utility.yul\":4080:4081   */\n      dup4\n        /* \"#utility.yul\":4063:4082   */\n      tag_93\n      jump\t// in\n    tag_134:\n        /* \"#utility.yul\":4058:4082   */\n      swap3\n      pop\n        /* \"#utility.yul\":4101:4102   */\n      dup3\n        /* \"#utility.yul\":4098:4099   */\n      dup3\n        /* \"#utility.yul\":4095:4103   */\n      lt\n        /* \"#utility.yul\":4092:4126   */\n      iszero\n      tag_135\n      jumpi\n        /* \"#utility.yul\":4106:4124   */\n      tag_136\n      tag_121\n      jump\t// in\n    tag_136:\n        /* \"#utility.yul\":4092:4126   */\n    tag_135:\n        /* \"#utility.yul\":4151:4152   */\n      dup3\n        /* \"#utility.yul\":4148:4149   */\n      dup3\n        /* \"#utility.yul\":4144:4153   */\n      sub\n        /* \"#utility.yul\":4136:4153   */\n      swap1\n      pop\n        /* \"#utility.yul\":3971:4159   */\n      swap3\n      swap2\n      pop\n      pop\n      jump\t// out\n        /* \"#utility.yul\":4165:4261   */\n    tag_83:\n        /* \"#utility.yul\":4202:4209   */\n      0x00\n        /* \"#utility.yul\":4231:4255   */\n      tag_138\n        /* \"#utility.yul\":4249:4254   */\n      dup3\n        /* \"#utility.yul\":4231:4255   */\n      tag_139\n      jump\t// in\n    tag_138:\n        /* \"#utility.yul\":4220:4255   */\n      swap1\n      pop\n        /* \"#utility.yul\":4165:4261   */\n      swap2\n      swap1\n      pop\n      jump\t// out\n        /* \"#utility.yul\":4267:4356   */\n    tag_93:\n        /* \"#utility.yul\":4303:4310   */\n      0x00\n        /* \"#utility.yul\":4343:4349   */\n      0xffff\n        /* \"#utility.yul\":4336:4341   */\n      dup3\n        /* \"#utility.yul\":4332:4350   */\n      and\n        /* \"#utility.yul\":4321:4350   */\n      swap1\n      pop\n        /* \"#utility.yul\":4267:4356   */\n      swap2\n      swap1\n      pop\n      jump\t// out\n        /* \"#utility.yul\":4362:4488   */\n    tag_139:\n        /* \"#utility.yul\":4399:4406   */\n      0x00\n        /* \"#utility.yul\":4439:4481   */\n      0xffffffffffffffffffffffffffffffffffffffff\n        /* \"#utility.yul\":4432:4437   */\n      dup3\n        /* \"#utility.yul\":4428:4482   */\n      and\n        /* \"#utility.yul\":4417:4482   */\n      swap1\n      pop\n        /* \"#utility.yul\":4362:4488   */\n      swap2\n      swap1\n      pop\n      jump\t// out\n        /* \"#utility.yul\":4494:4571   */\n    tag_97:\n        /* \"#utility.yul\":4531:4538   */\n      0x00\n        /* \"#utility.yul\":4560:4565   */\n      dup2\n        /* \"#utility.yul\":4549:4565   */\n      swap1\n      pop\n        /* \"#utility.yul\":4494:4571   */\n      swap2\n      swap1\n      pop\n      jump\t// out\n        /* \"#utility.yul\":4577:4663   */\n    tag_101:\n        /* \"#utility.yul\":4612:4619   */\n      0x00\n        /* \"#utility.yul\":4652:4656   */\n      0xff\n        /* \"#utility.yul\":4645:4650   */\n      dup3\n        /* \"#utility.yul\":4641:4657   */\n      and\n        /* \"#utility.yul\":4630:4657   */\n      swap1\n      pop\n        /* \"#utility.yul\":4577:4663   */\n      swap2\n      swap1\n      pop\n      jump\t// out\n        /* \"#utility.yul\":4669:4849   */\n    tag_121:\n        /* \"#utility.yul\":4717:4794   */\n      0x4e487b7100000000000000000000000000000000000000000000000000000000\n        /* \"#utility.yul\":4714:4715   */\n      0x00\n        /* \"#utility.yul\":4707:4795   */\n      mstore\n        /* \"#utility.yul\":4814:4818   */\n      0x11\n        /* \"#utility.yul\":4811:4812   */\n      0x04\n        /* \"#utility.yul\":4804:4819   */\n      mstore\n        /* \"#utility.yul\":4838:4842   */\n      0x24\n        /* \"#utility.yul\":4835:4836   */\n      0x00\n        /* \"#utility.yul\":4828:4843   */\n      revert\n        /* \"#utility.yul\":4978:5095   */\n    tag_77:\n        /* \"#utility.yul\":5087:5088   */\n      0x00\n        /* \"#utility.yul\":5084:5085   */\n      dup1\n        /* \"#utility.yul\":5077:5089   */\n      revert\n        /* \"#utility.yul\":5101:5259   */\n    tag_89:\n        /* \"#utility.yul\":5241:5251   */\n      0x496e76616c69646f000000000000000000000000000000000000000000000000\n        /* \"#utility.yul\":5237:5238   */\n      0x00\n        /* \"#utility.yul\":5229:5235   */\n      dup3\n        /* \"#utility.yul\":5225:5239   */\n      add\n        /* \"#utility.yul\":5218:5252   */\n      mstore\n        /* \"#utility.yul\":5101:5259   */\n      pop\n      jump\t// out\n        /* \"#utility.yul\":5265:5383   */\n    tag_73:\n        /* \"#utility.yul\":5336:5358   */\n      tag_150\n        /* \"#utility.yul\":5352:5357   */\n      dup2\n        /* \"#utility.yul\":5336:5358   */\n      tag_101\n      jump\t// in\n    tag_150:\n        /* \"#utility.yul\":5329:5334   */\n      dup2\n        /* \"#utility.yul\":5326:5359   */\n      eq\n        /* \"#utility.yul\":5316:5377   */\n      tag_151\n      jumpi\n        /* \"#utility.yul\":5373:5374   */\n      0x00\n        /* \"#utility.yul\":5370:5371   */\n      dup1\n        /* \"#utility.yul\":5363:5375   */\n      revert\n        /* \"#utility.yul\":5316:5377   */\n    tag_151:\n        /* \"#utility.yul\":5265:5383   */\n      pop\n      jump\t// out\n\n    auxdata: 0xa26469706673582212209b6b58c368e8e29d5f2f5b3a6856d8cbe1c67b0a4af7b36da9d4b8bdbf033aeb64736f6c63430008070033\n}\n",
				"bytecode": {
					"linkReferences": {},
					"object": "6080604052336000806101000a81548173ffffffffffffffffffffffffffffffffffffffff021916908373ffffffffffffffffffffffffffffffffffffffff16021790555060026001556003600255600860045534801561005f57600080fd5b506106e28061006f6000396000f3fe608060405234801561001057600080fd5b50600436106100935760003560e01c80637e7d8ec6116100665780637e7d8ec6146100e657806386af6ba7146101045780638846636c1461010e57806391607a9914610118578063a898fd701461013657610093565b8063191dbb34146100985780631e3d73a1146100a25780633bc5de30146100be5780635cc31747146100dc575b600080fd5b6100a0610154565b005b6100bc60048036038101906100b7919061039e565b610156565b005b6100c6610178565b6040516100d391906104bc565b60405180910390f35b6100e461018b565b005b6100ee610265565b6040516100fb91906104a1565b60405180910390f35b61010c61026e565b005b610116610348565b005b61012061034a565b60405161012d91906104a1565b60405180910390f35b61013e610360565b60405161014b919061043d565b60405180910390f35b565b6001826101639190610576565b91506001816101729190610576565b90505050565b600080816101869190610576565b905090565b60058060009054906101000a900461ffff1661ffff16106101e1576040517f08c379a00000000000000000000000000000000000000000000000000000000081526004016101d890610481565b60405180910390fd5b600a600560009054906101000a900461ffff166101fe91906105ad565b600560006101000a81548161ffff021916908361ffff1602179055507fc87fc62b262b7387b8a3ed60e6d48ba88b07d6693bab9a9dd94f3292d42b7c5d33600560009054906101000a900461ffff1660405161025b929190610458565b60405180910390a1565b60006004905090565b60058060009054906101000a900461ffff1661ffff16106102c4576040517f08c379a00000000000000000000000000000000000000000000000000000000081526004016102bb90610481565b60405180910390fd5b600a600560009054906101000a900461ffff166102e191906104e8565b600560006101000a81548161ffff021916908361ffff1602179055507fc87fc62b262b7387b8a3ed60e6d48ba88b07d6693bab9a9dd94f3292d42b7c5d33600560009054906101000a900461ffff1660405161033e929190610458565b60405180910390a1565b565b6000600260045461035b9190610520565b905090565b60008060009054906101000a900473ffffffffffffffffffffffffffffffffffffffff16905090565b60008135905061039881610695565b92915050565b600080604083850312156103b5576103b4610667565b5b60006103c385828601610389565b92505060206103d485828601610389565b9150509250929050565b6103e7816105e1565b82525050565b60006103fa6008836104d7565b91506104058261066c565b602082019050919050565b610419816105f3565b82525050565b61042881610621565b82525050565b6104378161062b565b82525050565b600060208201905061045260008301846103de565b92915050565b600060408201905061046d60008301856103de565b61047a6020830184610410565b9392505050565b6000602082019050818103600083015261049a816103ed565b9050919050565b60006020820190506104b6600083018461041f565b92915050565b60006020820190506104d1600083018461042e565b92915050565b600082825260208201905092915050565b60006104f3826105f3565b91506104fe836105f3565b92508261ffff0382111561051557610514610638565b5b828201905092915050565b600061052b82610621565b915061053683610621565b9250827fffffffffffffffffffffffffffffffffffffffffffffffffffffffffffffffff0382111561056b5761056a610638565b5b828201905092915050565b60006105818261062b565b915061058c8361062b565b92508260ff038211156105a2576105a1610638565b5b828201905092915050565b60006105b8826105f3565b91506105c3836105f3565b9250828210156105d6576105d5610638565b5b828203905092915050565b60006105ec82610601565b9050919050565b600061ffff82169050919050565b600073ffffffffffffffffffffffffffffffffffffffff82169050919050565b6000819050919050565b600060ff82169050919050565b7f4e487b7100000000000000000000000000000000000000000000000000000000600052601160045260246000fd5b600080fd5b7f496e76616c69646f000000000000000000000000000000000000000000000000600082015250565b61069e8161062b565b81146106a957600080fd5b5056fea26469706673582212209b6b58c368e8e29d5f2f5b3a6856d8cbe1c67b0a4af7b36da9d4b8bdbf033aeb64736f6c63430008070033",
					"opcodes": "PUSH1 0x80 PUSH1 0x40 MSTORE CALLER PUSH1 0x0 DUP1 PUSH2 0x100 EXP DUP2 SLOAD DUP2 PUSH20 0xFFFFFFFFFFFFFFFFFFFFFFFFFFFFFFFFFFFFFFFF MUL NOT AND SWAP1 DUP4 PUSH20 0xFFFFFFFFFFFFFFFFFFFFFFFFFFFFFFFFFFFFFFFF AND MUL OR SWAP1 SSTORE POP PUSH1 0x2 PUSH1 0x1 SSTORE PUSH1 0x3 PUSH1 0x2 SSTORE PUSH1 0x8 PUSH1 0x4 SSTORE CALLVALUE DUP1 ISZERO PUSH2 0x5F JUMPI PUSH1 0x0 DUP1 REVERT JUMPDEST POP PUSH2 0x6E2 DUP1 PUSH2 0x6F PUSH1 0x0 CODECOPY PUSH1 0x0 RETURN INVALID PUSH1 0x80 PUSH1 0x40 MSTORE CALLVALUE DUP1 ISZERO PUSH2 0x10 JUMPI PUSH1 0x0 DUP1 REVERT JUMPDEST POP PUSH1 0x4 CALLDATASIZE LT PUSH2 0x93 JUMPI PUSH1 0x0 CALLDATALOAD PUSH1 0xE0 SHR DUP1 PUSH4 0x7E7D8EC6 GT PUSH2 0x66 JUMPI DUP1 PUSH4 0x7E7D8EC6 EQ PUSH2 0xE6 JUMPI DUP1 PUSH4 0x86AF6BA7 EQ PUSH2 0x104 JUMPI DUP1 PUSH4 0x8846636C EQ PUSH2 0x10E JUMPI DUP1 PUSH4 0x91607A99 EQ PUSH2 0x118 JUMPI DUP1 PUSH4 0xA898FD70 EQ PUSH2 0x136 JUMPI PUSH2 0x93 JUMP JUMPDEST DUP1 PUSH4 0x191DBB34 EQ PUSH2 0x98 JUMPI DUP1 PUSH4 0x1E3D73A1 EQ PUSH2 0xA2 JUMPI DUP1 PUSH4 0x3BC5DE30 EQ PUSH2 0xBE JUMPI DUP1 PUSH4 0x5CC31747 EQ PUSH2 0xDC JUMPI JUMPDEST PUSH1 0x0 DUP1 REVERT JUMPDEST PUSH2 0xA0 PUSH2 0x154 JUMP JUMPDEST STOP JUMPDEST PUSH2 0xBC PUSH1 0x4 DUP1 CALLDATASIZE SUB DUP2 ADD SWAP1 PUSH2 0xB7 SWAP2 SWAP1 PUSH2 0x39E JUMP JUMPDEST PUSH2 0x156 JUMP JUMPDEST STOP JUMPDEST PUSH2 0xC6 PUSH2 0x178 JUMP JUMPDEST PUSH1 0x40 MLOAD PUSH2 0xD3 SWAP2 SWAP1 PUSH2 0x4BC JUMP JUMPDEST PUSH1 0x40 MLOAD DUP1 SWAP2 SUB SWAP1 RETURN JUMPDEST PUSH2 0xE4 PUSH2 0x18B JUMP JUMPDEST STOP JUMPDEST PUSH2 0xEE PUSH2 0x265 JUMP JUMPDEST PUSH1 0x40 MLOAD PUSH2 0xFB SWAP2 SWAP1 PUSH2 0x4A1 JUMP JUMPDEST PUSH1 0x40 MLOAD DUP1 SWAP2 SUB SWAP1 RETURN JUMPDEST PUSH2 0x10C PUSH2 0x26E JUMP JUMPDEST STOP JUMPDEST PUSH2 0x116 PUSH2 0x348 JUMP JUMPDEST STOP JUMPDEST PUSH2 0x120 PUSH2 0x34A JUMP JUMPDEST PUSH1 0x40 MLOAD PUSH2 0x12D SWAP2 SWAP1 PUSH2 0x4A1 JUMP JUMPDEST PUSH1 0x40 MLOAD DUP1 SWAP2 SUB SWAP1 RETURN JUMPDEST PUSH2 0x13E PUSH2 0x360 JUMP JUMPDEST PUSH1 0x40 MLOAD PUSH2 0x14B SWAP2 SWAP1 PUSH2 0x43D JUMP JUMPDEST PUSH1 0x40 MLOAD DUP1 SWAP2 SUB SWAP1 RETURN JUMPDEST JUMP JUMPDEST PUSH1 0x1 DUP3 PUSH2 0x163 SWAP2 SWAP1 PUSH2 0x576 JUMP JUMPDEST SWAP2 POP PUSH1 0x1 DUP2 PUSH2 0x172 SWAP2 SWAP1 PUSH2 0x576 JUMP JUMPDEST SWAP1 POP POP POP JUMP JUMPDEST PUSH1 0x0 DUP1 DUP2 PUSH2 0x186 SWAP2 SWAP1 PUSH2 0x576 JUMP JUMPDEST SWAP1 POP SWAP1 JUMP JUMPDEST PUSH1 0x5 DUP1 PUSH1 0x0 SWAP1 SLOAD SWAP1 PUSH2 0x100 EXP SWAP1 DIV PUSH2 0xFFFF AND PUSH2 0xFFFF AND LT PUSH2 0x1E1 JUMPI PUSH1 0x40 MLOAD PUSH32 0x8C379A000000000000000000000000000000000000000000000000000000000 DUP2 MSTORE PUSH1 0x4 ADD PUSH2 0x1D8 SWAP1 PUSH2 0x481 JUMP JUMPDEST PUSH1 0x40 MLOAD DUP1 SWAP2 SUB SWAP1 REVERT JUMPDEST PUSH1 0xA PUSH1 0x5 PUSH1 0x0 SWAP1 SLOAD SWAP1 PUSH2 0x100 EXP SWAP1 DIV PUSH2 0xFFFF AND PUSH2 0x1FE SWAP2 SWAP1 PUSH2 0x5AD JUMP JUMPDEST PUSH1 0x5 PUSH1 0x0 PUSH2 0x100 EXP DUP2 SLOAD DUP2 PUSH2 0xFFFF MUL NOT AND SWAP1 DUP4 PUSH2 0xFFFF AND MUL OR SWAP1 SSTORE POP PUSH32 0xC87FC62B262B7387B8A3ED60E6D48BA88B07D6693BAB9A9DD94F3292D42B7C5D CALLER PUSH1 0x5 PUSH1 0x0 SWAP1 SLOAD SWAP1 PUSH2 0x100 EXP SWAP1 DIV PUSH2 0xFFFF AND PUSH1 0x40 MLOAD PUSH2 0x25B SWAP3 SWAP2 SWAP1 PUSH2 0x458 JUMP JUMPDEST PUSH1 0x40 MLOAD DUP1 SWAP2 SUB SWAP1 LOG1 JUMP JUMPDEST PUSH1 0x0 PUSH1 0x4 SWAP1 POP SWAP1 JUMP JUMPDEST PUSH1 0x5 DUP1 PUSH1 0x0 SWAP1 SLOAD SWAP1 PUSH2 0x100 EXP SWAP1 DIV PUSH2 0xFFFF AND PUSH2 0xFFFF AND LT PUSH2 0x2C4 JUMPI PUSH1 0x40 MLOAD PUSH32 0x8C379A000000000000000000000000000000000000000000000000000000000 DUP2 MSTORE PUSH1 0x4 ADD PUSH2 0x2BB SWAP1 PUSH2 0x481 JUMP JUMPDEST PUSH1 0x40 MLOAD DUP1 SWAP2 SUB SWAP1 REVERT JUMPDEST PUSH1 0xA PUSH1 0x5 PUSH1 0x0 SWAP1 SLOAD SWAP1 PUSH2 0x100 EXP SWAP1 DIV PUSH2 0xFFFF AND PUSH2 0x2E1 SWAP2 SWAP1 PUSH2 0x4E8 JUMP JUMPDEST PUSH1 0x5 PUSH1 0x0 PUSH2 0x100 EXP DUP2 SLOAD DUP2 PUSH2 0xFFFF MUL NOT AND SWAP1 DUP4 PUSH2 0xFFFF AND MUL OR SWAP1 SSTORE POP PUSH32 0xC87FC62B262B7387B8A3ED60E6D48BA88B07D6693BAB9A9DD94F3292D42B7C5D CALLER PUSH1 0x5 PUSH1 0x0 SWAP1 SLOAD SWAP1 PUSH2 0x100 EXP SWAP1 DIV PUSH2 0xFFFF AND PUSH1 0x40 MLOAD PUSH2 0x33E SWAP3 SWAP2 SWAP1 PUSH2 0x458 JUMP JUMPDEST PUSH1 0x40 MLOAD DUP1 SWAP2 SUB SWAP1 LOG1 JUMP JUMPDEST JUMP JUMPDEST PUSH1 0x0 PUSH1 0x2 PUSH1 0x4 SLOAD PUSH2 0x35B SWAP2 SWAP1 PUSH2 0x520 JUMP JUMPDEST SWAP1 POP SWAP1 JUMP JUMPDEST PUSH1 0x0 DUP1 PUSH1 0x0 SWAP1 SLOAD SWAP1 PUSH2 0x100 EXP SWAP1 DIV PUSH20 0xFFFFFFFFFFFFFFFFFFFFFFFFFFFFFFFFFFFFFFFF AND SWAP1 POP SWAP1 JUMP JUMPDEST PUSH1 0x0 DUP2 CALLDATALOAD SWAP1 POP PUSH2 0x398 DUP2 PUSH2 0x695 JUMP JUMPDEST SWAP3 SWAP2 POP POP JUMP JUMPDEST PUSH1 0x0 DUP1 PUSH1 0x40 DUP4 DUP6 SUB SLT ISZERO PUSH2 0x3B5 JUMPI PUSH2 0x3B4 PUSH2 0x667 JUMP JUMPDEST JUMPDEST PUSH1 0x0 PUSH2 0x3C3 DUP6 DUP3 DUP7 ADD PUSH2 0x389 JUMP JUMPDEST SWAP3 POP POP PUSH1 0x20 PUSH2 0x3D4 DUP6 DUP3 DUP7 ADD PUSH2 0x389 JUMP JUMPDEST SWAP2 POP POP SWAP3 POP SWAP3 SWAP1 POP JUMP JUMPDEST PUSH2 0x3E7 DUP2 PUSH2 0x5E1 JUMP JUMPDEST DUP3 MSTORE POP POP JUMP JUMPDEST PUSH1 0x0 PUSH2 0x3FA PUSH1 0x8 DUP4 PUSH2 0x4D7 JUMP JUMPDEST SWAP2 POP PUSH2 0x405 DUP3 PUSH2 0x66C JUMP JUMPDEST PUSH1 0x20 DUP3 ADD SWAP1 POP SWAP2 SWAP1 POP JUMP JUMPDEST PUSH2 0x419 DUP2 PUSH2 0x5F3 JUMP JUMPDEST DUP3 MSTORE POP POP JUMP JUMPDEST PUSH2 0x428 DUP2 PUSH2 0x621 JUMP JUMPDEST DUP3 MSTORE POP POP JUMP JUMPDEST PUSH2 0x437 DUP2 PUSH2 0x62B JUMP JUMPDEST DUP3 MSTORE POP POP JUMP JUMPDEST PUSH1 0x0 PUSH1 0x20 DUP3 ADD SWAP1 POP PUSH2 0x452 PUSH1 0x0 DUP4 ADD DUP5 PUSH2 0x3DE JUMP JUMPDEST SWAP3 SWAP2 POP POP JUMP JUMPDEST PUSH1 0x0 PUSH1 0x40 DUP3 ADD SWAP1 POP PUSH2 0x46D PUSH1 0x0 DUP4 ADD DUP6 PUSH2 0x3DE JUMP JUMPDEST PUSH2 0x47A PUSH1 0x20 DUP4 ADD DUP5 PUSH2 0x410 JUMP JUMPDEST SWAP4 SWAP3 POP POP POP JUMP JUMPDEST PUSH1 0x0 PUSH1 0x20 DUP3 ADD SWAP1 POP DUP2 DUP2 SUB PUSH1 0x0 DUP4 ADD MSTORE PUSH2 0x49A DUP2 PUSH2 0x3ED JUMP JUMPDEST SWAP1 POP SWAP2 SWAP1 POP JUMP JUMPDEST PUSH1 0x0 PUSH1 0x20 DUP3 ADD SWAP1 POP PUSH2 0x4B6 PUSH1 0x0 DUP4 ADD DUP5 PUSH2 0x41F JUMP JUMPDEST SWAP3 SWAP2 POP POP JUMP JUMPDEST PUSH1 0x0 PUSH1 0x20 DUP3 ADD SWAP1 POP PUSH2 0x4D1 PUSH1 0x0 DUP4 ADD DUP5 PUSH2 0x42E JUMP JUMPDEST SWAP3 SWAP2 POP POP JUMP JUMPDEST PUSH1 0x0 DUP3 DUP3 MSTORE PUSH1 0x20 DUP3 ADD SWAP1 POP SWAP3 SWAP2 POP POP JUMP JUMPDEST PUSH1 0x0 PUSH2 0x4F3 DUP3 PUSH2 0x5F3 JUMP JUMPDEST SWAP2 POP PUSH2 0x4FE DUP4 PUSH2 0x5F3 JUMP JUMPDEST SWAP3 POP DUP3 PUSH2 0xFFFF SUB DUP3 GT ISZERO PUSH2 0x515 JUMPI PUSH2 0x514 PUSH2 0x638 JUMP JUMPDEST JUMPDEST DUP3 DUP3 ADD SWAP1 POP SWAP3 SWAP2 POP POP JUMP JUMPDEST PUSH1 0x0 PUSH2 0x52B DUP3 PUSH2 0x621 JUMP JUMPDEST SWAP2 POP PUSH2 0x536 DUP4 PUSH2 0x621 JUMP JUMPDEST SWAP3 POP DUP3 PUSH32 0xFFFFFFFFFFFFFFFFFFFFFFFFFFFFFFFFFFFFFFFFFFFFFFFFFFFFFFFFFFFFFFFF SUB DUP3 GT ISZERO PUSH2 0x56B JUMPI PUSH2 0x56A PUSH2 0x638 JUMP JUMPDEST JUMPDEST DUP3 DUP3 ADD SWAP1 POP SWAP3 SWAP2 POP POP JUMP JUMPDEST PUSH1 0x0 PUSH2 0x581 DUP3 PUSH2 0x62B JUMP JUMPDEST SWAP2 POP PUSH2 0x58C DUP4 PUSH2 0x62B JUMP JUMPDEST SWAP3 POP DUP3 PUSH1 0xFF SUB DUP3 GT ISZERO PUSH2 0x5A2 JUMPI PUSH2 0x5A1 PUSH2 0x638 JUMP JUMPDEST JUMPDEST DUP3 DUP3 ADD SWAP1 POP SWAP3 SWAP2 POP POP JUMP JUMPDEST PUSH1 0x0 PUSH2 0x5B8 DUP3 PUSH2 0x5F3 JUMP JUMPDEST SWAP2 POP PUSH2 0x5C3 DUP4 PUSH2 0x5F3 JUMP JUMPDEST SWAP3 POP DUP3 DUP3 LT ISZERO PUSH2 0x5D6 JUMPI PUSH2 0x5D5 PUSH2 0x638 JUMP JUMPDEST JUMPDEST DUP3 DUP3 SUB SWAP1 POP SWAP3 SWAP2 POP POP JUMP JUMPDEST PUSH1 0x0 PUSH2 0x5EC DUP3 PUSH2 0x601 JUMP JUMPDEST SWAP1 POP SWAP2 SWAP1 POP JUMP JUMPDEST PUSH1 0x0 PUSH2 0xFFFF DUP3 AND SWAP1 POP SWAP2 SWAP1 POP JUMP JUMPDEST PUSH1 0x0 PUSH20 0xFFFFFFFFFFFFFFFFFFFFFFFFFFFFFFFFFFFFFFFF DUP3 AND SWAP1 POP SWAP2 SWAP1 POP JUMP JUMPDEST PUSH1 0x0 DUP2 SWAP1 POP SWAP2 SWAP1 POP JUMP JUMPDEST PUSH1 0x0 PUSH1 0xFF DUP3 AND SWAP1 POP SWAP2 SWAP1 POP JUMP JUMPDEST PUSH32 0x4E487B7100000000000000000000000000000000000000000000000000000000 PUSH1 0x0 MSTORE PUSH1 0x11 PUSH1 0x4 MSTORE PUSH1 0x24 PUSH1 0x0 REVERT JUMPDEST PUSH1 0x0 DUP1 REVERT JUMPDEST PUSH32 0x496E76616C69646F000000000000000000000000000000000000000000000000 PUSH1 0x0 DUP3 ADD MSTORE POP JUMP JUMPDEST PUSH2 0x69E DUP2 PUSH2 0x62B JUMP JUMPDEST DUP2 EQ PUSH2 0x6A9 JUMPI PUSH1 0x0 DUP1 REVERT JUMPDEST POP JUMP INVALID LOG2 PUSH5 0x6970667358 0x22 SLT KECCAK256 SWAP12 PUSH12 0x58C368E8E29D5F2F5B3A6856 0xD8 0xCB 0xE1 0xC6 PUSH28 0xA4AF7B36DA9D4B8BDBF033AEB64736F6C6343000807003300000000 "
				},
				"gasEstimates": {
					"creation": {
						"codeDepositCost": "352400",
						"executionCost": "90977",
						"totalCost": "443377"
					},
					"external": {
						"decrementarPrecio()": "infinite",
						"getData()": "infinite",
						"getData2()": "2610",
						"incrementar()": "infinite",
						"incrementarPrecio()": "infinite",
						"operacion1()": "188",
						"operacion2()": "145",
						"setData(uint8,uint8)": "infinite",
						"suma()": "337"
					},
					"internal": {
						"operacion3()": "infinite",
						"operacion4()": "infinite"
					}
				},
				"methodIdentifiers": {
					"decrementarPrecio()": "5cc31747",
					"getData()": "3bc5de30",
					"getData2()": "a898fd70",
					"incrementar()": "91607a99",
					"incrementarPrecio()": "86af6ba7",
					"operacion1()": "8846636c",
					"operacion2()": "191dbb34",
					"setData(uint8,uint8)": "1e3d73a1",
					"suma()": "7e7d8ec6"
				}
			},
			"storageLayout": {
				"storage": [
					{
						"astId": 35,
						"contract": "contracts/Funciones.sol:Funciones",
						"label": "sender",
						"offset": 0,
						"slot": "0",
						"type": "t_address"
					},
					{
						"astId": 46,
						"contract": "contracts/Funciones.sol:Funciones",
						"label": "numero1",
						"offset": 0,
						"slot": "1",
						"type": "t_int256"
					},
					{
						"astId": 49,
						"contract": "contracts/Funciones.sol:Funciones",
						"label": "numero2",
						"offset": 0,
						"slot": "2",
						"type": "t_int256"
					},
					{
						"astId": 51,
						"contract": "contracts/Funciones.sol:Funciones",
						"label": "resultado",
						"offset": 0,
						"slot": "3",
						"type": "t_int256"
					},
					{
						"astId": 97,
						"contract": "contracts/Funciones.sol:Funciones",
						"label": "x",
						"offset": 0,
						"slot": "4",
						"type": "t_uint256"
					},
					{
						"astId": 120,
						"contract": "contracts/Funciones.sol:Funciones",
						"label": "precio",
						"offset": 0,
						"slot": "5",
						"type": "t_uint16"
					}
				],
				"types": {
					"t_address": {
						"encoding": "inplace",
						"label": "address",
						"numberOfBytes": "20"
					},
					"t_int256": {
						"encoding": "inplace",
						"label": "int256",
						"numberOfBytes": "32"
					},
					"t_uint16": {
						"encoding": "inplace",
						"label": "uint16",
						"numberOfBytes": "2"
					},
					"t_uint256": {
						"encoding": "inplace",
						"label": "uint256",
						"numberOfBytes": "32"
					}
				}
			},
			"userdoc": {
				"kind": "user",
				"methods": {},
				"version": 1
			}
		}
	}
}