{
	"contracts/Ejercicio1CuentaAhorro.sol": {
		"Ejercicio1CuentaAhorro": {
			"abi": [
				{
					"inputs": [],
					"name": "c1",
					"outputs": [
						{
							"internalType": "int256",
							"name": "saldo",
							"type": "int256"
						},
						{
							"internalType": "string",
							"name": "addressCuenta",
							"type": "string"
						},
						{
							"internalType": "string",
							"name": "nombre",
							"type": "string"
						},
						{
							"internalType": "int256",
							"name": "edad",
							"type": "int256"
						},
						{
							"internalType": "string",
							"name": "colorFavorito",
							"type": "string"
						}
					],
					"stateMutability": "view",
					"type": "function"
				},
				{
					"inputs": [
						{
							"internalType": "int256",
							"name": "saldoParaIngresar",
							"type": "int256"
						}
					],
					"name": "ingresarSaldo",
					"outputs": [],
					"stateMutability": "nonpayable",
					"type": "function"
				},
				{
					"inputs": [
						{
							"internalType": "int256",
							"name": "saldoParaRetirar",
							"type": "int256"
						}
					],
					"name": "retirarSaldo",
					"outputs": [],
					"stateMutability": "nonpayable",
					"type": "function"
				}
			],
			"devdoc": {
				"kind": "dev",
				"methods": {},
				"version": 1
			},
			"evm": {
				"assembly": "    /* \"contracts/Ejercicio1CuentaAhorro.sol\":937:1470  contract Ejercicio1CuentaAhorro {\r... */\n  mstore(0x40, 0x80)\n    /* \"contracts/Ejercicio1CuentaAhorro.sol\":1165:1247  CuentaAhorro(0,\"Ivy\", \"0x5B38Da6a701c568545dCfcB03FcB875f56beddC4\", 25 ,\"Purpura\") */\n  mload(0x40)\n  dup1\n  0xa0\n  add\n  0x40\n  mstore\n  dup1\n    /* \"contracts/Ejercicio1CuentaAhorro.sol\":1178:1179  0 */\n  0x00\n    /* \"contracts/Ejercicio1CuentaAhorro.sol\":1165:1247  CuentaAhorro(0,\"Ivy\", \"0x5B38Da6a701c568545dCfcB03FcB875f56beddC4\", 25 ,\"Purpura\") */\n  dup2\n  mstore\n  0x20\n  add\n  mload(0x40)\n  dup1\n  0x40\n  add\n  0x40\n  mstore\n  dup1\n  0x03\n  dup2\n  mstore\n  0x20\n  add\n  0x4976790000000000000000000000000000000000000000000000000000000000\n  dup2\n  mstore\n  pop\n  dup2\n  mstore\n  0x20\n  add\n  mload(0x40)\n  dup1\n  0x60\n  add\n  0x40\n  mstore\n  dup1\n  0x2a\n  dup2\n  mstore\n  0x20\n  add\n  data_73b49fe9b2415f7043a9fabd65f4f4ea3962b31d51617906e5ba75ced62a3fb9\n  0x2a\n  swap2\n  codecopy\n  dup2\n  mstore\n  0x20\n  add\n    /* \"contracts/Ejercicio1CuentaAhorro.sol\":1233:1235  25 */\n  0x19\n    /* \"contracts/Ejercicio1CuentaAhorro.sol\":1165:1247  CuentaAhorro(0,\"Ivy\", \"0x5B38Da6a701c568545dCfcB03FcB875f56beddC4\", 25 ,\"Purpura\") */\n  dup2\n  mstore\n  0x20\n  add\n  mload(0x40)\n  dup1\n  0x40\n  add\n  0x40\n  mstore\n  dup1\n  0x07\n  dup2\n  mstore\n  0x20\n  add\n  0x5075727075726100000000000000000000000000000000000000000000000000\n  dup2\n  mstore\n  pop\n  dup2\n  mstore\n  pop\n    /* \"contracts/Ejercicio1CuentaAhorro.sol\":1140:1247  CuentaAhorro public c1 = CuentaAhorro(0,\"Ivy\", \"0x5B38Da6a701c568545dCfcB03FcB875f56beddC4\", 25 ,\"Purpura\") */\n  0x00\n  dup1\n  dup3\n  add\n  mload\n  dup2\n  0x00\n  add\n  sstore\n  0x20\n  dup3\n  add\n  mload\n  dup2\n  0x01\n  add\n  swap1\n  dup1\n  mload\n  swap1\n  0x20\n  add\n  swap1\n  tag_1\n  swap3\n  swap2\n  swap1\n  tag_2\n  jump\t// in\ntag_1:\n  pop\n  0x40\n  dup3\n  add\n  mload\n  dup2\n  0x02\n  add\n  swap1\n  dup1\n  mload\n  swap1\n  0x20\n  add\n  swap1\n  tag_3\n  swap3\n  swap2\n  swap1\n  tag_2\n  jump\t// in\ntag_3:\n  pop\n  0x60\n  dup3\n  add\n  mload\n  dup2\n  0x03\n  add\n  sstore\n  0x80\n  dup3\n  add\n  mload\n  dup2\n  0x04\n  add\n  swap1\n  dup1\n  mload\n  swap1\n  0x20\n  add\n  swap1\n  tag_4\n  swap3\n  swap2\n  swap1\n  tag_2\n  jump\t// in\ntag_4:\n  pop\n  pop\n  pop\n    /* \"contracts/Ejercicio1CuentaAhorro.sol\":937:1470  contract Ejercicio1CuentaAhorro {\r... */\n  callvalue\n  dup1\n  iszero\n  tag_5\n  jumpi\n  0x00\n  dup1\n  revert\ntag_5:\n  pop\n  jump(tag_6)\ntag_2:\n  dup3\n  dup1\n  sload\n  tag_7\n  swap1\n  tag_8\n  jump\t// in\ntag_7:\n  swap1\n  0x00\n  mstore\n  keccak256(0x00, 0x20)\n  swap1\n  0x1f\n  add\n  0x20\n  swap1\n  div\n  dup2\n  add\n  swap3\n  dup3\n  tag_10\n  jumpi\n  0x00\n  dup6\n  sstore\n  jump(tag_9)\ntag_10:\n  dup3\n  0x1f\n  lt\n  tag_11\n  jumpi\n  dup1\n  mload\n  not(0xff)\n  and\n  dup4\n  dup1\n  add\n  or\n  dup6\n  sstore\n  jump(tag_9)\ntag_11:\n  dup3\n  dup1\n  add\n  0x01\n  add\n  dup6\n  sstore\n  dup3\n  iszero\n  tag_9\n  jumpi\n  swap2\n  dup3\n  add\ntag_12:\n  dup3\n  dup2\n  gt\n  iszero\n  tag_13\n  jumpi\n  dup3\n  mload\n  dup3\n  sstore\n  swap2\n  0x20\n  add\n  swap2\n  swap1\n  0x01\n  add\n  swap1\n  jump(tag_12)\ntag_13:\ntag_9:\n  pop\n  swap1\n  pop\n  tag_14\n  swap2\n  swap1\n  tag_15\n  jump\t// in\ntag_14:\n  pop\n  swap1\n  jump\t// out\ntag_15:\ntag_16:\n  dup1\n  dup3\n  gt\n  iszero\n  tag_17\n  jumpi\n  0x00\n  dup2\n  0x00\n  swap1\n  sstore\n  pop\n  0x01\n  add\n  jump(tag_16)\ntag_17:\n  pop\n  swap1\n  jump\t// out\n    /* \"#utility.yul\":7:327   */\ntag_8:\n    /* \"#utility.yul\":51:57   */\n  0x00\n    /* \"#utility.yul\":88:89   */\n  0x02\n    /* \"#utility.yul\":82:86   */\n  dup3\n    /* \"#utility.yul\":78:90   */\n  div\n    /* \"#utility.yul\":68:90   */\n  swap1\n  pop\n    /* \"#utility.yul\":135:136   */\n  0x01\n    /* \"#utility.yul\":129:133   */\n  dup3\n    /* \"#utility.yul\":125:137   */\n  and\n    /* \"#utility.yul\":156:174   */\n  dup1\n    /* \"#utility.yul\":146:227   */\n  tag_20\n  jumpi\n    /* \"#utility.yul\":212:216   */\n  0x7f\n    /* \"#utility.yul\":204:210   */\n  dup3\n    /* \"#utility.yul\":200:217   */\n  and\n    /* \"#utility.yul\":190:217   */\n  swap2\n  pop\n    /* \"#utility.yul\":146:227   */\ntag_20:\n    /* \"#utility.yul\":274:276   */\n  0x20\n    /* \"#utility.yul\":266:272   */\n  dup3\n    /* \"#utility.yul\":263:277   */\n  lt\n    /* \"#utility.yul\":243:261   */\n  dup2\n    /* \"#utility.yul\":240:278   */\n  eq\n    /* \"#utility.yul\":237:321   */\n  iszero\n  tag_21\n  jumpi\n    /* \"#utility.yul\":293:311   */\n  tag_22\n  tag_23\n  jump\t// in\ntag_22:\n    /* \"#utility.yul\":237:321   */\ntag_21:\n    /* \"#utility.yul\":58:327   */\n  pop\n    /* \"#utility.yul\":7:327   */\n  swap2\n  swap1\n  pop\n  jump\t// out\n    /* \"#utility.yul\":333:513   */\ntag_23:\n    /* \"#utility.yul\":381:458   */\n  0x4e487b7100000000000000000000000000000000000000000000000000000000\n    /* \"#utility.yul\":378:379   */\n  0x00\n    /* \"#utility.yul\":371:459   */\n  mstore\n    /* \"#utility.yul\":478:482   */\n  0x22\n    /* \"#utility.yul\":475:476   */\n  0x04\n    /* \"#utility.yul\":468:483   */\n  mstore\n    /* \"#utility.yul\":502:506   */\n  0x24\n    /* \"#utility.yul\":499:500   */\n  0x00\n    /* \"#utility.yul\":492:507   */\n  revert\n    /* \"contracts/Ejercicio1CuentaAhorro.sol\":937:1470  contract Ejercicio1CuentaAhorro {\r... */\ntag_6:\n  dataSize(sub_0)\n  dup1\n  dataOffset(sub_0)\n  0x00\n  codecopy\n  0x00\n  return\nstop\ndata_73b49fe9b2415f7043a9fabd65f4f4ea3962b31d51617906e5ba75ced62a3fb9 307835423338446136613730316335363835343564436663423033466342383735663536626564644334\n\nsub_0: assembly {\n        /* \"contracts/Ejercicio1CuentaAhorro.sol\":937:1470  contract Ejercicio1CuentaAhorro {\r... */\n      mstore(0x40, 0x80)\n      callvalue\n      dup1\n      iszero\n      tag_1\n      jumpi\n      0x00\n      dup1\n      revert\n    tag_1:\n      pop\n      jumpi(tag_2, lt(calldatasize, 0x04))\n      shr(0xe0, calldataload(0x00))\n      dup1\n      0x5f57697c\n      eq\n      tag_3\n      jumpi\n      dup1\n      0x93ba1e60\n      eq\n      tag_4\n      jumpi\n      dup1\n      0xc28a41ec\n      eq\n      tag_5\n      jumpi\n    tag_2:\n      0x00\n      dup1\n      revert\n        /* \"contracts/Ejercicio1CuentaAhorro.sol\":1140:1247  CuentaAhorro public c1 = CuentaAhorro(0,\"Ivy\", \"0x5B38Da6a701c568545dCfcB03FcB875f56beddC4\", 25 ,\"Purpura\") */\n    tag_3:\n      tag_6\n      tag_7\n      jump\t// in\n    tag_6:\n      mload(0x40)\n      tag_8\n      swap6\n      swap5\n      swap4\n      swap3\n      swap2\n      swap1\n      tag_9\n      jump\t// in\n    tag_8:\n      mload(0x40)\n      dup1\n      swap2\n      sub\n      swap1\n      return\n        /* \"contracts/Ejercicio1CuentaAhorro.sol\":1258:1360  function ingresarSaldo (int saldoParaIngresar) public {\r... */\n    tag_4:\n      tag_10\n      0x04\n      dup1\n      calldatasize\n      sub\n      dup2\n      add\n      swap1\n      tag_11\n      swap2\n      swap1\n      tag_12\n      jump\t// in\n    tag_11:\n      tag_13\n      jump\t// in\n    tag_10:\n      stop\n        /* \"contracts/Ejercicio1CuentaAhorro.sol\":1368:1467  function retirarSaldo (int saldoParaRetirar) public {\r... */\n    tag_5:\n      tag_14\n      0x04\n      dup1\n      calldatasize\n      sub\n      dup2\n      add\n      swap1\n      tag_15\n      swap2\n      swap1\n      tag_12\n      jump\t// in\n    tag_15:\n      tag_16\n      jump\t// in\n    tag_14:\n      stop\n        /* \"contracts/Ejercicio1CuentaAhorro.sol\":1140:1247  CuentaAhorro public c1 = CuentaAhorro(0,\"Ivy\", \"0x5B38Da6a701c568545dCfcB03FcB875f56beddC4\", 25 ,\"Purpura\") */\n    tag_7:\n      0x00\n      dup1\n      0x00\n      add\n      sload\n      swap1\n      dup1\n      0x01\n      add\n      dup1\n      sload\n      tag_17\n      swap1\n      tag_18\n      jump\t// in\n    tag_17:\n      dup1\n      0x1f\n      add\n      0x20\n      dup1\n      swap2\n      div\n      mul\n      0x20\n      add\n      mload(0x40)\n      swap1\n      dup2\n      add\n      0x40\n      mstore\n      dup1\n      swap3\n      swap2\n      swap1\n      dup2\n      dup2\n      mstore\n      0x20\n      add\n      dup3\n      dup1\n      sload\n      tag_19\n      swap1\n      tag_18\n      jump\t// in\n    tag_19:\n      dup1\n      iszero\n      tag_20\n      jumpi\n      dup1\n      0x1f\n      lt\n      tag_21\n      jumpi\n      0x0100\n      dup1\n      dup4\n      sload\n      div\n      mul\n      dup4\n      mstore\n      swap2\n      0x20\n      add\n      swap2\n      jump(tag_20)\n    tag_21:\n      dup3\n      add\n      swap2\n      swap1\n      0x00\n      mstore\n      keccak256(0x00, 0x20)\n      swap1\n    tag_22:\n      dup2\n      sload\n      dup2\n      mstore\n      swap1\n      0x01\n      add\n      swap1\n      0x20\n      add\n      dup1\n      dup4\n      gt\n      tag_22\n      jumpi\n      dup3\n      swap1\n      sub\n      0x1f\n      and\n      dup3\n      add\n      swap2\n    tag_20:\n      pop\n      pop\n      pop\n      pop\n      pop\n      swap1\n      dup1\n      0x02\n      add\n      dup1\n      sload\n      tag_23\n      swap1\n      tag_18\n      jump\t// in\n    tag_23:\n      dup1\n      0x1f\n      add\n      0x20\n      dup1\n      swap2\n      div\n      mul\n      0x20\n      add\n      mload(0x40)\n      swap1\n      dup2\n      add\n      0x40\n      mstore\n      dup1\n      swap3\n      swap2\n      swap1\n      dup2\n      dup2\n      mstore\n      0x20\n      add\n      dup3\n      dup1\n      sload\n      tag_24\n      swap1\n      tag_18\n      jump\t// in\n    tag_24:\n      dup1\n      iszero\n      tag_25\n      jumpi\n      dup1\n      0x1f\n      lt\n      tag_26\n      jumpi\n      0x0100\n      dup1\n      dup4\n      sload\n      div\n      mul\n      dup4\n      mstore\n      swap2\n      0x20\n      add\n      swap2\n      jump(tag_25)\n    tag_26:\n      dup3\n      add\n      swap2\n      swap1\n      0x00\n      mstore\n      keccak256(0x00, 0x20)\n      swap1\n    tag_27:\n      dup2\n      sload\n      dup2\n      mstore\n      swap1\n      0x01\n      add\n      swap1\n      0x20\n      add\n      dup1\n      dup4\n      gt\n      tag_27\n      jumpi\n      dup3\n      swap1\n      sub\n      0x1f\n      and\n      dup3\n      add\n      swap2\n    tag_25:\n      pop\n      pop\n      pop\n      pop\n      pop\n      swap1\n      dup1\n      0x03\n      add\n      sload\n      swap1\n      dup1\n      0x04\n      add\n      dup1\n      sload\n      tag_28\n      swap1\n      tag_18\n      jump\t// in\n    tag_28:\n      dup1\n      0x1f\n      add\n      0x20\n      dup1\n      swap2\n      div\n      mul\n      0x20\n      add\n      mload(0x40)\n      swap1\n      dup2\n      add\n      0x40\n      mstore\n      dup1\n      swap3\n      swap2\n      swap1\n      dup2\n      dup2\n      mstore\n      0x20\n      add\n      dup3\n      dup1\n      sload\n      tag_29\n      swap1\n      tag_18\n      jump\t// in\n    tag_29:\n      dup1\n      iszero\n      tag_30\n      jumpi\n      dup1\n      0x1f\n      lt\n      tag_31\n      jumpi\n      0x0100\n      dup1\n      dup4\n      sload\n      div\n      mul\n      dup4\n      mstore\n      swap2\n      0x20\n      add\n      swap2\n      jump(tag_30)\n    tag_31:\n      dup3\n      add\n      swap2\n      swap1\n      0x00\n      mstore\n      keccak256(0x00, 0x20)\n      swap1\n    tag_32:\n      dup2\n      sload\n      dup2\n      mstore\n      swap1\n      0x01\n      add\n      swap1\n      0x20\n      add\n      dup1\n      dup4\n      gt\n      tag_32\n      jumpi\n      dup3\n      swap1\n      sub\n      0x1f\n      and\n      dup3\n      add\n      swap2\n    tag_30:\n      pop\n      pop\n      pop\n      pop\n      pop\n      swap1\n      pop\n      dup6\n      jump\t// out\n        /* \"contracts/Ejercicio1CuentaAhorro.sol\":1258:1360  function ingresarSaldo (int saldoParaIngresar) public {\r... */\n    tag_13:\n        /* \"contracts/Ejercicio1CuentaAhorro.sol\":1335:1352  saldoParaIngresar */\n      dup1\n        /* \"contracts/Ejercicio1CuentaAhorro.sol\":1323:1325  c1 */\n      0x00\n        /* \"contracts/Ejercicio1CuentaAhorro.sol\":1323:1331  c1.saldo */\n      dup1\n      add\n      0x00\n        /* \"contracts/Ejercicio1CuentaAhorro.sol\":1323:1352  c1.saldo += saldoParaIngresar */\n      dup3\n      dup3\n      sload\n      tag_34\n      swap2\n      swap1\n      tag_35\n      jump\t// in\n    tag_34:\n      swap3\n      pop\n      pop\n      dup2\n      swap1\n      sstore\n      pop\n        /* \"contracts/Ejercicio1CuentaAhorro.sol\":1258:1360  function ingresarSaldo (int saldoParaIngresar) public {\r... */\n      pop\n      jump\t// out\n        /* \"contracts/Ejercicio1CuentaAhorro.sol\":1368:1467  function retirarSaldo (int saldoParaRetirar) public {\r... */\n    tag_16:\n        /* \"contracts/Ejercicio1CuentaAhorro.sol\":1443:1459  saldoParaRetirar */\n      dup1\n        /* \"contracts/Ejercicio1CuentaAhorro.sol\":1431:1433  c1 */\n      0x00\n        /* \"contracts/Ejercicio1CuentaAhorro.sol\":1431:1439  c1.saldo */\n      dup1\n      add\n      0x00\n        /* \"contracts/Ejercicio1CuentaAhorro.sol\":1431:1459  c1.saldo -= saldoParaRetirar */\n      dup3\n      dup3\n      sload\n      tag_37\n      swap2\n      swap1\n      tag_38\n      jump\t// in\n    tag_37:\n      swap3\n      pop\n      pop\n      dup2\n      swap1\n      sstore\n      pop\n        /* \"contracts/Ejercicio1CuentaAhorro.sol\":1368:1467  function retirarSaldo (int saldoParaRetirar) public {\r... */\n      pop\n      jump\t// out\n        /* \"#utility.yul\":7:144   */\n    tag_40:\n        /* \"#utility.yul\":52:57   */\n      0x00\n        /* \"#utility.yul\":90:96   */\n      dup2\n        /* \"#utility.yul\":77:97   */\n      calldataload\n        /* \"#utility.yul\":68:97   */\n      swap1\n      pop\n        /* \"#utility.yul\":106:138   */\n      tag_42\n        /* \"#utility.yul\":132:137   */\n      dup2\n        /* \"#utility.yul\":106:138   */\n      tag_43\n      jump\t// in\n    tag_42:\n        /* \"#utility.yul\":7:144   */\n      swap3\n      swap2\n      pop\n      pop\n      jump\t// out\n        /* \"#utility.yul\":150:477   */\n    tag_12:\n        /* \"#utility.yul\":208:214   */\n      0x00\n        /* \"#utility.yul\":257:259   */\n      0x20\n        /* \"#utility.yul\":245:254   */\n      dup3\n        /* \"#utility.yul\":236:243   */\n      dup5\n        /* \"#utility.yul\":232:255   */\n      sub\n        /* \"#utility.yul\":228:260   */\n      slt\n        /* \"#utility.yul\":225:344   */\n      iszero\n      tag_45\n      jumpi\n        /* \"#utility.yul\":263:342   */\n      tag_46\n      tag_47\n      jump\t// in\n    tag_46:\n        /* \"#utility.yul\":225:344   */\n    tag_45:\n        /* \"#utility.yul\":383:384   */\n      0x00\n        /* \"#utility.yul\":408:460   */\n      tag_48\n        /* \"#utility.yul\":452:459   */\n      dup5\n        /* \"#utility.yul\":443:449   */\n      dup3\n        /* \"#utility.yul\":432:441   */\n      dup6\n        /* \"#utility.yul\":428:450   */\n      add\n        /* \"#utility.yul\":408:460   */\n      tag_40\n      jump\t// in\n    tag_48:\n        /* \"#utility.yul\":398:460   */\n      swap2\n      pop\n        /* \"#utility.yul\":354:470   */\n      pop\n        /* \"#utility.yul\":150:477   */\n      swap3\n      swap2\n      pop\n      pop\n      jump\t// out\n        /* \"#utility.yul\":483:598   */\n    tag_49:\n        /* \"#utility.yul\":568:591   */\n      tag_51\n        /* \"#utility.yul\":585:590   */\n      dup2\n        /* \"#utility.yul\":568:591   */\n      tag_52\n      jump\t// in\n    tag_51:\n        /* \"#utility.yul\":563:566   */\n      dup3\n        /* \"#utility.yul\":556:592   */\n      mstore\n        /* \"#utility.yul\":483:598   */\n      pop\n      pop\n      jump\t// out\n        /* \"#utility.yul\":604:968   */\n    tag_53:\n        /* \"#utility.yul\":692:695   */\n      0x00\n        /* \"#utility.yul\":720:759   */\n      tag_55\n        /* \"#utility.yul\":753:758   */\n      dup3\n        /* \"#utility.yul\":720:759   */\n      tag_56\n      jump\t// in\n    tag_55:\n        /* \"#utility.yul\":775:846   */\n      tag_57\n        /* \"#utility.yul\":839:845   */\n      dup2\n        /* \"#utility.yul\":834:837   */\n      dup6\n        /* \"#utility.yul\":775:846   */\n      tag_58\n      jump\t// in\n    tag_57:\n        /* \"#utility.yul\":768:846   */\n      swap4\n      pop\n        /* \"#utility.yul\":855:907   */\n      tag_59\n        /* \"#utility.yul\":900:906   */\n      dup2\n        /* \"#utility.yul\":895:898   */\n      dup6\n        /* \"#utility.yul\":888:892   */\n      0x20\n        /* \"#utility.yul\":881:886   */\n      dup7\n        /* \"#utility.yul\":877:893   */\n      add\n        /* \"#utility.yul\":855:907   */\n      tag_60\n      jump\t// in\n    tag_59:\n        /* \"#utility.yul\":932:961   */\n      tag_61\n        /* \"#utility.yul\":954:960   */\n      dup2\n        /* \"#utility.yul\":932:961   */\n      tag_62\n      jump\t// in\n    tag_61:\n        /* \"#utility.yul\":927:930   */\n      dup5\n        /* \"#utility.yul\":923:962   */\n      add\n        /* \"#utility.yul\":916:962   */\n      swap2\n      pop\n        /* \"#utility.yul\":696:968   */\n      pop\n        /* \"#utility.yul\":604:968   */\n      swap3\n      swap2\n      pop\n      pop\n      jump\t// out\n        /* \"#utility.yul\":974:1903   */\n    tag_9:\n        /* \"#utility.yul\":1235:1239   */\n      0x00\n        /* \"#utility.yul\":1273:1276   */\n      0xa0\n        /* \"#utility.yul\":1262:1271   */\n      dup3\n        /* \"#utility.yul\":1258:1277   */\n      add\n        /* \"#utility.yul\":1250:1277   */\n      swap1\n      pop\n        /* \"#utility.yul\":1287:1356   */\n      tag_64\n        /* \"#utility.yul\":1353:1354   */\n      0x00\n        /* \"#utility.yul\":1342:1351   */\n      dup4\n        /* \"#utility.yul\":1338:1355   */\n      add\n        /* \"#utility.yul\":1329:1335   */\n      dup9\n        /* \"#utility.yul\":1287:1356   */\n      tag_49\n      jump\t// in\n    tag_64:\n        /* \"#utility.yul\":1403:1412   */\n      dup2\n        /* \"#utility.yul\":1397:1401   */\n      dup2\n        /* \"#utility.yul\":1393:1413   */\n      sub\n        /* \"#utility.yul\":1388:1390   */\n      0x20\n        /* \"#utility.yul\":1377:1386   */\n      dup4\n        /* \"#utility.yul\":1373:1391   */\n      add\n        /* \"#utility.yul\":1366:1414   */\n      mstore\n        /* \"#utility.yul\":1431:1509   */\n      tag_65\n        /* \"#utility.yul\":1504:1508   */\n      dup2\n        /* \"#utility.yul\":1495:1501   */\n      dup8\n        /* \"#utility.yul\":1431:1509   */\n      tag_53\n      jump\t// in\n    tag_65:\n        /* \"#utility.yul\":1423:1509   */\n      swap1\n      pop\n        /* \"#utility.yul\":1556:1565   */\n      dup2\n        /* \"#utility.yul\":1550:1554   */\n      dup2\n        /* \"#utility.yul\":1546:1566   */\n      sub\n        /* \"#utility.yul\":1541:1543   */\n      0x40\n        /* \"#utility.yul\":1530:1539   */\n      dup4\n        /* \"#utility.yul\":1526:1544   */\n      add\n        /* \"#utility.yul\":1519:1567   */\n      mstore\n        /* \"#utility.yul\":1584:1662   */\n      tag_66\n        /* \"#utility.yul\":1657:1661   */\n      dup2\n        /* \"#utility.yul\":1648:1654   */\n      dup7\n        /* \"#utility.yul\":1584:1662   */\n      tag_53\n      jump\t// in\n    tag_66:\n        /* \"#utility.yul\":1576:1662   */\n      swap1\n      pop\n        /* \"#utility.yul\":1672:1742   */\n      tag_67\n        /* \"#utility.yul\":1738:1740   */\n      0x60\n        /* \"#utility.yul\":1727:1736   */\n      dup4\n        /* \"#utility.yul\":1723:1741   */\n      add\n        /* \"#utility.yul\":1714:1720   */\n      dup6\n        /* \"#utility.yul\":1672:1742   */\n      tag_49\n      jump\t// in\n    tag_67:\n        /* \"#utility.yul\":1790:1799   */\n      dup2\n        /* \"#utility.yul\":1784:1788   */\n      dup2\n        /* \"#utility.yul\":1780:1800   */\n      sub\n        /* \"#utility.yul\":1774:1777   */\n      0x80\n        /* \"#utility.yul\":1763:1772   */\n      dup4\n        /* \"#utility.yul\":1759:1778   */\n      add\n        /* \"#utility.yul\":1752:1801   */\n      mstore\n        /* \"#utility.yul\":1818:1896   */\n      tag_68\n        /* \"#utility.yul\":1891:1895   */\n      dup2\n        /* \"#utility.yul\":1882:1888   */\n      dup5\n        /* \"#utility.yul\":1818:1896   */\n      tag_53\n      jump\t// in\n    tag_68:\n        /* \"#utility.yul\":1810:1896   */\n      swap1\n      pop\n        /* \"#utility.yul\":974:1903   */\n      swap7\n      swap6\n      pop\n      pop\n      pop\n      pop\n      pop\n      pop\n      jump\t// out\n        /* \"#utility.yul\":1990:2089   */\n    tag_56:\n        /* \"#utility.yul\":2042:2048   */\n      0x00\n        /* \"#utility.yul\":2076:2081   */\n      dup2\n        /* \"#utility.yul\":2070:2082   */\n      mload\n        /* \"#utility.yul\":2060:2082   */\n      swap1\n      pop\n        /* \"#utility.yul\":1990:2089   */\n      swap2\n      swap1\n      pop\n      jump\t// out\n        /* \"#utility.yul\":2095:2264   */\n    tag_58:\n        /* \"#utility.yul\":2179:2190   */\n      0x00\n        /* \"#utility.yul\":2213:2219   */\n      dup3\n        /* \"#utility.yul\":2208:2211   */\n      dup3\n        /* \"#utility.yul\":2201:2220   */\n      mstore\n        /* \"#utility.yul\":2253:2257   */\n      0x20\n        /* \"#utility.yul\":2248:2251   */\n      dup3\n        /* \"#utility.yul\":2244:2258   */\n      add\n        /* \"#utility.yul\":2229:2258   */\n      swap1\n      pop\n        /* \"#utility.yul\":2095:2264   */\n      swap3\n      swap2\n      pop\n      pop\n      jump\t// out\n        /* \"#utility.yul\":2270:2795   */\n    tag_35:\n        /* \"#utility.yul\":2309:2312   */\n      0x00\n        /* \"#utility.yul\":2328:2347   */\n      tag_74\n        /* \"#utility.yul\":2345:2346   */\n      dup3\n        /* \"#utility.yul\":2328:2347   */\n      tag_52\n      jump\t// in\n    tag_74:\n        /* \"#utility.yul\":2323:2347   */\n      swap2\n      pop\n        /* \"#utility.yul\":2361:2380   */\n      tag_75\n        /* \"#utility.yul\":2378:2379   */\n      dup4\n        /* \"#utility.yul\":2361:2380   */\n      tag_52\n      jump\t// in\n    tag_75:\n        /* \"#utility.yul\":2356:2380   */\n      swap3\n      pop\n        /* \"#utility.yul\":2549:2550   */\n      dup2\n        /* \"#utility.yul\":2481:2547   */\n      0x7fffffffffffffffffffffffffffffffffffffffffffffffffffffffffffffff\n        /* \"#utility.yul\":2477:2551   */\n      sub\n        /* \"#utility.yul\":2474:2475   */\n      dup4\n        /* \"#utility.yul\":2470:2552   */\n      sgt\n        /* \"#utility.yul\":2465:2466   */\n      0x00\n        /* \"#utility.yul\":2462:2463   */\n      dup4\n        /* \"#utility.yul\":2458:2467   */\n      slt\n        /* \"#utility.yul\":2451:2468   */\n      iszero\n        /* \"#utility.yul\":2447:2553   */\n      and\n        /* \"#utility.yul\":2444:2576   */\n      iszero\n      tag_76\n      jumpi\n        /* \"#utility.yul\":2556:2574   */\n      tag_77\n      tag_78\n      jump\t// in\n    tag_77:\n        /* \"#utility.yul\":2444:2576   */\n    tag_76:\n        /* \"#utility.yul\":2736:2737   */\n      dup2\n        /* \"#utility.yul\":2668:2734   */\n      0x8000000000000000000000000000000000000000000000000000000000000000\n        /* \"#utility.yul\":2664:2738   */\n      sub\n        /* \"#utility.yul\":2661:2662   */\n      dup4\n        /* \"#utility.yul\":2657:2739   */\n      slt\n        /* \"#utility.yul\":2653:2654   */\n      0x00\n        /* \"#utility.yul\":2650:2651   */\n      dup4\n        /* \"#utility.yul\":2646:2655   */\n      slt\n        /* \"#utility.yul\":2642:2740   */\n      and\n        /* \"#utility.yul\":2639:2763   */\n      iszero\n      tag_79\n      jumpi\n        /* \"#utility.yul\":2743:2761   */\n      tag_80\n      tag_78\n      jump\t// in\n    tag_80:\n        /* \"#utility.yul\":2639:2763   */\n    tag_79:\n        /* \"#utility.yul\":2787:2788   */\n      dup3\n        /* \"#utility.yul\":2784:2785   */\n      dup3\n        /* \"#utility.yul\":2780:2789   */\n      add\n        /* \"#utility.yul\":2773:2789   */\n      swap1\n      pop\n        /* \"#utility.yul\":2270:2795   */\n      swap3\n      swap2\n      pop\n      pop\n      jump\t// out\n        /* \"#utility.yul\":2801:3328   */\n    tag_38:\n        /* \"#utility.yul\":2840:2844   */\n      0x00\n        /* \"#utility.yul\":2860:2879   */\n      tag_82\n        /* \"#utility.yul\":2877:2878   */\n      dup3\n        /* \"#utility.yul\":2860:2879   */\n      tag_52\n      jump\t// in\n    tag_82:\n        /* \"#utility.yul\":2855:2879   */\n      swap2\n      pop\n        /* \"#utility.yul\":2893:2912   */\n      tag_83\n        /* \"#utility.yul\":2910:2911   */\n      dup4\n        /* \"#utility.yul\":2893:2912   */\n      tag_52\n      jump\t// in\n    tag_83:\n        /* \"#utility.yul\":2888:2912   */\n      swap3\n      pop\n        /* \"#utility.yul\":3082:3083   */\n      dup3\n        /* \"#utility.yul\":3014:3080   */\n      0x8000000000000000000000000000000000000000000000000000000000000000\n        /* \"#utility.yul\":3010:3084   */\n      add\n        /* \"#utility.yul\":3007:3008   */\n      dup3\n        /* \"#utility.yul\":3003:3085   */\n      slt\n        /* \"#utility.yul\":2998:2999   */\n      0x00\n        /* \"#utility.yul\":2995:2996   */\n      dup5\n        /* \"#utility.yul\":2991:3000   */\n      slt\n        /* \"#utility.yul\":2984:3001   */\n      iszero\n        /* \"#utility.yul\":2980:3086   */\n      and\n        /* \"#utility.yul\":2977:3109   */\n      iszero\n      tag_84\n      jumpi\n        /* \"#utility.yul\":3089:3107   */\n      tag_85\n      tag_78\n      jump\t// in\n    tag_85:\n        /* \"#utility.yul\":2977:3109   */\n    tag_84:\n        /* \"#utility.yul\":3268:3269   */\n      dup3\n        /* \"#utility.yul\":3200:3266   */\n      0x7fffffffffffffffffffffffffffffffffffffffffffffffffffffffffffffff\n        /* \"#utility.yul\":3196:3270   */\n      add\n        /* \"#utility.yul\":3193:3194   */\n      dup3\n        /* \"#utility.yul\":3189:3271   */\n      sgt\n        /* \"#utility.yul\":3185:3186   */\n      0x00\n        /* \"#utility.yul\":3182:3183   */\n      dup5\n        /* \"#utility.yul\":3178:3187   */\n      slt\n        /* \"#utility.yul\":3174:3272   */\n      and\n        /* \"#utility.yul\":3171:3295   */\n      iszero\n      tag_86\n      jumpi\n        /* \"#utility.yul\":3275:3293   */\n      tag_87\n      tag_78\n      jump\t// in\n    tag_87:\n        /* \"#utility.yul\":3171:3295   */\n    tag_86:\n        /* \"#utility.yul\":3320:3321   */\n      dup3\n        /* \"#utility.yul\":3317:3318   */\n      dup3\n        /* \"#utility.yul\":3313:3322   */\n      sub\n        /* \"#utility.yul\":3305:3322   */\n      swap1\n      pop\n        /* \"#utility.yul\":2801:3328   */\n      swap3\n      swap2\n      pop\n      pop\n      jump\t// out\n        /* \"#utility.yul\":3334:3410   */\n    tag_52:\n        /* \"#utility.yul\":3370:3377   */\n      0x00\n        /* \"#utility.yul\":3399:3404   */\n      dup2\n        /* \"#utility.yul\":3388:3404   */\n      swap1\n      pop\n        /* \"#utility.yul\":3334:3410   */\n      swap2\n      swap1\n      pop\n      jump\t// out\n        /* \"#utility.yul\":3416:3723   */\n    tag_60:\n        /* \"#utility.yul\":3484:3485   */\n      0x00\n        /* \"#utility.yul\":3494:3607   */\n    tag_90:\n        /* \"#utility.yul\":3508:3514   */\n      dup4\n        /* \"#utility.yul\":3505:3506   */\n      dup2\n        /* \"#utility.yul\":3502:3515   */\n      lt\n        /* \"#utility.yul\":3494:3607   */\n      iszero\n      tag_92\n      jumpi\n        /* \"#utility.yul\":3593:3594   */\n      dup1\n        /* \"#utility.yul\":3588:3591   */\n      dup3\n        /* \"#utility.yul\":3584:3595   */\n      add\n        /* \"#utility.yul\":3578:3596   */\n      mload\n        /* \"#utility.yul\":3574:3575   */\n      dup2\n        /* \"#utility.yul\":3569:3572   */\n      dup5\n        /* \"#utility.yul\":3565:3576   */\n      add\n        /* \"#utility.yul\":3558:3597   */\n      mstore\n        /* \"#utility.yul\":3530:3532   */\n      0x20\n        /* \"#utility.yul\":3527:3528   */\n      dup2\n        /* \"#utility.yul\":3523:3533   */\n      add\n        /* \"#utility.yul\":3518:3533   */\n      swap1\n      pop\n        /* \"#utility.yul\":3494:3607   */\n      jump(tag_90)\n    tag_92:\n        /* \"#utility.yul\":3625:3631   */\n      dup4\n        /* \"#utility.yul\":3622:3623   */\n      dup2\n        /* \"#utility.yul\":3619:3632   */\n      gt\n        /* \"#utility.yul\":3616:3717   */\n      iszero\n      tag_93\n      jumpi\n        /* \"#utility.yul\":3705:3706   */\n      0x00\n        /* \"#utility.yul\":3696:3702   */\n      dup5\n        /* \"#utility.yul\":3691:3694   */\n      dup5\n        /* \"#utility.yul\":3687:3703   */\n      add\n        /* \"#utility.yul\":3680:3707   */\n      mstore\n        /* \"#utility.yul\":3616:3717   */\n    tag_93:\n        /* \"#utility.yul\":3465:3723   */\n      pop\n        /* \"#utility.yul\":3416:3723   */\n      pop\n      pop\n      pop\n      jump\t// out\n        /* \"#utility.yul\":3729:4049   */\n    tag_18:\n        /* \"#utility.yul\":3773:3779   */\n      0x00\n        /* \"#utility.yul\":3810:3811   */\n      0x02\n        /* \"#utility.yul\":3804:3808   */\n      dup3\n        /* \"#utility.yul\":3800:3812   */\n      div\n        /* \"#utility.yul\":3790:3812   */\n      swap1\n      pop\n        /* \"#utility.yul\":3857:3858   */\n      0x01\n        /* \"#utility.yul\":3851:3855   */\n      dup3\n        /* \"#utility.yul\":3847:3859   */\n      and\n        /* \"#utility.yul\":3878:3896   */\n      dup1\n        /* \"#utility.yul\":3868:3949   */\n      tag_95\n      jumpi\n        /* \"#utility.yul\":3934:3938   */\n      0x7f\n        /* \"#utility.yul\":3926:3932   */\n      dup3\n        /* \"#utility.yul\":3922:3939   */\n      and\n        /* \"#utility.yul\":3912:3939   */\n      swap2\n      pop\n        /* \"#utility.yul\":3868:3949   */\n    tag_95:\n        /* \"#utility.yul\":3996:3998   */\n      0x20\n        /* \"#utility.yul\":3988:3994   */\n      dup3\n        /* \"#utility.yul\":3985:3999   */\n      lt\n        /* \"#utility.yul\":3965:3983   */\n      dup2\n        /* \"#utility.yul\":3962:4000   */\n      eq\n        /* \"#utility.yul\":3959:4043   */\n      iszero\n      tag_96\n      jumpi\n        /* \"#utility.yul\":4015:4033   */\n      tag_97\n      tag_98\n      jump\t// in\n    tag_97:\n        /* \"#utility.yul\":3959:4043   */\n    tag_96:\n        /* \"#utility.yul\":3780:4049   */\n      pop\n        /* \"#utility.yul\":3729:4049   */\n      swap2\n      swap1\n      pop\n      jump\t// out\n        /* \"#utility.yul\":4055:4235   */\n    tag_78:\n        /* \"#utility.yul\":4103:4180   */\n      0x4e487b7100000000000000000000000000000000000000000000000000000000\n        /* \"#utility.yul\":4100:4101   */\n      0x00\n        /* \"#utility.yul\":4093:4181   */\n      mstore\n        /* \"#utility.yul\":4200:4204   */\n      0x11\n        /* \"#utility.yul\":4197:4198   */\n      0x04\n        /* \"#utility.yul\":4190:4205   */\n      mstore\n        /* \"#utility.yul\":4224:4228   */\n      0x24\n        /* \"#utility.yul\":4221:4222   */\n      0x00\n        /* \"#utility.yul\":4214:4229   */\n      revert\n        /* \"#utility.yul\":4241:4421   */\n    tag_98:\n        /* \"#utility.yul\":4289:4366   */\n      0x4e487b7100000000000000000000000000000000000000000000000000000000\n        /* \"#utility.yul\":4286:4287   */\n      0x00\n        /* \"#utility.yul\":4279:4367   */\n      mstore\n        /* \"#utility.yul\":4386:4390   */\n      0x22\n        /* \"#utility.yul\":4383:4384   */\n      0x04\n        /* \"#utility.yul\":4376:4391   */\n      mstore\n        /* \"#utility.yul\":4410:4414   */\n      0x24\n        /* \"#utility.yul\":4407:4408   */\n      0x00\n        /* \"#utility.yul\":4400:4415   */\n      revert\n        /* \"#utility.yul\":4550:4667   */\n    tag_47:\n        /* \"#utility.yul\":4659:4660   */\n      0x00\n        /* \"#utility.yul\":4656:4657   */\n      dup1\n        /* \"#utility.yul\":4649:4661   */\n      revert\n        /* \"#utility.yul\":4673:4775   */\n    tag_62:\n        /* \"#utility.yul\":4714:4720   */\n      0x00\n        /* \"#utility.yul\":4765:4767   */\n      0x1f\n        /* \"#utility.yul\":4761:4768   */\n      not\n        /* \"#utility.yul\":4756:4758   */\n      0x1f\n        /* \"#utility.yul\":4749:4754   */\n      dup4\n        /* \"#utility.yul\":4745:4759   */\n      add\n        /* \"#utility.yul\":4741:4769   */\n      and\n        /* \"#utility.yul\":4731:4769   */\n      swap1\n      pop\n        /* \"#utility.yul\":4673:4775   */\n      swap2\n      swap1\n      pop\n      jump\t// out\n        /* \"#utility.yul\":4781:4901   */\n    tag_43:\n        /* \"#utility.yul\":4853:4876   */\n      tag_106\n        /* \"#utility.yul\":4870:4875   */\n      dup2\n        /* \"#utility.yul\":4853:4876   */\n      tag_52\n      jump\t// in\n    tag_106:\n        /* \"#utility.yul\":4846:4851   */\n      dup2\n        /* \"#utility.yul\":4843:4877   */\n      eq\n        /* \"#utility.yul\":4833:4895   */\n      tag_107\n      jumpi\n        /* \"#utility.yul\":4891:4892   */\n      0x00\n        /* \"#utility.yul\":4888:4889   */\n      dup1\n        /* \"#utility.yul\":4881:4893   */\n      revert\n        /* \"#utility.yul\":4833:4895   */\n    tag_107:\n        /* \"#utility.yul\":4781:4901   */\n      pop\n      jump\t// out\n\n    auxdata: 0xa26469706673582212203104c84d5cafc842ec0bd3ffe23a2cf891d1b69fc8a6a0c902e056b2b027f17464736f6c63430008070033\n}\n",
				"bytecode": {
					"linkReferences": {},
					"object": "60806040526040518060a00160405280600081526020016040518060400160405280600381526020017f497679000000000000000000000000000000000000000000000000000000000081525081526020016040518060600160405280602a8152602001610840602a91398152602001601981526020016040518060400160405280600781526020017f5075727075726100000000000000000000000000000000000000000000000000815250815250600080820151816000015560208201518160010190805190602001906100d692919061012f565b5060408201518160020190805190602001906100f392919061012f565b5060608201518160030155608082015181600401908051906020019061011a92919061012f565b50505034801561012957600080fd5b50610233565b82805461013b906101d2565b90600052602060002090601f01602090048101928261015d57600085556101a4565b82601f1061017657805160ff19168380011785556101a4565b828001600101855582156101a4579182015b828111156101a3578251825591602001919060010190610188565b5b5090506101b191906101b5565b5090565b5b808211156101ce5760008160009055506001016101b6565b5090565b600060028204905060018216806101ea57607f821691505b602082108114156101fe576101fd610204565b5b50919050565b7f4e487b7100000000000000000000000000000000000000000000000000000000600052602260045260246000fd5b6105fe806102426000396000f3fe608060405234801561001057600080fd5b50600436106100415760003560e01c80635f57697c1461004657806393ba1e6014610068578063c28a41ec14610084575b600080fd5b61004e6100a0565b60405161005f959493929190610322565b60405180910390f35b610082600480360381019061007d91906102ad565b61025c565b005b61009e600480360381019061009991906102ad565b61027a565b005b60008060000154908060010180546100b79061050b565b80601f01602080910402602001604051908101604052809291908181526020018280546100e39061050b565b80156101305780601f1061010557610100808354040283529160200191610130565b820191906000526020600020905b81548152906001019060200180831161011357829003601f168201915b5050505050908060020180546101459061050b565b80601f01602080910402602001604051908101604052809291908181526020018280546101719061050b565b80156101be5780601f10610193576101008083540402835291602001916101be565b820191906000526020600020905b8154815290600101906020018083116101a157829003601f168201915b5050505050908060030154908060040180546101d99061050b565b80601f01602080910402602001604051908101604052809291908181526020018280546102059061050b565b80156102525780601f1061022757610100808354040283529160200191610252565b820191906000526020600020905b81548152906001019060200180831161023557829003601f168201915b5050505050905085565b8060008001600082825461027091906103a6565b9250508190555050565b8060008001600082825461028e919061043a565b9250508190555050565b6000813590506102a7816105b1565b92915050565b6000602082840312156102c3576102c261059b565b5b60006102d184828501610298565b91505092915050565b6102e3816104ce565b82525050565b60006102f48261038a565b6102fe8185610395565b935061030e8185602086016104d8565b610317816105a0565b840191505092915050565b600060a08201905061033760008301886102da565b818103602083015261034981876102e9565b9050818103604083015261035d81866102e9565b905061036c60608301856102da565b818103608083015261037e81846102e9565b90509695505050505050565b600081519050919050565b600082825260208201905092915050565b60006103b1826104ce565b91506103bc836104ce565b9250817f7fffffffffffffffffffffffffffffffffffffffffffffffffffffffffffffff038313600083121516156103f7576103f661053d565b5b817f800000000000000000000000000000000000000000000000000000000000000003831260008312161561042f5761042e61053d565b5b828201905092915050565b6000610445826104ce565b9150610450836104ce565b9250827f80000000000000000000000000000000000000000000000000000000000000000182126000841215161561048b5761048a61053d565b5b827f7fffffffffffffffffffffffffffffffffffffffffffffffffffffffffffffff0182136000841216156104c3576104c261053d565b5b828203905092915050565b6000819050919050565b60005b838110156104f65780820151818401526020810190506104db565b83811115610505576000848401525b50505050565b6000600282049050600182168061052357607f821691505b602082108114156105375761053661056c565b5b50919050565b7f4e487b7100000000000000000000000000000000000000000000000000000000600052601160045260246000fd5b7f4e487b7100000000000000000000000000000000000000000000000000000000600052602260045260246000fd5b600080fd5b6000601f19601f8301169050919050565b6105ba816104ce565b81146105c557600080fd5b5056fea26469706673582212203104c84d5cafc842ec0bd3ffe23a2cf891d1b69fc8a6a0c902e056b2b027f17464736f6c63430008070033307835423338446136613730316335363835343564436663423033466342383735663536626564644334",
					"opcodes": "PUSH1 0x80 PUSH1 0x40 MSTORE PUSH1 0x40 MLOAD DUP1 PUSH1 0xA0 ADD PUSH1 0x40 MSTORE DUP1 PUSH1 0x0 DUP2 MSTORE PUSH1 0x20 ADD PUSH1 0x40 MLOAD DUP1 PUSH1 0x40 ADD PUSH1 0x40 MSTORE DUP1 PUSH1 0x3 DUP2 MSTORE PUSH1 0x20 ADD PUSH32 0x4976790000000000000000000000000000000000000000000000000000000000 DUP2 MSTORE POP DUP2 MSTORE PUSH1 0x20 ADD PUSH1 0x40 MLOAD DUP1 PUSH1 0x60 ADD PUSH1 0x40 MSTORE DUP1 PUSH1 0x2A DUP2 MSTORE PUSH1 0x20 ADD PUSH2 0x840 PUSH1 0x2A SWAP2 CODECOPY DUP2 MSTORE PUSH1 0x20 ADD PUSH1 0x19 DUP2 MSTORE PUSH1 0x20 ADD PUSH1 0x40 MLOAD DUP1 PUSH1 0x40 ADD PUSH1 0x40 MSTORE DUP1 PUSH1 0x7 DUP2 MSTORE PUSH1 0x20 ADD PUSH32 0x5075727075726100000000000000000000000000000000000000000000000000 DUP2 MSTORE POP DUP2 MSTORE POP PUSH1 0x0 DUP1 DUP3 ADD MLOAD DUP2 PUSH1 0x0 ADD SSTORE PUSH1 0x20 DUP3 ADD MLOAD DUP2 PUSH1 0x1 ADD SWAP1 DUP1 MLOAD SWAP1 PUSH1 0x20 ADD SWAP1 PUSH2 0xD6 SWAP3 SWAP2 SWAP1 PUSH2 0x12F JUMP JUMPDEST POP PUSH1 0x40 DUP3 ADD MLOAD DUP2 PUSH1 0x2 ADD SWAP1 DUP1 MLOAD SWAP1 PUSH1 0x20 ADD SWAP1 PUSH2 0xF3 SWAP3 SWAP2 SWAP1 PUSH2 0x12F JUMP JUMPDEST POP PUSH1 0x60 DUP3 ADD MLOAD DUP2 PUSH1 0x3 ADD SSTORE PUSH1 0x80 DUP3 ADD MLOAD DUP2 PUSH1 0x4 ADD SWAP1 DUP1 MLOAD SWAP1 PUSH1 0x20 ADD SWAP1 PUSH2 0x11A SWAP3 SWAP2 SWAP1 PUSH2 0x12F JUMP JUMPDEST POP POP POP CALLVALUE DUP1 ISZERO PUSH2 0x129 JUMPI PUSH1 0x0 DUP1 REVERT JUMPDEST POP PUSH2 0x233 JUMP JUMPDEST DUP3 DUP1 SLOAD PUSH2 0x13B SWAP1 PUSH2 0x1D2 JUMP JUMPDEST SWAP1 PUSH1 0x0 MSTORE PUSH1 0x20 PUSH1 0x0 KECCAK256 SWAP1 PUSH1 0x1F ADD PUSH1 0x20 SWAP1 DIV DUP2 ADD SWAP3 DUP3 PUSH2 0x15D JUMPI PUSH1 0x0 DUP6 SSTORE PUSH2 0x1A4 JUMP JUMPDEST DUP3 PUSH1 0x1F LT PUSH2 0x176 JUMPI DUP1 MLOAD PUSH1 0xFF NOT AND DUP4 DUP1 ADD OR DUP6 SSTORE PUSH2 0x1A4 JUMP JUMPDEST DUP3 DUP1 ADD PUSH1 0x1 ADD DUP6 SSTORE DUP3 ISZERO PUSH2 0x1A4 JUMPI SWAP2 DUP3 ADD JUMPDEST DUP3 DUP2 GT ISZERO PUSH2 0x1A3 JUMPI DUP3 MLOAD DUP3 SSTORE SWAP2 PUSH1 0x20 ADD SWAP2 SWAP1 PUSH1 0x1 ADD SWAP1 PUSH2 0x188 JUMP JUMPDEST JUMPDEST POP SWAP1 POP PUSH2 0x1B1 SWAP2 SWAP1 PUSH2 0x1B5 JUMP JUMPDEST POP SWAP1 JUMP JUMPDEST JUMPDEST DUP1 DUP3 GT ISZERO PUSH2 0x1CE JUMPI PUSH1 0x0 DUP2 PUSH1 0x0 SWAP1 SSTORE POP PUSH1 0x1 ADD PUSH2 0x1B6 JUMP JUMPDEST POP SWAP1 JUMP JUMPDEST PUSH1 0x0 PUSH1 0x2 DUP3 DIV SWAP1 POP PUSH1 0x1 DUP3 AND DUP1 PUSH2 0x1EA JUMPI PUSH1 0x7F DUP3 AND SWAP2 POP JUMPDEST PUSH1 0x20 DUP3 LT DUP2 EQ ISZERO PUSH2 0x1FE JUMPI PUSH2 0x1FD PUSH2 0x204 JUMP JUMPDEST JUMPDEST POP SWAP2 SWAP1 POP JUMP JUMPDEST PUSH32 0x4E487B7100000000000000000000000000000000000000000000000000000000 PUSH1 0x0 MSTORE PUSH1 0x22 PUSH1 0x4 MSTORE PUSH1 0x24 PUSH1 0x0 REVERT JUMPDEST PUSH2 0x5FE DUP1 PUSH2 0x242 PUSH1 0x0 CODECOPY PUSH1 0x0 RETURN INVALID PUSH1 0x80 PUSH1 0x40 MSTORE CALLVALUE DUP1 ISZERO PUSH2 0x10 JUMPI PUSH1 0x0 DUP1 REVERT JUMPDEST POP PUSH1 0x4 CALLDATASIZE LT PUSH2 0x41 JUMPI PUSH1 0x0 CALLDATALOAD PUSH1 0xE0 SHR DUP1 PUSH4 0x5F57697C EQ PUSH2 0x46 JUMPI DUP1 PUSH4 0x93BA1E60 EQ PUSH2 0x68 JUMPI DUP1 PUSH4 0xC28A41EC EQ PUSH2 0x84 JUMPI JUMPDEST PUSH1 0x0 DUP1 REVERT JUMPDEST PUSH2 0x4E PUSH2 0xA0 JUMP JUMPDEST PUSH1 0x40 MLOAD PUSH2 0x5F SWAP6 SWAP5 SWAP4 SWAP3 SWAP2 SWAP1 PUSH2 0x322 JUMP JUMPDEST PUSH1 0x40 MLOAD DUP1 SWAP2 SUB SWAP1 RETURN JUMPDEST PUSH2 0x82 PUSH1 0x4 DUP1 CALLDATASIZE SUB DUP2 ADD SWAP1 PUSH2 0x7D SWAP2 SWAP1 PUSH2 0x2AD JUMP JUMPDEST PUSH2 0x25C JUMP JUMPDEST STOP JUMPDEST PUSH2 0x9E PUSH1 0x4 DUP1 CALLDATASIZE SUB DUP2 ADD SWAP1 PUSH2 0x99 SWAP2 SWAP1 PUSH2 0x2AD JUMP JUMPDEST PUSH2 0x27A JUMP JUMPDEST STOP JUMPDEST PUSH1 0x0 DUP1 PUSH1 0x0 ADD SLOAD SWAP1 DUP1 PUSH1 0x1 ADD DUP1 SLOAD PUSH2 0xB7 SWAP1 PUSH2 0x50B JUMP JUMPDEST DUP1 PUSH1 0x1F ADD PUSH1 0x20 DUP1 SWAP2 DIV MUL PUSH1 0x20 ADD PUSH1 0x40 MLOAD SWAP1 DUP2 ADD PUSH1 0x40 MSTORE DUP1 SWAP3 SWAP2 SWAP1 DUP2 DUP2 MSTORE PUSH1 0x20 ADD DUP3 DUP1 SLOAD PUSH2 0xE3 SWAP1 PUSH2 0x50B JUMP JUMPDEST DUP1 ISZERO PUSH2 0x130 JUMPI DUP1 PUSH1 0x1F LT PUSH2 0x105 JUMPI PUSH2 0x100 DUP1 DUP4 SLOAD DIV MUL DUP4 MSTORE SWAP2 PUSH1 0x20 ADD SWAP2 PUSH2 0x130 JUMP JUMPDEST DUP3 ADD SWAP2 SWAP1 PUSH1 0x0 MSTORE PUSH1 0x20 PUSH1 0x0 KECCAK256 SWAP1 JUMPDEST DUP2 SLOAD DUP2 MSTORE SWAP1 PUSH1 0x1 ADD SWAP1 PUSH1 0x20 ADD DUP1 DUP4 GT PUSH2 0x113 JUMPI DUP3 SWAP1 SUB PUSH1 0x1F AND DUP3 ADD SWAP2 JUMPDEST POP POP POP POP POP SWAP1 DUP1 PUSH1 0x2 ADD DUP1 SLOAD PUSH2 0x145 SWAP1 PUSH2 0x50B JUMP JUMPDEST DUP1 PUSH1 0x1F ADD PUSH1 0x20 DUP1 SWAP2 DIV MUL PUSH1 0x20 ADD PUSH1 0x40 MLOAD SWAP1 DUP2 ADD PUSH1 0x40 MSTORE DUP1 SWAP3 SWAP2 SWAP1 DUP2 DUP2 MSTORE PUSH1 0x20 ADD DUP3 DUP1 SLOAD PUSH2 0x171 SWAP1 PUSH2 0x50B JUMP JUMPDEST DUP1 ISZERO PUSH2 0x1BE JUMPI DUP1 PUSH1 0x1F LT PUSH2 0x193 JUMPI PUSH2 0x100 DUP1 DUP4 SLOAD DIV MUL DUP4 MSTORE SWAP2 PUSH1 0x20 ADD SWAP2 PUSH2 0x1BE JUMP JUMPDEST DUP3 ADD SWAP2 SWAP1 PUSH1 0x0 MSTORE PUSH1 0x20 PUSH1 0x0 KECCAK256 SWAP1 JUMPDEST DUP2 SLOAD DUP2 MSTORE SWAP1 PUSH1 0x1 ADD SWAP1 PUSH1 0x20 ADD DUP1 DUP4 GT PUSH2 0x1A1 JUMPI DUP3 SWAP1 SUB PUSH1 0x1F AND DUP3 ADD SWAP2 JUMPDEST POP POP POP POP POP SWAP1 DUP1 PUSH1 0x3 ADD SLOAD SWAP1 DUP1 PUSH1 0x4 ADD DUP1 SLOAD PUSH2 0x1D9 SWAP1 PUSH2 0x50B JUMP JUMPDEST DUP1 PUSH1 0x1F ADD PUSH1 0x20 DUP1 SWAP2 DIV MUL PUSH1 0x20 ADD PUSH1 0x40 MLOAD SWAP1 DUP2 ADD PUSH1 0x40 MSTORE DUP1 SWAP3 SWAP2 SWAP1 DUP2 DUP2 MSTORE PUSH1 0x20 ADD DUP3 DUP1 SLOAD PUSH2 0x205 SWAP1 PUSH2 0x50B JUMP JUMPDEST DUP1 ISZERO PUSH2 0x252 JUMPI DUP1 PUSH1 0x1F LT PUSH2 0x227 JUMPI PUSH2 0x100 DUP1 DUP4 SLOAD DIV MUL DUP4 MSTORE SWAP2 PUSH1 0x20 ADD SWAP2 PUSH2 0x252 JUMP JUMPDEST DUP3 ADD SWAP2 SWAP1 PUSH1 0x0 MSTORE PUSH1 0x20 PUSH1 0x0 KECCAK256 SWAP1 JUMPDEST DUP2 SLOAD DUP2 MSTORE SWAP1 PUSH1 0x1 ADD SWAP1 PUSH1 0x20 ADD DUP1 DUP4 GT PUSH2 0x235 JUMPI DUP3 SWAP1 SUB PUSH1 0x1F AND DUP3 ADD SWAP2 JUMPDEST POP POP POP POP POP SWAP1 POP DUP6 JUMP JUMPDEST DUP1 PUSH1 0x0 DUP1 ADD PUSH1 0x0 DUP3 DUP3 SLOAD PUSH2 0x270 SWAP2 SWAP1 PUSH2 0x3A6 JUMP JUMPDEST SWAP3 POP POP DUP2 SWAP1 SSTORE POP POP JUMP JUMPDEST DUP1 PUSH1 0x0 DUP1 ADD PUSH1 0x0 DUP3 DUP3 SLOAD PUSH2 0x28E SWAP2 SWAP1 PUSH2 0x43A JUMP JUMPDEST SWAP3 POP POP DUP2 SWAP1 SSTORE POP POP JUMP JUMPDEST PUSH1 0x0 DUP2 CALLDATALOAD SWAP1 POP PUSH2 0x2A7 DUP2 PUSH2 0x5B1 JUMP JUMPDEST SWAP3 SWAP2 POP POP JUMP JUMPDEST PUSH1 0x0 PUSH1 0x20 DUP3 DUP5 SUB SLT ISZERO PUSH2 0x2C3 JUMPI PUSH2 0x2C2 PUSH2 0x59B JUMP JUMPDEST JUMPDEST PUSH1 0x0 PUSH2 0x2D1 DUP5 DUP3 DUP6 ADD PUSH2 0x298 JUMP JUMPDEST SWAP2 POP POP SWAP3 SWAP2 POP POP JUMP JUMPDEST PUSH2 0x2E3 DUP2 PUSH2 0x4CE JUMP JUMPDEST DUP3 MSTORE POP POP JUMP JUMPDEST PUSH1 0x0 PUSH2 0x2F4 DUP3 PUSH2 0x38A JUMP JUMPDEST PUSH2 0x2FE DUP2 DUP6 PUSH2 0x395 JUMP JUMPDEST SWAP4 POP PUSH2 0x30E DUP2 DUP6 PUSH1 0x20 DUP7 ADD PUSH2 0x4D8 JUMP JUMPDEST PUSH2 0x317 DUP2 PUSH2 0x5A0 JUMP JUMPDEST DUP5 ADD SWAP2 POP POP SWAP3 SWAP2 POP POP JUMP JUMPDEST PUSH1 0x0 PUSH1 0xA0 DUP3 ADD SWAP1 POP PUSH2 0x337 PUSH1 0x0 DUP4 ADD DUP9 PUSH2 0x2DA JUMP JUMPDEST DUP2 DUP2 SUB PUSH1 0x20 DUP4 ADD MSTORE PUSH2 0x349 DUP2 DUP8 PUSH2 0x2E9 JUMP JUMPDEST SWAP1 POP DUP2 DUP2 SUB PUSH1 0x40 DUP4 ADD MSTORE PUSH2 0x35D DUP2 DUP7 PUSH2 0x2E9 JUMP JUMPDEST SWAP1 POP PUSH2 0x36C PUSH1 0x60 DUP4 ADD DUP6 PUSH2 0x2DA JUMP JUMPDEST DUP2 DUP2 SUB PUSH1 0x80 DUP4 ADD MSTORE PUSH2 0x37E DUP2 DUP5 PUSH2 0x2E9 JUMP JUMPDEST SWAP1 POP SWAP7 SWAP6 POP POP POP POP POP POP JUMP JUMPDEST PUSH1 0x0 DUP2 MLOAD SWAP1 POP SWAP2 SWAP1 POP JUMP JUMPDEST PUSH1 0x0 DUP3 DUP3 MSTORE PUSH1 0x20 DUP3 ADD SWAP1 POP SWAP3 SWAP2 POP POP JUMP JUMPDEST PUSH1 0x0 PUSH2 0x3B1 DUP3 PUSH2 0x4CE JUMP JUMPDEST SWAP2 POP PUSH2 0x3BC DUP4 PUSH2 0x4CE JUMP JUMPDEST SWAP3 POP DUP2 PUSH32 0x7FFFFFFFFFFFFFFFFFFFFFFFFFFFFFFFFFFFFFFFFFFFFFFFFFFFFFFFFFFFFFFF SUB DUP4 SGT PUSH1 0x0 DUP4 SLT ISZERO AND ISZERO PUSH2 0x3F7 JUMPI PUSH2 0x3F6 PUSH2 0x53D JUMP JUMPDEST JUMPDEST DUP2 PUSH32 0x8000000000000000000000000000000000000000000000000000000000000000 SUB DUP4 SLT PUSH1 0x0 DUP4 SLT AND ISZERO PUSH2 0x42F JUMPI PUSH2 0x42E PUSH2 0x53D JUMP JUMPDEST JUMPDEST DUP3 DUP3 ADD SWAP1 POP SWAP3 SWAP2 POP POP JUMP JUMPDEST PUSH1 0x0 PUSH2 0x445 DUP3 PUSH2 0x4CE JUMP JUMPDEST SWAP2 POP PUSH2 0x450 DUP4 PUSH2 0x4CE JUMP JUMPDEST SWAP3 POP DUP3 PUSH32 0x8000000000000000000000000000000000000000000000000000000000000000 ADD DUP3 SLT PUSH1 0x0 DUP5 SLT ISZERO AND ISZERO PUSH2 0x48B JUMPI PUSH2 0x48A PUSH2 0x53D JUMP JUMPDEST JUMPDEST DUP3 PUSH32 0x7FFFFFFFFFFFFFFFFFFFFFFFFFFFFFFFFFFFFFFFFFFFFFFFFFFFFFFFFFFFFFFF ADD DUP3 SGT PUSH1 0x0 DUP5 SLT AND ISZERO PUSH2 0x4C3 JUMPI PUSH2 0x4C2 PUSH2 0x53D JUMP JUMPDEST JUMPDEST DUP3 DUP3 SUB SWAP1 POP SWAP3 SWAP2 POP POP JUMP JUMPDEST PUSH1 0x0 DUP2 SWAP1 POP SWAP2 SWAP1 POP JUMP JUMPDEST PUSH1 0x0 JUMPDEST DUP4 DUP2 LT ISZERO PUSH2 0x4F6 JUMPI DUP1 DUP3 ADD MLOAD DUP2 DUP5 ADD MSTORE PUSH1 0x20 DUP2 ADD SWAP1 POP PUSH2 0x4DB JUMP JUMPDEST DUP4 DUP2 GT ISZERO PUSH2 0x505 JUMPI PUSH1 0x0 DUP5 DUP5 ADD MSTORE JUMPDEST POP POP POP POP JUMP JUMPDEST PUSH1 0x0 PUSH1 0x2 DUP3 DIV SWAP1 POP PUSH1 0x1 DUP3 AND DUP1 PUSH2 0x523 JUMPI PUSH1 0x7F DUP3 AND SWAP2 POP JUMPDEST PUSH1 0x20 DUP3 LT DUP2 EQ ISZERO PUSH2 0x537 JUMPI PUSH2 0x536 PUSH2 0x56C JUMP JUMPDEST JUMPDEST POP SWAP2 SWAP1 POP JUMP JUMPDEST PUSH32 0x4E487B7100000000000000000000000000000000000000000000000000000000 PUSH1 0x0 MSTORE PUSH1 0x11 PUSH1 0x4 MSTORE PUSH1 0x24 PUSH1 0x0 REVERT JUMPDEST PUSH32 0x4E487B7100000000000000000000000000000000000000000000000000000000 PUSH1 0x0 MSTORE PUSH1 0x22 PUSH1 0x4 MSTORE PUSH1 0x24 PUSH1 0x0 REVERT JUMPDEST PUSH1 0x0 DUP1 REVERT JUMPDEST PUSH1 0x0 PUSH1 0x1F NOT PUSH1 0x1F DUP4 ADD AND SWAP1 POP SWAP2 SWAP1 POP JUMP JUMPDEST PUSH2 0x5BA DUP2 PUSH2 0x4CE JUMP JUMPDEST DUP2 EQ PUSH2 0x5C5 JUMPI PUSH1 0x0 DUP1 REVERT JUMPDEST POP JUMP INVALID LOG2 PUSH5 0x6970667358 0x22 SLT KECCAK256 BALANCE DIV 0xC8 0x4D 0x5C 0xAF 0xC8 TIMESTAMP 0xEC SIGNEXTEND 0xD3 SELFDESTRUCT 0xE2 GASPRICE 0x2C 0xF8 SWAP2 0xD1 0xB6 SWAP16 0xC8 0xA6 LOG0 0xC9 MUL 0xE0 JUMP 0xB2 0xB0 0x27 CALL PUSH21 0x64736F6C6343000807003330783542333844613661 CALLDATACOPY ADDRESS BALANCE PUSH4 0x35363835 CALLVALUE CALLDATALOAD PUSH5 0x4366634230 CALLER CHAINID PUSH4 0x42383735 PUSH7 0x35366265646443 CALLVALUE "
				},
				"gasEstimates": {
					"creation": {
						"codeDepositCost": "306800",
						"executionCost": "infinite",
						"totalCost": "infinite"
					},
					"external": {
						"c1()": "infinite",
						"ingresarSaldo(int256)": "infinite",
						"retirarSaldo(int256)": "infinite"
					}
				},
				"methodIdentifiers": {
					"c1()": "5f57697c",
					"ingresarSaldo(int256)": "93ba1e60",
					"retirarSaldo(int256)": "c28a41ec"
				}
			},
			"storageLayout": {
				"storage": [
					{
						"astId": 22,
						"contract": "contracts/Ejercicio1CuentaAhorro.sol:Ejercicio1CuentaAhorro",
						"label": "c1",
						"offset": 0,
						"slot": "0",
						"type": "t_struct(CuentaAhorro)12_storage"
					}
				],
				"types": {
					"t_int256": {
						"encoding": "inplace",
						"label": "int256",
						"numberOfBytes": "32"
					},
					"t_string_storage": {
						"encoding": "bytes",
						"label": "string",
						"numberOfBytes": "32"
					},
					"t_struct(CuentaAhorro)12_storage": {
						"encoding": "inplace",
						"label": "struct Ejercicio1CuentaAhorro.CuentaAhorro",
						"members": [
							{
								"astId": 3,
								"contract": "contracts/Ejercicio1CuentaAhorro.sol:Ejercicio1CuentaAhorro",
								"label": "saldo",
								"offset": 0,
								"slot": "0",
								"type": "t_int256"
							},
							{
								"astId": 5,
								"contract": "contracts/Ejercicio1CuentaAhorro.sol:Ejercicio1CuentaAhorro",
								"label": "addressCuenta",
								"offset": 0,
								"slot": "1",
								"type": "t_string_storage"
							},
							{
								"astId": 7,
								"contract": "contracts/Ejercicio1CuentaAhorro.sol:Ejercicio1CuentaAhorro",
								"label": "nombre",
								"offset": 0,
								"slot": "2",
								"type": "t_string_storage"
							},
							{
								"astId": 9,
								"contract": "contracts/Ejercicio1CuentaAhorro.sol:Ejercicio1CuentaAhorro",
								"label": "edad",
								"offset": 0,
								"slot": "3",
								"type": "t_int256"
							},
							{
								"astId": 11,
								"contract": "contracts/Ejercicio1CuentaAhorro.sol:Ejercicio1CuentaAhorro",
								"label": "colorFavorito",
								"offset": 0,
								"slot": "4",
								"type": "t_string_storage"
							}
						],
						"numberOfBytes": "160"
					}
				}
			},
			"userdoc": {
				"kind": "user",
				"methods": {},
				"version": 1
			}
		}
	}
}