{
	"contracts/Ejercicio1CuentaAhorro.sol": {
		"Ejercicio1CuentaAhorro": {
			"abi": [
				{
					"inputs": [
						{
							"internalType": "int256",
							"name": "saldoo",
							"type": "int256"
						}
					],
					"name": "ingresarSaldo",
					"outputs": [],
					"stateMutability": "nonpayable",
					"type": "function"
				}
			],
			"devdoc": {
				"kind": "dev",
				"methods": {},
				"version": 1
			},
			"evm": {
				"assembly": "    /* \"contracts/Ejercicio1CuentaAhorro.sol\":410:523  contract Ejercicio1CuentaAhorro {\r... */\n  mstore(0x40, 0x80)\n  callvalue\n  dup1\n  iszero\n  tag_1\n  jumpi\n  0x00\n  dup1\n  revert\ntag_1:\n  pop\n  dataSize(sub_0)\n  dup1\n  dataOffset(sub_0)\n  0x00\n  codecopy\n  0x00\n  return\nstop\n\nsub_0: assembly {\n        /* \"contracts/Ejercicio1CuentaAhorro.sol\":410:523  contract Ejercicio1CuentaAhorro {\r... */\n      mstore(0x40, 0x80)\n      callvalue\n      dup1\n      iszero\n      tag_1\n      jumpi\n      0x00\n      dup1\n      revert\n    tag_1:\n      pop\n      jumpi(tag_2, lt(calldatasize, 0x04))\n      shr(0xe0, calldataload(0x00))\n      dup1\n      0x93ba1e60\n      eq\n      tag_3\n      jumpi\n    tag_2:\n      0x00\n      dup1\n      revert\n        /* \"contracts/Ejercicio1CuentaAhorro.sol\":467:520  function ingresarSaldo (int saldoo) public {\r... */\n    tag_3:\n      tag_4\n      0x04\n      dup1\n      calldatasize\n      sub\n      dup2\n      add\n      swap1\n      tag_5\n      swap2\n      swap1\n      tag_6\n      jump\t// in\n    tag_5:\n      tag_7\n      jump\t// in\n    tag_4:\n      stop\n    tag_7:\n      pop\n      jump\t// out\n        /* \"#utility.yul\":7:144   */\n    tag_10:\n        /* \"#utility.yul\":52:57   */\n      0x00\n        /* \"#utility.yul\":90:96   */\n      dup2\n        /* \"#utility.yul\":77:97   */\n      calldataload\n        /* \"#utility.yul\":68:97   */\n      swap1\n      pop\n        /* \"#utility.yul\":106:138   */\n      tag_12\n        /* \"#utility.yul\":132:137   */\n      dup2\n        /* \"#utility.yul\":106:138   */\n      tag_13\n      jump\t// in\n    tag_12:\n        /* \"#utility.yul\":7:144   */\n      swap3\n      swap2\n      pop\n      pop\n      jump\t// out\n        /* \"#utility.yul\":150:477   */\n    tag_6:\n        /* \"#utility.yul\":208:214   */\n      0x00\n        /* \"#utility.yul\":257:259   */\n      0x20\n        /* \"#utility.yul\":245:254   */\n      dup3\n        /* \"#utility.yul\":236:243   */\n      dup5\n        /* \"#utility.yul\":232:255   */\n      sub\n        /* \"#utility.yul\":228:260   */\n      slt\n        /* \"#utility.yul\":225:344   */\n      iszero\n      tag_15\n      jumpi\n        /* \"#utility.yul\":263:342   */\n      tag_16\n      tag_17\n      jump\t// in\n    tag_16:\n        /* \"#utility.yul\":225:344   */\n    tag_15:\n        /* \"#utility.yul\":383:384   */\n      0x00\n        /* \"#utility.yul\":408:460   */\n      tag_18\n        /* \"#utility.yul\":452:459   */\n      dup5\n        /* \"#utility.yul\":443:449   */\n      dup3\n        /* \"#utility.yul\":432:441   */\n      dup6\n        /* \"#utility.yul\":428:450   */\n      add\n        /* \"#utility.yul\":408:460   */\n      tag_10\n      jump\t// in\n    tag_18:\n        /* \"#utility.yul\":398:460   */\n      swap2\n      pop\n        /* \"#utility.yul\":354:470   */\n      pop\n        /* \"#utility.yul\":150:477   */\n      swap3\n      swap2\n      pop\n      pop\n      jump\t// out\n        /* \"#utility.yul\":564:640   */\n    tag_21:\n        /* \"#utility.yul\":600:607   */\n      0x00\n        /* \"#utility.yul\":629:634   */\n      dup2\n        /* \"#utility.yul\":618:634   */\n      swap1\n      pop\n        /* \"#utility.yul\":564:640   */\n      swap2\n      swap1\n      pop\n      jump\t// out\n        /* \"#utility.yul\":769:886   */\n    tag_17:\n        /* \"#utility.yul\":878:879   */\n      0x00\n        /* \"#utility.yul\":875:876   */\n      dup1\n        /* \"#utility.yul\":868:880   */\n      revert\n        /* \"#utility.yul\":892:1012   */\n    tag_13:\n        /* \"#utility.yul\":964:987   */\n      tag_27\n        /* \"#utility.yul\":981:986   */\n      dup2\n        /* \"#utility.yul\":964:987   */\n      tag_21\n      jump\t// in\n    tag_27:\n        /* \"#utility.yul\":957:962   */\n      dup2\n        /* \"#utility.yul\":954:988   */\n      eq\n        /* \"#utility.yul\":944:1006   */\n      tag_28\n      jumpi\n        /* \"#utility.yul\":1002:1003   */\n      0x00\n        /* \"#utility.yul\":999:1000   */\n      dup1\n        /* \"#utility.yul\":992:1004   */\n      revert\n        /* \"#utility.yul\":944:1006   */\n    tag_28:\n        /* \"#utility.yul\":892:1012   */\n      pop\n      jump\t// out\n\n    auxdata: 0xa26469706673582212206c7b2881331a0bb340b7654cc0ea94884c25c2e8a7193366f6b4b2e59ddaa48e64736f6c63430008070033\n}\n",
				"bytecode": {
					"linkReferences": {},
					"object": "608060405234801561001057600080fd5b5060dc8061001f6000396000f3fe6080604052348015600f57600080fd5b506004361060285760003560e01c806393ba1e6014602d575b600080fd5b60436004803603810190603f9190605b565b6045565b005b50565b6000813590506055816092565b92915050565b600060208284031215606e57606d608d565b5b6000607a848285016048565b91505092915050565b6000819050919050565b600080fd5b6099816083565b811460a357600080fd5b5056fea26469706673582212206c7b2881331a0bb340b7654cc0ea94884c25c2e8a7193366f6b4b2e59ddaa48e64736f6c63430008070033",
					"opcodes": "PUSH1 0x80 PUSH1 0x40 MSTORE CALLVALUE DUP1 ISZERO PUSH2 0x10 JUMPI PUSH1 0x0 DUP1 REVERT JUMPDEST POP PUSH1 0xDC DUP1 PUSH2 0x1F PUSH1 0x0 CODECOPY PUSH1 0x0 RETURN INVALID PUSH1 0x80 PUSH1 0x40 MSTORE CALLVALUE DUP1 ISZERO PUSH1 0xF JUMPI PUSH1 0x0 DUP1 REVERT JUMPDEST POP PUSH1 0x4 CALLDATASIZE LT PUSH1 0x28 JUMPI PUSH1 0x0 CALLDATALOAD PUSH1 0xE0 SHR DUP1 PUSH4 0x93BA1E60 EQ PUSH1 0x2D JUMPI JUMPDEST PUSH1 0x0 DUP1 REVERT JUMPDEST PUSH1 0x43 PUSH1 0x4 DUP1 CALLDATASIZE SUB DUP2 ADD SWAP1 PUSH1 0x3F SWAP2 SWAP1 PUSH1 0x5B JUMP JUMPDEST PUSH1 0x45 JUMP JUMPDEST STOP JUMPDEST POP JUMP JUMPDEST PUSH1 0x0 DUP2 CALLDATALOAD SWAP1 POP PUSH1 0x55 DUP2 PUSH1 0x92 JUMP JUMPDEST SWAP3 SWAP2 POP POP JUMP JUMPDEST PUSH1 0x0 PUSH1 0x20 DUP3 DUP5 SUB SLT ISZERO PUSH1 0x6E JUMPI PUSH1 0x6D PUSH1 0x8D JUMP JUMPDEST JUMPDEST PUSH1 0x0 PUSH1 0x7A DUP5 DUP3 DUP6 ADD PUSH1 0x48 JUMP JUMPDEST SWAP2 POP POP SWAP3 SWAP2 POP POP JUMP JUMPDEST PUSH1 0x0 DUP2 SWAP1 POP SWAP2 SWAP1 POP JUMP JUMPDEST PUSH1 0x0 DUP1 REVERT JUMPDEST PUSH1 0x99 DUP2 PUSH1 0x83 JUMP JUMPDEST DUP2 EQ PUSH1 0xA3 JUMPI PUSH1 0x0 DUP1 REVERT JUMPDEST POP JUMP INVALID LOG2 PUSH5 0x6970667358 0x22 SLT KECCAK256 PUSH13 0x7B2881331A0BB340B7654CC0EA SWAP5 DUP9 0x4C 0x25 0xC2 0xE8 0xA7 NOT CALLER PUSH7 0xF6B4B2E59DDAA4 DUP15 PUSH5 0x736F6C6343 STOP ADDMOD SMOD STOP CALLER "
				},
				"gasEstimates": {
					"creation": {
						"codeDepositCost": "44000",
						"executionCost": "93",
						"totalCost": "44093"
					},
					"external": {
						"ingresarSaldo(int256)": "384"
					}
				},
				"methodIdentifiers": {
					"ingresarSaldo(int256)": "93ba1e60"
				}
			},
			"storageLayout": {
				"storage": [
					{
						"astId": 3,
						"contract": "contracts/Ejercicio1CuentaAhorro.sol:Ejercicio1CuentaAhorro",
						"label": "saldo",
						"offset": 0,
						"slot": "0",
						"type": "t_int256"
					}
				],
				"types": {
					"t_int256": {
						"encoding": "inplace",
						"label": "int256",
						"numberOfBytes": "32"
					}
				}
			},
			"userdoc": {
				"kind": "user",
				"methods": {},
				"version": 1
			}
		}
	}
}