{
	"contracts/Ejercicio1CuentaAhorro.sol": {
		"Ejercicio1CuentaAhorro": {
			"abi": [
				{
					"inputs": [],
					"name": "c1",
					"outputs": [
						{
							"internalType": "int256",
							"name": "saldo",
							"type": "int256"
						},
						{
							"internalType": "address",
							"name": "addressCuenta",
							"type": "address"
						},
						{
							"internalType": "string",
							"name": "nombre",
							"type": "string"
						},
						{
							"internalType": "int256",
							"name": "edad",
							"type": "int256"
						},
						{
							"internalType": "string",
							"name": "colorFavorito",
							"type": "string"
						}
					],
					"stateMutability": "view",
					"type": "function"
				},
				{
					"inputs": [
						{
							"internalType": "int256",
							"name": "saldoParaIngresar",
							"type": "int256"
						}
					],
					"name": "ingresarSaldo",
					"outputs": [],
					"stateMutability": "nonpayable",
					"type": "function"
				},
				{
					"inputs": [
						{
							"internalType": "address",
							"name": "",
							"type": "address"
						}
					],
					"name": "mappingCuentaAhorro",
					"outputs": [
						{
							"internalType": "int256",
							"name": "saldo",
							"type": "int256"
						},
						{
							"internalType": "address",
							"name": "addressCuenta",
							"type": "address"
						},
						{
							"internalType": "string",
							"name": "nombre",
							"type": "string"
						},
						{
							"internalType": "int256",
							"name": "edad",
							"type": "int256"
						},
						{
							"internalType": "string",
							"name": "colorFavorito",
							"type": "string"
						}
					],
					"stateMutability": "view",
					"type": "function"
				},
				{
					"inputs": [
						{
							"internalType": "int256",
							"name": "saldoParaRetirar",
							"type": "int256"
						}
					],
					"name": "retirarSaldo",
					"outputs": [],
					"stateMutability": "nonpayable",
					"type": "function"
				}
			],
			"devdoc": {
				"kind": "dev",
				"methods": {},
				"version": 1
			},
			"evm": {
				"assembly": "    /* \"contracts/Ejercicio1CuentaAhorro.sol\":2111:3484  contract Ejercicio1CuentaAhorro {\r... */\n  mstore(0x40, 0x80)\n    /* \"contracts/Ejercicio1CuentaAhorro.sol\":2340:2421  CuentaAhorro(0, 0x5B38Da6a701c568545dCfcB03FcB875f56beddC4, \"Ivy\", 25 ,\"Purpura\") */\n  mload(0x40)\n  dup1\n  0xa0\n  add\n  0x40\n  mstore\n  dup1\n    /* \"contracts/Ejercicio1CuentaAhorro.sol\":2353:2354  0 */\n  0x00\n    /* \"contracts/Ejercicio1CuentaAhorro.sol\":2340:2421  CuentaAhorro(0, 0x5B38Da6a701c568545dCfcB03FcB875f56beddC4, \"Ivy\", 25 ,\"Purpura\") */\n  dup2\n  mstore\n  0x20\n  add\n    /* \"contracts/Ejercicio1CuentaAhorro.sol\":2356:2398  0x5B38Da6a701c568545dCfcB03FcB875f56beddC4 */\n  0x5b38da6a701c568545dcfcb03fcb875f56beddc4\n    /* \"contracts/Ejercicio1CuentaAhorro.sol\":2340:2421  CuentaAhorro(0, 0x5B38Da6a701c568545dCfcB03FcB875f56beddC4, \"Ivy\", 25 ,\"Purpura\") */\n  0xffffffffffffffffffffffffffffffffffffffff\n  and\n  dup2\n  mstore\n  0x20\n  add\n  mload(0x40)\n  dup1\n  0x40\n  add\n  0x40\n  mstore\n  dup1\n  0x03\n  dup2\n  mstore\n  0x20\n  add\n  0x4976790000000000000000000000000000000000000000000000000000000000\n  dup2\n  mstore\n  pop\n  dup2\n  mstore\n  0x20\n  add\n    /* \"contracts/Ejercicio1CuentaAhorro.sol\":2407:2409  25 */\n  0x19\n    /* \"contracts/Ejercicio1CuentaAhorro.sol\":2340:2421  CuentaAhorro(0, 0x5B38Da6a701c568545dCfcB03FcB875f56beddC4, \"Ivy\", 25 ,\"Purpura\") */\n  dup2\n  mstore\n  0x20\n  add\n  mload(0x40)\n  dup1\n  0x40\n  add\n  0x40\n  mstore\n  dup1\n  0x07\n  dup2\n  mstore\n  0x20\n  add\n  0x5075727075726100000000000000000000000000000000000000000000000000\n  dup2\n  mstore\n  pop\n  dup2\n  mstore\n  pop\n    /* \"contracts/Ejercicio1CuentaAhorro.sol\":2315:2421  CuentaAhorro public c1 = CuentaAhorro(0, 0x5B38Da6a701c568545dCfcB03FcB875f56beddC4, \"Ivy\", 25 ,\"Purpura\") */\n  0x00\n  dup1\n  dup3\n  add\n  mload\n  dup2\n  0x00\n  add\n  sstore\n  0x20\n  dup3\n  add\n  mload\n  dup2\n  0x01\n  add\n  exp(0x0100, 0x00)\n  dup2\n  sload\n  dup2\n  0xffffffffffffffffffffffffffffffffffffffff\n  mul\n  not\n  and\n  swap1\n  dup4\n  0xffffffffffffffffffffffffffffffffffffffff\n  and\n  mul\n  or\n  swap1\n  sstore\n  pop\n  0x40\n  dup3\n  add\n  mload\n  dup2\n  0x02\n  add\n  swap1\n  dup1\n  mload\n  swap1\n  0x20\n  add\n  swap1\n  tag_1\n  swap3\n  swap2\n  swap1\n  tag_2\n  jump\t// in\ntag_1:\n  pop\n  0x60\n  dup3\n  add\n  mload\n  dup2\n  0x03\n  add\n  sstore\n  0x80\n  dup3\n  add\n  mload\n  dup2\n  0x04\n  add\n  swap1\n  dup1\n  mload\n  swap1\n  0x20\n  add\n  swap1\n  tag_3\n  swap3\n  swap2\n  swap1\n  tag_2\n  jump\t// in\ntag_3:\n  pop\n  pop\n  pop\n    /* \"contracts/Ejercicio1CuentaAhorro.sol\":2111:3484  contract Ejercicio1CuentaAhorro {\r... */\n  callvalue\n  dup1\n  iszero\n  tag_4\n  jumpi\n  0x00\n  dup1\n  revert\ntag_4:\n  pop\n  jump(tag_5)\ntag_2:\n  dup3\n  dup1\n  sload\n  tag_6\n  swap1\n  tag_7\n  jump\t// in\ntag_6:\n  swap1\n  0x00\n  mstore\n  keccak256(0x00, 0x20)\n  swap1\n  0x1f\n  add\n  0x20\n  swap1\n  div\n  dup2\n  add\n  swap3\n  dup3\n  tag_9\n  jumpi\n  0x00\n  dup6\n  sstore\n  jump(tag_8)\ntag_9:\n  dup3\n  0x1f\n  lt\n  tag_10\n  jumpi\n  dup1\n  mload\n  not(0xff)\n  and\n  dup4\n  dup1\n  add\n  or\n  dup6\n  sstore\n  jump(tag_8)\ntag_10:\n  dup3\n  dup1\n  add\n  0x01\n  add\n  dup6\n  sstore\n  dup3\n  iszero\n  tag_8\n  jumpi\n  swap2\n  dup3\n  add\ntag_11:\n  dup3\n  dup2\n  gt\n  iszero\n  tag_12\n  jumpi\n  dup3\n  mload\n  dup3\n  sstore\n  swap2\n  0x20\n  add\n  swap2\n  swap1\n  0x01\n  add\n  swap1\n  jump(tag_11)\ntag_12:\ntag_8:\n  pop\n  swap1\n  pop\n  tag_13\n  swap2\n  swap1\n  tag_14\n  jump\t// in\ntag_13:\n  pop\n  swap1\n  jump\t// out\ntag_14:\ntag_15:\n  dup1\n  dup3\n  gt\n  iszero\n  tag_16\n  jumpi\n  0x00\n  dup2\n  0x00\n  swap1\n  sstore\n  pop\n  0x01\n  add\n  jump(tag_15)\ntag_16:\n  pop\n  swap1\n  jump\t// out\n    /* \"#utility.yul\":7:327   */\ntag_7:\n    /* \"#utility.yul\":51:57   */\n  0x00\n    /* \"#utility.yul\":88:89   */\n  0x02\n    /* \"#utility.yul\":82:86   */\n  dup3\n    /* \"#utility.yul\":78:90   */\n  div\n    /* \"#utility.yul\":68:90   */\n  swap1\n  pop\n    /* \"#utility.yul\":135:136   */\n  0x01\n    /* \"#utility.yul\":129:133   */\n  dup3\n    /* \"#utility.yul\":125:137   */\n  and\n    /* \"#utility.yul\":156:174   */\n  dup1\n    /* \"#utility.yul\":146:227   */\n  tag_19\n  jumpi\n    /* \"#utility.yul\":212:216   */\n  0x7f\n    /* \"#utility.yul\":204:210   */\n  dup3\n    /* \"#utility.yul\":200:217   */\n  and\n    /* \"#utility.yul\":190:217   */\n  swap2\n  pop\n    /* \"#utility.yul\":146:227   */\ntag_19:\n    /* \"#utility.yul\":274:276   */\n  0x20\n    /* \"#utility.yul\":266:272   */\n  dup3\n    /* \"#utility.yul\":263:277   */\n  lt\n    /* \"#utility.yul\":243:261   */\n  dup2\n    /* \"#utility.yul\":240:278   */\n  eq\n    /* \"#utility.yul\":237:321   */\n  iszero\n  tag_20\n  jumpi\n    /* \"#utility.yul\":293:311   */\n  tag_21\n  tag_22\n  jump\t// in\ntag_21:\n    /* \"#utility.yul\":237:321   */\ntag_20:\n    /* \"#utility.yul\":58:327   */\n  pop\n    /* \"#utility.yul\":7:327   */\n  swap2\n  swap1\n  pop\n  jump\t// out\n    /* \"#utility.yul\":333:513   */\ntag_22:\n    /* \"#utility.yul\":381:458   */\n  0x4e487b7100000000000000000000000000000000000000000000000000000000\n    /* \"#utility.yul\":378:379   */\n  0x00\n    /* \"#utility.yul\":371:459   */\n  mstore\n    /* \"#utility.yul\":478:482   */\n  0x22\n    /* \"#utility.yul\":475:476   */\n  0x04\n    /* \"#utility.yul\":468:483   */\n  mstore\n    /* \"#utility.yul\":502:506   */\n  0x24\n    /* \"#utility.yul\":499:500   */\n  0x00\n    /* \"#utility.yul\":492:507   */\n  revert\n    /* \"contracts/Ejercicio1CuentaAhorro.sol\":2111:3484  contract Ejercicio1CuentaAhorro {\r... */\ntag_5:\n  dataSize(sub_0)\n  dup1\n  dataOffset(sub_0)\n  0x00\n  codecopy\n  0x00\n  return\nstop\n\nsub_0: assembly {\n        /* \"contracts/Ejercicio1CuentaAhorro.sol\":2111:3484  contract Ejercicio1CuentaAhorro {\r... */\n      mstore(0x40, 0x80)\n      callvalue\n      dup1\n      iszero\n      tag_1\n      jumpi\n      0x00\n      dup1\n      revert\n    tag_1:\n      pop\n      jumpi(tag_2, lt(calldatasize, 0x04))\n      shr(0xe0, calldataload(0x00))\n      dup1\n      0x5f57697c\n      eq\n      tag_3\n      jumpi\n      dup1\n      0x63e4cdcc\n      eq\n      tag_4\n      jumpi\n      dup1\n      0x93ba1e60\n      eq\n      tag_5\n      jumpi\n      dup1\n      0xc28a41ec\n      eq\n      tag_6\n      jumpi\n    tag_2:\n      0x00\n      dup1\n      revert\n        /* \"contracts/Ejercicio1CuentaAhorro.sol\":2315:2421  CuentaAhorro public c1 = CuentaAhorro(0, 0x5B38Da6a701c568545dCfcB03FcB875f56beddC4, \"Ivy\", 25 ,\"Purpura\") */\n    tag_3:\n      tag_7\n      tag_8\n      jump\t// in\n    tag_7:\n      mload(0x40)\n      tag_9\n      swap6\n      swap5\n      swap4\n      swap3\n      swap2\n      swap1\n      tag_10\n      jump\t// in\n    tag_9:\n      mload(0x40)\n      dup1\n      swap2\n      sub\n      swap1\n      return\n        /* \"contracts/Ejercicio1CuentaAhorro.sol\":2430:2490  mapping (address => CuentaAhorro) public mappingCuentaAhorro */\n    tag_4:\n      tag_11\n      0x04\n      dup1\n      calldatasize\n      sub\n      dup2\n      add\n      swap1\n      tag_12\n      swap2\n      swap1\n      tag_13\n      jump\t// in\n    tag_12:\n      tag_14\n      jump\t// in\n    tag_11:\n      mload(0x40)\n      tag_15\n      swap6\n      swap5\n      swap4\n      swap3\n      swap2\n      swap1\n      tag_10\n      jump\t// in\n    tag_15:\n      mload(0x40)\n      dup1\n      swap2\n      sub\n      swap1\n      return\n        /* \"contracts/Ejercicio1CuentaAhorro.sol\":2788:3002  function ingresarSaldo (int saldoParaIngresar) public {\r... */\n    tag_5:\n      tag_16\n      0x04\n      dup1\n      calldatasize\n      sub\n      dup2\n      add\n      swap1\n      tag_17\n      swap2\n      swap1\n      tag_18\n      jump\t// in\n    tag_17:\n      tag_19\n      jump\t// in\n    tag_16:\n      stop\n        /* \"contracts/Ejercicio1CuentaAhorro.sol\":3010:3355  function retirarSaldo (int saldoParaRetirar) public {\r... */\n    tag_6:\n      tag_20\n      0x04\n      dup1\n      calldatasize\n      sub\n      dup2\n      add\n      swap1\n      tag_21\n      swap2\n      swap1\n      tag_18\n      jump\t// in\n    tag_21:\n      tag_22\n      jump\t// in\n    tag_20:\n      stop\n        /* \"contracts/Ejercicio1CuentaAhorro.sol\":2315:2421  CuentaAhorro public c1 = CuentaAhorro(0, 0x5B38Da6a701c568545dCfcB03FcB875f56beddC4, \"Ivy\", 25 ,\"Purpura\") */\n    tag_8:\n      0x00\n      dup1\n      0x00\n      add\n      sload\n      swap1\n      dup1\n      0x01\n      add\n      0x00\n      swap1\n      sload\n      swap1\n      0x0100\n      exp\n      swap1\n      div\n      0xffffffffffffffffffffffffffffffffffffffff\n      and\n      swap1\n      dup1\n      0x02\n      add\n      dup1\n      sload\n      tag_23\n      swap1\n      tag_24\n      jump\t// in\n    tag_23:\n      dup1\n      0x1f\n      add\n      0x20\n      dup1\n      swap2\n      div\n      mul\n      0x20\n      add\n      mload(0x40)\n      swap1\n      dup2\n      add\n      0x40\n      mstore\n      dup1\n      swap3\n      swap2\n      swap1\n      dup2\n      dup2\n      mstore\n      0x20\n      add\n      dup3\n      dup1\n      sload\n      tag_25\n      swap1\n      tag_24\n      jump\t// in\n    tag_25:\n      dup1\n      iszero\n      tag_26\n      jumpi\n      dup1\n      0x1f\n      lt\n      tag_27\n      jumpi\n      0x0100\n      dup1\n      dup4\n      sload\n      div\n      mul\n      dup4\n      mstore\n      swap2\n      0x20\n      add\n      swap2\n      jump(tag_26)\n    tag_27:\n      dup3\n      add\n      swap2\n      swap1\n      0x00\n      mstore\n      keccak256(0x00, 0x20)\n      swap1\n    tag_28:\n      dup2\n      sload\n      dup2\n      mstore\n      swap1\n      0x01\n      add\n      swap1\n      0x20\n      add\n      dup1\n      dup4\n      gt\n      tag_28\n      jumpi\n      dup3\n      swap1\n      sub\n      0x1f\n      and\n      dup3\n      add\n      swap2\n    tag_26:\n      pop\n      pop\n      pop\n      pop\n      pop\n      swap1\n      dup1\n      0x03\n      add\n      sload\n      swap1\n      dup1\n      0x04\n      add\n      dup1\n      sload\n      tag_29\n      swap1\n      tag_24\n      jump\t// in\n    tag_29:\n      dup1\n      0x1f\n      add\n      0x20\n      dup1\n      swap2\n      div\n      mul\n      0x20\n      add\n      mload(0x40)\n      swap1\n      dup2\n      add\n      0x40\n      mstore\n      dup1\n      swap3\n      swap2\n      swap1\n      dup2\n      dup2\n      mstore\n      0x20\n      add\n      dup3\n      dup1\n      sload\n      tag_30\n      swap1\n      tag_24\n      jump\t// in\n    tag_30:\n      dup1\n      iszero\n      tag_31\n      jumpi\n      dup1\n      0x1f\n      lt\n      tag_32\n      jumpi\n      0x0100\n      dup1\n      dup4\n      sload\n      div\n      mul\n      dup4\n      mstore\n      swap2\n      0x20\n      add\n      swap2\n      jump(tag_31)\n    tag_32:\n      dup3\n      add\n      swap2\n      swap1\n      0x00\n      mstore\n      keccak256(0x00, 0x20)\n      swap1\n    tag_33:\n      dup2\n      sload\n      dup2\n      mstore\n      swap1\n      0x01\n      add\n      swap1\n      0x20\n      add\n      dup1\n      dup4\n      gt\n      tag_33\n      jumpi\n      dup3\n      swap1\n      sub\n      0x1f\n      and\n      dup3\n      add\n      swap2\n    tag_31:\n      pop\n      pop\n      pop\n      pop\n      pop\n      swap1\n      pop\n      dup6\n      jump\t// out\n        /* \"contracts/Ejercicio1CuentaAhorro.sol\":2430:2490  mapping (address => CuentaAhorro) public mappingCuentaAhorro */\n    tag_14:\n      mstore(0x20, 0x05)\n      dup1\n      0x00\n      mstore\n      keccak256(0x00, 0x40)\n      0x00\n      swap2\n      pop\n      swap1\n      pop\n      dup1\n      0x00\n      add\n      sload\n      swap1\n      dup1\n      0x01\n      add\n      0x00\n      swap1\n      sload\n      swap1\n      0x0100\n      exp\n      swap1\n      div\n      0xffffffffffffffffffffffffffffffffffffffff\n      and\n      swap1\n      dup1\n      0x02\n      add\n      dup1\n      sload\n      tag_34\n      swap1\n      tag_24\n      jump\t// in\n    tag_34:\n      dup1\n      0x1f\n      add\n      0x20\n      dup1\n      swap2\n      div\n      mul\n      0x20\n      add\n      mload(0x40)\n      swap1\n      dup2\n      add\n      0x40\n      mstore\n      dup1\n      swap3\n      swap2\n      swap1\n      dup2\n      dup2\n      mstore\n      0x20\n      add\n      dup3\n      dup1\n      sload\n      tag_35\n      swap1\n      tag_24\n      jump\t// in\n    tag_35:\n      dup1\n      iszero\n      tag_36\n      jumpi\n      dup1\n      0x1f\n      lt\n      tag_37\n      jumpi\n      0x0100\n      dup1\n      dup4\n      sload\n      div\n      mul\n      dup4\n      mstore\n      swap2\n      0x20\n      add\n      swap2\n      jump(tag_36)\n    tag_37:\n      dup3\n      add\n      swap2\n      swap1\n      0x00\n      mstore\n      keccak256(0x00, 0x20)\n      swap1\n    tag_38:\n      dup2\n      sload\n      dup2\n      mstore\n      swap1\n      0x01\n      add\n      swap1\n      0x20\n      add\n      dup1\n      dup4\n      gt\n      tag_38\n      jumpi\n      dup3\n      swap1\n      sub\n      0x1f\n      and\n      dup3\n      add\n      swap2\n    tag_36:\n      pop\n      pop\n      pop\n      pop\n      pop\n      swap1\n      dup1\n      0x03\n      add\n      sload\n      swap1\n      dup1\n      0x04\n      add\n      dup1\n      sload\n      tag_39\n      swap1\n      tag_24\n      jump\t// in\n    tag_39:\n      dup1\n      0x1f\n      add\n      0x20\n      dup1\n      swap2\n      div\n      mul\n      0x20\n      add\n      mload(0x40)\n      swap1\n      dup2\n      add\n      0x40\n      mstore\n      dup1\n      swap3\n      swap2\n      swap1\n      dup2\n      dup2\n      mstore\n      0x20\n      add\n      dup3\n      dup1\n      sload\n      tag_40\n      swap1\n      tag_24\n      jump\t// in\n    tag_40:\n      dup1\n      iszero\n      tag_41\n      jumpi\n      dup1\n      0x1f\n      lt\n      tag_42\n      jumpi\n      0x0100\n      dup1\n      dup4\n      sload\n      div\n      mul\n      dup4\n      mstore\n      swap2\n      0x20\n      add\n      swap2\n      jump(tag_41)\n    tag_42:\n      dup3\n      add\n      swap2\n      swap1\n      0x00\n      mstore\n      keccak256(0x00, 0x20)\n      swap1\n    tag_43:\n      dup2\n      sload\n      dup2\n      mstore\n      swap1\n      0x01\n      add\n      swap1\n      0x20\n      add\n      dup1\n      dup4\n      gt\n      tag_43\n      jumpi\n      dup3\n      swap1\n      sub\n      0x1f\n      and\n      dup3\n      add\n      swap2\n    tag_41:\n      pop\n      pop\n      pop\n      pop\n      pop\n      swap1\n      pop\n      dup6\n      jump\t// out\n        /* \"contracts/Ejercicio1CuentaAhorro.sol\":2788:3002  function ingresarSaldo (int saldoParaIngresar) public {\r... */\n    tag_19:\n        /* \"contracts/Ejercicio1CuentaAhorro.sol\":2881:2882  0 */\n      0x00\n        /* \"contracts/Ejercicio1CuentaAhorro.sol\":2861:2878  saldoParaIngresar */\n      dup2\n        /* \"contracts/Ejercicio1CuentaAhorro.sol\":2861:2882  saldoParaIngresar > 0 */\n      sgt\n        /* \"contracts/Ejercicio1CuentaAhorro.sol\":2853:2925  require(saldoParaIngresar > 0, \"saldo para ingresar debe ser mayor a 0\") */\n      tag_45\n      jumpi\n      mload(0x40)\n      0x08c379a000000000000000000000000000000000000000000000000000000000\n      dup2\n      mstore\n      0x04\n      add\n      tag_46\n      swap1\n      tag_47\n      jump\t// in\n    tag_46:\n      mload(0x40)\n      dup1\n      swap2\n      sub\n      swap1\n      revert\n    tag_45:\n        /* \"contracts/Ejercicio1CuentaAhorro.sol\":2977:2994  saldoParaIngresar */\n      dup1\n        /* \"contracts/Ejercicio1CuentaAhorro.sol\":2936:2955  mappingCuentaAhorro */\n      0x05\n        /* \"contracts/Ejercicio1CuentaAhorro.sol\":2936:2967  mappingCuentaAhorro[msg.sender] */\n      0x00\n        /* \"contracts/Ejercicio1CuentaAhorro.sol\":2956:2966  msg.sender */\n      caller\n        /* \"contracts/Ejercicio1CuentaAhorro.sol\":2936:2967  mappingCuentaAhorro[msg.sender] */\n      0xffffffffffffffffffffffffffffffffffffffff\n      and\n      0xffffffffffffffffffffffffffffffffffffffff\n      and\n      dup2\n      mstore\n      0x20\n      add\n      swap1\n      dup2\n      mstore\n      0x20\n      add\n      0x00\n      keccak256\n        /* \"contracts/Ejercicio1CuentaAhorro.sol\":2936:2973  mappingCuentaAhorro[msg.sender].saldo */\n      0x00\n      add\n      0x00\n        /* \"contracts/Ejercicio1CuentaAhorro.sol\":2936:2994  mappingCuentaAhorro[msg.sender].saldo += saldoParaIngresar */\n      dup3\n      dup3\n      sload\n      tag_48\n      swap2\n      swap1\n      tag_49\n      jump\t// in\n    tag_48:\n      swap3\n      pop\n      pop\n      dup2\n      swap1\n      sstore\n      pop\n        /* \"contracts/Ejercicio1CuentaAhorro.sol\":2788:3002  function ingresarSaldo (int saldoParaIngresar) public {\r... */\n      pop\n      jump\t// out\n        /* \"contracts/Ejercicio1CuentaAhorro.sol\":3010:3355  function retirarSaldo (int saldoParaRetirar) public {\r... */\n    tag_22:\n        /* \"contracts/Ejercicio1CuentaAhorro.sol\":3100:3101  0 */\n      0x00\n        /* \"contracts/Ejercicio1CuentaAhorro.sol\":3081:3097  saldoParaRetirar */\n      dup2\n        /* \"contracts/Ejercicio1CuentaAhorro.sol\":3081:3101  saldoParaRetirar > 0 */\n      sgt\n        /* \"contracts/Ejercicio1CuentaAhorro.sol\":3073:3143  require(saldoParaRetirar > 0, \"saldo para retirar debe ser mayor a 0\") */\n      tag_51\n      jumpi\n      mload(0x40)\n      0x08c379a000000000000000000000000000000000000000000000000000000000\n      dup2\n      mstore\n      0x04\n      add\n      tag_52\n      swap1\n      tag_53\n      jump\t// in\n    tag_52:\n      mload(0x40)\n      dup1\n      swap2\n      sub\n      swap1\n      revert\n    tag_51:\n        /* \"contracts/Ejercicio1CuentaAhorro.sol\":3203:3219  saldoParaRetirar */\n      dup1\n        /* \"contracts/Ejercicio1CuentaAhorro.sol\":3162:3181  mappingCuentaAhorro */\n      0x05\n        /* \"contracts/Ejercicio1CuentaAhorro.sol\":3162:3193  mappingCuentaAhorro[msg.sender] */\n      0x00\n        /* \"contracts/Ejercicio1CuentaAhorro.sol\":3182:3192  msg.sender */\n      caller\n        /* \"contracts/Ejercicio1CuentaAhorro.sol\":3162:3193  mappingCuentaAhorro[msg.sender] */\n      0xffffffffffffffffffffffffffffffffffffffff\n      and\n      0xffffffffffffffffffffffffffffffffffffffff\n      and\n      dup2\n      mstore\n      0x20\n      add\n      swap1\n      dup2\n      mstore\n      0x20\n      add\n      0x00\n      keccak256\n        /* \"contracts/Ejercicio1CuentaAhorro.sol\":3162:3199  mappingCuentaAhorro[msg.sender].saldo */\n      0x00\n      add\n      sload\n        /* \"contracts/Ejercicio1CuentaAhorro.sol\":3162:3219  mappingCuentaAhorro[msg.sender].saldo >= saldoParaRetirar */\n      slt\n      iszero\n        /* \"contracts/Ejercicio1CuentaAhorro.sol\":3154:3279  require(mappingCuentaAhorro[msg.sender].saldo >= saldoParaRetirar , \"saldo para retirar no debe ser mayor a su saldo actual\") */\n      tag_54\n      jumpi\n      mload(0x40)\n      0x08c379a000000000000000000000000000000000000000000000000000000000\n      dup2\n      mstore\n      0x04\n      add\n      tag_55\n      swap1\n      tag_56\n      jump\t// in\n    tag_55:\n      mload(0x40)\n      dup1\n      swap2\n      sub\n      swap1\n      revert\n    tag_54:\n        /* \"contracts/Ejercicio1CuentaAhorro.sol\":3331:3347  saldoParaRetirar */\n      dup1\n        /* \"contracts/Ejercicio1CuentaAhorro.sol\":3290:3309  mappingCuentaAhorro */\n      0x05\n        /* \"contracts/Ejercicio1CuentaAhorro.sol\":3290:3321  mappingCuentaAhorro[msg.sender] */\n      0x00\n        /* \"contracts/Ejercicio1CuentaAhorro.sol\":3310:3320  msg.sender */\n      caller\n        /* \"contracts/Ejercicio1CuentaAhorro.sol\":3290:3321  mappingCuentaAhorro[msg.sender] */\n      0xffffffffffffffffffffffffffffffffffffffff\n      and\n      0xffffffffffffffffffffffffffffffffffffffff\n      and\n      dup2\n      mstore\n      0x20\n      add\n      swap1\n      dup2\n      mstore\n      0x20\n      add\n      0x00\n      keccak256\n        /* \"contracts/Ejercicio1CuentaAhorro.sol\":3290:3327  mappingCuentaAhorro[msg.sender].saldo */\n      0x00\n      add\n      0x00\n        /* \"contracts/Ejercicio1CuentaAhorro.sol\":3290:3347  mappingCuentaAhorro[msg.sender].saldo -= saldoParaRetirar */\n      dup3\n      dup3\n      sload\n      tag_57\n      swap2\n      swap1\n      tag_58\n      jump\t// in\n    tag_57:\n      swap3\n      pop\n      pop\n      dup2\n      swap1\n      sstore\n      pop\n        /* \"contracts/Ejercicio1CuentaAhorro.sol\":3010:3355  function retirarSaldo (int saldoParaRetirar) public {\r... */\n      pop\n      jump\t// out\n        /* \"#utility.yul\":7:146   */\n    tag_60:\n        /* \"#utility.yul\":53:58   */\n      0x00\n        /* \"#utility.yul\":91:97   */\n      dup2\n        /* \"#utility.yul\":78:98   */\n      calldataload\n        /* \"#utility.yul\":69:98   */\n      swap1\n      pop\n        /* \"#utility.yul\":107:140   */\n      tag_62\n        /* \"#utility.yul\":134:139   */\n      dup2\n        /* \"#utility.yul\":107:140   */\n      tag_63\n      jump\t// in\n    tag_62:\n        /* \"#utility.yul\":7:146   */\n      swap3\n      swap2\n      pop\n      pop\n      jump\t// out\n        /* \"#utility.yul\":152:289   */\n    tag_64:\n        /* \"#utility.yul\":197:202   */\n      0x00\n        /* \"#utility.yul\":235:241   */\n      dup2\n        /* \"#utility.yul\":222:242   */\n      calldataload\n        /* \"#utility.yul\":213:242   */\n      swap1\n      pop\n        /* \"#utility.yul\":251:283   */\n      tag_66\n        /* \"#utility.yul\":277:282   */\n      dup2\n        /* \"#utility.yul\":251:283   */\n      tag_67\n      jump\t// in\n    tag_66:\n        /* \"#utility.yul\":152:289   */\n      swap3\n      swap2\n      pop\n      pop\n      jump\t// out\n        /* \"#utility.yul\":295:624   */\n    tag_13:\n        /* \"#utility.yul\":354:360   */\n      0x00\n        /* \"#utility.yul\":403:405   */\n      0x20\n        /* \"#utility.yul\":391:400   */\n      dup3\n        /* \"#utility.yul\":382:389   */\n      dup5\n        /* \"#utility.yul\":378:401   */\n      sub\n        /* \"#utility.yul\":374:406   */\n      slt\n        /* \"#utility.yul\":371:490   */\n      iszero\n      tag_69\n      jumpi\n        /* \"#utility.yul\":409:488   */\n      tag_70\n      tag_71\n      jump\t// in\n    tag_70:\n        /* \"#utility.yul\":371:490   */\n    tag_69:\n        /* \"#utility.yul\":529:530   */\n      0x00\n        /* \"#utility.yul\":554:607   */\n      tag_72\n        /* \"#utility.yul\":599:606   */\n      dup5\n        /* \"#utility.yul\":590:596   */\n      dup3\n        /* \"#utility.yul\":579:588   */\n      dup6\n        /* \"#utility.yul\":575:597   */\n      add\n        /* \"#utility.yul\":554:607   */\n      tag_60\n      jump\t// in\n    tag_72:\n        /* \"#utility.yul\":544:607   */\n      swap2\n      pop\n        /* \"#utility.yul\":500:617   */\n      pop\n        /* \"#utility.yul\":295:624   */\n      swap3\n      swap2\n      pop\n      pop\n      jump\t// out\n        /* \"#utility.yul\":630:957   */\n    tag_18:\n        /* \"#utility.yul\":688:694   */\n      0x00\n        /* \"#utility.yul\":737:739   */\n      0x20\n        /* \"#utility.yul\":725:734   */\n      dup3\n        /* \"#utility.yul\":716:723   */\n      dup5\n        /* \"#utility.yul\":712:735   */\n      sub\n        /* \"#utility.yul\":708:740   */\n      slt\n        /* \"#utility.yul\":705:824   */\n      iszero\n      tag_74\n      jumpi\n        /* \"#utility.yul\":743:822   */\n      tag_75\n      tag_71\n      jump\t// in\n    tag_75:\n        /* \"#utility.yul\":705:824   */\n    tag_74:\n        /* \"#utility.yul\":863:864   */\n      0x00\n        /* \"#utility.yul\":888:940   */\n      tag_76\n        /* \"#utility.yul\":932:939   */\n      dup5\n        /* \"#utility.yul\":923:929   */\n      dup3\n        /* \"#utility.yul\":912:921   */\n      dup6\n        /* \"#utility.yul\":908:930   */\n      add\n        /* \"#utility.yul\":888:940   */\n      tag_64\n      jump\t// in\n    tag_76:\n        /* \"#utility.yul\":878:940   */\n      swap2\n      pop\n        /* \"#utility.yul\":834:950   */\n      pop\n        /* \"#utility.yul\":630:957   */\n      swap3\n      swap2\n      pop\n      pop\n      jump\t// out\n        /* \"#utility.yul\":963:1081   */\n    tag_77:\n        /* \"#utility.yul\":1050:1074   */\n      tag_79\n        /* \"#utility.yul\":1068:1073   */\n      dup2\n        /* \"#utility.yul\":1050:1074   */\n      tag_80\n      jump\t// in\n    tag_79:\n        /* \"#utility.yul\":1045:1048   */\n      dup3\n        /* \"#utility.yul\":1038:1075   */\n      mstore\n        /* \"#utility.yul\":963:1081   */\n      pop\n      pop\n      jump\t// out\n        /* \"#utility.yul\":1087:1202   */\n    tag_81:\n        /* \"#utility.yul\":1172:1195   */\n      tag_83\n        /* \"#utility.yul\":1189:1194   */\n      dup2\n        /* \"#utility.yul\":1172:1195   */\n      tag_84\n      jump\t// in\n    tag_83:\n        /* \"#utility.yul\":1167:1170   */\n      dup3\n        /* \"#utility.yul\":1160:1196   */\n      mstore\n        /* \"#utility.yul\":1087:1202   */\n      pop\n      pop\n      jump\t// out\n        /* \"#utility.yul\":1208:1572   */\n    tag_85:\n        /* \"#utility.yul\":1296:1299   */\n      0x00\n        /* \"#utility.yul\":1324:1363   */\n      tag_87\n        /* \"#utility.yul\":1357:1362   */\n      dup3\n        /* \"#utility.yul\":1324:1363   */\n      tag_88\n      jump\t// in\n    tag_87:\n        /* \"#utility.yul\":1379:1450   */\n      tag_89\n        /* \"#utility.yul\":1443:1449   */\n      dup2\n        /* \"#utility.yul\":1438:1441   */\n      dup6\n        /* \"#utility.yul\":1379:1450   */\n      tag_90\n      jump\t// in\n    tag_89:\n        /* \"#utility.yul\":1372:1450   */\n      swap4\n      pop\n        /* \"#utility.yul\":1459:1511   */\n      tag_91\n        /* \"#utility.yul\":1504:1510   */\n      dup2\n        /* \"#utility.yul\":1499:1502   */\n      dup6\n        /* \"#utility.yul\":1492:1496   */\n      0x20\n        /* \"#utility.yul\":1485:1490   */\n      dup7\n        /* \"#utility.yul\":1481:1497   */\n      add\n        /* \"#utility.yul\":1459:1511   */\n      tag_92\n      jump\t// in\n    tag_91:\n        /* \"#utility.yul\":1536:1565   */\n      tag_93\n        /* \"#utility.yul\":1558:1564   */\n      dup2\n        /* \"#utility.yul\":1536:1565   */\n      tag_94\n      jump\t// in\n    tag_93:\n        /* \"#utility.yul\":1531:1534   */\n      dup5\n        /* \"#utility.yul\":1527:1566   */\n      add\n        /* \"#utility.yul\":1520:1566   */\n      swap2\n      pop\n        /* \"#utility.yul\":1300:1572   */\n      pop\n        /* \"#utility.yul\":1208:1572   */\n      swap3\n      swap2\n      pop\n      pop\n      jump\t// out\n        /* \"#utility.yul\":1578:1944   */\n    tag_95:\n        /* \"#utility.yul\":1720:1723   */\n      0x00\n        /* \"#utility.yul\":1741:1808   */\n      tag_97\n        /* \"#utility.yul\":1805:1807   */\n      0x26\n        /* \"#utility.yul\":1800:1803   */\n      dup4\n        /* \"#utility.yul\":1741:1808   */\n      tag_90\n      jump\t// in\n    tag_97:\n        /* \"#utility.yul\":1734:1808   */\n      swap2\n      pop\n        /* \"#utility.yul\":1817:1910   */\n      tag_98\n        /* \"#utility.yul\":1906:1909   */\n      dup3\n        /* \"#utility.yul\":1817:1910   */\n      tag_99\n      jump\t// in\n    tag_98:\n        /* \"#utility.yul\":1935:1937   */\n      0x40\n        /* \"#utility.yul\":1930:1933   */\n      dup3\n        /* \"#utility.yul\":1926:1938   */\n      add\n        /* \"#utility.yul\":1919:1938   */\n      swap1\n      pop\n        /* \"#utility.yul\":1578:1944   */\n      swap2\n      swap1\n      pop\n      jump\t// out\n        /* \"#utility.yul\":1950:2316   */\n    tag_100:\n        /* \"#utility.yul\":2092:2095   */\n      0x00\n        /* \"#utility.yul\":2113:2180   */\n      tag_102\n        /* \"#utility.yul\":2177:2179   */\n      0x36\n        /* \"#utility.yul\":2172:2175   */\n      dup4\n        /* \"#utility.yul\":2113:2180   */\n      tag_90\n      jump\t// in\n    tag_102:\n        /* \"#utility.yul\":2106:2180   */\n      swap2\n      pop\n        /* \"#utility.yul\":2189:2282   */\n      tag_103\n        /* \"#utility.yul\":2278:2281   */\n      dup3\n        /* \"#utility.yul\":2189:2282   */\n      tag_104\n      jump\t// in\n    tag_103:\n        /* \"#utility.yul\":2307:2309   */\n      0x40\n        /* \"#utility.yul\":2302:2305   */\n      dup3\n        /* \"#utility.yul\":2298:2310   */\n      add\n        /* \"#utility.yul\":2291:2310   */\n      swap1\n      pop\n        /* \"#utility.yul\":1950:2316   */\n      swap2\n      swap1\n      pop\n      jump\t// out\n        /* \"#utility.yul\":2322:2688   */\n    tag_105:\n        /* \"#utility.yul\":2464:2467   */\n      0x00\n        /* \"#utility.yul\":2485:2552   */\n      tag_107\n        /* \"#utility.yul\":2549:2551   */\n      0x25\n        /* \"#utility.yul\":2544:2547   */\n      dup4\n        /* \"#utility.yul\":2485:2552   */\n      tag_90\n      jump\t// in\n    tag_107:\n        /* \"#utility.yul\":2478:2552   */\n      swap2\n      pop\n        /* \"#utility.yul\":2561:2654   */\n      tag_108\n        /* \"#utility.yul\":2650:2653   */\n      dup3\n        /* \"#utility.yul\":2561:2654   */\n      tag_109\n      jump\t// in\n    tag_108:\n        /* \"#utility.yul\":2679:2681   */\n      0x40\n        /* \"#utility.yul\":2674:2677   */\n      dup3\n        /* \"#utility.yul\":2670:2682   */\n      add\n        /* \"#utility.yul\":2663:2682   */\n      swap1\n      pop\n        /* \"#utility.yul\":2322:2688   */\n      swap2\n      swap1\n      pop\n      jump\t// out\n        /* \"#utility.yul\":2694:3532   */\n    tag_10:\n        /* \"#utility.yul\":2935:2939   */\n      0x00\n        /* \"#utility.yul\":2973:2976   */\n      0xa0\n        /* \"#utility.yul\":2962:2971   */\n      dup3\n        /* \"#utility.yul\":2958:2977   */\n      add\n        /* \"#utility.yul\":2950:2977   */\n      swap1\n      pop\n        /* \"#utility.yul\":2987:3056   */\n      tag_111\n        /* \"#utility.yul\":3053:3054   */\n      0x00\n        /* \"#utility.yul\":3042:3051   */\n      dup4\n        /* \"#utility.yul\":3038:3055   */\n      add\n        /* \"#utility.yul\":3029:3035   */\n      dup9\n        /* \"#utility.yul\":2987:3056   */\n      tag_81\n      jump\t// in\n    tag_111:\n        /* \"#utility.yul\":3066:3138   */\n      tag_112\n        /* \"#utility.yul\":3134:3136   */\n      0x20\n        /* \"#utility.yul\":3123:3132   */\n      dup4\n        /* \"#utility.yul\":3119:3137   */\n      add\n        /* \"#utility.yul\":3110:3116   */\n      dup8\n        /* \"#utility.yul\":3066:3138   */\n      tag_77\n      jump\t// in\n    tag_112:\n        /* \"#utility.yul\":3185:3194   */\n      dup2\n        /* \"#utility.yul\":3179:3183   */\n      dup2\n        /* \"#utility.yul\":3175:3195   */\n      sub\n        /* \"#utility.yul\":3170:3172   */\n      0x40\n        /* \"#utility.yul\":3159:3168   */\n      dup4\n        /* \"#utility.yul\":3155:3173   */\n      add\n        /* \"#utility.yul\":3148:3196   */\n      mstore\n        /* \"#utility.yul\":3213:3291   */\n      tag_113\n        /* \"#utility.yul\":3286:3290   */\n      dup2\n        /* \"#utility.yul\":3277:3283   */\n      dup7\n        /* \"#utility.yul\":3213:3291   */\n      tag_85\n      jump\t// in\n    tag_113:\n        /* \"#utility.yul\":3205:3291   */\n      swap1\n      pop\n        /* \"#utility.yul\":3301:3371   */\n      tag_114\n        /* \"#utility.yul\":3367:3369   */\n      0x60\n        /* \"#utility.yul\":3356:3365   */\n      dup4\n        /* \"#utility.yul\":3352:3370   */\n      add\n        /* \"#utility.yul\":3343:3349   */\n      dup6\n        /* \"#utility.yul\":3301:3371   */\n      tag_81\n      jump\t// in\n    tag_114:\n        /* \"#utility.yul\":3419:3428   */\n      dup2\n        /* \"#utility.yul\":3413:3417   */\n      dup2\n        /* \"#utility.yul\":3409:3429   */\n      sub\n        /* \"#utility.yul\":3403:3406   */\n      0x80\n        /* \"#utility.yul\":3392:3401   */\n      dup4\n        /* \"#utility.yul\":3388:3407   */\n      add\n        /* \"#utility.yul\":3381:3430   */\n      mstore\n        /* \"#utility.yul\":3447:3525   */\n      tag_115\n        /* \"#utility.yul\":3520:3524   */\n      dup2\n        /* \"#utility.yul\":3511:3517   */\n      dup5\n        /* \"#utility.yul\":3447:3525   */\n      tag_85\n      jump\t// in\n    tag_115:\n        /* \"#utility.yul\":3439:3525   */\n      swap1\n      pop\n        /* \"#utility.yul\":2694:3532   */\n      swap7\n      swap6\n      pop\n      pop\n      pop\n      pop\n      pop\n      pop\n      jump\t// out\n        /* \"#utility.yul\":3538:3957   */\n    tag_47:\n        /* \"#utility.yul\":3704:3708   */\n      0x00\n        /* \"#utility.yul\":3742:3744   */\n      0x20\n        /* \"#utility.yul\":3731:3740   */\n      dup3\n        /* \"#utility.yul\":3727:3745   */\n      add\n        /* \"#utility.yul\":3719:3745   */\n      swap1\n      pop\n        /* \"#utility.yul\":3791:3800   */\n      dup2\n        /* \"#utility.yul\":3785:3789   */\n      dup2\n        /* \"#utility.yul\":3781:3801   */\n      sub\n        /* \"#utility.yul\":3777:3778   */\n      0x00\n        /* \"#utility.yul\":3766:3775   */\n      dup4\n        /* \"#utility.yul\":3762:3779   */\n      add\n        /* \"#utility.yul\":3755:3802   */\n      mstore\n        /* \"#utility.yul\":3819:3950   */\n      tag_117\n        /* \"#utility.yul\":3945:3949   */\n      dup2\n        /* \"#utility.yul\":3819:3950   */\n      tag_95\n      jump\t// in\n    tag_117:\n        /* \"#utility.yul\":3811:3950   */\n      swap1\n      pop\n        /* \"#utility.yul\":3538:3957   */\n      swap2\n      swap1\n      pop\n      jump\t// out\n        /* \"#utility.yul\":3963:4382   */\n    tag_56:\n        /* \"#utility.yul\":4129:4133   */\n      0x00\n        /* \"#utility.yul\":4167:4169   */\n      0x20\n        /* \"#utility.yul\":4156:4165   */\n      dup3\n        /* \"#utility.yul\":4152:4170   */\n      add\n        /* \"#utility.yul\":4144:4170   */\n      swap1\n      pop\n        /* \"#utility.yul\":4216:4225   */\n      dup2\n        /* \"#utility.yul\":4210:4214   */\n      dup2\n        /* \"#utility.yul\":4206:4226   */\n      sub\n        /* \"#utility.yul\":4202:4203   */\n      0x00\n        /* \"#utility.yul\":4191:4200   */\n      dup4\n        /* \"#utility.yul\":4187:4204   */\n      add\n        /* \"#utility.yul\":4180:4227   */\n      mstore\n        /* \"#utility.yul\":4244:4375   */\n      tag_119\n        /* \"#utility.yul\":4370:4374   */\n      dup2\n        /* \"#utility.yul\":4244:4375   */\n      tag_100\n      jump\t// in\n    tag_119:\n        /* \"#utility.yul\":4236:4375   */\n      swap1\n      pop\n        /* \"#utility.yul\":3963:4382   */\n      swap2\n      swap1\n      pop\n      jump\t// out\n        /* \"#utility.yul\":4388:4807   */\n    tag_53:\n        /* \"#utility.yul\":4554:4558   */\n      0x00\n        /* \"#utility.yul\":4592:4594   */\n      0x20\n        /* \"#utility.yul\":4581:4590   */\n      dup3\n        /* \"#utility.yul\":4577:4595   */\n      add\n        /* \"#utility.yul\":4569:4595   */\n      swap1\n      pop\n        /* \"#utility.yul\":4641:4650   */\n      dup2\n        /* \"#utility.yul\":4635:4639   */\n      dup2\n        /* \"#utility.yul\":4631:4651   */\n      sub\n        /* \"#utility.yul\":4627:4628   */\n      0x00\n        /* \"#utility.yul\":4616:4625   */\n      dup4\n        /* \"#utility.yul\":4612:4629   */\n      add\n        /* \"#utility.yul\":4605:4652   */\n      mstore\n        /* \"#utility.yul\":4669:4800   */\n      tag_121\n        /* \"#utility.yul\":4795:4799   */\n      dup2\n        /* \"#utility.yul\":4669:4800   */\n      tag_105\n      jump\t// in\n    tag_121:\n        /* \"#utility.yul\":4661:4800   */\n      swap1\n      pop\n        /* \"#utility.yul\":4388:4807   */\n      swap2\n      swap1\n      pop\n      jump\t// out\n        /* \"#utility.yul\":4894:4993   */\n    tag_88:\n        /* \"#utility.yul\":4946:4952   */\n      0x00\n        /* \"#utility.yul\":4980:4985   */\n      dup2\n        /* \"#utility.yul\":4974:4986   */\n      mload\n        /* \"#utility.yul\":4964:4986   */\n      swap1\n      pop\n        /* \"#utility.yul\":4894:4993   */\n      swap2\n      swap1\n      pop\n      jump\t// out\n        /* \"#utility.yul\":4999:5168   */\n    tag_90:\n        /* \"#utility.yul\":5083:5094   */\n      0x00\n        /* \"#utility.yul\":5117:5123   */\n      dup3\n        /* \"#utility.yul\":5112:5115   */\n      dup3\n        /* \"#utility.yul\":5105:5124   */\n      mstore\n        /* \"#utility.yul\":5157:5161   */\n      0x20\n        /* \"#utility.yul\":5152:5155   */\n      dup3\n        /* \"#utility.yul\":5148:5162   */\n      add\n        /* \"#utility.yul\":5133:5162   */\n      swap1\n      pop\n        /* \"#utility.yul\":4999:5168   */\n      swap3\n      swap2\n      pop\n      pop\n      jump\t// out\n        /* \"#utility.yul\":5174:5699   */\n    tag_49:\n        /* \"#utility.yul\":5213:5216   */\n      0x00\n        /* \"#utility.yul\":5232:5251   */\n      tag_127\n        /* \"#utility.yul\":5249:5250   */\n      dup3\n        /* \"#utility.yul\":5232:5251   */\n      tag_84\n      jump\t// in\n    tag_127:\n        /* \"#utility.yul\":5227:5251   */\n      swap2\n      pop\n        /* \"#utility.yul\":5265:5284   */\n      tag_128\n        /* \"#utility.yul\":5282:5283   */\n      dup4\n        /* \"#utility.yul\":5265:5284   */\n      tag_84\n      jump\t// in\n    tag_128:\n        /* \"#utility.yul\":5260:5284   */\n      swap3\n      pop\n        /* \"#utility.yul\":5453:5454   */\n      dup2\n        /* \"#utility.yul\":5385:5451   */\n      0x7fffffffffffffffffffffffffffffffffffffffffffffffffffffffffffffff\n        /* \"#utility.yul\":5381:5455   */\n      sub\n        /* \"#utility.yul\":5378:5379   */\n      dup4\n        /* \"#utility.yul\":5374:5456   */\n      sgt\n        /* \"#utility.yul\":5369:5370   */\n      0x00\n        /* \"#utility.yul\":5366:5367   */\n      dup4\n        /* \"#utility.yul\":5362:5371   */\n      slt\n        /* \"#utility.yul\":5355:5372   */\n      iszero\n        /* \"#utility.yul\":5351:5457   */\n      and\n        /* \"#utility.yul\":5348:5480   */\n      iszero\n      tag_129\n      jumpi\n        /* \"#utility.yul\":5460:5478   */\n      tag_130\n      tag_131\n      jump\t// in\n    tag_130:\n        /* \"#utility.yul\":5348:5480   */\n    tag_129:\n        /* \"#utility.yul\":5640:5641   */\n      dup2\n        /* \"#utility.yul\":5572:5638   */\n      0x8000000000000000000000000000000000000000000000000000000000000000\n        /* \"#utility.yul\":5568:5642   */\n      sub\n        /* \"#utility.yul\":5565:5566   */\n      dup4\n        /* \"#utility.yul\":5561:5643   */\n      slt\n        /* \"#utility.yul\":5557:5558   */\n      0x00\n        /* \"#utility.yul\":5554:5555   */\n      dup4\n        /* \"#utility.yul\":5550:5559   */\n      slt\n        /* \"#utility.yul\":5546:5644   */\n      and\n        /* \"#utility.yul\":5543:5667   */\n      iszero\n      tag_132\n      jumpi\n        /* \"#utility.yul\":5647:5665   */\n      tag_133\n      tag_131\n      jump\t// in\n    tag_133:\n        /* \"#utility.yul\":5543:5667   */\n    tag_132:\n        /* \"#utility.yul\":5691:5692   */\n      dup3\n        /* \"#utility.yul\":5688:5689   */\n      dup3\n        /* \"#utility.yul\":5684:5693   */\n      add\n        /* \"#utility.yul\":5677:5693   */\n      swap1\n      pop\n        /* \"#utility.yul\":5174:5699   */\n      swap3\n      swap2\n      pop\n      pop\n      jump\t// out\n        /* \"#utility.yul\":5705:6232   */\n    tag_58:\n        /* \"#utility.yul\":5744:5748   */\n      0x00\n        /* \"#utility.yul\":5764:5783   */\n      tag_135\n        /* \"#utility.yul\":5781:5782   */\n      dup3\n        /* \"#utility.yul\":5764:5783   */\n      tag_84\n      jump\t// in\n    tag_135:\n        /* \"#utility.yul\":5759:5783   */\n      swap2\n      pop\n        /* \"#utility.yul\":5797:5816   */\n      tag_136\n        /* \"#utility.yul\":5814:5815   */\n      dup4\n        /* \"#utility.yul\":5797:5816   */\n      tag_84\n      jump\t// in\n    tag_136:\n        /* \"#utility.yul\":5792:5816   */\n      swap3\n      pop\n        /* \"#utility.yul\":5986:5987   */\n      dup3\n        /* \"#utility.yul\":5918:5984   */\n      0x8000000000000000000000000000000000000000000000000000000000000000\n        /* \"#utility.yul\":5914:5988   */\n      add\n        /* \"#utility.yul\":5911:5912   */\n      dup3\n        /* \"#utility.yul\":5907:5989   */\n      slt\n        /* \"#utility.yul\":5902:5903   */\n      0x00\n        /* \"#utility.yul\":5899:5900   */\n      dup5\n        /* \"#utility.yul\":5895:5904   */\n      slt\n        /* \"#utility.yul\":5888:5905   */\n      iszero\n        /* \"#utility.yul\":5884:5990   */\n      and\n        /* \"#utility.yul\":5881:6013   */\n      iszero\n      tag_137\n      jumpi\n        /* \"#utility.yul\":5993:6011   */\n      tag_138\n      tag_131\n      jump\t// in\n    tag_138:\n        /* \"#utility.yul\":5881:6013   */\n    tag_137:\n        /* \"#utility.yul\":6172:6173   */\n      dup3\n        /* \"#utility.yul\":6104:6170   */\n      0x7fffffffffffffffffffffffffffffffffffffffffffffffffffffffffffffff\n        /* \"#utility.yul\":6100:6174   */\n      add\n        /* \"#utility.yul\":6097:6098   */\n      dup3\n        /* \"#utility.yul\":6093:6175   */\n      sgt\n        /* \"#utility.yul\":6089:6090   */\n      0x00\n        /* \"#utility.yul\":6086:6087   */\n      dup5\n        /* \"#utility.yul\":6082:6091   */\n      slt\n        /* \"#utility.yul\":6078:6176   */\n      and\n        /* \"#utility.yul\":6075:6199   */\n      iszero\n      tag_139\n      jumpi\n        /* \"#utility.yul\":6179:6197   */\n      tag_140\n      tag_131\n      jump\t// in\n    tag_140:\n        /* \"#utility.yul\":6075:6199   */\n    tag_139:\n        /* \"#utility.yul\":6224:6225   */\n      dup3\n        /* \"#utility.yul\":6221:6222   */\n      dup3\n        /* \"#utility.yul\":6217:6226   */\n      sub\n        /* \"#utility.yul\":6209:6226   */\n      swap1\n      pop\n        /* \"#utility.yul\":5705:6232   */\n      swap3\n      swap2\n      pop\n      pop\n      jump\t// out\n        /* \"#utility.yul\":6238:6334   */\n    tag_80:\n        /* \"#utility.yul\":6275:6282   */\n      0x00\n        /* \"#utility.yul\":6304:6328   */\n      tag_142\n        /* \"#utility.yul\":6322:6327   */\n      dup3\n        /* \"#utility.yul\":6304:6328   */\n      tag_143\n      jump\t// in\n    tag_142:\n        /* \"#utility.yul\":6293:6328   */\n      swap1\n      pop\n        /* \"#utility.yul\":6238:6334   */\n      swap2\n      swap1\n      pop\n      jump\t// out\n        /* \"#utility.yul\":6340:6416   */\n    tag_84:\n        /* \"#utility.yul\":6376:6383   */\n      0x00\n        /* \"#utility.yul\":6405:6410   */\n      dup2\n        /* \"#utility.yul\":6394:6410   */\n      swap1\n      pop\n        /* \"#utility.yul\":6340:6416   */\n      swap2\n      swap1\n      pop\n      jump\t// out\n        /* \"#utility.yul\":6422:6548   */\n    tag_143:\n        /* \"#utility.yul\":6459:6466   */\n      0x00\n        /* \"#utility.yul\":6499:6541   */\n      0xffffffffffffffffffffffffffffffffffffffff\n        /* \"#utility.yul\":6492:6497   */\n      dup3\n        /* \"#utility.yul\":6488:6542   */\n      and\n        /* \"#utility.yul\":6477:6542   */\n      swap1\n      pop\n        /* \"#utility.yul\":6422:6548   */\n      swap2\n      swap1\n      pop\n      jump\t// out\n        /* \"#utility.yul\":6554:6861   */\n    tag_92:\n        /* \"#utility.yul\":6622:6623   */\n      0x00\n        /* \"#utility.yul\":6632:6745   */\n    tag_147:\n        /* \"#utility.yul\":6646:6652   */\n      dup4\n        /* \"#utility.yul\":6643:6644   */\n      dup2\n        /* \"#utility.yul\":6640:6653   */\n      lt\n        /* \"#utility.yul\":6632:6745   */\n      iszero\n      tag_149\n      jumpi\n        /* \"#utility.yul\":6731:6732   */\n      dup1\n        /* \"#utility.yul\":6726:6729   */\n      dup3\n        /* \"#utility.yul\":6722:6733   */\n      add\n        /* \"#utility.yul\":6716:6734   */\n      mload\n        /* \"#utility.yul\":6712:6713   */\n      dup2\n        /* \"#utility.yul\":6707:6710   */\n      dup5\n        /* \"#utility.yul\":6703:6714   */\n      add\n        /* \"#utility.yul\":6696:6735   */\n      mstore\n        /* \"#utility.yul\":6668:6670   */\n      0x20\n        /* \"#utility.yul\":6665:6666   */\n      dup2\n        /* \"#utility.yul\":6661:6671   */\n      add\n        /* \"#utility.yul\":6656:6671   */\n      swap1\n      pop\n        /* \"#utility.yul\":6632:6745   */\n      jump(tag_147)\n    tag_149:\n        /* \"#utility.yul\":6763:6769   */\n      dup4\n        /* \"#utility.yul\":6760:6761   */\n      dup2\n        /* \"#utility.yul\":6757:6770   */\n      gt\n        /* \"#utility.yul\":6754:6855   */\n      iszero\n      tag_150\n      jumpi\n        /* \"#utility.yul\":6843:6844   */\n      0x00\n        /* \"#utility.yul\":6834:6840   */\n      dup5\n        /* \"#utility.yul\":6829:6832   */\n      dup5\n        /* \"#utility.yul\":6825:6841   */\n      add\n        /* \"#utility.yul\":6818:6845   */\n      mstore\n        /* \"#utility.yul\":6754:6855   */\n    tag_150:\n        /* \"#utility.yul\":6603:6861   */\n      pop\n        /* \"#utility.yul\":6554:6861   */\n      pop\n      pop\n      pop\n      jump\t// out\n        /* \"#utility.yul\":6867:7187   */\n    tag_24:\n        /* \"#utility.yul\":6911:6917   */\n      0x00\n        /* \"#utility.yul\":6948:6949   */\n      0x02\n        /* \"#utility.yul\":6942:6946   */\n      dup3\n        /* \"#utility.yul\":6938:6950   */\n      div\n        /* \"#utility.yul\":6928:6950   */\n      swap1\n      pop\n        /* \"#utility.yul\":6995:6996   */\n      0x01\n        /* \"#utility.yul\":6989:6993   */\n      dup3\n        /* \"#utility.yul\":6985:6997   */\n      and\n        /* \"#utility.yul\":7016:7034   */\n      dup1\n        /* \"#utility.yul\":7006:7087   */\n      tag_152\n      jumpi\n        /* \"#utility.yul\":7072:7076   */\n      0x7f\n        /* \"#utility.yul\":7064:7070   */\n      dup3\n        /* \"#utility.yul\":7060:7077   */\n      and\n        /* \"#utility.yul\":7050:7077   */\n      swap2\n      pop\n        /* \"#utility.yul\":7006:7087   */\n    tag_152:\n        /* \"#utility.yul\":7134:7136   */\n      0x20\n        /* \"#utility.yul\":7126:7132   */\n      dup3\n        /* \"#utility.yul\":7123:7137   */\n      lt\n        /* \"#utility.yul\":7103:7121   */\n      dup2\n        /* \"#utility.yul\":7100:7138   */\n      eq\n        /* \"#utility.yul\":7097:7181   */\n      iszero\n      tag_153\n      jumpi\n        /* \"#utility.yul\":7153:7171   */\n      tag_154\n      tag_155\n      jump\t// in\n    tag_154:\n        /* \"#utility.yul\":7097:7181   */\n    tag_153:\n        /* \"#utility.yul\":6918:7187   */\n      pop\n        /* \"#utility.yul\":6867:7187   */\n      swap2\n      swap1\n      pop\n      jump\t// out\n        /* \"#utility.yul\":7193:7373   */\n    tag_131:\n        /* \"#utility.yul\":7241:7318   */\n      0x4e487b7100000000000000000000000000000000000000000000000000000000\n        /* \"#utility.yul\":7238:7239   */\n      0x00\n        /* \"#utility.yul\":7231:7319   */\n      mstore\n        /* \"#utility.yul\":7338:7342   */\n      0x11\n        /* \"#utility.yul\":7335:7336   */\n      0x04\n        /* \"#utility.yul\":7328:7343   */\n      mstore\n        /* \"#utility.yul\":7362:7366   */\n      0x24\n        /* \"#utility.yul\":7359:7360   */\n      0x00\n        /* \"#utility.yul\":7352:7367   */\n      revert\n        /* \"#utility.yul\":7379:7559   */\n    tag_155:\n        /* \"#utility.yul\":7427:7504   */\n      0x4e487b7100000000000000000000000000000000000000000000000000000000\n        /* \"#utility.yul\":7424:7425   */\n      0x00\n        /* \"#utility.yul\":7417:7505   */\n      mstore\n        /* \"#utility.yul\":7524:7528   */\n      0x22\n        /* \"#utility.yul\":7521:7522   */\n      0x04\n        /* \"#utility.yul\":7514:7529   */\n      mstore\n        /* \"#utility.yul\":7548:7552   */\n      0x24\n        /* \"#utility.yul\":7545:7546   */\n      0x00\n        /* \"#utility.yul\":7538:7553   */\n      revert\n        /* \"#utility.yul\":7688:7805   */\n    tag_71:\n        /* \"#utility.yul\":7797:7798   */\n      0x00\n        /* \"#utility.yul\":7794:7795   */\n      dup1\n        /* \"#utility.yul\":7787:7799   */\n      revert\n        /* \"#utility.yul\":7811:7913   */\n    tag_94:\n        /* \"#utility.yul\":7852:7858   */\n      0x00\n        /* \"#utility.yul\":7903:7905   */\n      0x1f\n        /* \"#utility.yul\":7899:7906   */\n      not\n        /* \"#utility.yul\":7894:7896   */\n      0x1f\n        /* \"#utility.yul\":7887:7892   */\n      dup4\n        /* \"#utility.yul\":7883:7897   */\n      add\n        /* \"#utility.yul\":7879:7907   */\n      and\n        /* \"#utility.yul\":7869:7907   */\n      swap1\n      pop\n        /* \"#utility.yul\":7811:7913   */\n      swap2\n      swap1\n      pop\n      jump\t// out\n        /* \"#utility.yul\":7919:8144   */\n    tag_99:\n        /* \"#utility.yul\":8059:8093   */\n      0x73616c646f207061726120696e677265736172206465626520736572206d6179\n        /* \"#utility.yul\":8055:8056   */\n      0x00\n        /* \"#utility.yul\":8047:8053   */\n      dup3\n        /* \"#utility.yul\":8043:8057   */\n      add\n        /* \"#utility.yul\":8036:8094   */\n      mstore\n        /* \"#utility.yul\":8128:8136   */\n      0x6f72206120300000000000000000000000000000000000000000000000000000\n        /* \"#utility.yul\":8123:8125   */\n      0x20\n        /* \"#utility.yul\":8115:8121   */\n      dup3\n        /* \"#utility.yul\":8111:8126   */\n      add\n        /* \"#utility.yul\":8104:8137   */\n      mstore\n        /* \"#utility.yul\":7919:8144   */\n      pop\n      jump\t// out\n        /* \"#utility.yul\":8150:8391   */\n    tag_104:\n        /* \"#utility.yul\":8290:8324   */\n      0x73616c646f20706172612072657469726172206e6f206465626520736572206d\n        /* \"#utility.yul\":8286:8287   */\n      0x00\n        /* \"#utility.yul\":8278:8284   */\n      dup3\n        /* \"#utility.yul\":8274:8288   */\n      add\n        /* \"#utility.yul\":8267:8325   */\n      mstore\n        /* \"#utility.yul\":8359:8383   */\n      0x61796f7220612073752073616c646f2061637475616c00000000000000000000\n        /* \"#utility.yul\":8354:8356   */\n      0x20\n        /* \"#utility.yul\":8346:8352   */\n      dup3\n        /* \"#utility.yul\":8342:8357   */\n      add\n        /* \"#utility.yul\":8335:8384   */\n      mstore\n        /* \"#utility.yul\":8150:8391   */\n      pop\n      jump\t// out\n        /* \"#utility.yul\":8397:8621   */\n    tag_109:\n        /* \"#utility.yul\":8537:8571   */\n      0x73616c646f20706172612072657469726172206465626520736572206d61796f\n        /* \"#utility.yul\":8533:8534   */\n      0x00\n        /* \"#utility.yul\":8525:8531   */\n      dup3\n        /* \"#utility.yul\":8521:8535   */\n      add\n        /* \"#utility.yul\":8514:8572   */\n      mstore\n        /* \"#utility.yul\":8606:8613   */\n      0x7220612030000000000000000000000000000000000000000000000000000000\n        /* \"#utility.yul\":8601:8603   */\n      0x20\n        /* \"#utility.yul\":8593:8599   */\n      dup3\n        /* \"#utility.yul\":8589:8604   */\n      add\n        /* \"#utility.yul\":8582:8614   */\n      mstore\n        /* \"#utility.yul\":8397:8621   */\n      pop\n      jump\t// out\n        /* \"#utility.yul\":8627:8749   */\n    tag_63:\n        /* \"#utility.yul\":8700:8724   */\n      tag_166\n        /* \"#utility.yul\":8718:8723   */\n      dup2\n        /* \"#utility.yul\":8700:8724   */\n      tag_80\n      jump\t// in\n    tag_166:\n        /* \"#utility.yul\":8693:8698   */\n      dup2\n        /* \"#utility.yul\":8690:8725   */\n      eq\n        /* \"#utility.yul\":8680:8743   */\n      tag_167\n      jumpi\n        /* \"#utility.yul\":8739:8740   */\n      0x00\n        /* \"#utility.yul\":8736:8737   */\n      dup1\n        /* \"#utility.yul\":8729:8741   */\n      revert\n        /* \"#utility.yul\":8680:8743   */\n    tag_167:\n        /* \"#utility.yul\":8627:8749   */\n      pop\n      jump\t// out\n        /* \"#utility.yul\":8755:8875   */\n    tag_67:\n        /* \"#utility.yul\":8827:8850   */\n      tag_169\n        /* \"#utility.yul\":8844:8849   */\n      dup2\n        /* \"#utility.yul\":8827:8850   */\n      tag_84\n      jump\t// in\n    tag_169:\n        /* \"#utility.yul\":8820:8825   */\n      dup2\n        /* \"#utility.yul\":8817:8851   */\n      eq\n        /* \"#utility.yul\":8807:8869   */\n      tag_170\n      jumpi\n        /* \"#utility.yul\":8865:8866   */\n      0x00\n        /* \"#utility.yul\":8862:8863   */\n      dup1\n        /* \"#utility.yul\":8855:8867   */\n      revert\n        /* \"#utility.yul\":8807:8869   */\n    tag_170:\n        /* \"#utility.yul\":8755:8875   */\n      pop\n      jump\t// out\n\n    auxdata: 0xa2646970667358221220fe392913c47b459a39cd4cdc7dd909570e069eb70ca06d78c4f6a9889f506f4764736f6c63430008070033\n}\n",
				"bytecode": {
					"linkReferences": {},
					"object": "60806040526040518060a0016040528060008152602001735b38da6a701c568545dcfcb03fcb875f56beddc473ffffffffffffffffffffffffffffffffffffffff1681526020016040518060400160405280600381526020017f49767900000000000000000000000000000000000000000000000000000000008152508152602001601981526020016040518060400160405280600781526020017f5075727075726100000000000000000000000000000000000000000000000000815250815250600080820151816000015560208201518160010160006101000a81548173ffffffffffffffffffffffffffffffffffffffff021916908373ffffffffffffffffffffffffffffffffffffffff16021790555060408201518160020190805190602001906200013192919062000171565b506060820151816003015560808201518160040190805190602001906200015a92919062000171565b5050503480156200016a57600080fd5b5062000286565b8280546200017f9062000221565b90600052602060002090601f016020900481019282620001a35760008555620001ef565b82601f10620001be57805160ff1916838001178555620001ef565b82800160010185558215620001ef579182015b82811115620001ee578251825591602001919060010190620001d1565b5b509050620001fe919062000202565b5090565b5b808211156200021d57600081600090555060010162000203565b5090565b600060028204905060018216806200023a57607f821691505b6020821081141562000251576200025062000257565b5b50919050565b7f4e487b7100000000000000000000000000000000000000000000000000000000600052602260045260246000fd5b610b0b80620002966000396000f3fe608060405234801561001057600080fd5b506004361061004c5760003560e01c80635f57697c1461005157806363e4cdcc1461007357806393ba1e60146100a7578063c28a41ec146100c3575b600080fd5b6100596100df565b60405161006a9594939291906106a0565b60405180910390f35b61008d60048036038101906100889190610586565b610233565b60405161009e9594939291906106a0565b60405180910390f35b6100c160048036038101906100bc91906105b3565b610399565b005b6100dd60048036038101906100d891906105b3565b610438565b005b60008060000154908060010160009054906101000a900473ffffffffffffffffffffffffffffffffffffffff169080600201805461011c90610914565b80601f016020809104026020016040519081016040528092919081815260200182805461014890610914565b80156101955780601f1061016a57610100808354040283529160200191610195565b820191906000526020600020905b81548152906001019060200180831161017857829003601f168201915b5050505050908060030154908060040180546101b090610914565b80601f01602080910402602001604051908101604052809291908181526020018280546101dc90610914565b80156102295780601f106101fe57610100808354040283529160200191610229565b820191906000526020600020905b81548152906001019060200180831161020c57829003601f168201915b5050505050905085565b60056020528060005260406000206000915090508060000154908060010160009054906101000a900473ffffffffffffffffffffffffffffffffffffffff169080600201805461028290610914565b80601f01602080910402602001604051908101604052809291908181526020018280546102ae90610914565b80156102fb5780601f106102d0576101008083540402835291602001916102fb565b820191906000526020600020905b8154815290600101906020018083116102de57829003601f168201915b50505050509080600301549080600401805461031690610914565b80601f016020809104026020016040519081016040528092919081815260200182805461034290610914565b801561038f5780601f106103645761010080835404028352916020019161038f565b820191906000526020600020905b81548152906001019060200180831161037257829003601f168201915b5050505050905085565b600081136103dc576040517f08c379a00000000000000000000000000000000000000000000000000000000081526004016103d390610701565b60405180910390fd5b80600560003373ffffffffffffffffffffffffffffffffffffffff1673ffffffffffffffffffffffffffffffffffffffff168152602001908152602001600020600001600082825461042e919061077d565b9250508190555050565b6000811361047b576040517f08c379a000000000000000000000000000000000000000000000000000000000815260040161047290610741565b60405180910390fd5b80600560003373ffffffffffffffffffffffffffffffffffffffff1673ffffffffffffffffffffffffffffffffffffffff168152602001908152602001600020600001541215610500576040517f08c379a00000000000000000000000000000000000000000000000000000000081526004016104f790610721565b60405180910390fd5b80600560003373ffffffffffffffffffffffffffffffffffffffff1673ffffffffffffffffffffffffffffffffffffffff16815260200190815260200160002060000160008282546105529190610811565b9250508190555050565b60008135905061056b81610aa7565b92915050565b60008135905061058081610abe565b92915050565b60006020828403121561059c5761059b6109a4565b5b60006105aa8482850161055c565b91505092915050565b6000602082840312156105c9576105c86109a4565b5b60006105d784828501610571565b91505092915050565b6105e9816108a5565b82525050565b6105f8816108b7565b82525050565b600061060982610761565b610613818561076c565b93506106238185602086016108e1565b61062c816109a9565b840191505092915050565b600061064460268361076c565b915061064f826109ba565b604082019050919050565b600061066760368361076c565b915061067282610a09565b604082019050919050565b600061068a60258361076c565b915061069582610a58565b604082019050919050565b600060a0820190506106b560008301886105ef565b6106c260208301876105e0565b81810360408301526106d481866105fe565b90506106e360608301856105ef565b81810360808301526106f581846105fe565b90509695505050505050565b6000602082019050818103600083015261071a81610637565b9050919050565b6000602082019050818103600083015261073a8161065a565b9050919050565b6000602082019050818103600083015261075a8161067d565b9050919050565b600081519050919050565b600082825260208201905092915050565b6000610788826108b7565b9150610793836108b7565b9250817f7fffffffffffffffffffffffffffffffffffffffffffffffffffffffffffffff038313600083121516156107ce576107cd610946565b5b817f800000000000000000000000000000000000000000000000000000000000000003831260008312161561080657610805610946565b5b828201905092915050565b600061081c826108b7565b9150610827836108b7565b9250827f80000000000000000000000000000000000000000000000000000000000000000182126000841215161561086257610861610946565b5b827f7fffffffffffffffffffffffffffffffffffffffffffffffffffffffffffffff01821360008412161561089a57610899610946565b5b828203905092915050565b60006108b0826108c1565b9050919050565b6000819050919050565b600073ffffffffffffffffffffffffffffffffffffffff82169050919050565b60005b838110156108ff5780820151818401526020810190506108e4565b8381111561090e576000848401525b50505050565b6000600282049050600182168061092c57607f821691505b602082108114156109405761093f610975565b5b50919050565b7f4e487b7100000000000000000000000000000000000000000000000000000000600052601160045260246000fd5b7f4e487b7100000000000000000000000000000000000000000000000000000000600052602260045260246000fd5b600080fd5b6000601f19601f8301169050919050565b7f73616c646f207061726120696e677265736172206465626520736572206d617960008201527f6f72206120300000000000000000000000000000000000000000000000000000602082015250565b7f73616c646f20706172612072657469726172206e6f206465626520736572206d60008201527f61796f7220612073752073616c646f2061637475616c00000000000000000000602082015250565b7f73616c646f20706172612072657469726172206465626520736572206d61796f60008201527f7220612030000000000000000000000000000000000000000000000000000000602082015250565b610ab0816108a5565b8114610abb57600080fd5b50565b610ac7816108b7565b8114610ad257600080fd5b5056fea2646970667358221220fe392913c47b459a39cd4cdc7dd909570e069eb70ca06d78c4f6a9889f506f4764736f6c63430008070033",
					"opcodes": "PUSH1 0x80 PUSH1 0x40 MSTORE PUSH1 0x40 MLOAD DUP1 PUSH1 0xA0 ADD PUSH1 0x40 MSTORE DUP1 PUSH1 0x0 DUP2 MSTORE PUSH1 0x20 ADD PUSH20 0x5B38DA6A701C568545DCFCB03FCB875F56BEDDC4 PUSH20 0xFFFFFFFFFFFFFFFFFFFFFFFFFFFFFFFFFFFFFFFF AND DUP2 MSTORE PUSH1 0x20 ADD PUSH1 0x40 MLOAD DUP1 PUSH1 0x40 ADD PUSH1 0x40 MSTORE DUP1 PUSH1 0x3 DUP2 MSTORE PUSH1 0x20 ADD PUSH32 0x4976790000000000000000000000000000000000000000000000000000000000 DUP2 MSTORE POP DUP2 MSTORE PUSH1 0x20 ADD PUSH1 0x19 DUP2 MSTORE PUSH1 0x20 ADD PUSH1 0x40 MLOAD DUP1 PUSH1 0x40 ADD PUSH1 0x40 MSTORE DUP1 PUSH1 0x7 DUP2 MSTORE PUSH1 0x20 ADD PUSH32 0x5075727075726100000000000000000000000000000000000000000000000000 DUP2 MSTORE POP DUP2 MSTORE POP PUSH1 0x0 DUP1 DUP3 ADD MLOAD DUP2 PUSH1 0x0 ADD SSTORE PUSH1 0x20 DUP3 ADD MLOAD DUP2 PUSH1 0x1 ADD PUSH1 0x0 PUSH2 0x100 EXP DUP2 SLOAD DUP2 PUSH20 0xFFFFFFFFFFFFFFFFFFFFFFFFFFFFFFFFFFFFFFFF MUL NOT AND SWAP1 DUP4 PUSH20 0xFFFFFFFFFFFFFFFFFFFFFFFFFFFFFFFFFFFFFFFF AND MUL OR SWAP1 SSTORE POP PUSH1 0x40 DUP3 ADD MLOAD DUP2 PUSH1 0x2 ADD SWAP1 DUP1 MLOAD SWAP1 PUSH1 0x20 ADD SWAP1 PUSH3 0x131 SWAP3 SWAP2 SWAP1 PUSH3 0x171 JUMP JUMPDEST POP PUSH1 0x60 DUP3 ADD MLOAD DUP2 PUSH1 0x3 ADD SSTORE PUSH1 0x80 DUP3 ADD MLOAD DUP2 PUSH1 0x4 ADD SWAP1 DUP1 MLOAD SWAP1 PUSH1 0x20 ADD SWAP1 PUSH3 0x15A SWAP3 SWAP2 SWAP1 PUSH3 0x171 JUMP JUMPDEST POP POP POP CALLVALUE DUP1 ISZERO PUSH3 0x16A JUMPI PUSH1 0x0 DUP1 REVERT JUMPDEST POP PUSH3 0x286 JUMP JUMPDEST DUP3 DUP1 SLOAD PUSH3 0x17F SWAP1 PUSH3 0x221 JUMP JUMPDEST SWAP1 PUSH1 0x0 MSTORE PUSH1 0x20 PUSH1 0x0 KECCAK256 SWAP1 PUSH1 0x1F ADD PUSH1 0x20 SWAP1 DIV DUP2 ADD SWAP3 DUP3 PUSH3 0x1A3 JUMPI PUSH1 0x0 DUP6 SSTORE PUSH3 0x1EF JUMP JUMPDEST DUP3 PUSH1 0x1F LT PUSH3 0x1BE JUMPI DUP1 MLOAD PUSH1 0xFF NOT AND DUP4 DUP1 ADD OR DUP6 SSTORE PUSH3 0x1EF JUMP JUMPDEST DUP3 DUP1 ADD PUSH1 0x1 ADD DUP6 SSTORE DUP3 ISZERO PUSH3 0x1EF JUMPI SWAP2 DUP3 ADD JUMPDEST DUP3 DUP2 GT ISZERO PUSH3 0x1EE JUMPI DUP3 MLOAD DUP3 SSTORE SWAP2 PUSH1 0x20 ADD SWAP2 SWAP1 PUSH1 0x1 ADD SWAP1 PUSH3 0x1D1 JUMP JUMPDEST JUMPDEST POP SWAP1 POP PUSH3 0x1FE SWAP2 SWAP1 PUSH3 0x202 JUMP JUMPDEST POP SWAP1 JUMP JUMPDEST JUMPDEST DUP1 DUP3 GT ISZERO PUSH3 0x21D JUMPI PUSH1 0x0 DUP2 PUSH1 0x0 SWAP1 SSTORE POP PUSH1 0x1 ADD PUSH3 0x203 JUMP JUMPDEST POP SWAP1 JUMP JUMPDEST PUSH1 0x0 PUSH1 0x2 DUP3 DIV SWAP1 POP PUSH1 0x1 DUP3 AND DUP1 PUSH3 0x23A JUMPI PUSH1 0x7F DUP3 AND SWAP2 POP JUMPDEST PUSH1 0x20 DUP3 LT DUP2 EQ ISZERO PUSH3 0x251 JUMPI PUSH3 0x250 PUSH3 0x257 JUMP JUMPDEST JUMPDEST POP SWAP2 SWAP1 POP JUMP JUMPDEST PUSH32 0x4E487B7100000000000000000000000000000000000000000000000000000000 PUSH1 0x0 MSTORE PUSH1 0x22 PUSH1 0x4 MSTORE PUSH1 0x24 PUSH1 0x0 REVERT JUMPDEST PUSH2 0xB0B DUP1 PUSH3 0x296 PUSH1 0x0 CODECOPY PUSH1 0x0 RETURN INVALID PUSH1 0x80 PUSH1 0x40 MSTORE CALLVALUE DUP1 ISZERO PUSH2 0x10 JUMPI PUSH1 0x0 DUP1 REVERT JUMPDEST POP PUSH1 0x4 CALLDATASIZE LT PUSH2 0x4C JUMPI PUSH1 0x0 CALLDATALOAD PUSH1 0xE0 SHR DUP1 PUSH4 0x5F57697C EQ PUSH2 0x51 JUMPI DUP1 PUSH4 0x63E4CDCC EQ PUSH2 0x73 JUMPI DUP1 PUSH4 0x93BA1E60 EQ PUSH2 0xA7 JUMPI DUP1 PUSH4 0xC28A41EC EQ PUSH2 0xC3 JUMPI JUMPDEST PUSH1 0x0 DUP1 REVERT JUMPDEST PUSH2 0x59 PUSH2 0xDF JUMP JUMPDEST PUSH1 0x40 MLOAD PUSH2 0x6A SWAP6 SWAP5 SWAP4 SWAP3 SWAP2 SWAP1 PUSH2 0x6A0 JUMP JUMPDEST PUSH1 0x40 MLOAD DUP1 SWAP2 SUB SWAP1 RETURN JUMPDEST PUSH2 0x8D PUSH1 0x4 DUP1 CALLDATASIZE SUB DUP2 ADD SWAP1 PUSH2 0x88 SWAP2 SWAP1 PUSH2 0x586 JUMP JUMPDEST PUSH2 0x233 JUMP JUMPDEST PUSH1 0x40 MLOAD PUSH2 0x9E SWAP6 SWAP5 SWAP4 SWAP3 SWAP2 SWAP1 PUSH2 0x6A0 JUMP JUMPDEST PUSH1 0x40 MLOAD DUP1 SWAP2 SUB SWAP1 RETURN JUMPDEST PUSH2 0xC1 PUSH1 0x4 DUP1 CALLDATASIZE SUB DUP2 ADD SWAP1 PUSH2 0xBC SWAP2 SWAP1 PUSH2 0x5B3 JUMP JUMPDEST PUSH2 0x399 JUMP JUMPDEST STOP JUMPDEST PUSH2 0xDD PUSH1 0x4 DUP1 CALLDATASIZE SUB DUP2 ADD SWAP1 PUSH2 0xD8 SWAP2 SWAP1 PUSH2 0x5B3 JUMP JUMPDEST PUSH2 0x438 JUMP JUMPDEST STOP JUMPDEST PUSH1 0x0 DUP1 PUSH1 0x0 ADD SLOAD SWAP1 DUP1 PUSH1 0x1 ADD PUSH1 0x0 SWAP1 SLOAD SWAP1 PUSH2 0x100 EXP SWAP1 DIV PUSH20 0xFFFFFFFFFFFFFFFFFFFFFFFFFFFFFFFFFFFFFFFF AND SWAP1 DUP1 PUSH1 0x2 ADD DUP1 SLOAD PUSH2 0x11C SWAP1 PUSH2 0x914 JUMP JUMPDEST DUP1 PUSH1 0x1F ADD PUSH1 0x20 DUP1 SWAP2 DIV MUL PUSH1 0x20 ADD PUSH1 0x40 MLOAD SWAP1 DUP2 ADD PUSH1 0x40 MSTORE DUP1 SWAP3 SWAP2 SWAP1 DUP2 DUP2 MSTORE PUSH1 0x20 ADD DUP3 DUP1 SLOAD PUSH2 0x148 SWAP1 PUSH2 0x914 JUMP JUMPDEST DUP1 ISZERO PUSH2 0x195 JUMPI DUP1 PUSH1 0x1F LT PUSH2 0x16A JUMPI PUSH2 0x100 DUP1 DUP4 SLOAD DIV MUL DUP4 MSTORE SWAP2 PUSH1 0x20 ADD SWAP2 PUSH2 0x195 JUMP JUMPDEST DUP3 ADD SWAP2 SWAP1 PUSH1 0x0 MSTORE PUSH1 0x20 PUSH1 0x0 KECCAK256 SWAP1 JUMPDEST DUP2 SLOAD DUP2 MSTORE SWAP1 PUSH1 0x1 ADD SWAP1 PUSH1 0x20 ADD DUP1 DUP4 GT PUSH2 0x178 JUMPI DUP3 SWAP1 SUB PUSH1 0x1F AND DUP3 ADD SWAP2 JUMPDEST POP POP POP POP POP SWAP1 DUP1 PUSH1 0x3 ADD SLOAD SWAP1 DUP1 PUSH1 0x4 ADD DUP1 SLOAD PUSH2 0x1B0 SWAP1 PUSH2 0x914 JUMP JUMPDEST DUP1 PUSH1 0x1F ADD PUSH1 0x20 DUP1 SWAP2 DIV MUL PUSH1 0x20 ADD PUSH1 0x40 MLOAD SWAP1 DUP2 ADD PUSH1 0x40 MSTORE DUP1 SWAP3 SWAP2 SWAP1 DUP2 DUP2 MSTORE PUSH1 0x20 ADD DUP3 DUP1 SLOAD PUSH2 0x1DC SWAP1 PUSH2 0x914 JUMP JUMPDEST DUP1 ISZERO PUSH2 0x229 JUMPI DUP1 PUSH1 0x1F LT PUSH2 0x1FE JUMPI PUSH2 0x100 DUP1 DUP4 SLOAD DIV MUL DUP4 MSTORE SWAP2 PUSH1 0x20 ADD SWAP2 PUSH2 0x229 JUMP JUMPDEST DUP3 ADD SWAP2 SWAP1 PUSH1 0x0 MSTORE PUSH1 0x20 PUSH1 0x0 KECCAK256 SWAP1 JUMPDEST DUP2 SLOAD DUP2 MSTORE SWAP1 PUSH1 0x1 ADD SWAP1 PUSH1 0x20 ADD DUP1 DUP4 GT PUSH2 0x20C JUMPI DUP3 SWAP1 SUB PUSH1 0x1F AND DUP3 ADD SWAP2 JUMPDEST POP POP POP POP POP SWAP1 POP DUP6 JUMP JUMPDEST PUSH1 0x5 PUSH1 0x20 MSTORE DUP1 PUSH1 0x0 MSTORE PUSH1 0x40 PUSH1 0x0 KECCAK256 PUSH1 0x0 SWAP2 POP SWAP1 POP DUP1 PUSH1 0x0 ADD SLOAD SWAP1 DUP1 PUSH1 0x1 ADD PUSH1 0x0 SWAP1 SLOAD SWAP1 PUSH2 0x100 EXP SWAP1 DIV PUSH20 0xFFFFFFFFFFFFFFFFFFFFFFFFFFFFFFFFFFFFFFFF AND SWAP1 DUP1 PUSH1 0x2 ADD DUP1 SLOAD PUSH2 0x282 SWAP1 PUSH2 0x914 JUMP JUMPDEST DUP1 PUSH1 0x1F ADD PUSH1 0x20 DUP1 SWAP2 DIV MUL PUSH1 0x20 ADD PUSH1 0x40 MLOAD SWAP1 DUP2 ADD PUSH1 0x40 MSTORE DUP1 SWAP3 SWAP2 SWAP1 DUP2 DUP2 MSTORE PUSH1 0x20 ADD DUP3 DUP1 SLOAD PUSH2 0x2AE SWAP1 PUSH2 0x914 JUMP JUMPDEST DUP1 ISZERO PUSH2 0x2FB JUMPI DUP1 PUSH1 0x1F LT PUSH2 0x2D0 JUMPI PUSH2 0x100 DUP1 DUP4 SLOAD DIV MUL DUP4 MSTORE SWAP2 PUSH1 0x20 ADD SWAP2 PUSH2 0x2FB JUMP JUMPDEST DUP3 ADD SWAP2 SWAP1 PUSH1 0x0 MSTORE PUSH1 0x20 PUSH1 0x0 KECCAK256 SWAP1 JUMPDEST DUP2 SLOAD DUP2 MSTORE SWAP1 PUSH1 0x1 ADD SWAP1 PUSH1 0x20 ADD DUP1 DUP4 GT PUSH2 0x2DE JUMPI DUP3 SWAP1 SUB PUSH1 0x1F AND DUP3 ADD SWAP2 JUMPDEST POP POP POP POP POP SWAP1 DUP1 PUSH1 0x3 ADD SLOAD SWAP1 DUP1 PUSH1 0x4 ADD DUP1 SLOAD PUSH2 0x316 SWAP1 PUSH2 0x914 JUMP JUMPDEST DUP1 PUSH1 0x1F ADD PUSH1 0x20 DUP1 SWAP2 DIV MUL PUSH1 0x20 ADD PUSH1 0x40 MLOAD SWAP1 DUP2 ADD PUSH1 0x40 MSTORE DUP1 SWAP3 SWAP2 SWAP1 DUP2 DUP2 MSTORE PUSH1 0x20 ADD DUP3 DUP1 SLOAD PUSH2 0x342 SWAP1 PUSH2 0x914 JUMP JUMPDEST DUP1 ISZERO PUSH2 0x38F JUMPI DUP1 PUSH1 0x1F LT PUSH2 0x364 JUMPI PUSH2 0x100 DUP1 DUP4 SLOAD DIV MUL DUP4 MSTORE SWAP2 PUSH1 0x20 ADD SWAP2 PUSH2 0x38F JUMP JUMPDEST DUP3 ADD SWAP2 SWAP1 PUSH1 0x0 MSTORE PUSH1 0x20 PUSH1 0x0 KECCAK256 SWAP1 JUMPDEST DUP2 SLOAD DUP2 MSTORE SWAP1 PUSH1 0x1 ADD SWAP1 PUSH1 0x20 ADD DUP1 DUP4 GT PUSH2 0x372 JUMPI DUP3 SWAP1 SUB PUSH1 0x1F AND DUP3 ADD SWAP2 JUMPDEST POP POP POP POP POP SWAP1 POP DUP6 JUMP JUMPDEST PUSH1 0x0 DUP2 SGT PUSH2 0x3DC JUMPI PUSH1 0x40 MLOAD PUSH32 0x8C379A000000000000000000000000000000000000000000000000000000000 DUP2 MSTORE PUSH1 0x4 ADD PUSH2 0x3D3 SWAP1 PUSH2 0x701 JUMP JUMPDEST PUSH1 0x40 MLOAD DUP1 SWAP2 SUB SWAP1 REVERT JUMPDEST DUP1 PUSH1 0x5 PUSH1 0x0 CALLER PUSH20 0xFFFFFFFFFFFFFFFFFFFFFFFFFFFFFFFFFFFFFFFF AND PUSH20 0xFFFFFFFFFFFFFFFFFFFFFFFFFFFFFFFFFFFFFFFF AND DUP2 MSTORE PUSH1 0x20 ADD SWAP1 DUP2 MSTORE PUSH1 0x20 ADD PUSH1 0x0 KECCAK256 PUSH1 0x0 ADD PUSH1 0x0 DUP3 DUP3 SLOAD PUSH2 0x42E SWAP2 SWAP1 PUSH2 0x77D JUMP JUMPDEST SWAP3 POP POP DUP2 SWAP1 SSTORE POP POP JUMP JUMPDEST PUSH1 0x0 DUP2 SGT PUSH2 0x47B JUMPI PUSH1 0x40 MLOAD PUSH32 0x8C379A000000000000000000000000000000000000000000000000000000000 DUP2 MSTORE PUSH1 0x4 ADD PUSH2 0x472 SWAP1 PUSH2 0x741 JUMP JUMPDEST PUSH1 0x40 MLOAD DUP1 SWAP2 SUB SWAP1 REVERT JUMPDEST DUP1 PUSH1 0x5 PUSH1 0x0 CALLER PUSH20 0xFFFFFFFFFFFFFFFFFFFFFFFFFFFFFFFFFFFFFFFF AND PUSH20 0xFFFFFFFFFFFFFFFFFFFFFFFFFFFFFFFFFFFFFFFF AND DUP2 MSTORE PUSH1 0x20 ADD SWAP1 DUP2 MSTORE PUSH1 0x20 ADD PUSH1 0x0 KECCAK256 PUSH1 0x0 ADD SLOAD SLT ISZERO PUSH2 0x500 JUMPI PUSH1 0x40 MLOAD PUSH32 0x8C379A000000000000000000000000000000000000000000000000000000000 DUP2 MSTORE PUSH1 0x4 ADD PUSH2 0x4F7 SWAP1 PUSH2 0x721 JUMP JUMPDEST PUSH1 0x40 MLOAD DUP1 SWAP2 SUB SWAP1 REVERT JUMPDEST DUP1 PUSH1 0x5 PUSH1 0x0 CALLER PUSH20 0xFFFFFFFFFFFFFFFFFFFFFFFFFFFFFFFFFFFFFFFF AND PUSH20 0xFFFFFFFFFFFFFFFFFFFFFFFFFFFFFFFFFFFFFFFF AND DUP2 MSTORE PUSH1 0x20 ADD SWAP1 DUP2 MSTORE PUSH1 0x20 ADD PUSH1 0x0 KECCAK256 PUSH1 0x0 ADD PUSH1 0x0 DUP3 DUP3 SLOAD PUSH2 0x552 SWAP2 SWAP1 PUSH2 0x811 JUMP JUMPDEST SWAP3 POP POP DUP2 SWAP1 SSTORE POP POP JUMP JUMPDEST PUSH1 0x0 DUP2 CALLDATALOAD SWAP1 POP PUSH2 0x56B DUP2 PUSH2 0xAA7 JUMP JUMPDEST SWAP3 SWAP2 POP POP JUMP JUMPDEST PUSH1 0x0 DUP2 CALLDATALOAD SWAP1 POP PUSH2 0x580 DUP2 PUSH2 0xABE JUMP JUMPDEST SWAP3 SWAP2 POP POP JUMP JUMPDEST PUSH1 0x0 PUSH1 0x20 DUP3 DUP5 SUB SLT ISZERO PUSH2 0x59C JUMPI PUSH2 0x59B PUSH2 0x9A4 JUMP JUMPDEST JUMPDEST PUSH1 0x0 PUSH2 0x5AA DUP5 DUP3 DUP6 ADD PUSH2 0x55C JUMP JUMPDEST SWAP2 POP POP SWAP3 SWAP2 POP POP JUMP JUMPDEST PUSH1 0x0 PUSH1 0x20 DUP3 DUP5 SUB SLT ISZERO PUSH2 0x5C9 JUMPI PUSH2 0x5C8 PUSH2 0x9A4 JUMP JUMPDEST JUMPDEST PUSH1 0x0 PUSH2 0x5D7 DUP5 DUP3 DUP6 ADD PUSH2 0x571 JUMP JUMPDEST SWAP2 POP POP SWAP3 SWAP2 POP POP JUMP JUMPDEST PUSH2 0x5E9 DUP2 PUSH2 0x8A5 JUMP JUMPDEST DUP3 MSTORE POP POP JUMP JUMPDEST PUSH2 0x5F8 DUP2 PUSH2 0x8B7 JUMP JUMPDEST DUP3 MSTORE POP POP JUMP JUMPDEST PUSH1 0x0 PUSH2 0x609 DUP3 PUSH2 0x761 JUMP JUMPDEST PUSH2 0x613 DUP2 DUP6 PUSH2 0x76C JUMP JUMPDEST SWAP4 POP PUSH2 0x623 DUP2 DUP6 PUSH1 0x20 DUP7 ADD PUSH2 0x8E1 JUMP JUMPDEST PUSH2 0x62C DUP2 PUSH2 0x9A9 JUMP JUMPDEST DUP5 ADD SWAP2 POP POP SWAP3 SWAP2 POP POP JUMP JUMPDEST PUSH1 0x0 PUSH2 0x644 PUSH1 0x26 DUP4 PUSH2 0x76C JUMP JUMPDEST SWAP2 POP PUSH2 0x64F DUP3 PUSH2 0x9BA JUMP JUMPDEST PUSH1 0x40 DUP3 ADD SWAP1 POP SWAP2 SWAP1 POP JUMP JUMPDEST PUSH1 0x0 PUSH2 0x667 PUSH1 0x36 DUP4 PUSH2 0x76C JUMP JUMPDEST SWAP2 POP PUSH2 0x672 DUP3 PUSH2 0xA09 JUMP JUMPDEST PUSH1 0x40 DUP3 ADD SWAP1 POP SWAP2 SWAP1 POP JUMP JUMPDEST PUSH1 0x0 PUSH2 0x68A PUSH1 0x25 DUP4 PUSH2 0x76C JUMP JUMPDEST SWAP2 POP PUSH2 0x695 DUP3 PUSH2 0xA58 JUMP JUMPDEST PUSH1 0x40 DUP3 ADD SWAP1 POP SWAP2 SWAP1 POP JUMP JUMPDEST PUSH1 0x0 PUSH1 0xA0 DUP3 ADD SWAP1 POP PUSH2 0x6B5 PUSH1 0x0 DUP4 ADD DUP9 PUSH2 0x5EF JUMP JUMPDEST PUSH2 0x6C2 PUSH1 0x20 DUP4 ADD DUP8 PUSH2 0x5E0 JUMP JUMPDEST DUP2 DUP2 SUB PUSH1 0x40 DUP4 ADD MSTORE PUSH2 0x6D4 DUP2 DUP7 PUSH2 0x5FE JUMP JUMPDEST SWAP1 POP PUSH2 0x6E3 PUSH1 0x60 DUP4 ADD DUP6 PUSH2 0x5EF JUMP JUMPDEST DUP2 DUP2 SUB PUSH1 0x80 DUP4 ADD MSTORE PUSH2 0x6F5 DUP2 DUP5 PUSH2 0x5FE JUMP JUMPDEST SWAP1 POP SWAP7 SWAP6 POP POP POP POP POP POP JUMP JUMPDEST PUSH1 0x0 PUSH1 0x20 DUP3 ADD SWAP1 POP DUP2 DUP2 SUB PUSH1 0x0 DUP4 ADD MSTORE PUSH2 0x71A DUP2 PUSH2 0x637 JUMP JUMPDEST SWAP1 POP SWAP2 SWAP1 POP JUMP JUMPDEST PUSH1 0x0 PUSH1 0x20 DUP3 ADD SWAP1 POP DUP2 DUP2 SUB PUSH1 0x0 DUP4 ADD MSTORE PUSH2 0x73A DUP2 PUSH2 0x65A JUMP JUMPDEST SWAP1 POP SWAP2 SWAP1 POP JUMP JUMPDEST PUSH1 0x0 PUSH1 0x20 DUP3 ADD SWAP1 POP DUP2 DUP2 SUB PUSH1 0x0 DUP4 ADD MSTORE PUSH2 0x75A DUP2 PUSH2 0x67D JUMP JUMPDEST SWAP1 POP SWAP2 SWAP1 POP JUMP JUMPDEST PUSH1 0x0 DUP2 MLOAD SWAP1 POP SWAP2 SWAP1 POP JUMP JUMPDEST PUSH1 0x0 DUP3 DUP3 MSTORE PUSH1 0x20 DUP3 ADD SWAP1 POP SWAP3 SWAP2 POP POP JUMP JUMPDEST PUSH1 0x0 PUSH2 0x788 DUP3 PUSH2 0x8B7 JUMP JUMPDEST SWAP2 POP PUSH2 0x793 DUP4 PUSH2 0x8B7 JUMP JUMPDEST SWAP3 POP DUP2 PUSH32 0x7FFFFFFFFFFFFFFFFFFFFFFFFFFFFFFFFFFFFFFFFFFFFFFFFFFFFFFFFFFFFFFF SUB DUP4 SGT PUSH1 0x0 DUP4 SLT ISZERO AND ISZERO PUSH2 0x7CE JUMPI PUSH2 0x7CD PUSH2 0x946 JUMP JUMPDEST JUMPDEST DUP2 PUSH32 0x8000000000000000000000000000000000000000000000000000000000000000 SUB DUP4 SLT PUSH1 0x0 DUP4 SLT AND ISZERO PUSH2 0x806 JUMPI PUSH2 0x805 PUSH2 0x946 JUMP JUMPDEST JUMPDEST DUP3 DUP3 ADD SWAP1 POP SWAP3 SWAP2 POP POP JUMP JUMPDEST PUSH1 0x0 PUSH2 0x81C DUP3 PUSH2 0x8B7 JUMP JUMPDEST SWAP2 POP PUSH2 0x827 DUP4 PUSH2 0x8B7 JUMP JUMPDEST SWAP3 POP DUP3 PUSH32 0x8000000000000000000000000000000000000000000000000000000000000000 ADD DUP3 SLT PUSH1 0x0 DUP5 SLT ISZERO AND ISZERO PUSH2 0x862 JUMPI PUSH2 0x861 PUSH2 0x946 JUMP JUMPDEST JUMPDEST DUP3 PUSH32 0x7FFFFFFFFFFFFFFFFFFFFFFFFFFFFFFFFFFFFFFFFFFFFFFFFFFFFFFFFFFFFFFF ADD DUP3 SGT PUSH1 0x0 DUP5 SLT AND ISZERO PUSH2 0x89A JUMPI PUSH2 0x899 PUSH2 0x946 JUMP JUMPDEST JUMPDEST DUP3 DUP3 SUB SWAP1 POP SWAP3 SWAP2 POP POP JUMP JUMPDEST PUSH1 0x0 PUSH2 0x8B0 DUP3 PUSH2 0x8C1 JUMP JUMPDEST SWAP1 POP SWAP2 SWAP1 POP JUMP JUMPDEST PUSH1 0x0 DUP2 SWAP1 POP SWAP2 SWAP1 POP JUMP JUMPDEST PUSH1 0x0 PUSH20 0xFFFFFFFFFFFFFFFFFFFFFFFFFFFFFFFFFFFFFFFF DUP3 AND SWAP1 POP SWAP2 SWAP1 POP JUMP JUMPDEST PUSH1 0x0 JUMPDEST DUP4 DUP2 LT ISZERO PUSH2 0x8FF JUMPI DUP1 DUP3 ADD MLOAD DUP2 DUP5 ADD MSTORE PUSH1 0x20 DUP2 ADD SWAP1 POP PUSH2 0x8E4 JUMP JUMPDEST DUP4 DUP2 GT ISZERO PUSH2 0x90E JUMPI PUSH1 0x0 DUP5 DUP5 ADD MSTORE JUMPDEST POP POP POP POP JUMP JUMPDEST PUSH1 0x0 PUSH1 0x2 DUP3 DIV SWAP1 POP PUSH1 0x1 DUP3 AND DUP1 PUSH2 0x92C JUMPI PUSH1 0x7F DUP3 AND SWAP2 POP JUMPDEST PUSH1 0x20 DUP3 LT DUP2 EQ ISZERO PUSH2 0x940 JUMPI PUSH2 0x93F PUSH2 0x975 JUMP JUMPDEST JUMPDEST POP SWAP2 SWAP1 POP JUMP JUMPDEST PUSH32 0x4E487B7100000000000000000000000000000000000000000000000000000000 PUSH1 0x0 MSTORE PUSH1 0x11 PUSH1 0x4 MSTORE PUSH1 0x24 PUSH1 0x0 REVERT JUMPDEST PUSH32 0x4E487B7100000000000000000000000000000000000000000000000000000000 PUSH1 0x0 MSTORE PUSH1 0x22 PUSH1 0x4 MSTORE PUSH1 0x24 PUSH1 0x0 REVERT JUMPDEST PUSH1 0x0 DUP1 REVERT JUMPDEST PUSH1 0x0 PUSH1 0x1F NOT PUSH1 0x1F DUP4 ADD AND SWAP1 POP SWAP2 SWAP1 POP JUMP JUMPDEST PUSH32 0x73616C646F207061726120696E677265736172206465626520736572206D6179 PUSH1 0x0 DUP3 ADD MSTORE PUSH32 0x6F72206120300000000000000000000000000000000000000000000000000000 PUSH1 0x20 DUP3 ADD MSTORE POP JUMP JUMPDEST PUSH32 0x73616C646F20706172612072657469726172206E6F206465626520736572206D PUSH1 0x0 DUP3 ADD MSTORE PUSH32 0x61796F7220612073752073616C646F2061637475616C00000000000000000000 PUSH1 0x20 DUP3 ADD MSTORE POP JUMP JUMPDEST PUSH32 0x73616C646F20706172612072657469726172206465626520736572206D61796F PUSH1 0x0 DUP3 ADD MSTORE PUSH32 0x7220612030000000000000000000000000000000000000000000000000000000 PUSH1 0x20 DUP3 ADD MSTORE POP JUMP JUMPDEST PUSH2 0xAB0 DUP2 PUSH2 0x8A5 JUMP JUMPDEST DUP2 EQ PUSH2 0xABB JUMPI PUSH1 0x0 DUP1 REVERT JUMPDEST POP JUMP JUMPDEST PUSH2 0xAC7 DUP2 PUSH2 0x8B7 JUMP JUMPDEST DUP2 EQ PUSH2 0xAD2 JUMPI PUSH1 0x0 DUP1 REVERT JUMPDEST POP JUMP INVALID LOG2 PUSH5 0x6970667358 0x22 SLT KECCAK256 INVALID CODECOPY 0x29 SGT 0xC4 PUSH28 0x459A39CD4CDC7DD909570E069EB70CA06D78C4F6A9889F506F476473 PUSH16 0x6C634300080700330000000000000000 "
				},
				"gasEstimates": {
					"creation": {
						"codeDepositCost": "565400",
						"executionCost": "infinite",
						"totalCost": "infinite"
					},
					"external": {
						"c1()": "infinite",
						"ingresarSaldo(int256)": "infinite",
						"mappingCuentaAhorro(address)": "infinite",
						"retirarSaldo(int256)": "infinite"
					}
				},
				"methodIdentifiers": {
					"c1()": "5f57697c",
					"ingresarSaldo(int256)": "93ba1e60",
					"mappingCuentaAhorro(address)": "63e4cdcc",
					"retirarSaldo(int256)": "c28a41ec"
				}
			},
			"storageLayout": {
				"storage": [
					{
						"astId": 22,
						"contract": "contracts/Ejercicio1CuentaAhorro.sol:Ejercicio1CuentaAhorro",
						"label": "c1",
						"offset": 0,
						"slot": "0",
						"type": "t_struct(CuentaAhorro)12_storage"
					},
					{
						"astId": 27,
						"contract": "contracts/Ejercicio1CuentaAhorro.sol:Ejercicio1CuentaAhorro",
						"label": "mappingCuentaAhorro",
						"offset": 0,
						"slot": "5",
						"type": "t_mapping(t_address,t_struct(CuentaAhorro)12_storage)"
					}
				],
				"types": {
					"t_address": {
						"encoding": "inplace",
						"label": "address",
						"numberOfBytes": "20"
					},
					"t_int256": {
						"encoding": "inplace",
						"label": "int256",
						"numberOfBytes": "32"
					},
					"t_mapping(t_address,t_struct(CuentaAhorro)12_storage)": {
						"encoding": "mapping",
						"key": "t_address",
						"label": "mapping(address => struct Ejercicio1CuentaAhorro.CuentaAhorro)",
						"numberOfBytes": "32",
						"value": "t_struct(CuentaAhorro)12_storage"
					},
					"t_string_storage": {
						"encoding": "bytes",
						"label": "string",
						"numberOfBytes": "32"
					},
					"t_struct(CuentaAhorro)12_storage": {
						"encoding": "inplace",
						"label": "struct Ejercicio1CuentaAhorro.CuentaAhorro",
						"members": [
							{
								"astId": 3,
								"contract": "contracts/Ejercicio1CuentaAhorro.sol:Ejercicio1CuentaAhorro",
								"label": "saldo",
								"offset": 0,
								"slot": "0",
								"type": "t_int256"
							},
							{
								"astId": 5,
								"contract": "contracts/Ejercicio1CuentaAhorro.sol:Ejercicio1CuentaAhorro",
								"label": "addressCuenta",
								"offset": 0,
								"slot": "1",
								"type": "t_address"
							},
							{
								"astId": 7,
								"contract": "contracts/Ejercicio1CuentaAhorro.sol:Ejercicio1CuentaAhorro",
								"label": "nombre",
								"offset": 0,
								"slot": "2",
								"type": "t_string_storage"
							},
							{
								"astId": 9,
								"contract": "contracts/Ejercicio1CuentaAhorro.sol:Ejercicio1CuentaAhorro",
								"label": "edad",
								"offset": 0,
								"slot": "3",
								"type": "t_int256"
							},
							{
								"astId": 11,
								"contract": "contracts/Ejercicio1CuentaAhorro.sol:Ejercicio1CuentaAhorro",
								"label": "colorFavorito",
								"offset": 0,
								"slot": "4",
								"type": "t_string_storage"
							}
						],
						"numberOfBytes": "160"
					}
				}
			},
			"userdoc": {
				"kind": "user",
				"methods": {},
				"version": 1
			}
		}
	}
}