{
	"contracts/Ejercicio1CuentaAhorro.sol": {
		"Ejercicio1CuentaAhorro": {
			"abi": [
				{
					"inputs": [
						{
							"internalType": "int256",
							"name": "saldoParaIngresar",
							"type": "int256"
						}
					],
					"name": "ingresarSaldo",
					"outputs": [],
					"stateMutability": "nonpayable",
					"type": "function"
				},
				{
					"inputs": [
						{
							"internalType": "int256",
							"name": "saldoParaRetirar",
							"type": "int256"
						}
					],
					"name": "retirarSaldo",
					"outputs": [],
					"stateMutability": "nonpayable",
					"type": "function"
				},
				{
					"inputs": [],
					"name": "saldo",
					"outputs": [
						{
							"internalType": "int256",
							"name": "",
							"type": "int256"
						}
					],
					"stateMutability": "view",
					"type": "function"
				}
			],
			"devdoc": {
				"kind": "dev",
				"methods": {},
				"version": 1
			},
			"evm": {
				"assembly": "    /* \"contracts/Ejercicio1CuentaAhorro.sol\":410:680  contract Ejercicio1CuentaAhorro {\r... */\n  mstore(0x40, 0x80)\n  callvalue\n  dup1\n  iszero\n  tag_1\n  jumpi\n  0x00\n  dup1\n  revert\ntag_1:\n  pop\n  dataSize(sub_0)\n  dup1\n  dataOffset(sub_0)\n  0x00\n  codecopy\n  0x00\n  return\nstop\n\nsub_0: assembly {\n        /* \"contracts/Ejercicio1CuentaAhorro.sol\":410:680  contract Ejercicio1CuentaAhorro {\r... */\n      mstore(0x40, 0x80)\n      callvalue\n      dup1\n      iszero\n      tag_1\n      jumpi\n      0x00\n      dup1\n      revert\n    tag_1:\n      pop\n      jumpi(tag_2, lt(calldatasize, 0x04))\n      shr(0xe0, calldataload(0x00))\n      dup1\n      0x93ba1e60\n      eq\n      tag_3\n      jumpi\n      dup1\n      0xa41de865\n      eq\n      tag_4\n      jumpi\n      dup1\n      0xc28a41ec\n      eq\n      tag_5\n      jumpi\n    tag_2:\n      0x00\n      dup1\n      revert\n        /* \"contracts/Ejercicio1CuentaAhorro.sol\":474:573  function ingresarSaldo (int saldoParaIngresar) public {\r... */\n    tag_3:\n      tag_6\n      0x04\n      dup1\n      calldatasize\n      sub\n      dup2\n      add\n      swap1\n      tag_7\n      swap2\n      swap1\n      tag_8\n      jump\t// in\n    tag_7:\n      tag_9\n      jump\t// in\n    tag_6:\n      stop\n        /* \"contracts/Ejercicio1CuentaAhorro.sol\":449:465  int public saldo */\n    tag_4:\n      tag_10\n      tag_11\n      jump\t// in\n    tag_10:\n      mload(0x40)\n      tag_12\n      swap2\n      swap1\n      tag_13\n      jump\t// in\n    tag_12:\n      mload(0x40)\n      dup1\n      swap2\n      sub\n      swap1\n      return\n        /* \"contracts/Ejercicio1CuentaAhorro.sol\":581:677  function retirarSaldo (int saldoParaRetirar) public {\r... */\n    tag_5:\n      tag_14\n      0x04\n      dup1\n      calldatasize\n      sub\n      dup2\n      add\n      swap1\n      tag_15\n      swap2\n      swap1\n      tag_8\n      jump\t// in\n    tag_15:\n      tag_16\n      jump\t// in\n    tag_14:\n      stop\n        /* \"contracts/Ejercicio1CuentaAhorro.sol\":474:573  function ingresarSaldo (int saldoParaIngresar) public {\r... */\n    tag_9:\n        /* \"contracts/Ejercicio1CuentaAhorro.sol\":548:565  saldoParaIngresar */\n      dup1\n        /* \"contracts/Ejercicio1CuentaAhorro.sol\":539:544  saldo */\n      0x00\n      dup1\n        /* \"contracts/Ejercicio1CuentaAhorro.sol\":539:565  saldo += saldoParaIngresar */\n      dup3\n      dup3\n      sload\n      tag_18\n      swap2\n      swap1\n      tag_19\n      jump\t// in\n    tag_18:\n      swap3\n      pop\n      pop\n      dup2\n      swap1\n      sstore\n      pop\n        /* \"contracts/Ejercicio1CuentaAhorro.sol\":474:573  function ingresarSaldo (int saldoParaIngresar) public {\r... */\n      pop\n      jump\t// out\n        /* \"contracts/Ejercicio1CuentaAhorro.sol\":449:465  int public saldo */\n    tag_11:\n      sload(0x00)\n      dup2\n      jump\t// out\n        /* \"contracts/Ejercicio1CuentaAhorro.sol\":581:677  function retirarSaldo (int saldoParaRetirar) public {\r... */\n    tag_16:\n        /* \"contracts/Ejercicio1CuentaAhorro.sol\":653:669  saldoParaRetirar */\n      dup1\n        /* \"contracts/Ejercicio1CuentaAhorro.sol\":644:649  saldo */\n      0x00\n      dup1\n        /* \"contracts/Ejercicio1CuentaAhorro.sol\":644:669  saldo -= saldoParaRetirar */\n      dup3\n      dup3\n      sload\n      tag_21\n      swap2\n      swap1\n      tag_22\n      jump\t// in\n    tag_21:\n      swap3\n      pop\n      pop\n      dup2\n      swap1\n      sstore\n      pop\n        /* \"contracts/Ejercicio1CuentaAhorro.sol\":581:677  function retirarSaldo (int saldoParaRetirar) public {\r... */\n      pop\n      jump\t// out\n        /* \"#utility.yul\":7:144   */\n    tag_24:\n        /* \"#utility.yul\":52:57   */\n      0x00\n        /* \"#utility.yul\":90:96   */\n      dup2\n        /* \"#utility.yul\":77:97   */\n      calldataload\n        /* \"#utility.yul\":68:97   */\n      swap1\n      pop\n        /* \"#utility.yul\":106:138   */\n      tag_26\n        /* \"#utility.yul\":132:137   */\n      dup2\n        /* \"#utility.yul\":106:138   */\n      tag_27\n      jump\t// in\n    tag_26:\n        /* \"#utility.yul\":7:144   */\n      swap3\n      swap2\n      pop\n      pop\n      jump\t// out\n        /* \"#utility.yul\":150:477   */\n    tag_8:\n        /* \"#utility.yul\":208:214   */\n      0x00\n        /* \"#utility.yul\":257:259   */\n      0x20\n        /* \"#utility.yul\":245:254   */\n      dup3\n        /* \"#utility.yul\":236:243   */\n      dup5\n        /* \"#utility.yul\":232:255   */\n      sub\n        /* \"#utility.yul\":228:260   */\n      slt\n        /* \"#utility.yul\":225:344   */\n      iszero\n      tag_29\n      jumpi\n        /* \"#utility.yul\":263:342   */\n      tag_30\n      tag_31\n      jump\t// in\n    tag_30:\n        /* \"#utility.yul\":225:344   */\n    tag_29:\n        /* \"#utility.yul\":383:384   */\n      0x00\n        /* \"#utility.yul\":408:460   */\n      tag_32\n        /* \"#utility.yul\":452:459   */\n      dup5\n        /* \"#utility.yul\":443:449   */\n      dup3\n        /* \"#utility.yul\":432:441   */\n      dup6\n        /* \"#utility.yul\":428:450   */\n      add\n        /* \"#utility.yul\":408:460   */\n      tag_24\n      jump\t// in\n    tag_32:\n        /* \"#utility.yul\":398:460   */\n      swap2\n      pop\n        /* \"#utility.yul\":354:470   */\n      pop\n        /* \"#utility.yul\":150:477   */\n      swap3\n      swap2\n      pop\n      pop\n      jump\t// out\n        /* \"#utility.yul\":483:598   */\n    tag_33:\n        /* \"#utility.yul\":568:591   */\n      tag_35\n        /* \"#utility.yul\":585:590   */\n      dup2\n        /* \"#utility.yul\":568:591   */\n      tag_36\n      jump\t// in\n    tag_35:\n        /* \"#utility.yul\":563:566   */\n      dup3\n        /* \"#utility.yul\":556:592   */\n      mstore\n        /* \"#utility.yul\":483:598   */\n      pop\n      pop\n      jump\t// out\n        /* \"#utility.yul\":604:822   */\n    tag_13:\n        /* \"#utility.yul\":695:699   */\n      0x00\n        /* \"#utility.yul\":733:735   */\n      0x20\n        /* \"#utility.yul\":722:731   */\n      dup3\n        /* \"#utility.yul\":718:736   */\n      add\n        /* \"#utility.yul\":710:736   */\n      swap1\n      pop\n        /* \"#utility.yul\":746:815   */\n      tag_38\n        /* \"#utility.yul\":812:813   */\n      0x00\n        /* \"#utility.yul\":801:810   */\n      dup4\n        /* \"#utility.yul\":797:814   */\n      add\n        /* \"#utility.yul\":788:794   */\n      dup5\n        /* \"#utility.yul\":746:815   */\n      tag_33\n      jump\t// in\n    tag_38:\n        /* \"#utility.yul\":604:822   */\n      swap3\n      swap2\n      pop\n      pop\n      jump\t// out\n        /* \"#utility.yul\":909:1434   */\n    tag_19:\n        /* \"#utility.yul\":948:951   */\n      0x00\n        /* \"#utility.yul\":967:986   */\n      tag_42\n        /* \"#utility.yul\":984:985   */\n      dup3\n        /* \"#utility.yul\":967:986   */\n      tag_36\n      jump\t// in\n    tag_42:\n        /* \"#utility.yul\":962:986   */\n      swap2\n      pop\n        /* \"#utility.yul\":1000:1019   */\n      tag_43\n        /* \"#utility.yul\":1017:1018   */\n      dup4\n        /* \"#utility.yul\":1000:1019   */\n      tag_36\n      jump\t// in\n    tag_43:\n        /* \"#utility.yul\":995:1019   */\n      swap3\n      pop\n        /* \"#utility.yul\":1188:1189   */\n      dup2\n        /* \"#utility.yul\":1120:1186   */\n      0x7fffffffffffffffffffffffffffffffffffffffffffffffffffffffffffffff\n        /* \"#utility.yul\":1116:1190   */\n      sub\n        /* \"#utility.yul\":1113:1114   */\n      dup4\n        /* \"#utility.yul\":1109:1191   */\n      sgt\n        /* \"#utility.yul\":1104:1105   */\n      0x00\n        /* \"#utility.yul\":1101:1102   */\n      dup4\n        /* \"#utility.yul\":1097:1106   */\n      slt\n        /* \"#utility.yul\":1090:1107   */\n      iszero\n        /* \"#utility.yul\":1086:1192   */\n      and\n        /* \"#utility.yul\":1083:1215   */\n      iszero\n      tag_44\n      jumpi\n        /* \"#utility.yul\":1195:1213   */\n      tag_45\n      tag_46\n      jump\t// in\n    tag_45:\n        /* \"#utility.yul\":1083:1215   */\n    tag_44:\n        /* \"#utility.yul\":1375:1376   */\n      dup2\n        /* \"#utility.yul\":1307:1373   */\n      0x8000000000000000000000000000000000000000000000000000000000000000\n        /* \"#utility.yul\":1303:1377   */\n      sub\n        /* \"#utility.yul\":1300:1301   */\n      dup4\n        /* \"#utility.yul\":1296:1378   */\n      slt\n        /* \"#utility.yul\":1292:1293   */\n      0x00\n        /* \"#utility.yul\":1289:1290   */\n      dup4\n        /* \"#utility.yul\":1285:1294   */\n      slt\n        /* \"#utility.yul\":1281:1379   */\n      and\n        /* \"#utility.yul\":1278:1402   */\n      iszero\n      tag_47\n      jumpi\n        /* \"#utility.yul\":1382:1400   */\n      tag_48\n      tag_46\n      jump\t// in\n    tag_48:\n        /* \"#utility.yul\":1278:1402   */\n    tag_47:\n        /* \"#utility.yul\":1426:1427   */\n      dup3\n        /* \"#utility.yul\":1423:1424   */\n      dup3\n        /* \"#utility.yul\":1419:1428   */\n      add\n        /* \"#utility.yul\":1412:1428   */\n      swap1\n      pop\n        /* \"#utility.yul\":909:1434   */\n      swap3\n      swap2\n      pop\n      pop\n      jump\t// out\n        /* \"#utility.yul\":1440:1967   */\n    tag_22:\n        /* \"#utility.yul\":1479:1483   */\n      0x00\n        /* \"#utility.yul\":1499:1518   */\n      tag_50\n        /* \"#utility.yul\":1516:1517   */\n      dup3\n        /* \"#utility.yul\":1499:1518   */\n      tag_36\n      jump\t// in\n    tag_50:\n        /* \"#utility.yul\":1494:1518   */\n      swap2\n      pop\n        /* \"#utility.yul\":1532:1551   */\n      tag_51\n        /* \"#utility.yul\":1549:1550   */\n      dup4\n        /* \"#utility.yul\":1532:1551   */\n      tag_36\n      jump\t// in\n    tag_51:\n        /* \"#utility.yul\":1527:1551   */\n      swap3\n      pop\n        /* \"#utility.yul\":1721:1722   */\n      dup3\n        /* \"#utility.yul\":1653:1719   */\n      0x8000000000000000000000000000000000000000000000000000000000000000\n        /* \"#utility.yul\":1649:1723   */\n      add\n        /* \"#utility.yul\":1646:1647   */\n      dup3\n        /* \"#utility.yul\":1642:1724   */\n      slt\n        /* \"#utility.yul\":1637:1638   */\n      0x00\n        /* \"#utility.yul\":1634:1635   */\n      dup5\n        /* \"#utility.yul\":1630:1639   */\n      slt\n        /* \"#utility.yul\":1623:1640   */\n      iszero\n        /* \"#utility.yul\":1619:1725   */\n      and\n        /* \"#utility.yul\":1616:1748   */\n      iszero\n      tag_52\n      jumpi\n        /* \"#utility.yul\":1728:1746   */\n      tag_53\n      tag_46\n      jump\t// in\n    tag_53:\n        /* \"#utility.yul\":1616:1748   */\n    tag_52:\n        /* \"#utility.yul\":1907:1908   */\n      dup3\n        /* \"#utility.yul\":1839:1905   */\n      0x7fffffffffffffffffffffffffffffffffffffffffffffffffffffffffffffff\n        /* \"#utility.yul\":1835:1909   */\n      add\n        /* \"#utility.yul\":1832:1833   */\n      dup3\n        /* \"#utility.yul\":1828:1910   */\n      sgt\n        /* \"#utility.yul\":1824:1825   */\n      0x00\n        /* \"#utility.yul\":1821:1822   */\n      dup5\n        /* \"#utility.yul\":1817:1826   */\n      slt\n        /* \"#utility.yul\":1813:1911   */\n      and\n        /* \"#utility.yul\":1810:1934   */\n      iszero\n      tag_54\n      jumpi\n        /* \"#utility.yul\":1914:1932   */\n      tag_55\n      tag_46\n      jump\t// in\n    tag_55:\n        /* \"#utility.yul\":1810:1934   */\n    tag_54:\n        /* \"#utility.yul\":1959:1960   */\n      dup3\n        /* \"#utility.yul\":1956:1957   */\n      dup3\n        /* \"#utility.yul\":1952:1961   */\n      sub\n        /* \"#utility.yul\":1944:1961   */\n      swap1\n      pop\n        /* \"#utility.yul\":1440:1967   */\n      swap3\n      swap2\n      pop\n      pop\n      jump\t// out\n        /* \"#utility.yul\":1973:2049   */\n    tag_36:\n        /* \"#utility.yul\":2009:2016   */\n      0x00\n        /* \"#utility.yul\":2038:2043   */\n      dup2\n        /* \"#utility.yul\":2027:2043   */\n      swap1\n      pop\n        /* \"#utility.yul\":1973:2049   */\n      swap2\n      swap1\n      pop\n      jump\t// out\n        /* \"#utility.yul\":2055:2235   */\n    tag_46:\n        /* \"#utility.yul\":2103:2180   */\n      0x4e487b7100000000000000000000000000000000000000000000000000000000\n        /* \"#utility.yul\":2100:2101   */\n      0x00\n        /* \"#utility.yul\":2093:2181   */\n      mstore\n        /* \"#utility.yul\":2200:2204   */\n      0x11\n        /* \"#utility.yul\":2197:2198   */\n      0x04\n        /* \"#utility.yul\":2190:2205   */\n      mstore\n        /* \"#utility.yul\":2224:2228   */\n      0x24\n        /* \"#utility.yul\":2221:2222   */\n      0x00\n        /* \"#utility.yul\":2214:2229   */\n      revert\n        /* \"#utility.yul\":2364:2481   */\n    tag_31:\n        /* \"#utility.yul\":2473:2474   */\n      0x00\n        /* \"#utility.yul\":2470:2471   */\n      dup1\n        /* \"#utility.yul\":2463:2475   */\n      revert\n        /* \"#utility.yul\":2487:2607   */\n    tag_27:\n        /* \"#utility.yul\":2559:2582   */\n      tag_62\n        /* \"#utility.yul\":2576:2581   */\n      dup2\n        /* \"#utility.yul\":2559:2582   */\n      tag_36\n      jump\t// in\n    tag_62:\n        /* \"#utility.yul\":2552:2557   */\n      dup2\n        /* \"#utility.yul\":2549:2583   */\n      eq\n        /* \"#utility.yul\":2539:2601   */\n      tag_63\n      jumpi\n        /* \"#utility.yul\":2597:2598   */\n      0x00\n        /* \"#utility.yul\":2594:2595   */\n      dup1\n        /* \"#utility.yul\":2587:2599   */\n      revert\n        /* \"#utility.yul\":2539:2601   */\n    tag_63:\n        /* \"#utility.yul\":2487:2607   */\n      pop\n      jump\t// out\n\n    auxdata: 0xa2646970667358221220954bcf2cf7ff92af221b7ed06c2562d381ff91693e1841bc95729da3e6b73b2464736f6c63430008070033\n}\n",
				"bytecode": {
					"linkReferences": {},
					"object": "608060405234801561001057600080fd5b506102f7806100206000396000f3fe608060405234801561001057600080fd5b50600436106100415760003560e01c806393ba1e6014610046578063a41de86514610062578063c28a41ec14610080575b600080fd5b610060600480360381019061005b91906100ed565b61009c565b005b61006a6100b7565b6040516100779190610129565b60405180910390f35b61009a600480360381019061009591906100ed565b6100bd565b005b806000808282546100ad9190610144565b9250508190555050565b60005481565b806000808282546100ce91906101d8565b9250508190555050565b6000813590506100e7816102aa565b92915050565b600060208284031215610103576101026102a5565b5b6000610111848285016100d8565b91505092915050565b6101238161026c565b82525050565b600060208201905061013e600083018461011a565b92915050565b600061014f8261026c565b915061015a8361026c565b9250817f7fffffffffffffffffffffffffffffffffffffffffffffffffffffffffffffff0383136000831215161561019557610194610276565b5b817f80000000000000000000000000000000000000000000000000000000000000000383126000831216156101cd576101cc610276565b5b828201905092915050565b60006101e38261026c565b91506101ee8361026c565b9250827f80000000000000000000000000000000000000000000000000000000000000000182126000841215161561022957610228610276565b5b827f7fffffffffffffffffffffffffffffffffffffffffffffffffffffffffffffff01821360008412161561026157610260610276565b5b828203905092915050565b6000819050919050565b7f4e487b7100000000000000000000000000000000000000000000000000000000600052601160045260246000fd5b600080fd5b6102b38161026c565b81146102be57600080fd5b5056fea2646970667358221220954bcf2cf7ff92af221b7ed06c2562d381ff91693e1841bc95729da3e6b73b2464736f6c63430008070033",
					"opcodes": "PUSH1 0x80 PUSH1 0x40 MSTORE CALLVALUE DUP1 ISZERO PUSH2 0x10 JUMPI PUSH1 0x0 DUP1 REVERT JUMPDEST POP PUSH2 0x2F7 DUP1 PUSH2 0x20 PUSH1 0x0 CODECOPY PUSH1 0x0 RETURN INVALID PUSH1 0x80 PUSH1 0x40 MSTORE CALLVALUE DUP1 ISZERO PUSH2 0x10 JUMPI PUSH1 0x0 DUP1 REVERT JUMPDEST POP PUSH1 0x4 CALLDATASIZE LT PUSH2 0x41 JUMPI PUSH1 0x0 CALLDATALOAD PUSH1 0xE0 SHR DUP1 PUSH4 0x93BA1E60 EQ PUSH2 0x46 JUMPI DUP1 PUSH4 0xA41DE865 EQ PUSH2 0x62 JUMPI DUP1 PUSH4 0xC28A41EC EQ PUSH2 0x80 JUMPI JUMPDEST PUSH1 0x0 DUP1 REVERT JUMPDEST PUSH2 0x60 PUSH1 0x4 DUP1 CALLDATASIZE SUB DUP2 ADD SWAP1 PUSH2 0x5B SWAP2 SWAP1 PUSH2 0xED JUMP JUMPDEST PUSH2 0x9C JUMP JUMPDEST STOP JUMPDEST PUSH2 0x6A PUSH2 0xB7 JUMP JUMPDEST PUSH1 0x40 MLOAD PUSH2 0x77 SWAP2 SWAP1 PUSH2 0x129 JUMP JUMPDEST PUSH1 0x40 MLOAD DUP1 SWAP2 SUB SWAP1 RETURN JUMPDEST PUSH2 0x9A PUSH1 0x4 DUP1 CALLDATASIZE SUB DUP2 ADD SWAP1 PUSH2 0x95 SWAP2 SWAP1 PUSH2 0xED JUMP JUMPDEST PUSH2 0xBD JUMP JUMPDEST STOP JUMPDEST DUP1 PUSH1 0x0 DUP1 DUP3 DUP3 SLOAD PUSH2 0xAD SWAP2 SWAP1 PUSH2 0x144 JUMP JUMPDEST SWAP3 POP POP DUP2 SWAP1 SSTORE POP POP JUMP JUMPDEST PUSH1 0x0 SLOAD DUP2 JUMP JUMPDEST DUP1 PUSH1 0x0 DUP1 DUP3 DUP3 SLOAD PUSH2 0xCE SWAP2 SWAP1 PUSH2 0x1D8 JUMP JUMPDEST SWAP3 POP POP DUP2 SWAP1 SSTORE POP POP JUMP JUMPDEST PUSH1 0x0 DUP2 CALLDATALOAD SWAP1 POP PUSH2 0xE7 DUP2 PUSH2 0x2AA JUMP JUMPDEST SWAP3 SWAP2 POP POP JUMP JUMPDEST PUSH1 0x0 PUSH1 0x20 DUP3 DUP5 SUB SLT ISZERO PUSH2 0x103 JUMPI PUSH2 0x102 PUSH2 0x2A5 JUMP JUMPDEST JUMPDEST PUSH1 0x0 PUSH2 0x111 DUP5 DUP3 DUP6 ADD PUSH2 0xD8 JUMP JUMPDEST SWAP2 POP POP SWAP3 SWAP2 POP POP JUMP JUMPDEST PUSH2 0x123 DUP2 PUSH2 0x26C JUMP JUMPDEST DUP3 MSTORE POP POP JUMP JUMPDEST PUSH1 0x0 PUSH1 0x20 DUP3 ADD SWAP1 POP PUSH2 0x13E PUSH1 0x0 DUP4 ADD DUP5 PUSH2 0x11A JUMP JUMPDEST SWAP3 SWAP2 POP POP JUMP JUMPDEST PUSH1 0x0 PUSH2 0x14F DUP3 PUSH2 0x26C JUMP JUMPDEST SWAP2 POP PUSH2 0x15A DUP4 PUSH2 0x26C JUMP JUMPDEST SWAP3 POP DUP2 PUSH32 0x7FFFFFFFFFFFFFFFFFFFFFFFFFFFFFFFFFFFFFFFFFFFFFFFFFFFFFFFFFFFFFFF SUB DUP4 SGT PUSH1 0x0 DUP4 SLT ISZERO AND ISZERO PUSH2 0x195 JUMPI PUSH2 0x194 PUSH2 0x276 JUMP JUMPDEST JUMPDEST DUP2 PUSH32 0x8000000000000000000000000000000000000000000000000000000000000000 SUB DUP4 SLT PUSH1 0x0 DUP4 SLT AND ISZERO PUSH2 0x1CD JUMPI PUSH2 0x1CC PUSH2 0x276 JUMP JUMPDEST JUMPDEST DUP3 DUP3 ADD SWAP1 POP SWAP3 SWAP2 POP POP JUMP JUMPDEST PUSH1 0x0 PUSH2 0x1E3 DUP3 PUSH2 0x26C JUMP JUMPDEST SWAP2 POP PUSH2 0x1EE DUP4 PUSH2 0x26C JUMP JUMPDEST SWAP3 POP DUP3 PUSH32 0x8000000000000000000000000000000000000000000000000000000000000000 ADD DUP3 SLT PUSH1 0x0 DUP5 SLT ISZERO AND ISZERO PUSH2 0x229 JUMPI PUSH2 0x228 PUSH2 0x276 JUMP JUMPDEST JUMPDEST DUP3 PUSH32 0x7FFFFFFFFFFFFFFFFFFFFFFFFFFFFFFFFFFFFFFFFFFFFFFFFFFFFFFFFFFFFFFF ADD DUP3 SGT PUSH1 0x0 DUP5 SLT AND ISZERO PUSH2 0x261 JUMPI PUSH2 0x260 PUSH2 0x276 JUMP JUMPDEST JUMPDEST DUP3 DUP3 SUB SWAP1 POP SWAP3 SWAP2 POP POP JUMP JUMPDEST PUSH1 0x0 DUP2 SWAP1 POP SWAP2 SWAP1 POP JUMP JUMPDEST PUSH32 0x4E487B7100000000000000000000000000000000000000000000000000000000 PUSH1 0x0 MSTORE PUSH1 0x11 PUSH1 0x4 MSTORE PUSH1 0x24 PUSH1 0x0 REVERT JUMPDEST PUSH1 0x0 DUP1 REVERT JUMPDEST PUSH2 0x2B3 DUP2 PUSH2 0x26C JUMP JUMPDEST DUP2 EQ PUSH2 0x2BE JUMPI PUSH1 0x0 DUP1 REVERT JUMPDEST POP JUMP INVALID LOG2 PUSH5 0x6970667358 0x22 SLT KECCAK256 SWAP6 0x4B 0xCF 0x2C 0xF7 SELFDESTRUCT SWAP3 0xAF 0x22 SHL PUSH31 0xD06C2562D381FF91693E1841BC95729DA3E6B73B2464736F6C634300080700 CALLER "
				},
				"gasEstimates": {
					"creation": {
						"codeDepositCost": "151800",
						"executionCost": "196",
						"totalCost": "151996"
					},
					"external": {
						"ingresarSaldo(int256)": "infinite",
						"retirarSaldo(int256)": "infinite",
						"saldo()": "2429"
					}
				},
				"methodIdentifiers": {
					"ingresarSaldo(int256)": "93ba1e60",
					"retirarSaldo(int256)": "c28a41ec",
					"saldo()": "a41de865"
				}
			},
			"storageLayout": {
				"storage": [
					{
						"astId": 3,
						"contract": "contracts/Ejercicio1CuentaAhorro.sol:Ejercicio1CuentaAhorro",
						"label": "saldo",
						"offset": 0,
						"slot": "0",
						"type": "t_int256"
					}
				],
				"types": {
					"t_int256": {
						"encoding": "inplace",
						"label": "int256",
						"numberOfBytes": "32"
					}
				}
			},
			"userdoc": {
				"kind": "user",
				"methods": {},
				"version": 1
			}
		}
	}
}