{
	"contracts/Ejercicio1CuentaAhorro.sol": {
		"Ejercicio1CuentaAhorro": {
			"abi": [
				{
					"inputs": [],
					"name": "c1",
					"outputs": [
						{
							"internalType": "int256",
							"name": "saldo",
							"type": "int256"
						},
						{
							"internalType": "string",
							"name": "addressCuenta",
							"type": "string"
						},
						{
							"internalType": "string",
							"name": "nombre",
							"type": "string"
						},
						{
							"internalType": "int256",
							"name": "edad",
							"type": "int256"
						},
						{
							"internalType": "string",
							"name": "colorFavorito",
							"type": "string"
						}
					],
					"stateMutability": "view",
					"type": "function"
				},
				{
					"inputs": [
						{
							"internalType": "int256",
							"name": "saldoParaIngresar",
							"type": "int256"
						}
					],
					"name": "ingresarSaldo",
					"outputs": [],
					"stateMutability": "nonpayable",
					"type": "function"
				},
				{
					"inputs": [
						{
							"internalType": "int256",
							"name": "saldoParaRetirar",
							"type": "int256"
						}
					],
					"name": "retirarSaldo",
					"outputs": [],
					"stateMutability": "nonpayable",
					"type": "function"
				}
			],
			"devdoc": {
				"kind": "dev",
				"methods": {},
				"version": 1
			},
			"evm": {
				"assembly": "    /* \"contracts/Ejercicio1CuentaAhorro.sol\":913:1499  contract Ejercicio1CuentaAhorro {\r... */\n  mstore(0x40, 0x80)\n    /* \"contracts/Ejercicio1CuentaAhorro.sol\":1141:1223  CuentaAhorro(0,\"Ivy\", \"0x5B38Da6a701c568545dCfcB03FcB875f56beddC4\", 25 ,\"Purpura\") */\n  mload(0x40)\n  dup1\n  0xa0\n  add\n  0x40\n  mstore\n  dup1\n    /* \"contracts/Ejercicio1CuentaAhorro.sol\":1154:1155  0 */\n  0x00\n    /* \"contracts/Ejercicio1CuentaAhorro.sol\":1141:1223  CuentaAhorro(0,\"Ivy\", \"0x5B38Da6a701c568545dCfcB03FcB875f56beddC4\", 25 ,\"Purpura\") */\n  dup2\n  mstore\n  0x20\n  add\n  mload(0x40)\n  dup1\n  0x40\n  add\n  0x40\n  mstore\n  dup1\n  0x03\n  dup2\n  mstore\n  0x20\n  add\n  0x4976790000000000000000000000000000000000000000000000000000000000\n  dup2\n  mstore\n  pop\n  dup2\n  mstore\n  0x20\n  add\n  mload(0x40)\n  dup1\n  0x60\n  add\n  0x40\n  mstore\n  dup1\n  0x2a\n  dup2\n  mstore\n  0x20\n  add\n  data_73b49fe9b2415f7043a9fabd65f4f4ea3962b31d51617906e5ba75ced62a3fb9\n  0x2a\n  swap2\n  codecopy\n  dup2\n  mstore\n  0x20\n  add\n    /* \"contracts/Ejercicio1CuentaAhorro.sol\":1209:1211  25 */\n  0x19\n    /* \"contracts/Ejercicio1CuentaAhorro.sol\":1141:1223  CuentaAhorro(0,\"Ivy\", \"0x5B38Da6a701c568545dCfcB03FcB875f56beddC4\", 25 ,\"Purpura\") */\n  dup2\n  mstore\n  0x20\n  add\n  mload(0x40)\n  dup1\n  0x40\n  add\n  0x40\n  mstore\n  dup1\n  0x07\n  dup2\n  mstore\n  0x20\n  add\n  0x5075727075726100000000000000000000000000000000000000000000000000\n  dup2\n  mstore\n  pop\n  dup2\n  mstore\n  pop\n    /* \"contracts/Ejercicio1CuentaAhorro.sol\":1116:1223  CuentaAhorro public c1 = CuentaAhorro(0,\"Ivy\", \"0x5B38Da6a701c568545dCfcB03FcB875f56beddC4\", 25 ,\"Purpura\") */\n  0x00\n  dup1\n  dup3\n  add\n  mload\n  dup2\n  0x00\n  add\n  sstore\n  0x20\n  dup3\n  add\n  mload\n  dup2\n  0x01\n  add\n  swap1\n  dup1\n  mload\n  swap1\n  0x20\n  add\n  swap1\n  tag_1\n  swap3\n  swap2\n  swap1\n  tag_2\n  jump\t// in\ntag_1:\n  pop\n  0x40\n  dup3\n  add\n  mload\n  dup2\n  0x02\n  add\n  swap1\n  dup1\n  mload\n  swap1\n  0x20\n  add\n  swap1\n  tag_3\n  swap3\n  swap2\n  swap1\n  tag_2\n  jump\t// in\ntag_3:\n  pop\n  0x60\n  dup3\n  add\n  mload\n  dup2\n  0x03\n  add\n  sstore\n  0x80\n  dup3\n  add\n  mload\n  dup2\n  0x04\n  add\n  swap1\n  dup1\n  mload\n  swap1\n  0x20\n  add\n  swap1\n  tag_4\n  swap3\n  swap2\n  swap1\n  tag_2\n  jump\t// in\ntag_4:\n  pop\n  pop\n  pop\n    /* \"contracts/Ejercicio1CuentaAhorro.sol\":913:1499  contract Ejercicio1CuentaAhorro {\r... */\n  callvalue\n  dup1\n  iszero\n  tag_5\n  jumpi\n  0x00\n  dup1\n  revert\ntag_5:\n  pop\n  jump(tag_6)\ntag_2:\n  dup3\n  dup1\n  sload\n  tag_7\n  swap1\n  tag_8\n  jump\t// in\ntag_7:\n  swap1\n  0x00\n  mstore\n  keccak256(0x00, 0x20)\n  swap1\n  0x1f\n  add\n  0x20\n  swap1\n  div\n  dup2\n  add\n  swap3\n  dup3\n  tag_10\n  jumpi\n  0x00\n  dup6\n  sstore\n  jump(tag_9)\ntag_10:\n  dup3\n  0x1f\n  lt\n  tag_11\n  jumpi\n  dup1\n  mload\n  not(0xff)\n  and\n  dup4\n  dup1\n  add\n  or\n  dup6\n  sstore\n  jump(tag_9)\ntag_11:\n  dup3\n  dup1\n  add\n  0x01\n  add\n  dup6\n  sstore\n  dup3\n  iszero\n  tag_9\n  jumpi\n  swap2\n  dup3\n  add\ntag_12:\n  dup3\n  dup2\n  gt\n  iszero\n  tag_13\n  jumpi\n  dup3\n  mload\n  dup3\n  sstore\n  swap2\n  0x20\n  add\n  swap2\n  swap1\n  0x01\n  add\n  swap1\n  jump(tag_12)\ntag_13:\ntag_9:\n  pop\n  swap1\n  pop\n  tag_14\n  swap2\n  swap1\n  tag_15\n  jump\t// in\ntag_14:\n  pop\n  swap1\n  jump\t// out\ntag_15:\ntag_16:\n  dup1\n  dup3\n  gt\n  iszero\n  tag_17\n  jumpi\n  0x00\n  dup2\n  0x00\n  swap1\n  sstore\n  pop\n  0x01\n  add\n  jump(tag_16)\ntag_17:\n  pop\n  swap1\n  jump\t// out\n    /* \"#utility.yul\":7:327   */\ntag_8:\n    /* \"#utility.yul\":51:57   */\n  0x00\n    /* \"#utility.yul\":88:89   */\n  0x02\n    /* \"#utility.yul\":82:86   */\n  dup3\n    /* \"#utility.yul\":78:90   */\n  div\n    /* \"#utility.yul\":68:90   */\n  swap1\n  pop\n    /* \"#utility.yul\":135:136   */\n  0x01\n    /* \"#utility.yul\":129:133   */\n  dup3\n    /* \"#utility.yul\":125:137   */\n  and\n    /* \"#utility.yul\":156:174   */\n  dup1\n    /* \"#utility.yul\":146:227   */\n  tag_20\n  jumpi\n    /* \"#utility.yul\":212:216   */\n  0x7f\n    /* \"#utility.yul\":204:210   */\n  dup3\n    /* \"#utility.yul\":200:217   */\n  and\n    /* \"#utility.yul\":190:217   */\n  swap2\n  pop\n    /* \"#utility.yul\":146:227   */\ntag_20:\n    /* \"#utility.yul\":274:276   */\n  0x20\n    /* \"#utility.yul\":266:272   */\n  dup3\n    /* \"#utility.yul\":263:277   */\n  lt\n    /* \"#utility.yul\":243:261   */\n  dup2\n    /* \"#utility.yul\":240:278   */\n  eq\n    /* \"#utility.yul\":237:321   */\n  iszero\n  tag_21\n  jumpi\n    /* \"#utility.yul\":293:311   */\n  tag_22\n  tag_23\n  jump\t// in\ntag_22:\n    /* \"#utility.yul\":237:321   */\ntag_21:\n    /* \"#utility.yul\":58:327   */\n  pop\n    /* \"#utility.yul\":7:327   */\n  swap2\n  swap1\n  pop\n  jump\t// out\n    /* \"#utility.yul\":333:513   */\ntag_23:\n    /* \"#utility.yul\":381:458   */\n  0x4e487b7100000000000000000000000000000000000000000000000000000000\n    /* \"#utility.yul\":378:379   */\n  0x00\n    /* \"#utility.yul\":371:459   */\n  mstore\n    /* \"#utility.yul\":478:482   */\n  0x22\n    /* \"#utility.yul\":475:476   */\n  0x04\n    /* \"#utility.yul\":468:483   */\n  mstore\n    /* \"#utility.yul\":502:506   */\n  0x24\n    /* \"#utility.yul\":499:500   */\n  0x00\n    /* \"#utility.yul\":492:507   */\n  revert\n    /* \"contracts/Ejercicio1CuentaAhorro.sol\":913:1499  contract Ejercicio1CuentaAhorro {\r... */\ntag_6:\n  dataSize(sub_0)\n  dup1\n  dataOffset(sub_0)\n  0x00\n  codecopy\n  0x00\n  return\nstop\ndata_73b49fe9b2415f7043a9fabd65f4f4ea3962b31d51617906e5ba75ced62a3fb9 307835423338446136613730316335363835343564436663423033466342383735663536626564644334\n\nsub_0: assembly {\n        /* \"contracts/Ejercicio1CuentaAhorro.sol\":913:1499  contract Ejercicio1CuentaAhorro {\r... */\n      mstore(0x40, 0x80)\n      callvalue\n      dup1\n      iszero\n      tag_1\n      jumpi\n      0x00\n      dup1\n      revert\n    tag_1:\n      pop\n      jumpi(tag_2, lt(calldatasize, 0x04))\n      shr(0xe0, calldataload(0x00))\n      dup1\n      0x5f57697c\n      eq\n      tag_3\n      jumpi\n      dup1\n      0x93ba1e60\n      eq\n      tag_4\n      jumpi\n      dup1\n      0xc28a41ec\n      eq\n      tag_5\n      jumpi\n    tag_2:\n      0x00\n      dup1\n      revert\n        /* \"contracts/Ejercicio1CuentaAhorro.sol\":1116:1223  CuentaAhorro public c1 = CuentaAhorro(0,\"Ivy\", \"0x5B38Da6a701c568545dCfcB03FcB875f56beddC4\", 25 ,\"Purpura\") */\n    tag_3:\n      tag_6\n      tag_7\n      jump\t// in\n    tag_6:\n      mload(0x40)\n      tag_8\n      swap6\n      swap5\n      swap4\n      swap3\n      swap2\n      swap1\n      tag_9\n      jump\t// in\n    tag_8:\n      mload(0x40)\n      dup1\n      swap2\n      sub\n      swap1\n      return\n        /* \"contracts/Ejercicio1CuentaAhorro.sol\":1234:1389  function ingresarSaldo (int saldoParaIngresar) public {\r... */\n    tag_4:\n      tag_10\n      0x04\n      dup1\n      calldatasize\n      sub\n      dup2\n      add\n      swap1\n      tag_11\n      swap2\n      swap1\n      tag_12\n      jump\t// in\n    tag_11:\n      tag_13\n      jump\t// in\n    tag_10:\n      stop\n        /* \"contracts/Ejercicio1CuentaAhorro.sol\":1397:1496  function retirarSaldo (int saldoParaRetirar) public {\r... */\n    tag_5:\n      tag_14\n      0x04\n      dup1\n      calldatasize\n      sub\n      dup2\n      add\n      swap1\n      tag_15\n      swap2\n      swap1\n      tag_12\n      jump\t// in\n    tag_15:\n      tag_16\n      jump\t// in\n    tag_14:\n      stop\n        /* \"contracts/Ejercicio1CuentaAhorro.sol\":1116:1223  CuentaAhorro public c1 = CuentaAhorro(0,\"Ivy\", \"0x5B38Da6a701c568545dCfcB03FcB875f56beddC4\", 25 ,\"Purpura\") */\n    tag_7:\n      0x00\n      dup1\n      0x00\n      add\n      sload\n      swap1\n      dup1\n      0x01\n      add\n      dup1\n      sload\n      tag_17\n      swap1\n      tag_18\n      jump\t// in\n    tag_17:\n      dup1\n      0x1f\n      add\n      0x20\n      dup1\n      swap2\n      div\n      mul\n      0x20\n      add\n      mload(0x40)\n      swap1\n      dup2\n      add\n      0x40\n      mstore\n      dup1\n      swap3\n      swap2\n      swap1\n      dup2\n      dup2\n      mstore\n      0x20\n      add\n      dup3\n      dup1\n      sload\n      tag_19\n      swap1\n      tag_18\n      jump\t// in\n    tag_19:\n      dup1\n      iszero\n      tag_20\n      jumpi\n      dup1\n      0x1f\n      lt\n      tag_21\n      jumpi\n      0x0100\n      dup1\n      dup4\n      sload\n      div\n      mul\n      dup4\n      mstore\n      swap2\n      0x20\n      add\n      swap2\n      jump(tag_20)\n    tag_21:\n      dup3\n      add\n      swap2\n      swap1\n      0x00\n      mstore\n      keccak256(0x00, 0x20)\n      swap1\n    tag_22:\n      dup2\n      sload\n      dup2\n      mstore\n      swap1\n      0x01\n      add\n      swap1\n      0x20\n      add\n      dup1\n      dup4\n      gt\n      tag_22\n      jumpi\n      dup3\n      swap1\n      sub\n      0x1f\n      and\n      dup3\n      add\n      swap2\n    tag_20:\n      pop\n      pop\n      pop\n      pop\n      pop\n      swap1\n      dup1\n      0x02\n      add\n      dup1\n      sload\n      tag_23\n      swap1\n      tag_18\n      jump\t// in\n    tag_23:\n      dup1\n      0x1f\n      add\n      0x20\n      dup1\n      swap2\n      div\n      mul\n      0x20\n      add\n      mload(0x40)\n      swap1\n      dup2\n      add\n      0x40\n      mstore\n      dup1\n      swap3\n      swap2\n      swap1\n      dup2\n      dup2\n      mstore\n      0x20\n      add\n      dup3\n      dup1\n      sload\n      tag_24\n      swap1\n      tag_18\n      jump\t// in\n    tag_24:\n      dup1\n      iszero\n      tag_25\n      jumpi\n      dup1\n      0x1f\n      lt\n      tag_26\n      jumpi\n      0x0100\n      dup1\n      dup4\n      sload\n      div\n      mul\n      dup4\n      mstore\n      swap2\n      0x20\n      add\n      swap2\n      jump(tag_25)\n    tag_26:\n      dup3\n      add\n      swap2\n      swap1\n      0x00\n      mstore\n      keccak256(0x00, 0x20)\n      swap1\n    tag_27:\n      dup2\n      sload\n      dup2\n      mstore\n      swap1\n      0x01\n      add\n      swap1\n      0x20\n      add\n      dup1\n      dup4\n      gt\n      tag_27\n      jumpi\n      dup3\n      swap1\n      sub\n      0x1f\n      and\n      dup3\n      add\n      swap2\n    tag_25:\n      pop\n      pop\n      pop\n      pop\n      pop\n      swap1\n      dup1\n      0x03\n      add\n      sload\n      swap1\n      dup1\n      0x04\n      add\n      dup1\n      sload\n      tag_28\n      swap1\n      tag_18\n      jump\t// in\n    tag_28:\n      dup1\n      0x1f\n      add\n      0x20\n      dup1\n      swap2\n      div\n      mul\n      0x20\n      add\n      mload(0x40)\n      swap1\n      dup2\n      add\n      0x40\n      mstore\n      dup1\n      swap3\n      swap2\n      swap1\n      dup2\n      dup2\n      mstore\n      0x20\n      add\n      dup3\n      dup1\n      sload\n      tag_29\n      swap1\n      tag_18\n      jump\t// in\n    tag_29:\n      dup1\n      iszero\n      tag_30\n      jumpi\n      dup1\n      0x1f\n      lt\n      tag_31\n      jumpi\n      0x0100\n      dup1\n      dup4\n      sload\n      div\n      mul\n      dup4\n      mstore\n      swap2\n      0x20\n      add\n      swap2\n      jump(tag_30)\n    tag_31:\n      dup3\n      add\n      swap2\n      swap1\n      0x00\n      mstore\n      keccak256(0x00, 0x20)\n      swap1\n    tag_32:\n      dup2\n      sload\n      dup2\n      mstore\n      swap1\n      0x01\n      add\n      swap1\n      0x20\n      add\n      dup1\n      dup4\n      gt\n      tag_32\n      jumpi\n      dup3\n      swap1\n      sub\n      0x1f\n      and\n      dup3\n      add\n      swap2\n    tag_30:\n      pop\n      pop\n      pop\n      pop\n      pop\n      swap1\n      pop\n      dup6\n      jump\t// out\n        /* \"contracts/Ejercicio1CuentaAhorro.sol\":1234:1389  function ingresarSaldo (int saldoParaIngresar) public {\r... */\n    tag_13:\n        /* \"contracts/Ejercicio1CuentaAhorro.sol\":1328:1329  0 */\n      0x00\n        /* \"contracts/Ejercicio1CuentaAhorro.sol\":1308:1325  saldoParaIngresar */\n      dup2\n        /* \"contracts/Ejercicio1CuentaAhorro.sol\":1308:1329  saldoParaIngresar > 0 */\n      sgt\n        /* \"contracts/Ejercicio1CuentaAhorro.sol\":1300:1339  require(saldoParaIngresar > 0, \"Salso\") */\n      tag_34\n      jumpi\n      mload(0x40)\n      0x08c379a000000000000000000000000000000000000000000000000000000000\n      dup2\n      mstore\n      0x04\n      add\n      tag_35\n      swap1\n      tag_36\n      jump\t// in\n    tag_35:\n      mload(0x40)\n      dup1\n      swap2\n      sub\n      swap1\n      revert\n    tag_34:\n        /* \"contracts/Ejercicio1CuentaAhorro.sol\":1364:1381  saldoParaIngresar */\n      dup1\n        /* \"contracts/Ejercicio1CuentaAhorro.sol\":1352:1354  c1 */\n      0x00\n        /* \"contracts/Ejercicio1CuentaAhorro.sol\":1352:1360  c1.saldo */\n      dup1\n      add\n      0x00\n        /* \"contracts/Ejercicio1CuentaAhorro.sol\":1352:1381  c1.saldo += saldoParaIngresar */\n      dup3\n      dup3\n      sload\n      tag_37\n      swap2\n      swap1\n      tag_38\n      jump\t// in\n    tag_37:\n      swap3\n      pop\n      pop\n      dup2\n      swap1\n      sstore\n      pop\n        /* \"contracts/Ejercicio1CuentaAhorro.sol\":1234:1389  function ingresarSaldo (int saldoParaIngresar) public {\r... */\n      pop\n      jump\t// out\n        /* \"contracts/Ejercicio1CuentaAhorro.sol\":1397:1496  function retirarSaldo (int saldoParaRetirar) public {\r... */\n    tag_16:\n        /* \"contracts/Ejercicio1CuentaAhorro.sol\":1472:1488  saldoParaRetirar */\n      dup1\n        /* \"contracts/Ejercicio1CuentaAhorro.sol\":1460:1462  c1 */\n      0x00\n        /* \"contracts/Ejercicio1CuentaAhorro.sol\":1460:1468  c1.saldo */\n      dup1\n      add\n      0x00\n        /* \"contracts/Ejercicio1CuentaAhorro.sol\":1460:1488  c1.saldo -= saldoParaRetirar */\n      dup3\n      dup3\n      sload\n      tag_40\n      swap2\n      swap1\n      tag_41\n      jump\t// in\n    tag_40:\n      swap3\n      pop\n      pop\n      dup2\n      swap1\n      sstore\n      pop\n        /* \"contracts/Ejercicio1CuentaAhorro.sol\":1397:1496  function retirarSaldo (int saldoParaRetirar) public {\r... */\n      pop\n      jump\t// out\n        /* \"#utility.yul\":7:144   */\n    tag_43:\n        /* \"#utility.yul\":52:57   */\n      0x00\n        /* \"#utility.yul\":90:96   */\n      dup2\n        /* \"#utility.yul\":77:97   */\n      calldataload\n        /* \"#utility.yul\":68:97   */\n      swap1\n      pop\n        /* \"#utility.yul\":106:138   */\n      tag_45\n        /* \"#utility.yul\":132:137   */\n      dup2\n        /* \"#utility.yul\":106:138   */\n      tag_46\n      jump\t// in\n    tag_45:\n        /* \"#utility.yul\":7:144   */\n      swap3\n      swap2\n      pop\n      pop\n      jump\t// out\n        /* \"#utility.yul\":150:477   */\n    tag_12:\n        /* \"#utility.yul\":208:214   */\n      0x00\n        /* \"#utility.yul\":257:259   */\n      0x20\n        /* \"#utility.yul\":245:254   */\n      dup3\n        /* \"#utility.yul\":236:243   */\n      dup5\n        /* \"#utility.yul\":232:255   */\n      sub\n        /* \"#utility.yul\":228:260   */\n      slt\n        /* \"#utility.yul\":225:344   */\n      iszero\n      tag_48\n      jumpi\n        /* \"#utility.yul\":263:342   */\n      tag_49\n      tag_50\n      jump\t// in\n    tag_49:\n        /* \"#utility.yul\":225:344   */\n    tag_48:\n        /* \"#utility.yul\":383:384   */\n      0x00\n        /* \"#utility.yul\":408:460   */\n      tag_51\n        /* \"#utility.yul\":452:459   */\n      dup5\n        /* \"#utility.yul\":443:449   */\n      dup3\n        /* \"#utility.yul\":432:441   */\n      dup6\n        /* \"#utility.yul\":428:450   */\n      add\n        /* \"#utility.yul\":408:460   */\n      tag_43\n      jump\t// in\n    tag_51:\n        /* \"#utility.yul\":398:460   */\n      swap2\n      pop\n        /* \"#utility.yul\":354:470   */\n      pop\n        /* \"#utility.yul\":150:477   */\n      swap3\n      swap2\n      pop\n      pop\n      jump\t// out\n        /* \"#utility.yul\":483:598   */\n    tag_52:\n        /* \"#utility.yul\":568:591   */\n      tag_54\n        /* \"#utility.yul\":585:590   */\n      dup2\n        /* \"#utility.yul\":568:591   */\n      tag_55\n      jump\t// in\n    tag_54:\n        /* \"#utility.yul\":563:566   */\n      dup3\n        /* \"#utility.yul\":556:592   */\n      mstore\n        /* \"#utility.yul\":483:598   */\n      pop\n      pop\n      jump\t// out\n        /* \"#utility.yul\":604:968   */\n    tag_56:\n        /* \"#utility.yul\":692:695   */\n      0x00\n        /* \"#utility.yul\":720:759   */\n      tag_58\n        /* \"#utility.yul\":753:758   */\n      dup3\n        /* \"#utility.yul\":720:759   */\n      tag_59\n      jump\t// in\n    tag_58:\n        /* \"#utility.yul\":775:846   */\n      tag_60\n        /* \"#utility.yul\":839:845   */\n      dup2\n        /* \"#utility.yul\":834:837   */\n      dup6\n        /* \"#utility.yul\":775:846   */\n      tag_61\n      jump\t// in\n    tag_60:\n        /* \"#utility.yul\":768:846   */\n      swap4\n      pop\n        /* \"#utility.yul\":855:907   */\n      tag_62\n        /* \"#utility.yul\":900:906   */\n      dup2\n        /* \"#utility.yul\":895:898   */\n      dup6\n        /* \"#utility.yul\":888:892   */\n      0x20\n        /* \"#utility.yul\":881:886   */\n      dup7\n        /* \"#utility.yul\":877:893   */\n      add\n        /* \"#utility.yul\":855:907   */\n      tag_63\n      jump\t// in\n    tag_62:\n        /* \"#utility.yul\":932:961   */\n      tag_64\n        /* \"#utility.yul\":954:960   */\n      dup2\n        /* \"#utility.yul\":932:961   */\n      tag_65\n      jump\t// in\n    tag_64:\n        /* \"#utility.yul\":927:930   */\n      dup5\n        /* \"#utility.yul\":923:962   */\n      add\n        /* \"#utility.yul\":916:962   */\n      swap2\n      pop\n        /* \"#utility.yul\":696:968   */\n      pop\n        /* \"#utility.yul\":604:968   */\n      swap3\n      swap2\n      pop\n      pop\n      jump\t// out\n        /* \"#utility.yul\":974:1339   */\n    tag_66:\n        /* \"#utility.yul\":1116:1119   */\n      0x00\n        /* \"#utility.yul\":1137:1203   */\n      tag_68\n        /* \"#utility.yul\":1201:1202   */\n      0x05\n        /* \"#utility.yul\":1196:1199   */\n      dup4\n        /* \"#utility.yul\":1137:1203   */\n      tag_61\n      jump\t// in\n    tag_68:\n        /* \"#utility.yul\":1130:1203   */\n      swap2\n      pop\n        /* \"#utility.yul\":1212:1305   */\n      tag_69\n        /* \"#utility.yul\":1301:1304   */\n      dup3\n        /* \"#utility.yul\":1212:1305   */\n      tag_70\n      jump\t// in\n    tag_69:\n        /* \"#utility.yul\":1330:1332   */\n      0x20\n        /* \"#utility.yul\":1325:1328   */\n      dup3\n        /* \"#utility.yul\":1321:1333   */\n      add\n        /* \"#utility.yul\":1314:1333   */\n      swap1\n      pop\n        /* \"#utility.yul\":974:1339   */\n      swap2\n      swap1\n      pop\n      jump\t// out\n        /* \"#utility.yul\":1345:2274   */\n    tag_9:\n        /* \"#utility.yul\":1606:1610   */\n      0x00\n        /* \"#utility.yul\":1644:1647   */\n      0xa0\n        /* \"#utility.yul\":1633:1642   */\n      dup3\n        /* \"#utility.yul\":1629:1648   */\n      add\n        /* \"#utility.yul\":1621:1648   */\n      swap1\n      pop\n        /* \"#utility.yul\":1658:1727   */\n      tag_72\n        /* \"#utility.yul\":1724:1725   */\n      0x00\n        /* \"#utility.yul\":1713:1722   */\n      dup4\n        /* \"#utility.yul\":1709:1726   */\n      add\n        /* \"#utility.yul\":1700:1706   */\n      dup9\n        /* \"#utility.yul\":1658:1727   */\n      tag_52\n      jump\t// in\n    tag_72:\n        /* \"#utility.yul\":1774:1783   */\n      dup2\n        /* \"#utility.yul\":1768:1772   */\n      dup2\n        /* \"#utility.yul\":1764:1784   */\n      sub\n        /* \"#utility.yul\":1759:1761   */\n      0x20\n        /* \"#utility.yul\":1748:1757   */\n      dup4\n        /* \"#utility.yul\":1744:1762   */\n      add\n        /* \"#utility.yul\":1737:1785   */\n      mstore\n        /* \"#utility.yul\":1802:1880   */\n      tag_73\n        /* \"#utility.yul\":1875:1879   */\n      dup2\n        /* \"#utility.yul\":1866:1872   */\n      dup8\n        /* \"#utility.yul\":1802:1880   */\n      tag_56\n      jump\t// in\n    tag_73:\n        /* \"#utility.yul\":1794:1880   */\n      swap1\n      pop\n        /* \"#utility.yul\":1927:1936   */\n      dup2\n        /* \"#utility.yul\":1921:1925   */\n      dup2\n        /* \"#utility.yul\":1917:1937   */\n      sub\n        /* \"#utility.yul\":1912:1914   */\n      0x40\n        /* \"#utility.yul\":1901:1910   */\n      dup4\n        /* \"#utility.yul\":1897:1915   */\n      add\n        /* \"#utility.yul\":1890:1938   */\n      mstore\n        /* \"#utility.yul\":1955:2033   */\n      tag_74\n        /* \"#utility.yul\":2028:2032   */\n      dup2\n        /* \"#utility.yul\":2019:2025   */\n      dup7\n        /* \"#utility.yul\":1955:2033   */\n      tag_56\n      jump\t// in\n    tag_74:\n        /* \"#utility.yul\":1947:2033   */\n      swap1\n      pop\n        /* \"#utility.yul\":2043:2113   */\n      tag_75\n        /* \"#utility.yul\":2109:2111   */\n      0x60\n        /* \"#utility.yul\":2098:2107   */\n      dup4\n        /* \"#utility.yul\":2094:2112   */\n      add\n        /* \"#utility.yul\":2085:2091   */\n      dup6\n        /* \"#utility.yul\":2043:2113   */\n      tag_52\n      jump\t// in\n    tag_75:\n        /* \"#utility.yul\":2161:2170   */\n      dup2\n        /* \"#utility.yul\":2155:2159   */\n      dup2\n        /* \"#utility.yul\":2151:2171   */\n      sub\n        /* \"#utility.yul\":2145:2148   */\n      0x80\n        /* \"#utility.yul\":2134:2143   */\n      dup4\n        /* \"#utility.yul\":2130:2149   */\n      add\n        /* \"#utility.yul\":2123:2172   */\n      mstore\n        /* \"#utility.yul\":2189:2267   */\n      tag_76\n        /* \"#utility.yul\":2262:2266   */\n      dup2\n        /* \"#utility.yul\":2253:2259   */\n      dup5\n        /* \"#utility.yul\":2189:2267   */\n      tag_56\n      jump\t// in\n    tag_76:\n        /* \"#utility.yul\":2181:2267   */\n      swap1\n      pop\n        /* \"#utility.yul\":1345:2274   */\n      swap7\n      swap6\n      pop\n      pop\n      pop\n      pop\n      pop\n      pop\n      jump\t// out\n        /* \"#utility.yul\":2280:2699   */\n    tag_36:\n        /* \"#utility.yul\":2446:2450   */\n      0x00\n        /* \"#utility.yul\":2484:2486   */\n      0x20\n        /* \"#utility.yul\":2473:2482   */\n      dup3\n        /* \"#utility.yul\":2469:2487   */\n      add\n        /* \"#utility.yul\":2461:2487   */\n      swap1\n      pop\n        /* \"#utility.yul\":2533:2542   */\n      dup2\n        /* \"#utility.yul\":2527:2531   */\n      dup2\n        /* \"#utility.yul\":2523:2543   */\n      sub\n        /* \"#utility.yul\":2519:2520   */\n      0x00\n        /* \"#utility.yul\":2508:2517   */\n      dup4\n        /* \"#utility.yul\":2504:2521   */\n      add\n        /* \"#utility.yul\":2497:2544   */\n      mstore\n        /* \"#utility.yul\":2561:2692   */\n      tag_78\n        /* \"#utility.yul\":2687:2691   */\n      dup2\n        /* \"#utility.yul\":2561:2692   */\n      tag_66\n      jump\t// in\n    tag_78:\n        /* \"#utility.yul\":2553:2692   */\n      swap1\n      pop\n        /* \"#utility.yul\":2280:2699   */\n      swap2\n      swap1\n      pop\n      jump\t// out\n        /* \"#utility.yul\":2786:2885   */\n    tag_59:\n        /* \"#utility.yul\":2838:2844   */\n      0x00\n        /* \"#utility.yul\":2872:2877   */\n      dup2\n        /* \"#utility.yul\":2866:2878   */\n      mload\n        /* \"#utility.yul\":2856:2878   */\n      swap1\n      pop\n        /* \"#utility.yul\":2786:2885   */\n      swap2\n      swap1\n      pop\n      jump\t// out\n        /* \"#utility.yul\":2891:3060   */\n    tag_61:\n        /* \"#utility.yul\":2975:2986   */\n      0x00\n        /* \"#utility.yul\":3009:3015   */\n      dup3\n        /* \"#utility.yul\":3004:3007   */\n      dup3\n        /* \"#utility.yul\":2997:3016   */\n      mstore\n        /* \"#utility.yul\":3049:3053   */\n      0x20\n        /* \"#utility.yul\":3044:3047   */\n      dup3\n        /* \"#utility.yul\":3040:3054   */\n      add\n        /* \"#utility.yul\":3025:3054   */\n      swap1\n      pop\n        /* \"#utility.yul\":2891:3060   */\n      swap3\n      swap2\n      pop\n      pop\n      jump\t// out\n        /* \"#utility.yul\":3066:3591   */\n    tag_38:\n        /* \"#utility.yul\":3105:3108   */\n      0x00\n        /* \"#utility.yul\":3124:3143   */\n      tag_84\n        /* \"#utility.yul\":3141:3142   */\n      dup3\n        /* \"#utility.yul\":3124:3143   */\n      tag_55\n      jump\t// in\n    tag_84:\n        /* \"#utility.yul\":3119:3143   */\n      swap2\n      pop\n        /* \"#utility.yul\":3157:3176   */\n      tag_85\n        /* \"#utility.yul\":3174:3175   */\n      dup4\n        /* \"#utility.yul\":3157:3176   */\n      tag_55\n      jump\t// in\n    tag_85:\n        /* \"#utility.yul\":3152:3176   */\n      swap3\n      pop\n        /* \"#utility.yul\":3345:3346   */\n      dup2\n        /* \"#utility.yul\":3277:3343   */\n      0x7fffffffffffffffffffffffffffffffffffffffffffffffffffffffffffffff\n        /* \"#utility.yul\":3273:3347   */\n      sub\n        /* \"#utility.yul\":3270:3271   */\n      dup4\n        /* \"#utility.yul\":3266:3348   */\n      sgt\n        /* \"#utility.yul\":3261:3262   */\n      0x00\n        /* \"#utility.yul\":3258:3259   */\n      dup4\n        /* \"#utility.yul\":3254:3263   */\n      slt\n        /* \"#utility.yul\":3247:3264   */\n      iszero\n        /* \"#utility.yul\":3243:3349   */\n      and\n        /* \"#utility.yul\":3240:3372   */\n      iszero\n      tag_86\n      jumpi\n        /* \"#utility.yul\":3352:3370   */\n      tag_87\n      tag_88\n      jump\t// in\n    tag_87:\n        /* \"#utility.yul\":3240:3372   */\n    tag_86:\n        /* \"#utility.yul\":3532:3533   */\n      dup2\n        /* \"#utility.yul\":3464:3530   */\n      0x8000000000000000000000000000000000000000000000000000000000000000\n        /* \"#utility.yul\":3460:3534   */\n      sub\n        /* \"#utility.yul\":3457:3458   */\n      dup4\n        /* \"#utility.yul\":3453:3535   */\n      slt\n        /* \"#utility.yul\":3449:3450   */\n      0x00\n        /* \"#utility.yul\":3446:3447   */\n      dup4\n        /* \"#utility.yul\":3442:3451   */\n      slt\n        /* \"#utility.yul\":3438:3536   */\n      and\n        /* \"#utility.yul\":3435:3559   */\n      iszero\n      tag_89\n      jumpi\n        /* \"#utility.yul\":3539:3557   */\n      tag_90\n      tag_88\n      jump\t// in\n    tag_90:\n        /* \"#utility.yul\":3435:3559   */\n    tag_89:\n        /* \"#utility.yul\":3583:3584   */\n      dup3\n        /* \"#utility.yul\":3580:3581   */\n      dup3\n        /* \"#utility.yul\":3576:3585   */\n      add\n        /* \"#utility.yul\":3569:3585   */\n      swap1\n      pop\n        /* \"#utility.yul\":3066:3591   */\n      swap3\n      swap2\n      pop\n      pop\n      jump\t// out\n        /* \"#utility.yul\":3597:4124   */\n    tag_41:\n        /* \"#utility.yul\":3636:3640   */\n      0x00\n        /* \"#utility.yul\":3656:3675   */\n      tag_92\n        /* \"#utility.yul\":3673:3674   */\n      dup3\n        /* \"#utility.yul\":3656:3675   */\n      tag_55\n      jump\t// in\n    tag_92:\n        /* \"#utility.yul\":3651:3675   */\n      swap2\n      pop\n        /* \"#utility.yul\":3689:3708   */\n      tag_93\n        /* \"#utility.yul\":3706:3707   */\n      dup4\n        /* \"#utility.yul\":3689:3708   */\n      tag_55\n      jump\t// in\n    tag_93:\n        /* \"#utility.yul\":3684:3708   */\n      swap3\n      pop\n        /* \"#utility.yul\":3878:3879   */\n      dup3\n        /* \"#utility.yul\":3810:3876   */\n      0x8000000000000000000000000000000000000000000000000000000000000000\n        /* \"#utility.yul\":3806:3880   */\n      add\n        /* \"#utility.yul\":3803:3804   */\n      dup3\n        /* \"#utility.yul\":3799:3881   */\n      slt\n        /* \"#utility.yul\":3794:3795   */\n      0x00\n        /* \"#utility.yul\":3791:3792   */\n      dup5\n        /* \"#utility.yul\":3787:3796   */\n      slt\n        /* \"#utility.yul\":3780:3797   */\n      iszero\n        /* \"#utility.yul\":3776:3882   */\n      and\n        /* \"#utility.yul\":3773:3905   */\n      iszero\n      tag_94\n      jumpi\n        /* \"#utility.yul\":3885:3903   */\n      tag_95\n      tag_88\n      jump\t// in\n    tag_95:\n        /* \"#utility.yul\":3773:3905   */\n    tag_94:\n        /* \"#utility.yul\":4064:4065   */\n      dup3\n        /* \"#utility.yul\":3996:4062   */\n      0x7fffffffffffffffffffffffffffffffffffffffffffffffffffffffffffffff\n        /* \"#utility.yul\":3992:4066   */\n      add\n        /* \"#utility.yul\":3989:3990   */\n      dup3\n        /* \"#utility.yul\":3985:4067   */\n      sgt\n        /* \"#utility.yul\":3981:3982   */\n      0x00\n        /* \"#utility.yul\":3978:3979   */\n      dup5\n        /* \"#utility.yul\":3974:3983   */\n      slt\n        /* \"#utility.yul\":3970:4068   */\n      and\n        /* \"#utility.yul\":3967:4091   */\n      iszero\n      tag_96\n      jumpi\n        /* \"#utility.yul\":4071:4089   */\n      tag_97\n      tag_88\n      jump\t// in\n    tag_97:\n        /* \"#utility.yul\":3967:4091   */\n    tag_96:\n        /* \"#utility.yul\":4116:4117   */\n      dup3\n        /* \"#utility.yul\":4113:4114   */\n      dup3\n        /* \"#utility.yul\":4109:4118   */\n      sub\n        /* \"#utility.yul\":4101:4118   */\n      swap1\n      pop\n        /* \"#utility.yul\":3597:4124   */\n      swap3\n      swap2\n      pop\n      pop\n      jump\t// out\n        /* \"#utility.yul\":4130:4206   */\n    tag_55:\n        /* \"#utility.yul\":4166:4173   */\n      0x00\n        /* \"#utility.yul\":4195:4200   */\n      dup2\n        /* \"#utility.yul\":4184:4200   */\n      swap1\n      pop\n        /* \"#utility.yul\":4130:4206   */\n      swap2\n      swap1\n      pop\n      jump\t// out\n        /* \"#utility.yul\":4212:4519   */\n    tag_63:\n        /* \"#utility.yul\":4280:4281   */\n      0x00\n        /* \"#utility.yul\":4290:4403   */\n    tag_100:\n        /* \"#utility.yul\":4304:4310   */\n      dup4\n        /* \"#utility.yul\":4301:4302   */\n      dup2\n        /* \"#utility.yul\":4298:4311   */\n      lt\n        /* \"#utility.yul\":4290:4403   */\n      iszero\n      tag_102\n      jumpi\n        /* \"#utility.yul\":4389:4390   */\n      dup1\n        /* \"#utility.yul\":4384:4387   */\n      dup3\n        /* \"#utility.yul\":4380:4391   */\n      add\n        /* \"#utility.yul\":4374:4392   */\n      mload\n        /* \"#utility.yul\":4370:4371   */\n      dup2\n        /* \"#utility.yul\":4365:4368   */\n      dup5\n        /* \"#utility.yul\":4361:4372   */\n      add\n        /* \"#utility.yul\":4354:4393   */\n      mstore\n        /* \"#utility.yul\":4326:4328   */\n      0x20\n        /* \"#utility.yul\":4323:4324   */\n      dup2\n        /* \"#utility.yul\":4319:4329   */\n      add\n        /* \"#utility.yul\":4314:4329   */\n      swap1\n      pop\n        /* \"#utility.yul\":4290:4403   */\n      jump(tag_100)\n    tag_102:\n        /* \"#utility.yul\":4421:4427   */\n      dup4\n        /* \"#utility.yul\":4418:4419   */\n      dup2\n        /* \"#utility.yul\":4415:4428   */\n      gt\n        /* \"#utility.yul\":4412:4513   */\n      iszero\n      tag_103\n      jumpi\n        /* \"#utility.yul\":4501:4502   */\n      0x00\n        /* \"#utility.yul\":4492:4498   */\n      dup5\n        /* \"#utility.yul\":4487:4490   */\n      dup5\n        /* \"#utility.yul\":4483:4499   */\n      add\n        /* \"#utility.yul\":4476:4503   */\n      mstore\n        /* \"#utility.yul\":4412:4513   */\n    tag_103:\n        /* \"#utility.yul\":4261:4519   */\n      pop\n        /* \"#utility.yul\":4212:4519   */\n      pop\n      pop\n      pop\n      jump\t// out\n        /* \"#utility.yul\":4525:4845   */\n    tag_18:\n        /* \"#utility.yul\":4569:4575   */\n      0x00\n        /* \"#utility.yul\":4606:4607   */\n      0x02\n        /* \"#utility.yul\":4600:4604   */\n      dup3\n        /* \"#utility.yul\":4596:4608   */\n      div\n        /* \"#utility.yul\":4586:4608   */\n      swap1\n      pop\n        /* \"#utility.yul\":4653:4654   */\n      0x01\n        /* \"#utility.yul\":4647:4651   */\n      dup3\n        /* \"#utility.yul\":4643:4655   */\n      and\n        /* \"#utility.yul\":4674:4692   */\n      dup1\n        /* \"#utility.yul\":4664:4745   */\n      tag_105\n      jumpi\n        /* \"#utility.yul\":4730:4734   */\n      0x7f\n        /* \"#utility.yul\":4722:4728   */\n      dup3\n        /* \"#utility.yul\":4718:4735   */\n      and\n        /* \"#utility.yul\":4708:4735   */\n      swap2\n      pop\n        /* \"#utility.yul\":4664:4745   */\n    tag_105:\n        /* \"#utility.yul\":4792:4794   */\n      0x20\n        /* \"#utility.yul\":4784:4790   */\n      dup3\n        /* \"#utility.yul\":4781:4795   */\n      lt\n        /* \"#utility.yul\":4761:4779   */\n      dup2\n        /* \"#utility.yul\":4758:4796   */\n      eq\n        /* \"#utility.yul\":4755:4839   */\n      iszero\n      tag_106\n      jumpi\n        /* \"#utility.yul\":4811:4829   */\n      tag_107\n      tag_108\n      jump\t// in\n    tag_107:\n        /* \"#utility.yul\":4755:4839   */\n    tag_106:\n        /* \"#utility.yul\":4576:4845   */\n      pop\n        /* \"#utility.yul\":4525:4845   */\n      swap2\n      swap1\n      pop\n      jump\t// out\n        /* \"#utility.yul\":4851:5031   */\n    tag_88:\n        /* \"#utility.yul\":4899:4976   */\n      0x4e487b7100000000000000000000000000000000000000000000000000000000\n        /* \"#utility.yul\":4896:4897   */\n      0x00\n        /* \"#utility.yul\":4889:4977   */\n      mstore\n        /* \"#utility.yul\":4996:5000   */\n      0x11\n        /* \"#utility.yul\":4993:4994   */\n      0x04\n        /* \"#utility.yul\":4986:5001   */\n      mstore\n        /* \"#utility.yul\":5020:5024   */\n      0x24\n        /* \"#utility.yul\":5017:5018   */\n      0x00\n        /* \"#utility.yul\":5010:5025   */\n      revert\n        /* \"#utility.yul\":5037:5217   */\n    tag_108:\n        /* \"#utility.yul\":5085:5162   */\n      0x4e487b7100000000000000000000000000000000000000000000000000000000\n        /* \"#utility.yul\":5082:5083   */\n      0x00\n        /* \"#utility.yul\":5075:5163   */\n      mstore\n        /* \"#utility.yul\":5182:5186   */\n      0x22\n        /* \"#utility.yul\":5179:5180   */\n      0x04\n        /* \"#utility.yul\":5172:5187   */\n      mstore\n        /* \"#utility.yul\":5206:5210   */\n      0x24\n        /* \"#utility.yul\":5203:5204   */\n      0x00\n        /* \"#utility.yul\":5196:5211   */\n      revert\n        /* \"#utility.yul\":5346:5463   */\n    tag_50:\n        /* \"#utility.yul\":5455:5456   */\n      0x00\n        /* \"#utility.yul\":5452:5453   */\n      dup1\n        /* \"#utility.yul\":5445:5457   */\n      revert\n        /* \"#utility.yul\":5469:5571   */\n    tag_65:\n        /* \"#utility.yul\":5510:5516   */\n      0x00\n        /* \"#utility.yul\":5561:5563   */\n      0x1f\n        /* \"#utility.yul\":5557:5564   */\n      not\n        /* \"#utility.yul\":5552:5554   */\n      0x1f\n        /* \"#utility.yul\":5545:5550   */\n      dup4\n        /* \"#utility.yul\":5541:5555   */\n      add\n        /* \"#utility.yul\":5537:5565   */\n      and\n        /* \"#utility.yul\":5527:5565   */\n      swap1\n      pop\n        /* \"#utility.yul\":5469:5571   */\n      swap2\n      swap1\n      pop\n      jump\t// out\n        /* \"#utility.yul\":5577:5732   */\n    tag_70:\n        /* \"#utility.yul\":5717:5724   */\n      0x53616c736f000000000000000000000000000000000000000000000000000000\n        /* \"#utility.yul\":5713:5714   */\n      0x00\n        /* \"#utility.yul\":5705:5711   */\n      dup3\n        /* \"#utility.yul\":5701:5715   */\n      add\n        /* \"#utility.yul\":5694:5725   */\n      mstore\n        /* \"#utility.yul\":5577:5732   */\n      pop\n      jump\t// out\n        /* \"#utility.yul\":5738:5858   */\n    tag_46:\n        /* \"#utility.yul\":5810:5833   */\n      tag_117\n        /* \"#utility.yul\":5827:5832   */\n      dup2\n        /* \"#utility.yul\":5810:5833   */\n      tag_55\n      jump\t// in\n    tag_117:\n        /* \"#utility.yul\":5803:5808   */\n      dup2\n        /* \"#utility.yul\":5800:5834   */\n      eq\n        /* \"#utility.yul\":5790:5852   */\n      tag_118\n      jumpi\n        /* \"#utility.yul\":5848:5849   */\n      0x00\n        /* \"#utility.yul\":5845:5846   */\n      dup1\n        /* \"#utility.yul\":5838:5850   */\n      revert\n        /* \"#utility.yul\":5790:5852   */\n    tag_118:\n        /* \"#utility.yul\":5738:5858   */\n      pop\n      jump\t// out\n\n    auxdata: 0xa2646970667358221220a0e0e1aff7897dc8d5500928f6462acc6e4cca03ab47eed43523673d55c6fd4b64736f6c63430008070033\n}\n",
				"bytecode": {
					"linkReferences": {},
					"object": "60806040526040518060a00160405280600081526020016040518060400160405280600381526020017f497679000000000000000000000000000000000000000000000000000000000081525081526020016040518060600160405280602a81526020016108ef602a91398152602001601981526020016040518060400160405280600781526020017f5075727075726100000000000000000000000000000000000000000000000000815250815250600080820151816000015560208201518160010190805190602001906100d692919061012f565b5060408201518160020190805190602001906100f392919061012f565b5060608201518160030155608082015181600401908051906020019061011a92919061012f565b50505034801561012957600080fd5b50610233565b82805461013b906101d2565b90600052602060002090601f01602090048101928261015d57600085556101a4565b82601f1061017657805160ff19168380011785556101a4565b828001600101855582156101a4579182015b828111156101a3578251825591602001919060010190610188565b5b5090506101b191906101b5565b5090565b5b808211156101ce5760008160009055506001016101b6565b5090565b600060028204905060018216806101ea57607f821691505b602082108114156101fe576101fd610204565b5b50919050565b7f4e487b7100000000000000000000000000000000000000000000000000000000600052602260045260246000fd5b6106ad806102426000396000f3fe608060405234801561001057600080fd5b50600436106100415760003560e01c80635f57697c1461004657806393ba1e6014610068578063c28a41ec14610084575b600080fd5b61004e6100a0565b60405161005f959493929190610388565b60405180910390f35b610082600480360381019061007d91906102f0565b61025c565b005b61009e600480360381019061009991906102f0565b6102bd565b005b60008060000154908060010180546100b790610591565b80601f01602080910402602001604051908101604052809291908181526020018280546100e390610591565b80156101305780601f1061010557610100808354040283529160200191610130565b820191906000526020600020905b81548152906001019060200180831161011357829003601f168201915b50505050509080600201805461014590610591565b80601f016020809104026020016040519081016040528092919081815260200182805461017190610591565b80156101be5780601f10610193576101008083540402835291602001916101be565b820191906000526020600020905b8154815290600101906020018083116101a157829003601f168201915b5050505050908060030154908060040180546101d990610591565b80601f016020809104026020016040519081016040528092919081815260200182805461020590610591565b80156102525780601f1061022757610100808354040283529160200191610252565b820191906000526020600020905b81548152906001019060200180831161023557829003601f168201915b5050505050905085565b6000811361029f576040517f08c379a0000000000000000000000000000000000000000000000000000000008152600401610296906103f0565b60405180910390fd5b806000800160008282546102b3919061042c565b9250508190555050565b806000800160008282546102d191906104c0565b9250508190555050565b6000813590506102ea81610660565b92915050565b60006020828403121561030657610305610621565b5b6000610314848285016102db565b91505092915050565b61032681610554565b82525050565b600061033782610410565b610341818561041b565b935061035181856020860161055e565b61035a81610626565b840191505092915050565b600061037260058361041b565b915061037d82610637565b602082019050919050565b600060a08201905061039d600083018861031d565b81810360208301526103af818761032c565b905081810360408301526103c3818661032c565b90506103d2606083018561031d565b81810360808301526103e4818461032c565b90509695505050505050565b6000602082019050818103600083015261040981610365565b9050919050565b600081519050919050565b600082825260208201905092915050565b600061043782610554565b915061044283610554565b9250817f7fffffffffffffffffffffffffffffffffffffffffffffffffffffffffffffff0383136000831215161561047d5761047c6105c3565b5b817f80000000000000000000000000000000000000000000000000000000000000000383126000831216156104b5576104b46105c3565b5b828201905092915050565b60006104cb82610554565b91506104d683610554565b9250827f800000000000000000000000000000000000000000000000000000000000000001821260008412151615610511576105106105c3565b5b827f7fffffffffffffffffffffffffffffffffffffffffffffffffffffffffffffff018213600084121615610549576105486105c3565b5b828203905092915050565b6000819050919050565b60005b8381101561057c578082015181840152602081019050610561565b8381111561058b576000848401525b50505050565b600060028204905060018216806105a957607f821691505b602082108114156105bd576105bc6105f2565b5b50919050565b7f4e487b7100000000000000000000000000000000000000000000000000000000600052601160045260246000fd5b7f4e487b7100000000000000000000000000000000000000000000000000000000600052602260045260246000fd5b600080fd5b6000601f19601f8301169050919050565b7f53616c736f000000000000000000000000000000000000000000000000000000600082015250565b61066981610554565b811461067457600080fd5b5056fea2646970667358221220a0e0e1aff7897dc8d5500928f6462acc6e4cca03ab47eed43523673d55c6fd4b64736f6c63430008070033307835423338446136613730316335363835343564436663423033466342383735663536626564644334",
					"opcodes": "PUSH1 0x80 PUSH1 0x40 MSTORE PUSH1 0x40 MLOAD DUP1 PUSH1 0xA0 ADD PUSH1 0x40 MSTORE DUP1 PUSH1 0x0 DUP2 MSTORE PUSH1 0x20 ADD PUSH1 0x40 MLOAD DUP1 PUSH1 0x40 ADD PUSH1 0x40 MSTORE DUP1 PUSH1 0x3 DUP2 MSTORE PUSH1 0x20 ADD PUSH32 0x4976790000000000000000000000000000000000000000000000000000000000 DUP2 MSTORE POP DUP2 MSTORE PUSH1 0x20 ADD PUSH1 0x40 MLOAD DUP1 PUSH1 0x60 ADD PUSH1 0x40 MSTORE DUP1 PUSH1 0x2A DUP2 MSTORE PUSH1 0x20 ADD PUSH2 0x8EF PUSH1 0x2A SWAP2 CODECOPY DUP2 MSTORE PUSH1 0x20 ADD PUSH1 0x19 DUP2 MSTORE PUSH1 0x20 ADD PUSH1 0x40 MLOAD DUP1 PUSH1 0x40 ADD PUSH1 0x40 MSTORE DUP1 PUSH1 0x7 DUP2 MSTORE PUSH1 0x20 ADD PUSH32 0x5075727075726100000000000000000000000000000000000000000000000000 DUP2 MSTORE POP DUP2 MSTORE POP PUSH1 0x0 DUP1 DUP3 ADD MLOAD DUP2 PUSH1 0x0 ADD SSTORE PUSH1 0x20 DUP3 ADD MLOAD DUP2 PUSH1 0x1 ADD SWAP1 DUP1 MLOAD SWAP1 PUSH1 0x20 ADD SWAP1 PUSH2 0xD6 SWAP3 SWAP2 SWAP1 PUSH2 0x12F JUMP JUMPDEST POP PUSH1 0x40 DUP3 ADD MLOAD DUP2 PUSH1 0x2 ADD SWAP1 DUP1 MLOAD SWAP1 PUSH1 0x20 ADD SWAP1 PUSH2 0xF3 SWAP3 SWAP2 SWAP1 PUSH2 0x12F JUMP JUMPDEST POP PUSH1 0x60 DUP3 ADD MLOAD DUP2 PUSH1 0x3 ADD SSTORE PUSH1 0x80 DUP3 ADD MLOAD DUP2 PUSH1 0x4 ADD SWAP1 DUP1 MLOAD SWAP1 PUSH1 0x20 ADD SWAP1 PUSH2 0x11A SWAP3 SWAP2 SWAP1 PUSH2 0x12F JUMP JUMPDEST POP POP POP CALLVALUE DUP1 ISZERO PUSH2 0x129 JUMPI PUSH1 0x0 DUP1 REVERT JUMPDEST POP PUSH2 0x233 JUMP JUMPDEST DUP3 DUP1 SLOAD PUSH2 0x13B SWAP1 PUSH2 0x1D2 JUMP JUMPDEST SWAP1 PUSH1 0x0 MSTORE PUSH1 0x20 PUSH1 0x0 KECCAK256 SWAP1 PUSH1 0x1F ADD PUSH1 0x20 SWAP1 DIV DUP2 ADD SWAP3 DUP3 PUSH2 0x15D JUMPI PUSH1 0x0 DUP6 SSTORE PUSH2 0x1A4 JUMP JUMPDEST DUP3 PUSH1 0x1F LT PUSH2 0x176 JUMPI DUP1 MLOAD PUSH1 0xFF NOT AND DUP4 DUP1 ADD OR DUP6 SSTORE PUSH2 0x1A4 JUMP JUMPDEST DUP3 DUP1 ADD PUSH1 0x1 ADD DUP6 SSTORE DUP3 ISZERO PUSH2 0x1A4 JUMPI SWAP2 DUP3 ADD JUMPDEST DUP3 DUP2 GT ISZERO PUSH2 0x1A3 JUMPI DUP3 MLOAD DUP3 SSTORE SWAP2 PUSH1 0x20 ADD SWAP2 SWAP1 PUSH1 0x1 ADD SWAP1 PUSH2 0x188 JUMP JUMPDEST JUMPDEST POP SWAP1 POP PUSH2 0x1B1 SWAP2 SWAP1 PUSH2 0x1B5 JUMP JUMPDEST POP SWAP1 JUMP JUMPDEST JUMPDEST DUP1 DUP3 GT ISZERO PUSH2 0x1CE JUMPI PUSH1 0x0 DUP2 PUSH1 0x0 SWAP1 SSTORE POP PUSH1 0x1 ADD PUSH2 0x1B6 JUMP JUMPDEST POP SWAP1 JUMP JUMPDEST PUSH1 0x0 PUSH1 0x2 DUP3 DIV SWAP1 POP PUSH1 0x1 DUP3 AND DUP1 PUSH2 0x1EA JUMPI PUSH1 0x7F DUP3 AND SWAP2 POP JUMPDEST PUSH1 0x20 DUP3 LT DUP2 EQ ISZERO PUSH2 0x1FE JUMPI PUSH2 0x1FD PUSH2 0x204 JUMP JUMPDEST JUMPDEST POP SWAP2 SWAP1 POP JUMP JUMPDEST PUSH32 0x4E487B7100000000000000000000000000000000000000000000000000000000 PUSH1 0x0 MSTORE PUSH1 0x22 PUSH1 0x4 MSTORE PUSH1 0x24 PUSH1 0x0 REVERT JUMPDEST PUSH2 0x6AD DUP1 PUSH2 0x242 PUSH1 0x0 CODECOPY PUSH1 0x0 RETURN INVALID PUSH1 0x80 PUSH1 0x40 MSTORE CALLVALUE DUP1 ISZERO PUSH2 0x10 JUMPI PUSH1 0x0 DUP1 REVERT JUMPDEST POP PUSH1 0x4 CALLDATASIZE LT PUSH2 0x41 JUMPI PUSH1 0x0 CALLDATALOAD PUSH1 0xE0 SHR DUP1 PUSH4 0x5F57697C EQ PUSH2 0x46 JUMPI DUP1 PUSH4 0x93BA1E60 EQ PUSH2 0x68 JUMPI DUP1 PUSH4 0xC28A41EC EQ PUSH2 0x84 JUMPI JUMPDEST PUSH1 0x0 DUP1 REVERT JUMPDEST PUSH2 0x4E PUSH2 0xA0 JUMP JUMPDEST PUSH1 0x40 MLOAD PUSH2 0x5F SWAP6 SWAP5 SWAP4 SWAP3 SWAP2 SWAP1 PUSH2 0x388 JUMP JUMPDEST PUSH1 0x40 MLOAD DUP1 SWAP2 SUB SWAP1 RETURN JUMPDEST PUSH2 0x82 PUSH1 0x4 DUP1 CALLDATASIZE SUB DUP2 ADD SWAP1 PUSH2 0x7D SWAP2 SWAP1 PUSH2 0x2F0 JUMP JUMPDEST PUSH2 0x25C JUMP JUMPDEST STOP JUMPDEST PUSH2 0x9E PUSH1 0x4 DUP1 CALLDATASIZE SUB DUP2 ADD SWAP1 PUSH2 0x99 SWAP2 SWAP1 PUSH2 0x2F0 JUMP JUMPDEST PUSH2 0x2BD JUMP JUMPDEST STOP JUMPDEST PUSH1 0x0 DUP1 PUSH1 0x0 ADD SLOAD SWAP1 DUP1 PUSH1 0x1 ADD DUP1 SLOAD PUSH2 0xB7 SWAP1 PUSH2 0x591 JUMP JUMPDEST DUP1 PUSH1 0x1F ADD PUSH1 0x20 DUP1 SWAP2 DIV MUL PUSH1 0x20 ADD PUSH1 0x40 MLOAD SWAP1 DUP2 ADD PUSH1 0x40 MSTORE DUP1 SWAP3 SWAP2 SWAP1 DUP2 DUP2 MSTORE PUSH1 0x20 ADD DUP3 DUP1 SLOAD PUSH2 0xE3 SWAP1 PUSH2 0x591 JUMP JUMPDEST DUP1 ISZERO PUSH2 0x130 JUMPI DUP1 PUSH1 0x1F LT PUSH2 0x105 JUMPI PUSH2 0x100 DUP1 DUP4 SLOAD DIV MUL DUP4 MSTORE SWAP2 PUSH1 0x20 ADD SWAP2 PUSH2 0x130 JUMP JUMPDEST DUP3 ADD SWAP2 SWAP1 PUSH1 0x0 MSTORE PUSH1 0x20 PUSH1 0x0 KECCAK256 SWAP1 JUMPDEST DUP2 SLOAD DUP2 MSTORE SWAP1 PUSH1 0x1 ADD SWAP1 PUSH1 0x20 ADD DUP1 DUP4 GT PUSH2 0x113 JUMPI DUP3 SWAP1 SUB PUSH1 0x1F AND DUP3 ADD SWAP2 JUMPDEST POP POP POP POP POP SWAP1 DUP1 PUSH1 0x2 ADD DUP1 SLOAD PUSH2 0x145 SWAP1 PUSH2 0x591 JUMP JUMPDEST DUP1 PUSH1 0x1F ADD PUSH1 0x20 DUP1 SWAP2 DIV MUL PUSH1 0x20 ADD PUSH1 0x40 MLOAD SWAP1 DUP2 ADD PUSH1 0x40 MSTORE DUP1 SWAP3 SWAP2 SWAP1 DUP2 DUP2 MSTORE PUSH1 0x20 ADD DUP3 DUP1 SLOAD PUSH2 0x171 SWAP1 PUSH2 0x591 JUMP JUMPDEST DUP1 ISZERO PUSH2 0x1BE JUMPI DUP1 PUSH1 0x1F LT PUSH2 0x193 JUMPI PUSH2 0x100 DUP1 DUP4 SLOAD DIV MUL DUP4 MSTORE SWAP2 PUSH1 0x20 ADD SWAP2 PUSH2 0x1BE JUMP JUMPDEST DUP3 ADD SWAP2 SWAP1 PUSH1 0x0 MSTORE PUSH1 0x20 PUSH1 0x0 KECCAK256 SWAP1 JUMPDEST DUP2 SLOAD DUP2 MSTORE SWAP1 PUSH1 0x1 ADD SWAP1 PUSH1 0x20 ADD DUP1 DUP4 GT PUSH2 0x1A1 JUMPI DUP3 SWAP1 SUB PUSH1 0x1F AND DUP3 ADD SWAP2 JUMPDEST POP POP POP POP POP SWAP1 DUP1 PUSH1 0x3 ADD SLOAD SWAP1 DUP1 PUSH1 0x4 ADD DUP1 SLOAD PUSH2 0x1D9 SWAP1 PUSH2 0x591 JUMP JUMPDEST DUP1 PUSH1 0x1F ADD PUSH1 0x20 DUP1 SWAP2 DIV MUL PUSH1 0x20 ADD PUSH1 0x40 MLOAD SWAP1 DUP2 ADD PUSH1 0x40 MSTORE DUP1 SWAP3 SWAP2 SWAP1 DUP2 DUP2 MSTORE PUSH1 0x20 ADD DUP3 DUP1 SLOAD PUSH2 0x205 SWAP1 PUSH2 0x591 JUMP JUMPDEST DUP1 ISZERO PUSH2 0x252 JUMPI DUP1 PUSH1 0x1F LT PUSH2 0x227 JUMPI PUSH2 0x100 DUP1 DUP4 SLOAD DIV MUL DUP4 MSTORE SWAP2 PUSH1 0x20 ADD SWAP2 PUSH2 0x252 JUMP JUMPDEST DUP3 ADD SWAP2 SWAP1 PUSH1 0x0 MSTORE PUSH1 0x20 PUSH1 0x0 KECCAK256 SWAP1 JUMPDEST DUP2 SLOAD DUP2 MSTORE SWAP1 PUSH1 0x1 ADD SWAP1 PUSH1 0x20 ADD DUP1 DUP4 GT PUSH2 0x235 JUMPI DUP3 SWAP1 SUB PUSH1 0x1F AND DUP3 ADD SWAP2 JUMPDEST POP POP POP POP POP SWAP1 POP DUP6 JUMP JUMPDEST PUSH1 0x0 DUP2 SGT PUSH2 0x29F JUMPI PUSH1 0x40 MLOAD PUSH32 0x8C379A000000000000000000000000000000000000000000000000000000000 DUP2 MSTORE PUSH1 0x4 ADD PUSH2 0x296 SWAP1 PUSH2 0x3F0 JUMP JUMPDEST PUSH1 0x40 MLOAD DUP1 SWAP2 SUB SWAP1 REVERT JUMPDEST DUP1 PUSH1 0x0 DUP1 ADD PUSH1 0x0 DUP3 DUP3 SLOAD PUSH2 0x2B3 SWAP2 SWAP1 PUSH2 0x42C JUMP JUMPDEST SWAP3 POP POP DUP2 SWAP1 SSTORE POP POP JUMP JUMPDEST DUP1 PUSH1 0x0 DUP1 ADD PUSH1 0x0 DUP3 DUP3 SLOAD PUSH2 0x2D1 SWAP2 SWAP1 PUSH2 0x4C0 JUMP JUMPDEST SWAP3 POP POP DUP2 SWAP1 SSTORE POP POP JUMP JUMPDEST PUSH1 0x0 DUP2 CALLDATALOAD SWAP1 POP PUSH2 0x2EA DUP2 PUSH2 0x660 JUMP JUMPDEST SWAP3 SWAP2 POP POP JUMP JUMPDEST PUSH1 0x0 PUSH1 0x20 DUP3 DUP5 SUB SLT ISZERO PUSH2 0x306 JUMPI PUSH2 0x305 PUSH2 0x621 JUMP JUMPDEST JUMPDEST PUSH1 0x0 PUSH2 0x314 DUP5 DUP3 DUP6 ADD PUSH2 0x2DB JUMP JUMPDEST SWAP2 POP POP SWAP3 SWAP2 POP POP JUMP JUMPDEST PUSH2 0x326 DUP2 PUSH2 0x554 JUMP JUMPDEST DUP3 MSTORE POP POP JUMP JUMPDEST PUSH1 0x0 PUSH2 0x337 DUP3 PUSH2 0x410 JUMP JUMPDEST PUSH2 0x341 DUP2 DUP6 PUSH2 0x41B JUMP JUMPDEST SWAP4 POP PUSH2 0x351 DUP2 DUP6 PUSH1 0x20 DUP7 ADD PUSH2 0x55E JUMP JUMPDEST PUSH2 0x35A DUP2 PUSH2 0x626 JUMP JUMPDEST DUP5 ADD SWAP2 POP POP SWAP3 SWAP2 POP POP JUMP JUMPDEST PUSH1 0x0 PUSH2 0x372 PUSH1 0x5 DUP4 PUSH2 0x41B JUMP JUMPDEST SWAP2 POP PUSH2 0x37D DUP3 PUSH2 0x637 JUMP JUMPDEST PUSH1 0x20 DUP3 ADD SWAP1 POP SWAP2 SWAP1 POP JUMP JUMPDEST PUSH1 0x0 PUSH1 0xA0 DUP3 ADD SWAP1 POP PUSH2 0x39D PUSH1 0x0 DUP4 ADD DUP9 PUSH2 0x31D JUMP JUMPDEST DUP2 DUP2 SUB PUSH1 0x20 DUP4 ADD MSTORE PUSH2 0x3AF DUP2 DUP8 PUSH2 0x32C JUMP JUMPDEST SWAP1 POP DUP2 DUP2 SUB PUSH1 0x40 DUP4 ADD MSTORE PUSH2 0x3C3 DUP2 DUP7 PUSH2 0x32C JUMP JUMPDEST SWAP1 POP PUSH2 0x3D2 PUSH1 0x60 DUP4 ADD DUP6 PUSH2 0x31D JUMP JUMPDEST DUP2 DUP2 SUB PUSH1 0x80 DUP4 ADD MSTORE PUSH2 0x3E4 DUP2 DUP5 PUSH2 0x32C JUMP JUMPDEST SWAP1 POP SWAP7 SWAP6 POP POP POP POP POP POP JUMP JUMPDEST PUSH1 0x0 PUSH1 0x20 DUP3 ADD SWAP1 POP DUP2 DUP2 SUB PUSH1 0x0 DUP4 ADD MSTORE PUSH2 0x409 DUP2 PUSH2 0x365 JUMP JUMPDEST SWAP1 POP SWAP2 SWAP1 POP JUMP JUMPDEST PUSH1 0x0 DUP2 MLOAD SWAP1 POP SWAP2 SWAP1 POP JUMP JUMPDEST PUSH1 0x0 DUP3 DUP3 MSTORE PUSH1 0x20 DUP3 ADD SWAP1 POP SWAP3 SWAP2 POP POP JUMP JUMPDEST PUSH1 0x0 PUSH2 0x437 DUP3 PUSH2 0x554 JUMP JUMPDEST SWAP2 POP PUSH2 0x442 DUP4 PUSH2 0x554 JUMP JUMPDEST SWAP3 POP DUP2 PUSH32 0x7FFFFFFFFFFFFFFFFFFFFFFFFFFFFFFFFFFFFFFFFFFFFFFFFFFFFFFFFFFFFFFF SUB DUP4 SGT PUSH1 0x0 DUP4 SLT ISZERO AND ISZERO PUSH2 0x47D JUMPI PUSH2 0x47C PUSH2 0x5C3 JUMP JUMPDEST JUMPDEST DUP2 PUSH32 0x8000000000000000000000000000000000000000000000000000000000000000 SUB DUP4 SLT PUSH1 0x0 DUP4 SLT AND ISZERO PUSH2 0x4B5 JUMPI PUSH2 0x4B4 PUSH2 0x5C3 JUMP JUMPDEST JUMPDEST DUP3 DUP3 ADD SWAP1 POP SWAP3 SWAP2 POP POP JUMP JUMPDEST PUSH1 0x0 PUSH2 0x4CB DUP3 PUSH2 0x554 JUMP JUMPDEST SWAP2 POP PUSH2 0x4D6 DUP4 PUSH2 0x554 JUMP JUMPDEST SWAP3 POP DUP3 PUSH32 0x8000000000000000000000000000000000000000000000000000000000000000 ADD DUP3 SLT PUSH1 0x0 DUP5 SLT ISZERO AND ISZERO PUSH2 0x511 JUMPI PUSH2 0x510 PUSH2 0x5C3 JUMP JUMPDEST JUMPDEST DUP3 PUSH32 0x7FFFFFFFFFFFFFFFFFFFFFFFFFFFFFFFFFFFFFFFFFFFFFFFFFFFFFFFFFFFFFFF ADD DUP3 SGT PUSH1 0x0 DUP5 SLT AND ISZERO PUSH2 0x549 JUMPI PUSH2 0x548 PUSH2 0x5C3 JUMP JUMPDEST JUMPDEST DUP3 DUP3 SUB SWAP1 POP SWAP3 SWAP2 POP POP JUMP JUMPDEST PUSH1 0x0 DUP2 SWAP1 POP SWAP2 SWAP1 POP JUMP JUMPDEST PUSH1 0x0 JUMPDEST DUP4 DUP2 LT ISZERO PUSH2 0x57C JUMPI DUP1 DUP3 ADD MLOAD DUP2 DUP5 ADD MSTORE PUSH1 0x20 DUP2 ADD SWAP1 POP PUSH2 0x561 JUMP JUMPDEST DUP4 DUP2 GT ISZERO PUSH2 0x58B JUMPI PUSH1 0x0 DUP5 DUP5 ADD MSTORE JUMPDEST POP POP POP POP JUMP JUMPDEST PUSH1 0x0 PUSH1 0x2 DUP3 DIV SWAP1 POP PUSH1 0x1 DUP3 AND DUP1 PUSH2 0x5A9 JUMPI PUSH1 0x7F DUP3 AND SWAP2 POP JUMPDEST PUSH1 0x20 DUP3 LT DUP2 EQ ISZERO PUSH2 0x5BD JUMPI PUSH2 0x5BC PUSH2 0x5F2 JUMP JUMPDEST JUMPDEST POP SWAP2 SWAP1 POP JUMP JUMPDEST PUSH32 0x4E487B7100000000000000000000000000000000000000000000000000000000 PUSH1 0x0 MSTORE PUSH1 0x11 PUSH1 0x4 MSTORE PUSH1 0x24 PUSH1 0x0 REVERT JUMPDEST PUSH32 0x4E487B7100000000000000000000000000000000000000000000000000000000 PUSH1 0x0 MSTORE PUSH1 0x22 PUSH1 0x4 MSTORE PUSH1 0x24 PUSH1 0x0 REVERT JUMPDEST PUSH1 0x0 DUP1 REVERT JUMPDEST PUSH1 0x0 PUSH1 0x1F NOT PUSH1 0x1F DUP4 ADD AND SWAP1 POP SWAP2 SWAP1 POP JUMP JUMPDEST PUSH32 0x53616C736F000000000000000000000000000000000000000000000000000000 PUSH1 0x0 DUP3 ADD MSTORE POP JUMP JUMPDEST PUSH2 0x669 DUP2 PUSH2 0x554 JUMP JUMPDEST DUP2 EQ PUSH2 0x674 JUMPI PUSH1 0x0 DUP1 REVERT JUMPDEST POP JUMP INVALID LOG2 PUSH5 0x6970667358 0x22 SLT KECCAK256 LOG0 0xE0 0xE1 0xAF 0xF7 DUP10 PUSH30 0xC8D5500928F6462ACC6E4CCA03AB47EED43523673D55C6FD4B64736F6C63 NUMBER STOP ADDMOD SMOD STOP CALLER ADDRESS PUSH25 0x35423338446136613730316335363835343564436663423033 CHAINID PUSH4 0x42383735 PUSH7 0x35366265646443 CALLVALUE "
				},
				"gasEstimates": {
					"creation": {
						"codeDepositCost": "341800",
						"executionCost": "infinite",
						"totalCost": "infinite"
					},
					"external": {
						"c1()": "infinite",
						"ingresarSaldo(int256)": "infinite",
						"retirarSaldo(int256)": "infinite"
					}
				},
				"methodIdentifiers": {
					"c1()": "5f57697c",
					"ingresarSaldo(int256)": "93ba1e60",
					"retirarSaldo(int256)": "c28a41ec"
				}
			},
			"storageLayout": {
				"storage": [
					{
						"astId": 22,
						"contract": "contracts/Ejercicio1CuentaAhorro.sol:Ejercicio1CuentaAhorro",
						"label": "c1",
						"offset": 0,
						"slot": "0",
						"type": "t_struct(CuentaAhorro)12_storage"
					}
				],
				"types": {
					"t_int256": {
						"encoding": "inplace",
						"label": "int256",
						"numberOfBytes": "32"
					},
					"t_string_storage": {
						"encoding": "bytes",
						"label": "string",
						"numberOfBytes": "32"
					},
					"t_struct(CuentaAhorro)12_storage": {
						"encoding": "inplace",
						"label": "struct Ejercicio1CuentaAhorro.CuentaAhorro",
						"members": [
							{
								"astId": 3,
								"contract": "contracts/Ejercicio1CuentaAhorro.sol:Ejercicio1CuentaAhorro",
								"label": "saldo",
								"offset": 0,
								"slot": "0",
								"type": "t_int256"
							},
							{
								"astId": 5,
								"contract": "contracts/Ejercicio1CuentaAhorro.sol:Ejercicio1CuentaAhorro",
								"label": "addressCuenta",
								"offset": 0,
								"slot": "1",
								"type": "t_string_storage"
							},
							{
								"astId": 7,
								"contract": "contracts/Ejercicio1CuentaAhorro.sol:Ejercicio1CuentaAhorro",
								"label": "nombre",
								"offset": 0,
								"slot": "2",
								"type": "t_string_storage"
							},
							{
								"astId": 9,
								"contract": "contracts/Ejercicio1CuentaAhorro.sol:Ejercicio1CuentaAhorro",
								"label": "edad",
								"offset": 0,
								"slot": "3",
								"type": "t_int256"
							},
							{
								"astId": 11,
								"contract": "contracts/Ejercicio1CuentaAhorro.sol:Ejercicio1CuentaAhorro",
								"label": "colorFavorito",
								"offset": 0,
								"slot": "4",
								"type": "t_string_storage"
							}
						],
						"numberOfBytes": "160"
					}
				}
			},
			"userdoc": {
				"kind": "user",
				"methods": {},
				"version": 1
			}
		}
	}
}