{
	"contracts/Reentrancy.sol": {
		"DepositFunds": {
			"abi": [
				{
					"inputs": [
						{
							"internalType": "address",
							"name": "",
							"type": "address"
						}
					],
					"name": "balances",
					"outputs": [
						{
							"internalType": "uint256",
							"name": "",
							"type": "uint256"
						}
					],
					"stateMutability": "view",
					"type": "function"
				},
				{
					"inputs": [],
					"name": "deposit",
					"outputs": [],
					"stateMutability": "payable",
					"type": "function"
				},
				{
					"inputs": [],
					"name": "getTotalBalance",
					"outputs": [
						{
							"internalType": "uint256",
							"name": "",
							"type": "uint256"
						}
					],
					"stateMutability": "view",
					"type": "function"
				},
				{
					"inputs": [],
					"name": "withdraw",
					"outputs": [],
					"stateMutability": "nonpayable",
					"type": "function"
				},
				{
					"stateMutability": "payable",
					"type": "receive"
				}
			],
			"devdoc": {
				"kind": "dev",
				"methods": {},
				"version": 1
			},
			"evm": {
				"assembly": "    /* \"contracts/Reentrancy.sol\":83:941  contract DepositFunds {\r... */\n  mstore(0x40, 0x80)\n  callvalue\n  dup1\n  iszero\n  tag_1\n  jumpi\n  0x00\n  dup1\n  revert\ntag_1:\n  pop\n  dataSize(sub_0)\n  dup1\n  dataOffset(sub_0)\n  0x00\n  codecopy\n  0x00\n  return\nstop\n\nsub_0: assembly {\n        /* \"contracts/Reentrancy.sol\":83:941  contract DepositFunds {\r... */\n      mstore(0x40, 0x80)\n      jumpi(tag_1, lt(calldatasize, 0x04))\n      shr(0xe0, calldataload(0x00))\n      dup1\n      0x12b58349\n      eq\n      tag_3\n      jumpi\n      dup1\n      0x27e235e3\n      eq\n      tag_4\n      jumpi\n      dup1\n      0x3ccfd60b\n      eq\n      tag_5\n      jumpi\n      dup1\n      0xd0e30db0\n      eq\n      tag_6\n      jumpi\n      jump(tag_2)\n    tag_1:\n      jumpi(tag_2, calldatasize)\n      stop\n    tag_2:\n      0x00\n      dup1\n      revert\n        /* \"contracts/Reentrancy.sol\":793:897  function getTotalBalance () public view returns(uint256) {\r... */\n    tag_3:\n      callvalue\n      dup1\n      iszero\n      tag_9\n      jumpi\n      0x00\n      dup1\n      revert\n    tag_9:\n      pop\n      tag_10\n      tag_11\n      jump\t// in\n    tag_10:\n      mload(0x40)\n      tag_12\n      swap2\n      swap1\n      tag_13\n      jump\t// in\n    tag_12:\n      mload(0x40)\n      dup1\n      swap2\n      sub\n      swap1\n      return\n        /* \"contracts/Reentrancy.sol\":112:152  mapping(address => uint) public balances */\n    tag_4:\n      callvalue\n      dup1\n      iszero\n      tag_14\n      jumpi\n      0x00\n      dup1\n      revert\n    tag_14:\n      pop\n      tag_15\n      0x04\n      dup1\n      calldatasize\n      sub\n      dup2\n      add\n      swap1\n      tag_16\n      swap2\n      swap1\n      tag_17\n      jump\t// in\n    tag_16:\n      tag_18\n      jump\t// in\n    tag_15:\n      mload(0x40)\n      tag_19\n      swap2\n      swap1\n      tag_13\n      jump\t// in\n    tag_19:\n      mload(0x40)\n      dup1\n      swap2\n      sub\n      swap1\n      return\n        /* \"contracts/Reentrancy.sol\":259:785  function withdraw() public  {\r... */\n    tag_5:\n      callvalue\n      dup1\n      iszero\n      tag_20\n      jumpi\n      0x00\n      dup1\n      revert\n    tag_20:\n      pop\n      tag_21\n      tag_22\n      jump\t// in\n    tag_21:\n      stop\n        /* \"contracts/Reentrancy.sol\":165:251  function deposit() public payable {\r... */\n    tag_6:\n      tag_23\n      tag_24\n      jump\t// in\n    tag_23:\n      stop\n        /* \"contracts/Reentrancy.sol\":793:897  function getTotalBalance () public view returns(uint256) {\r... */\n    tag_11:\n        /* \"contracts/Reentrancy.sol\":841:848  uint256 */\n      0x00\n        /* \"contracts/Reentrancy.sol\":868:889  address(this).balance */\n      selfbalance\n        /* \"contracts/Reentrancy.sol\":861:889  return address(this).balance */\n      swap1\n      pop\n        /* \"contracts/Reentrancy.sol\":793:897  function getTotalBalance () public view returns(uint256) {\r... */\n      swap1\n      jump\t// out\n        /* \"contracts/Reentrancy.sol\":112:152  mapping(address => uint) public balances */\n    tag_18:\n      mstore(0x20, 0x00)\n      dup1\n      0x00\n      mstore\n      keccak256(0x00, 0x40)\n      0x00\n      swap2\n      pop\n      swap1\n      pop\n      sload\n      dup2\n      jump\t// out\n        /* \"contracts/Reentrancy.sol\":259:785  function withdraw() public  {\r... */\n    tag_22:\n        /* \"contracts/Reentrancy.sol\":298:306  uint bal */\n      0x00\n        /* \"contracts/Reentrancy.sol\":309:317  balances */\n      dup1\n        /* \"contracts/Reentrancy.sol\":309:329  balances[msg.sender] */\n      0x00\n        /* \"contracts/Reentrancy.sol\":318:328  msg.sender */\n      caller\n        /* \"contracts/Reentrancy.sol\":309:329  balances[msg.sender] */\n      0xffffffffffffffffffffffffffffffffffffffff\n      and\n      0xffffffffffffffffffffffffffffffffffffffff\n      and\n      dup2\n      mstore\n      0x20\n      add\n      swap1\n      dup2\n      mstore\n      0x20\n      add\n      0x00\n      keccak256\n      sload\n        /* \"contracts/Reentrancy.sol\":298:329  uint bal = balances[msg.sender] */\n      swap1\n      pop\n        /* \"contracts/Reentrancy.sol\":354:355  0 */\n      0x00\n        /* \"contracts/Reentrancy.sol\":348:351  bal */\n      dup2\n        /* \"contracts/Reentrancy.sol\":348:355  bal > 0 */\n      gt\n        /* \"contracts/Reentrancy.sol\":340:389  require(bal > 0, \"No tienes balance que retirar\") */\n      tag_27\n      jumpi\n      mload(0x40)\n      0x08c379a000000000000000000000000000000000000000000000000000000000\n      dup2\n      mstore\n      0x04\n      add\n      tag_28\n      swap1\n      tag_29\n      jump\t// in\n    tag_28:\n      mload(0x40)\n      dup1\n      swap2\n      sub\n      swap1\n      revert\n    tag_27:\n        /* \"contracts/Reentrancy.sol\":657:666  bool sent */\n      0x00\n        /* \"contracts/Reentrancy.sol\":668:685  bytes memory data */\n      dup1\n        /* \"contracts/Reentrancy.sol\":689:699  msg.sender */\n      caller\n        /* \"contracts/Reentrancy.sol\":689:704  msg.sender.call */\n      0xffffffffffffffffffffffffffffffffffffffff\n      and\n        /* \"contracts/Reentrancy.sol\":712:715  bal */\n      dup4\n        /* \"contracts/Reentrancy.sol\":689:742  msg.sender.call{value: bal}(\"hola te envio tu valor\") */\n      mload(0x40)\n      tag_30\n      swap1\n      tag_31\n      jump\t// in\n    tag_30:\n      0x00\n      mload(0x40)\n      dup1\n      dup4\n      sub\n      dup2\n      dup6\n      dup8\n      gas\n      call\n      swap3\n      pop\n      pop\n      pop\n      returndatasize\n      dup1\n      0x00\n      dup2\n      eq\n      tag_34\n      jumpi\n      mload(0x40)\n      swap2\n      pop\n      and(add(returndatasize, 0x3f), not(0x1f))\n      dup3\n      add\n      0x40\n      mstore\n      returndatasize\n      dup3\n      mstore\n      returndatasize\n      0x00\n      0x20\n      dup5\n      add\n      returndatacopy\n      jump(tag_33)\n    tag_34:\n      0x60\n      swap2\n      pop\n    tag_33:\n      pop\n        /* \"contracts/Reentrancy.sol\":656:742  (bool sent, bytes memory data) = msg.sender.call{value: bal}(\"hola te envio tu valor\") */\n      swap2\n      pop\n      swap2\n      pop\n        /* \"contracts/Reentrancy.sol\":776:777  0 */\n      0x00\n        /* \"contracts/Reentrancy.sol\":753:761  balances */\n      dup1\n        /* \"contracts/Reentrancy.sol\":753:773  balances[msg.sender] */\n      0x00\n        /* \"contracts/Reentrancy.sol\":762:772  msg.sender */\n      caller\n        /* \"contracts/Reentrancy.sol\":753:773  balances[msg.sender] */\n      0xffffffffffffffffffffffffffffffffffffffff\n      and\n      0xffffffffffffffffffffffffffffffffffffffff\n      and\n      dup2\n      mstore\n      0x20\n      add\n      swap1\n      dup2\n      mstore\n      0x20\n      add\n      0x00\n      keccak256\n        /* \"contracts/Reentrancy.sol\":753:777  balances[msg.sender] = 0 */\n      dup2\n      swap1\n      sstore\n      pop\n        /* \"contracts/Reentrancy.sol\":287:785  {\r... */\n      pop\n      pop\n      pop\n        /* \"contracts/Reentrancy.sol\":259:785  function withdraw() public  {\r... */\n      jump\t// out\n        /* \"contracts/Reentrancy.sol\":165:251  function deposit() public payable {\r... */\n    tag_24:\n        /* \"contracts/Reentrancy.sol\":234:243  msg.value */\n      callvalue\n        /* \"contracts/Reentrancy.sol\":210:218  balances */\n      0x00\n        /* \"contracts/Reentrancy.sol\":210:230  balances[msg.sender] */\n      dup1\n        /* \"contracts/Reentrancy.sol\":219:229  msg.sender */\n      caller\n        /* \"contracts/Reentrancy.sol\":210:230  balances[msg.sender] */\n      0xffffffffffffffffffffffffffffffffffffffff\n      and\n      0xffffffffffffffffffffffffffffffffffffffff\n      and\n      dup2\n      mstore\n      0x20\n      add\n      swap1\n      dup2\n      mstore\n      0x20\n      add\n      0x00\n      keccak256\n      0x00\n        /* \"contracts/Reentrancy.sol\":210:243  balances[msg.sender] += msg.value */\n      dup3\n      dup3\n      sload\n      tag_36\n      swap2\n      swap1\n      tag_37\n      jump\t// in\n    tag_36:\n      swap3\n      pop\n      pop\n      dup2\n      swap1\n      sstore\n      pop\n        /* \"contracts/Reentrancy.sol\":165:251  function deposit() public payable {\r... */\n      jump\t// out\n        /* \"#utility.yul\":7:146   */\n    tag_39:\n        /* \"#utility.yul\":53:58   */\n      0x00\n        /* \"#utility.yul\":91:97   */\n      dup2\n        /* \"#utility.yul\":78:98   */\n      calldataload\n        /* \"#utility.yul\":69:98   */\n      swap1\n      pop\n        /* \"#utility.yul\":107:140   */\n      tag_41\n        /* \"#utility.yul\":134:139   */\n      dup2\n        /* \"#utility.yul\":107:140   */\n      tag_42\n      jump\t// in\n    tag_41:\n        /* \"#utility.yul\":7:146   */\n      swap3\n      swap2\n      pop\n      pop\n      jump\t// out\n        /* \"#utility.yul\":152:481   */\n    tag_17:\n        /* \"#utility.yul\":211:217   */\n      0x00\n        /* \"#utility.yul\":260:262   */\n      0x20\n        /* \"#utility.yul\":248:257   */\n      dup3\n        /* \"#utility.yul\":239:246   */\n      dup5\n        /* \"#utility.yul\":235:258   */\n      sub\n        /* \"#utility.yul\":231:263   */\n      slt\n        /* \"#utility.yul\":228:347   */\n      iszero\n      tag_44\n      jumpi\n        /* \"#utility.yul\":266:345   */\n      tag_45\n      tag_46\n      jump\t// in\n    tag_45:\n        /* \"#utility.yul\":228:347   */\n    tag_44:\n        /* \"#utility.yul\":386:387   */\n      0x00\n        /* \"#utility.yul\":411:464   */\n      tag_47\n        /* \"#utility.yul\":456:463   */\n      dup5\n        /* \"#utility.yul\":447:453   */\n      dup3\n        /* \"#utility.yul\":436:445   */\n      dup6\n        /* \"#utility.yul\":432:454   */\n      add\n        /* \"#utility.yul\":411:464   */\n      tag_39\n      jump\t// in\n    tag_47:\n        /* \"#utility.yul\":401:464   */\n      swap2\n      pop\n        /* \"#utility.yul\":357:474   */\n      pop\n        /* \"#utility.yul\":152:481   */\n      swap3\n      swap2\n      pop\n      pop\n      jump\t// out\n        /* \"#utility.yul\":487:887   */\n    tag_48:\n        /* \"#utility.yul\":646:649   */\n      0x00\n        /* \"#utility.yul\":667:751   */\n      tag_50\n        /* \"#utility.yul\":748:750   */\n      0x16\n        /* \"#utility.yul\":743:746   */\n      dup4\n        /* \"#utility.yul\":667:751   */\n      tag_51\n      jump\t// in\n    tag_50:\n        /* \"#utility.yul\":660:751   */\n      swap2\n      pop\n        /* \"#utility.yul\":760:853   */\n      tag_52\n        /* \"#utility.yul\":849:852   */\n      dup3\n        /* \"#utility.yul\":760:853   */\n      tag_53\n      jump\t// in\n    tag_52:\n        /* \"#utility.yul\":878:880   */\n      0x16\n        /* \"#utility.yul\":873:876   */\n      dup3\n        /* \"#utility.yul\":869:881   */\n      add\n        /* \"#utility.yul\":862:881   */\n      swap1\n      pop\n        /* \"#utility.yul\":487:887   */\n      swap2\n      swap1\n      pop\n      jump\t// out\n        /* \"#utility.yul\":893:1259   */\n    tag_54:\n        /* \"#utility.yul\":1035:1038   */\n      0x00\n        /* \"#utility.yul\":1056:1123   */\n      tag_56\n        /* \"#utility.yul\":1120:1122   */\n      0x1d\n        /* \"#utility.yul\":1115:1118   */\n      dup4\n        /* \"#utility.yul\":1056:1123   */\n      tag_57\n      jump\t// in\n    tag_56:\n        /* \"#utility.yul\":1049:1123   */\n      swap2\n      pop\n        /* \"#utility.yul\":1132:1225   */\n      tag_58\n        /* \"#utility.yul\":1221:1224   */\n      dup3\n        /* \"#utility.yul\":1132:1225   */\n      tag_59\n      jump\t// in\n    tag_58:\n        /* \"#utility.yul\":1250:1252   */\n      0x20\n        /* \"#utility.yul\":1245:1248   */\n      dup3\n        /* \"#utility.yul\":1241:1253   */\n      add\n        /* \"#utility.yul\":1234:1253   */\n      swap1\n      pop\n        /* \"#utility.yul\":893:1259   */\n      swap2\n      swap1\n      pop\n      jump\t// out\n        /* \"#utility.yul\":1265:1383   */\n    tag_60:\n        /* \"#utility.yul\":1352:1376   */\n      tag_62\n        /* \"#utility.yul\":1370:1375   */\n      dup2\n        /* \"#utility.yul\":1352:1376   */\n      tag_63\n      jump\t// in\n    tag_62:\n        /* \"#utility.yul\":1347:1350   */\n      dup3\n        /* \"#utility.yul\":1340:1377   */\n      mstore\n        /* \"#utility.yul\":1265:1383   */\n      pop\n      pop\n      jump\t// out\n        /* \"#utility.yul\":1389:1768   */\n    tag_31:\n        /* \"#utility.yul\":1573:1576   */\n      0x00\n        /* \"#utility.yul\":1595:1742   */\n      tag_65\n        /* \"#utility.yul\":1738:1741   */\n      dup3\n        /* \"#utility.yul\":1595:1742   */\n      tag_48\n      jump\t// in\n    tag_65:\n        /* \"#utility.yul\":1588:1742   */\n      swap2\n      pop\n        /* \"#utility.yul\":1759:1762   */\n      dup2\n        /* \"#utility.yul\":1752:1762   */\n      swap1\n      pop\n        /* \"#utility.yul\":1389:1768   */\n      swap2\n      swap1\n      pop\n      jump\t// out\n        /* \"#utility.yul\":1774:2193   */\n    tag_29:\n        /* \"#utility.yul\":1940:1944   */\n      0x00\n        /* \"#utility.yul\":1978:1980   */\n      0x20\n        /* \"#utility.yul\":1967:1976   */\n      dup3\n        /* \"#utility.yul\":1963:1981   */\n      add\n        /* \"#utility.yul\":1955:1981   */\n      swap1\n      pop\n        /* \"#utility.yul\":2027:2036   */\n      dup2\n        /* \"#utility.yul\":2021:2025   */\n      dup2\n        /* \"#utility.yul\":2017:2037   */\n      sub\n        /* \"#utility.yul\":2013:2014   */\n      0x00\n        /* \"#utility.yul\":2002:2011   */\n      dup4\n        /* \"#utility.yul\":1998:2015   */\n      add\n        /* \"#utility.yul\":1991:2038   */\n      mstore\n        /* \"#utility.yul\":2055:2186   */\n      tag_67\n        /* \"#utility.yul\":2181:2185   */\n      dup2\n        /* \"#utility.yul\":2055:2186   */\n      tag_54\n      jump\t// in\n    tag_67:\n        /* \"#utility.yul\":2047:2186   */\n      swap1\n      pop\n        /* \"#utility.yul\":1774:2193   */\n      swap2\n      swap1\n      pop\n      jump\t// out\n        /* \"#utility.yul\":2199:2421   */\n    tag_13:\n        /* \"#utility.yul\":2292:2296   */\n      0x00\n        /* \"#utility.yul\":2330:2332   */\n      0x20\n        /* \"#utility.yul\":2319:2328   */\n      dup3\n        /* \"#utility.yul\":2315:2333   */\n      add\n        /* \"#utility.yul\":2307:2333   */\n      swap1\n      pop\n        /* \"#utility.yul\":2343:2414   */\n      tag_69\n        /* \"#utility.yul\":2411:2412   */\n      0x00\n        /* \"#utility.yul\":2400:2409   */\n      dup4\n        /* \"#utility.yul\":2396:2413   */\n      add\n        /* \"#utility.yul\":2387:2393   */\n      dup5\n        /* \"#utility.yul\":2343:2414   */\n      tag_60\n      jump\t// in\n    tag_69:\n        /* \"#utility.yul\":2199:2421   */\n      swap3\n      swap2\n      pop\n      pop\n      jump\t// out\n        /* \"#utility.yul\":2508:2655   */\n    tag_51:\n        /* \"#utility.yul\":2609:2620   */\n      0x00\n        /* \"#utility.yul\":2646:2649   */\n      dup2\n        /* \"#utility.yul\":2631:2649   */\n      swap1\n      pop\n        /* \"#utility.yul\":2508:2655   */\n      swap3\n      swap2\n      pop\n      pop\n      jump\t// out\n        /* \"#utility.yul\":2661:2830   */\n    tag_57:\n        /* \"#utility.yul\":2745:2756   */\n      0x00\n        /* \"#utility.yul\":2779:2785   */\n      dup3\n        /* \"#utility.yul\":2774:2777   */\n      dup3\n        /* \"#utility.yul\":2767:2786   */\n      mstore\n        /* \"#utility.yul\":2819:2823   */\n      0x20\n        /* \"#utility.yul\":2814:2817   */\n      dup3\n        /* \"#utility.yul\":2810:2824   */\n      add\n        /* \"#utility.yul\":2795:2824   */\n      swap1\n      pop\n        /* \"#utility.yul\":2661:2830   */\n      swap3\n      swap2\n      pop\n      pop\n      jump\t// out\n        /* \"#utility.yul\":2836:3141   */\n    tag_37:\n        /* \"#utility.yul\":2876:2879   */\n      0x00\n        /* \"#utility.yul\":2895:2915   */\n      tag_75\n        /* \"#utility.yul\":2913:2914   */\n      dup3\n        /* \"#utility.yul\":2895:2915   */\n      tag_63\n      jump\t// in\n    tag_75:\n        /* \"#utility.yul\":2890:2915   */\n      swap2\n      pop\n        /* \"#utility.yul\":2929:2949   */\n      tag_76\n        /* \"#utility.yul\":2947:2948   */\n      dup4\n        /* \"#utility.yul\":2929:2949   */\n      tag_63\n      jump\t// in\n    tag_76:\n        /* \"#utility.yul\":2924:2949   */\n      swap3\n      pop\n        /* \"#utility.yul\":3083:3084   */\n      dup3\n        /* \"#utility.yul\":3015:3081   */\n      0xffffffffffffffffffffffffffffffffffffffffffffffffffffffffffffffff\n        /* \"#utility.yul\":3011:3085   */\n      sub\n        /* \"#utility.yul\":3008:3009   */\n      dup3\n        /* \"#utility.yul\":3005:3086   */\n      gt\n        /* \"#utility.yul\":3002:3109   */\n      iszero\n      tag_77\n      jumpi\n        /* \"#utility.yul\":3089:3107   */\n      tag_78\n      tag_79\n      jump\t// in\n    tag_78:\n        /* \"#utility.yul\":3002:3109   */\n    tag_77:\n        /* \"#utility.yul\":3133:3134   */\n      dup3\n        /* \"#utility.yul\":3130:3131   */\n      dup3\n        /* \"#utility.yul\":3126:3135   */\n      add\n        /* \"#utility.yul\":3119:3135   */\n      swap1\n      pop\n        /* \"#utility.yul\":2836:3141   */\n      swap3\n      swap2\n      pop\n      pop\n      jump\t// out\n        /* \"#utility.yul\":3147:3243   */\n    tag_80:\n        /* \"#utility.yul\":3184:3191   */\n      0x00\n        /* \"#utility.yul\":3213:3237   */\n      tag_82\n        /* \"#utility.yul\":3231:3236   */\n      dup3\n        /* \"#utility.yul\":3213:3237   */\n      tag_83\n      jump\t// in\n    tag_82:\n        /* \"#utility.yul\":3202:3237   */\n      swap1\n      pop\n        /* \"#utility.yul\":3147:3243   */\n      swap2\n      swap1\n      pop\n      jump\t// out\n        /* \"#utility.yul\":3249:3375   */\n    tag_83:\n        /* \"#utility.yul\":3286:3293   */\n      0x00\n        /* \"#utility.yul\":3326:3368   */\n      0xffffffffffffffffffffffffffffffffffffffff\n        /* \"#utility.yul\":3319:3324   */\n      dup3\n        /* \"#utility.yul\":3315:3369   */\n      and\n        /* \"#utility.yul\":3304:3369   */\n      swap1\n      pop\n        /* \"#utility.yul\":3249:3375   */\n      swap2\n      swap1\n      pop\n      jump\t// out\n        /* \"#utility.yul\":3381:3458   */\n    tag_63:\n        /* \"#utility.yul\":3418:3425   */\n      0x00\n        /* \"#utility.yul\":3447:3452   */\n      dup2\n        /* \"#utility.yul\":3436:3452   */\n      swap1\n      pop\n        /* \"#utility.yul\":3381:3458   */\n      swap2\n      swap1\n      pop\n      jump\t// out\n        /* \"#utility.yul\":3464:3644   */\n    tag_79:\n        /* \"#utility.yul\":3512:3589   */\n      0x4e487b7100000000000000000000000000000000000000000000000000000000\n        /* \"#utility.yul\":3509:3510   */\n      0x00\n        /* \"#utility.yul\":3502:3590   */\n      mstore\n        /* \"#utility.yul\":3609:3613   */\n      0x11\n        /* \"#utility.yul\":3606:3607   */\n      0x04\n        /* \"#utility.yul\":3599:3614   */\n      mstore\n        /* \"#utility.yul\":3633:3637   */\n      0x24\n        /* \"#utility.yul\":3630:3631   */\n      0x00\n        /* \"#utility.yul\":3623:3638   */\n      revert\n        /* \"#utility.yul\":3773:3890   */\n    tag_46:\n        /* \"#utility.yul\":3882:3883   */\n      0x00\n        /* \"#utility.yul\":3879:3880   */\n      dup1\n        /* \"#utility.yul\":3872:3884   */\n      revert\n        /* \"#utility.yul\":3896:4068   */\n    tag_53:\n        /* \"#utility.yul\":4036:4060   */\n      0x686f6c6120746520656e76696f2074752076616c6f7200000000000000000000\n        /* \"#utility.yul\":4032:4033   */\n      0x00\n        /* \"#utility.yul\":4024:4030   */\n      dup3\n        /* \"#utility.yul\":4020:4034   */\n      add\n        /* \"#utility.yul\":4013:4061   */\n      mstore\n        /* \"#utility.yul\":3896:4068   */\n      pop\n      jump\t// out\n        /* \"#utility.yul\":4074:4253   */\n    tag_59:\n        /* \"#utility.yul\":4214:4245   */\n      0x4e6f207469656e65732062616c616e6365207175652072657469726172000000\n        /* \"#utility.yul\":4210:4211   */\n      0x00\n        /* \"#utility.yul\":4202:4208   */\n      dup3\n        /* \"#utility.yul\":4198:4212   */\n      add\n        /* \"#utility.yul\":4191:4246   */\n      mstore\n        /* \"#utility.yul\":4074:4253   */\n      pop\n      jump\t// out\n        /* \"#utility.yul\":4259:4381   */\n    tag_42:\n        /* \"#utility.yul\":4332:4356   */\n      tag_93\n        /* \"#utility.yul\":4350:4355   */\n      dup2\n        /* \"#utility.yul\":4332:4356   */\n      tag_80\n      jump\t// in\n    tag_93:\n        /* \"#utility.yul\":4325:4330   */\n      dup2\n        /* \"#utility.yul\":4322:4357   */\n      eq\n        /* \"#utility.yul\":4312:4375   */\n      tag_94\n      jumpi\n        /* \"#utility.yul\":4371:4372   */\n      0x00\n        /* \"#utility.yul\":4368:4369   */\n      dup1\n        /* \"#utility.yul\":4361:4373   */\n      revert\n        /* \"#utility.yul\":4312:4375   */\n    tag_94:\n        /* \"#utility.yul\":4259:4381   */\n      pop\n      jump\t// out\n\n    auxdata: 0xa26469706673582212204ae48b7569704961100587ec57948f12b77167f2763142882e1c02c0e1d254f764736f6c63430008070033\n}\n",
				"bytecode": {
					"linkReferences": {},
					"object": "608060405234801561001057600080fd5b506104f4806100206000396000f3fe6080604052600436106100435760003560e01c806312b583491461004f57806327e235e31461007a5780633ccfd60b146100b7578063d0e30db0146100ce5761004a565b3661004a57005b600080fd5b34801561005b57600080fd5b506100646100d8565b6040516100719190610358565b60405180910390f35b34801561008657600080fd5b506100a1600480360381019061009c91906102a1565b6100e0565b6040516100ae9190610358565b60405180910390f35b3480156100c357600080fd5b506100cc6100f8565b005b6100d6610235565b005b600047905090565b60006020528060005260406000206000915090505481565b60008060003373ffffffffffffffffffffffffffffffffffffffff1673ffffffffffffffffffffffffffffffffffffffff1681526020019081526020016000205490506000811161017e576040517f08c379a000000000000000000000000000000000000000000000000000000000815260040161017590610338565b60405180910390fd5b6000803373ffffffffffffffffffffffffffffffffffffffff16836040516101a590610323565b60006040518083038185875af1925050503d80600081146101e2576040519150601f19603f3d011682016040523d82523d6000602084013e6101e7565b606091505b509150915060008060003373ffffffffffffffffffffffffffffffffffffffff1673ffffffffffffffffffffffffffffffffffffffff16815260200190815260200160002081905550505050565b346000803373ffffffffffffffffffffffffffffffffffffffff1673ffffffffffffffffffffffffffffffffffffffff1681526020019081526020016000206000828254610283919061038f565b92505081905550565b60008135905061029b816104a7565b92915050565b6000602082840312156102b7576102b6610450565b5b60006102c58482850161028c565b91505092915050565b60006102db601683610373565b91506102e682610455565b601682019050919050565b60006102fe601d8361037e565b91506103098261047e565b602082019050919050565b61031d81610417565b82525050565b600061032e826102ce565b9150819050919050565b60006020820190508181036000830152610351816102f1565b9050919050565b600060208201905061036d6000830184610314565b92915050565b600081905092915050565b600082825260208201905092915050565b600061039a82610417565b91506103a583610417565b9250827fffffffffffffffffffffffffffffffffffffffffffffffffffffffffffffffff038211156103da576103d9610421565b5b828201905092915050565b60006103f0826103f7565b9050919050565b600073ffffffffffffffffffffffffffffffffffffffff82169050919050565b6000819050919050565b7f4e487b7100000000000000000000000000000000000000000000000000000000600052601160045260246000fd5b600080fd5b7f686f6c6120746520656e76696f2074752076616c6f7200000000000000000000600082015250565b7f4e6f207469656e65732062616c616e6365207175652072657469726172000000600082015250565b6104b0816103e5565b81146104bb57600080fd5b5056fea26469706673582212204ae48b7569704961100587ec57948f12b77167f2763142882e1c02c0e1d254f764736f6c63430008070033",
					"opcodes": "PUSH1 0x80 PUSH1 0x40 MSTORE CALLVALUE DUP1 ISZERO PUSH2 0x10 JUMPI PUSH1 0x0 DUP1 REVERT JUMPDEST POP PUSH2 0x4F4 DUP1 PUSH2 0x20 PUSH1 0x0 CODECOPY PUSH1 0x0 RETURN INVALID PUSH1 0x80 PUSH1 0x40 MSTORE PUSH1 0x4 CALLDATASIZE LT PUSH2 0x43 JUMPI PUSH1 0x0 CALLDATALOAD PUSH1 0xE0 SHR DUP1 PUSH4 0x12B58349 EQ PUSH2 0x4F JUMPI DUP1 PUSH4 0x27E235E3 EQ PUSH2 0x7A JUMPI DUP1 PUSH4 0x3CCFD60B EQ PUSH2 0xB7 JUMPI DUP1 PUSH4 0xD0E30DB0 EQ PUSH2 0xCE JUMPI PUSH2 0x4A JUMP JUMPDEST CALLDATASIZE PUSH2 0x4A JUMPI STOP JUMPDEST PUSH1 0x0 DUP1 REVERT JUMPDEST CALLVALUE DUP1 ISZERO PUSH2 0x5B JUMPI PUSH1 0x0 DUP1 REVERT JUMPDEST POP PUSH2 0x64 PUSH2 0xD8 JUMP JUMPDEST PUSH1 0x40 MLOAD PUSH2 0x71 SWAP2 SWAP1 PUSH2 0x358 JUMP JUMPDEST PUSH1 0x40 MLOAD DUP1 SWAP2 SUB SWAP1 RETURN JUMPDEST CALLVALUE DUP1 ISZERO PUSH2 0x86 JUMPI PUSH1 0x0 DUP1 REVERT JUMPDEST POP PUSH2 0xA1 PUSH1 0x4 DUP1 CALLDATASIZE SUB DUP2 ADD SWAP1 PUSH2 0x9C SWAP2 SWAP1 PUSH2 0x2A1 JUMP JUMPDEST PUSH2 0xE0 JUMP JUMPDEST PUSH1 0x40 MLOAD PUSH2 0xAE SWAP2 SWAP1 PUSH2 0x358 JUMP JUMPDEST PUSH1 0x40 MLOAD DUP1 SWAP2 SUB SWAP1 RETURN JUMPDEST CALLVALUE DUP1 ISZERO PUSH2 0xC3 JUMPI PUSH1 0x0 DUP1 REVERT JUMPDEST POP PUSH2 0xCC PUSH2 0xF8 JUMP JUMPDEST STOP JUMPDEST PUSH2 0xD6 PUSH2 0x235 JUMP JUMPDEST STOP JUMPDEST PUSH1 0x0 SELFBALANCE SWAP1 POP SWAP1 JUMP JUMPDEST PUSH1 0x0 PUSH1 0x20 MSTORE DUP1 PUSH1 0x0 MSTORE PUSH1 0x40 PUSH1 0x0 KECCAK256 PUSH1 0x0 SWAP2 POP SWAP1 POP SLOAD DUP2 JUMP JUMPDEST PUSH1 0x0 DUP1 PUSH1 0x0 CALLER PUSH20 0xFFFFFFFFFFFFFFFFFFFFFFFFFFFFFFFFFFFFFFFF AND PUSH20 0xFFFFFFFFFFFFFFFFFFFFFFFFFFFFFFFFFFFFFFFF AND DUP2 MSTORE PUSH1 0x20 ADD SWAP1 DUP2 MSTORE PUSH1 0x20 ADD PUSH1 0x0 KECCAK256 SLOAD SWAP1 POP PUSH1 0x0 DUP2 GT PUSH2 0x17E JUMPI PUSH1 0x40 MLOAD PUSH32 0x8C379A000000000000000000000000000000000000000000000000000000000 DUP2 MSTORE PUSH1 0x4 ADD PUSH2 0x175 SWAP1 PUSH2 0x338 JUMP JUMPDEST PUSH1 0x40 MLOAD DUP1 SWAP2 SUB SWAP1 REVERT JUMPDEST PUSH1 0x0 DUP1 CALLER PUSH20 0xFFFFFFFFFFFFFFFFFFFFFFFFFFFFFFFFFFFFFFFF AND DUP4 PUSH1 0x40 MLOAD PUSH2 0x1A5 SWAP1 PUSH2 0x323 JUMP JUMPDEST PUSH1 0x0 PUSH1 0x40 MLOAD DUP1 DUP4 SUB DUP2 DUP6 DUP8 GAS CALL SWAP3 POP POP POP RETURNDATASIZE DUP1 PUSH1 0x0 DUP2 EQ PUSH2 0x1E2 JUMPI PUSH1 0x40 MLOAD SWAP2 POP PUSH1 0x1F NOT PUSH1 0x3F RETURNDATASIZE ADD AND DUP3 ADD PUSH1 0x40 MSTORE RETURNDATASIZE DUP3 MSTORE RETURNDATASIZE PUSH1 0x0 PUSH1 0x20 DUP5 ADD RETURNDATACOPY PUSH2 0x1E7 JUMP JUMPDEST PUSH1 0x60 SWAP2 POP JUMPDEST POP SWAP2 POP SWAP2 POP PUSH1 0x0 DUP1 PUSH1 0x0 CALLER PUSH20 0xFFFFFFFFFFFFFFFFFFFFFFFFFFFFFFFFFFFFFFFF AND PUSH20 0xFFFFFFFFFFFFFFFFFFFFFFFFFFFFFFFFFFFFFFFF AND DUP2 MSTORE PUSH1 0x20 ADD SWAP1 DUP2 MSTORE PUSH1 0x20 ADD PUSH1 0x0 KECCAK256 DUP2 SWAP1 SSTORE POP POP POP POP JUMP JUMPDEST CALLVALUE PUSH1 0x0 DUP1 CALLER PUSH20 0xFFFFFFFFFFFFFFFFFFFFFFFFFFFFFFFFFFFFFFFF AND PUSH20 0xFFFFFFFFFFFFFFFFFFFFFFFFFFFFFFFFFFFFFFFF AND DUP2 MSTORE PUSH1 0x20 ADD SWAP1 DUP2 MSTORE PUSH1 0x20 ADD PUSH1 0x0 KECCAK256 PUSH1 0x0 DUP3 DUP3 SLOAD PUSH2 0x283 SWAP2 SWAP1 PUSH2 0x38F JUMP JUMPDEST SWAP3 POP POP DUP2 SWAP1 SSTORE POP JUMP JUMPDEST PUSH1 0x0 DUP2 CALLDATALOAD SWAP1 POP PUSH2 0x29B DUP2 PUSH2 0x4A7 JUMP JUMPDEST SWAP3 SWAP2 POP POP JUMP JUMPDEST PUSH1 0x0 PUSH1 0x20 DUP3 DUP5 SUB SLT ISZERO PUSH2 0x2B7 JUMPI PUSH2 0x2B6 PUSH2 0x450 JUMP JUMPDEST JUMPDEST PUSH1 0x0 PUSH2 0x2C5 DUP5 DUP3 DUP6 ADD PUSH2 0x28C JUMP JUMPDEST SWAP2 POP POP SWAP3 SWAP2 POP POP JUMP JUMPDEST PUSH1 0x0 PUSH2 0x2DB PUSH1 0x16 DUP4 PUSH2 0x373 JUMP JUMPDEST SWAP2 POP PUSH2 0x2E6 DUP3 PUSH2 0x455 JUMP JUMPDEST PUSH1 0x16 DUP3 ADD SWAP1 POP SWAP2 SWAP1 POP JUMP JUMPDEST PUSH1 0x0 PUSH2 0x2FE PUSH1 0x1D DUP4 PUSH2 0x37E JUMP JUMPDEST SWAP2 POP PUSH2 0x309 DUP3 PUSH2 0x47E JUMP JUMPDEST PUSH1 0x20 DUP3 ADD SWAP1 POP SWAP2 SWAP1 POP JUMP JUMPDEST PUSH2 0x31D DUP2 PUSH2 0x417 JUMP JUMPDEST DUP3 MSTORE POP POP JUMP JUMPDEST PUSH1 0x0 PUSH2 0x32E DUP3 PUSH2 0x2CE JUMP JUMPDEST SWAP2 POP DUP2 SWAP1 POP SWAP2 SWAP1 POP JUMP JUMPDEST PUSH1 0x0 PUSH1 0x20 DUP3 ADD SWAP1 POP DUP2 DUP2 SUB PUSH1 0x0 DUP4 ADD MSTORE PUSH2 0x351 DUP2 PUSH2 0x2F1 JUMP JUMPDEST SWAP1 POP SWAP2 SWAP1 POP JUMP JUMPDEST PUSH1 0x0 PUSH1 0x20 DUP3 ADD SWAP1 POP PUSH2 0x36D PUSH1 0x0 DUP4 ADD DUP5 PUSH2 0x314 JUMP JUMPDEST SWAP3 SWAP2 POP POP JUMP JUMPDEST PUSH1 0x0 DUP2 SWAP1 POP SWAP3 SWAP2 POP POP JUMP JUMPDEST PUSH1 0x0 DUP3 DUP3 MSTORE PUSH1 0x20 DUP3 ADD SWAP1 POP SWAP3 SWAP2 POP POP JUMP JUMPDEST PUSH1 0x0 PUSH2 0x39A DUP3 PUSH2 0x417 JUMP JUMPDEST SWAP2 POP PUSH2 0x3A5 DUP4 PUSH2 0x417 JUMP JUMPDEST SWAP3 POP DUP3 PUSH32 0xFFFFFFFFFFFFFFFFFFFFFFFFFFFFFFFFFFFFFFFFFFFFFFFFFFFFFFFFFFFFFFFF SUB DUP3 GT ISZERO PUSH2 0x3DA JUMPI PUSH2 0x3D9 PUSH2 0x421 JUMP JUMPDEST JUMPDEST DUP3 DUP3 ADD SWAP1 POP SWAP3 SWAP2 POP POP JUMP JUMPDEST PUSH1 0x0 PUSH2 0x3F0 DUP3 PUSH2 0x3F7 JUMP JUMPDEST SWAP1 POP SWAP2 SWAP1 POP JUMP JUMPDEST PUSH1 0x0 PUSH20 0xFFFFFFFFFFFFFFFFFFFFFFFFFFFFFFFFFFFFFFFF DUP3 AND SWAP1 POP SWAP2 SWAP1 POP JUMP JUMPDEST PUSH1 0x0 DUP2 SWAP1 POP SWAP2 SWAP1 POP JUMP JUMPDEST PUSH32 0x4E487B7100000000000000000000000000000000000000000000000000000000 PUSH1 0x0 MSTORE PUSH1 0x11 PUSH1 0x4 MSTORE PUSH1 0x24 PUSH1 0x0 REVERT JUMPDEST PUSH1 0x0 DUP1 REVERT JUMPDEST PUSH32 0x686F6C6120746520656E76696F2074752076616C6F7200000000000000000000 PUSH1 0x0 DUP3 ADD MSTORE POP JUMP JUMPDEST PUSH32 0x4E6F207469656E65732062616C616E6365207175652072657469726172000000 PUSH1 0x0 DUP3 ADD MSTORE POP JUMP JUMPDEST PUSH2 0x4B0 DUP2 PUSH2 0x3E5 JUMP JUMPDEST DUP2 EQ PUSH2 0x4BB JUMPI PUSH1 0x0 DUP1 REVERT JUMPDEST POP JUMP INVALID LOG2 PUSH5 0x6970667358 0x22 SLT KECCAK256 0x4A 0xE4 DUP12 PUSH22 0x69704961100587EC57948F12B77167F2763142882E1C MUL 0xC0 0xE1 0xD2 SLOAD 0xF7 PUSH5 0x736F6C6343 STOP ADDMOD SMOD STOP CALLER "
				},
				"gasEstimates": {
					"creation": {
						"codeDepositCost": "253600",
						"executionCost": "294",
						"totalCost": "253894"
					},
					"external": {
						"balances(address)": "2814",
						"deposit()": "infinite",
						"getTotalBalance()": "317",
						"withdraw()": "infinite"
					}
				},
				"methodIdentifiers": {
					"balances(address)": "27e235e3",
					"deposit()": "d0e30db0",
					"getTotalBalance()": "12b58349",
					"withdraw()": "3ccfd60b"
				}
			},
			"storageLayout": {
				"storage": [
					{
						"astId": 5,
						"contract": "contracts/Reentrancy.sol:DepositFunds",
						"label": "balances",
						"offset": 0,
						"slot": "0",
						"type": "t_mapping(t_address,t_uint256)"
					}
				],
				"types": {
					"t_address": {
						"encoding": "inplace",
						"label": "address",
						"numberOfBytes": "20"
					},
					"t_mapping(t_address,t_uint256)": {
						"encoding": "mapping",
						"key": "t_address",
						"label": "mapping(address => uint256)",
						"numberOfBytes": "32",
						"value": "t_uint256"
					},
					"t_uint256": {
						"encoding": "inplace",
						"label": "uint256",
						"numberOfBytes": "32"
					}
				}
			},
			"userdoc": {
				"kind": "user",
				"methods": {},
				"version": 1
			}
		}
	}
}