{
	"contracts/Funciones.sol": {
		"Funciones": {
			"abi": [
				{
					"inputs": [],
					"name": "getData",
					"outputs": [
						{
							"internalType": "uint8",
							"name": "parametro3",
							"type": "uint8"
						}
					],
					"stateMutability": "pure",
					"type": "function"
				},
				{
					"inputs": [],
					"name": "getData2",
					"outputs": [
						{
							"internalType": "address",
							"name": "",
							"type": "address"
						}
					],
					"stateMutability": "view",
					"type": "function"
				},
				{
					"inputs": [],
					"name": "incrementar",
					"outputs": [
						{
							"internalType": "uint256",
							"name": "",
							"type": "uint256"
						}
					],
					"stateMutability": "view",
					"type": "function"
				},
				{
					"inputs": [],
					"name": "operacion1",
					"outputs": [],
					"stateMutability": "nonpayable",
					"type": "function"
				},
				{
					"inputs": [],
					"name": "operacion2",
					"outputs": [],
					"stateMutability": "nonpayable",
					"type": "function"
				},
				{
					"inputs": [
						{
							"internalType": "uint8",
							"name": "parametro1",
							"type": "uint8"
						},
						{
							"internalType": "uint8",
							"name": "parametro2",
							"type": "uint8"
						}
					],
					"name": "setData",
					"outputs": [],
					"stateMutability": "pure",
					"type": "function"
				},
				{
					"inputs": [],
					"name": "suma",
					"outputs": [
						{
							"internalType": "uint256",
							"name": "",
							"type": "uint256"
						}
					],
					"stateMutability": "pure",
					"type": "function"
				}
			],
			"devdoc": {
				"kind": "dev",
				"methods": {},
				"version": 1
			},
			"evm": {
				"assembly": "    /* \"contracts/Funciones.sol\":77:1242  contract Funciones{\r... */\n  mstore(0x40, 0x80)\n    /* \"contracts/Funciones.sol\":527:537  msg.sender */\n  caller\n    /* \"contracts/Funciones.sol\":510:537  address sender = msg.sender */\n  0x00\n  dup1\n  0x0100\n  exp\n  dup2\n  sload\n  dup2\n  0xffffffffffffffffffffffffffffffffffffffff\n  mul\n  not\n  and\n  swap1\n  dup4\n  0xffffffffffffffffffffffffffffffffffffffff\n  and\n  mul\n  or\n  swap1\n  sstore\n  pop\n    /* \"contracts/Funciones.sol\":664:665  2 */\n  0x02\n    /* \"contracts/Funciones.sol\":650:665  int numero1 = 2 */\n  0x01\n  sstore\n    /* \"contracts/Funciones.sol\":686:687  3 */\n  0x03\n    /* \"contracts/Funciones.sol\":672:687  int numero2 = 3 */\n  0x02\n  sstore\n    /* \"contracts/Funciones.sol\":1147:1148  8 */\n  0x08\n    /* \"contracts/Funciones.sol\":1138:1148  uint x = 8 */\n  0x04\n  sstore\n    /* \"contracts/Funciones.sol\":77:1242  contract Funciones{\r... */\n  callvalue\n  dup1\n  iszero\n  tag_1\n  jumpi\n  0x00\n  dup1\n  revert\ntag_1:\n  pop\n  dataSize(sub_0)\n  dup1\n  dataOffset(sub_0)\n  0x00\n  codecopy\n  0x00\n  return\nstop\n\nsub_0: assembly {\n        /* \"contracts/Funciones.sol\":77:1242  contract Funciones{\r... */\n      mstore(0x40, 0x80)\n      callvalue\n      dup1\n      iszero\n      tag_1\n      jumpi\n      0x00\n      dup1\n      revert\n    tag_1:\n      pop\n      jumpi(tag_2, lt(calldatasize, 0x04))\n      shr(0xe0, calldataload(0x00))\n      dup1\n      0x7e7d8ec6\n      gt\n      tag_10\n      jumpi\n      dup1\n      0x7e7d8ec6\n      eq\n      tag_6\n      jumpi\n      dup1\n      0x8846636c\n      eq\n      tag_7\n      jumpi\n      dup1\n      0x91607a99\n      eq\n      tag_8\n      jumpi\n      dup1\n      0xa898fd70\n      eq\n      tag_9\n      jumpi\n      jump(tag_2)\n    tag_10:\n      dup1\n      0x191dbb34\n      eq\n      tag_3\n      jumpi\n      dup1\n      0x1e3d73a1\n      eq\n      tag_4\n      jumpi\n      dup1\n      0x3bc5de30\n      eq\n      tag_5\n      jumpi\n    tag_2:\n      0x00\n      dup1\n      revert\n        /* \"contracts/Funciones.sol\":791:837  function operacion2() public{\r... */\n    tag_3:\n      tag_11\n      tag_12\n      jump\t// in\n    tag_11:\n      stop\n        /* \"contracts/Funciones.sol\":146:283  function setData (uint8 parametro1, uint8 parametro2) public pure{\r... */\n    tag_4:\n      tag_13\n      0x04\n      dup1\n      calldatasize\n      sub\n      dup2\n      add\n      swap1\n      tag_14\n      swap2\n      swap1\n      tag_15\n      jump\t// in\n    tag_14:\n      tag_16\n      jump\t// in\n    tag_13:\n      stop\n        /* \"contracts/Funciones.sol\":334:462  function getData() public pure returns (uint8 parametro3){\r... */\n    tag_5:\n      tag_17\n      tag_18\n      jump\t// in\n    tag_17:\n      mload(0x40)\n      tag_19\n      swap2\n      swap1\n      tag_20\n      jump\t// in\n    tag_19:\n      mload(0x40)\n      dup1\n      swap2\n      sub\n      swap1\n      return\n        /* \"contracts/Funciones.sol\":1050:1130  function suma() public pure returns(uint){\r... */\n    tag_6:\n      tag_21\n      tag_22\n      jump\t// in\n    tag_21:\n      mload(0x40)\n      tag_23\n      swap2\n      swap1\n      tag_24\n      jump\t// in\n    tag_23:\n      mload(0x40)\n      dup1\n      swap2\n      sub\n      swap1\n      return\n        /* \"contracts/Funciones.sol\":735:783  function operacion1() external{\r... */\n    tag_7:\n      tag_25\n      tag_26\n      jump\t// in\n    tag_25:\n      stop\n        /* \"contracts/Funciones.sol\":1157:1239  function incrementar() public view returns (uint){\r... */\n    tag_8:\n      tag_27\n      tag_28\n      jump\t// in\n    tag_27:\n      mload(0x40)\n      tag_29\n      swap2\n      swap1\n      tag_24\n      jump\t// in\n    tag_29:\n      mload(0x40)\n      dup1\n      swap2\n      sub\n      swap1\n      return\n        /* \"contracts/Funciones.sol\":561:642  function getData2() public view returns (address){\r... */\n    tag_9:\n      tag_30\n      tag_31\n      jump\t// in\n    tag_30:\n      mload(0x40)\n      tag_32\n      swap2\n      swap1\n      tag_33\n      jump\t// in\n    tag_32:\n      mload(0x40)\n      dup1\n      swap2\n      sub\n      swap1\n      return\n        /* \"contracts/Funciones.sol\":791:837  function operacion2() public{\r... */\n    tag_12:\n      jump\t// out\n        /* \"contracts/Funciones.sol\":146:283  function setData (uint8 parametro1, uint8 parametro2) public pure{\r... */\n    tag_16:\n        /* \"contracts/Funciones.sol\":248:249  1 */\n      0x01\n        /* \"contracts/Funciones.sol\":235:245  parametro1 */\n      dup3\n        /* \"contracts/Funciones.sol\":235:249  parametro1 + 1 */\n      tag_36\n      swap2\n      swap1\n      tag_37\n      jump\t// in\n    tag_36:\n        /* \"contracts/Funciones.sol\":222:249  parametro1 = parametro1 + 1 */\n      swap2\n      pop\n        /* \"contracts/Funciones.sol\":274:275  1 */\n      0x01\n        /* \"contracts/Funciones.sol\":260:275  parametro2 += 1 */\n      dup2\n      tag_38\n      swap2\n      swap1\n      tag_37\n      jump\t// in\n    tag_38:\n      swap1\n      pop\n        /* \"contracts/Funciones.sol\":146:283  function setData (uint8 parametro1, uint8 parametro2) public pure{\r... */\n      pop\n      pop\n      jump\t// out\n        /* \"contracts/Funciones.sol\":334:462  function getData() public pure returns (uint8 parametro3){\r... */\n    tag_18:\n        /* \"contracts/Funciones.sol\":374:390  uint8 parametro3 */\n      0x00\n        /* \"contracts/Funciones.sol\":416:426  parametro3 */\n      dup1\n        /* \"contracts/Funciones.sol\":402:426  parametro3 += parametro3 */\n      dup2\n      tag_40\n      swap2\n      swap1\n      tag_37\n      jump\t// in\n    tag_40:\n      swap1\n      pop\n        /* \"contracts/Funciones.sol\":334:462  function getData() public pure returns (uint8 parametro3){\r... */\n      swap1\n      jump\t// out\n        /* \"contracts/Funciones.sol\":1050:1130  function suma() public pure returns(uint){\r... */\n    tag_22:\n        /* \"contracts/Funciones.sol\":1086:1090  uint */\n      0x00\n        /* \"contracts/Funciones.sol\":1119:1122  2+2 */\n      0x04\n        /* \"contracts/Funciones.sol\":1112:1122  return 2+2 */\n      swap1\n      pop\n        /* \"contracts/Funciones.sol\":1050:1130  function suma() public pure returns(uint){\r... */\n      swap1\n      jump\t// out\n        /* \"contracts/Funciones.sol\":735:783  function operacion1() external{\r... */\n    tag_26:\n      jump\t// out\n        /* \"contracts/Funciones.sol\":1157:1239  function incrementar() public view returns (uint){\r... */\n    tag_28:\n        /* \"contracts/Funciones.sol\":1201:1205  uint */\n      0x00\n        /* \"contracts/Funciones.sol\":1230:1231  2 */\n      0x02\n        /* \"contracts/Funciones.sol\":1226:1227  x */\n      sload(0x04)\n        /* \"contracts/Funciones.sol\":1226:1231  x + 2 */\n      tag_44\n      swap2\n      swap1\n      tag_45\n      jump\t// in\n    tag_44:\n        /* \"contracts/Funciones.sol\":1219:1231  return x + 2 */\n      swap1\n      pop\n        /* \"contracts/Funciones.sol\":1157:1239  function incrementar() public view returns (uint){\r... */\n      swap1\n      jump\t// out\n        /* \"contracts/Funciones.sol\":561:642  function getData2() public view returns (address){\r... */\n    tag_31:\n        /* \"contracts/Funciones.sol\":602:609  address */\n      0x00\n        /* \"contracts/Funciones.sol\":628:634  sender */\n      dup1\n      0x00\n      swap1\n      sload\n      swap1\n      0x0100\n      exp\n      swap1\n      div\n      0xffffffffffffffffffffffffffffffffffffffff\n      and\n        /* \"contracts/Funciones.sol\":621:634  return sender */\n      swap1\n      pop\n        /* \"contracts/Funciones.sol\":561:642  function getData2() public view returns (address){\r... */\n      swap1\n      jump\t// out\n        /* \"#utility.yul\":7:142   */\n    tag_48:\n        /* \"#utility.yul\":51:56   */\n      0x00\n        /* \"#utility.yul\":89:95   */\n      dup2\n        /* \"#utility.yul\":76:96   */\n      calldataload\n        /* \"#utility.yul\":67:96   */\n      swap1\n      pop\n        /* \"#utility.yul\":105:136   */\n      tag_50\n        /* \"#utility.yul\":130:135   */\n      dup2\n        /* \"#utility.yul\":105:136   */\n      tag_51\n      jump\t// in\n    tag_50:\n        /* \"#utility.yul\":7:142   */\n      swap3\n      swap2\n      pop\n      pop\n      jump\t// out\n        /* \"#utility.yul\":148:614   */\n    tag_15:\n        /* \"#utility.yul\":212:218   */\n      0x00\n        /* \"#utility.yul\":220:226   */\n      dup1\n        /* \"#utility.yul\":269:271   */\n      0x40\n        /* \"#utility.yul\":257:266   */\n      dup4\n        /* \"#utility.yul\":248:255   */\n      dup6\n        /* \"#utility.yul\":244:267   */\n      sub\n        /* \"#utility.yul\":240:272   */\n      slt\n        /* \"#utility.yul\":237:356   */\n      iszero\n      tag_53\n      jumpi\n        /* \"#utility.yul\":275:354   */\n      tag_54\n      tag_55\n      jump\t// in\n    tag_54:\n        /* \"#utility.yul\":237:356   */\n    tag_53:\n        /* \"#utility.yul\":395:396   */\n      0x00\n        /* \"#utility.yul\":420:471   */\n      tag_56\n        /* \"#utility.yul\":463:470   */\n      dup6\n        /* \"#utility.yul\":454:460   */\n      dup3\n        /* \"#utility.yul\":443:452   */\n      dup7\n        /* \"#utility.yul\":439:461   */\n      add\n        /* \"#utility.yul\":420:471   */\n      tag_48\n      jump\t// in\n    tag_56:\n        /* \"#utility.yul\":410:471   */\n      swap3\n      pop\n        /* \"#utility.yul\":366:481   */\n      pop\n        /* \"#utility.yul\":520:522   */\n      0x20\n        /* \"#utility.yul\":546:597   */\n      tag_57\n        /* \"#utility.yul\":589:596   */\n      dup6\n        /* \"#utility.yul\":580:586   */\n      dup3\n        /* \"#utility.yul\":569:578   */\n      dup7\n        /* \"#utility.yul\":565:587   */\n      add\n        /* \"#utility.yul\":546:597   */\n      tag_48\n      jump\t// in\n    tag_57:\n        /* \"#utility.yul\":536:597   */\n      swap2\n      pop\n        /* \"#utility.yul\":491:607   */\n      pop\n        /* \"#utility.yul\":148:614   */\n      swap3\n      pop\n      swap3\n      swap1\n      pop\n      jump\t// out\n        /* \"#utility.yul\":620:738   */\n    tag_58:\n        /* \"#utility.yul\":707:731   */\n      tag_60\n        /* \"#utility.yul\":725:730   */\n      dup2\n        /* \"#utility.yul\":707:731   */\n      tag_61\n      jump\t// in\n    tag_60:\n        /* \"#utility.yul\":702:705   */\n      dup3\n        /* \"#utility.yul\":695:732   */\n      mstore\n        /* \"#utility.yul\":620:738   */\n      pop\n      pop\n      jump\t// out\n        /* \"#utility.yul\":744:862   */\n    tag_62:\n        /* \"#utility.yul\":831:855   */\n      tag_64\n        /* \"#utility.yul\":849:854   */\n      dup2\n        /* \"#utility.yul\":831:855   */\n      tag_65\n      jump\t// in\n    tag_64:\n        /* \"#utility.yul\":826:829   */\n      dup3\n        /* \"#utility.yul\":819:856   */\n      mstore\n        /* \"#utility.yul\":744:862   */\n      pop\n      pop\n      jump\t// out\n        /* \"#utility.yul\":868:980   */\n    tag_66:\n        /* \"#utility.yul\":951:973   */\n      tag_68\n        /* \"#utility.yul\":967:972   */\n      dup2\n        /* \"#utility.yul\":951:973   */\n      tag_69\n      jump\t// in\n    tag_68:\n        /* \"#utility.yul\":946:949   */\n      dup3\n        /* \"#utility.yul\":939:974   */\n      mstore\n        /* \"#utility.yul\":868:980   */\n      pop\n      pop\n      jump\t// out\n        /* \"#utility.yul\":986:1208   */\n    tag_33:\n        /* \"#utility.yul\":1079:1083   */\n      0x00\n        /* \"#utility.yul\":1117:1119   */\n      0x20\n        /* \"#utility.yul\":1106:1115   */\n      dup3\n        /* \"#utility.yul\":1102:1120   */\n      add\n        /* \"#utility.yul\":1094:1120   */\n      swap1\n      pop\n        /* \"#utility.yul\":1130:1201   */\n      tag_71\n        /* \"#utility.yul\":1198:1199   */\n      0x00\n        /* \"#utility.yul\":1187:1196   */\n      dup4\n        /* \"#utility.yul\":1183:1200   */\n      add\n        /* \"#utility.yul\":1174:1180   */\n      dup5\n        /* \"#utility.yul\":1130:1201   */\n      tag_58\n      jump\t// in\n    tag_71:\n        /* \"#utility.yul\":986:1208   */\n      swap3\n      swap2\n      pop\n      pop\n      jump\t// out\n        /* \"#utility.yul\":1214:1436   */\n    tag_24:\n        /* \"#utility.yul\":1307:1311   */\n      0x00\n        /* \"#utility.yul\":1345:1347   */\n      0x20\n        /* \"#utility.yul\":1334:1343   */\n      dup3\n        /* \"#utility.yul\":1330:1348   */\n      add\n        /* \"#utility.yul\":1322:1348   */\n      swap1\n      pop\n        /* \"#utility.yul\":1358:1429   */\n      tag_73\n        /* \"#utility.yul\":1426:1427   */\n      0x00\n        /* \"#utility.yul\":1415:1424   */\n      dup4\n        /* \"#utility.yul\":1411:1428   */\n      add\n        /* \"#utility.yul\":1402:1408   */\n      dup5\n        /* \"#utility.yul\":1358:1429   */\n      tag_62\n      jump\t// in\n    tag_73:\n        /* \"#utility.yul\":1214:1436   */\n      swap3\n      swap2\n      pop\n      pop\n      jump\t// out\n        /* \"#utility.yul\":1442:1656   */\n    tag_20:\n        /* \"#utility.yul\":1531:1535   */\n      0x00\n        /* \"#utility.yul\":1569:1571   */\n      0x20\n        /* \"#utility.yul\":1558:1567   */\n      dup3\n        /* \"#utility.yul\":1554:1572   */\n      add\n        /* \"#utility.yul\":1546:1572   */\n      swap1\n      pop\n        /* \"#utility.yul\":1582:1649   */\n      tag_75\n        /* \"#utility.yul\":1646:1647   */\n      0x00\n        /* \"#utility.yul\":1635:1644   */\n      dup4\n        /* \"#utility.yul\":1631:1648   */\n      add\n        /* \"#utility.yul\":1622:1628   */\n      dup5\n        /* \"#utility.yul\":1582:1649   */\n      tag_66\n      jump\t// in\n    tag_75:\n        /* \"#utility.yul\":1442:1656   */\n      swap3\n      swap2\n      pop\n      pop\n      jump\t// out\n        /* \"#utility.yul\":1743:2048   */\n    tag_45:\n        /* \"#utility.yul\":1783:1786   */\n      0x00\n        /* \"#utility.yul\":1802:1822   */\n      tag_79\n        /* \"#utility.yul\":1820:1821   */\n      dup3\n        /* \"#utility.yul\":1802:1822   */\n      tag_65\n      jump\t// in\n    tag_79:\n        /* \"#utility.yul\":1797:1822   */\n      swap2\n      pop\n        /* \"#utility.yul\":1836:1856   */\n      tag_80\n        /* \"#utility.yul\":1854:1855   */\n      dup4\n        /* \"#utility.yul\":1836:1856   */\n      tag_65\n      jump\t// in\n    tag_80:\n        /* \"#utility.yul\":1831:1856   */\n      swap3\n      pop\n        /* \"#utility.yul\":1990:1991   */\n      dup3\n        /* \"#utility.yul\":1922:1988   */\n      0xffffffffffffffffffffffffffffffffffffffffffffffffffffffffffffffff\n        /* \"#utility.yul\":1918:1992   */\n      sub\n        /* \"#utility.yul\":1915:1916   */\n      dup3\n        /* \"#utility.yul\":1912:1993   */\n      gt\n        /* \"#utility.yul\":1909:2016   */\n      iszero\n      tag_81\n      jumpi\n        /* \"#utility.yul\":1996:2014   */\n      tag_82\n      tag_83\n      jump\t// in\n    tag_82:\n        /* \"#utility.yul\":1909:2016   */\n    tag_81:\n        /* \"#utility.yul\":2040:2041   */\n      dup3\n        /* \"#utility.yul\":2037:2038   */\n      dup3\n        /* \"#utility.yul\":2033:2042   */\n      add\n        /* \"#utility.yul\":2026:2042   */\n      swap1\n      pop\n        /* \"#utility.yul\":1743:2048   */\n      swap3\n      swap2\n      pop\n      pop\n      jump\t// out\n        /* \"#utility.yul\":2054:2291   */\n    tag_37:\n        /* \"#utility.yul\":2092:2095   */\n      0x00\n        /* \"#utility.yul\":2111:2129   */\n      tag_85\n        /* \"#utility.yul\":2127:2128   */\n      dup3\n        /* \"#utility.yul\":2111:2129   */\n      tag_69\n      jump\t// in\n    tag_85:\n        /* \"#utility.yul\":2106:2129   */\n      swap2\n      pop\n        /* \"#utility.yul\":2143:2161   */\n      tag_86\n        /* \"#utility.yul\":2159:2160   */\n      dup4\n        /* \"#utility.yul\":2143:2161   */\n      tag_69\n      jump\t// in\n    tag_86:\n        /* \"#utility.yul\":2138:2161   */\n      swap3\n      pop\n        /* \"#utility.yul\":2233:2234   */\n      dup3\n        /* \"#utility.yul\":2227:2231   */\n      0xff\n        /* \"#utility.yul\":2223:2235   */\n      sub\n        /* \"#utility.yul\":2220:2221   */\n      dup3\n        /* \"#utility.yul\":2217:2236   */\n      gt\n        /* \"#utility.yul\":2214:2259   */\n      iszero\n      tag_87\n      jumpi\n        /* \"#utility.yul\":2239:2257   */\n      tag_88\n      tag_83\n      jump\t// in\n    tag_88:\n        /* \"#utility.yul\":2214:2259   */\n    tag_87:\n        /* \"#utility.yul\":2283:2284   */\n      dup3\n        /* \"#utility.yul\":2280:2281   */\n      dup3\n        /* \"#utility.yul\":2276:2285   */\n      add\n        /* \"#utility.yul\":2269:2285   */\n      swap1\n      pop\n        /* \"#utility.yul\":2054:2291   */\n      swap3\n      swap2\n      pop\n      pop\n      jump\t// out\n        /* \"#utility.yul\":2297:2393   */\n    tag_61:\n        /* \"#utility.yul\":2334:2341   */\n      0x00\n        /* \"#utility.yul\":2363:2387   */\n      tag_90\n        /* \"#utility.yul\":2381:2386   */\n      dup3\n        /* \"#utility.yul\":2363:2387   */\n      tag_91\n      jump\t// in\n    tag_90:\n        /* \"#utility.yul\":2352:2387   */\n      swap1\n      pop\n        /* \"#utility.yul\":2297:2393   */\n      swap2\n      swap1\n      pop\n      jump\t// out\n        /* \"#utility.yul\":2399:2525   */\n    tag_91:\n        /* \"#utility.yul\":2436:2443   */\n      0x00\n        /* \"#utility.yul\":2476:2518   */\n      0xffffffffffffffffffffffffffffffffffffffff\n        /* \"#utility.yul\":2469:2474   */\n      dup3\n        /* \"#utility.yul\":2465:2519   */\n      and\n        /* \"#utility.yul\":2454:2519   */\n      swap1\n      pop\n        /* \"#utility.yul\":2399:2525   */\n      swap2\n      swap1\n      pop\n      jump\t// out\n        /* \"#utility.yul\":2531:2608   */\n    tag_65:\n        /* \"#utility.yul\":2568:2575   */\n      0x00\n        /* \"#utility.yul\":2597:2602   */\n      dup2\n        /* \"#utility.yul\":2586:2602   */\n      swap1\n      pop\n        /* \"#utility.yul\":2531:2608   */\n      swap2\n      swap1\n      pop\n      jump\t// out\n        /* \"#utility.yul\":2614:2700   */\n    tag_69:\n        /* \"#utility.yul\":2649:2656   */\n      0x00\n        /* \"#utility.yul\":2689:2693   */\n      0xff\n        /* \"#utility.yul\":2682:2687   */\n      dup3\n        /* \"#utility.yul\":2678:2694   */\n      and\n        /* \"#utility.yul\":2667:2694   */\n      swap1\n      pop\n        /* \"#utility.yul\":2614:2700   */\n      swap2\n      swap1\n      pop\n      jump\t// out\n        /* \"#utility.yul\":2706:2886   */\n    tag_83:\n        /* \"#utility.yul\":2754:2831   */\n      0x4e487b7100000000000000000000000000000000000000000000000000000000\n        /* \"#utility.yul\":2751:2752   */\n      0x00\n        /* \"#utility.yul\":2744:2832   */\n      mstore\n        /* \"#utility.yul\":2851:2855   */\n      0x11\n        /* \"#utility.yul\":2848:2849   */\n      0x04\n        /* \"#utility.yul\":2841:2856   */\n      mstore\n        /* \"#utility.yul\":2875:2879   */\n      0x24\n        /* \"#utility.yul\":2872:2873   */\n      0x00\n        /* \"#utility.yul\":2865:2880   */\n      revert\n        /* \"#utility.yul\":3015:3132   */\n    tag_55:\n        /* \"#utility.yul\":3124:3125   */\n      0x00\n        /* \"#utility.yul\":3121:3122   */\n      dup1\n        /* \"#utility.yul\":3114:3126   */\n      revert\n        /* \"#utility.yul\":3138:3256   */\n    tag_51:\n        /* \"#utility.yul\":3209:3231   */\n      tag_100\n        /* \"#utility.yul\":3225:3230   */\n      dup2\n        /* \"#utility.yul\":3209:3231   */\n      tag_69\n      jump\t// in\n    tag_100:\n        /* \"#utility.yul\":3202:3207   */\n      dup2\n        /* \"#utility.yul\":3199:3232   */\n      eq\n        /* \"#utility.yul\":3189:3250   */\n      tag_101\n      jumpi\n        /* \"#utility.yul\":3246:3247   */\n      0x00\n        /* \"#utility.yul\":3243:3244   */\n      dup1\n        /* \"#utility.yul\":3236:3248   */\n      revert\n        /* \"#utility.yul\":3189:3250   */\n    tag_101:\n        /* \"#utility.yul\":3138:3256   */\n      pop\n      jump\t// out\n\n    auxdata: 0xa2646970667358221220aec7d424021bb2b1e863ce4c589646b4d37f7159f9dff8252f8b1342e72a772d64736f6c63430008070033\n}\n",
				"bytecode": {
					"linkReferences": {},
					"object": "6080604052336000806101000a81548173ffffffffffffffffffffffffffffffffffffffff021916908373ffffffffffffffffffffffffffffffffffffffff16021790555060026001556003600255600860045534801561005f57600080fd5b506103d58061006f6000396000f3fe608060405234801561001057600080fd5b506004361061007d5760003560e01c80637e7d8ec61161005b5780637e7d8ec6146100c65780638846636c146100e457806391607a99146100ee578063a898fd701461010c5761007d565b8063191dbb34146100825780631e3d73a11461008c5780633bc5de30146100a8575b600080fd5b61008a61012a565b005b6100a660048036038101906100a191906101c0565b61012c565b005b6100b061014e565b6040516100bd9190610263565b60405180910390f35b6100ce610161565b6040516100db9190610248565b60405180910390f35b6100ec61016a565b005b6100f661016c565b6040516101039190610248565b60405180910390f35b610114610182565b604051610121919061022d565b60405180910390f35b565b60018261013991906102d4565b915060018161014891906102d4565b90505050565b6000808161015c91906102d4565b905090565b60006004905090565b565b6000600260045461017d919061027e565b905090565b60008060009054906101000a900473ffffffffffffffffffffffffffffffffffffffff16905090565b6000813590506101ba81610388565b92915050565b600080604083850312156101d7576101d6610383565b5b60006101e5858286016101ab565b92505060206101f6858286016101ab565b9150509250929050565b6102098161030b565b82525050565b6102188161033d565b82525050565b61022781610347565b82525050565b60006020820190506102426000830184610200565b92915050565b600060208201905061025d600083018461020f565b92915050565b6000602082019050610278600083018461021e565b92915050565b60006102898261033d565b91506102948361033d565b9250827fffffffffffffffffffffffffffffffffffffffffffffffffffffffffffffffff038211156102c9576102c8610354565b5b828201905092915050565b60006102df82610347565b91506102ea83610347565b92508260ff03821115610300576102ff610354565b5b828201905092915050565b60006103168261031d565b9050919050565b600073ffffffffffffffffffffffffffffffffffffffff82169050919050565b6000819050919050565b600060ff82169050919050565b7f4e487b7100000000000000000000000000000000000000000000000000000000600052601160045260246000fd5b600080fd5b61039181610347565b811461039c57600080fd5b5056fea2646970667358221220aec7d424021bb2b1e863ce4c589646b4d37f7159f9dff8252f8b1342e72a772d64736f6c63430008070033",
					"opcodes": "PUSH1 0x80 PUSH1 0x40 MSTORE CALLER PUSH1 0x0 DUP1 PUSH2 0x100 EXP DUP2 SLOAD DUP2 PUSH20 0xFFFFFFFFFFFFFFFFFFFFFFFFFFFFFFFFFFFFFFFF MUL NOT AND SWAP1 DUP4 PUSH20 0xFFFFFFFFFFFFFFFFFFFFFFFFFFFFFFFFFFFFFFFF AND MUL OR SWAP1 SSTORE POP PUSH1 0x2 PUSH1 0x1 SSTORE PUSH1 0x3 PUSH1 0x2 SSTORE PUSH1 0x8 PUSH1 0x4 SSTORE CALLVALUE DUP1 ISZERO PUSH2 0x5F JUMPI PUSH1 0x0 DUP1 REVERT JUMPDEST POP PUSH2 0x3D5 DUP1 PUSH2 0x6F PUSH1 0x0 CODECOPY PUSH1 0x0 RETURN INVALID PUSH1 0x80 PUSH1 0x40 MSTORE CALLVALUE DUP1 ISZERO PUSH2 0x10 JUMPI PUSH1 0x0 DUP1 REVERT JUMPDEST POP PUSH1 0x4 CALLDATASIZE LT PUSH2 0x7D JUMPI PUSH1 0x0 CALLDATALOAD PUSH1 0xE0 SHR DUP1 PUSH4 0x7E7D8EC6 GT PUSH2 0x5B JUMPI DUP1 PUSH4 0x7E7D8EC6 EQ PUSH2 0xC6 JUMPI DUP1 PUSH4 0x8846636C EQ PUSH2 0xE4 JUMPI DUP1 PUSH4 0x91607A99 EQ PUSH2 0xEE JUMPI DUP1 PUSH4 0xA898FD70 EQ PUSH2 0x10C JUMPI PUSH2 0x7D JUMP JUMPDEST DUP1 PUSH4 0x191DBB34 EQ PUSH2 0x82 JUMPI DUP1 PUSH4 0x1E3D73A1 EQ PUSH2 0x8C JUMPI DUP1 PUSH4 0x3BC5DE30 EQ PUSH2 0xA8 JUMPI JUMPDEST PUSH1 0x0 DUP1 REVERT JUMPDEST PUSH2 0x8A PUSH2 0x12A JUMP JUMPDEST STOP JUMPDEST PUSH2 0xA6 PUSH1 0x4 DUP1 CALLDATASIZE SUB DUP2 ADD SWAP1 PUSH2 0xA1 SWAP2 SWAP1 PUSH2 0x1C0 JUMP JUMPDEST PUSH2 0x12C JUMP JUMPDEST STOP JUMPDEST PUSH2 0xB0 PUSH2 0x14E JUMP JUMPDEST PUSH1 0x40 MLOAD PUSH2 0xBD SWAP2 SWAP1 PUSH2 0x263 JUMP JUMPDEST PUSH1 0x40 MLOAD DUP1 SWAP2 SUB SWAP1 RETURN JUMPDEST PUSH2 0xCE PUSH2 0x161 JUMP JUMPDEST PUSH1 0x40 MLOAD PUSH2 0xDB SWAP2 SWAP1 PUSH2 0x248 JUMP JUMPDEST PUSH1 0x40 MLOAD DUP1 SWAP2 SUB SWAP1 RETURN JUMPDEST PUSH2 0xEC PUSH2 0x16A JUMP JUMPDEST STOP JUMPDEST PUSH2 0xF6 PUSH2 0x16C JUMP JUMPDEST PUSH1 0x40 MLOAD PUSH2 0x103 SWAP2 SWAP1 PUSH2 0x248 JUMP JUMPDEST PUSH1 0x40 MLOAD DUP1 SWAP2 SUB SWAP1 RETURN JUMPDEST PUSH2 0x114 PUSH2 0x182 JUMP JUMPDEST PUSH1 0x40 MLOAD PUSH2 0x121 SWAP2 SWAP1 PUSH2 0x22D JUMP JUMPDEST PUSH1 0x40 MLOAD DUP1 SWAP2 SUB SWAP1 RETURN JUMPDEST JUMP JUMPDEST PUSH1 0x1 DUP3 PUSH2 0x139 SWAP2 SWAP1 PUSH2 0x2D4 JUMP JUMPDEST SWAP2 POP PUSH1 0x1 DUP2 PUSH2 0x148 SWAP2 SWAP1 PUSH2 0x2D4 JUMP JUMPDEST SWAP1 POP POP POP JUMP JUMPDEST PUSH1 0x0 DUP1 DUP2 PUSH2 0x15C SWAP2 SWAP1 PUSH2 0x2D4 JUMP JUMPDEST SWAP1 POP SWAP1 JUMP JUMPDEST PUSH1 0x0 PUSH1 0x4 SWAP1 POP SWAP1 JUMP JUMPDEST JUMP JUMPDEST PUSH1 0x0 PUSH1 0x2 PUSH1 0x4 SLOAD PUSH2 0x17D SWAP2 SWAP1 PUSH2 0x27E JUMP JUMPDEST SWAP1 POP SWAP1 JUMP JUMPDEST PUSH1 0x0 DUP1 PUSH1 0x0 SWAP1 SLOAD SWAP1 PUSH2 0x100 EXP SWAP1 DIV PUSH20 0xFFFFFFFFFFFFFFFFFFFFFFFFFFFFFFFFFFFFFFFF AND SWAP1 POP SWAP1 JUMP JUMPDEST PUSH1 0x0 DUP2 CALLDATALOAD SWAP1 POP PUSH2 0x1BA DUP2 PUSH2 0x388 JUMP JUMPDEST SWAP3 SWAP2 POP POP JUMP JUMPDEST PUSH1 0x0 DUP1 PUSH1 0x40 DUP4 DUP6 SUB SLT ISZERO PUSH2 0x1D7 JUMPI PUSH2 0x1D6 PUSH2 0x383 JUMP JUMPDEST JUMPDEST PUSH1 0x0 PUSH2 0x1E5 DUP6 DUP3 DUP7 ADD PUSH2 0x1AB JUMP JUMPDEST SWAP3 POP POP PUSH1 0x20 PUSH2 0x1F6 DUP6 DUP3 DUP7 ADD PUSH2 0x1AB JUMP JUMPDEST SWAP2 POP POP SWAP3 POP SWAP3 SWAP1 POP JUMP JUMPDEST PUSH2 0x209 DUP2 PUSH2 0x30B JUMP JUMPDEST DUP3 MSTORE POP POP JUMP JUMPDEST PUSH2 0x218 DUP2 PUSH2 0x33D JUMP JUMPDEST DUP3 MSTORE POP POP JUMP JUMPDEST PUSH2 0x227 DUP2 PUSH2 0x347 JUMP JUMPDEST DUP3 MSTORE POP POP JUMP JUMPDEST PUSH1 0x0 PUSH1 0x20 DUP3 ADD SWAP1 POP PUSH2 0x242 PUSH1 0x0 DUP4 ADD DUP5 PUSH2 0x200 JUMP JUMPDEST SWAP3 SWAP2 POP POP JUMP JUMPDEST PUSH1 0x0 PUSH1 0x20 DUP3 ADD SWAP1 POP PUSH2 0x25D PUSH1 0x0 DUP4 ADD DUP5 PUSH2 0x20F JUMP JUMPDEST SWAP3 SWAP2 POP POP JUMP JUMPDEST PUSH1 0x0 PUSH1 0x20 DUP3 ADD SWAP1 POP PUSH2 0x278 PUSH1 0x0 DUP4 ADD DUP5 PUSH2 0x21E JUMP JUMPDEST SWAP3 SWAP2 POP POP JUMP JUMPDEST PUSH1 0x0 PUSH2 0x289 DUP3 PUSH2 0x33D JUMP JUMPDEST SWAP2 POP PUSH2 0x294 DUP4 PUSH2 0x33D JUMP JUMPDEST SWAP3 POP DUP3 PUSH32 0xFFFFFFFFFFFFFFFFFFFFFFFFFFFFFFFFFFFFFFFFFFFFFFFFFFFFFFFFFFFFFFFF SUB DUP3 GT ISZERO PUSH2 0x2C9 JUMPI PUSH2 0x2C8 PUSH2 0x354 JUMP JUMPDEST JUMPDEST DUP3 DUP3 ADD SWAP1 POP SWAP3 SWAP2 POP POP JUMP JUMPDEST PUSH1 0x0 PUSH2 0x2DF DUP3 PUSH2 0x347 JUMP JUMPDEST SWAP2 POP PUSH2 0x2EA DUP4 PUSH2 0x347 JUMP JUMPDEST SWAP3 POP DUP3 PUSH1 0xFF SUB DUP3 GT ISZERO PUSH2 0x300 JUMPI PUSH2 0x2FF PUSH2 0x354 JUMP JUMPDEST JUMPDEST DUP3 DUP3 ADD SWAP1 POP SWAP3 SWAP2 POP POP JUMP JUMPDEST PUSH1 0x0 PUSH2 0x316 DUP3 PUSH2 0x31D JUMP JUMPDEST SWAP1 POP SWAP2 SWAP1 POP JUMP JUMPDEST PUSH1 0x0 PUSH20 0xFFFFFFFFFFFFFFFFFFFFFFFFFFFFFFFFFFFFFFFF DUP3 AND SWAP1 POP SWAP2 SWAP1 POP JUMP JUMPDEST PUSH1 0x0 DUP2 SWAP1 POP SWAP2 SWAP1 POP JUMP JUMPDEST PUSH1 0x0 PUSH1 0xFF DUP3 AND SWAP1 POP SWAP2 SWAP1 POP JUMP JUMPDEST PUSH32 0x4E487B7100000000000000000000000000000000000000000000000000000000 PUSH1 0x0 MSTORE PUSH1 0x11 PUSH1 0x4 MSTORE PUSH1 0x24 PUSH1 0x0 REVERT JUMPDEST PUSH1 0x0 DUP1 REVERT JUMPDEST PUSH2 0x391 DUP2 PUSH2 0x347 JUMP JUMPDEST DUP2 EQ PUSH2 0x39C JUMPI PUSH1 0x0 DUP1 REVERT JUMPDEST POP JUMP INVALID LOG2 PUSH5 0x6970667358 0x22 SLT KECCAK256 0xAE 0xC7 0xD4 0x24 MUL SHL 0xB2 0xB1 0xE8 PUSH4 0xCE4C5896 CHAINID 0xB4 0xD3 PUSH32 0x7159F9DFF8252F8B1342E72A772D64736F6C6343000807003300000000000000 "
				},
				"gasEstimates": {
					"creation": {
						"codeDepositCost": "196200",
						"executionCost": "90822",
						"totalCost": "287022"
					},
					"external": {
						"getData()": "infinite",
						"getData2()": "2588",
						"incrementar()": "infinite",
						"operacion1()": "166",
						"operacion2()": "145",
						"setData(uint8,uint8)": "infinite",
						"suma()": "337"
					},
					"internal": {
						"operacion3()": "infinite",
						"operacion4()": "infinite"
					}
				},
				"methodIdentifiers": {
					"getData()": "3bc5de30",
					"getData2()": "a898fd70",
					"incrementar()": "91607a99",
					"operacion1()": "8846636c",
					"operacion2()": "191dbb34",
					"setData(uint8,uint8)": "1e3d73a1",
					"suma()": "7e7d8ec6"
				}
			},
			"storageLayout": {
				"storage": [
					{
						"astId": 35,
						"contract": "contracts/Funciones.sol:Funciones",
						"label": "sender",
						"offset": 0,
						"slot": "0",
						"type": "t_address"
					},
					{
						"astId": 46,
						"contract": "contracts/Funciones.sol:Funciones",
						"label": "numero1",
						"offset": 0,
						"slot": "1",
						"type": "t_int256"
					},
					{
						"astId": 49,
						"contract": "contracts/Funciones.sol:Funciones",
						"label": "numero2",
						"offset": 0,
						"slot": "2",
						"type": "t_int256"
					},
					{
						"astId": 51,
						"contract": "contracts/Funciones.sol:Funciones",
						"label": "resultado",
						"offset": 0,
						"slot": "3",
						"type": "t_int256"
					},
					{
						"astId": 97,
						"contract": "contracts/Funciones.sol:Funciones",
						"label": "x",
						"offset": 0,
						"slot": "4",
						"type": "t_uint256"
					}
				],
				"types": {
					"t_address": {
						"encoding": "inplace",
						"label": "address",
						"numberOfBytes": "20"
					},
					"t_int256": {
						"encoding": "inplace",
						"label": "int256",
						"numberOfBytes": "32"
					},
					"t_uint256": {
						"encoding": "inplace",
						"label": "uint256",
						"numberOfBytes": "32"
					}
				}
			},
			"userdoc": {
				"kind": "user",
				"methods": {},
				"version": 1
			}
		}
	}
}