{
	"contracts/Ejercicio1CuentaAhorro.sol": {
		"Ejercicio1CuentaAhorro": {
			"abi": [
				{
					"inputs": [
						{
							"internalType": "string",
							"name": "nombre",
							"type": "string"
						}
					],
					"name": "addCuentaAhorro",
					"outputs": [],
					"stateMutability": "nonpayable",
					"type": "function"
				},
				{
					"inputs": [
						{
							"internalType": "int256",
							"name": "saldoParaIngresar",
							"type": "int256"
						}
					],
					"name": "ingresarSaldo",
					"outputs": [],
					"stateMutability": "nonpayable",
					"type": "function"
				},
				{
					"inputs": [
						{
							"internalType": "address",
							"name": "",
							"type": "address"
						}
					],
					"name": "mappingCuentaAhorro",
					"outputs": [
						{
							"internalType": "int256",
							"name": "saldo",
							"type": "int256"
						},
						{
							"internalType": "string",
							"name": "addressCuenta",
							"type": "string"
						},
						{
							"internalType": "string",
							"name": "nombre",
							"type": "string"
						},
						{
							"internalType": "int256",
							"name": "edad",
							"type": "int256"
						},
						{
							"internalType": "string",
							"name": "colorFavorito",
							"type": "string"
						}
					],
					"stateMutability": "view",
					"type": "function"
				},
				{
					"inputs": [
						{
							"internalType": "int256",
							"name": "saldoParaRetirar",
							"type": "int256"
						}
					],
					"name": "retirarSaldo",
					"outputs": [],
					"stateMutability": "nonpayable",
					"type": "function"
				}
			],
			"devdoc": {
				"kind": "dev",
				"methods": {},
				"version": 1
			},
			"evm": {
				"assembly": "    /* \"contracts/Ejercicio1CuentaAhorro.sol\":2112:3631  contract Ejercicio1CuentaAhorro {\r... */\n  mstore(0x40, 0x80)\n  callvalue\n  dup1\n  iszero\n  tag_1\n  jumpi\n  0x00\n  dup1\n  revert\ntag_1:\n  pop\n  dataSize(sub_0)\n  dup1\n  dataOffset(sub_0)\n  0x00\n  codecopy\n  0x00\n  return\nstop\n\nsub_0: assembly {\n        /* \"contracts/Ejercicio1CuentaAhorro.sol\":2112:3631  contract Ejercicio1CuentaAhorro {\r... */\n      mstore(0x40, 0x80)\n      callvalue\n      dup1\n      iszero\n      tag_1\n      jumpi\n      0x00\n      dup1\n      revert\n    tag_1:\n      pop\n      jumpi(tag_2, lt(calldatasize, 0x04))\n      shr(0xe0, calldataload(0x00))\n      dup1\n      0x63e4cdcc\n      eq\n      tag_3\n      jumpi\n      dup1\n      0x93ba1e60\n      eq\n      tag_4\n      jumpi\n      dup1\n      0xc28a41ec\n      eq\n      tag_5\n      jumpi\n      dup1\n      0xe5c66d67\n      eq\n      tag_6\n      jumpi\n    tag_2:\n      0x00\n      dup1\n      revert\n        /* \"contracts/Ejercicio1CuentaAhorro.sol\":2434:2494  mapping (address => CuentaAhorro) public mappingCuentaAhorro */\n    tag_3:\n      tag_7\n      0x04\n      dup1\n      calldatasize\n      sub\n      dup2\n      add\n      swap1\n      tag_8\n      swap2\n      swap1\n      tag_9\n      jump\t// in\n    tag_8:\n      tag_10\n      jump\t// in\n    tag_7:\n      mload(0x40)\n      tag_11\n      swap6\n      swap5\n      swap4\n      swap3\n      swap2\n      swap1\n      tag_12\n      jump\t// in\n    tag_11:\n      mload(0x40)\n      dup1\n      swap2\n      sub\n      swap1\n      return\n        /* \"contracts/Ejercicio1CuentaAhorro.sol\":2931:3145  function ingresarSaldo (int saldoParaIngresar) public {\r... */\n    tag_4:\n      tag_13\n      0x04\n      dup1\n      calldatasize\n      sub\n      dup2\n      add\n      swap1\n      tag_14\n      swap2\n      swap1\n      tag_15\n      jump\t// in\n    tag_14:\n      tag_16\n      jump\t// in\n    tag_13:\n      stop\n        /* \"contracts/Ejercicio1CuentaAhorro.sol\":3153:3499  function retirarSaldo (int saldoParaRetirar) public {\r... */\n    tag_5:\n      tag_17\n      0x04\n      dup1\n      calldatasize\n      sub\n      dup2\n      add\n      swap1\n      tag_18\n      swap2\n      swap1\n      tag_15\n      jump\t// in\n    tag_18:\n      tag_19\n      jump\t// in\n    tag_17:\n      stop\n        /* \"contracts/Ejercicio1CuentaAhorro.sol\":3507:3628  function addCuentaAhorro (string memory nombre) public {\r... */\n    tag_6:\n      tag_20\n      0x04\n      dup1\n      calldatasize\n      sub\n      dup2\n      add\n      swap1\n      tag_21\n      swap2\n      swap1\n      tag_22\n      jump\t// in\n    tag_21:\n      tag_23\n      jump\t// in\n    tag_20:\n      stop\n        /* \"contracts/Ejercicio1CuentaAhorro.sol\":2434:2494  mapping (address => CuentaAhorro) public mappingCuentaAhorro */\n    tag_10:\n      mstore(0x20, 0x00)\n      dup1\n      0x00\n      mstore\n      keccak256(0x00, 0x40)\n      0x00\n      swap2\n      pop\n      swap1\n      pop\n      dup1\n      0x00\n      add\n      sload\n      swap1\n      dup1\n      0x01\n      add\n      dup1\n      sload\n      tag_24\n      swap1\n      tag_25\n      jump\t// in\n    tag_24:\n      dup1\n      0x1f\n      add\n      0x20\n      dup1\n      swap2\n      div\n      mul\n      0x20\n      add\n      mload(0x40)\n      swap1\n      dup2\n      add\n      0x40\n      mstore\n      dup1\n      swap3\n      swap2\n      swap1\n      dup2\n      dup2\n      mstore\n      0x20\n      add\n      dup3\n      dup1\n      sload\n      tag_26\n      swap1\n      tag_25\n      jump\t// in\n    tag_26:\n      dup1\n      iszero\n      tag_27\n      jumpi\n      dup1\n      0x1f\n      lt\n      tag_28\n      jumpi\n      0x0100\n      dup1\n      dup4\n      sload\n      div\n      mul\n      dup4\n      mstore\n      swap2\n      0x20\n      add\n      swap2\n      jump(tag_27)\n    tag_28:\n      dup3\n      add\n      swap2\n      swap1\n      0x00\n      mstore\n      keccak256(0x00, 0x20)\n      swap1\n    tag_29:\n      dup2\n      sload\n      dup2\n      mstore\n      swap1\n      0x01\n      add\n      swap1\n      0x20\n      add\n      dup1\n      dup4\n      gt\n      tag_29\n      jumpi\n      dup3\n      swap1\n      sub\n      0x1f\n      and\n      dup3\n      add\n      swap2\n    tag_27:\n      pop\n      pop\n      pop\n      pop\n      pop\n      swap1\n      dup1\n      0x02\n      add\n      dup1\n      sload\n      tag_30\n      swap1\n      tag_25\n      jump\t// in\n    tag_30:\n      dup1\n      0x1f\n      add\n      0x20\n      dup1\n      swap2\n      div\n      mul\n      0x20\n      add\n      mload(0x40)\n      swap1\n      dup2\n      add\n      0x40\n      mstore\n      dup1\n      swap3\n      swap2\n      swap1\n      dup2\n      dup2\n      mstore\n      0x20\n      add\n      dup3\n      dup1\n      sload\n      tag_31\n      swap1\n      tag_25\n      jump\t// in\n    tag_31:\n      dup1\n      iszero\n      tag_32\n      jumpi\n      dup1\n      0x1f\n      lt\n      tag_33\n      jumpi\n      0x0100\n      dup1\n      dup4\n      sload\n      div\n      mul\n      dup4\n      mstore\n      swap2\n      0x20\n      add\n      swap2\n      jump(tag_32)\n    tag_33:\n      dup3\n      add\n      swap2\n      swap1\n      0x00\n      mstore\n      keccak256(0x00, 0x20)\n      swap1\n    tag_34:\n      dup2\n      sload\n      dup2\n      mstore\n      swap1\n      0x01\n      add\n      swap1\n      0x20\n      add\n      dup1\n      dup4\n      gt\n      tag_34\n      jumpi\n      dup3\n      swap1\n      sub\n      0x1f\n      and\n      dup3\n      add\n      swap2\n    tag_32:\n      pop\n      pop\n      pop\n      pop\n      pop\n      swap1\n      dup1\n      0x03\n      add\n      sload\n      swap1\n      dup1\n      0x04\n      add\n      dup1\n      sload\n      tag_35\n      swap1\n      tag_25\n      jump\t// in\n    tag_35:\n      dup1\n      0x1f\n      add\n      0x20\n      dup1\n      swap2\n      div\n      mul\n      0x20\n      add\n      mload(0x40)\n      swap1\n      dup2\n      add\n      0x40\n      mstore\n      dup1\n      swap3\n      swap2\n      swap1\n      dup2\n      dup2\n      mstore\n      0x20\n      add\n      dup3\n      dup1\n      sload\n      tag_36\n      swap1\n      tag_25\n      jump\t// in\n    tag_36:\n      dup1\n      iszero\n      tag_37\n      jumpi\n      dup1\n      0x1f\n      lt\n      tag_38\n      jumpi\n      0x0100\n      dup1\n      dup4\n      sload\n      div\n      mul\n      dup4\n      mstore\n      swap2\n      0x20\n      add\n      swap2\n      jump(tag_37)\n    tag_38:\n      dup3\n      add\n      swap2\n      swap1\n      0x00\n      mstore\n      keccak256(0x00, 0x20)\n      swap1\n    tag_39:\n      dup2\n      sload\n      dup2\n      mstore\n      swap1\n      0x01\n      add\n      swap1\n      0x20\n      add\n      dup1\n      dup4\n      gt\n      tag_39\n      jumpi\n      dup3\n      swap1\n      sub\n      0x1f\n      and\n      dup3\n      add\n      swap2\n    tag_37:\n      pop\n      pop\n      pop\n      pop\n      pop\n      swap1\n      pop\n      dup6\n      jump\t// out\n        /* \"contracts/Ejercicio1CuentaAhorro.sol\":2931:3145  function ingresarSaldo (int saldoParaIngresar) public {\r... */\n    tag_16:\n        /* \"contracts/Ejercicio1CuentaAhorro.sol\":3024:3025  0 */\n      0x00\n        /* \"contracts/Ejercicio1CuentaAhorro.sol\":3004:3021  saldoParaIngresar */\n      dup2\n        /* \"contracts/Ejercicio1CuentaAhorro.sol\":3004:3025  saldoParaIngresar > 0 */\n      sgt\n        /* \"contracts/Ejercicio1CuentaAhorro.sol\":2996:3068  require(saldoParaIngresar > 0, \"saldo para ingresar debe ser mayor a 0\") */\n      tag_41\n      jumpi\n      mload(0x40)\n      0x08c379a000000000000000000000000000000000000000000000000000000000\n      dup2\n      mstore\n      0x04\n      add\n      tag_42\n      swap1\n      tag_43\n      jump\t// in\n    tag_42:\n      mload(0x40)\n      dup1\n      swap2\n      sub\n      swap1\n      revert\n    tag_41:\n        /* \"contracts/Ejercicio1CuentaAhorro.sol\":3120:3137  saldoParaIngresar */\n      dup1\n        /* \"contracts/Ejercicio1CuentaAhorro.sol\":3079:3098  mappingCuentaAhorro */\n      0x00\n        /* \"contracts/Ejercicio1CuentaAhorro.sol\":3079:3110  mappingCuentaAhorro[msg.sender] */\n      dup1\n        /* \"contracts/Ejercicio1CuentaAhorro.sol\":3099:3109  msg.sender */\n      caller\n        /* \"contracts/Ejercicio1CuentaAhorro.sol\":3079:3110  mappingCuentaAhorro[msg.sender] */\n      0xffffffffffffffffffffffffffffffffffffffff\n      and\n      0xffffffffffffffffffffffffffffffffffffffff\n      and\n      dup2\n      mstore\n      0x20\n      add\n      swap1\n      dup2\n      mstore\n      0x20\n      add\n      0x00\n      keccak256\n        /* \"contracts/Ejercicio1CuentaAhorro.sol\":3079:3116  mappingCuentaAhorro[msg.sender].saldo */\n      0x00\n      add\n      0x00\n        /* \"contracts/Ejercicio1CuentaAhorro.sol\":3079:3137  mappingCuentaAhorro[msg.sender].saldo += saldoParaIngresar */\n      dup3\n      dup3\n      sload\n      tag_44\n      swap2\n      swap1\n      tag_45\n      jump\t// in\n    tag_44:\n      swap3\n      pop\n      pop\n      dup2\n      swap1\n      sstore\n      pop\n        /* \"contracts/Ejercicio1CuentaAhorro.sol\":2931:3145  function ingresarSaldo (int saldoParaIngresar) public {\r... */\n      pop\n      jump\t// out\n        /* \"contracts/Ejercicio1CuentaAhorro.sol\":3153:3499  function retirarSaldo (int saldoParaRetirar) public {\r... */\n    tag_19:\n        /* \"contracts/Ejercicio1CuentaAhorro.sol\":3243:3244  0 */\n      0x00\n        /* \"contracts/Ejercicio1CuentaAhorro.sol\":3224:3240  saldoParaRetirar */\n      dup2\n        /* \"contracts/Ejercicio1CuentaAhorro.sol\":3224:3244  saldoParaRetirar > 0 */\n      sgt\n        /* \"contracts/Ejercicio1CuentaAhorro.sol\":3216:3286  require(saldoParaRetirar > 0, \"saldo para retirar debe ser mayor a 0\") */\n      tag_47\n      jumpi\n      mload(0x40)\n      0x08c379a000000000000000000000000000000000000000000000000000000000\n      dup2\n      mstore\n      0x04\n      add\n      tag_48\n      swap1\n      tag_49\n      jump\t// in\n    tag_48:\n      mload(0x40)\n      dup1\n      swap2\n      sub\n      swap1\n      revert\n    tag_47:\n        /* \"contracts/Ejercicio1CuentaAhorro.sol\":3346:3362  saldoParaRetirar */\n      dup1\n        /* \"contracts/Ejercicio1CuentaAhorro.sol\":3305:3324  mappingCuentaAhorro */\n      0x00\n        /* \"contracts/Ejercicio1CuentaAhorro.sol\":3305:3336  mappingCuentaAhorro[msg.sender] */\n      dup1\n        /* \"contracts/Ejercicio1CuentaAhorro.sol\":3325:3335  msg.sender */\n      caller\n        /* \"contracts/Ejercicio1CuentaAhorro.sol\":3305:3336  mappingCuentaAhorro[msg.sender] */\n      0xffffffffffffffffffffffffffffffffffffffff\n      and\n      0xffffffffffffffffffffffffffffffffffffffff\n      and\n      dup2\n      mstore\n      0x20\n      add\n      swap1\n      dup2\n      mstore\n      0x20\n      add\n      0x00\n      keccak256\n        /* \"contracts/Ejercicio1CuentaAhorro.sol\":3305:3342  mappingCuentaAhorro[msg.sender].saldo */\n      0x00\n      add\n      sload\n        /* \"contracts/Ejercicio1CuentaAhorro.sol\":3305:3362  mappingCuentaAhorro[msg.sender].saldo >= saldoParaRetirar */\n      slt\n      iszero\n        /* \"contracts/Ejercicio1CuentaAhorro.sol\":3297:3423  require(mappingCuentaAhorro[msg.sender].saldo >= saldoParaRetirar , \"saldo para retirar no debe ser mayor a su saldo actuarl\") */\n      tag_50\n      jumpi\n      mload(0x40)\n      0x08c379a000000000000000000000000000000000000000000000000000000000\n      dup2\n      mstore\n      0x04\n      add\n      tag_51\n      swap1\n      tag_52\n      jump\t// in\n    tag_51:\n      mload(0x40)\n      dup1\n      swap2\n      sub\n      swap1\n      revert\n    tag_50:\n        /* \"contracts/Ejercicio1CuentaAhorro.sol\":3475:3491  saldoParaRetirar */\n      dup1\n        /* \"contracts/Ejercicio1CuentaAhorro.sol\":3434:3453  mappingCuentaAhorro */\n      0x00\n        /* \"contracts/Ejercicio1CuentaAhorro.sol\":3434:3465  mappingCuentaAhorro[msg.sender] */\n      dup1\n        /* \"contracts/Ejercicio1CuentaAhorro.sol\":3454:3464  msg.sender */\n      caller\n        /* \"contracts/Ejercicio1CuentaAhorro.sol\":3434:3465  mappingCuentaAhorro[msg.sender] */\n      0xffffffffffffffffffffffffffffffffffffffff\n      and\n      0xffffffffffffffffffffffffffffffffffffffff\n      and\n      dup2\n      mstore\n      0x20\n      add\n      swap1\n      dup2\n      mstore\n      0x20\n      add\n      0x00\n      keccak256\n        /* \"contracts/Ejercicio1CuentaAhorro.sol\":3434:3471  mappingCuentaAhorro[msg.sender].saldo */\n      0x00\n      add\n      0x00\n        /* \"contracts/Ejercicio1CuentaAhorro.sol\":3434:3491  mappingCuentaAhorro[msg.sender].saldo -= saldoParaRetirar */\n      dup3\n      dup3\n      sload\n      tag_53\n      swap2\n      swap1\n      tag_54\n      jump\t// in\n    tag_53:\n      swap3\n      pop\n      pop\n      dup2\n      swap1\n      sstore\n      pop\n        /* \"contracts/Ejercicio1CuentaAhorro.sol\":3153:3499  function retirarSaldo (int saldoParaRetirar) public {\r... */\n      pop\n      jump\t// out\n        /* \"contracts/Ejercicio1CuentaAhorro.sol\":3507:3628  function addCuentaAhorro (string memory nombre) public {\r... */\n    tag_23:\n        /* \"contracts/Ejercicio1CuentaAhorro.sol\":3614:3620  nombre */\n      dup1\n        /* \"contracts/Ejercicio1CuentaAhorro.sol\":3573:3592  mappingCuentaAhorro */\n      0x00\n        /* \"contracts/Ejercicio1CuentaAhorro.sol\":3573:3604  mappingCuentaAhorro[msg.sender] */\n      dup1\n        /* \"contracts/Ejercicio1CuentaAhorro.sol\":3593:3603  msg.sender */\n      caller\n        /* \"contracts/Ejercicio1CuentaAhorro.sol\":3573:3604  mappingCuentaAhorro[msg.sender] */\n      0xffffffffffffffffffffffffffffffffffffffff\n      and\n      0xffffffffffffffffffffffffffffffffffffffff\n      and\n      dup2\n      mstore\n      0x20\n      add\n      swap1\n      dup2\n      mstore\n      0x20\n      add\n      0x00\n      keccak256\n        /* \"contracts/Ejercicio1CuentaAhorro.sol\":3573:3611  mappingCuentaAhorro[msg.sender].nombre */\n      0x02\n      add\n        /* \"contracts/Ejercicio1CuentaAhorro.sol\":3573:3620  mappingCuentaAhorro[msg.sender].nombre = nombre */\n      swap1\n      dup1\n      mload\n      swap1\n      0x20\n      add\n      swap1\n      tag_56\n      swap3\n      swap2\n      swap1\n      tag_57\n      jump\t// in\n    tag_56:\n      pop\n        /* \"contracts/Ejercicio1CuentaAhorro.sol\":3507:3628  function addCuentaAhorro (string memory nombre) public {\r... */\n      pop\n      jump\t// out\n    tag_57:\n      dup3\n      dup1\n      sload\n      tag_58\n      swap1\n      tag_25\n      jump\t// in\n    tag_58:\n      swap1\n      0x00\n      mstore\n      keccak256(0x00, 0x20)\n      swap1\n      0x1f\n      add\n      0x20\n      swap1\n      div\n      dup2\n      add\n      swap3\n      dup3\n      tag_60\n      jumpi\n      0x00\n      dup6\n      sstore\n      jump(tag_59)\n    tag_60:\n      dup3\n      0x1f\n      lt\n      tag_61\n      jumpi\n      dup1\n      mload\n      not(0xff)\n      and\n      dup4\n      dup1\n      add\n      or\n      dup6\n      sstore\n      jump(tag_59)\n    tag_61:\n      dup3\n      dup1\n      add\n      0x01\n      add\n      dup6\n      sstore\n      dup3\n      iszero\n      tag_59\n      jumpi\n      swap2\n      dup3\n      add\n    tag_62:\n      dup3\n      dup2\n      gt\n      iszero\n      tag_63\n      jumpi\n      dup3\n      mload\n      dup3\n      sstore\n      swap2\n      0x20\n      add\n      swap2\n      swap1\n      0x01\n      add\n      swap1\n      jump(tag_62)\n    tag_63:\n    tag_59:\n      pop\n      swap1\n      pop\n      tag_64\n      swap2\n      swap1\n      tag_65\n      jump\t// in\n    tag_64:\n      pop\n      swap1\n      jump\t// out\n    tag_65:\n    tag_66:\n      dup1\n      dup3\n      gt\n      iszero\n      tag_67\n      jumpi\n      0x00\n      dup2\n      0x00\n      swap1\n      sstore\n      pop\n      0x01\n      add\n      jump(tag_66)\n    tag_67:\n      pop\n      swap1\n      jump\t// out\n        /* \"#utility.yul\":7:419   */\n    tag_69:\n        /* \"#utility.yul\":85:90   */\n      0x00\n        /* \"#utility.yul\":110:176   */\n      tag_71\n        /* \"#utility.yul\":126:175   */\n      tag_72\n        /* \"#utility.yul\":168:174   */\n      dup5\n        /* \"#utility.yul\":126:175   */\n      tag_73\n      jump\t// in\n    tag_72:\n        /* \"#utility.yul\":110:176   */\n      tag_74\n      jump\t// in\n    tag_71:\n        /* \"#utility.yul\":101:176   */\n      swap1\n      pop\n        /* \"#utility.yul\":199:205   */\n      dup3\n        /* \"#utility.yul\":192:197   */\n      dup2\n        /* \"#utility.yul\":185:206   */\n      mstore\n        /* \"#utility.yul\":237:241   */\n      0x20\n        /* \"#utility.yul\":230:235   */\n      dup2\n        /* \"#utility.yul\":226:242   */\n      add\n        /* \"#utility.yul\":275:278   */\n      dup5\n        /* \"#utility.yul\":266:272   */\n      dup5\n        /* \"#utility.yul\":261:264   */\n      dup5\n        /* \"#utility.yul\":257:273   */\n      add\n        /* \"#utility.yul\":254:279   */\n      gt\n        /* \"#utility.yul\":251:363   */\n      iszero\n      tag_75\n      jumpi\n        /* \"#utility.yul\":282:361   */\n      tag_76\n      tag_77\n      jump\t// in\n    tag_76:\n        /* \"#utility.yul\":251:363   */\n    tag_75:\n        /* \"#utility.yul\":372:413   */\n      tag_78\n        /* \"#utility.yul\":406:412   */\n      dup5\n        /* \"#utility.yul\":401:404   */\n      dup3\n        /* \"#utility.yul\":396:399   */\n      dup6\n        /* \"#utility.yul\":372:413   */\n      tag_79\n      jump\t// in\n    tag_78:\n        /* \"#utility.yul\":91:419   */\n      pop\n        /* \"#utility.yul\":7:419   */\n      swap4\n      swap3\n      pop\n      pop\n      pop\n      jump\t// out\n        /* \"#utility.yul\":425:564   */\n    tag_80:\n        /* \"#utility.yul\":471:476   */\n      0x00\n        /* \"#utility.yul\":509:515   */\n      dup2\n        /* \"#utility.yul\":496:516   */\n      calldataload\n        /* \"#utility.yul\":487:516   */\n      swap1\n      pop\n        /* \"#utility.yul\":525:558   */\n      tag_82\n        /* \"#utility.yul\":552:557   */\n      dup2\n        /* \"#utility.yul\":525:558   */\n      tag_83\n      jump\t// in\n    tag_82:\n        /* \"#utility.yul\":425:564   */\n      swap3\n      swap2\n      pop\n      pop\n      jump\t// out\n        /* \"#utility.yul\":570:707   */\n    tag_84:\n        /* \"#utility.yul\":615:620   */\n      0x00\n        /* \"#utility.yul\":653:659   */\n      dup2\n        /* \"#utility.yul\":640:660   */\n      calldataload\n        /* \"#utility.yul\":631:660   */\n      swap1\n      pop\n        /* \"#utility.yul\":669:701   */\n      tag_86\n        /* \"#utility.yul\":695:700   */\n      dup2\n        /* \"#utility.yul\":669:701   */\n      tag_87\n      jump\t// in\n    tag_86:\n        /* \"#utility.yul\":570:707   */\n      swap3\n      swap2\n      pop\n      pop\n      jump\t// out\n        /* \"#utility.yul\":727:1067   */\n    tag_88:\n        /* \"#utility.yul\":783:788   */\n      0x00\n        /* \"#utility.yul\":832:835   */\n      dup3\n        /* \"#utility.yul\":825:829   */\n      0x1f\n        /* \"#utility.yul\":817:823   */\n      dup4\n        /* \"#utility.yul\":813:830   */\n      add\n        /* \"#utility.yul\":809:836   */\n      slt\n        /* \"#utility.yul\":799:921   */\n      tag_90\n      jumpi\n        /* \"#utility.yul\":840:919   */\n      tag_91\n      tag_92\n      jump\t// in\n    tag_91:\n        /* \"#utility.yul\":799:921   */\n    tag_90:\n        /* \"#utility.yul\":957:963   */\n      dup2\n        /* \"#utility.yul\":944:964   */\n      calldataload\n        /* \"#utility.yul\":982:1061   */\n      tag_93\n        /* \"#utility.yul\":1057:1060   */\n      dup5\n        /* \"#utility.yul\":1049:1055   */\n      dup3\n        /* \"#utility.yul\":1042:1046   */\n      0x20\n        /* \"#utility.yul\":1034:1040   */\n      dup7\n        /* \"#utility.yul\":1030:1047   */\n      add\n        /* \"#utility.yul\":982:1061   */\n      tag_69\n      jump\t// in\n    tag_93:\n        /* \"#utility.yul\":973:1061   */\n      swap2\n      pop\n        /* \"#utility.yul\":789:1067   */\n      pop\n        /* \"#utility.yul\":727:1067   */\n      swap3\n      swap2\n      pop\n      pop\n      jump\t// out\n        /* \"#utility.yul\":1073:1402   */\n    tag_9:\n        /* \"#utility.yul\":1132:1138   */\n      0x00\n        /* \"#utility.yul\":1181:1183   */\n      0x20\n        /* \"#utility.yul\":1169:1178   */\n      dup3\n        /* \"#utility.yul\":1160:1167   */\n      dup5\n        /* \"#utility.yul\":1156:1179   */\n      sub\n        /* \"#utility.yul\":1152:1184   */\n      slt\n        /* \"#utility.yul\":1149:1268   */\n      iszero\n      tag_95\n      jumpi\n        /* \"#utility.yul\":1187:1266   */\n      tag_96\n      tag_97\n      jump\t// in\n    tag_96:\n        /* \"#utility.yul\":1149:1268   */\n    tag_95:\n        /* \"#utility.yul\":1307:1308   */\n      0x00\n        /* \"#utility.yul\":1332:1385   */\n      tag_98\n        /* \"#utility.yul\":1377:1384   */\n      dup5\n        /* \"#utility.yul\":1368:1374   */\n      dup3\n        /* \"#utility.yul\":1357:1366   */\n      dup6\n        /* \"#utility.yul\":1353:1375   */\n      add\n        /* \"#utility.yul\":1332:1385   */\n      tag_80\n      jump\t// in\n    tag_98:\n        /* \"#utility.yul\":1322:1385   */\n      swap2\n      pop\n        /* \"#utility.yul\":1278:1395   */\n      pop\n        /* \"#utility.yul\":1073:1402   */\n      swap3\n      swap2\n      pop\n      pop\n      jump\t// out\n        /* \"#utility.yul\":1408:1735   */\n    tag_15:\n        /* \"#utility.yul\":1466:1472   */\n      0x00\n        /* \"#utility.yul\":1515:1517   */\n      0x20\n        /* \"#utility.yul\":1503:1512   */\n      dup3\n        /* \"#utility.yul\":1494:1501   */\n      dup5\n        /* \"#utility.yul\":1490:1513   */\n      sub\n        /* \"#utility.yul\":1486:1518   */\n      slt\n        /* \"#utility.yul\":1483:1602   */\n      iszero\n      tag_100\n      jumpi\n        /* \"#utility.yul\":1521:1600   */\n      tag_101\n      tag_97\n      jump\t// in\n    tag_101:\n        /* \"#utility.yul\":1483:1602   */\n    tag_100:\n        /* \"#utility.yul\":1641:1642   */\n      0x00\n        /* \"#utility.yul\":1666:1718   */\n      tag_102\n        /* \"#utility.yul\":1710:1717   */\n      dup5\n        /* \"#utility.yul\":1701:1707   */\n      dup3\n        /* \"#utility.yul\":1690:1699   */\n      dup6\n        /* \"#utility.yul\":1686:1708   */\n      add\n        /* \"#utility.yul\":1666:1718   */\n      tag_84\n      jump\t// in\n    tag_102:\n        /* \"#utility.yul\":1656:1718   */\n      swap2\n      pop\n        /* \"#utility.yul\":1612:1728   */\n      pop\n        /* \"#utility.yul\":1408:1735   */\n      swap3\n      swap2\n      pop\n      pop\n      jump\t// out\n        /* \"#utility.yul\":1741:2250   */\n    tag_22:\n        /* \"#utility.yul\":1810:1816   */\n      0x00\n        /* \"#utility.yul\":1859:1861   */\n      0x20\n        /* \"#utility.yul\":1847:1856   */\n      dup3\n        /* \"#utility.yul\":1838:1845   */\n      dup5\n        /* \"#utility.yul\":1834:1857   */\n      sub\n        /* \"#utility.yul\":1830:1862   */\n      slt\n        /* \"#utility.yul\":1827:1946   */\n      iszero\n      tag_104\n      jumpi\n        /* \"#utility.yul\":1865:1944   */\n      tag_105\n      tag_97\n      jump\t// in\n    tag_105:\n        /* \"#utility.yul\":1827:1946   */\n    tag_104:\n        /* \"#utility.yul\":2013:2014   */\n      0x00\n        /* \"#utility.yul\":2002:2011   */\n      dup3\n        /* \"#utility.yul\":1998:2015   */\n      add\n        /* \"#utility.yul\":1985:2016   */\n      calldataload\n        /* \"#utility.yul\":2043:2061   */\n      0xffffffffffffffff\n        /* \"#utility.yul\":2035:2041   */\n      dup2\n        /* \"#utility.yul\":2032:2062   */\n      gt\n        /* \"#utility.yul\":2029:2146   */\n      iszero\n      tag_106\n      jumpi\n        /* \"#utility.yul\":2065:2144   */\n      tag_107\n      tag_108\n      jump\t// in\n    tag_107:\n        /* \"#utility.yul\":2029:2146   */\n    tag_106:\n        /* \"#utility.yul\":2170:2233   */\n      tag_109\n        /* \"#utility.yul\":2225:2232   */\n      dup5\n        /* \"#utility.yul\":2216:2222   */\n      dup3\n        /* \"#utility.yul\":2205:2214   */\n      dup6\n        /* \"#utility.yul\":2201:2223   */\n      add\n        /* \"#utility.yul\":2170:2233   */\n      tag_88\n      jump\t// in\n    tag_109:\n        /* \"#utility.yul\":2160:2233   */\n      swap2\n      pop\n        /* \"#utility.yul\":1956:2243   */\n      pop\n        /* \"#utility.yul\":1741:2250   */\n      swap3\n      swap2\n      pop\n      pop\n      jump\t// out\n        /* \"#utility.yul\":2256:2371   */\n    tag_110:\n        /* \"#utility.yul\":2341:2364   */\n      tag_112\n        /* \"#utility.yul\":2358:2363   */\n      dup2\n        /* \"#utility.yul\":2341:2364   */\n      tag_113\n      jump\t// in\n    tag_112:\n        /* \"#utility.yul\":2336:2339   */\n      dup3\n        /* \"#utility.yul\":2329:2365   */\n      mstore\n        /* \"#utility.yul\":2256:2371   */\n      pop\n      pop\n      jump\t// out\n        /* \"#utility.yul\":2377:2741   */\n    tag_114:\n        /* \"#utility.yul\":2465:2468   */\n      0x00\n        /* \"#utility.yul\":2493:2532   */\n      tag_116\n        /* \"#utility.yul\":2526:2531   */\n      dup3\n        /* \"#utility.yul\":2493:2532   */\n      tag_117\n      jump\t// in\n    tag_116:\n        /* \"#utility.yul\":2548:2619   */\n      tag_118\n        /* \"#utility.yul\":2612:2618   */\n      dup2\n        /* \"#utility.yul\":2607:2610   */\n      dup6\n        /* \"#utility.yul\":2548:2619   */\n      tag_119\n      jump\t// in\n    tag_118:\n        /* \"#utility.yul\":2541:2619   */\n      swap4\n      pop\n        /* \"#utility.yul\":2628:2680   */\n      tag_120\n        /* \"#utility.yul\":2673:2679   */\n      dup2\n        /* \"#utility.yul\":2668:2671   */\n      dup6\n        /* \"#utility.yul\":2661:2665   */\n      0x20\n        /* \"#utility.yul\":2654:2659   */\n      dup7\n        /* \"#utility.yul\":2650:2666   */\n      add\n        /* \"#utility.yul\":2628:2680   */\n      tag_121\n      jump\t// in\n    tag_120:\n        /* \"#utility.yul\":2705:2734   */\n      tag_122\n        /* \"#utility.yul\":2727:2733   */\n      dup2\n        /* \"#utility.yul\":2705:2734   */\n      tag_123\n      jump\t// in\n    tag_122:\n        /* \"#utility.yul\":2700:2703   */\n      dup5\n        /* \"#utility.yul\":2696:2735   */\n      add\n        /* \"#utility.yul\":2689:2735   */\n      swap2\n      pop\n        /* \"#utility.yul\":2469:2741   */\n      pop\n        /* \"#utility.yul\":2377:2741   */\n      swap3\n      swap2\n      pop\n      pop\n      jump\t// out\n        /* \"#utility.yul\":2747:3113   */\n    tag_124:\n        /* \"#utility.yul\":2889:2892   */\n      0x00\n        /* \"#utility.yul\":2910:2977   */\n      tag_126\n        /* \"#utility.yul\":2974:2976   */\n      0x26\n        /* \"#utility.yul\":2969:2972   */\n      dup4\n        /* \"#utility.yul\":2910:2977   */\n      tag_119\n      jump\t// in\n    tag_126:\n        /* \"#utility.yul\":2903:2977   */\n      swap2\n      pop\n        /* \"#utility.yul\":2986:3079   */\n      tag_127\n        /* \"#utility.yul\":3075:3078   */\n      dup3\n        /* \"#utility.yul\":2986:3079   */\n      tag_128\n      jump\t// in\n    tag_127:\n        /* \"#utility.yul\":3104:3106   */\n      0x40\n        /* \"#utility.yul\":3099:3102   */\n      dup3\n        /* \"#utility.yul\":3095:3107   */\n      add\n        /* \"#utility.yul\":3088:3107   */\n      swap1\n      pop\n        /* \"#utility.yul\":2747:3113   */\n      swap2\n      swap1\n      pop\n      jump\t// out\n        /* \"#utility.yul\":3119:3485   */\n    tag_129:\n        /* \"#utility.yul\":3261:3264   */\n      0x00\n        /* \"#utility.yul\":3282:3349   */\n      tag_131\n        /* \"#utility.yul\":3346:3348   */\n      0x37\n        /* \"#utility.yul\":3341:3344   */\n      dup4\n        /* \"#utility.yul\":3282:3349   */\n      tag_119\n      jump\t// in\n    tag_131:\n        /* \"#utility.yul\":3275:3349   */\n      swap2\n      pop\n        /* \"#utility.yul\":3358:3451   */\n      tag_132\n        /* \"#utility.yul\":3447:3450   */\n      dup3\n        /* \"#utility.yul\":3358:3451   */\n      tag_133\n      jump\t// in\n    tag_132:\n        /* \"#utility.yul\":3476:3478   */\n      0x40\n        /* \"#utility.yul\":3471:3474   */\n      dup3\n        /* \"#utility.yul\":3467:3479   */\n      add\n        /* \"#utility.yul\":3460:3479   */\n      swap1\n      pop\n        /* \"#utility.yul\":3119:3485   */\n      swap2\n      swap1\n      pop\n      jump\t// out\n        /* \"#utility.yul\":3491:3857   */\n    tag_134:\n        /* \"#utility.yul\":3633:3636   */\n      0x00\n        /* \"#utility.yul\":3654:3721   */\n      tag_136\n        /* \"#utility.yul\":3718:3720   */\n      0x25\n        /* \"#utility.yul\":3713:3716   */\n      dup4\n        /* \"#utility.yul\":3654:3721   */\n      tag_119\n      jump\t// in\n    tag_136:\n        /* \"#utility.yul\":3647:3721   */\n      swap2\n      pop\n        /* \"#utility.yul\":3730:3823   */\n      tag_137\n        /* \"#utility.yul\":3819:3822   */\n      dup3\n        /* \"#utility.yul\":3730:3823   */\n      tag_138\n      jump\t// in\n    tag_137:\n        /* \"#utility.yul\":3848:3850   */\n      0x40\n        /* \"#utility.yul\":3843:3846   */\n      dup3\n        /* \"#utility.yul\":3839:3851   */\n      add\n        /* \"#utility.yul\":3832:3851   */\n      swap1\n      pop\n        /* \"#utility.yul\":3491:3857   */\n      swap2\n      swap1\n      pop\n      jump\t// out\n        /* \"#utility.yul\":3863:4792   */\n    tag_12:\n        /* \"#utility.yul\":4124:4128   */\n      0x00\n        /* \"#utility.yul\":4162:4165   */\n      0xa0\n        /* \"#utility.yul\":4151:4160   */\n      dup3\n        /* \"#utility.yul\":4147:4166   */\n      add\n        /* \"#utility.yul\":4139:4166   */\n      swap1\n      pop\n        /* \"#utility.yul\":4176:4245   */\n      tag_140\n        /* \"#utility.yul\":4242:4243   */\n      0x00\n        /* \"#utility.yul\":4231:4240   */\n      dup4\n        /* \"#utility.yul\":4227:4244   */\n      add\n        /* \"#utility.yul\":4218:4224   */\n      dup9\n        /* \"#utility.yul\":4176:4245   */\n      tag_110\n      jump\t// in\n    tag_140:\n        /* \"#utility.yul\":4292:4301   */\n      dup2\n        /* \"#utility.yul\":4286:4290   */\n      dup2\n        /* \"#utility.yul\":4282:4302   */\n      sub\n        /* \"#utility.yul\":4277:4279   */\n      0x20\n        /* \"#utility.yul\":4266:4275   */\n      dup4\n        /* \"#utility.yul\":4262:4280   */\n      add\n        /* \"#utility.yul\":4255:4303   */\n      mstore\n        /* \"#utility.yul\":4320:4398   */\n      tag_141\n        /* \"#utility.yul\":4393:4397   */\n      dup2\n        /* \"#utility.yul\":4384:4390   */\n      dup8\n        /* \"#utility.yul\":4320:4398   */\n      tag_114\n      jump\t// in\n    tag_141:\n        /* \"#utility.yul\":4312:4398   */\n      swap1\n      pop\n        /* \"#utility.yul\":4445:4454   */\n      dup2\n        /* \"#utility.yul\":4439:4443   */\n      dup2\n        /* \"#utility.yul\":4435:4455   */\n      sub\n        /* \"#utility.yul\":4430:4432   */\n      0x40\n        /* \"#utility.yul\":4419:4428   */\n      dup4\n        /* \"#utility.yul\":4415:4433   */\n      add\n        /* \"#utility.yul\":4408:4456   */\n      mstore\n        /* \"#utility.yul\":4473:4551   */\n      tag_142\n        /* \"#utility.yul\":4546:4550   */\n      dup2\n        /* \"#utility.yul\":4537:4543   */\n      dup7\n        /* \"#utility.yul\":4473:4551   */\n      tag_114\n      jump\t// in\n    tag_142:\n        /* \"#utility.yul\":4465:4551   */\n      swap1\n      pop\n        /* \"#utility.yul\":4561:4631   */\n      tag_143\n        /* \"#utility.yul\":4627:4629   */\n      0x60\n        /* \"#utility.yul\":4616:4625   */\n      dup4\n        /* \"#utility.yul\":4612:4630   */\n      add\n        /* \"#utility.yul\":4603:4609   */\n      dup6\n        /* \"#utility.yul\":4561:4631   */\n      tag_110\n      jump\t// in\n    tag_143:\n        /* \"#utility.yul\":4679:4688   */\n      dup2\n        /* \"#utility.yul\":4673:4677   */\n      dup2\n        /* \"#utility.yul\":4669:4689   */\n      sub\n        /* \"#utility.yul\":4663:4666   */\n      0x80\n        /* \"#utility.yul\":4652:4661   */\n      dup4\n        /* \"#utility.yul\":4648:4667   */\n      add\n        /* \"#utility.yul\":4641:4690   */\n      mstore\n        /* \"#utility.yul\":4707:4785   */\n      tag_144\n        /* \"#utility.yul\":4780:4784   */\n      dup2\n        /* \"#utility.yul\":4771:4777   */\n      dup5\n        /* \"#utility.yul\":4707:4785   */\n      tag_114\n      jump\t// in\n    tag_144:\n        /* \"#utility.yul\":4699:4785   */\n      swap1\n      pop\n        /* \"#utility.yul\":3863:4792   */\n      swap7\n      swap6\n      pop\n      pop\n      pop\n      pop\n      pop\n      pop\n      jump\t// out\n        /* \"#utility.yul\":4798:5217   */\n    tag_43:\n        /* \"#utility.yul\":4964:4968   */\n      0x00\n        /* \"#utility.yul\":5002:5004   */\n      0x20\n        /* \"#utility.yul\":4991:5000   */\n      dup3\n        /* \"#utility.yul\":4987:5005   */\n      add\n        /* \"#utility.yul\":4979:5005   */\n      swap1\n      pop\n        /* \"#utility.yul\":5051:5060   */\n      dup2\n        /* \"#utility.yul\":5045:5049   */\n      dup2\n        /* \"#utility.yul\":5041:5061   */\n      sub\n        /* \"#utility.yul\":5037:5038   */\n      0x00\n        /* \"#utility.yul\":5026:5035   */\n      dup4\n        /* \"#utility.yul\":5022:5039   */\n      add\n        /* \"#utility.yul\":5015:5062   */\n      mstore\n        /* \"#utility.yul\":5079:5210   */\n      tag_146\n        /* \"#utility.yul\":5205:5209   */\n      dup2\n        /* \"#utility.yul\":5079:5210   */\n      tag_124\n      jump\t// in\n    tag_146:\n        /* \"#utility.yul\":5071:5210   */\n      swap1\n      pop\n        /* \"#utility.yul\":4798:5217   */\n      swap2\n      swap1\n      pop\n      jump\t// out\n        /* \"#utility.yul\":5223:5642   */\n    tag_52:\n        /* \"#utility.yul\":5389:5393   */\n      0x00\n        /* \"#utility.yul\":5427:5429   */\n      0x20\n        /* \"#utility.yul\":5416:5425   */\n      dup3\n        /* \"#utility.yul\":5412:5430   */\n      add\n        /* \"#utility.yul\":5404:5430   */\n      swap1\n      pop\n        /* \"#utility.yul\":5476:5485   */\n      dup2\n        /* \"#utility.yul\":5470:5474   */\n      dup2\n        /* \"#utility.yul\":5466:5486   */\n      sub\n        /* \"#utility.yul\":5462:5463   */\n      0x00\n        /* \"#utility.yul\":5451:5460   */\n      dup4\n        /* \"#utility.yul\":5447:5464   */\n      add\n        /* \"#utility.yul\":5440:5487   */\n      mstore\n        /* \"#utility.yul\":5504:5635   */\n      tag_148\n        /* \"#utility.yul\":5630:5634   */\n      dup2\n        /* \"#utility.yul\":5504:5635   */\n      tag_129\n      jump\t// in\n    tag_148:\n        /* \"#utility.yul\":5496:5635   */\n      swap1\n      pop\n        /* \"#utility.yul\":5223:5642   */\n      swap2\n      swap1\n      pop\n      jump\t// out\n        /* \"#utility.yul\":5648:6067   */\n    tag_49:\n        /* \"#utility.yul\":5814:5818   */\n      0x00\n        /* \"#utility.yul\":5852:5854   */\n      0x20\n        /* \"#utility.yul\":5841:5850   */\n      dup3\n        /* \"#utility.yul\":5837:5855   */\n      add\n        /* \"#utility.yul\":5829:5855   */\n      swap1\n      pop\n        /* \"#utility.yul\":5901:5910   */\n      dup2\n        /* \"#utility.yul\":5895:5899   */\n      dup2\n        /* \"#utility.yul\":5891:5911   */\n      sub\n        /* \"#utility.yul\":5887:5888   */\n      0x00\n        /* \"#utility.yul\":5876:5885   */\n      dup4\n        /* \"#utility.yul\":5872:5889   */\n      add\n        /* \"#utility.yul\":5865:5912   */\n      mstore\n        /* \"#utility.yul\":5929:6060   */\n      tag_150\n        /* \"#utility.yul\":6055:6059   */\n      dup2\n        /* \"#utility.yul\":5929:6060   */\n      tag_134\n      jump\t// in\n    tag_150:\n        /* \"#utility.yul\":5921:6060   */\n      swap1\n      pop\n        /* \"#utility.yul\":5648:6067   */\n      swap2\n      swap1\n      pop\n      jump\t// out\n        /* \"#utility.yul\":6073:6202   */\n    tag_74:\n        /* \"#utility.yul\":6107:6113   */\n      0x00\n        /* \"#utility.yul\":6134:6154   */\n      tag_152\n      tag_153\n      jump\t// in\n    tag_152:\n        /* \"#utility.yul\":6124:6154   */\n      swap1\n      pop\n        /* \"#utility.yul\":6163:6196   */\n      tag_154\n        /* \"#utility.yul\":6191:6195   */\n      dup3\n        /* \"#utility.yul\":6183:6189   */\n      dup3\n        /* \"#utility.yul\":6163:6196   */\n      tag_155\n      jump\t// in\n    tag_154:\n        /* \"#utility.yul\":6073:6202   */\n      swap2\n      swap1\n      pop\n      jump\t// out\n        /* \"#utility.yul\":6208:6283   */\n    tag_153:\n        /* \"#utility.yul\":6241:6247   */\n      0x00\n        /* \"#utility.yul\":6274:6276   */\n      0x40\n        /* \"#utility.yul\":6268:6277   */\n      mload\n        /* \"#utility.yul\":6258:6277   */\n      swap1\n      pop\n        /* \"#utility.yul\":6208:6283   */\n      swap1\n      jump\t// out\n        /* \"#utility.yul\":6289:6597   */\n    tag_73:\n        /* \"#utility.yul\":6351:6355   */\n      0x00\n        /* \"#utility.yul\":6441:6459   */\n      0xffffffffffffffff\n        /* \"#utility.yul\":6433:6439   */\n      dup3\n        /* \"#utility.yul\":6430:6460   */\n      gt\n        /* \"#utility.yul\":6427:6483   */\n      iszero\n      tag_158\n      jumpi\n        /* \"#utility.yul\":6463:6481   */\n      tag_159\n      tag_160\n      jump\t// in\n    tag_159:\n        /* \"#utility.yul\":6427:6483   */\n    tag_158:\n        /* \"#utility.yul\":6501:6530   */\n      tag_161\n        /* \"#utility.yul\":6523:6529   */\n      dup3\n        /* \"#utility.yul\":6501:6530   */\n      tag_123\n      jump\t// in\n    tag_161:\n        /* \"#utility.yul\":6493:6530   */\n      swap1\n      pop\n        /* \"#utility.yul\":6585:6589   */\n      0x20\n        /* \"#utility.yul\":6579:6583   */\n      dup2\n        /* \"#utility.yul\":6575:6590   */\n      add\n        /* \"#utility.yul\":6567:6590   */\n      swap1\n      pop\n        /* \"#utility.yul\":6289:6597   */\n      swap2\n      swap1\n      pop\n      jump\t// out\n        /* \"#utility.yul\":6603:6702   */\n    tag_117:\n        /* \"#utility.yul\":6655:6661   */\n      0x00\n        /* \"#utility.yul\":6689:6694   */\n      dup2\n        /* \"#utility.yul\":6683:6695   */\n      mload\n        /* \"#utility.yul\":6673:6695   */\n      swap1\n      pop\n        /* \"#utility.yul\":6603:6702   */\n      swap2\n      swap1\n      pop\n      jump\t// out\n        /* \"#utility.yul\":6708:6877   */\n    tag_119:\n        /* \"#utility.yul\":6792:6803   */\n      0x00\n        /* \"#utility.yul\":6826:6832   */\n      dup3\n        /* \"#utility.yul\":6821:6824   */\n      dup3\n        /* \"#utility.yul\":6814:6833   */\n      mstore\n        /* \"#utility.yul\":6866:6870   */\n      0x20\n        /* \"#utility.yul\":6861:6864   */\n      dup3\n        /* \"#utility.yul\":6857:6871   */\n      add\n        /* \"#utility.yul\":6842:6871   */\n      swap1\n      pop\n        /* \"#utility.yul\":6708:6877   */\n      swap3\n      swap2\n      pop\n      pop\n      jump\t// out\n        /* \"#utility.yul\":6883:7408   */\n    tag_45:\n        /* \"#utility.yul\":6922:6925   */\n      0x00\n        /* \"#utility.yul\":6941:6960   */\n      tag_165\n        /* \"#utility.yul\":6958:6959   */\n      dup3\n        /* \"#utility.yul\":6941:6960   */\n      tag_113\n      jump\t// in\n    tag_165:\n        /* \"#utility.yul\":6936:6960   */\n      swap2\n      pop\n        /* \"#utility.yul\":6974:6993   */\n      tag_166\n        /* \"#utility.yul\":6991:6992   */\n      dup4\n        /* \"#utility.yul\":6974:6993   */\n      tag_113\n      jump\t// in\n    tag_166:\n        /* \"#utility.yul\":6969:6993   */\n      swap3\n      pop\n        /* \"#utility.yul\":7162:7163   */\n      dup2\n        /* \"#utility.yul\":7094:7160   */\n      0x7fffffffffffffffffffffffffffffffffffffffffffffffffffffffffffffff\n        /* \"#utility.yul\":7090:7164   */\n      sub\n        /* \"#utility.yul\":7087:7088   */\n      dup4\n        /* \"#utility.yul\":7083:7165   */\n      sgt\n        /* \"#utility.yul\":7078:7079   */\n      0x00\n        /* \"#utility.yul\":7075:7076   */\n      dup4\n        /* \"#utility.yul\":7071:7080   */\n      slt\n        /* \"#utility.yul\":7064:7081   */\n      iszero\n        /* \"#utility.yul\":7060:7166   */\n      and\n        /* \"#utility.yul\":7057:7189   */\n      iszero\n      tag_167\n      jumpi\n        /* \"#utility.yul\":7169:7187   */\n      tag_168\n      tag_169\n      jump\t// in\n    tag_168:\n        /* \"#utility.yul\":7057:7189   */\n    tag_167:\n        /* \"#utility.yul\":7349:7350   */\n      dup2\n        /* \"#utility.yul\":7281:7347   */\n      0x8000000000000000000000000000000000000000000000000000000000000000\n        /* \"#utility.yul\":7277:7351   */\n      sub\n        /* \"#utility.yul\":7274:7275   */\n      dup4\n        /* \"#utility.yul\":7270:7352   */\n      slt\n        /* \"#utility.yul\":7266:7267   */\n      0x00\n        /* \"#utility.yul\":7263:7264   */\n      dup4\n        /* \"#utility.yul\":7259:7268   */\n      slt\n        /* \"#utility.yul\":7255:7353   */\n      and\n        /* \"#utility.yul\":7252:7376   */\n      iszero\n      tag_170\n      jumpi\n        /* \"#utility.yul\":7356:7374   */\n      tag_171\n      tag_169\n      jump\t// in\n    tag_171:\n        /* \"#utility.yul\":7252:7376   */\n    tag_170:\n        /* \"#utility.yul\":7400:7401   */\n      dup3\n        /* \"#utility.yul\":7397:7398   */\n      dup3\n        /* \"#utility.yul\":7393:7402   */\n      add\n        /* \"#utility.yul\":7386:7402   */\n      swap1\n      pop\n        /* \"#utility.yul\":6883:7408   */\n      swap3\n      swap2\n      pop\n      pop\n      jump\t// out\n        /* \"#utility.yul\":7414:7941   */\n    tag_54:\n        /* \"#utility.yul\":7453:7457   */\n      0x00\n        /* \"#utility.yul\":7473:7492   */\n      tag_173\n        /* \"#utility.yul\":7490:7491   */\n      dup3\n        /* \"#utility.yul\":7473:7492   */\n      tag_113\n      jump\t// in\n    tag_173:\n        /* \"#utility.yul\":7468:7492   */\n      swap2\n      pop\n        /* \"#utility.yul\":7506:7525   */\n      tag_174\n        /* \"#utility.yul\":7523:7524   */\n      dup4\n        /* \"#utility.yul\":7506:7525   */\n      tag_113\n      jump\t// in\n    tag_174:\n        /* \"#utility.yul\":7501:7525   */\n      swap3\n      pop\n        /* \"#utility.yul\":7695:7696   */\n      dup3\n        /* \"#utility.yul\":7627:7693   */\n      0x8000000000000000000000000000000000000000000000000000000000000000\n        /* \"#utility.yul\":7623:7697   */\n      add\n        /* \"#utility.yul\":7620:7621   */\n      dup3\n        /* \"#utility.yul\":7616:7698   */\n      slt\n        /* \"#utility.yul\":7611:7612   */\n      0x00\n        /* \"#utility.yul\":7608:7609   */\n      dup5\n        /* \"#utility.yul\":7604:7613   */\n      slt\n        /* \"#utility.yul\":7597:7614   */\n      iszero\n        /* \"#utility.yul\":7593:7699   */\n      and\n        /* \"#utility.yul\":7590:7722   */\n      iszero\n      tag_175\n      jumpi\n        /* \"#utility.yul\":7702:7720   */\n      tag_176\n      tag_169\n      jump\t// in\n    tag_176:\n        /* \"#utility.yul\":7590:7722   */\n    tag_175:\n        /* \"#utility.yul\":7881:7882   */\n      dup3\n        /* \"#utility.yul\":7813:7879   */\n      0x7fffffffffffffffffffffffffffffffffffffffffffffffffffffffffffffff\n        /* \"#utility.yul\":7809:7883   */\n      add\n        /* \"#utility.yul\":7806:7807   */\n      dup3\n        /* \"#utility.yul\":7802:7884   */\n      sgt\n        /* \"#utility.yul\":7798:7799   */\n      0x00\n        /* \"#utility.yul\":7795:7796   */\n      dup5\n        /* \"#utility.yul\":7791:7800   */\n      slt\n        /* \"#utility.yul\":7787:7885   */\n      and\n        /* \"#utility.yul\":7784:7908   */\n      iszero\n      tag_177\n      jumpi\n        /* \"#utility.yul\":7888:7906   */\n      tag_178\n      tag_169\n      jump\t// in\n    tag_178:\n        /* \"#utility.yul\":7784:7908   */\n    tag_177:\n        /* \"#utility.yul\":7933:7934   */\n      dup3\n        /* \"#utility.yul\":7930:7931   */\n      dup3\n        /* \"#utility.yul\":7926:7935   */\n      sub\n        /* \"#utility.yul\":7918:7935   */\n      swap1\n      pop\n        /* \"#utility.yul\":7414:7941   */\n      swap3\n      swap2\n      pop\n      pop\n      jump\t// out\n        /* \"#utility.yul\":7947:8043   */\n    tag_179:\n        /* \"#utility.yul\":7984:7991   */\n      0x00\n        /* \"#utility.yul\":8013:8037   */\n      tag_181\n        /* \"#utility.yul\":8031:8036   */\n      dup3\n        /* \"#utility.yul\":8013:8037   */\n      tag_182\n      jump\t// in\n    tag_181:\n        /* \"#utility.yul\":8002:8037   */\n      swap1\n      pop\n        /* \"#utility.yul\":7947:8043   */\n      swap2\n      swap1\n      pop\n      jump\t// out\n        /* \"#utility.yul\":8049:8125   */\n    tag_113:\n        /* \"#utility.yul\":8085:8092   */\n      0x00\n        /* \"#utility.yul\":8114:8119   */\n      dup2\n        /* \"#utility.yul\":8103:8119   */\n      swap1\n      pop\n        /* \"#utility.yul\":8049:8125   */\n      swap2\n      swap1\n      pop\n      jump\t// out\n        /* \"#utility.yul\":8131:8257   */\n    tag_182:\n        /* \"#utility.yul\":8168:8175   */\n      0x00\n        /* \"#utility.yul\":8208:8250   */\n      0xffffffffffffffffffffffffffffffffffffffff\n        /* \"#utility.yul\":8201:8206   */\n      dup3\n        /* \"#utility.yul\":8197:8251   */\n      and\n        /* \"#utility.yul\":8186:8251   */\n      swap1\n      pop\n        /* \"#utility.yul\":8131:8257   */\n      swap2\n      swap1\n      pop\n      jump\t// out\n        /* \"#utility.yul\":8263:8417   */\n    tag_79:\n        /* \"#utility.yul\":8347:8353   */\n      dup3\n        /* \"#utility.yul\":8342:8345   */\n      dup2\n        /* \"#utility.yul\":8337:8340   */\n      dup4\n        /* \"#utility.yul\":8324:8354   */\n      calldatacopy\n        /* \"#utility.yul\":8409:8410   */\n      0x00\n        /* \"#utility.yul\":8400:8406   */\n      dup4\n        /* \"#utility.yul\":8395:8398   */\n      dup4\n        /* \"#utility.yul\":8391:8407   */\n      add\n        /* \"#utility.yul\":8384:8411   */\n      mstore\n        /* \"#utility.yul\":8263:8417   */\n      pop\n      pop\n      pop\n      jump\t// out\n        /* \"#utility.yul\":8423:8730   */\n    tag_121:\n        /* \"#utility.yul\":8491:8492   */\n      0x00\n        /* \"#utility.yul\":8501:8614   */\n    tag_187:\n        /* \"#utility.yul\":8515:8521   */\n      dup4\n        /* \"#utility.yul\":8512:8513   */\n      dup2\n        /* \"#utility.yul\":8509:8522   */\n      lt\n        /* \"#utility.yul\":8501:8614   */\n      iszero\n      tag_189\n      jumpi\n        /* \"#utility.yul\":8600:8601   */\n      dup1\n        /* \"#utility.yul\":8595:8598   */\n      dup3\n        /* \"#utility.yul\":8591:8602   */\n      add\n        /* \"#utility.yul\":8585:8603   */\n      mload\n        /* \"#utility.yul\":8581:8582   */\n      dup2\n        /* \"#utility.yul\":8576:8579   */\n      dup5\n        /* \"#utility.yul\":8572:8583   */\n      add\n        /* \"#utility.yul\":8565:8604   */\n      mstore\n        /* \"#utility.yul\":8537:8539   */\n      0x20\n        /* \"#utility.yul\":8534:8535   */\n      dup2\n        /* \"#utility.yul\":8530:8540   */\n      add\n        /* \"#utility.yul\":8525:8540   */\n      swap1\n      pop\n        /* \"#utility.yul\":8501:8614   */\n      jump(tag_187)\n    tag_189:\n        /* \"#utility.yul\":8632:8638   */\n      dup4\n        /* \"#utility.yul\":8629:8630   */\n      dup2\n        /* \"#utility.yul\":8626:8639   */\n      gt\n        /* \"#utility.yul\":8623:8724   */\n      iszero\n      tag_190\n      jumpi\n        /* \"#utility.yul\":8712:8713   */\n      0x00\n        /* \"#utility.yul\":8703:8709   */\n      dup5\n        /* \"#utility.yul\":8698:8701   */\n      dup5\n        /* \"#utility.yul\":8694:8710   */\n      add\n        /* \"#utility.yul\":8687:8714   */\n      mstore\n        /* \"#utility.yul\":8623:8724   */\n    tag_190:\n        /* \"#utility.yul\":8472:8730   */\n      pop\n        /* \"#utility.yul\":8423:8730   */\n      pop\n      pop\n      pop\n      jump\t// out\n        /* \"#utility.yul\":8736:9056   */\n    tag_25:\n        /* \"#utility.yul\":8780:8786   */\n      0x00\n        /* \"#utility.yul\":8817:8818   */\n      0x02\n        /* \"#utility.yul\":8811:8815   */\n      dup3\n        /* \"#utility.yul\":8807:8819   */\n      div\n        /* \"#utility.yul\":8797:8819   */\n      swap1\n      pop\n        /* \"#utility.yul\":8864:8865   */\n      0x01\n        /* \"#utility.yul\":8858:8862   */\n      dup3\n        /* \"#utility.yul\":8854:8866   */\n      and\n        /* \"#utility.yul\":8885:8903   */\n      dup1\n        /* \"#utility.yul\":8875:8956   */\n      tag_192\n      jumpi\n        /* \"#utility.yul\":8941:8945   */\n      0x7f\n        /* \"#utility.yul\":8933:8939   */\n      dup3\n        /* \"#utility.yul\":8929:8946   */\n      and\n        /* \"#utility.yul\":8919:8946   */\n      swap2\n      pop\n        /* \"#utility.yul\":8875:8956   */\n    tag_192:\n        /* \"#utility.yul\":9003:9005   */\n      0x20\n        /* \"#utility.yul\":8995:9001   */\n      dup3\n        /* \"#utility.yul\":8992:9006   */\n      lt\n        /* \"#utility.yul\":8972:8990   */\n      dup2\n        /* \"#utility.yul\":8969:9007   */\n      eq\n        /* \"#utility.yul\":8966:9050   */\n      iszero\n      tag_193\n      jumpi\n        /* \"#utility.yul\":9022:9040   */\n      tag_194\n      tag_195\n      jump\t// in\n    tag_194:\n        /* \"#utility.yul\":8966:9050   */\n    tag_193:\n        /* \"#utility.yul\":8787:9056   */\n      pop\n        /* \"#utility.yul\":8736:9056   */\n      swap2\n      swap1\n      pop\n      jump\t// out\n        /* \"#utility.yul\":9062:9343   */\n    tag_155:\n        /* \"#utility.yul\":9145:9172   */\n      tag_197\n        /* \"#utility.yul\":9167:9171   */\n      dup3\n        /* \"#utility.yul\":9145:9172   */\n      tag_123\n      jump\t// in\n    tag_197:\n        /* \"#utility.yul\":9137:9143   */\n      dup2\n        /* \"#utility.yul\":9133:9173   */\n      add\n        /* \"#utility.yul\":9275:9281   */\n      dup2\n        /* \"#utility.yul\":9263:9273   */\n      dup2\n        /* \"#utility.yul\":9260:9282   */\n      lt\n        /* \"#utility.yul\":9239:9257   */\n      0xffffffffffffffff\n        /* \"#utility.yul\":9227:9237   */\n      dup3\n        /* \"#utility.yul\":9224:9258   */\n      gt\n        /* \"#utility.yul\":9221:9283   */\n      or\n        /* \"#utility.yul\":9218:9306   */\n      iszero\n      tag_198\n      jumpi\n        /* \"#utility.yul\":9286:9304   */\n      tag_199\n      tag_160\n      jump\t// in\n    tag_199:\n        /* \"#utility.yul\":9218:9306   */\n    tag_198:\n        /* \"#utility.yul\":9326:9336   */\n      dup1\n        /* \"#utility.yul\":9322:9324   */\n      0x40\n        /* \"#utility.yul\":9315:9337   */\n      mstore\n        /* \"#utility.yul\":9105:9343   */\n      pop\n        /* \"#utility.yul\":9062:9343   */\n      pop\n      pop\n      jump\t// out\n        /* \"#utility.yul\":9349:9529   */\n    tag_169:\n        /* \"#utility.yul\":9397:9474   */\n      0x4e487b7100000000000000000000000000000000000000000000000000000000\n        /* \"#utility.yul\":9394:9395   */\n      0x00\n        /* \"#utility.yul\":9387:9475   */\n      mstore\n        /* \"#utility.yul\":9494:9498   */\n      0x11\n        /* \"#utility.yul\":9491:9492   */\n      0x04\n        /* \"#utility.yul\":9484:9499   */\n      mstore\n        /* \"#utility.yul\":9518:9522   */\n      0x24\n        /* \"#utility.yul\":9515:9516   */\n      0x00\n        /* \"#utility.yul\":9508:9523   */\n      revert\n        /* \"#utility.yul\":9535:9715   */\n    tag_195:\n        /* \"#utility.yul\":9583:9660   */\n      0x4e487b7100000000000000000000000000000000000000000000000000000000\n        /* \"#utility.yul\":9580:9581   */\n      0x00\n        /* \"#utility.yul\":9573:9661   */\n      mstore\n        /* \"#utility.yul\":9680:9684   */\n      0x22\n        /* \"#utility.yul\":9677:9678   */\n      0x04\n        /* \"#utility.yul\":9670:9685   */\n      mstore\n        /* \"#utility.yul\":9704:9708   */\n      0x24\n        /* \"#utility.yul\":9701:9702   */\n      0x00\n        /* \"#utility.yul\":9694:9709   */\n      revert\n        /* \"#utility.yul\":9721:9901   */\n    tag_160:\n        /* \"#utility.yul\":9769:9846   */\n      0x4e487b7100000000000000000000000000000000000000000000000000000000\n        /* \"#utility.yul\":9766:9767   */\n      0x00\n        /* \"#utility.yul\":9759:9847   */\n      mstore\n        /* \"#utility.yul\":9866:9870   */\n      0x41\n        /* \"#utility.yul\":9863:9864   */\n      0x04\n        /* \"#utility.yul\":9856:9871   */\n      mstore\n        /* \"#utility.yul\":9890:9894   */\n      0x24\n        /* \"#utility.yul\":9887:9888   */\n      0x00\n        /* \"#utility.yul\":9880:9895   */\n      revert\n        /* \"#utility.yul\":9907:10024   */\n    tag_92:\n        /* \"#utility.yul\":10016:10017   */\n      0x00\n        /* \"#utility.yul\":10013:10014   */\n      dup1\n        /* \"#utility.yul\":10006:10018   */\n      revert\n        /* \"#utility.yul\":10030:10147   */\n    tag_77:\n        /* \"#utility.yul\":10139:10140   */\n      0x00\n        /* \"#utility.yul\":10136:10137   */\n      dup1\n        /* \"#utility.yul\":10129:10141   */\n      revert\n        /* \"#utility.yul\":10153:10270   */\n    tag_108:\n        /* \"#utility.yul\":10262:10263   */\n      0x00\n        /* \"#utility.yul\":10259:10260   */\n      dup1\n        /* \"#utility.yul\":10252:10264   */\n      revert\n        /* \"#utility.yul\":10276:10393   */\n    tag_97:\n        /* \"#utility.yul\":10385:10386   */\n      0x00\n        /* \"#utility.yul\":10382:10383   */\n      dup1\n        /* \"#utility.yul\":10375:10387   */\n      revert\n        /* \"#utility.yul\":10399:10501   */\n    tag_123:\n        /* \"#utility.yul\":10440:10446   */\n      0x00\n        /* \"#utility.yul\":10491:10493   */\n      0x1f\n        /* \"#utility.yul\":10487:10494   */\n      not\n        /* \"#utility.yul\":10482:10484   */\n      0x1f\n        /* \"#utility.yul\":10475:10480   */\n      dup4\n        /* \"#utility.yul\":10471:10485   */\n      add\n        /* \"#utility.yul\":10467:10495   */\n      and\n        /* \"#utility.yul\":10457:10495   */\n      swap1\n      pop\n        /* \"#utility.yul\":10399:10501   */\n      swap2\n      swap1\n      pop\n      jump\t// out\n        /* \"#utility.yul\":10507:10732   */\n    tag_128:\n        /* \"#utility.yul\":10647:10681   */\n      0x73616c646f207061726120696e677265736172206465626520736572206d6179\n        /* \"#utility.yul\":10643:10644   */\n      0x00\n        /* \"#utility.yul\":10635:10641   */\n      dup3\n        /* \"#utility.yul\":10631:10645   */\n      add\n        /* \"#utility.yul\":10624:10682   */\n      mstore\n        /* \"#utility.yul\":10716:10724   */\n      0x6f72206120300000000000000000000000000000000000000000000000000000\n        /* \"#utility.yul\":10711:10713   */\n      0x20\n        /* \"#utility.yul\":10703:10709   */\n      dup3\n        /* \"#utility.yul\":10699:10714   */\n      add\n        /* \"#utility.yul\":10692:10725   */\n      mstore\n        /* \"#utility.yul\":10507:10732   */\n      pop\n      jump\t// out\n        /* \"#utility.yul\":10738:10980   */\n    tag_133:\n        /* \"#utility.yul\":10878:10912   */\n      0x73616c646f20706172612072657469726172206e6f206465626520736572206d\n        /* \"#utility.yul\":10874:10875   */\n      0x00\n        /* \"#utility.yul\":10866:10872   */\n      dup3\n        /* \"#utility.yul\":10862:10876   */\n      add\n        /* \"#utility.yul\":10855:10913   */\n      mstore\n        /* \"#utility.yul\":10947:10972   */\n      0x61796f7220612073752073616c646f206163747561726c000000000000000000\n        /* \"#utility.yul\":10942:10944   */\n      0x20\n        /* \"#utility.yul\":10934:10940   */\n      dup3\n        /* \"#utility.yul\":10930:10945   */\n      add\n        /* \"#utility.yul\":10923:10973   */\n      mstore\n        /* \"#utility.yul\":10738:10980   */\n      pop\n      jump\t// out\n        /* \"#utility.yul\":10986:11210   */\n    tag_138:\n        /* \"#utility.yul\":11126:11160   */\n      0x73616c646f20706172612072657469726172206465626520736572206d61796f\n        /* \"#utility.yul\":11122:11123   */\n      0x00\n        /* \"#utility.yul\":11114:11120   */\n      dup3\n        /* \"#utility.yul\":11110:11124   */\n      add\n        /* \"#utility.yul\":11103:11161   */\n      mstore\n        /* \"#utility.yul\":11195:11202   */\n      0x7220612030000000000000000000000000000000000000000000000000000000\n        /* \"#utility.yul\":11190:11192   */\n      0x20\n        /* \"#utility.yul\":11182:11188   */\n      dup3\n        /* \"#utility.yul\":11178:11193   */\n      add\n        /* \"#utility.yul\":11171:11203   */\n      mstore\n        /* \"#utility.yul\":10986:11210   */\n      pop\n      jump\t// out\n        /* \"#utility.yul\":11216:11338   */\n    tag_83:\n        /* \"#utility.yul\":11289:11313   */\n      tag_212\n        /* \"#utility.yul\":11307:11312   */\n      dup2\n        /* \"#utility.yul\":11289:11313   */\n      tag_179\n      jump\t// in\n    tag_212:\n        /* \"#utility.yul\":11282:11287   */\n      dup2\n        /* \"#utility.yul\":11279:11314   */\n      eq\n        /* \"#utility.yul\":11269:11332   */\n      tag_213\n      jumpi\n        /* \"#utility.yul\":11328:11329   */\n      0x00\n        /* \"#utility.yul\":11325:11326   */\n      dup1\n        /* \"#utility.yul\":11318:11330   */\n      revert\n        /* \"#utility.yul\":11269:11332   */\n    tag_213:\n        /* \"#utility.yul\":11216:11338   */\n      pop\n      jump\t// out\n        /* \"#utility.yul\":11344:11464   */\n    tag_87:\n        /* \"#utility.yul\":11416:11439   */\n      tag_215\n        /* \"#utility.yul\":11433:11438   */\n      dup2\n        /* \"#utility.yul\":11416:11439   */\n      tag_113\n      jump\t// in\n    tag_215:\n        /* \"#utility.yul\":11409:11414   */\n      dup2\n        /* \"#utility.yul\":11406:11440   */\n      eq\n        /* \"#utility.yul\":11396:11458   */\n      tag_216\n      jumpi\n        /* \"#utility.yul\":11454:11455   */\n      0x00\n        /* \"#utility.yul\":11451:11452   */\n      dup1\n        /* \"#utility.yul\":11444:11456   */\n      revert\n        /* \"#utility.yul\":11396:11458   */\n    tag_216:\n        /* \"#utility.yul\":11344:11464   */\n      pop\n      jump\t// out\n\n    auxdata: 0xa26469706673582212209115bb0488e06552dbdc69c7a8fda72c4689354c26b3d2838b6c23754bd19f8664736f6c63430008070033\n}\n",
				"bytecode": {
					"linkReferences": {},
					"object": "608060405234801561001057600080fd5b50610c97806100206000396000f3fe608060405234801561001057600080fd5b506004361061004c5760003560e01c806363e4cdcc1461005157806393ba1e6014610085578063c28a41ec146100a1578063e5c66d67146100bd575b600080fd5b61006b600480360381019061006691906105fd565b6100d9565b60405161007c959493929190610751565b60405180910390f35b61009f600480360381019061009a919061062a565b6102a7565b005b6100bb60048036038101906100b6919061062a565b610345565b005b6100d760048036038101906100d29190610657565b610467565b005b600060205280600052604060002060009150905080600001549080600101805461010290610a31565b80601f016020809104026020016040519081016040528092919081815260200182805461012e90610a31565b801561017b5780601f106101505761010080835404028352916020019161017b565b820191906000526020600020905b81548152906001019060200180831161015e57829003601f168201915b50505050509080600201805461019090610a31565b80601f01602080910402602001604051908101604052809291908181526020018280546101bc90610a31565b80156102095780601f106101de57610100808354040283529160200191610209565b820191906000526020600020905b8154815290600101906020018083116101ec57829003601f168201915b50505050509080600301549080600401805461022490610a31565b80601f016020809104026020016040519081016040528092919081815260200182805461025090610a31565b801561029d5780601f106102725761010080835404028352916020019161029d565b820191906000526020600020905b81548152906001019060200180831161028057829003601f168201915b5050505050905085565b600081136102ea576040517f08c379a00000000000000000000000000000000000000000000000000000000081526004016102e1906107b9565b60405180910390fd5b806000803373ffffffffffffffffffffffffffffffffffffffff1673ffffffffffffffffffffffffffffffffffffffff168152602001908152602001600020600001600082825461033b919061088b565b9250508190555050565b60008113610388576040517f08c379a000000000000000000000000000000000000000000000000000000000815260040161037f906107f9565b60405180910390fd5b806000803373ffffffffffffffffffffffffffffffffffffffff1673ffffffffffffffffffffffffffffffffffffffff16815260200190815260200160002060000154121561040c576040517f08c379a0000000000000000000000000000000000000000000000000000000008152600401610403906107d9565b60405180910390fd5b806000803373ffffffffffffffffffffffffffffffffffffffff1673ffffffffffffffffffffffffffffffffffffffff168152602001908152602001600020600001600082825461045d919061091f565b9250508190555050565b806000803373ffffffffffffffffffffffffffffffffffffffff1673ffffffffffffffffffffffffffffffffffffffff16815260200190815260200160002060020190805190602001906104bc9291906104c0565b5050565b8280546104cc90610a31565b90600052602060002090601f0160209004810192826104ee5760008555610535565b82601f1061050757805160ff1916838001178555610535565b82800160010185558215610535579182015b82811115610534578251825591602001919060010190610519565b5b5090506105429190610546565b5090565b5b8082111561055f576000816000905550600101610547565b5090565b60006105766105718461083e565b610819565b90508281526020810184848401111561059257610591610b26565b5b61059d8482856109ef565b509392505050565b6000813590506105b481610c33565b92915050565b6000813590506105c981610c4a565b92915050565b600082601f8301126105e4576105e3610b21565b5b81356105f4848260208601610563565b91505092915050565b60006020828403121561061357610612610b30565b5b6000610621848285016105a5565b91505092915050565b6000602082840312156106405761063f610b30565b5b600061064e848285016105ba565b91505092915050565b60006020828403121561066d5761066c610b30565b5b600082013567ffffffffffffffff81111561068b5761068a610b2b565b5b610697848285016105cf565b91505092915050565b6106a9816109c5565b82525050565b60006106ba8261086f565b6106c4818561087a565b93506106d48185602086016109fe565b6106dd81610b35565b840191505092915050565b60006106f560268361087a565b915061070082610b46565b604082019050919050565b600061071860378361087a565b915061072382610b95565b604082019050919050565b600061073b60258361087a565b915061074682610be4565b604082019050919050565b600060a08201905061076660008301886106a0565b818103602083015261077881876106af565b9050818103604083015261078c81866106af565b905061079b60608301856106a0565b81810360808301526107ad81846106af565b90509695505050505050565b600060208201905081810360008301526107d2816106e8565b9050919050565b600060208201905081810360008301526107f28161070b565b9050919050565b600060208201905081810360008301526108128161072e565b9050919050565b6000610823610834565b905061082f8282610a63565b919050565b6000604051905090565b600067ffffffffffffffff82111561085957610858610af2565b5b61086282610b35565b9050602081019050919050565b600081519050919050565b600082825260208201905092915050565b6000610896826109c5565b91506108a1836109c5565b9250817f7fffffffffffffffffffffffffffffffffffffffffffffffffffffffffffffff038313600083121516156108dc576108db610a94565b5b817f800000000000000000000000000000000000000000000000000000000000000003831260008312161561091457610913610a94565b5b828201905092915050565b600061092a826109c5565b9150610935836109c5565b9250827f8000000000000000000000000000000000000000000000000000000000000000018212600084121516156109705761096f610a94565b5b827f7fffffffffffffffffffffffffffffffffffffffffffffffffffffffffffffff0182136000841216156109a8576109a7610a94565b5b828203905092915050565b60006109be826109cf565b9050919050565b6000819050919050565b600073ffffffffffffffffffffffffffffffffffffffff82169050919050565b82818337600083830152505050565b60005b83811015610a1c578082015181840152602081019050610a01565b83811115610a2b576000848401525b50505050565b60006002820490506001821680610a4957607f821691505b60208210811415610a5d57610a5c610ac3565b5b50919050565b610a6c82610b35565b810181811067ffffffffffffffff82111715610a8b57610a8a610af2565b5b80604052505050565b7f4e487b7100000000000000000000000000000000000000000000000000000000600052601160045260246000fd5b7f4e487b7100000000000000000000000000000000000000000000000000000000600052602260045260246000fd5b7f4e487b7100000000000000000000000000000000000000000000000000000000600052604160045260246000fd5b600080fd5b600080fd5b600080fd5b600080fd5b6000601f19601f8301169050919050565b7f73616c646f207061726120696e677265736172206465626520736572206d617960008201527f6f72206120300000000000000000000000000000000000000000000000000000602082015250565b7f73616c646f20706172612072657469726172206e6f206465626520736572206d60008201527f61796f7220612073752073616c646f206163747561726c000000000000000000602082015250565b7f73616c646f20706172612072657469726172206465626520736572206d61796f60008201527f7220612030000000000000000000000000000000000000000000000000000000602082015250565b610c3c816109b3565b8114610c4757600080fd5b50565b610c53816109c5565b8114610c5e57600080fd5b5056fea26469706673582212209115bb0488e06552dbdc69c7a8fda72c4689354c26b3d2838b6c23754bd19f8664736f6c63430008070033",
					"opcodes": "PUSH1 0x80 PUSH1 0x40 MSTORE CALLVALUE DUP1 ISZERO PUSH2 0x10 JUMPI PUSH1 0x0 DUP1 REVERT JUMPDEST POP PUSH2 0xC97 DUP1 PUSH2 0x20 PUSH1 0x0 CODECOPY PUSH1 0x0 RETURN INVALID PUSH1 0x80 PUSH1 0x40 MSTORE CALLVALUE DUP1 ISZERO PUSH2 0x10 JUMPI PUSH1 0x0 DUP1 REVERT JUMPDEST POP PUSH1 0x4 CALLDATASIZE LT PUSH2 0x4C JUMPI PUSH1 0x0 CALLDATALOAD PUSH1 0xE0 SHR DUP1 PUSH4 0x63E4CDCC EQ PUSH2 0x51 JUMPI DUP1 PUSH4 0x93BA1E60 EQ PUSH2 0x85 JUMPI DUP1 PUSH4 0xC28A41EC EQ PUSH2 0xA1 JUMPI DUP1 PUSH4 0xE5C66D67 EQ PUSH2 0xBD JUMPI JUMPDEST PUSH1 0x0 DUP1 REVERT JUMPDEST PUSH2 0x6B PUSH1 0x4 DUP1 CALLDATASIZE SUB DUP2 ADD SWAP1 PUSH2 0x66 SWAP2 SWAP1 PUSH2 0x5FD JUMP JUMPDEST PUSH2 0xD9 JUMP JUMPDEST PUSH1 0x40 MLOAD PUSH2 0x7C SWAP6 SWAP5 SWAP4 SWAP3 SWAP2 SWAP1 PUSH2 0x751 JUMP JUMPDEST PUSH1 0x40 MLOAD DUP1 SWAP2 SUB SWAP1 RETURN JUMPDEST PUSH2 0x9F PUSH1 0x4 DUP1 CALLDATASIZE SUB DUP2 ADD SWAP1 PUSH2 0x9A SWAP2 SWAP1 PUSH2 0x62A JUMP JUMPDEST PUSH2 0x2A7 JUMP JUMPDEST STOP JUMPDEST PUSH2 0xBB PUSH1 0x4 DUP1 CALLDATASIZE SUB DUP2 ADD SWAP1 PUSH2 0xB6 SWAP2 SWAP1 PUSH2 0x62A JUMP JUMPDEST PUSH2 0x345 JUMP JUMPDEST STOP JUMPDEST PUSH2 0xD7 PUSH1 0x4 DUP1 CALLDATASIZE SUB DUP2 ADD SWAP1 PUSH2 0xD2 SWAP2 SWAP1 PUSH2 0x657 JUMP JUMPDEST PUSH2 0x467 JUMP JUMPDEST STOP JUMPDEST PUSH1 0x0 PUSH1 0x20 MSTORE DUP1 PUSH1 0x0 MSTORE PUSH1 0x40 PUSH1 0x0 KECCAK256 PUSH1 0x0 SWAP2 POP SWAP1 POP DUP1 PUSH1 0x0 ADD SLOAD SWAP1 DUP1 PUSH1 0x1 ADD DUP1 SLOAD PUSH2 0x102 SWAP1 PUSH2 0xA31 JUMP JUMPDEST DUP1 PUSH1 0x1F ADD PUSH1 0x20 DUP1 SWAP2 DIV MUL PUSH1 0x20 ADD PUSH1 0x40 MLOAD SWAP1 DUP2 ADD PUSH1 0x40 MSTORE DUP1 SWAP3 SWAP2 SWAP1 DUP2 DUP2 MSTORE PUSH1 0x20 ADD DUP3 DUP1 SLOAD PUSH2 0x12E SWAP1 PUSH2 0xA31 JUMP JUMPDEST DUP1 ISZERO PUSH2 0x17B JUMPI DUP1 PUSH1 0x1F LT PUSH2 0x150 JUMPI PUSH2 0x100 DUP1 DUP4 SLOAD DIV MUL DUP4 MSTORE SWAP2 PUSH1 0x20 ADD SWAP2 PUSH2 0x17B JUMP JUMPDEST DUP3 ADD SWAP2 SWAP1 PUSH1 0x0 MSTORE PUSH1 0x20 PUSH1 0x0 KECCAK256 SWAP1 JUMPDEST DUP2 SLOAD DUP2 MSTORE SWAP1 PUSH1 0x1 ADD SWAP1 PUSH1 0x20 ADD DUP1 DUP4 GT PUSH2 0x15E JUMPI DUP3 SWAP1 SUB PUSH1 0x1F AND DUP3 ADD SWAP2 JUMPDEST POP POP POP POP POP SWAP1 DUP1 PUSH1 0x2 ADD DUP1 SLOAD PUSH2 0x190 SWAP1 PUSH2 0xA31 JUMP JUMPDEST DUP1 PUSH1 0x1F ADD PUSH1 0x20 DUP1 SWAP2 DIV MUL PUSH1 0x20 ADD PUSH1 0x40 MLOAD SWAP1 DUP2 ADD PUSH1 0x40 MSTORE DUP1 SWAP3 SWAP2 SWAP1 DUP2 DUP2 MSTORE PUSH1 0x20 ADD DUP3 DUP1 SLOAD PUSH2 0x1BC SWAP1 PUSH2 0xA31 JUMP JUMPDEST DUP1 ISZERO PUSH2 0x209 JUMPI DUP1 PUSH1 0x1F LT PUSH2 0x1DE JUMPI PUSH2 0x100 DUP1 DUP4 SLOAD DIV MUL DUP4 MSTORE SWAP2 PUSH1 0x20 ADD SWAP2 PUSH2 0x209 JUMP JUMPDEST DUP3 ADD SWAP2 SWAP1 PUSH1 0x0 MSTORE PUSH1 0x20 PUSH1 0x0 KECCAK256 SWAP1 JUMPDEST DUP2 SLOAD DUP2 MSTORE SWAP1 PUSH1 0x1 ADD SWAP1 PUSH1 0x20 ADD DUP1 DUP4 GT PUSH2 0x1EC JUMPI DUP3 SWAP1 SUB PUSH1 0x1F AND DUP3 ADD SWAP2 JUMPDEST POP POP POP POP POP SWAP1 DUP1 PUSH1 0x3 ADD SLOAD SWAP1 DUP1 PUSH1 0x4 ADD DUP1 SLOAD PUSH2 0x224 SWAP1 PUSH2 0xA31 JUMP JUMPDEST DUP1 PUSH1 0x1F ADD PUSH1 0x20 DUP1 SWAP2 DIV MUL PUSH1 0x20 ADD PUSH1 0x40 MLOAD SWAP1 DUP2 ADD PUSH1 0x40 MSTORE DUP1 SWAP3 SWAP2 SWAP1 DUP2 DUP2 MSTORE PUSH1 0x20 ADD DUP3 DUP1 SLOAD PUSH2 0x250 SWAP1 PUSH2 0xA31 JUMP JUMPDEST DUP1 ISZERO PUSH2 0x29D JUMPI DUP1 PUSH1 0x1F LT PUSH2 0x272 JUMPI PUSH2 0x100 DUP1 DUP4 SLOAD DIV MUL DUP4 MSTORE SWAP2 PUSH1 0x20 ADD SWAP2 PUSH2 0x29D JUMP JUMPDEST DUP3 ADD SWAP2 SWAP1 PUSH1 0x0 MSTORE PUSH1 0x20 PUSH1 0x0 KECCAK256 SWAP1 JUMPDEST DUP2 SLOAD DUP2 MSTORE SWAP1 PUSH1 0x1 ADD SWAP1 PUSH1 0x20 ADD DUP1 DUP4 GT PUSH2 0x280 JUMPI DUP3 SWAP1 SUB PUSH1 0x1F AND DUP3 ADD SWAP2 JUMPDEST POP POP POP POP POP SWAP1 POP DUP6 JUMP JUMPDEST PUSH1 0x0 DUP2 SGT PUSH2 0x2EA JUMPI PUSH1 0x40 MLOAD PUSH32 0x8C379A000000000000000000000000000000000000000000000000000000000 DUP2 MSTORE PUSH1 0x4 ADD PUSH2 0x2E1 SWAP1 PUSH2 0x7B9 JUMP JUMPDEST PUSH1 0x40 MLOAD DUP1 SWAP2 SUB SWAP1 REVERT JUMPDEST DUP1 PUSH1 0x0 DUP1 CALLER PUSH20 0xFFFFFFFFFFFFFFFFFFFFFFFFFFFFFFFFFFFFFFFF AND PUSH20 0xFFFFFFFFFFFFFFFFFFFFFFFFFFFFFFFFFFFFFFFF AND DUP2 MSTORE PUSH1 0x20 ADD SWAP1 DUP2 MSTORE PUSH1 0x20 ADD PUSH1 0x0 KECCAK256 PUSH1 0x0 ADD PUSH1 0x0 DUP3 DUP3 SLOAD PUSH2 0x33B SWAP2 SWAP1 PUSH2 0x88B JUMP JUMPDEST SWAP3 POP POP DUP2 SWAP1 SSTORE POP POP JUMP JUMPDEST PUSH1 0x0 DUP2 SGT PUSH2 0x388 JUMPI PUSH1 0x40 MLOAD PUSH32 0x8C379A000000000000000000000000000000000000000000000000000000000 DUP2 MSTORE PUSH1 0x4 ADD PUSH2 0x37F SWAP1 PUSH2 0x7F9 JUMP JUMPDEST PUSH1 0x40 MLOAD DUP1 SWAP2 SUB SWAP1 REVERT JUMPDEST DUP1 PUSH1 0x0 DUP1 CALLER PUSH20 0xFFFFFFFFFFFFFFFFFFFFFFFFFFFFFFFFFFFFFFFF AND PUSH20 0xFFFFFFFFFFFFFFFFFFFFFFFFFFFFFFFFFFFFFFFF AND DUP2 MSTORE PUSH1 0x20 ADD SWAP1 DUP2 MSTORE PUSH1 0x20 ADD PUSH1 0x0 KECCAK256 PUSH1 0x0 ADD SLOAD SLT ISZERO PUSH2 0x40C JUMPI PUSH1 0x40 MLOAD PUSH32 0x8C379A000000000000000000000000000000000000000000000000000000000 DUP2 MSTORE PUSH1 0x4 ADD PUSH2 0x403 SWAP1 PUSH2 0x7D9 JUMP JUMPDEST PUSH1 0x40 MLOAD DUP1 SWAP2 SUB SWAP1 REVERT JUMPDEST DUP1 PUSH1 0x0 DUP1 CALLER PUSH20 0xFFFFFFFFFFFFFFFFFFFFFFFFFFFFFFFFFFFFFFFF AND PUSH20 0xFFFFFFFFFFFFFFFFFFFFFFFFFFFFFFFFFFFFFFFF AND DUP2 MSTORE PUSH1 0x20 ADD SWAP1 DUP2 MSTORE PUSH1 0x20 ADD PUSH1 0x0 KECCAK256 PUSH1 0x0 ADD PUSH1 0x0 DUP3 DUP3 SLOAD PUSH2 0x45D SWAP2 SWAP1 PUSH2 0x91F JUMP JUMPDEST SWAP3 POP POP DUP2 SWAP1 SSTORE POP POP JUMP JUMPDEST DUP1 PUSH1 0x0 DUP1 CALLER PUSH20 0xFFFFFFFFFFFFFFFFFFFFFFFFFFFFFFFFFFFFFFFF AND PUSH20 0xFFFFFFFFFFFFFFFFFFFFFFFFFFFFFFFFFFFFFFFF AND DUP2 MSTORE PUSH1 0x20 ADD SWAP1 DUP2 MSTORE PUSH1 0x20 ADD PUSH1 0x0 KECCAK256 PUSH1 0x2 ADD SWAP1 DUP1 MLOAD SWAP1 PUSH1 0x20 ADD SWAP1 PUSH2 0x4BC SWAP3 SWAP2 SWAP1 PUSH2 0x4C0 JUMP JUMPDEST POP POP JUMP JUMPDEST DUP3 DUP1 SLOAD PUSH2 0x4CC SWAP1 PUSH2 0xA31 JUMP JUMPDEST SWAP1 PUSH1 0x0 MSTORE PUSH1 0x20 PUSH1 0x0 KECCAK256 SWAP1 PUSH1 0x1F ADD PUSH1 0x20 SWAP1 DIV DUP2 ADD SWAP3 DUP3 PUSH2 0x4EE JUMPI PUSH1 0x0 DUP6 SSTORE PUSH2 0x535 JUMP JUMPDEST DUP3 PUSH1 0x1F LT PUSH2 0x507 JUMPI DUP1 MLOAD PUSH1 0xFF NOT AND DUP4 DUP1 ADD OR DUP6 SSTORE PUSH2 0x535 JUMP JUMPDEST DUP3 DUP1 ADD PUSH1 0x1 ADD DUP6 SSTORE DUP3 ISZERO PUSH2 0x535 JUMPI SWAP2 DUP3 ADD JUMPDEST DUP3 DUP2 GT ISZERO PUSH2 0x534 JUMPI DUP3 MLOAD DUP3 SSTORE SWAP2 PUSH1 0x20 ADD SWAP2 SWAP1 PUSH1 0x1 ADD SWAP1 PUSH2 0x519 JUMP JUMPDEST JUMPDEST POP SWAP1 POP PUSH2 0x542 SWAP2 SWAP1 PUSH2 0x546 JUMP JUMPDEST POP SWAP1 JUMP JUMPDEST JUMPDEST DUP1 DUP3 GT ISZERO PUSH2 0x55F JUMPI PUSH1 0x0 DUP2 PUSH1 0x0 SWAP1 SSTORE POP PUSH1 0x1 ADD PUSH2 0x547 JUMP JUMPDEST POP SWAP1 JUMP JUMPDEST PUSH1 0x0 PUSH2 0x576 PUSH2 0x571 DUP5 PUSH2 0x83E JUMP JUMPDEST PUSH2 0x819 JUMP JUMPDEST SWAP1 POP DUP3 DUP2 MSTORE PUSH1 0x20 DUP2 ADD DUP5 DUP5 DUP5 ADD GT ISZERO PUSH2 0x592 JUMPI PUSH2 0x591 PUSH2 0xB26 JUMP JUMPDEST JUMPDEST PUSH2 0x59D DUP5 DUP3 DUP6 PUSH2 0x9EF JUMP JUMPDEST POP SWAP4 SWAP3 POP POP POP JUMP JUMPDEST PUSH1 0x0 DUP2 CALLDATALOAD SWAP1 POP PUSH2 0x5B4 DUP2 PUSH2 0xC33 JUMP JUMPDEST SWAP3 SWAP2 POP POP JUMP JUMPDEST PUSH1 0x0 DUP2 CALLDATALOAD SWAP1 POP PUSH2 0x5C9 DUP2 PUSH2 0xC4A JUMP JUMPDEST SWAP3 SWAP2 POP POP JUMP JUMPDEST PUSH1 0x0 DUP3 PUSH1 0x1F DUP4 ADD SLT PUSH2 0x5E4 JUMPI PUSH2 0x5E3 PUSH2 0xB21 JUMP JUMPDEST JUMPDEST DUP2 CALLDATALOAD PUSH2 0x5F4 DUP5 DUP3 PUSH1 0x20 DUP7 ADD PUSH2 0x563 JUMP JUMPDEST SWAP2 POP POP SWAP3 SWAP2 POP POP JUMP JUMPDEST PUSH1 0x0 PUSH1 0x20 DUP3 DUP5 SUB SLT ISZERO PUSH2 0x613 JUMPI PUSH2 0x612 PUSH2 0xB30 JUMP JUMPDEST JUMPDEST PUSH1 0x0 PUSH2 0x621 DUP5 DUP3 DUP6 ADD PUSH2 0x5A5 JUMP JUMPDEST SWAP2 POP POP SWAP3 SWAP2 POP POP JUMP JUMPDEST PUSH1 0x0 PUSH1 0x20 DUP3 DUP5 SUB SLT ISZERO PUSH2 0x640 JUMPI PUSH2 0x63F PUSH2 0xB30 JUMP JUMPDEST JUMPDEST PUSH1 0x0 PUSH2 0x64E DUP5 DUP3 DUP6 ADD PUSH2 0x5BA JUMP JUMPDEST SWAP2 POP POP SWAP3 SWAP2 POP POP JUMP JUMPDEST PUSH1 0x0 PUSH1 0x20 DUP3 DUP5 SUB SLT ISZERO PUSH2 0x66D JUMPI PUSH2 0x66C PUSH2 0xB30 JUMP JUMPDEST JUMPDEST PUSH1 0x0 DUP3 ADD CALLDATALOAD PUSH8 0xFFFFFFFFFFFFFFFF DUP2 GT ISZERO PUSH2 0x68B JUMPI PUSH2 0x68A PUSH2 0xB2B JUMP JUMPDEST JUMPDEST PUSH2 0x697 DUP5 DUP3 DUP6 ADD PUSH2 0x5CF JUMP JUMPDEST SWAP2 POP POP SWAP3 SWAP2 POP POP JUMP JUMPDEST PUSH2 0x6A9 DUP2 PUSH2 0x9C5 JUMP JUMPDEST DUP3 MSTORE POP POP JUMP JUMPDEST PUSH1 0x0 PUSH2 0x6BA DUP3 PUSH2 0x86F JUMP JUMPDEST PUSH2 0x6C4 DUP2 DUP6 PUSH2 0x87A JUMP JUMPDEST SWAP4 POP PUSH2 0x6D4 DUP2 DUP6 PUSH1 0x20 DUP7 ADD PUSH2 0x9FE JUMP JUMPDEST PUSH2 0x6DD DUP2 PUSH2 0xB35 JUMP JUMPDEST DUP5 ADD SWAP2 POP POP SWAP3 SWAP2 POP POP JUMP JUMPDEST PUSH1 0x0 PUSH2 0x6F5 PUSH1 0x26 DUP4 PUSH2 0x87A JUMP JUMPDEST SWAP2 POP PUSH2 0x700 DUP3 PUSH2 0xB46 JUMP JUMPDEST PUSH1 0x40 DUP3 ADD SWAP1 POP SWAP2 SWAP1 POP JUMP JUMPDEST PUSH1 0x0 PUSH2 0x718 PUSH1 0x37 DUP4 PUSH2 0x87A JUMP JUMPDEST SWAP2 POP PUSH2 0x723 DUP3 PUSH2 0xB95 JUMP JUMPDEST PUSH1 0x40 DUP3 ADD SWAP1 POP SWAP2 SWAP1 POP JUMP JUMPDEST PUSH1 0x0 PUSH2 0x73B PUSH1 0x25 DUP4 PUSH2 0x87A JUMP JUMPDEST SWAP2 POP PUSH2 0x746 DUP3 PUSH2 0xBE4 JUMP JUMPDEST PUSH1 0x40 DUP3 ADD SWAP1 POP SWAP2 SWAP1 POP JUMP JUMPDEST PUSH1 0x0 PUSH1 0xA0 DUP3 ADD SWAP1 POP PUSH2 0x766 PUSH1 0x0 DUP4 ADD DUP9 PUSH2 0x6A0 JUMP JUMPDEST DUP2 DUP2 SUB PUSH1 0x20 DUP4 ADD MSTORE PUSH2 0x778 DUP2 DUP8 PUSH2 0x6AF JUMP JUMPDEST SWAP1 POP DUP2 DUP2 SUB PUSH1 0x40 DUP4 ADD MSTORE PUSH2 0x78C DUP2 DUP7 PUSH2 0x6AF JUMP JUMPDEST SWAP1 POP PUSH2 0x79B PUSH1 0x60 DUP4 ADD DUP6 PUSH2 0x6A0 JUMP JUMPDEST DUP2 DUP2 SUB PUSH1 0x80 DUP4 ADD MSTORE PUSH2 0x7AD DUP2 DUP5 PUSH2 0x6AF JUMP JUMPDEST SWAP1 POP SWAP7 SWAP6 POP POP POP POP POP POP JUMP JUMPDEST PUSH1 0x0 PUSH1 0x20 DUP3 ADD SWAP1 POP DUP2 DUP2 SUB PUSH1 0x0 DUP4 ADD MSTORE PUSH2 0x7D2 DUP2 PUSH2 0x6E8 JUMP JUMPDEST SWAP1 POP SWAP2 SWAP1 POP JUMP JUMPDEST PUSH1 0x0 PUSH1 0x20 DUP3 ADD SWAP1 POP DUP2 DUP2 SUB PUSH1 0x0 DUP4 ADD MSTORE PUSH2 0x7F2 DUP2 PUSH2 0x70B JUMP JUMPDEST SWAP1 POP SWAP2 SWAP1 POP JUMP JUMPDEST PUSH1 0x0 PUSH1 0x20 DUP3 ADD SWAP1 POP DUP2 DUP2 SUB PUSH1 0x0 DUP4 ADD MSTORE PUSH2 0x812 DUP2 PUSH2 0x72E JUMP JUMPDEST SWAP1 POP SWAP2 SWAP1 POP JUMP JUMPDEST PUSH1 0x0 PUSH2 0x823 PUSH2 0x834 JUMP JUMPDEST SWAP1 POP PUSH2 0x82F DUP3 DUP3 PUSH2 0xA63 JUMP JUMPDEST SWAP2 SWAP1 POP JUMP JUMPDEST PUSH1 0x0 PUSH1 0x40 MLOAD SWAP1 POP SWAP1 JUMP JUMPDEST PUSH1 0x0 PUSH8 0xFFFFFFFFFFFFFFFF DUP3 GT ISZERO PUSH2 0x859 JUMPI PUSH2 0x858 PUSH2 0xAF2 JUMP JUMPDEST JUMPDEST PUSH2 0x862 DUP3 PUSH2 0xB35 JUMP JUMPDEST SWAP1 POP PUSH1 0x20 DUP2 ADD SWAP1 POP SWAP2 SWAP1 POP JUMP JUMPDEST PUSH1 0x0 DUP2 MLOAD SWAP1 POP SWAP2 SWAP1 POP JUMP JUMPDEST PUSH1 0x0 DUP3 DUP3 MSTORE PUSH1 0x20 DUP3 ADD SWAP1 POP SWAP3 SWAP2 POP POP JUMP JUMPDEST PUSH1 0x0 PUSH2 0x896 DUP3 PUSH2 0x9C5 JUMP JUMPDEST SWAP2 POP PUSH2 0x8A1 DUP4 PUSH2 0x9C5 JUMP JUMPDEST SWAP3 POP DUP2 PUSH32 0x7FFFFFFFFFFFFFFFFFFFFFFFFFFFFFFFFFFFFFFFFFFFFFFFFFFFFFFFFFFFFFFF SUB DUP4 SGT PUSH1 0x0 DUP4 SLT ISZERO AND ISZERO PUSH2 0x8DC JUMPI PUSH2 0x8DB PUSH2 0xA94 JUMP JUMPDEST JUMPDEST DUP2 PUSH32 0x8000000000000000000000000000000000000000000000000000000000000000 SUB DUP4 SLT PUSH1 0x0 DUP4 SLT AND ISZERO PUSH2 0x914 JUMPI PUSH2 0x913 PUSH2 0xA94 JUMP JUMPDEST JUMPDEST DUP3 DUP3 ADD SWAP1 POP SWAP3 SWAP2 POP POP JUMP JUMPDEST PUSH1 0x0 PUSH2 0x92A DUP3 PUSH2 0x9C5 JUMP JUMPDEST SWAP2 POP PUSH2 0x935 DUP4 PUSH2 0x9C5 JUMP JUMPDEST SWAP3 POP DUP3 PUSH32 0x8000000000000000000000000000000000000000000000000000000000000000 ADD DUP3 SLT PUSH1 0x0 DUP5 SLT ISZERO AND ISZERO PUSH2 0x970 JUMPI PUSH2 0x96F PUSH2 0xA94 JUMP JUMPDEST JUMPDEST DUP3 PUSH32 0x7FFFFFFFFFFFFFFFFFFFFFFFFFFFFFFFFFFFFFFFFFFFFFFFFFFFFFFFFFFFFFFF ADD DUP3 SGT PUSH1 0x0 DUP5 SLT AND ISZERO PUSH2 0x9A8 JUMPI PUSH2 0x9A7 PUSH2 0xA94 JUMP JUMPDEST JUMPDEST DUP3 DUP3 SUB SWAP1 POP SWAP3 SWAP2 POP POP JUMP JUMPDEST PUSH1 0x0 PUSH2 0x9BE DUP3 PUSH2 0x9CF JUMP JUMPDEST SWAP1 POP SWAP2 SWAP1 POP JUMP JUMPDEST PUSH1 0x0 DUP2 SWAP1 POP SWAP2 SWAP1 POP JUMP JUMPDEST PUSH1 0x0 PUSH20 0xFFFFFFFFFFFFFFFFFFFFFFFFFFFFFFFFFFFFFFFF DUP3 AND SWAP1 POP SWAP2 SWAP1 POP JUMP JUMPDEST DUP3 DUP2 DUP4 CALLDATACOPY PUSH1 0x0 DUP4 DUP4 ADD MSTORE POP POP POP JUMP JUMPDEST PUSH1 0x0 JUMPDEST DUP4 DUP2 LT ISZERO PUSH2 0xA1C JUMPI DUP1 DUP3 ADD MLOAD DUP2 DUP5 ADD MSTORE PUSH1 0x20 DUP2 ADD SWAP1 POP PUSH2 0xA01 JUMP JUMPDEST DUP4 DUP2 GT ISZERO PUSH2 0xA2B JUMPI PUSH1 0x0 DUP5 DUP5 ADD MSTORE JUMPDEST POP POP POP POP JUMP JUMPDEST PUSH1 0x0 PUSH1 0x2 DUP3 DIV SWAP1 POP PUSH1 0x1 DUP3 AND DUP1 PUSH2 0xA49 JUMPI PUSH1 0x7F DUP3 AND SWAP2 POP JUMPDEST PUSH1 0x20 DUP3 LT DUP2 EQ ISZERO PUSH2 0xA5D JUMPI PUSH2 0xA5C PUSH2 0xAC3 JUMP JUMPDEST JUMPDEST POP SWAP2 SWAP1 POP JUMP JUMPDEST PUSH2 0xA6C DUP3 PUSH2 0xB35 JUMP JUMPDEST DUP2 ADD DUP2 DUP2 LT PUSH8 0xFFFFFFFFFFFFFFFF DUP3 GT OR ISZERO PUSH2 0xA8B JUMPI PUSH2 0xA8A PUSH2 0xAF2 JUMP JUMPDEST JUMPDEST DUP1 PUSH1 0x40 MSTORE POP POP POP JUMP JUMPDEST PUSH32 0x4E487B7100000000000000000000000000000000000000000000000000000000 PUSH1 0x0 MSTORE PUSH1 0x11 PUSH1 0x4 MSTORE PUSH1 0x24 PUSH1 0x0 REVERT JUMPDEST PUSH32 0x4E487B7100000000000000000000000000000000000000000000000000000000 PUSH1 0x0 MSTORE PUSH1 0x22 PUSH1 0x4 MSTORE PUSH1 0x24 PUSH1 0x0 REVERT JUMPDEST PUSH32 0x4E487B7100000000000000000000000000000000000000000000000000000000 PUSH1 0x0 MSTORE PUSH1 0x41 PUSH1 0x4 MSTORE PUSH1 0x24 PUSH1 0x0 REVERT JUMPDEST PUSH1 0x0 DUP1 REVERT JUMPDEST PUSH1 0x0 DUP1 REVERT JUMPDEST PUSH1 0x0 DUP1 REVERT JUMPDEST PUSH1 0x0 DUP1 REVERT JUMPDEST PUSH1 0x0 PUSH1 0x1F NOT PUSH1 0x1F DUP4 ADD AND SWAP1 POP SWAP2 SWAP1 POP JUMP JUMPDEST PUSH32 0x73616C646F207061726120696E677265736172206465626520736572206D6179 PUSH1 0x0 DUP3 ADD MSTORE PUSH32 0x6F72206120300000000000000000000000000000000000000000000000000000 PUSH1 0x20 DUP3 ADD MSTORE POP JUMP JUMPDEST PUSH32 0x73616C646F20706172612072657469726172206E6F206465626520736572206D PUSH1 0x0 DUP3 ADD MSTORE PUSH32 0x61796F7220612073752073616C646F206163747561726C000000000000000000 PUSH1 0x20 DUP3 ADD MSTORE POP JUMP JUMPDEST PUSH32 0x73616C646F20706172612072657469726172206465626520736572206D61796F PUSH1 0x0 DUP3 ADD MSTORE PUSH32 0x7220612030000000000000000000000000000000000000000000000000000000 PUSH1 0x20 DUP3 ADD MSTORE POP JUMP JUMPDEST PUSH2 0xC3C DUP2 PUSH2 0x9B3 JUMP JUMPDEST DUP2 EQ PUSH2 0xC47 JUMPI PUSH1 0x0 DUP1 REVERT JUMPDEST POP JUMP JUMPDEST PUSH2 0xC53 DUP2 PUSH2 0x9C5 JUMP JUMPDEST DUP2 EQ PUSH2 0xC5E JUMPI PUSH1 0x0 DUP1 REVERT JUMPDEST POP JUMP INVALID LOG2 PUSH5 0x6970667358 0x22 SLT KECCAK256 SWAP2 ISZERO 0xBB DIV DUP9 0xE0 PUSH6 0x52DBDC69C7A8 REVERT 0xA7 0x2C CHAINID DUP10 CALLDATALOAD 0x4C 0x26 0xB3 0xD2 DUP4 DUP12 PUSH13 0x23754BD19F8664736F6C634300 ADDMOD SMOD STOP CALLER "
				},
				"gasEstimates": {
					"creation": {
						"codeDepositCost": "644600",
						"executionCost": "676",
						"totalCost": "645276"
					},
					"external": {
						"addCuentaAhorro(string)": "infinite",
						"ingresarSaldo(int256)": "infinite",
						"mappingCuentaAhorro(address)": "infinite",
						"retirarSaldo(int256)": "infinite"
					}
				},
				"methodIdentifiers": {
					"addCuentaAhorro(string)": "e5c66d67",
					"ingresarSaldo(int256)": "93ba1e60",
					"mappingCuentaAhorro(address)": "63e4cdcc",
					"retirarSaldo(int256)": "c28a41ec"
				}
			},
			"storageLayout": {
				"storage": [
					{
						"astId": 17,
						"contract": "contracts/Ejercicio1CuentaAhorro.sol:Ejercicio1CuentaAhorro",
						"label": "mappingCuentaAhorro",
						"offset": 0,
						"slot": "0",
						"type": "t_mapping(t_address,t_struct(CuentaAhorro)12_storage)"
					}
				],
				"types": {
					"t_address": {
						"encoding": "inplace",
						"label": "address",
						"numberOfBytes": "20"
					},
					"t_int256": {
						"encoding": "inplace",
						"label": "int256",
						"numberOfBytes": "32"
					},
					"t_mapping(t_address,t_struct(CuentaAhorro)12_storage)": {
						"encoding": "mapping",
						"key": "t_address",
						"label": "mapping(address => struct Ejercicio1CuentaAhorro.CuentaAhorro)",
						"numberOfBytes": "32",
						"value": "t_struct(CuentaAhorro)12_storage"
					},
					"t_string_storage": {
						"encoding": "bytes",
						"label": "string",
						"numberOfBytes": "32"
					},
					"t_struct(CuentaAhorro)12_storage": {
						"encoding": "inplace",
						"label": "struct Ejercicio1CuentaAhorro.CuentaAhorro",
						"members": [
							{
								"astId": 3,
								"contract": "contracts/Ejercicio1CuentaAhorro.sol:Ejercicio1CuentaAhorro",
								"label": "saldo",
								"offset": 0,
								"slot": "0",
								"type": "t_int256"
							},
							{
								"astId": 5,
								"contract": "contracts/Ejercicio1CuentaAhorro.sol:Ejercicio1CuentaAhorro",
								"label": "addressCuenta",
								"offset": 0,
								"slot": "1",
								"type": "t_string_storage"
							},
							{
								"astId": 7,
								"contract": "contracts/Ejercicio1CuentaAhorro.sol:Ejercicio1CuentaAhorro",
								"label": "nombre",
								"offset": 0,
								"slot": "2",
								"type": "t_string_storage"
							},
							{
								"astId": 9,
								"contract": "contracts/Ejercicio1CuentaAhorro.sol:Ejercicio1CuentaAhorro",
								"label": "edad",
								"offset": 0,
								"slot": "3",
								"type": "t_int256"
							},
							{
								"astId": 11,
								"contract": "contracts/Ejercicio1CuentaAhorro.sol:Ejercicio1CuentaAhorro",
								"label": "colorFavorito",
								"offset": 0,
								"slot": "4",
								"type": "t_string_storage"
							}
						],
						"numberOfBytes": "160"
					}
				}
			},
			"userdoc": {
				"kind": "user",
				"methods": {},
				"version": 1
			}
		}
	}
}