{
	"contracts/Ejercicio1CuentaAhorro.sol": {
		"Ejercicio1CuentaAhorro": {
			"abi": [
				{
					"inputs": [
						{
							"internalType": "int256",
							"name": "saldoParaIngresar",
							"type": "int256"
						}
					],
					"name": "addCuentaAhorro",
					"outputs": [],
					"stateMutability": "nonpayable",
					"type": "function"
				},
				{
					"inputs": [
						{
							"internalType": "int256",
							"name": "saldoParaIngresar",
							"type": "int256"
						}
					],
					"name": "ingresarSaldo",
					"outputs": [],
					"stateMutability": "nonpayable",
					"type": "function"
				},
				{
					"inputs": [
						{
							"internalType": "address",
							"name": "",
							"type": "address"
						}
					],
					"name": "mappingCuentaAhorro",
					"outputs": [
						{
							"internalType": "int256",
							"name": "saldo",
							"type": "int256"
						},
						{
							"internalType": "string",
							"name": "addressCuenta",
							"type": "string"
						},
						{
							"internalType": "string",
							"name": "nombre",
							"type": "string"
						},
						{
							"internalType": "int256",
							"name": "edad",
							"type": "int256"
						},
						{
							"internalType": "string",
							"name": "colorFavorito",
							"type": "string"
						}
					],
					"stateMutability": "view",
					"type": "function"
				},
				{
					"inputs": [
						{
							"internalType": "int256",
							"name": "saldoParaRetirar",
							"type": "int256"
						}
					],
					"name": "retirarSaldo",
					"outputs": [],
					"stateMutability": "nonpayable",
					"type": "function"
				}
			],
			"devdoc": {
				"kind": "dev",
				"methods": {},
				"version": 1
			},
			"evm": {
				"assembly": "    /* \"contracts/Ejercicio1CuentaAhorro.sol\":2112:3574  contract Ejercicio1CuentaAhorro {\r... */\n  mstore(0x40, 0x80)\n  callvalue\n  dup1\n  iszero\n  tag_1\n  jumpi\n  0x00\n  dup1\n  revert\ntag_1:\n  pop\n  dataSize(sub_0)\n  dup1\n  dataOffset(sub_0)\n  0x00\n  codecopy\n  0x00\n  return\nstop\n\nsub_0: assembly {\n        /* \"contracts/Ejercicio1CuentaAhorro.sol\":2112:3574  contract Ejercicio1CuentaAhorro {\r... */\n      mstore(0x40, 0x80)\n      callvalue\n      dup1\n      iszero\n      tag_1\n      jumpi\n      0x00\n      dup1\n      revert\n    tag_1:\n      pop\n      jumpi(tag_2, lt(calldatasize, 0x04))\n      shr(0xe0, calldataload(0x00))\n      dup1\n      0x63e4cdcc\n      eq\n      tag_3\n      jumpi\n      dup1\n      0x72460240\n      eq\n      tag_4\n      jumpi\n      dup1\n      0x93ba1e60\n      eq\n      tag_5\n      jumpi\n      dup1\n      0xc28a41ec\n      eq\n      tag_6\n      jumpi\n    tag_2:\n      0x00\n      dup1\n      revert\n        /* \"contracts/Ejercicio1CuentaAhorro.sol\":2434:2494  mapping (address => CuentaAhorro) public mappingCuentaAhorro */\n    tag_3:\n      tag_7\n      0x04\n      dup1\n      calldatasize\n      sub\n      dup2\n      add\n      swap1\n      tag_8\n      swap2\n      swap1\n      tag_9\n      jump\t// in\n    tag_8:\n      tag_10\n      jump\t// in\n    tag_7:\n      mload(0x40)\n      tag_11\n      swap6\n      swap5\n      swap4\n      swap3\n      swap2\n      swap1\n      tag_12\n      jump\t// in\n    tag_11:\n      mload(0x40)\n      dup1\n      swap2\n      sub\n      swap1\n      return\n        /* \"contracts/Ejercicio1CuentaAhorro.sol\":3507:3571  function addCuentaAhorro (int saldoParaIngresar) public {\r... */\n    tag_4:\n      tag_13\n      0x04\n      dup1\n      calldatasize\n      sub\n      dup2\n      add\n      swap1\n      tag_14\n      swap2\n      swap1\n      tag_15\n      jump\t// in\n    tag_14:\n      tag_16\n      jump\t// in\n    tag_13:\n      stop\n        /* \"contracts/Ejercicio1CuentaAhorro.sol\":2931:3145  function ingresarSaldo (int saldoParaIngresar) public {\r... */\n    tag_5:\n      tag_17\n      0x04\n      dup1\n      calldatasize\n      sub\n      dup2\n      add\n      swap1\n      tag_18\n      swap2\n      swap1\n      tag_15\n      jump\t// in\n    tag_18:\n      tag_19\n      jump\t// in\n    tag_17:\n      stop\n        /* \"contracts/Ejercicio1CuentaAhorro.sol\":3153:3499  function retirarSaldo (int saldoParaRetirar) public {\r... */\n    tag_6:\n      tag_20\n      0x04\n      dup1\n      calldatasize\n      sub\n      dup2\n      add\n      swap1\n      tag_21\n      swap2\n      swap1\n      tag_15\n      jump\t// in\n    tag_21:\n      tag_22\n      jump\t// in\n    tag_20:\n      stop\n        /* \"contracts/Ejercicio1CuentaAhorro.sol\":2434:2494  mapping (address => CuentaAhorro) public mappingCuentaAhorro */\n    tag_10:\n      mstore(0x20, 0x00)\n      dup1\n      0x00\n      mstore\n      keccak256(0x00, 0x40)\n      0x00\n      swap2\n      pop\n      swap1\n      pop\n      dup1\n      0x00\n      add\n      sload\n      swap1\n      dup1\n      0x01\n      add\n      dup1\n      sload\n      tag_23\n      swap1\n      tag_24\n      jump\t// in\n    tag_23:\n      dup1\n      0x1f\n      add\n      0x20\n      dup1\n      swap2\n      div\n      mul\n      0x20\n      add\n      mload(0x40)\n      swap1\n      dup2\n      add\n      0x40\n      mstore\n      dup1\n      swap3\n      swap2\n      swap1\n      dup2\n      dup2\n      mstore\n      0x20\n      add\n      dup3\n      dup1\n      sload\n      tag_25\n      swap1\n      tag_24\n      jump\t// in\n    tag_25:\n      dup1\n      iszero\n      tag_26\n      jumpi\n      dup1\n      0x1f\n      lt\n      tag_27\n      jumpi\n      0x0100\n      dup1\n      dup4\n      sload\n      div\n      mul\n      dup4\n      mstore\n      swap2\n      0x20\n      add\n      swap2\n      jump(tag_26)\n    tag_27:\n      dup3\n      add\n      swap2\n      swap1\n      0x00\n      mstore\n      keccak256(0x00, 0x20)\n      swap1\n    tag_28:\n      dup2\n      sload\n      dup2\n      mstore\n      swap1\n      0x01\n      add\n      swap1\n      0x20\n      add\n      dup1\n      dup4\n      gt\n      tag_28\n      jumpi\n      dup3\n      swap1\n      sub\n      0x1f\n      and\n      dup3\n      add\n      swap2\n    tag_26:\n      pop\n      pop\n      pop\n      pop\n      pop\n      swap1\n      dup1\n      0x02\n      add\n      dup1\n      sload\n      tag_29\n      swap1\n      tag_24\n      jump\t// in\n    tag_29:\n      dup1\n      0x1f\n      add\n      0x20\n      dup1\n      swap2\n      div\n      mul\n      0x20\n      add\n      mload(0x40)\n      swap1\n      dup2\n      add\n      0x40\n      mstore\n      dup1\n      swap3\n      swap2\n      swap1\n      dup2\n      dup2\n      mstore\n      0x20\n      add\n      dup3\n      dup1\n      sload\n      tag_30\n      swap1\n      tag_24\n      jump\t// in\n    tag_30:\n      dup1\n      iszero\n      tag_31\n      jumpi\n      dup1\n      0x1f\n      lt\n      tag_32\n      jumpi\n      0x0100\n      dup1\n      dup4\n      sload\n      div\n      mul\n      dup4\n      mstore\n      swap2\n      0x20\n      add\n      swap2\n      jump(tag_31)\n    tag_32:\n      dup3\n      add\n      swap2\n      swap1\n      0x00\n      mstore\n      keccak256(0x00, 0x20)\n      swap1\n    tag_33:\n      dup2\n      sload\n      dup2\n      mstore\n      swap1\n      0x01\n      add\n      swap1\n      0x20\n      add\n      dup1\n      dup4\n      gt\n      tag_33\n      jumpi\n      dup3\n      swap1\n      sub\n      0x1f\n      and\n      dup3\n      add\n      swap2\n    tag_31:\n      pop\n      pop\n      pop\n      pop\n      pop\n      swap1\n      dup1\n      0x03\n      add\n      sload\n      swap1\n      dup1\n      0x04\n      add\n      dup1\n      sload\n      tag_34\n      swap1\n      tag_24\n      jump\t// in\n    tag_34:\n      dup1\n      0x1f\n      add\n      0x20\n      dup1\n      swap2\n      div\n      mul\n      0x20\n      add\n      mload(0x40)\n      swap1\n      dup2\n      add\n      0x40\n      mstore\n      dup1\n      swap3\n      swap2\n      swap1\n      dup2\n      dup2\n      mstore\n      0x20\n      add\n      dup3\n      dup1\n      sload\n      tag_35\n      swap1\n      tag_24\n      jump\t// in\n    tag_35:\n      dup1\n      iszero\n      tag_36\n      jumpi\n      dup1\n      0x1f\n      lt\n      tag_37\n      jumpi\n      0x0100\n      dup1\n      dup4\n      sload\n      div\n      mul\n      dup4\n      mstore\n      swap2\n      0x20\n      add\n      swap2\n      jump(tag_36)\n    tag_37:\n      dup3\n      add\n      swap2\n      swap1\n      0x00\n      mstore\n      keccak256(0x00, 0x20)\n      swap1\n    tag_38:\n      dup2\n      sload\n      dup2\n      mstore\n      swap1\n      0x01\n      add\n      swap1\n      0x20\n      add\n      dup1\n      dup4\n      gt\n      tag_38\n      jumpi\n      dup3\n      swap1\n      sub\n      0x1f\n      and\n      dup3\n      add\n      swap2\n    tag_36:\n      pop\n      pop\n      pop\n      pop\n      pop\n      swap1\n      pop\n      dup6\n      jump\t// out\n        /* \"contracts/Ejercicio1CuentaAhorro.sol\":3507:3571  function addCuentaAhorro (int saldoParaIngresar) public {\r... */\n    tag_16:\n      pop\n      jump\t// out\n        /* \"contracts/Ejercicio1CuentaAhorro.sol\":2931:3145  function ingresarSaldo (int saldoParaIngresar) public {\r... */\n    tag_19:\n        /* \"contracts/Ejercicio1CuentaAhorro.sol\":3024:3025  0 */\n      0x00\n        /* \"contracts/Ejercicio1CuentaAhorro.sol\":3004:3021  saldoParaIngresar */\n      dup2\n        /* \"contracts/Ejercicio1CuentaAhorro.sol\":3004:3025  saldoParaIngresar > 0 */\n      sgt\n        /* \"contracts/Ejercicio1CuentaAhorro.sol\":2996:3068  require(saldoParaIngresar > 0, \"saldo para ingresar debe ser mayor a 0\") */\n      tag_41\n      jumpi\n      mload(0x40)\n      0x08c379a000000000000000000000000000000000000000000000000000000000\n      dup2\n      mstore\n      0x04\n      add\n      tag_42\n      swap1\n      tag_43\n      jump\t// in\n    tag_42:\n      mload(0x40)\n      dup1\n      swap2\n      sub\n      swap1\n      revert\n    tag_41:\n        /* \"contracts/Ejercicio1CuentaAhorro.sol\":3120:3137  saldoParaIngresar */\n      dup1\n        /* \"contracts/Ejercicio1CuentaAhorro.sol\":3079:3098  mappingCuentaAhorro */\n      0x00\n        /* \"contracts/Ejercicio1CuentaAhorro.sol\":3079:3110  mappingCuentaAhorro[msg.sender] */\n      dup1\n        /* \"contracts/Ejercicio1CuentaAhorro.sol\":3099:3109  msg.sender */\n      caller\n        /* \"contracts/Ejercicio1CuentaAhorro.sol\":3079:3110  mappingCuentaAhorro[msg.sender] */\n      0xffffffffffffffffffffffffffffffffffffffff\n      and\n      0xffffffffffffffffffffffffffffffffffffffff\n      and\n      dup2\n      mstore\n      0x20\n      add\n      swap1\n      dup2\n      mstore\n      0x20\n      add\n      0x00\n      keccak256\n        /* \"contracts/Ejercicio1CuentaAhorro.sol\":3079:3116  mappingCuentaAhorro[msg.sender].saldo */\n      0x00\n      add\n      0x00\n        /* \"contracts/Ejercicio1CuentaAhorro.sol\":3079:3137  mappingCuentaAhorro[msg.sender].saldo += saldoParaIngresar */\n      dup3\n      dup3\n      sload\n      tag_44\n      swap2\n      swap1\n      tag_45\n      jump\t// in\n    tag_44:\n      swap3\n      pop\n      pop\n      dup2\n      swap1\n      sstore\n      pop\n        /* \"contracts/Ejercicio1CuentaAhorro.sol\":2931:3145  function ingresarSaldo (int saldoParaIngresar) public {\r... */\n      pop\n      jump\t// out\n        /* \"contracts/Ejercicio1CuentaAhorro.sol\":3153:3499  function retirarSaldo (int saldoParaRetirar) public {\r... */\n    tag_22:\n        /* \"contracts/Ejercicio1CuentaAhorro.sol\":3243:3244  0 */\n      0x00\n        /* \"contracts/Ejercicio1CuentaAhorro.sol\":3224:3240  saldoParaRetirar */\n      dup2\n        /* \"contracts/Ejercicio1CuentaAhorro.sol\":3224:3244  saldoParaRetirar > 0 */\n      sgt\n        /* \"contracts/Ejercicio1CuentaAhorro.sol\":3216:3286  require(saldoParaRetirar > 0, \"saldo para retirar debe ser mayor a 0\") */\n      tag_47\n      jumpi\n      mload(0x40)\n      0x08c379a000000000000000000000000000000000000000000000000000000000\n      dup2\n      mstore\n      0x04\n      add\n      tag_48\n      swap1\n      tag_49\n      jump\t// in\n    tag_48:\n      mload(0x40)\n      dup1\n      swap2\n      sub\n      swap1\n      revert\n    tag_47:\n        /* \"contracts/Ejercicio1CuentaAhorro.sol\":3346:3362  saldoParaRetirar */\n      dup1\n        /* \"contracts/Ejercicio1CuentaAhorro.sol\":3305:3324  mappingCuentaAhorro */\n      0x00\n        /* \"contracts/Ejercicio1CuentaAhorro.sol\":3305:3336  mappingCuentaAhorro[msg.sender] */\n      dup1\n        /* \"contracts/Ejercicio1CuentaAhorro.sol\":3325:3335  msg.sender */\n      caller\n        /* \"contracts/Ejercicio1CuentaAhorro.sol\":3305:3336  mappingCuentaAhorro[msg.sender] */\n      0xffffffffffffffffffffffffffffffffffffffff\n      and\n      0xffffffffffffffffffffffffffffffffffffffff\n      and\n      dup2\n      mstore\n      0x20\n      add\n      swap1\n      dup2\n      mstore\n      0x20\n      add\n      0x00\n      keccak256\n        /* \"contracts/Ejercicio1CuentaAhorro.sol\":3305:3342  mappingCuentaAhorro[msg.sender].saldo */\n      0x00\n      add\n      sload\n        /* \"contracts/Ejercicio1CuentaAhorro.sol\":3305:3362  mappingCuentaAhorro[msg.sender].saldo >= saldoParaRetirar */\n      slt\n      iszero\n        /* \"contracts/Ejercicio1CuentaAhorro.sol\":3297:3423  require(mappingCuentaAhorro[msg.sender].saldo >= saldoParaRetirar , \"saldo para retirar no debe ser mayor a su saldo actuarl\") */\n      tag_50\n      jumpi\n      mload(0x40)\n      0x08c379a000000000000000000000000000000000000000000000000000000000\n      dup2\n      mstore\n      0x04\n      add\n      tag_51\n      swap1\n      tag_52\n      jump\t// in\n    tag_51:\n      mload(0x40)\n      dup1\n      swap2\n      sub\n      swap1\n      revert\n    tag_50:\n        /* \"contracts/Ejercicio1CuentaAhorro.sol\":3475:3491  saldoParaRetirar */\n      dup1\n        /* \"contracts/Ejercicio1CuentaAhorro.sol\":3434:3453  mappingCuentaAhorro */\n      0x00\n        /* \"contracts/Ejercicio1CuentaAhorro.sol\":3434:3465  mappingCuentaAhorro[msg.sender] */\n      dup1\n        /* \"contracts/Ejercicio1CuentaAhorro.sol\":3454:3464  msg.sender */\n      caller\n        /* \"contracts/Ejercicio1CuentaAhorro.sol\":3434:3465  mappingCuentaAhorro[msg.sender] */\n      0xffffffffffffffffffffffffffffffffffffffff\n      and\n      0xffffffffffffffffffffffffffffffffffffffff\n      and\n      dup2\n      mstore\n      0x20\n      add\n      swap1\n      dup2\n      mstore\n      0x20\n      add\n      0x00\n      keccak256\n        /* \"contracts/Ejercicio1CuentaAhorro.sol\":3434:3471  mappingCuentaAhorro[msg.sender].saldo */\n      0x00\n      add\n      0x00\n        /* \"contracts/Ejercicio1CuentaAhorro.sol\":3434:3491  mappingCuentaAhorro[msg.sender].saldo -= saldoParaRetirar */\n      dup3\n      dup3\n      sload\n      tag_53\n      swap2\n      swap1\n      tag_54\n      jump\t// in\n    tag_53:\n      swap3\n      pop\n      pop\n      dup2\n      swap1\n      sstore\n      pop\n        /* \"contracts/Ejercicio1CuentaAhorro.sol\":3153:3499  function retirarSaldo (int saldoParaRetirar) public {\r... */\n      pop\n      jump\t// out\n        /* \"#utility.yul\":7:146   */\n    tag_56:\n        /* \"#utility.yul\":53:58   */\n      0x00\n        /* \"#utility.yul\":91:97   */\n      dup2\n        /* \"#utility.yul\":78:98   */\n      calldataload\n        /* \"#utility.yul\":69:98   */\n      swap1\n      pop\n        /* \"#utility.yul\":107:140   */\n      tag_58\n        /* \"#utility.yul\":134:139   */\n      dup2\n        /* \"#utility.yul\":107:140   */\n      tag_59\n      jump\t// in\n    tag_58:\n        /* \"#utility.yul\":7:146   */\n      swap3\n      swap2\n      pop\n      pop\n      jump\t// out\n        /* \"#utility.yul\":152:289   */\n    tag_60:\n        /* \"#utility.yul\":197:202   */\n      0x00\n        /* \"#utility.yul\":235:241   */\n      dup2\n        /* \"#utility.yul\":222:242   */\n      calldataload\n        /* \"#utility.yul\":213:242   */\n      swap1\n      pop\n        /* \"#utility.yul\":251:283   */\n      tag_62\n        /* \"#utility.yul\":277:282   */\n      dup2\n        /* \"#utility.yul\":251:283   */\n      tag_63\n      jump\t// in\n    tag_62:\n        /* \"#utility.yul\":152:289   */\n      swap3\n      swap2\n      pop\n      pop\n      jump\t// out\n        /* \"#utility.yul\":295:624   */\n    tag_9:\n        /* \"#utility.yul\":354:360   */\n      0x00\n        /* \"#utility.yul\":403:405   */\n      0x20\n        /* \"#utility.yul\":391:400   */\n      dup3\n        /* \"#utility.yul\":382:389   */\n      dup5\n        /* \"#utility.yul\":378:401   */\n      sub\n        /* \"#utility.yul\":374:406   */\n      slt\n        /* \"#utility.yul\":371:490   */\n      iszero\n      tag_65\n      jumpi\n        /* \"#utility.yul\":409:488   */\n      tag_66\n      tag_67\n      jump\t// in\n    tag_66:\n        /* \"#utility.yul\":371:490   */\n    tag_65:\n        /* \"#utility.yul\":529:530   */\n      0x00\n        /* \"#utility.yul\":554:607   */\n      tag_68\n        /* \"#utility.yul\":599:606   */\n      dup5\n        /* \"#utility.yul\":590:596   */\n      dup3\n        /* \"#utility.yul\":579:588   */\n      dup6\n        /* \"#utility.yul\":575:597   */\n      add\n        /* \"#utility.yul\":554:607   */\n      tag_56\n      jump\t// in\n    tag_68:\n        /* \"#utility.yul\":544:607   */\n      swap2\n      pop\n        /* \"#utility.yul\":500:617   */\n      pop\n        /* \"#utility.yul\":295:624   */\n      swap3\n      swap2\n      pop\n      pop\n      jump\t// out\n        /* \"#utility.yul\":630:957   */\n    tag_15:\n        /* \"#utility.yul\":688:694   */\n      0x00\n        /* \"#utility.yul\":737:739   */\n      0x20\n        /* \"#utility.yul\":725:734   */\n      dup3\n        /* \"#utility.yul\":716:723   */\n      dup5\n        /* \"#utility.yul\":712:735   */\n      sub\n        /* \"#utility.yul\":708:740   */\n      slt\n        /* \"#utility.yul\":705:824   */\n      iszero\n      tag_70\n      jumpi\n        /* \"#utility.yul\":743:822   */\n      tag_71\n      tag_67\n      jump\t// in\n    tag_71:\n        /* \"#utility.yul\":705:824   */\n    tag_70:\n        /* \"#utility.yul\":863:864   */\n      0x00\n        /* \"#utility.yul\":888:940   */\n      tag_72\n        /* \"#utility.yul\":932:939   */\n      dup5\n        /* \"#utility.yul\":923:929   */\n      dup3\n        /* \"#utility.yul\":912:921   */\n      dup6\n        /* \"#utility.yul\":908:930   */\n      add\n        /* \"#utility.yul\":888:940   */\n      tag_60\n      jump\t// in\n    tag_72:\n        /* \"#utility.yul\":878:940   */\n      swap2\n      pop\n        /* \"#utility.yul\":834:950   */\n      pop\n        /* \"#utility.yul\":630:957   */\n      swap3\n      swap2\n      pop\n      pop\n      jump\t// out\n        /* \"#utility.yul\":963:1078   */\n    tag_73:\n        /* \"#utility.yul\":1048:1071   */\n      tag_75\n        /* \"#utility.yul\":1065:1070   */\n      dup2\n        /* \"#utility.yul\":1048:1071   */\n      tag_76\n      jump\t// in\n    tag_75:\n        /* \"#utility.yul\":1043:1046   */\n      dup3\n        /* \"#utility.yul\":1036:1072   */\n      mstore\n        /* \"#utility.yul\":963:1078   */\n      pop\n      pop\n      jump\t// out\n        /* \"#utility.yul\":1084:1448   */\n    tag_77:\n        /* \"#utility.yul\":1172:1175   */\n      0x00\n        /* \"#utility.yul\":1200:1239   */\n      tag_79\n        /* \"#utility.yul\":1233:1238   */\n      dup3\n        /* \"#utility.yul\":1200:1239   */\n      tag_80\n      jump\t// in\n    tag_79:\n        /* \"#utility.yul\":1255:1326   */\n      tag_81\n        /* \"#utility.yul\":1319:1325   */\n      dup2\n        /* \"#utility.yul\":1314:1317   */\n      dup6\n        /* \"#utility.yul\":1255:1326   */\n      tag_82\n      jump\t// in\n    tag_81:\n        /* \"#utility.yul\":1248:1326   */\n      swap4\n      pop\n        /* \"#utility.yul\":1335:1387   */\n      tag_83\n        /* \"#utility.yul\":1380:1386   */\n      dup2\n        /* \"#utility.yul\":1375:1378   */\n      dup6\n        /* \"#utility.yul\":1368:1372   */\n      0x20\n        /* \"#utility.yul\":1361:1366   */\n      dup7\n        /* \"#utility.yul\":1357:1373   */\n      add\n        /* \"#utility.yul\":1335:1387   */\n      tag_84\n      jump\t// in\n    tag_83:\n        /* \"#utility.yul\":1412:1441   */\n      tag_85\n        /* \"#utility.yul\":1434:1440   */\n      dup2\n        /* \"#utility.yul\":1412:1441   */\n      tag_86\n      jump\t// in\n    tag_85:\n        /* \"#utility.yul\":1407:1410   */\n      dup5\n        /* \"#utility.yul\":1403:1442   */\n      add\n        /* \"#utility.yul\":1396:1442   */\n      swap2\n      pop\n        /* \"#utility.yul\":1176:1448   */\n      pop\n        /* \"#utility.yul\":1084:1448   */\n      swap3\n      swap2\n      pop\n      pop\n      jump\t// out\n        /* \"#utility.yul\":1454:1820   */\n    tag_87:\n        /* \"#utility.yul\":1596:1599   */\n      0x00\n        /* \"#utility.yul\":1617:1684   */\n      tag_89\n        /* \"#utility.yul\":1681:1683   */\n      0x26\n        /* \"#utility.yul\":1676:1679   */\n      dup4\n        /* \"#utility.yul\":1617:1684   */\n      tag_82\n      jump\t// in\n    tag_89:\n        /* \"#utility.yul\":1610:1684   */\n      swap2\n      pop\n        /* \"#utility.yul\":1693:1786   */\n      tag_90\n        /* \"#utility.yul\":1782:1785   */\n      dup3\n        /* \"#utility.yul\":1693:1786   */\n      tag_91\n      jump\t// in\n    tag_90:\n        /* \"#utility.yul\":1811:1813   */\n      0x40\n        /* \"#utility.yul\":1806:1809   */\n      dup3\n        /* \"#utility.yul\":1802:1814   */\n      add\n        /* \"#utility.yul\":1795:1814   */\n      swap1\n      pop\n        /* \"#utility.yul\":1454:1820   */\n      swap2\n      swap1\n      pop\n      jump\t// out\n        /* \"#utility.yul\":1826:2192   */\n    tag_92:\n        /* \"#utility.yul\":1968:1971   */\n      0x00\n        /* \"#utility.yul\":1989:2056   */\n      tag_94\n        /* \"#utility.yul\":2053:2055   */\n      0x37\n        /* \"#utility.yul\":2048:2051   */\n      dup4\n        /* \"#utility.yul\":1989:2056   */\n      tag_82\n      jump\t// in\n    tag_94:\n        /* \"#utility.yul\":1982:2056   */\n      swap2\n      pop\n        /* \"#utility.yul\":2065:2158   */\n      tag_95\n        /* \"#utility.yul\":2154:2157   */\n      dup3\n        /* \"#utility.yul\":2065:2158   */\n      tag_96\n      jump\t// in\n    tag_95:\n        /* \"#utility.yul\":2183:2185   */\n      0x40\n        /* \"#utility.yul\":2178:2181   */\n      dup3\n        /* \"#utility.yul\":2174:2186   */\n      add\n        /* \"#utility.yul\":2167:2186   */\n      swap1\n      pop\n        /* \"#utility.yul\":1826:2192   */\n      swap2\n      swap1\n      pop\n      jump\t// out\n        /* \"#utility.yul\":2198:2564   */\n    tag_97:\n        /* \"#utility.yul\":2340:2343   */\n      0x00\n        /* \"#utility.yul\":2361:2428   */\n      tag_99\n        /* \"#utility.yul\":2425:2427   */\n      0x25\n        /* \"#utility.yul\":2420:2423   */\n      dup4\n        /* \"#utility.yul\":2361:2428   */\n      tag_82\n      jump\t// in\n    tag_99:\n        /* \"#utility.yul\":2354:2428   */\n      swap2\n      pop\n        /* \"#utility.yul\":2437:2530   */\n      tag_100\n        /* \"#utility.yul\":2526:2529   */\n      dup3\n        /* \"#utility.yul\":2437:2530   */\n      tag_101\n      jump\t// in\n    tag_100:\n        /* \"#utility.yul\":2555:2557   */\n      0x40\n        /* \"#utility.yul\":2550:2553   */\n      dup3\n        /* \"#utility.yul\":2546:2558   */\n      add\n        /* \"#utility.yul\":2539:2558   */\n      swap1\n      pop\n        /* \"#utility.yul\":2198:2564   */\n      swap2\n      swap1\n      pop\n      jump\t// out\n        /* \"#utility.yul\":2570:3499   */\n    tag_12:\n        /* \"#utility.yul\":2831:2835   */\n      0x00\n        /* \"#utility.yul\":2869:2872   */\n      0xa0\n        /* \"#utility.yul\":2858:2867   */\n      dup3\n        /* \"#utility.yul\":2854:2873   */\n      add\n        /* \"#utility.yul\":2846:2873   */\n      swap1\n      pop\n        /* \"#utility.yul\":2883:2952   */\n      tag_103\n        /* \"#utility.yul\":2949:2950   */\n      0x00\n        /* \"#utility.yul\":2938:2947   */\n      dup4\n        /* \"#utility.yul\":2934:2951   */\n      add\n        /* \"#utility.yul\":2925:2931   */\n      dup9\n        /* \"#utility.yul\":2883:2952   */\n      tag_73\n      jump\t// in\n    tag_103:\n        /* \"#utility.yul\":2999:3008   */\n      dup2\n        /* \"#utility.yul\":2993:2997   */\n      dup2\n        /* \"#utility.yul\":2989:3009   */\n      sub\n        /* \"#utility.yul\":2984:2986   */\n      0x20\n        /* \"#utility.yul\":2973:2982   */\n      dup4\n        /* \"#utility.yul\":2969:2987   */\n      add\n        /* \"#utility.yul\":2962:3010   */\n      mstore\n        /* \"#utility.yul\":3027:3105   */\n      tag_104\n        /* \"#utility.yul\":3100:3104   */\n      dup2\n        /* \"#utility.yul\":3091:3097   */\n      dup8\n        /* \"#utility.yul\":3027:3105   */\n      tag_77\n      jump\t// in\n    tag_104:\n        /* \"#utility.yul\":3019:3105   */\n      swap1\n      pop\n        /* \"#utility.yul\":3152:3161   */\n      dup2\n        /* \"#utility.yul\":3146:3150   */\n      dup2\n        /* \"#utility.yul\":3142:3162   */\n      sub\n        /* \"#utility.yul\":3137:3139   */\n      0x40\n        /* \"#utility.yul\":3126:3135   */\n      dup4\n        /* \"#utility.yul\":3122:3140   */\n      add\n        /* \"#utility.yul\":3115:3163   */\n      mstore\n        /* \"#utility.yul\":3180:3258   */\n      tag_105\n        /* \"#utility.yul\":3253:3257   */\n      dup2\n        /* \"#utility.yul\":3244:3250   */\n      dup7\n        /* \"#utility.yul\":3180:3258   */\n      tag_77\n      jump\t// in\n    tag_105:\n        /* \"#utility.yul\":3172:3258   */\n      swap1\n      pop\n        /* \"#utility.yul\":3268:3338   */\n      tag_106\n        /* \"#utility.yul\":3334:3336   */\n      0x60\n        /* \"#utility.yul\":3323:3332   */\n      dup4\n        /* \"#utility.yul\":3319:3337   */\n      add\n        /* \"#utility.yul\":3310:3316   */\n      dup6\n        /* \"#utility.yul\":3268:3338   */\n      tag_73\n      jump\t// in\n    tag_106:\n        /* \"#utility.yul\":3386:3395   */\n      dup2\n        /* \"#utility.yul\":3380:3384   */\n      dup2\n        /* \"#utility.yul\":3376:3396   */\n      sub\n        /* \"#utility.yul\":3370:3373   */\n      0x80\n        /* \"#utility.yul\":3359:3368   */\n      dup4\n        /* \"#utility.yul\":3355:3374   */\n      add\n        /* \"#utility.yul\":3348:3397   */\n      mstore\n        /* \"#utility.yul\":3414:3492   */\n      tag_107\n        /* \"#utility.yul\":3487:3491   */\n      dup2\n        /* \"#utility.yul\":3478:3484   */\n      dup5\n        /* \"#utility.yul\":3414:3492   */\n      tag_77\n      jump\t// in\n    tag_107:\n        /* \"#utility.yul\":3406:3492   */\n      swap1\n      pop\n        /* \"#utility.yul\":2570:3499   */\n      swap7\n      swap6\n      pop\n      pop\n      pop\n      pop\n      pop\n      pop\n      jump\t// out\n        /* \"#utility.yul\":3505:3924   */\n    tag_43:\n        /* \"#utility.yul\":3671:3675   */\n      0x00\n        /* \"#utility.yul\":3709:3711   */\n      0x20\n        /* \"#utility.yul\":3698:3707   */\n      dup3\n        /* \"#utility.yul\":3694:3712   */\n      add\n        /* \"#utility.yul\":3686:3712   */\n      swap1\n      pop\n        /* \"#utility.yul\":3758:3767   */\n      dup2\n        /* \"#utility.yul\":3752:3756   */\n      dup2\n        /* \"#utility.yul\":3748:3768   */\n      sub\n        /* \"#utility.yul\":3744:3745   */\n      0x00\n        /* \"#utility.yul\":3733:3742   */\n      dup4\n        /* \"#utility.yul\":3729:3746   */\n      add\n        /* \"#utility.yul\":3722:3769   */\n      mstore\n        /* \"#utility.yul\":3786:3917   */\n      tag_109\n        /* \"#utility.yul\":3912:3916   */\n      dup2\n        /* \"#utility.yul\":3786:3917   */\n      tag_87\n      jump\t// in\n    tag_109:\n        /* \"#utility.yul\":3778:3917   */\n      swap1\n      pop\n        /* \"#utility.yul\":3505:3924   */\n      swap2\n      swap1\n      pop\n      jump\t// out\n        /* \"#utility.yul\":3930:4349   */\n    tag_52:\n        /* \"#utility.yul\":4096:4100   */\n      0x00\n        /* \"#utility.yul\":4134:4136   */\n      0x20\n        /* \"#utility.yul\":4123:4132   */\n      dup3\n        /* \"#utility.yul\":4119:4137   */\n      add\n        /* \"#utility.yul\":4111:4137   */\n      swap1\n      pop\n        /* \"#utility.yul\":4183:4192   */\n      dup2\n        /* \"#utility.yul\":4177:4181   */\n      dup2\n        /* \"#utility.yul\":4173:4193   */\n      sub\n        /* \"#utility.yul\":4169:4170   */\n      0x00\n        /* \"#utility.yul\":4158:4167   */\n      dup4\n        /* \"#utility.yul\":4154:4171   */\n      add\n        /* \"#utility.yul\":4147:4194   */\n      mstore\n        /* \"#utility.yul\":4211:4342   */\n      tag_111\n        /* \"#utility.yul\":4337:4341   */\n      dup2\n        /* \"#utility.yul\":4211:4342   */\n      tag_92\n      jump\t// in\n    tag_111:\n        /* \"#utility.yul\":4203:4342   */\n      swap1\n      pop\n        /* \"#utility.yul\":3930:4349   */\n      swap2\n      swap1\n      pop\n      jump\t// out\n        /* \"#utility.yul\":4355:4774   */\n    tag_49:\n        /* \"#utility.yul\":4521:4525   */\n      0x00\n        /* \"#utility.yul\":4559:4561   */\n      0x20\n        /* \"#utility.yul\":4548:4557   */\n      dup3\n        /* \"#utility.yul\":4544:4562   */\n      add\n        /* \"#utility.yul\":4536:4562   */\n      swap1\n      pop\n        /* \"#utility.yul\":4608:4617   */\n      dup2\n        /* \"#utility.yul\":4602:4606   */\n      dup2\n        /* \"#utility.yul\":4598:4618   */\n      sub\n        /* \"#utility.yul\":4594:4595   */\n      0x00\n        /* \"#utility.yul\":4583:4592   */\n      dup4\n        /* \"#utility.yul\":4579:4596   */\n      add\n        /* \"#utility.yul\":4572:4619   */\n      mstore\n        /* \"#utility.yul\":4636:4767   */\n      tag_113\n        /* \"#utility.yul\":4762:4766   */\n      dup2\n        /* \"#utility.yul\":4636:4767   */\n      tag_97\n      jump\t// in\n    tag_113:\n        /* \"#utility.yul\":4628:4767   */\n      swap1\n      pop\n        /* \"#utility.yul\":4355:4774   */\n      swap2\n      swap1\n      pop\n      jump\t// out\n        /* \"#utility.yul\":4861:4960   */\n    tag_80:\n        /* \"#utility.yul\":4913:4919   */\n      0x00\n        /* \"#utility.yul\":4947:4952   */\n      dup2\n        /* \"#utility.yul\":4941:4953   */\n      mload\n        /* \"#utility.yul\":4931:4953   */\n      swap1\n      pop\n        /* \"#utility.yul\":4861:4960   */\n      swap2\n      swap1\n      pop\n      jump\t// out\n        /* \"#utility.yul\":4966:5135   */\n    tag_82:\n        /* \"#utility.yul\":5050:5061   */\n      0x00\n        /* \"#utility.yul\":5084:5090   */\n      dup3\n        /* \"#utility.yul\":5079:5082   */\n      dup3\n        /* \"#utility.yul\":5072:5091   */\n      mstore\n        /* \"#utility.yul\":5124:5128   */\n      0x20\n        /* \"#utility.yul\":5119:5122   */\n      dup3\n        /* \"#utility.yul\":5115:5129   */\n      add\n        /* \"#utility.yul\":5100:5129   */\n      swap1\n      pop\n        /* \"#utility.yul\":4966:5135   */\n      swap3\n      swap2\n      pop\n      pop\n      jump\t// out\n        /* \"#utility.yul\":5141:5666   */\n    tag_45:\n        /* \"#utility.yul\":5180:5183   */\n      0x00\n        /* \"#utility.yul\":5199:5218   */\n      tag_119\n        /* \"#utility.yul\":5216:5217   */\n      dup3\n        /* \"#utility.yul\":5199:5218   */\n      tag_76\n      jump\t// in\n    tag_119:\n        /* \"#utility.yul\":5194:5218   */\n      swap2\n      pop\n        /* \"#utility.yul\":5232:5251   */\n      tag_120\n        /* \"#utility.yul\":5249:5250   */\n      dup4\n        /* \"#utility.yul\":5232:5251   */\n      tag_76\n      jump\t// in\n    tag_120:\n        /* \"#utility.yul\":5227:5251   */\n      swap3\n      pop\n        /* \"#utility.yul\":5420:5421   */\n      dup2\n        /* \"#utility.yul\":5352:5418   */\n      0x7fffffffffffffffffffffffffffffffffffffffffffffffffffffffffffffff\n        /* \"#utility.yul\":5348:5422   */\n      sub\n        /* \"#utility.yul\":5345:5346   */\n      dup4\n        /* \"#utility.yul\":5341:5423   */\n      sgt\n        /* \"#utility.yul\":5336:5337   */\n      0x00\n        /* \"#utility.yul\":5333:5334   */\n      dup4\n        /* \"#utility.yul\":5329:5338   */\n      slt\n        /* \"#utility.yul\":5322:5339   */\n      iszero\n        /* \"#utility.yul\":5318:5424   */\n      and\n        /* \"#utility.yul\":5315:5447   */\n      iszero\n      tag_121\n      jumpi\n        /* \"#utility.yul\":5427:5445   */\n      tag_122\n      tag_123\n      jump\t// in\n    tag_122:\n        /* \"#utility.yul\":5315:5447   */\n    tag_121:\n        /* \"#utility.yul\":5607:5608   */\n      dup2\n        /* \"#utility.yul\":5539:5605   */\n      0x8000000000000000000000000000000000000000000000000000000000000000\n        /* \"#utility.yul\":5535:5609   */\n      sub\n        /* \"#utility.yul\":5532:5533   */\n      dup4\n        /* \"#utility.yul\":5528:5610   */\n      slt\n        /* \"#utility.yul\":5524:5525   */\n      0x00\n        /* \"#utility.yul\":5521:5522   */\n      dup4\n        /* \"#utility.yul\":5517:5526   */\n      slt\n        /* \"#utility.yul\":5513:5611   */\n      and\n        /* \"#utility.yul\":5510:5634   */\n      iszero\n      tag_124\n      jumpi\n        /* \"#utility.yul\":5614:5632   */\n      tag_125\n      tag_123\n      jump\t// in\n    tag_125:\n        /* \"#utility.yul\":5510:5634   */\n    tag_124:\n        /* \"#utility.yul\":5658:5659   */\n      dup3\n        /* \"#utility.yul\":5655:5656   */\n      dup3\n        /* \"#utility.yul\":5651:5660   */\n      add\n        /* \"#utility.yul\":5644:5660   */\n      swap1\n      pop\n        /* \"#utility.yul\":5141:5666   */\n      swap3\n      swap2\n      pop\n      pop\n      jump\t// out\n        /* \"#utility.yul\":5672:6199   */\n    tag_54:\n        /* \"#utility.yul\":5711:5715   */\n      0x00\n        /* \"#utility.yul\":5731:5750   */\n      tag_127\n        /* \"#utility.yul\":5748:5749   */\n      dup3\n        /* \"#utility.yul\":5731:5750   */\n      tag_76\n      jump\t// in\n    tag_127:\n        /* \"#utility.yul\":5726:5750   */\n      swap2\n      pop\n        /* \"#utility.yul\":5764:5783   */\n      tag_128\n        /* \"#utility.yul\":5781:5782   */\n      dup4\n        /* \"#utility.yul\":5764:5783   */\n      tag_76\n      jump\t// in\n    tag_128:\n        /* \"#utility.yul\":5759:5783   */\n      swap3\n      pop\n        /* \"#utility.yul\":5953:5954   */\n      dup3\n        /* \"#utility.yul\":5885:5951   */\n      0x8000000000000000000000000000000000000000000000000000000000000000\n        /* \"#utility.yul\":5881:5955   */\n      add\n        /* \"#utility.yul\":5878:5879   */\n      dup3\n        /* \"#utility.yul\":5874:5956   */\n      slt\n        /* \"#utility.yul\":5869:5870   */\n      0x00\n        /* \"#utility.yul\":5866:5867   */\n      dup5\n        /* \"#utility.yul\":5862:5871   */\n      slt\n        /* \"#utility.yul\":5855:5872   */\n      iszero\n        /* \"#utility.yul\":5851:5957   */\n      and\n        /* \"#utility.yul\":5848:5980   */\n      iszero\n      tag_129\n      jumpi\n        /* \"#utility.yul\":5960:5978   */\n      tag_130\n      tag_123\n      jump\t// in\n    tag_130:\n        /* \"#utility.yul\":5848:5980   */\n    tag_129:\n        /* \"#utility.yul\":6139:6140   */\n      dup3\n        /* \"#utility.yul\":6071:6137   */\n      0x7fffffffffffffffffffffffffffffffffffffffffffffffffffffffffffffff\n        /* \"#utility.yul\":6067:6141   */\n      add\n        /* \"#utility.yul\":6064:6065   */\n      dup3\n        /* \"#utility.yul\":6060:6142   */\n      sgt\n        /* \"#utility.yul\":6056:6057   */\n      0x00\n        /* \"#utility.yul\":6053:6054   */\n      dup5\n        /* \"#utility.yul\":6049:6058   */\n      slt\n        /* \"#utility.yul\":6045:6143   */\n      and\n        /* \"#utility.yul\":6042:6166   */\n      iszero\n      tag_131\n      jumpi\n        /* \"#utility.yul\":6146:6164   */\n      tag_132\n      tag_123\n      jump\t// in\n    tag_132:\n        /* \"#utility.yul\":6042:6166   */\n    tag_131:\n        /* \"#utility.yul\":6191:6192   */\n      dup3\n        /* \"#utility.yul\":6188:6189   */\n      dup3\n        /* \"#utility.yul\":6184:6193   */\n      sub\n        /* \"#utility.yul\":6176:6193   */\n      swap1\n      pop\n        /* \"#utility.yul\":5672:6199   */\n      swap3\n      swap2\n      pop\n      pop\n      jump\t// out\n        /* \"#utility.yul\":6205:6301   */\n    tag_133:\n        /* \"#utility.yul\":6242:6249   */\n      0x00\n        /* \"#utility.yul\":6271:6295   */\n      tag_135\n        /* \"#utility.yul\":6289:6294   */\n      dup3\n        /* \"#utility.yul\":6271:6295   */\n      tag_136\n      jump\t// in\n    tag_135:\n        /* \"#utility.yul\":6260:6295   */\n      swap1\n      pop\n        /* \"#utility.yul\":6205:6301   */\n      swap2\n      swap1\n      pop\n      jump\t// out\n        /* \"#utility.yul\":6307:6383   */\n    tag_76:\n        /* \"#utility.yul\":6343:6350   */\n      0x00\n        /* \"#utility.yul\":6372:6377   */\n      dup2\n        /* \"#utility.yul\":6361:6377   */\n      swap1\n      pop\n        /* \"#utility.yul\":6307:6383   */\n      swap2\n      swap1\n      pop\n      jump\t// out\n        /* \"#utility.yul\":6389:6515   */\n    tag_136:\n        /* \"#utility.yul\":6426:6433   */\n      0x00\n        /* \"#utility.yul\":6466:6508   */\n      0xffffffffffffffffffffffffffffffffffffffff\n        /* \"#utility.yul\":6459:6464   */\n      dup3\n        /* \"#utility.yul\":6455:6509   */\n      and\n        /* \"#utility.yul\":6444:6509   */\n      swap1\n      pop\n        /* \"#utility.yul\":6389:6515   */\n      swap2\n      swap1\n      pop\n      jump\t// out\n        /* \"#utility.yul\":6521:6828   */\n    tag_84:\n        /* \"#utility.yul\":6589:6590   */\n      0x00\n        /* \"#utility.yul\":6599:6712   */\n    tag_140:\n        /* \"#utility.yul\":6613:6619   */\n      dup4\n        /* \"#utility.yul\":6610:6611   */\n      dup2\n        /* \"#utility.yul\":6607:6620   */\n      lt\n        /* \"#utility.yul\":6599:6712   */\n      iszero\n      tag_142\n      jumpi\n        /* \"#utility.yul\":6698:6699   */\n      dup1\n        /* \"#utility.yul\":6693:6696   */\n      dup3\n        /* \"#utility.yul\":6689:6700   */\n      add\n        /* \"#utility.yul\":6683:6701   */\n      mload\n        /* \"#utility.yul\":6679:6680   */\n      dup2\n        /* \"#utility.yul\":6674:6677   */\n      dup5\n        /* \"#utility.yul\":6670:6681   */\n      add\n        /* \"#utility.yul\":6663:6702   */\n      mstore\n        /* \"#utility.yul\":6635:6637   */\n      0x20\n        /* \"#utility.yul\":6632:6633   */\n      dup2\n        /* \"#utility.yul\":6628:6638   */\n      add\n        /* \"#utility.yul\":6623:6638   */\n      swap1\n      pop\n        /* \"#utility.yul\":6599:6712   */\n      jump(tag_140)\n    tag_142:\n        /* \"#utility.yul\":6730:6736   */\n      dup4\n        /* \"#utility.yul\":6727:6728   */\n      dup2\n        /* \"#utility.yul\":6724:6737   */\n      gt\n        /* \"#utility.yul\":6721:6822   */\n      iszero\n      tag_143\n      jumpi\n        /* \"#utility.yul\":6810:6811   */\n      0x00\n        /* \"#utility.yul\":6801:6807   */\n      dup5\n        /* \"#utility.yul\":6796:6799   */\n      dup5\n        /* \"#utility.yul\":6792:6808   */\n      add\n        /* \"#utility.yul\":6785:6812   */\n      mstore\n        /* \"#utility.yul\":6721:6822   */\n    tag_143:\n        /* \"#utility.yul\":6570:6828   */\n      pop\n        /* \"#utility.yul\":6521:6828   */\n      pop\n      pop\n      pop\n      jump\t// out\n        /* \"#utility.yul\":6834:7154   */\n    tag_24:\n        /* \"#utility.yul\":6878:6884   */\n      0x00\n        /* \"#utility.yul\":6915:6916   */\n      0x02\n        /* \"#utility.yul\":6909:6913   */\n      dup3\n        /* \"#utility.yul\":6905:6917   */\n      div\n        /* \"#utility.yul\":6895:6917   */\n      swap1\n      pop\n        /* \"#utility.yul\":6962:6963   */\n      0x01\n        /* \"#utility.yul\":6956:6960   */\n      dup3\n        /* \"#utility.yul\":6952:6964   */\n      and\n        /* \"#utility.yul\":6983:7001   */\n      dup1\n        /* \"#utility.yul\":6973:7054   */\n      tag_145\n      jumpi\n        /* \"#utility.yul\":7039:7043   */\n      0x7f\n        /* \"#utility.yul\":7031:7037   */\n      dup3\n        /* \"#utility.yul\":7027:7044   */\n      and\n        /* \"#utility.yul\":7017:7044   */\n      swap2\n      pop\n        /* \"#utility.yul\":6973:7054   */\n    tag_145:\n        /* \"#utility.yul\":7101:7103   */\n      0x20\n        /* \"#utility.yul\":7093:7099   */\n      dup3\n        /* \"#utility.yul\":7090:7104   */\n      lt\n        /* \"#utility.yul\":7070:7088   */\n      dup2\n        /* \"#utility.yul\":7067:7105   */\n      eq\n        /* \"#utility.yul\":7064:7148   */\n      iszero\n      tag_146\n      jumpi\n        /* \"#utility.yul\":7120:7138   */\n      tag_147\n      tag_148\n      jump\t// in\n    tag_147:\n        /* \"#utility.yul\":7064:7148   */\n    tag_146:\n        /* \"#utility.yul\":6885:7154   */\n      pop\n        /* \"#utility.yul\":6834:7154   */\n      swap2\n      swap1\n      pop\n      jump\t// out\n        /* \"#utility.yul\":7160:7340   */\n    tag_123:\n        /* \"#utility.yul\":7208:7285   */\n      0x4e487b7100000000000000000000000000000000000000000000000000000000\n        /* \"#utility.yul\":7205:7206   */\n      0x00\n        /* \"#utility.yul\":7198:7286   */\n      mstore\n        /* \"#utility.yul\":7305:7309   */\n      0x11\n        /* \"#utility.yul\":7302:7303   */\n      0x04\n        /* \"#utility.yul\":7295:7310   */\n      mstore\n        /* \"#utility.yul\":7329:7333   */\n      0x24\n        /* \"#utility.yul\":7326:7327   */\n      0x00\n        /* \"#utility.yul\":7319:7334   */\n      revert\n        /* \"#utility.yul\":7346:7526   */\n    tag_148:\n        /* \"#utility.yul\":7394:7471   */\n      0x4e487b7100000000000000000000000000000000000000000000000000000000\n        /* \"#utility.yul\":7391:7392   */\n      0x00\n        /* \"#utility.yul\":7384:7472   */\n      mstore\n        /* \"#utility.yul\":7491:7495   */\n      0x22\n        /* \"#utility.yul\":7488:7489   */\n      0x04\n        /* \"#utility.yul\":7481:7496   */\n      mstore\n        /* \"#utility.yul\":7515:7519   */\n      0x24\n        /* \"#utility.yul\":7512:7513   */\n      0x00\n        /* \"#utility.yul\":7505:7520   */\n      revert\n        /* \"#utility.yul\":7655:7772   */\n    tag_67:\n        /* \"#utility.yul\":7764:7765   */\n      0x00\n        /* \"#utility.yul\":7761:7762   */\n      dup1\n        /* \"#utility.yul\":7754:7766   */\n      revert\n        /* \"#utility.yul\":7778:7880   */\n    tag_86:\n        /* \"#utility.yul\":7819:7825   */\n      0x00\n        /* \"#utility.yul\":7870:7872   */\n      0x1f\n        /* \"#utility.yul\":7866:7873   */\n      not\n        /* \"#utility.yul\":7861:7863   */\n      0x1f\n        /* \"#utility.yul\":7854:7859   */\n      dup4\n        /* \"#utility.yul\":7850:7864   */\n      add\n        /* \"#utility.yul\":7846:7874   */\n      and\n        /* \"#utility.yul\":7836:7874   */\n      swap1\n      pop\n        /* \"#utility.yul\":7778:7880   */\n      swap2\n      swap1\n      pop\n      jump\t// out\n        /* \"#utility.yul\":7886:8111   */\n    tag_91:\n        /* \"#utility.yul\":8026:8060   */\n      0x73616c646f207061726120696e677265736172206465626520736572206d6179\n        /* \"#utility.yul\":8022:8023   */\n      0x00\n        /* \"#utility.yul\":8014:8020   */\n      dup3\n        /* \"#utility.yul\":8010:8024   */\n      add\n        /* \"#utility.yul\":8003:8061   */\n      mstore\n        /* \"#utility.yul\":8095:8103   */\n      0x6f72206120300000000000000000000000000000000000000000000000000000\n        /* \"#utility.yul\":8090:8092   */\n      0x20\n        /* \"#utility.yul\":8082:8088   */\n      dup3\n        /* \"#utility.yul\":8078:8093   */\n      add\n        /* \"#utility.yul\":8071:8104   */\n      mstore\n        /* \"#utility.yul\":7886:8111   */\n      pop\n      jump\t// out\n        /* \"#utility.yul\":8117:8359   */\n    tag_96:\n        /* \"#utility.yul\":8257:8291   */\n      0x73616c646f20706172612072657469726172206e6f206465626520736572206d\n        /* \"#utility.yul\":8253:8254   */\n      0x00\n        /* \"#utility.yul\":8245:8251   */\n      dup3\n        /* \"#utility.yul\":8241:8255   */\n      add\n        /* \"#utility.yul\":8234:8292   */\n      mstore\n        /* \"#utility.yul\":8326:8351   */\n      0x61796f7220612073752073616c646f206163747561726c000000000000000000\n        /* \"#utility.yul\":8321:8323   */\n      0x20\n        /* \"#utility.yul\":8313:8319   */\n      dup3\n        /* \"#utility.yul\":8309:8324   */\n      add\n        /* \"#utility.yul\":8302:8352   */\n      mstore\n        /* \"#utility.yul\":8117:8359   */\n      pop\n      jump\t// out\n        /* \"#utility.yul\":8365:8589   */\n    tag_101:\n        /* \"#utility.yul\":8505:8539   */\n      0x73616c646f20706172612072657469726172206465626520736572206d61796f\n        /* \"#utility.yul\":8501:8502   */\n      0x00\n        /* \"#utility.yul\":8493:8499   */\n      dup3\n        /* \"#utility.yul\":8489:8503   */\n      add\n        /* \"#utility.yul\":8482:8540   */\n      mstore\n        /* \"#utility.yul\":8574:8581   */\n      0x7220612030000000000000000000000000000000000000000000000000000000\n        /* \"#utility.yul\":8569:8571   */\n      0x20\n        /* \"#utility.yul\":8561:8567   */\n      dup3\n        /* \"#utility.yul\":8557:8572   */\n      add\n        /* \"#utility.yul\":8550:8582   */\n      mstore\n        /* \"#utility.yul\":8365:8589   */\n      pop\n      jump\t// out\n        /* \"#utility.yul\":8595:8717   */\n    tag_59:\n        /* \"#utility.yul\":8668:8692   */\n      tag_159\n        /* \"#utility.yul\":8686:8691   */\n      dup2\n        /* \"#utility.yul\":8668:8692   */\n      tag_133\n      jump\t// in\n    tag_159:\n        /* \"#utility.yul\":8661:8666   */\n      dup2\n        /* \"#utility.yul\":8658:8693   */\n      eq\n        /* \"#utility.yul\":8648:8711   */\n      tag_160\n      jumpi\n        /* \"#utility.yul\":8707:8708   */\n      0x00\n        /* \"#utility.yul\":8704:8705   */\n      dup1\n        /* \"#utility.yul\":8697:8709   */\n      revert\n        /* \"#utility.yul\":8648:8711   */\n    tag_160:\n        /* \"#utility.yul\":8595:8717   */\n      pop\n      jump\t// out\n        /* \"#utility.yul\":8723:8843   */\n    tag_63:\n        /* \"#utility.yul\":8795:8818   */\n      tag_162\n        /* \"#utility.yul\":8812:8817   */\n      dup2\n        /* \"#utility.yul\":8795:8818   */\n      tag_76\n      jump\t// in\n    tag_162:\n        /* \"#utility.yul\":8788:8793   */\n      dup2\n        /* \"#utility.yul\":8785:8819   */\n      eq\n        /* \"#utility.yul\":8775:8837   */\n      tag_163\n      jumpi\n        /* \"#utility.yul\":8833:8834   */\n      0x00\n        /* \"#utility.yul\":8830:8831   */\n      dup1\n        /* \"#utility.yul\":8823:8835   */\n      revert\n        /* \"#utility.yul\":8775:8837   */\n    tag_163:\n        /* \"#utility.yul\":8723:8843   */\n      pop\n      jump\t// out\n\n    auxdata: 0xa2646970667358221220483bbd301458c3f081b2b62b66f11dcd8c4eb44c6a5794c67f47bcb93e80847864736f6c63430008070033\n}\n",
				"bytecode": {
					"linkReferences": {},
					"object": "608060405234801561001057600080fd5b50610a11806100206000396000f3fe608060405234801561001057600080fd5b506004361061004c5760003560e01c806363e4cdcc14610051578063724602401461008557806393ba1e60146100a1578063c28a41ec146100bd575b600080fd5b61006b60048036038101906100669190610494565b6100d9565b60405161007c95949392919061059f565b60405180910390f35b61009f600480360381019061009a91906104c1565b6102a7565b005b6100bb60048036038101906100b691906104c1565b6102aa565b005b6100d760048036038101906100d291906104c1565b610348565b005b60006020528060005260406000206000915090508060000154908060010180546101029061081a565b80601f016020809104026020016040519081016040528092919081815260200182805461012e9061081a565b801561017b5780601f106101505761010080835404028352916020019161017b565b820191906000526020600020905b81548152906001019060200180831161015e57829003601f168201915b5050505050908060020180546101909061081a565b80601f01602080910402602001604051908101604052809291908181526020018280546101bc9061081a565b80156102095780601f106101de57610100808354040283529160200191610209565b820191906000526020600020905b8154815290600101906020018083116101ec57829003601f168201915b5050505050908060030154908060040180546102249061081a565b80601f01602080910402602001604051908101604052809291908181526020018280546102509061081a565b801561029d5780601f106102725761010080835404028352916020019161029d565b820191906000526020600020905b81548152906001019060200180831161028057829003601f168201915b5050505050905085565b50565b600081136102ed576040517f08c379a00000000000000000000000000000000000000000000000000000000081526004016102e490610607565b60405180910390fd5b806000803373ffffffffffffffffffffffffffffffffffffffff1673ffffffffffffffffffffffffffffffffffffffff168152602001908152602001600020600001600082825461033e9190610683565b9250508190555050565b6000811361038b576040517f08c379a000000000000000000000000000000000000000000000000000000000815260040161038290610647565b60405180910390fd5b806000803373ffffffffffffffffffffffffffffffffffffffff1673ffffffffffffffffffffffffffffffffffffffff16815260200190815260200160002060000154121561040f576040517f08c379a000000000000000000000000000000000000000000000000000000000815260040161040690610627565b60405180910390fd5b806000803373ffffffffffffffffffffffffffffffffffffffff1673ffffffffffffffffffffffffffffffffffffffff16815260200190815260200160002060000160008282546104609190610717565b9250508190555050565b600081359050610479816109ad565b92915050565b60008135905061048e816109c4565b92915050565b6000602082840312156104aa576104a96108aa565b5b60006104b88482850161046a565b91505092915050565b6000602082840312156104d7576104d66108aa565b5b60006104e58482850161047f565b91505092915050565b6104f7816107bd565b82525050565b600061050882610667565b6105128185610672565b93506105228185602086016107e7565b61052b816108af565b840191505092915050565b6000610543602683610672565b915061054e826108c0565b604082019050919050565b6000610566603783610672565b91506105718261090f565b604082019050919050565b6000610589602583610672565b91506105948261095e565b604082019050919050565b600060a0820190506105b460008301886104ee565b81810360208301526105c681876104fd565b905081810360408301526105da81866104fd565b90506105e960608301856104ee565b81810360808301526105fb81846104fd565b90509695505050505050565b6000602082019050818103600083015261062081610536565b9050919050565b6000602082019050818103600083015261064081610559565b9050919050565b600060208201905081810360008301526106608161057c565b9050919050565b600081519050919050565b600082825260208201905092915050565b600061068e826107bd565b9150610699836107bd565b9250817f7fffffffffffffffffffffffffffffffffffffffffffffffffffffffffffffff038313600083121516156106d4576106d361084c565b5b817f800000000000000000000000000000000000000000000000000000000000000003831260008312161561070c5761070b61084c565b5b828201905092915050565b6000610722826107bd565b915061072d836107bd565b9250827f8000000000000000000000000000000000000000000000000000000000000000018212600084121516156107685761076761084c565b5b827f7fffffffffffffffffffffffffffffffffffffffffffffffffffffffffffffff0182136000841216156107a05761079f61084c565b5b828203905092915050565b60006107b6826107c7565b9050919050565b6000819050919050565b600073ffffffffffffffffffffffffffffffffffffffff82169050919050565b60005b838110156108055780820151818401526020810190506107ea565b83811115610814576000848401525b50505050565b6000600282049050600182168061083257607f821691505b602082108114156108465761084561087b565b5b50919050565b7f4e487b7100000000000000000000000000000000000000000000000000000000600052601160045260246000fd5b7f4e487b7100000000000000000000000000000000000000000000000000000000600052602260045260246000fd5b600080fd5b6000601f19601f8301169050919050565b7f73616c646f207061726120696e677265736172206465626520736572206d617960008201527f6f72206120300000000000000000000000000000000000000000000000000000602082015250565b7f73616c646f20706172612072657469726172206e6f206465626520736572206d60008201527f61796f7220612073752073616c646f206163747561726c000000000000000000602082015250565b7f73616c646f20706172612072657469726172206465626520736572206d61796f60008201527f7220612030000000000000000000000000000000000000000000000000000000602082015250565b6109b6816107ab565b81146109c157600080fd5b50565b6109cd816107bd565b81146109d857600080fd5b5056fea2646970667358221220483bbd301458c3f081b2b62b66f11dcd8c4eb44c6a5794c67f47bcb93e80847864736f6c63430008070033",
					"opcodes": "PUSH1 0x80 PUSH1 0x40 MSTORE CALLVALUE DUP1 ISZERO PUSH2 0x10 JUMPI PUSH1 0x0 DUP1 REVERT JUMPDEST POP PUSH2 0xA11 DUP1 PUSH2 0x20 PUSH1 0x0 CODECOPY PUSH1 0x0 RETURN INVALID PUSH1 0x80 PUSH1 0x40 MSTORE CALLVALUE DUP1 ISZERO PUSH2 0x10 JUMPI PUSH1 0x0 DUP1 REVERT JUMPDEST POP PUSH1 0x4 CALLDATASIZE LT PUSH2 0x4C JUMPI PUSH1 0x0 CALLDATALOAD PUSH1 0xE0 SHR DUP1 PUSH4 0x63E4CDCC EQ PUSH2 0x51 JUMPI DUP1 PUSH4 0x72460240 EQ PUSH2 0x85 JUMPI DUP1 PUSH4 0x93BA1E60 EQ PUSH2 0xA1 JUMPI DUP1 PUSH4 0xC28A41EC EQ PUSH2 0xBD JUMPI JUMPDEST PUSH1 0x0 DUP1 REVERT JUMPDEST PUSH2 0x6B PUSH1 0x4 DUP1 CALLDATASIZE SUB DUP2 ADD SWAP1 PUSH2 0x66 SWAP2 SWAP1 PUSH2 0x494 JUMP JUMPDEST PUSH2 0xD9 JUMP JUMPDEST PUSH1 0x40 MLOAD PUSH2 0x7C SWAP6 SWAP5 SWAP4 SWAP3 SWAP2 SWAP1 PUSH2 0x59F JUMP JUMPDEST PUSH1 0x40 MLOAD DUP1 SWAP2 SUB SWAP1 RETURN JUMPDEST PUSH2 0x9F PUSH1 0x4 DUP1 CALLDATASIZE SUB DUP2 ADD SWAP1 PUSH2 0x9A SWAP2 SWAP1 PUSH2 0x4C1 JUMP JUMPDEST PUSH2 0x2A7 JUMP JUMPDEST STOP JUMPDEST PUSH2 0xBB PUSH1 0x4 DUP1 CALLDATASIZE SUB DUP2 ADD SWAP1 PUSH2 0xB6 SWAP2 SWAP1 PUSH2 0x4C1 JUMP JUMPDEST PUSH2 0x2AA JUMP JUMPDEST STOP JUMPDEST PUSH2 0xD7 PUSH1 0x4 DUP1 CALLDATASIZE SUB DUP2 ADD SWAP1 PUSH2 0xD2 SWAP2 SWAP1 PUSH2 0x4C1 JUMP JUMPDEST PUSH2 0x348 JUMP JUMPDEST STOP JUMPDEST PUSH1 0x0 PUSH1 0x20 MSTORE DUP1 PUSH1 0x0 MSTORE PUSH1 0x40 PUSH1 0x0 KECCAK256 PUSH1 0x0 SWAP2 POP SWAP1 POP DUP1 PUSH1 0x0 ADD SLOAD SWAP1 DUP1 PUSH1 0x1 ADD DUP1 SLOAD PUSH2 0x102 SWAP1 PUSH2 0x81A JUMP JUMPDEST DUP1 PUSH1 0x1F ADD PUSH1 0x20 DUP1 SWAP2 DIV MUL PUSH1 0x20 ADD PUSH1 0x40 MLOAD SWAP1 DUP2 ADD PUSH1 0x40 MSTORE DUP1 SWAP3 SWAP2 SWAP1 DUP2 DUP2 MSTORE PUSH1 0x20 ADD DUP3 DUP1 SLOAD PUSH2 0x12E SWAP1 PUSH2 0x81A JUMP JUMPDEST DUP1 ISZERO PUSH2 0x17B JUMPI DUP1 PUSH1 0x1F LT PUSH2 0x150 JUMPI PUSH2 0x100 DUP1 DUP4 SLOAD DIV MUL DUP4 MSTORE SWAP2 PUSH1 0x20 ADD SWAP2 PUSH2 0x17B JUMP JUMPDEST DUP3 ADD SWAP2 SWAP1 PUSH1 0x0 MSTORE PUSH1 0x20 PUSH1 0x0 KECCAK256 SWAP1 JUMPDEST DUP2 SLOAD DUP2 MSTORE SWAP1 PUSH1 0x1 ADD SWAP1 PUSH1 0x20 ADD DUP1 DUP4 GT PUSH2 0x15E JUMPI DUP3 SWAP1 SUB PUSH1 0x1F AND DUP3 ADD SWAP2 JUMPDEST POP POP POP POP POP SWAP1 DUP1 PUSH1 0x2 ADD DUP1 SLOAD PUSH2 0x190 SWAP1 PUSH2 0x81A JUMP JUMPDEST DUP1 PUSH1 0x1F ADD PUSH1 0x20 DUP1 SWAP2 DIV MUL PUSH1 0x20 ADD PUSH1 0x40 MLOAD SWAP1 DUP2 ADD PUSH1 0x40 MSTORE DUP1 SWAP3 SWAP2 SWAP1 DUP2 DUP2 MSTORE PUSH1 0x20 ADD DUP3 DUP1 SLOAD PUSH2 0x1BC SWAP1 PUSH2 0x81A JUMP JUMPDEST DUP1 ISZERO PUSH2 0x209 JUMPI DUP1 PUSH1 0x1F LT PUSH2 0x1DE JUMPI PUSH2 0x100 DUP1 DUP4 SLOAD DIV MUL DUP4 MSTORE SWAP2 PUSH1 0x20 ADD SWAP2 PUSH2 0x209 JUMP JUMPDEST DUP3 ADD SWAP2 SWAP1 PUSH1 0x0 MSTORE PUSH1 0x20 PUSH1 0x0 KECCAK256 SWAP1 JUMPDEST DUP2 SLOAD DUP2 MSTORE SWAP1 PUSH1 0x1 ADD SWAP1 PUSH1 0x20 ADD DUP1 DUP4 GT PUSH2 0x1EC JUMPI DUP3 SWAP1 SUB PUSH1 0x1F AND DUP3 ADD SWAP2 JUMPDEST POP POP POP POP POP SWAP1 DUP1 PUSH1 0x3 ADD SLOAD SWAP1 DUP1 PUSH1 0x4 ADD DUP1 SLOAD PUSH2 0x224 SWAP1 PUSH2 0x81A JUMP JUMPDEST DUP1 PUSH1 0x1F ADD PUSH1 0x20 DUP1 SWAP2 DIV MUL PUSH1 0x20 ADD PUSH1 0x40 MLOAD SWAP1 DUP2 ADD PUSH1 0x40 MSTORE DUP1 SWAP3 SWAP2 SWAP1 DUP2 DUP2 MSTORE PUSH1 0x20 ADD DUP3 DUP1 SLOAD PUSH2 0x250 SWAP1 PUSH2 0x81A JUMP JUMPDEST DUP1 ISZERO PUSH2 0x29D JUMPI DUP1 PUSH1 0x1F LT PUSH2 0x272 JUMPI PUSH2 0x100 DUP1 DUP4 SLOAD DIV MUL DUP4 MSTORE SWAP2 PUSH1 0x20 ADD SWAP2 PUSH2 0x29D JUMP JUMPDEST DUP3 ADD SWAP2 SWAP1 PUSH1 0x0 MSTORE PUSH1 0x20 PUSH1 0x0 KECCAK256 SWAP1 JUMPDEST DUP2 SLOAD DUP2 MSTORE SWAP1 PUSH1 0x1 ADD SWAP1 PUSH1 0x20 ADD DUP1 DUP4 GT PUSH2 0x280 JUMPI DUP3 SWAP1 SUB PUSH1 0x1F AND DUP3 ADD SWAP2 JUMPDEST POP POP POP POP POP SWAP1 POP DUP6 JUMP JUMPDEST POP JUMP JUMPDEST PUSH1 0x0 DUP2 SGT PUSH2 0x2ED JUMPI PUSH1 0x40 MLOAD PUSH32 0x8C379A000000000000000000000000000000000000000000000000000000000 DUP2 MSTORE PUSH1 0x4 ADD PUSH2 0x2E4 SWAP1 PUSH2 0x607 JUMP JUMPDEST PUSH1 0x40 MLOAD DUP1 SWAP2 SUB SWAP1 REVERT JUMPDEST DUP1 PUSH1 0x0 DUP1 CALLER PUSH20 0xFFFFFFFFFFFFFFFFFFFFFFFFFFFFFFFFFFFFFFFF AND PUSH20 0xFFFFFFFFFFFFFFFFFFFFFFFFFFFFFFFFFFFFFFFF AND DUP2 MSTORE PUSH1 0x20 ADD SWAP1 DUP2 MSTORE PUSH1 0x20 ADD PUSH1 0x0 KECCAK256 PUSH1 0x0 ADD PUSH1 0x0 DUP3 DUP3 SLOAD PUSH2 0x33E SWAP2 SWAP1 PUSH2 0x683 JUMP JUMPDEST SWAP3 POP POP DUP2 SWAP1 SSTORE POP POP JUMP JUMPDEST PUSH1 0x0 DUP2 SGT PUSH2 0x38B JUMPI PUSH1 0x40 MLOAD PUSH32 0x8C379A000000000000000000000000000000000000000000000000000000000 DUP2 MSTORE PUSH1 0x4 ADD PUSH2 0x382 SWAP1 PUSH2 0x647 JUMP JUMPDEST PUSH1 0x40 MLOAD DUP1 SWAP2 SUB SWAP1 REVERT JUMPDEST DUP1 PUSH1 0x0 DUP1 CALLER PUSH20 0xFFFFFFFFFFFFFFFFFFFFFFFFFFFFFFFFFFFFFFFF AND PUSH20 0xFFFFFFFFFFFFFFFFFFFFFFFFFFFFFFFFFFFFFFFF AND DUP2 MSTORE PUSH1 0x20 ADD SWAP1 DUP2 MSTORE PUSH1 0x20 ADD PUSH1 0x0 KECCAK256 PUSH1 0x0 ADD SLOAD SLT ISZERO PUSH2 0x40F JUMPI PUSH1 0x40 MLOAD PUSH32 0x8C379A000000000000000000000000000000000000000000000000000000000 DUP2 MSTORE PUSH1 0x4 ADD PUSH2 0x406 SWAP1 PUSH2 0x627 JUMP JUMPDEST PUSH1 0x40 MLOAD DUP1 SWAP2 SUB SWAP1 REVERT JUMPDEST DUP1 PUSH1 0x0 DUP1 CALLER PUSH20 0xFFFFFFFFFFFFFFFFFFFFFFFFFFFFFFFFFFFFFFFF AND PUSH20 0xFFFFFFFFFFFFFFFFFFFFFFFFFFFFFFFFFFFFFFFF AND DUP2 MSTORE PUSH1 0x20 ADD SWAP1 DUP2 MSTORE PUSH1 0x20 ADD PUSH1 0x0 KECCAK256 PUSH1 0x0 ADD PUSH1 0x0 DUP3 DUP3 SLOAD PUSH2 0x460 SWAP2 SWAP1 PUSH2 0x717 JUMP JUMPDEST SWAP3 POP POP DUP2 SWAP1 SSTORE POP POP JUMP JUMPDEST PUSH1 0x0 DUP2 CALLDATALOAD SWAP1 POP PUSH2 0x479 DUP2 PUSH2 0x9AD JUMP JUMPDEST SWAP3 SWAP2 POP POP JUMP JUMPDEST PUSH1 0x0 DUP2 CALLDATALOAD SWAP1 POP PUSH2 0x48E DUP2 PUSH2 0x9C4 JUMP JUMPDEST SWAP3 SWAP2 POP POP JUMP JUMPDEST PUSH1 0x0 PUSH1 0x20 DUP3 DUP5 SUB SLT ISZERO PUSH2 0x4AA JUMPI PUSH2 0x4A9 PUSH2 0x8AA JUMP JUMPDEST JUMPDEST PUSH1 0x0 PUSH2 0x4B8 DUP5 DUP3 DUP6 ADD PUSH2 0x46A JUMP JUMPDEST SWAP2 POP POP SWAP3 SWAP2 POP POP JUMP JUMPDEST PUSH1 0x0 PUSH1 0x20 DUP3 DUP5 SUB SLT ISZERO PUSH2 0x4D7 JUMPI PUSH2 0x4D6 PUSH2 0x8AA JUMP JUMPDEST JUMPDEST PUSH1 0x0 PUSH2 0x4E5 DUP5 DUP3 DUP6 ADD PUSH2 0x47F JUMP JUMPDEST SWAP2 POP POP SWAP3 SWAP2 POP POP JUMP JUMPDEST PUSH2 0x4F7 DUP2 PUSH2 0x7BD JUMP JUMPDEST DUP3 MSTORE POP POP JUMP JUMPDEST PUSH1 0x0 PUSH2 0x508 DUP3 PUSH2 0x667 JUMP JUMPDEST PUSH2 0x512 DUP2 DUP6 PUSH2 0x672 JUMP JUMPDEST SWAP4 POP PUSH2 0x522 DUP2 DUP6 PUSH1 0x20 DUP7 ADD PUSH2 0x7E7 JUMP JUMPDEST PUSH2 0x52B DUP2 PUSH2 0x8AF JUMP JUMPDEST DUP5 ADD SWAP2 POP POP SWAP3 SWAP2 POP POP JUMP JUMPDEST PUSH1 0x0 PUSH2 0x543 PUSH1 0x26 DUP4 PUSH2 0x672 JUMP JUMPDEST SWAP2 POP PUSH2 0x54E DUP3 PUSH2 0x8C0 JUMP JUMPDEST PUSH1 0x40 DUP3 ADD SWAP1 POP SWAP2 SWAP1 POP JUMP JUMPDEST PUSH1 0x0 PUSH2 0x566 PUSH1 0x37 DUP4 PUSH2 0x672 JUMP JUMPDEST SWAP2 POP PUSH2 0x571 DUP3 PUSH2 0x90F JUMP JUMPDEST PUSH1 0x40 DUP3 ADD SWAP1 POP SWAP2 SWAP1 POP JUMP JUMPDEST PUSH1 0x0 PUSH2 0x589 PUSH1 0x25 DUP4 PUSH2 0x672 JUMP JUMPDEST SWAP2 POP PUSH2 0x594 DUP3 PUSH2 0x95E JUMP JUMPDEST PUSH1 0x40 DUP3 ADD SWAP1 POP SWAP2 SWAP1 POP JUMP JUMPDEST PUSH1 0x0 PUSH1 0xA0 DUP3 ADD SWAP1 POP PUSH2 0x5B4 PUSH1 0x0 DUP4 ADD DUP9 PUSH2 0x4EE JUMP JUMPDEST DUP2 DUP2 SUB PUSH1 0x20 DUP4 ADD MSTORE PUSH2 0x5C6 DUP2 DUP8 PUSH2 0x4FD JUMP JUMPDEST SWAP1 POP DUP2 DUP2 SUB PUSH1 0x40 DUP4 ADD MSTORE PUSH2 0x5DA DUP2 DUP7 PUSH2 0x4FD JUMP JUMPDEST SWAP1 POP PUSH2 0x5E9 PUSH1 0x60 DUP4 ADD DUP6 PUSH2 0x4EE JUMP JUMPDEST DUP2 DUP2 SUB PUSH1 0x80 DUP4 ADD MSTORE PUSH2 0x5FB DUP2 DUP5 PUSH2 0x4FD JUMP JUMPDEST SWAP1 POP SWAP7 SWAP6 POP POP POP POP POP POP JUMP JUMPDEST PUSH1 0x0 PUSH1 0x20 DUP3 ADD SWAP1 POP DUP2 DUP2 SUB PUSH1 0x0 DUP4 ADD MSTORE PUSH2 0x620 DUP2 PUSH2 0x536 JUMP JUMPDEST SWAP1 POP SWAP2 SWAP1 POP JUMP JUMPDEST PUSH1 0x0 PUSH1 0x20 DUP3 ADD SWAP1 POP DUP2 DUP2 SUB PUSH1 0x0 DUP4 ADD MSTORE PUSH2 0x640 DUP2 PUSH2 0x559 JUMP JUMPDEST SWAP1 POP SWAP2 SWAP1 POP JUMP JUMPDEST PUSH1 0x0 PUSH1 0x20 DUP3 ADD SWAP1 POP DUP2 DUP2 SUB PUSH1 0x0 DUP4 ADD MSTORE PUSH2 0x660 DUP2 PUSH2 0x57C JUMP JUMPDEST SWAP1 POP SWAP2 SWAP1 POP JUMP JUMPDEST PUSH1 0x0 DUP2 MLOAD SWAP1 POP SWAP2 SWAP1 POP JUMP JUMPDEST PUSH1 0x0 DUP3 DUP3 MSTORE PUSH1 0x20 DUP3 ADD SWAP1 POP SWAP3 SWAP2 POP POP JUMP JUMPDEST PUSH1 0x0 PUSH2 0x68E DUP3 PUSH2 0x7BD JUMP JUMPDEST SWAP2 POP PUSH2 0x699 DUP4 PUSH2 0x7BD JUMP JUMPDEST SWAP3 POP DUP2 PUSH32 0x7FFFFFFFFFFFFFFFFFFFFFFFFFFFFFFFFFFFFFFFFFFFFFFFFFFFFFFFFFFFFFFF SUB DUP4 SGT PUSH1 0x0 DUP4 SLT ISZERO AND ISZERO PUSH2 0x6D4 JUMPI PUSH2 0x6D3 PUSH2 0x84C JUMP JUMPDEST JUMPDEST DUP2 PUSH32 0x8000000000000000000000000000000000000000000000000000000000000000 SUB DUP4 SLT PUSH1 0x0 DUP4 SLT AND ISZERO PUSH2 0x70C JUMPI PUSH2 0x70B PUSH2 0x84C JUMP JUMPDEST JUMPDEST DUP3 DUP3 ADD SWAP1 POP SWAP3 SWAP2 POP POP JUMP JUMPDEST PUSH1 0x0 PUSH2 0x722 DUP3 PUSH2 0x7BD JUMP JUMPDEST SWAP2 POP PUSH2 0x72D DUP4 PUSH2 0x7BD JUMP JUMPDEST SWAP3 POP DUP3 PUSH32 0x8000000000000000000000000000000000000000000000000000000000000000 ADD DUP3 SLT PUSH1 0x0 DUP5 SLT ISZERO AND ISZERO PUSH2 0x768 JUMPI PUSH2 0x767 PUSH2 0x84C JUMP JUMPDEST JUMPDEST DUP3 PUSH32 0x7FFFFFFFFFFFFFFFFFFFFFFFFFFFFFFFFFFFFFFFFFFFFFFFFFFFFFFFFFFFFFFF ADD DUP3 SGT PUSH1 0x0 DUP5 SLT AND ISZERO PUSH2 0x7A0 JUMPI PUSH2 0x79F PUSH2 0x84C JUMP JUMPDEST JUMPDEST DUP3 DUP3 SUB SWAP1 POP SWAP3 SWAP2 POP POP JUMP JUMPDEST PUSH1 0x0 PUSH2 0x7B6 DUP3 PUSH2 0x7C7 JUMP JUMPDEST SWAP1 POP SWAP2 SWAP1 POP JUMP JUMPDEST PUSH1 0x0 DUP2 SWAP1 POP SWAP2 SWAP1 POP JUMP JUMPDEST PUSH1 0x0 PUSH20 0xFFFFFFFFFFFFFFFFFFFFFFFFFFFFFFFFFFFFFFFF DUP3 AND SWAP1 POP SWAP2 SWAP1 POP JUMP JUMPDEST PUSH1 0x0 JUMPDEST DUP4 DUP2 LT ISZERO PUSH2 0x805 JUMPI DUP1 DUP3 ADD MLOAD DUP2 DUP5 ADD MSTORE PUSH1 0x20 DUP2 ADD SWAP1 POP PUSH2 0x7EA JUMP JUMPDEST DUP4 DUP2 GT ISZERO PUSH2 0x814 JUMPI PUSH1 0x0 DUP5 DUP5 ADD MSTORE JUMPDEST POP POP POP POP JUMP JUMPDEST PUSH1 0x0 PUSH1 0x2 DUP3 DIV SWAP1 POP PUSH1 0x1 DUP3 AND DUP1 PUSH2 0x832 JUMPI PUSH1 0x7F DUP3 AND SWAP2 POP JUMPDEST PUSH1 0x20 DUP3 LT DUP2 EQ ISZERO PUSH2 0x846 JUMPI PUSH2 0x845 PUSH2 0x87B JUMP JUMPDEST JUMPDEST POP SWAP2 SWAP1 POP JUMP JUMPDEST PUSH32 0x4E487B7100000000000000000000000000000000000000000000000000000000 PUSH1 0x0 MSTORE PUSH1 0x11 PUSH1 0x4 MSTORE PUSH1 0x24 PUSH1 0x0 REVERT JUMPDEST PUSH32 0x4E487B7100000000000000000000000000000000000000000000000000000000 PUSH1 0x0 MSTORE PUSH1 0x22 PUSH1 0x4 MSTORE PUSH1 0x24 PUSH1 0x0 REVERT JUMPDEST PUSH1 0x0 DUP1 REVERT JUMPDEST PUSH1 0x0 PUSH1 0x1F NOT PUSH1 0x1F DUP4 ADD AND SWAP1 POP SWAP2 SWAP1 POP JUMP JUMPDEST PUSH32 0x73616C646F207061726120696E677265736172206465626520736572206D6179 PUSH1 0x0 DUP3 ADD MSTORE PUSH32 0x6F72206120300000000000000000000000000000000000000000000000000000 PUSH1 0x20 DUP3 ADD MSTORE POP JUMP JUMPDEST PUSH32 0x73616C646F20706172612072657469726172206E6F206465626520736572206D PUSH1 0x0 DUP3 ADD MSTORE PUSH32 0x61796F7220612073752073616C646F206163747561726C000000000000000000 PUSH1 0x20 DUP3 ADD MSTORE POP JUMP JUMPDEST PUSH32 0x73616C646F20706172612072657469726172206465626520736572206D61796F PUSH1 0x0 DUP3 ADD MSTORE PUSH32 0x7220612030000000000000000000000000000000000000000000000000000000 PUSH1 0x20 DUP3 ADD MSTORE POP JUMP JUMPDEST PUSH2 0x9B6 DUP2 PUSH2 0x7AB JUMP JUMPDEST DUP2 EQ PUSH2 0x9C1 JUMPI PUSH1 0x0 DUP1 REVERT JUMPDEST POP JUMP JUMPDEST PUSH2 0x9CD DUP2 PUSH2 0x7BD JUMP JUMPDEST DUP2 EQ PUSH2 0x9D8 JUMPI PUSH1 0x0 DUP1 REVERT JUMPDEST POP JUMP INVALID LOG2 PUSH5 0x6970667358 0x22 SLT KECCAK256 BASEFEE EXTCODESIZE 0xBD ADDRESS EQ PC 0xC3 CREATE DUP2 0xB2 0xB6 0x2B PUSH7 0xF11DCD8C4EB44C PUSH11 0x5794C67F47BCB93E808478 PUSH5 0x736F6C6343 STOP ADDMOD SMOD STOP CALLER "
				},
				"gasEstimates": {
					"creation": {
						"codeDepositCost": "515400",
						"executionCost": "549",
						"totalCost": "515949"
					},
					"external": {
						"addCuentaAhorro(int256)": "406",
						"ingresarSaldo(int256)": "infinite",
						"mappingCuentaAhorro(address)": "infinite",
						"retirarSaldo(int256)": "infinite"
					}
				},
				"methodIdentifiers": {
					"addCuentaAhorro(int256)": "72460240",
					"ingresarSaldo(int256)": "93ba1e60",
					"mappingCuentaAhorro(address)": "63e4cdcc",
					"retirarSaldo(int256)": "c28a41ec"
				}
			},
			"storageLayout": {
				"storage": [
					{
						"astId": 17,
						"contract": "contracts/Ejercicio1CuentaAhorro.sol:Ejercicio1CuentaAhorro",
						"label": "mappingCuentaAhorro",
						"offset": 0,
						"slot": "0",
						"type": "t_mapping(t_address,t_struct(CuentaAhorro)12_storage)"
					}
				],
				"types": {
					"t_address": {
						"encoding": "inplace",
						"label": "address",
						"numberOfBytes": "20"
					},
					"t_int256": {
						"encoding": "inplace",
						"label": "int256",
						"numberOfBytes": "32"
					},
					"t_mapping(t_address,t_struct(CuentaAhorro)12_storage)": {
						"encoding": "mapping",
						"key": "t_address",
						"label": "mapping(address => struct Ejercicio1CuentaAhorro.CuentaAhorro)",
						"numberOfBytes": "32",
						"value": "t_struct(CuentaAhorro)12_storage"
					},
					"t_string_storage": {
						"encoding": "bytes",
						"label": "string",
						"numberOfBytes": "32"
					},
					"t_struct(CuentaAhorro)12_storage": {
						"encoding": "inplace",
						"label": "struct Ejercicio1CuentaAhorro.CuentaAhorro",
						"members": [
							{
								"astId": 3,
								"contract": "contracts/Ejercicio1CuentaAhorro.sol:Ejercicio1CuentaAhorro",
								"label": "saldo",
								"offset": 0,
								"slot": "0",
								"type": "t_int256"
							},
							{
								"astId": 5,
								"contract": "contracts/Ejercicio1CuentaAhorro.sol:Ejercicio1CuentaAhorro",
								"label": "addressCuenta",
								"offset": 0,
								"slot": "1",
								"type": "t_string_storage"
							},
							{
								"astId": 7,
								"contract": "contracts/Ejercicio1CuentaAhorro.sol:Ejercicio1CuentaAhorro",
								"label": "nombre",
								"offset": 0,
								"slot": "2",
								"type": "t_string_storage"
							},
							{
								"astId": 9,
								"contract": "contracts/Ejercicio1CuentaAhorro.sol:Ejercicio1CuentaAhorro",
								"label": "edad",
								"offset": 0,
								"slot": "3",
								"type": "t_int256"
							},
							{
								"astId": 11,
								"contract": "contracts/Ejercicio1CuentaAhorro.sol:Ejercicio1CuentaAhorro",
								"label": "colorFavorito",
								"offset": 0,
								"slot": "4",
								"type": "t_string_storage"
							}
						],
						"numberOfBytes": "160"
					}
				}
			},
			"userdoc": {
				"kind": "user",
				"methods": {},
				"version": 1
			}
		}
	}
}