{
	"contracts/Ejercicio1CuentaAhorro.sol": {
		"Ejercicio1CuentaAhorro": {
			"abi": [
				{
					"inputs": [
						{
							"internalType": "string",
							"name": "nombre",
							"type": "string"
						},
						{
							"internalType": "int256",
							"name": "edad",
							"type": "int256"
						},
						{
							"internalType": "string",
							"name": "colorFavorito",
							"type": "string"
						}
					],
					"name": "addCuentaAhorro",
					"outputs": [],
					"stateMutability": "nonpayable",
					"type": "function"
				},
				{
					"inputs": [
						{
							"internalType": "int256",
							"name": "saldoParaIngresar",
							"type": "int256"
						}
					],
					"name": "ingresarSaldo",
					"outputs": [],
					"stateMutability": "nonpayable",
					"type": "function"
				},
				{
					"inputs": [
						{
							"internalType": "address",
							"name": "",
							"type": "address"
						}
					],
					"name": "mappingCuentaAhorro",
					"outputs": [
						{
							"internalType": "int256",
							"name": "saldo",
							"type": "int256"
						},
						{
							"internalType": "address",
							"name": "addressCuenta",
							"type": "address"
						},
						{
							"internalType": "string",
							"name": "nombre",
							"type": "string"
						},
						{
							"internalType": "int256",
							"name": "edad",
							"type": "int256"
						},
						{
							"internalType": "string",
							"name": "colorFavorito",
							"type": "string"
						}
					],
					"stateMutability": "view",
					"type": "function"
				},
				{
					"inputs": [
						{
							"internalType": "int256",
							"name": "saldoParaRetirar",
							"type": "int256"
						}
					],
					"name": "retirarSaldo",
					"outputs": [],
					"stateMutability": "nonpayable",
					"type": "function"
				}
			],
			"devdoc": {
				"kind": "dev",
				"methods": {},
				"version": 1
			},
			"evm": {
				"assembly": "    /* \"contracts/Ejercicio1CuentaAhorro.sol\":2113:3290  contract Ejercicio1CuentaAhorro {\r... */\n  mstore(0x40, 0x80)\n  callvalue\n  dup1\n  iszero\n  tag_1\n  jumpi\n  0x00\n  dup1\n  revert\ntag_1:\n  pop\n  dataSize(sub_0)\n  dup1\n  dataOffset(sub_0)\n  0x00\n  codecopy\n  0x00\n  return\nstop\n\nsub_0: assembly {\n        /* \"contracts/Ejercicio1CuentaAhorro.sol\":2113:3290  contract Ejercicio1CuentaAhorro {\r... */\n      mstore(0x40, 0x80)\n      callvalue\n      dup1\n      iszero\n      tag_1\n      jumpi\n      0x00\n      dup1\n      revert\n    tag_1:\n      pop\n      jumpi(tag_2, lt(calldatasize, 0x04))\n      shr(0xe0, calldataload(0x00))\n      dup1\n      0x639d3921\n      eq\n      tag_3\n      jumpi\n      dup1\n      0x63e4cdcc\n      eq\n      tag_4\n      jumpi\n      dup1\n      0x93ba1e60\n      eq\n      tag_5\n      jumpi\n      dup1\n      0xc28a41ec\n      eq\n      tag_6\n      jumpi\n    tag_2:\n      0x00\n      dup1\n      revert\n        /* \"contracts/Ejercicio1CuentaAhorro.sol\":2508:2711  function addCuentaAhorro (string memory nombre, int edad, string memory colorFavorito) public {\r... */\n    tag_3:\n      tag_7\n      0x04\n      dup1\n      calldatasize\n      sub\n      dup2\n      add\n      swap1\n      tag_8\n      swap2\n      swap1\n      tag_9\n      jump\t// in\n    tag_8:\n      tag_10\n      jump\t// in\n    tag_7:\n      stop\n        /* \"contracts/Ejercicio1CuentaAhorro.sol\":2439:2499  mapping (address => CuentaAhorro) public mappingCuentaAhorro */\n    tag_4:\n      tag_11\n      0x04\n      dup1\n      calldatasize\n      sub\n      dup2\n      add\n      swap1\n      tag_12\n      swap2\n      swap1\n      tag_13\n      jump\t// in\n    tag_12:\n      tag_14\n      jump\t// in\n    tag_11:\n      mload(0x40)\n      tag_15\n      swap6\n      swap5\n      swap4\n      swap3\n      swap2\n      swap1\n      tag_16\n      jump\t// in\n    tag_15:\n      mload(0x40)\n      dup1\n      swap2\n      sub\n      swap1\n      return\n        /* \"contracts/Ejercicio1CuentaAhorro.sol\":2719:2933  function ingresarSaldo (int saldoParaIngresar) public {\r... */\n    tag_5:\n      tag_17\n      0x04\n      dup1\n      calldatasize\n      sub\n      dup2\n      add\n      swap1\n      tag_18\n      swap2\n      swap1\n      tag_19\n      jump\t// in\n    tag_18:\n      tag_20\n      jump\t// in\n    tag_17:\n      stop\n        /* \"contracts/Ejercicio1CuentaAhorro.sol\":2941:3287  function retirarSaldo (int saldoParaRetirar) public {\r... */\n    tag_6:\n      tag_21\n      0x04\n      dup1\n      calldatasize\n      sub\n      dup2\n      add\n      swap1\n      tag_22\n      swap2\n      swap1\n      tag_19\n      jump\t// in\n    tag_22:\n      tag_23\n      jump\t// in\n    tag_21:\n      stop\n        /* \"contracts/Ejercicio1CuentaAhorro.sol\":2508:2711  function addCuentaAhorro (string memory nombre, int edad, string memory colorFavorito) public {\r... */\n    tag_10:\n        /* \"contracts/Ejercicio1CuentaAhorro.sol\":2647:2703  CuentaAhorro(0, msg.sender, nombre, edad, colorFavorito) */\n      mload(0x40)\n      dup1\n      0xa0\n      add\n      0x40\n      mstore\n      dup1\n        /* \"contracts/Ejercicio1CuentaAhorro.sol\":2660:2661  0 */\n      0x00\n        /* \"contracts/Ejercicio1CuentaAhorro.sol\":2647:2703  CuentaAhorro(0, msg.sender, nombre, edad, colorFavorito) */\n      dup2\n      mstore\n      0x20\n      add\n        /* \"contracts/Ejercicio1CuentaAhorro.sol\":2663:2673  msg.sender */\n      caller\n        /* \"contracts/Ejercicio1CuentaAhorro.sol\":2647:2703  CuentaAhorro(0, msg.sender, nombre, edad, colorFavorito) */\n      0xffffffffffffffffffffffffffffffffffffffff\n      and\n      dup2\n      mstore\n      0x20\n      add\n        /* \"contracts/Ejercicio1CuentaAhorro.sol\":2675:2681  nombre */\n      dup5\n        /* \"contracts/Ejercicio1CuentaAhorro.sol\":2647:2703  CuentaAhorro(0, msg.sender, nombre, edad, colorFavorito) */\n      dup2\n      mstore\n      0x20\n      add\n        /* \"contracts/Ejercicio1CuentaAhorro.sol\":2683:2687  edad */\n      dup4\n        /* \"contracts/Ejercicio1CuentaAhorro.sol\":2647:2703  CuentaAhorro(0, msg.sender, nombre, edad, colorFavorito) */\n      dup2\n      mstore\n      0x20\n      add\n        /* \"contracts/Ejercicio1CuentaAhorro.sol\":2689:2702  colorFavorito */\n      dup3\n        /* \"contracts/Ejercicio1CuentaAhorro.sol\":2647:2703  CuentaAhorro(0, msg.sender, nombre, edad, colorFavorito) */\n      dup2\n      mstore\n      pop\n        /* \"contracts/Ejercicio1CuentaAhorro.sol\":2613:2632  mappingCuentaAhorro */\n      0x00\n        /* \"contracts/Ejercicio1CuentaAhorro.sol\":2613:2644  mappingCuentaAhorro[msg.sender] */\n      dup1\n        /* \"contracts/Ejercicio1CuentaAhorro.sol\":2633:2643  msg.sender */\n      caller\n        /* \"contracts/Ejercicio1CuentaAhorro.sol\":2613:2644  mappingCuentaAhorro[msg.sender] */\n      0xffffffffffffffffffffffffffffffffffffffff\n      and\n      0xffffffffffffffffffffffffffffffffffffffff\n      and\n      dup2\n      mstore\n      0x20\n      add\n      swap1\n      dup2\n      mstore\n      0x20\n      add\n      0x00\n      keccak256\n        /* \"contracts/Ejercicio1CuentaAhorro.sol\":2613:2703  mappingCuentaAhorro[msg.sender] = CuentaAhorro(0, msg.sender, nombre, edad, colorFavorito) */\n      0x00\n      dup3\n      add\n      mload\n      dup2\n      0x00\n      add\n      sstore\n      0x20\n      dup3\n      add\n      mload\n      dup2\n      0x01\n      add\n      exp(0x0100, 0x00)\n      dup2\n      sload\n      dup2\n      0xffffffffffffffffffffffffffffffffffffffff\n      mul\n      not\n      and\n      swap1\n      dup4\n      0xffffffffffffffffffffffffffffffffffffffff\n      and\n      mul\n      or\n      swap1\n      sstore\n      pop\n      0x40\n      dup3\n      add\n      mload\n      dup2\n      0x02\n      add\n      swap1\n      dup1\n      mload\n      swap1\n      0x20\n      add\n      swap1\n      tag_25\n      swap3\n      swap2\n      swap1\n      tag_26\n      jump\t// in\n    tag_25:\n      pop\n      0x60\n      dup3\n      add\n      mload\n      dup2\n      0x03\n      add\n      sstore\n      0x80\n      dup3\n      add\n      mload\n      dup2\n      0x04\n      add\n      swap1\n      dup1\n      mload\n      swap1\n      0x20\n      add\n      swap1\n      tag_27\n      swap3\n      swap2\n      swap1\n      tag_26\n      jump\t// in\n    tag_27:\n      pop\n      swap1\n      pop\n      pop\n        /* \"contracts/Ejercicio1CuentaAhorro.sol\":2508:2711  function addCuentaAhorro (string memory nombre, int edad, string memory colorFavorito) public {\r... */\n      pop\n      pop\n      pop\n      jump\t// out\n        /* \"contracts/Ejercicio1CuentaAhorro.sol\":2439:2499  mapping (address => CuentaAhorro) public mappingCuentaAhorro */\n    tag_14:\n      mstore(0x20, 0x00)\n      dup1\n      0x00\n      mstore\n      keccak256(0x00, 0x40)\n      0x00\n      swap2\n      pop\n      swap1\n      pop\n      dup1\n      0x00\n      add\n      sload\n      swap1\n      dup1\n      0x01\n      add\n      0x00\n      swap1\n      sload\n      swap1\n      0x0100\n      exp\n      swap1\n      div\n      0xffffffffffffffffffffffffffffffffffffffff\n      and\n      swap1\n      dup1\n      0x02\n      add\n      dup1\n      sload\n      tag_28\n      swap1\n      tag_29\n      jump\t// in\n    tag_28:\n      dup1\n      0x1f\n      add\n      0x20\n      dup1\n      swap2\n      div\n      mul\n      0x20\n      add\n      mload(0x40)\n      swap1\n      dup2\n      add\n      0x40\n      mstore\n      dup1\n      swap3\n      swap2\n      swap1\n      dup2\n      dup2\n      mstore\n      0x20\n      add\n      dup3\n      dup1\n      sload\n      tag_30\n      swap1\n      tag_29\n      jump\t// in\n    tag_30:\n      dup1\n      iszero\n      tag_31\n      jumpi\n      dup1\n      0x1f\n      lt\n      tag_32\n      jumpi\n      0x0100\n      dup1\n      dup4\n      sload\n      div\n      mul\n      dup4\n      mstore\n      swap2\n      0x20\n      add\n      swap2\n      jump(tag_31)\n    tag_32:\n      dup3\n      add\n      swap2\n      swap1\n      0x00\n      mstore\n      keccak256(0x00, 0x20)\n      swap1\n    tag_33:\n      dup2\n      sload\n      dup2\n      mstore\n      swap1\n      0x01\n      add\n      swap1\n      0x20\n      add\n      dup1\n      dup4\n      gt\n      tag_33\n      jumpi\n      dup3\n      swap1\n      sub\n      0x1f\n      and\n      dup3\n      add\n      swap2\n    tag_31:\n      pop\n      pop\n      pop\n      pop\n      pop\n      swap1\n      dup1\n      0x03\n      add\n      sload\n      swap1\n      dup1\n      0x04\n      add\n      dup1\n      sload\n      tag_34\n      swap1\n      tag_29\n      jump\t// in\n    tag_34:\n      dup1\n      0x1f\n      add\n      0x20\n      dup1\n      swap2\n      div\n      mul\n      0x20\n      add\n      mload(0x40)\n      swap1\n      dup2\n      add\n      0x40\n      mstore\n      dup1\n      swap3\n      swap2\n      swap1\n      dup2\n      dup2\n      mstore\n      0x20\n      add\n      dup3\n      dup1\n      sload\n      tag_35\n      swap1\n      tag_29\n      jump\t// in\n    tag_35:\n      dup1\n      iszero\n      tag_36\n      jumpi\n      dup1\n      0x1f\n      lt\n      tag_37\n      jumpi\n      0x0100\n      dup1\n      dup4\n      sload\n      div\n      mul\n      dup4\n      mstore\n      swap2\n      0x20\n      add\n      swap2\n      jump(tag_36)\n    tag_37:\n      dup3\n      add\n      swap2\n      swap1\n      0x00\n      mstore\n      keccak256(0x00, 0x20)\n      swap1\n    tag_38:\n      dup2\n      sload\n      dup2\n      mstore\n      swap1\n      0x01\n      add\n      swap1\n      0x20\n      add\n      dup1\n      dup4\n      gt\n      tag_38\n      jumpi\n      dup3\n      swap1\n      sub\n      0x1f\n      and\n      dup3\n      add\n      swap2\n    tag_36:\n      pop\n      pop\n      pop\n      pop\n      pop\n      swap1\n      pop\n      dup6\n      jump\t// out\n        /* \"contracts/Ejercicio1CuentaAhorro.sol\":2719:2933  function ingresarSaldo (int saldoParaIngresar) public {\r... */\n    tag_20:\n        /* \"contracts/Ejercicio1CuentaAhorro.sol\":2812:2813  0 */\n      0x00\n        /* \"contracts/Ejercicio1CuentaAhorro.sol\":2792:2809  saldoParaIngresar */\n      dup2\n        /* \"contracts/Ejercicio1CuentaAhorro.sol\":2792:2813  saldoParaIngresar > 0 */\n      sgt\n        /* \"contracts/Ejercicio1CuentaAhorro.sol\":2784:2856  require(saldoParaIngresar > 0, \"saldo para ingresar debe ser mayor a 0\") */\n      tag_40\n      jumpi\n      mload(0x40)\n      0x08c379a000000000000000000000000000000000000000000000000000000000\n      dup2\n      mstore\n      0x04\n      add\n      tag_41\n      swap1\n      tag_42\n      jump\t// in\n    tag_41:\n      mload(0x40)\n      dup1\n      swap2\n      sub\n      swap1\n      revert\n    tag_40:\n        /* \"contracts/Ejercicio1CuentaAhorro.sol\":2908:2925  saldoParaIngresar */\n      dup1\n        /* \"contracts/Ejercicio1CuentaAhorro.sol\":2867:2886  mappingCuentaAhorro */\n      0x00\n        /* \"contracts/Ejercicio1CuentaAhorro.sol\":2867:2898  mappingCuentaAhorro[msg.sender] */\n      dup1\n        /* \"contracts/Ejercicio1CuentaAhorro.sol\":2887:2897  msg.sender */\n      caller\n        /* \"contracts/Ejercicio1CuentaAhorro.sol\":2867:2898  mappingCuentaAhorro[msg.sender] */\n      0xffffffffffffffffffffffffffffffffffffffff\n      and\n      0xffffffffffffffffffffffffffffffffffffffff\n      and\n      dup2\n      mstore\n      0x20\n      add\n      swap1\n      dup2\n      mstore\n      0x20\n      add\n      0x00\n      keccak256\n        /* \"contracts/Ejercicio1CuentaAhorro.sol\":2867:2904  mappingCuentaAhorro[msg.sender].saldo */\n      0x00\n      add\n      0x00\n        /* \"contracts/Ejercicio1CuentaAhorro.sol\":2867:2925  mappingCuentaAhorro[msg.sender].saldo += saldoParaIngresar */\n      dup3\n      dup3\n      sload\n      tag_43\n      swap2\n      swap1\n      tag_44\n      jump\t// in\n    tag_43:\n      swap3\n      pop\n      pop\n      dup2\n      swap1\n      sstore\n      pop\n        /* \"contracts/Ejercicio1CuentaAhorro.sol\":2719:2933  function ingresarSaldo (int saldoParaIngresar) public {\r... */\n      pop\n      jump\t// out\n        /* \"contracts/Ejercicio1CuentaAhorro.sol\":2941:3287  function retirarSaldo (int saldoParaRetirar) public {\r... */\n    tag_23:\n        /* \"contracts/Ejercicio1CuentaAhorro.sol\":3031:3032  0 */\n      0x00\n        /* \"contracts/Ejercicio1CuentaAhorro.sol\":3012:3028  saldoParaRetirar */\n      dup2\n        /* \"contracts/Ejercicio1CuentaAhorro.sol\":3012:3032  saldoParaRetirar > 0 */\n      sgt\n        /* \"contracts/Ejercicio1CuentaAhorro.sol\":3004:3074  require(saldoParaRetirar > 0, \"saldo para retirar debe ser mayor a 0\") */\n      tag_46\n      jumpi\n      mload(0x40)\n      0x08c379a000000000000000000000000000000000000000000000000000000000\n      dup2\n      mstore\n      0x04\n      add\n      tag_47\n      swap1\n      tag_48\n      jump\t// in\n    tag_47:\n      mload(0x40)\n      dup1\n      swap2\n      sub\n      swap1\n      revert\n    tag_46:\n        /* \"contracts/Ejercicio1CuentaAhorro.sol\":3134:3150  saldoParaRetirar */\n      dup1\n        /* \"contracts/Ejercicio1CuentaAhorro.sol\":3093:3112  mappingCuentaAhorro */\n      0x00\n        /* \"contracts/Ejercicio1CuentaAhorro.sol\":3093:3124  mappingCuentaAhorro[msg.sender] */\n      dup1\n        /* \"contracts/Ejercicio1CuentaAhorro.sol\":3113:3123  msg.sender */\n      caller\n        /* \"contracts/Ejercicio1CuentaAhorro.sol\":3093:3124  mappingCuentaAhorro[msg.sender] */\n      0xffffffffffffffffffffffffffffffffffffffff\n      and\n      0xffffffffffffffffffffffffffffffffffffffff\n      and\n      dup2\n      mstore\n      0x20\n      add\n      swap1\n      dup2\n      mstore\n      0x20\n      add\n      0x00\n      keccak256\n        /* \"contracts/Ejercicio1CuentaAhorro.sol\":3093:3130  mappingCuentaAhorro[msg.sender].saldo */\n      0x00\n      add\n      sload\n        /* \"contracts/Ejercicio1CuentaAhorro.sol\":3093:3150  mappingCuentaAhorro[msg.sender].saldo >= saldoParaRetirar */\n      slt\n      iszero\n        /* \"contracts/Ejercicio1CuentaAhorro.sol\":3085:3211  require(mappingCuentaAhorro[msg.sender].saldo >= saldoParaRetirar , \"saldo para retirar no debe ser mayor a su saldo actuarl\") */\n      tag_49\n      jumpi\n      mload(0x40)\n      0x08c379a000000000000000000000000000000000000000000000000000000000\n      dup2\n      mstore\n      0x04\n      add\n      tag_50\n      swap1\n      tag_51\n      jump\t// in\n    tag_50:\n      mload(0x40)\n      dup1\n      swap2\n      sub\n      swap1\n      revert\n    tag_49:\n        /* \"contracts/Ejercicio1CuentaAhorro.sol\":3263:3279  saldoParaRetirar */\n      dup1\n        /* \"contracts/Ejercicio1CuentaAhorro.sol\":3222:3241  mappingCuentaAhorro */\n      0x00\n        /* \"contracts/Ejercicio1CuentaAhorro.sol\":3222:3253  mappingCuentaAhorro[msg.sender] */\n      dup1\n        /* \"contracts/Ejercicio1CuentaAhorro.sol\":3242:3252  msg.sender */\n      caller\n        /* \"contracts/Ejercicio1CuentaAhorro.sol\":3222:3253  mappingCuentaAhorro[msg.sender] */\n      0xffffffffffffffffffffffffffffffffffffffff\n      and\n      0xffffffffffffffffffffffffffffffffffffffff\n      and\n      dup2\n      mstore\n      0x20\n      add\n      swap1\n      dup2\n      mstore\n      0x20\n      add\n      0x00\n      keccak256\n        /* \"contracts/Ejercicio1CuentaAhorro.sol\":3222:3259  mappingCuentaAhorro[msg.sender].saldo */\n      0x00\n      add\n      0x00\n        /* \"contracts/Ejercicio1CuentaAhorro.sol\":3222:3279  mappingCuentaAhorro[msg.sender].saldo -= saldoParaRetirar */\n      dup3\n      dup3\n      sload\n      tag_52\n      swap2\n      swap1\n      tag_53\n      jump\t// in\n    tag_52:\n      swap3\n      pop\n      pop\n      dup2\n      swap1\n      sstore\n      pop\n        /* \"contracts/Ejercicio1CuentaAhorro.sol\":2941:3287  function retirarSaldo (int saldoParaRetirar) public {\r... */\n      pop\n      jump\t// out\n    tag_26:\n      dup3\n      dup1\n      sload\n      tag_54\n      swap1\n      tag_29\n      jump\t// in\n    tag_54:\n      swap1\n      0x00\n      mstore\n      keccak256(0x00, 0x20)\n      swap1\n      0x1f\n      add\n      0x20\n      swap1\n      div\n      dup2\n      add\n      swap3\n      dup3\n      tag_56\n      jumpi\n      0x00\n      dup6\n      sstore\n      jump(tag_55)\n    tag_56:\n      dup3\n      0x1f\n      lt\n      tag_57\n      jumpi\n      dup1\n      mload\n      not(0xff)\n      and\n      dup4\n      dup1\n      add\n      or\n      dup6\n      sstore\n      jump(tag_55)\n    tag_57:\n      dup3\n      dup1\n      add\n      0x01\n      add\n      dup6\n      sstore\n      dup3\n      iszero\n      tag_55\n      jumpi\n      swap2\n      dup3\n      add\n    tag_58:\n      dup3\n      dup2\n      gt\n      iszero\n      tag_59\n      jumpi\n      dup3\n      mload\n      dup3\n      sstore\n      swap2\n      0x20\n      add\n      swap2\n      swap1\n      0x01\n      add\n      swap1\n      jump(tag_58)\n    tag_59:\n    tag_55:\n      pop\n      swap1\n      pop\n      tag_60\n      swap2\n      swap1\n      tag_61\n      jump\t// in\n    tag_60:\n      pop\n      swap1\n      jump\t// out\n    tag_61:\n    tag_62:\n      dup1\n      dup3\n      gt\n      iszero\n      tag_63\n      jumpi\n      0x00\n      dup2\n      0x00\n      swap1\n      sstore\n      pop\n      0x01\n      add\n      jump(tag_62)\n    tag_63:\n      pop\n      swap1\n      jump\t// out\n        /* \"#utility.yul\":7:419   */\n    tag_65:\n        /* \"#utility.yul\":85:90   */\n      0x00\n        /* \"#utility.yul\":110:176   */\n      tag_67\n        /* \"#utility.yul\":126:175   */\n      tag_68\n        /* \"#utility.yul\":168:174   */\n      dup5\n        /* \"#utility.yul\":126:175   */\n      tag_69\n      jump\t// in\n    tag_68:\n        /* \"#utility.yul\":110:176   */\n      tag_70\n      jump\t// in\n    tag_67:\n        /* \"#utility.yul\":101:176   */\n      swap1\n      pop\n        /* \"#utility.yul\":199:205   */\n      dup3\n        /* \"#utility.yul\":192:197   */\n      dup2\n        /* \"#utility.yul\":185:206   */\n      mstore\n        /* \"#utility.yul\":237:241   */\n      0x20\n        /* \"#utility.yul\":230:235   */\n      dup2\n        /* \"#utility.yul\":226:242   */\n      add\n        /* \"#utility.yul\":275:278   */\n      dup5\n        /* \"#utility.yul\":266:272   */\n      dup5\n        /* \"#utility.yul\":261:264   */\n      dup5\n        /* \"#utility.yul\":257:273   */\n      add\n        /* \"#utility.yul\":254:279   */\n      gt\n        /* \"#utility.yul\":251:363   */\n      iszero\n      tag_71\n      jumpi\n        /* \"#utility.yul\":282:361   */\n      tag_72\n      tag_73\n      jump\t// in\n    tag_72:\n        /* \"#utility.yul\":251:363   */\n    tag_71:\n        /* \"#utility.yul\":372:413   */\n      tag_74\n        /* \"#utility.yul\":406:412   */\n      dup5\n        /* \"#utility.yul\":401:404   */\n      dup3\n        /* \"#utility.yul\":396:399   */\n      dup6\n        /* \"#utility.yul\":372:413   */\n      tag_75\n      jump\t// in\n    tag_74:\n        /* \"#utility.yul\":91:419   */\n      pop\n        /* \"#utility.yul\":7:419   */\n      swap4\n      swap3\n      pop\n      pop\n      pop\n      jump\t// out\n        /* \"#utility.yul\":425:564   */\n    tag_76:\n        /* \"#utility.yul\":471:476   */\n      0x00\n        /* \"#utility.yul\":509:515   */\n      dup2\n        /* \"#utility.yul\":496:516   */\n      calldataload\n        /* \"#utility.yul\":487:516   */\n      swap1\n      pop\n        /* \"#utility.yul\":525:558   */\n      tag_78\n        /* \"#utility.yul\":552:557   */\n      dup2\n        /* \"#utility.yul\":525:558   */\n      tag_79\n      jump\t// in\n    tag_78:\n        /* \"#utility.yul\":425:564   */\n      swap3\n      swap2\n      pop\n      pop\n      jump\t// out\n        /* \"#utility.yul\":570:707   */\n    tag_80:\n        /* \"#utility.yul\":615:620   */\n      0x00\n        /* \"#utility.yul\":653:659   */\n      dup2\n        /* \"#utility.yul\":640:660   */\n      calldataload\n        /* \"#utility.yul\":631:660   */\n      swap1\n      pop\n        /* \"#utility.yul\":669:701   */\n      tag_82\n        /* \"#utility.yul\":695:700   */\n      dup2\n        /* \"#utility.yul\":669:701   */\n      tag_83\n      jump\t// in\n    tag_82:\n        /* \"#utility.yul\":570:707   */\n      swap3\n      swap2\n      pop\n      pop\n      jump\t// out\n        /* \"#utility.yul\":727:1067   */\n    tag_84:\n        /* \"#utility.yul\":783:788   */\n      0x00\n        /* \"#utility.yul\":832:835   */\n      dup3\n        /* \"#utility.yul\":825:829   */\n      0x1f\n        /* \"#utility.yul\":817:823   */\n      dup4\n        /* \"#utility.yul\":813:830   */\n      add\n        /* \"#utility.yul\":809:836   */\n      slt\n        /* \"#utility.yul\":799:921   */\n      tag_86\n      jumpi\n        /* \"#utility.yul\":840:919   */\n      tag_87\n      tag_88\n      jump\t// in\n    tag_87:\n        /* \"#utility.yul\":799:921   */\n    tag_86:\n        /* \"#utility.yul\":957:963   */\n      dup2\n        /* \"#utility.yul\":944:964   */\n      calldataload\n        /* \"#utility.yul\":982:1061   */\n      tag_89\n        /* \"#utility.yul\":1057:1060   */\n      dup5\n        /* \"#utility.yul\":1049:1055   */\n      dup3\n        /* \"#utility.yul\":1042:1046   */\n      0x20\n        /* \"#utility.yul\":1034:1040   */\n      dup7\n        /* \"#utility.yul\":1030:1047   */\n      add\n        /* \"#utility.yul\":982:1061   */\n      tag_65\n      jump\t// in\n    tag_89:\n        /* \"#utility.yul\":973:1061   */\n      swap2\n      pop\n        /* \"#utility.yul\":789:1067   */\n      pop\n        /* \"#utility.yul\":727:1067   */\n      swap3\n      swap2\n      pop\n      pop\n      jump\t// out\n        /* \"#utility.yul\":1073:1402   */\n    tag_13:\n        /* \"#utility.yul\":1132:1138   */\n      0x00\n        /* \"#utility.yul\":1181:1183   */\n      0x20\n        /* \"#utility.yul\":1169:1178   */\n      dup3\n        /* \"#utility.yul\":1160:1167   */\n      dup5\n        /* \"#utility.yul\":1156:1179   */\n      sub\n        /* \"#utility.yul\":1152:1184   */\n      slt\n        /* \"#utility.yul\":1149:1268   */\n      iszero\n      tag_91\n      jumpi\n        /* \"#utility.yul\":1187:1266   */\n      tag_92\n      tag_93\n      jump\t// in\n    tag_92:\n        /* \"#utility.yul\":1149:1268   */\n    tag_91:\n        /* \"#utility.yul\":1307:1308   */\n      0x00\n        /* \"#utility.yul\":1332:1385   */\n      tag_94\n        /* \"#utility.yul\":1377:1384   */\n      dup5\n        /* \"#utility.yul\":1368:1374   */\n      dup3\n        /* \"#utility.yul\":1357:1366   */\n      dup6\n        /* \"#utility.yul\":1353:1375   */\n      add\n        /* \"#utility.yul\":1332:1385   */\n      tag_76\n      jump\t// in\n    tag_94:\n        /* \"#utility.yul\":1322:1385   */\n      swap2\n      pop\n        /* \"#utility.yul\":1278:1395   */\n      pop\n        /* \"#utility.yul\":1073:1402   */\n      swap3\n      swap2\n      pop\n      pop\n      jump\t// out\n        /* \"#utility.yul\":1408:1735   */\n    tag_19:\n        /* \"#utility.yul\":1466:1472   */\n      0x00\n        /* \"#utility.yul\":1515:1517   */\n      0x20\n        /* \"#utility.yul\":1503:1512   */\n      dup3\n        /* \"#utility.yul\":1494:1501   */\n      dup5\n        /* \"#utility.yul\":1490:1513   */\n      sub\n        /* \"#utility.yul\":1486:1518   */\n      slt\n        /* \"#utility.yul\":1483:1602   */\n      iszero\n      tag_96\n      jumpi\n        /* \"#utility.yul\":1521:1600   */\n      tag_97\n      tag_93\n      jump\t// in\n    tag_97:\n        /* \"#utility.yul\":1483:1602   */\n    tag_96:\n        /* \"#utility.yul\":1641:1642   */\n      0x00\n        /* \"#utility.yul\":1666:1718   */\n      tag_98\n        /* \"#utility.yul\":1710:1717   */\n      dup5\n        /* \"#utility.yul\":1701:1707   */\n      dup3\n        /* \"#utility.yul\":1690:1699   */\n      dup6\n        /* \"#utility.yul\":1686:1708   */\n      add\n        /* \"#utility.yul\":1666:1718   */\n      tag_80\n      jump\t// in\n    tag_98:\n        /* \"#utility.yul\":1656:1718   */\n      swap2\n      pop\n        /* \"#utility.yul\":1612:1728   */\n      pop\n        /* \"#utility.yul\":1408:1735   */\n      swap3\n      swap2\n      pop\n      pop\n      jump\t// out\n        /* \"#utility.yul\":1741:2718   */\n    tag_9:\n        /* \"#utility.yul\":1837:1843   */\n      0x00\n        /* \"#utility.yul\":1845:1851   */\n      dup1\n        /* \"#utility.yul\":1853:1859   */\n      0x00\n        /* \"#utility.yul\":1902:1904   */\n      0x60\n        /* \"#utility.yul\":1890:1899   */\n      dup5\n        /* \"#utility.yul\":1881:1888   */\n      dup7\n        /* \"#utility.yul\":1877:1900   */\n      sub\n        /* \"#utility.yul\":1873:1905   */\n      slt\n        /* \"#utility.yul\":1870:1989   */\n      iszero\n      tag_100\n      jumpi\n        /* \"#utility.yul\":1908:1987   */\n      tag_101\n      tag_93\n      jump\t// in\n    tag_101:\n        /* \"#utility.yul\":1870:1989   */\n    tag_100:\n        /* \"#utility.yul\":2056:2057   */\n      0x00\n        /* \"#utility.yul\":2045:2054   */\n      dup5\n        /* \"#utility.yul\":2041:2058   */\n      add\n        /* \"#utility.yul\":2028:2059   */\n      calldataload\n        /* \"#utility.yul\":2086:2104   */\n      0xffffffffffffffff\n        /* \"#utility.yul\":2078:2084   */\n      dup2\n        /* \"#utility.yul\":2075:2105   */\n      gt\n        /* \"#utility.yul\":2072:2189   */\n      iszero\n      tag_102\n      jumpi\n        /* \"#utility.yul\":2108:2187   */\n      tag_103\n      tag_104\n      jump\t// in\n    tag_103:\n        /* \"#utility.yul\":2072:2189   */\n    tag_102:\n        /* \"#utility.yul\":2213:2276   */\n      tag_105\n        /* \"#utility.yul\":2268:2275   */\n      dup7\n        /* \"#utility.yul\":2259:2265   */\n      dup3\n        /* \"#utility.yul\":2248:2257   */\n      dup8\n        /* \"#utility.yul\":2244:2266   */\n      add\n        /* \"#utility.yul\":2213:2276   */\n      tag_84\n      jump\t// in\n    tag_105:\n        /* \"#utility.yul\":2203:2276   */\n      swap4\n      pop\n        /* \"#utility.yul\":1999:2286   */\n      pop\n        /* \"#utility.yul\":2325:2327   */\n      0x20\n        /* \"#utility.yul\":2351:2403   */\n      tag_106\n        /* \"#utility.yul\":2395:2402   */\n      dup7\n        /* \"#utility.yul\":2386:2392   */\n      dup3\n        /* \"#utility.yul\":2375:2384   */\n      dup8\n        /* \"#utility.yul\":2371:2393   */\n      add\n        /* \"#utility.yul\":2351:2403   */\n      tag_80\n      jump\t// in\n    tag_106:\n        /* \"#utility.yul\":2341:2403   */\n      swap3\n      pop\n        /* \"#utility.yul\":2296:2413   */\n      pop\n        /* \"#utility.yul\":2480:2482   */\n      0x40\n        /* \"#utility.yul\":2469:2478   */\n      dup5\n        /* \"#utility.yul\":2465:2483   */\n      add\n        /* \"#utility.yul\":2452:2484   */\n      calldataload\n        /* \"#utility.yul\":2511:2529   */\n      0xffffffffffffffff\n        /* \"#utility.yul\":2503:2509   */\n      dup2\n        /* \"#utility.yul\":2500:2530   */\n      gt\n        /* \"#utility.yul\":2497:2614   */\n      iszero\n      tag_107\n      jumpi\n        /* \"#utility.yul\":2533:2612   */\n      tag_108\n      tag_104\n      jump\t// in\n    tag_108:\n        /* \"#utility.yul\":2497:2614   */\n    tag_107:\n        /* \"#utility.yul\":2638:2701   */\n      tag_109\n        /* \"#utility.yul\":2693:2700   */\n      dup7\n        /* \"#utility.yul\":2684:2690   */\n      dup3\n        /* \"#utility.yul\":2673:2682   */\n      dup8\n        /* \"#utility.yul\":2669:2691   */\n      add\n        /* \"#utility.yul\":2638:2701   */\n      tag_84\n      jump\t// in\n    tag_109:\n        /* \"#utility.yul\":2628:2701   */\n      swap2\n      pop\n        /* \"#utility.yul\":2423:2711   */\n      pop\n        /* \"#utility.yul\":1741:2718   */\n      swap3\n      pop\n      swap3\n      pop\n      swap3\n      jump\t// out\n        /* \"#utility.yul\":2724:2842   */\n    tag_110:\n        /* \"#utility.yul\":2811:2835   */\n      tag_112\n        /* \"#utility.yul\":2829:2834   */\n      dup2\n        /* \"#utility.yul\":2811:2835   */\n      tag_113\n      jump\t// in\n    tag_112:\n        /* \"#utility.yul\":2806:2809   */\n      dup3\n        /* \"#utility.yul\":2799:2836   */\n      mstore\n        /* \"#utility.yul\":2724:2842   */\n      pop\n      pop\n      jump\t// out\n        /* \"#utility.yul\":2848:2963   */\n    tag_114:\n        /* \"#utility.yul\":2933:2956   */\n      tag_116\n        /* \"#utility.yul\":2950:2955   */\n      dup2\n        /* \"#utility.yul\":2933:2956   */\n      tag_117\n      jump\t// in\n    tag_116:\n        /* \"#utility.yul\":2928:2931   */\n      dup3\n        /* \"#utility.yul\":2921:2957   */\n      mstore\n        /* \"#utility.yul\":2848:2963   */\n      pop\n      pop\n      jump\t// out\n        /* \"#utility.yul\":2969:3333   */\n    tag_118:\n        /* \"#utility.yul\":3057:3060   */\n      0x00\n        /* \"#utility.yul\":3085:3124   */\n      tag_120\n        /* \"#utility.yul\":3118:3123   */\n      dup3\n        /* \"#utility.yul\":3085:3124   */\n      tag_121\n      jump\t// in\n    tag_120:\n        /* \"#utility.yul\":3140:3211   */\n      tag_122\n        /* \"#utility.yul\":3204:3210   */\n      dup2\n        /* \"#utility.yul\":3199:3202   */\n      dup6\n        /* \"#utility.yul\":3140:3211   */\n      tag_123\n      jump\t// in\n    tag_122:\n        /* \"#utility.yul\":3133:3211   */\n      swap4\n      pop\n        /* \"#utility.yul\":3220:3272   */\n      tag_124\n        /* \"#utility.yul\":3265:3271   */\n      dup2\n        /* \"#utility.yul\":3260:3263   */\n      dup6\n        /* \"#utility.yul\":3253:3257   */\n      0x20\n        /* \"#utility.yul\":3246:3251   */\n      dup7\n        /* \"#utility.yul\":3242:3258   */\n      add\n        /* \"#utility.yul\":3220:3272   */\n      tag_125\n      jump\t// in\n    tag_124:\n        /* \"#utility.yul\":3297:3326   */\n      tag_126\n        /* \"#utility.yul\":3319:3325   */\n      dup2\n        /* \"#utility.yul\":3297:3326   */\n      tag_127\n      jump\t// in\n    tag_126:\n        /* \"#utility.yul\":3292:3295   */\n      dup5\n        /* \"#utility.yul\":3288:3327   */\n      add\n        /* \"#utility.yul\":3281:3327   */\n      swap2\n      pop\n        /* \"#utility.yul\":3061:3333   */\n      pop\n        /* \"#utility.yul\":2969:3333   */\n      swap3\n      swap2\n      pop\n      pop\n      jump\t// out\n        /* \"#utility.yul\":3339:3705   */\n    tag_128:\n        /* \"#utility.yul\":3481:3484   */\n      0x00\n        /* \"#utility.yul\":3502:3569   */\n      tag_130\n        /* \"#utility.yul\":3566:3568   */\n      0x26\n        /* \"#utility.yul\":3561:3564   */\n      dup4\n        /* \"#utility.yul\":3502:3569   */\n      tag_123\n      jump\t// in\n    tag_130:\n        /* \"#utility.yul\":3495:3569   */\n      swap2\n      pop\n        /* \"#utility.yul\":3578:3671   */\n      tag_131\n        /* \"#utility.yul\":3667:3670   */\n      dup3\n        /* \"#utility.yul\":3578:3671   */\n      tag_132\n      jump\t// in\n    tag_131:\n        /* \"#utility.yul\":3696:3698   */\n      0x40\n        /* \"#utility.yul\":3691:3694   */\n      dup3\n        /* \"#utility.yul\":3687:3699   */\n      add\n        /* \"#utility.yul\":3680:3699   */\n      swap1\n      pop\n        /* \"#utility.yul\":3339:3705   */\n      swap2\n      swap1\n      pop\n      jump\t// out\n        /* \"#utility.yul\":3711:4077   */\n    tag_133:\n        /* \"#utility.yul\":3853:3856   */\n      0x00\n        /* \"#utility.yul\":3874:3941   */\n      tag_135\n        /* \"#utility.yul\":3938:3940   */\n      0x37\n        /* \"#utility.yul\":3933:3936   */\n      dup4\n        /* \"#utility.yul\":3874:3941   */\n      tag_123\n      jump\t// in\n    tag_135:\n        /* \"#utility.yul\":3867:3941   */\n      swap2\n      pop\n        /* \"#utility.yul\":3950:4043   */\n      tag_136\n        /* \"#utility.yul\":4039:4042   */\n      dup3\n        /* \"#utility.yul\":3950:4043   */\n      tag_137\n      jump\t// in\n    tag_136:\n        /* \"#utility.yul\":4068:4070   */\n      0x40\n        /* \"#utility.yul\":4063:4066   */\n      dup3\n        /* \"#utility.yul\":4059:4071   */\n      add\n        /* \"#utility.yul\":4052:4071   */\n      swap1\n      pop\n        /* \"#utility.yul\":3711:4077   */\n      swap2\n      swap1\n      pop\n      jump\t// out\n        /* \"#utility.yul\":4083:4449   */\n    tag_138:\n        /* \"#utility.yul\":4225:4228   */\n      0x00\n        /* \"#utility.yul\":4246:4313   */\n      tag_140\n        /* \"#utility.yul\":4310:4312   */\n      0x25\n        /* \"#utility.yul\":4305:4308   */\n      dup4\n        /* \"#utility.yul\":4246:4313   */\n      tag_123\n      jump\t// in\n    tag_140:\n        /* \"#utility.yul\":4239:4313   */\n      swap2\n      pop\n        /* \"#utility.yul\":4322:4415   */\n      tag_141\n        /* \"#utility.yul\":4411:4414   */\n      dup3\n        /* \"#utility.yul\":4322:4415   */\n      tag_142\n      jump\t// in\n    tag_141:\n        /* \"#utility.yul\":4440:4442   */\n      0x40\n        /* \"#utility.yul\":4435:4438   */\n      dup3\n        /* \"#utility.yul\":4431:4443   */\n      add\n        /* \"#utility.yul\":4424:4443   */\n      swap1\n      pop\n        /* \"#utility.yul\":4083:4449   */\n      swap2\n      swap1\n      pop\n      jump\t// out\n        /* \"#utility.yul\":4455:5293   */\n    tag_16:\n        /* \"#utility.yul\":4696:4700   */\n      0x00\n        /* \"#utility.yul\":4734:4737   */\n      0xa0\n        /* \"#utility.yul\":4723:4732   */\n      dup3\n        /* \"#utility.yul\":4719:4738   */\n      add\n        /* \"#utility.yul\":4711:4738   */\n      swap1\n      pop\n        /* \"#utility.yul\":4748:4817   */\n      tag_144\n        /* \"#utility.yul\":4814:4815   */\n      0x00\n        /* \"#utility.yul\":4803:4812   */\n      dup4\n        /* \"#utility.yul\":4799:4816   */\n      add\n        /* \"#utility.yul\":4790:4796   */\n      dup9\n        /* \"#utility.yul\":4748:4817   */\n      tag_114\n      jump\t// in\n    tag_144:\n        /* \"#utility.yul\":4827:4899   */\n      tag_145\n        /* \"#utility.yul\":4895:4897   */\n      0x20\n        /* \"#utility.yul\":4884:4893   */\n      dup4\n        /* \"#utility.yul\":4880:4898   */\n      add\n        /* \"#utility.yul\":4871:4877   */\n      dup8\n        /* \"#utility.yul\":4827:4899   */\n      tag_110\n      jump\t// in\n    tag_145:\n        /* \"#utility.yul\":4946:4955   */\n      dup2\n        /* \"#utility.yul\":4940:4944   */\n      dup2\n        /* \"#utility.yul\":4936:4956   */\n      sub\n        /* \"#utility.yul\":4931:4933   */\n      0x40\n        /* \"#utility.yul\":4920:4929   */\n      dup4\n        /* \"#utility.yul\":4916:4934   */\n      add\n        /* \"#utility.yul\":4909:4957   */\n      mstore\n        /* \"#utility.yul\":4974:5052   */\n      tag_146\n        /* \"#utility.yul\":5047:5051   */\n      dup2\n        /* \"#utility.yul\":5038:5044   */\n      dup7\n        /* \"#utility.yul\":4974:5052   */\n      tag_118\n      jump\t// in\n    tag_146:\n        /* \"#utility.yul\":4966:5052   */\n      swap1\n      pop\n        /* \"#utility.yul\":5062:5132   */\n      tag_147\n        /* \"#utility.yul\":5128:5130   */\n      0x60\n        /* \"#utility.yul\":5117:5126   */\n      dup4\n        /* \"#utility.yul\":5113:5131   */\n      add\n        /* \"#utility.yul\":5104:5110   */\n      dup6\n        /* \"#utility.yul\":5062:5132   */\n      tag_114\n      jump\t// in\n    tag_147:\n        /* \"#utility.yul\":5180:5189   */\n      dup2\n        /* \"#utility.yul\":5174:5178   */\n      dup2\n        /* \"#utility.yul\":5170:5190   */\n      sub\n        /* \"#utility.yul\":5164:5167   */\n      0x80\n        /* \"#utility.yul\":5153:5162   */\n      dup4\n        /* \"#utility.yul\":5149:5168   */\n      add\n        /* \"#utility.yul\":5142:5191   */\n      mstore\n        /* \"#utility.yul\":5208:5286   */\n      tag_148\n        /* \"#utility.yul\":5281:5285   */\n      dup2\n        /* \"#utility.yul\":5272:5278   */\n      dup5\n        /* \"#utility.yul\":5208:5286   */\n      tag_118\n      jump\t// in\n    tag_148:\n        /* \"#utility.yul\":5200:5286   */\n      swap1\n      pop\n        /* \"#utility.yul\":4455:5293   */\n      swap7\n      swap6\n      pop\n      pop\n      pop\n      pop\n      pop\n      pop\n      jump\t// out\n        /* \"#utility.yul\":5299:5718   */\n    tag_42:\n        /* \"#utility.yul\":5465:5469   */\n      0x00\n        /* \"#utility.yul\":5503:5505   */\n      0x20\n        /* \"#utility.yul\":5492:5501   */\n      dup3\n        /* \"#utility.yul\":5488:5506   */\n      add\n        /* \"#utility.yul\":5480:5506   */\n      swap1\n      pop\n        /* \"#utility.yul\":5552:5561   */\n      dup2\n        /* \"#utility.yul\":5546:5550   */\n      dup2\n        /* \"#utility.yul\":5542:5562   */\n      sub\n        /* \"#utility.yul\":5538:5539   */\n      0x00\n        /* \"#utility.yul\":5527:5536   */\n      dup4\n        /* \"#utility.yul\":5523:5540   */\n      add\n        /* \"#utility.yul\":5516:5563   */\n      mstore\n        /* \"#utility.yul\":5580:5711   */\n      tag_150\n        /* \"#utility.yul\":5706:5710   */\n      dup2\n        /* \"#utility.yul\":5580:5711   */\n      tag_128\n      jump\t// in\n    tag_150:\n        /* \"#utility.yul\":5572:5711   */\n      swap1\n      pop\n        /* \"#utility.yul\":5299:5718   */\n      swap2\n      swap1\n      pop\n      jump\t// out\n        /* \"#utility.yul\":5724:6143   */\n    tag_51:\n        /* \"#utility.yul\":5890:5894   */\n      0x00\n        /* \"#utility.yul\":5928:5930   */\n      0x20\n        /* \"#utility.yul\":5917:5926   */\n      dup3\n        /* \"#utility.yul\":5913:5931   */\n      add\n        /* \"#utility.yul\":5905:5931   */\n      swap1\n      pop\n        /* \"#utility.yul\":5977:5986   */\n      dup2\n        /* \"#utility.yul\":5971:5975   */\n      dup2\n        /* \"#utility.yul\":5967:5987   */\n      sub\n        /* \"#utility.yul\":5963:5964   */\n      0x00\n        /* \"#utility.yul\":5952:5961   */\n      dup4\n        /* \"#utility.yul\":5948:5965   */\n      add\n        /* \"#utility.yul\":5941:5988   */\n      mstore\n        /* \"#utility.yul\":6005:6136   */\n      tag_152\n        /* \"#utility.yul\":6131:6135   */\n      dup2\n        /* \"#utility.yul\":6005:6136   */\n      tag_133\n      jump\t// in\n    tag_152:\n        /* \"#utility.yul\":5997:6136   */\n      swap1\n      pop\n        /* \"#utility.yul\":5724:6143   */\n      swap2\n      swap1\n      pop\n      jump\t// out\n        /* \"#utility.yul\":6149:6568   */\n    tag_48:\n        /* \"#utility.yul\":6315:6319   */\n      0x00\n        /* \"#utility.yul\":6353:6355   */\n      0x20\n        /* \"#utility.yul\":6342:6351   */\n      dup3\n        /* \"#utility.yul\":6338:6356   */\n      add\n        /* \"#utility.yul\":6330:6356   */\n      swap1\n      pop\n        /* \"#utility.yul\":6402:6411   */\n      dup2\n        /* \"#utility.yul\":6396:6400   */\n      dup2\n        /* \"#utility.yul\":6392:6412   */\n      sub\n        /* \"#utility.yul\":6388:6389   */\n      0x00\n        /* \"#utility.yul\":6377:6386   */\n      dup4\n        /* \"#utility.yul\":6373:6390   */\n      add\n        /* \"#utility.yul\":6366:6413   */\n      mstore\n        /* \"#utility.yul\":6430:6561   */\n      tag_154\n        /* \"#utility.yul\":6556:6560   */\n      dup2\n        /* \"#utility.yul\":6430:6561   */\n      tag_138\n      jump\t// in\n    tag_154:\n        /* \"#utility.yul\":6422:6561   */\n      swap1\n      pop\n        /* \"#utility.yul\":6149:6568   */\n      swap2\n      swap1\n      pop\n      jump\t// out\n        /* \"#utility.yul\":6574:6703   */\n    tag_70:\n        /* \"#utility.yul\":6608:6614   */\n      0x00\n        /* \"#utility.yul\":6635:6655   */\n      tag_156\n      tag_157\n      jump\t// in\n    tag_156:\n        /* \"#utility.yul\":6625:6655   */\n      swap1\n      pop\n        /* \"#utility.yul\":6664:6697   */\n      tag_158\n        /* \"#utility.yul\":6692:6696   */\n      dup3\n        /* \"#utility.yul\":6684:6690   */\n      dup3\n        /* \"#utility.yul\":6664:6697   */\n      tag_159\n      jump\t// in\n    tag_158:\n        /* \"#utility.yul\":6574:6703   */\n      swap2\n      swap1\n      pop\n      jump\t// out\n        /* \"#utility.yul\":6709:6784   */\n    tag_157:\n        /* \"#utility.yul\":6742:6748   */\n      0x00\n        /* \"#utility.yul\":6775:6777   */\n      0x40\n        /* \"#utility.yul\":6769:6778   */\n      mload\n        /* \"#utility.yul\":6759:6778   */\n      swap1\n      pop\n        /* \"#utility.yul\":6709:6784   */\n      swap1\n      jump\t// out\n        /* \"#utility.yul\":6790:7098   */\n    tag_69:\n        /* \"#utility.yul\":6852:6856   */\n      0x00\n        /* \"#utility.yul\":6942:6960   */\n      0xffffffffffffffff\n        /* \"#utility.yul\":6934:6940   */\n      dup3\n        /* \"#utility.yul\":6931:6961   */\n      gt\n        /* \"#utility.yul\":6928:6984   */\n      iszero\n      tag_162\n      jumpi\n        /* \"#utility.yul\":6964:6982   */\n      tag_163\n      tag_164\n      jump\t// in\n    tag_163:\n        /* \"#utility.yul\":6928:6984   */\n    tag_162:\n        /* \"#utility.yul\":7002:7031   */\n      tag_165\n        /* \"#utility.yul\":7024:7030   */\n      dup3\n        /* \"#utility.yul\":7002:7031   */\n      tag_127\n      jump\t// in\n    tag_165:\n        /* \"#utility.yul\":6994:7031   */\n      swap1\n      pop\n        /* \"#utility.yul\":7086:7090   */\n      0x20\n        /* \"#utility.yul\":7080:7084   */\n      dup2\n        /* \"#utility.yul\":7076:7091   */\n      add\n        /* \"#utility.yul\":7068:7091   */\n      swap1\n      pop\n        /* \"#utility.yul\":6790:7098   */\n      swap2\n      swap1\n      pop\n      jump\t// out\n        /* \"#utility.yul\":7104:7203   */\n    tag_121:\n        /* \"#utility.yul\":7156:7162   */\n      0x00\n        /* \"#utility.yul\":7190:7195   */\n      dup2\n        /* \"#utility.yul\":7184:7196   */\n      mload\n        /* \"#utility.yul\":7174:7196   */\n      swap1\n      pop\n        /* \"#utility.yul\":7104:7203   */\n      swap2\n      swap1\n      pop\n      jump\t// out\n        /* \"#utility.yul\":7209:7378   */\n    tag_123:\n        /* \"#utility.yul\":7293:7304   */\n      0x00\n        /* \"#utility.yul\":7327:7333   */\n      dup3\n        /* \"#utility.yul\":7322:7325   */\n      dup3\n        /* \"#utility.yul\":7315:7334   */\n      mstore\n        /* \"#utility.yul\":7367:7371   */\n      0x20\n        /* \"#utility.yul\":7362:7365   */\n      dup3\n        /* \"#utility.yul\":7358:7372   */\n      add\n        /* \"#utility.yul\":7343:7372   */\n      swap1\n      pop\n        /* \"#utility.yul\":7209:7378   */\n      swap3\n      swap2\n      pop\n      pop\n      jump\t// out\n        /* \"#utility.yul\":7384:7909   */\n    tag_44:\n        /* \"#utility.yul\":7423:7426   */\n      0x00\n        /* \"#utility.yul\":7442:7461   */\n      tag_169\n        /* \"#utility.yul\":7459:7460   */\n      dup3\n        /* \"#utility.yul\":7442:7461   */\n      tag_117\n      jump\t// in\n    tag_169:\n        /* \"#utility.yul\":7437:7461   */\n      swap2\n      pop\n        /* \"#utility.yul\":7475:7494   */\n      tag_170\n        /* \"#utility.yul\":7492:7493   */\n      dup4\n        /* \"#utility.yul\":7475:7494   */\n      tag_117\n      jump\t// in\n    tag_170:\n        /* \"#utility.yul\":7470:7494   */\n      swap3\n      pop\n        /* \"#utility.yul\":7663:7664   */\n      dup2\n        /* \"#utility.yul\":7595:7661   */\n      0x7fffffffffffffffffffffffffffffffffffffffffffffffffffffffffffffff\n        /* \"#utility.yul\":7591:7665   */\n      sub\n        /* \"#utility.yul\":7588:7589   */\n      dup4\n        /* \"#utility.yul\":7584:7666   */\n      sgt\n        /* \"#utility.yul\":7579:7580   */\n      0x00\n        /* \"#utility.yul\":7576:7577   */\n      dup4\n        /* \"#utility.yul\":7572:7581   */\n      slt\n        /* \"#utility.yul\":7565:7582   */\n      iszero\n        /* \"#utility.yul\":7561:7667   */\n      and\n        /* \"#utility.yul\":7558:7690   */\n      iszero\n      tag_171\n      jumpi\n        /* \"#utility.yul\":7670:7688   */\n      tag_172\n      tag_173\n      jump\t// in\n    tag_172:\n        /* \"#utility.yul\":7558:7690   */\n    tag_171:\n        /* \"#utility.yul\":7850:7851   */\n      dup2\n        /* \"#utility.yul\":7782:7848   */\n      0x8000000000000000000000000000000000000000000000000000000000000000\n        /* \"#utility.yul\":7778:7852   */\n      sub\n        /* \"#utility.yul\":7775:7776   */\n      dup4\n        /* \"#utility.yul\":7771:7853   */\n      slt\n        /* \"#utility.yul\":7767:7768   */\n      0x00\n        /* \"#utility.yul\":7764:7765   */\n      dup4\n        /* \"#utility.yul\":7760:7769   */\n      slt\n        /* \"#utility.yul\":7756:7854   */\n      and\n        /* \"#utility.yul\":7753:7877   */\n      iszero\n      tag_174\n      jumpi\n        /* \"#utility.yul\":7857:7875   */\n      tag_175\n      tag_173\n      jump\t// in\n    tag_175:\n        /* \"#utility.yul\":7753:7877   */\n    tag_174:\n        /* \"#utility.yul\":7901:7902   */\n      dup3\n        /* \"#utility.yul\":7898:7899   */\n      dup3\n        /* \"#utility.yul\":7894:7903   */\n      add\n        /* \"#utility.yul\":7887:7903   */\n      swap1\n      pop\n        /* \"#utility.yul\":7384:7909   */\n      swap3\n      swap2\n      pop\n      pop\n      jump\t// out\n        /* \"#utility.yul\":7915:8442   */\n    tag_53:\n        /* \"#utility.yul\":7954:7958   */\n      0x00\n        /* \"#utility.yul\":7974:7993   */\n      tag_177\n        /* \"#utility.yul\":7991:7992   */\n      dup3\n        /* \"#utility.yul\":7974:7993   */\n      tag_117\n      jump\t// in\n    tag_177:\n        /* \"#utility.yul\":7969:7993   */\n      swap2\n      pop\n        /* \"#utility.yul\":8007:8026   */\n      tag_178\n        /* \"#utility.yul\":8024:8025   */\n      dup4\n        /* \"#utility.yul\":8007:8026   */\n      tag_117\n      jump\t// in\n    tag_178:\n        /* \"#utility.yul\":8002:8026   */\n      swap3\n      pop\n        /* \"#utility.yul\":8196:8197   */\n      dup3\n        /* \"#utility.yul\":8128:8194   */\n      0x8000000000000000000000000000000000000000000000000000000000000000\n        /* \"#utility.yul\":8124:8198   */\n      add\n        /* \"#utility.yul\":8121:8122   */\n      dup3\n        /* \"#utility.yul\":8117:8199   */\n      slt\n        /* \"#utility.yul\":8112:8113   */\n      0x00\n        /* \"#utility.yul\":8109:8110   */\n      dup5\n        /* \"#utility.yul\":8105:8114   */\n      slt\n        /* \"#utility.yul\":8098:8115   */\n      iszero\n        /* \"#utility.yul\":8094:8200   */\n      and\n        /* \"#utility.yul\":8091:8223   */\n      iszero\n      tag_179\n      jumpi\n        /* \"#utility.yul\":8203:8221   */\n      tag_180\n      tag_173\n      jump\t// in\n    tag_180:\n        /* \"#utility.yul\":8091:8223   */\n    tag_179:\n        /* \"#utility.yul\":8382:8383   */\n      dup3\n        /* \"#utility.yul\":8314:8380   */\n      0x7fffffffffffffffffffffffffffffffffffffffffffffffffffffffffffffff\n        /* \"#utility.yul\":8310:8384   */\n      add\n        /* \"#utility.yul\":8307:8308   */\n      dup3\n        /* \"#utility.yul\":8303:8385   */\n      sgt\n        /* \"#utility.yul\":8299:8300   */\n      0x00\n        /* \"#utility.yul\":8296:8297   */\n      dup5\n        /* \"#utility.yul\":8292:8301   */\n      slt\n        /* \"#utility.yul\":8288:8386   */\n      and\n        /* \"#utility.yul\":8285:8409   */\n      iszero\n      tag_181\n      jumpi\n        /* \"#utility.yul\":8389:8407   */\n      tag_182\n      tag_173\n      jump\t// in\n    tag_182:\n        /* \"#utility.yul\":8285:8409   */\n    tag_181:\n        /* \"#utility.yul\":8434:8435   */\n      dup3\n        /* \"#utility.yul\":8431:8432   */\n      dup3\n        /* \"#utility.yul\":8427:8436   */\n      sub\n        /* \"#utility.yul\":8419:8436   */\n      swap1\n      pop\n        /* \"#utility.yul\":7915:8442   */\n      swap3\n      swap2\n      pop\n      pop\n      jump\t// out\n        /* \"#utility.yul\":8448:8544   */\n    tag_113:\n        /* \"#utility.yul\":8485:8492   */\n      0x00\n        /* \"#utility.yul\":8514:8538   */\n      tag_184\n        /* \"#utility.yul\":8532:8537   */\n      dup3\n        /* \"#utility.yul\":8514:8538   */\n      tag_185\n      jump\t// in\n    tag_184:\n        /* \"#utility.yul\":8503:8538   */\n      swap1\n      pop\n        /* \"#utility.yul\":8448:8544   */\n      swap2\n      swap1\n      pop\n      jump\t// out\n        /* \"#utility.yul\":8550:8626   */\n    tag_117:\n        /* \"#utility.yul\":8586:8593   */\n      0x00\n        /* \"#utility.yul\":8615:8620   */\n      dup2\n        /* \"#utility.yul\":8604:8620   */\n      swap1\n      pop\n        /* \"#utility.yul\":8550:8626   */\n      swap2\n      swap1\n      pop\n      jump\t// out\n        /* \"#utility.yul\":8632:8758   */\n    tag_185:\n        /* \"#utility.yul\":8669:8676   */\n      0x00\n        /* \"#utility.yul\":8709:8751   */\n      0xffffffffffffffffffffffffffffffffffffffff\n        /* \"#utility.yul\":8702:8707   */\n      dup3\n        /* \"#utility.yul\":8698:8752   */\n      and\n        /* \"#utility.yul\":8687:8752   */\n      swap1\n      pop\n        /* \"#utility.yul\":8632:8758   */\n      swap2\n      swap1\n      pop\n      jump\t// out\n        /* \"#utility.yul\":8764:8918   */\n    tag_75:\n        /* \"#utility.yul\":8848:8854   */\n      dup3\n        /* \"#utility.yul\":8843:8846   */\n      dup2\n        /* \"#utility.yul\":8838:8841   */\n      dup4\n        /* \"#utility.yul\":8825:8855   */\n      calldatacopy\n        /* \"#utility.yul\":8910:8911   */\n      0x00\n        /* \"#utility.yul\":8901:8907   */\n      dup4\n        /* \"#utility.yul\":8896:8899   */\n      dup4\n        /* \"#utility.yul\":8892:8908   */\n      add\n        /* \"#utility.yul\":8885:8912   */\n      mstore\n        /* \"#utility.yul\":8764:8918   */\n      pop\n      pop\n      pop\n      jump\t// out\n        /* \"#utility.yul\":8924:9231   */\n    tag_125:\n        /* \"#utility.yul\":8992:8993   */\n      0x00\n        /* \"#utility.yul\":9002:9115   */\n    tag_190:\n        /* \"#utility.yul\":9016:9022   */\n      dup4\n        /* \"#utility.yul\":9013:9014   */\n      dup2\n        /* \"#utility.yul\":9010:9023   */\n      lt\n        /* \"#utility.yul\":9002:9115   */\n      iszero\n      tag_192\n      jumpi\n        /* \"#utility.yul\":9101:9102   */\n      dup1\n        /* \"#utility.yul\":9096:9099   */\n      dup3\n        /* \"#utility.yul\":9092:9103   */\n      add\n        /* \"#utility.yul\":9086:9104   */\n      mload\n        /* \"#utility.yul\":9082:9083   */\n      dup2\n        /* \"#utility.yul\":9077:9080   */\n      dup5\n        /* \"#utility.yul\":9073:9084   */\n      add\n        /* \"#utility.yul\":9066:9105   */\n      mstore\n        /* \"#utility.yul\":9038:9040   */\n      0x20\n        /* \"#utility.yul\":9035:9036   */\n      dup2\n        /* \"#utility.yul\":9031:9041   */\n      add\n        /* \"#utility.yul\":9026:9041   */\n      swap1\n      pop\n        /* \"#utility.yul\":9002:9115   */\n      jump(tag_190)\n    tag_192:\n        /* \"#utility.yul\":9133:9139   */\n      dup4\n        /* \"#utility.yul\":9130:9131   */\n      dup2\n        /* \"#utility.yul\":9127:9140   */\n      gt\n        /* \"#utility.yul\":9124:9225   */\n      iszero\n      tag_193\n      jumpi\n        /* \"#utility.yul\":9213:9214   */\n      0x00\n        /* \"#utility.yul\":9204:9210   */\n      dup5\n        /* \"#utility.yul\":9199:9202   */\n      dup5\n        /* \"#utility.yul\":9195:9211   */\n      add\n        /* \"#utility.yul\":9188:9215   */\n      mstore\n        /* \"#utility.yul\":9124:9225   */\n    tag_193:\n        /* \"#utility.yul\":8973:9231   */\n      pop\n        /* \"#utility.yul\":8924:9231   */\n      pop\n      pop\n      pop\n      jump\t// out\n        /* \"#utility.yul\":9237:9557   */\n    tag_29:\n        /* \"#utility.yul\":9281:9287   */\n      0x00\n        /* \"#utility.yul\":9318:9319   */\n      0x02\n        /* \"#utility.yul\":9312:9316   */\n      dup3\n        /* \"#utility.yul\":9308:9320   */\n      div\n        /* \"#utility.yul\":9298:9320   */\n      swap1\n      pop\n        /* \"#utility.yul\":9365:9366   */\n      0x01\n        /* \"#utility.yul\":9359:9363   */\n      dup3\n        /* \"#utility.yul\":9355:9367   */\n      and\n        /* \"#utility.yul\":9386:9404   */\n      dup1\n        /* \"#utility.yul\":9376:9457   */\n      tag_195\n      jumpi\n        /* \"#utility.yul\":9442:9446   */\n      0x7f\n        /* \"#utility.yul\":9434:9440   */\n      dup3\n        /* \"#utility.yul\":9430:9447   */\n      and\n        /* \"#utility.yul\":9420:9447   */\n      swap2\n      pop\n        /* \"#utility.yul\":9376:9457   */\n    tag_195:\n        /* \"#utility.yul\":9504:9506   */\n      0x20\n        /* \"#utility.yul\":9496:9502   */\n      dup3\n        /* \"#utility.yul\":9493:9507   */\n      lt\n        /* \"#utility.yul\":9473:9491   */\n      dup2\n        /* \"#utility.yul\":9470:9508   */\n      eq\n        /* \"#utility.yul\":9467:9551   */\n      iszero\n      tag_196\n      jumpi\n        /* \"#utility.yul\":9523:9541   */\n      tag_197\n      tag_198\n      jump\t// in\n    tag_197:\n        /* \"#utility.yul\":9467:9551   */\n    tag_196:\n        /* \"#utility.yul\":9288:9557   */\n      pop\n        /* \"#utility.yul\":9237:9557   */\n      swap2\n      swap1\n      pop\n      jump\t// out\n        /* \"#utility.yul\":9563:9844   */\n    tag_159:\n        /* \"#utility.yul\":9646:9673   */\n      tag_200\n        /* \"#utility.yul\":9668:9672   */\n      dup3\n        /* \"#utility.yul\":9646:9673   */\n      tag_127\n      jump\t// in\n    tag_200:\n        /* \"#utility.yul\":9638:9644   */\n      dup2\n        /* \"#utility.yul\":9634:9674   */\n      add\n        /* \"#utility.yul\":9776:9782   */\n      dup2\n        /* \"#utility.yul\":9764:9774   */\n      dup2\n        /* \"#utility.yul\":9761:9783   */\n      lt\n        /* \"#utility.yul\":9740:9758   */\n      0xffffffffffffffff\n        /* \"#utility.yul\":9728:9738   */\n      dup3\n        /* \"#utility.yul\":9725:9759   */\n      gt\n        /* \"#utility.yul\":9722:9784   */\n      or\n        /* \"#utility.yul\":9719:9807   */\n      iszero\n      tag_201\n      jumpi\n        /* \"#utility.yul\":9787:9805   */\n      tag_202\n      tag_164\n      jump\t// in\n    tag_202:\n        /* \"#utility.yul\":9719:9807   */\n    tag_201:\n        /* \"#utility.yul\":9827:9837   */\n      dup1\n        /* \"#utility.yul\":9823:9825   */\n      0x40\n        /* \"#utility.yul\":9816:9838   */\n      mstore\n        /* \"#utility.yul\":9606:9844   */\n      pop\n        /* \"#utility.yul\":9563:9844   */\n      pop\n      pop\n      jump\t// out\n        /* \"#utility.yul\":9850:10030   */\n    tag_173:\n        /* \"#utility.yul\":9898:9975   */\n      0x4e487b7100000000000000000000000000000000000000000000000000000000\n        /* \"#utility.yul\":9895:9896   */\n      0x00\n        /* \"#utility.yul\":9888:9976   */\n      mstore\n        /* \"#utility.yul\":9995:9999   */\n      0x11\n        /* \"#utility.yul\":9992:9993   */\n      0x04\n        /* \"#utility.yul\":9985:10000   */\n      mstore\n        /* \"#utility.yul\":10019:10023   */\n      0x24\n        /* \"#utility.yul\":10016:10017   */\n      0x00\n        /* \"#utility.yul\":10009:10024   */\n      revert\n        /* \"#utility.yul\":10036:10216   */\n    tag_198:\n        /* \"#utility.yul\":10084:10161   */\n      0x4e487b7100000000000000000000000000000000000000000000000000000000\n        /* \"#utility.yul\":10081:10082   */\n      0x00\n        /* \"#utility.yul\":10074:10162   */\n      mstore\n        /* \"#utility.yul\":10181:10185   */\n      0x22\n        /* \"#utility.yul\":10178:10179   */\n      0x04\n        /* \"#utility.yul\":10171:10186   */\n      mstore\n        /* \"#utility.yul\":10205:10209   */\n      0x24\n        /* \"#utility.yul\":10202:10203   */\n      0x00\n        /* \"#utility.yul\":10195:10210   */\n      revert\n        /* \"#utility.yul\":10222:10402   */\n    tag_164:\n        /* \"#utility.yul\":10270:10347   */\n      0x4e487b7100000000000000000000000000000000000000000000000000000000\n        /* \"#utility.yul\":10267:10268   */\n      0x00\n        /* \"#utility.yul\":10260:10348   */\n      mstore\n        /* \"#utility.yul\":10367:10371   */\n      0x41\n        /* \"#utility.yul\":10364:10365   */\n      0x04\n        /* \"#utility.yul\":10357:10372   */\n      mstore\n        /* \"#utility.yul\":10391:10395   */\n      0x24\n        /* \"#utility.yul\":10388:10389   */\n      0x00\n        /* \"#utility.yul\":10381:10396   */\n      revert\n        /* \"#utility.yul\":10408:10525   */\n    tag_88:\n        /* \"#utility.yul\":10517:10518   */\n      0x00\n        /* \"#utility.yul\":10514:10515   */\n      dup1\n        /* \"#utility.yul\":10507:10519   */\n      revert\n        /* \"#utility.yul\":10531:10648   */\n    tag_73:\n        /* \"#utility.yul\":10640:10641   */\n      0x00\n        /* \"#utility.yul\":10637:10638   */\n      dup1\n        /* \"#utility.yul\":10630:10642   */\n      revert\n        /* \"#utility.yul\":10654:10771   */\n    tag_104:\n        /* \"#utility.yul\":10763:10764   */\n      0x00\n        /* \"#utility.yul\":10760:10761   */\n      dup1\n        /* \"#utility.yul\":10753:10765   */\n      revert\n        /* \"#utility.yul\":10777:10894   */\n    tag_93:\n        /* \"#utility.yul\":10886:10887   */\n      0x00\n        /* \"#utility.yul\":10883:10884   */\n      dup1\n        /* \"#utility.yul\":10876:10888   */\n      revert\n        /* \"#utility.yul\":10900:11002   */\n    tag_127:\n        /* \"#utility.yul\":10941:10947   */\n      0x00\n        /* \"#utility.yul\":10992:10994   */\n      0x1f\n        /* \"#utility.yul\":10988:10995   */\n      not\n        /* \"#utility.yul\":10983:10985   */\n      0x1f\n        /* \"#utility.yul\":10976:10981   */\n      dup4\n        /* \"#utility.yul\":10972:10986   */\n      add\n        /* \"#utility.yul\":10968:10996   */\n      and\n        /* \"#utility.yul\":10958:10996   */\n      swap1\n      pop\n        /* \"#utility.yul\":10900:11002   */\n      swap2\n      swap1\n      pop\n      jump\t// out\n        /* \"#utility.yul\":11008:11233   */\n    tag_132:\n        /* \"#utility.yul\":11148:11182   */\n      0x73616c646f207061726120696e677265736172206465626520736572206d6179\n        /* \"#utility.yul\":11144:11145   */\n      0x00\n        /* \"#utility.yul\":11136:11142   */\n      dup3\n        /* \"#utility.yul\":11132:11146   */\n      add\n        /* \"#utility.yul\":11125:11183   */\n      mstore\n        /* \"#utility.yul\":11217:11225   */\n      0x6f72206120300000000000000000000000000000000000000000000000000000\n        /* \"#utility.yul\":11212:11214   */\n      0x20\n        /* \"#utility.yul\":11204:11210   */\n      dup3\n        /* \"#utility.yul\":11200:11215   */\n      add\n        /* \"#utility.yul\":11193:11226   */\n      mstore\n        /* \"#utility.yul\":11008:11233   */\n      pop\n      jump\t// out\n        /* \"#utility.yul\":11239:11481   */\n    tag_137:\n        /* \"#utility.yul\":11379:11413   */\n      0x73616c646f20706172612072657469726172206e6f206465626520736572206d\n        /* \"#utility.yul\":11375:11376   */\n      0x00\n        /* \"#utility.yul\":11367:11373   */\n      dup3\n        /* \"#utility.yul\":11363:11377   */\n      add\n        /* \"#utility.yul\":11356:11414   */\n      mstore\n        /* \"#utility.yul\":11448:11473   */\n      0x61796f7220612073752073616c646f206163747561726c000000000000000000\n        /* \"#utility.yul\":11443:11445   */\n      0x20\n        /* \"#utility.yul\":11435:11441   */\n      dup3\n        /* \"#utility.yul\":11431:11446   */\n      add\n        /* \"#utility.yul\":11424:11474   */\n      mstore\n        /* \"#utility.yul\":11239:11481   */\n      pop\n      jump\t// out\n        /* \"#utility.yul\":11487:11711   */\n    tag_142:\n        /* \"#utility.yul\":11627:11661   */\n      0x73616c646f20706172612072657469726172206465626520736572206d61796f\n        /* \"#utility.yul\":11623:11624   */\n      0x00\n        /* \"#utility.yul\":11615:11621   */\n      dup3\n        /* \"#utility.yul\":11611:11625   */\n      add\n        /* \"#utility.yul\":11604:11662   */\n      mstore\n        /* \"#utility.yul\":11696:11703   */\n      0x7220612030000000000000000000000000000000000000000000000000000000\n        /* \"#utility.yul\":11691:11693   */\n      0x20\n        /* \"#utility.yul\":11683:11689   */\n      dup3\n        /* \"#utility.yul\":11679:11694   */\n      add\n        /* \"#utility.yul\":11672:11704   */\n      mstore\n        /* \"#utility.yul\":11487:11711   */\n      pop\n      jump\t// out\n        /* \"#utility.yul\":11717:11839   */\n    tag_79:\n        /* \"#utility.yul\":11790:11814   */\n      tag_215\n        /* \"#utility.yul\":11808:11813   */\n      dup2\n        /* \"#utility.yul\":11790:11814   */\n      tag_113\n      jump\t// in\n    tag_215:\n        /* \"#utility.yul\":11783:11788   */\n      dup2\n        /* \"#utility.yul\":11780:11815   */\n      eq\n        /* \"#utility.yul\":11770:11833   */\n      tag_216\n      jumpi\n        /* \"#utility.yul\":11829:11830   */\n      0x00\n        /* \"#utility.yul\":11826:11827   */\n      dup1\n        /* \"#utility.yul\":11819:11831   */\n      revert\n        /* \"#utility.yul\":11770:11833   */\n    tag_216:\n        /* \"#utility.yul\":11717:11839   */\n      pop\n      jump\t// out\n        /* \"#utility.yul\":11845:11965   */\n    tag_83:\n        /* \"#utility.yul\":11917:11940   */\n      tag_218\n        /* \"#utility.yul\":11934:11939   */\n      dup2\n        /* \"#utility.yul\":11917:11940   */\n      tag_117\n      jump\t// in\n    tag_218:\n        /* \"#utility.yul\":11910:11915   */\n      dup2\n        /* \"#utility.yul\":11907:11941   */\n      eq\n        /* \"#utility.yul\":11897:11959   */\n      tag_219\n      jumpi\n        /* \"#utility.yul\":11955:11956   */\n      0x00\n        /* \"#utility.yul\":11952:11953   */\n      dup1\n        /* \"#utility.yul\":11945:11957   */\n      revert\n        /* \"#utility.yul\":11897:11959   */\n    tag_219:\n        /* \"#utility.yul\":11845:11965   */\n      pop\n      jump\t// out\n\n    auxdata: 0xa26469706673582212204285c239d7826a656ced32b7def52d84a61337e12347dd2ddad13b59d585946b64736f6c63430008070033\n}\n",
				"bytecode": {
					"linkReferences": {},
					"object": "608060405234801561001057600080fd5b50610d39806100206000396000f3fe608060405234801561001057600080fd5b506004361061004c5760003560e01c8063639d39211461005157806363e4cdcc1461006d57806393ba1e60146100a1578063c28a41ec146100bd575b600080fd5b61006b600480360381019061006691906106af565b6100d9565b005b61008760048036038101906100829190610655565b6101f2565b6040516100989594939291906107fa565b60405180910390f35b6100bb60048036038101906100b69190610682565b610358565b005b6100d760048036038101906100d29190610682565b6103f6565b005b6040518060a00160405280600081526020013373ffffffffffffffffffffffffffffffffffffffff168152602001848152602001838152602001828152506000803373ffffffffffffffffffffffffffffffffffffffff1673ffffffffffffffffffffffffffffffffffffffff1681526020019081526020016000206000820151816000015560208201518160010160006101000a81548173ffffffffffffffffffffffffffffffffffffffff021916908373ffffffffffffffffffffffffffffffffffffffff16021790555060408201518160020190805190602001906101c2929190610518565b506060820151816003015560808201518160040190805190602001906101e9929190610518565b50905050505050565b60006020528060005260406000206000915090508060000154908060010160009054906101000a900473ffffffffffffffffffffffffffffffffffffffff169080600201805461024190610ad3565b80601f016020809104026020016040519081016040528092919081815260200182805461026d90610ad3565b80156102ba5780601f1061028f576101008083540402835291602001916102ba565b820191906000526020600020905b81548152906001019060200180831161029d57829003601f168201915b5050505050908060030154908060040180546102d590610ad3565b80601f016020809104026020016040519081016040528092919081815260200182805461030190610ad3565b801561034e5780601f106103235761010080835404028352916020019161034e565b820191906000526020600020905b81548152906001019060200180831161033157829003601f168201915b5050505050905085565b6000811361039b576040517f08c379a00000000000000000000000000000000000000000000000000000000081526004016103929061085b565b60405180910390fd5b806000803373ffffffffffffffffffffffffffffffffffffffff1673ffffffffffffffffffffffffffffffffffffffff16815260200190815260200160002060000160008282546103ec919061092d565b9250508190555050565b60008113610439576040517f08c379a00000000000000000000000000000000000000000000000000000000081526004016104309061089b565b60405180910390fd5b806000803373ffffffffffffffffffffffffffffffffffffffff1673ffffffffffffffffffffffffffffffffffffffff1681526020019081526020016000206000015412156104bd576040517f08c379a00000000000000000000000000000000000000000000000000000000081526004016104b49061087b565b60405180910390fd5b806000803373ffffffffffffffffffffffffffffffffffffffff1673ffffffffffffffffffffffffffffffffffffffff168152602001908152602001600020600001600082825461050e91906109c1565b9250508190555050565b82805461052490610ad3565b90600052602060002090601f016020900481019282610546576000855561058d565b82601f1061055f57805160ff191683800117855561058d565b8280016001018555821561058d579182015b8281111561058c578251825591602001919060010190610571565b5b50905061059a919061059e565b5090565b5b808211156105b757600081600090555060010161059f565b5090565b60006105ce6105c9846108e0565b6108bb565b9050828152602081018484840111156105ea576105e9610bc8565b5b6105f5848285610a91565b509392505050565b60008135905061060c81610cd5565b92915050565b60008135905061062181610cec565b92915050565b600082601f83011261063c5761063b610bc3565b5b813561064c8482602086016105bb565b91505092915050565b60006020828403121561066b5761066a610bd2565b5b6000610679848285016105fd565b91505092915050565b60006020828403121561069857610697610bd2565b5b60006106a684828501610612565b91505092915050565b6000806000606084860312156106c8576106c7610bd2565b5b600084013567ffffffffffffffff8111156106e6576106e5610bcd565b5b6106f286828701610627565b935050602061070386828701610612565b925050604084013567ffffffffffffffff81111561072457610723610bcd565b5b61073086828701610627565b9150509250925092565b61074381610a55565b82525050565b61075281610a67565b82525050565b600061076382610911565b61076d818561091c565b935061077d818560208601610aa0565b61078681610bd7565b840191505092915050565b600061079e60268361091c565b91506107a982610be8565b604082019050919050565b60006107c160378361091c565b91506107cc82610c37565b604082019050919050565b60006107e460258361091c565b91506107ef82610c86565b604082019050919050565b600060a08201905061080f6000830188610749565b61081c602083018761073a565b818103604083015261082e8186610758565b905061083d6060830185610749565b818103608083015261084f8184610758565b90509695505050505050565b6000602082019050818103600083015261087481610791565b9050919050565b60006020820190508181036000830152610894816107b4565b9050919050565b600060208201905081810360008301526108b4816107d7565b9050919050565b60006108c56108d6565b90506108d18282610b05565b919050565b6000604051905090565b600067ffffffffffffffff8211156108fb576108fa610b94565b5b61090482610bd7565b9050602081019050919050565b600081519050919050565b600082825260208201905092915050565b600061093882610a67565b915061094383610a67565b9250817f7fffffffffffffffffffffffffffffffffffffffffffffffffffffffffffffff0383136000831215161561097e5761097d610b36565b5b817f80000000000000000000000000000000000000000000000000000000000000000383126000831216156109b6576109b5610b36565b5b828201905092915050565b60006109cc82610a67565b91506109d783610a67565b9250827f800000000000000000000000000000000000000000000000000000000000000001821260008412151615610a1257610a11610b36565b5b827f7fffffffffffffffffffffffffffffffffffffffffffffffffffffffffffffff018213600084121615610a4a57610a49610b36565b5b828203905092915050565b6000610a6082610a71565b9050919050565b6000819050919050565b600073ffffffffffffffffffffffffffffffffffffffff82169050919050565b82818337600083830152505050565b60005b83811015610abe578082015181840152602081019050610aa3565b83811115610acd576000848401525b50505050565b60006002820490506001821680610aeb57607f821691505b60208210811415610aff57610afe610b65565b5b50919050565b610b0e82610bd7565b810181811067ffffffffffffffff82111715610b2d57610b2c610b94565b5b80604052505050565b7f4e487b7100000000000000000000000000000000000000000000000000000000600052601160045260246000fd5b7f4e487b7100000000000000000000000000000000000000000000000000000000600052602260045260246000fd5b7f4e487b7100000000000000000000000000000000000000000000000000000000600052604160045260246000fd5b600080fd5b600080fd5b600080fd5b600080fd5b6000601f19601f8301169050919050565b7f73616c646f207061726120696e677265736172206465626520736572206d617960008201527f6f72206120300000000000000000000000000000000000000000000000000000602082015250565b7f73616c646f20706172612072657469726172206e6f206465626520736572206d60008201527f61796f7220612073752073616c646f206163747561726c000000000000000000602082015250565b7f73616c646f20706172612072657469726172206465626520736572206d61796f60008201527f7220612030000000000000000000000000000000000000000000000000000000602082015250565b610cde81610a55565b8114610ce957600080fd5b50565b610cf581610a67565b8114610d0057600080fd5b5056fea26469706673582212204285c239d7826a656ced32b7def52d84a61337e12347dd2ddad13b59d585946b64736f6c63430008070033",
					"opcodes": "PUSH1 0x80 PUSH1 0x40 MSTORE CALLVALUE DUP1 ISZERO PUSH2 0x10 JUMPI PUSH1 0x0 DUP1 REVERT JUMPDEST POP PUSH2 0xD39 DUP1 PUSH2 0x20 PUSH1 0x0 CODECOPY PUSH1 0x0 RETURN INVALID PUSH1 0x80 PUSH1 0x40 MSTORE CALLVALUE DUP1 ISZERO PUSH2 0x10 JUMPI PUSH1 0x0 DUP1 REVERT JUMPDEST POP PUSH1 0x4 CALLDATASIZE LT PUSH2 0x4C JUMPI PUSH1 0x0 CALLDATALOAD PUSH1 0xE0 SHR DUP1 PUSH4 0x639D3921 EQ PUSH2 0x51 JUMPI DUP1 PUSH4 0x63E4CDCC EQ PUSH2 0x6D JUMPI DUP1 PUSH4 0x93BA1E60 EQ PUSH2 0xA1 JUMPI DUP1 PUSH4 0xC28A41EC EQ PUSH2 0xBD JUMPI JUMPDEST PUSH1 0x0 DUP1 REVERT JUMPDEST PUSH2 0x6B PUSH1 0x4 DUP1 CALLDATASIZE SUB DUP2 ADD SWAP1 PUSH2 0x66 SWAP2 SWAP1 PUSH2 0x6AF JUMP JUMPDEST PUSH2 0xD9 JUMP JUMPDEST STOP JUMPDEST PUSH2 0x87 PUSH1 0x4 DUP1 CALLDATASIZE SUB DUP2 ADD SWAP1 PUSH2 0x82 SWAP2 SWAP1 PUSH2 0x655 JUMP JUMPDEST PUSH2 0x1F2 JUMP JUMPDEST PUSH1 0x40 MLOAD PUSH2 0x98 SWAP6 SWAP5 SWAP4 SWAP3 SWAP2 SWAP1 PUSH2 0x7FA JUMP JUMPDEST PUSH1 0x40 MLOAD DUP1 SWAP2 SUB SWAP1 RETURN JUMPDEST PUSH2 0xBB PUSH1 0x4 DUP1 CALLDATASIZE SUB DUP2 ADD SWAP1 PUSH2 0xB6 SWAP2 SWAP1 PUSH2 0x682 JUMP JUMPDEST PUSH2 0x358 JUMP JUMPDEST STOP JUMPDEST PUSH2 0xD7 PUSH1 0x4 DUP1 CALLDATASIZE SUB DUP2 ADD SWAP1 PUSH2 0xD2 SWAP2 SWAP1 PUSH2 0x682 JUMP JUMPDEST PUSH2 0x3F6 JUMP JUMPDEST STOP JUMPDEST PUSH1 0x40 MLOAD DUP1 PUSH1 0xA0 ADD PUSH1 0x40 MSTORE DUP1 PUSH1 0x0 DUP2 MSTORE PUSH1 0x20 ADD CALLER PUSH20 0xFFFFFFFFFFFFFFFFFFFFFFFFFFFFFFFFFFFFFFFF AND DUP2 MSTORE PUSH1 0x20 ADD DUP5 DUP2 MSTORE PUSH1 0x20 ADD DUP4 DUP2 MSTORE PUSH1 0x20 ADD DUP3 DUP2 MSTORE POP PUSH1 0x0 DUP1 CALLER PUSH20 0xFFFFFFFFFFFFFFFFFFFFFFFFFFFFFFFFFFFFFFFF AND PUSH20 0xFFFFFFFFFFFFFFFFFFFFFFFFFFFFFFFFFFFFFFFF AND DUP2 MSTORE PUSH1 0x20 ADD SWAP1 DUP2 MSTORE PUSH1 0x20 ADD PUSH1 0x0 KECCAK256 PUSH1 0x0 DUP3 ADD MLOAD DUP2 PUSH1 0x0 ADD SSTORE PUSH1 0x20 DUP3 ADD MLOAD DUP2 PUSH1 0x1 ADD PUSH1 0x0 PUSH2 0x100 EXP DUP2 SLOAD DUP2 PUSH20 0xFFFFFFFFFFFFFFFFFFFFFFFFFFFFFFFFFFFFFFFF MUL NOT AND SWAP1 DUP4 PUSH20 0xFFFFFFFFFFFFFFFFFFFFFFFFFFFFFFFFFFFFFFFF AND MUL OR SWAP1 SSTORE POP PUSH1 0x40 DUP3 ADD MLOAD DUP2 PUSH1 0x2 ADD SWAP1 DUP1 MLOAD SWAP1 PUSH1 0x20 ADD SWAP1 PUSH2 0x1C2 SWAP3 SWAP2 SWAP1 PUSH2 0x518 JUMP JUMPDEST POP PUSH1 0x60 DUP3 ADD MLOAD DUP2 PUSH1 0x3 ADD SSTORE PUSH1 0x80 DUP3 ADD MLOAD DUP2 PUSH1 0x4 ADD SWAP1 DUP1 MLOAD SWAP1 PUSH1 0x20 ADD SWAP1 PUSH2 0x1E9 SWAP3 SWAP2 SWAP1 PUSH2 0x518 JUMP JUMPDEST POP SWAP1 POP POP POP POP POP JUMP JUMPDEST PUSH1 0x0 PUSH1 0x20 MSTORE DUP1 PUSH1 0x0 MSTORE PUSH1 0x40 PUSH1 0x0 KECCAK256 PUSH1 0x0 SWAP2 POP SWAP1 POP DUP1 PUSH1 0x0 ADD SLOAD SWAP1 DUP1 PUSH1 0x1 ADD PUSH1 0x0 SWAP1 SLOAD SWAP1 PUSH2 0x100 EXP SWAP1 DIV PUSH20 0xFFFFFFFFFFFFFFFFFFFFFFFFFFFFFFFFFFFFFFFF AND SWAP1 DUP1 PUSH1 0x2 ADD DUP1 SLOAD PUSH2 0x241 SWAP1 PUSH2 0xAD3 JUMP JUMPDEST DUP1 PUSH1 0x1F ADD PUSH1 0x20 DUP1 SWAP2 DIV MUL PUSH1 0x20 ADD PUSH1 0x40 MLOAD SWAP1 DUP2 ADD PUSH1 0x40 MSTORE DUP1 SWAP3 SWAP2 SWAP1 DUP2 DUP2 MSTORE PUSH1 0x20 ADD DUP3 DUP1 SLOAD PUSH2 0x26D SWAP1 PUSH2 0xAD3 JUMP JUMPDEST DUP1 ISZERO PUSH2 0x2BA JUMPI DUP1 PUSH1 0x1F LT PUSH2 0x28F JUMPI PUSH2 0x100 DUP1 DUP4 SLOAD DIV MUL DUP4 MSTORE SWAP2 PUSH1 0x20 ADD SWAP2 PUSH2 0x2BA JUMP JUMPDEST DUP3 ADD SWAP2 SWAP1 PUSH1 0x0 MSTORE PUSH1 0x20 PUSH1 0x0 KECCAK256 SWAP1 JUMPDEST DUP2 SLOAD DUP2 MSTORE SWAP1 PUSH1 0x1 ADD SWAP1 PUSH1 0x20 ADD DUP1 DUP4 GT PUSH2 0x29D JUMPI DUP3 SWAP1 SUB PUSH1 0x1F AND DUP3 ADD SWAP2 JUMPDEST POP POP POP POP POP SWAP1 DUP1 PUSH1 0x3 ADD SLOAD SWAP1 DUP1 PUSH1 0x4 ADD DUP1 SLOAD PUSH2 0x2D5 SWAP1 PUSH2 0xAD3 JUMP JUMPDEST DUP1 PUSH1 0x1F ADD PUSH1 0x20 DUP1 SWAP2 DIV MUL PUSH1 0x20 ADD PUSH1 0x40 MLOAD SWAP1 DUP2 ADD PUSH1 0x40 MSTORE DUP1 SWAP3 SWAP2 SWAP1 DUP2 DUP2 MSTORE PUSH1 0x20 ADD DUP3 DUP1 SLOAD PUSH2 0x301 SWAP1 PUSH2 0xAD3 JUMP JUMPDEST DUP1 ISZERO PUSH2 0x34E JUMPI DUP1 PUSH1 0x1F LT PUSH2 0x323 JUMPI PUSH2 0x100 DUP1 DUP4 SLOAD DIV MUL DUP4 MSTORE SWAP2 PUSH1 0x20 ADD SWAP2 PUSH2 0x34E JUMP JUMPDEST DUP3 ADD SWAP2 SWAP1 PUSH1 0x0 MSTORE PUSH1 0x20 PUSH1 0x0 KECCAK256 SWAP1 JUMPDEST DUP2 SLOAD DUP2 MSTORE SWAP1 PUSH1 0x1 ADD SWAP1 PUSH1 0x20 ADD DUP1 DUP4 GT PUSH2 0x331 JUMPI DUP3 SWAP1 SUB PUSH1 0x1F AND DUP3 ADD SWAP2 JUMPDEST POP POP POP POP POP SWAP1 POP DUP6 JUMP JUMPDEST PUSH1 0x0 DUP2 SGT PUSH2 0x39B JUMPI PUSH1 0x40 MLOAD PUSH32 0x8C379A000000000000000000000000000000000000000000000000000000000 DUP2 MSTORE PUSH1 0x4 ADD PUSH2 0x392 SWAP1 PUSH2 0x85B JUMP JUMPDEST PUSH1 0x40 MLOAD DUP1 SWAP2 SUB SWAP1 REVERT JUMPDEST DUP1 PUSH1 0x0 DUP1 CALLER PUSH20 0xFFFFFFFFFFFFFFFFFFFFFFFFFFFFFFFFFFFFFFFF AND PUSH20 0xFFFFFFFFFFFFFFFFFFFFFFFFFFFFFFFFFFFFFFFF AND DUP2 MSTORE PUSH1 0x20 ADD SWAP1 DUP2 MSTORE PUSH1 0x20 ADD PUSH1 0x0 KECCAK256 PUSH1 0x0 ADD PUSH1 0x0 DUP3 DUP3 SLOAD PUSH2 0x3EC SWAP2 SWAP1 PUSH2 0x92D JUMP JUMPDEST SWAP3 POP POP DUP2 SWAP1 SSTORE POP POP JUMP JUMPDEST PUSH1 0x0 DUP2 SGT PUSH2 0x439 JUMPI PUSH1 0x40 MLOAD PUSH32 0x8C379A000000000000000000000000000000000000000000000000000000000 DUP2 MSTORE PUSH1 0x4 ADD PUSH2 0x430 SWAP1 PUSH2 0x89B JUMP JUMPDEST PUSH1 0x40 MLOAD DUP1 SWAP2 SUB SWAP1 REVERT JUMPDEST DUP1 PUSH1 0x0 DUP1 CALLER PUSH20 0xFFFFFFFFFFFFFFFFFFFFFFFFFFFFFFFFFFFFFFFF AND PUSH20 0xFFFFFFFFFFFFFFFFFFFFFFFFFFFFFFFFFFFFFFFF AND DUP2 MSTORE PUSH1 0x20 ADD SWAP1 DUP2 MSTORE PUSH1 0x20 ADD PUSH1 0x0 KECCAK256 PUSH1 0x0 ADD SLOAD SLT ISZERO PUSH2 0x4BD JUMPI PUSH1 0x40 MLOAD PUSH32 0x8C379A000000000000000000000000000000000000000000000000000000000 DUP2 MSTORE PUSH1 0x4 ADD PUSH2 0x4B4 SWAP1 PUSH2 0x87B JUMP JUMPDEST PUSH1 0x40 MLOAD DUP1 SWAP2 SUB SWAP1 REVERT JUMPDEST DUP1 PUSH1 0x0 DUP1 CALLER PUSH20 0xFFFFFFFFFFFFFFFFFFFFFFFFFFFFFFFFFFFFFFFF AND PUSH20 0xFFFFFFFFFFFFFFFFFFFFFFFFFFFFFFFFFFFFFFFF AND DUP2 MSTORE PUSH1 0x20 ADD SWAP1 DUP2 MSTORE PUSH1 0x20 ADD PUSH1 0x0 KECCAK256 PUSH1 0x0 ADD PUSH1 0x0 DUP3 DUP3 SLOAD PUSH2 0x50E SWAP2 SWAP1 PUSH2 0x9C1 JUMP JUMPDEST SWAP3 POP POP DUP2 SWAP1 SSTORE POP POP JUMP JUMPDEST DUP3 DUP1 SLOAD PUSH2 0x524 SWAP1 PUSH2 0xAD3 JUMP JUMPDEST SWAP1 PUSH1 0x0 MSTORE PUSH1 0x20 PUSH1 0x0 KECCAK256 SWAP1 PUSH1 0x1F ADD PUSH1 0x20 SWAP1 DIV DUP2 ADD SWAP3 DUP3 PUSH2 0x546 JUMPI PUSH1 0x0 DUP6 SSTORE PUSH2 0x58D JUMP JUMPDEST DUP3 PUSH1 0x1F LT PUSH2 0x55F JUMPI DUP1 MLOAD PUSH1 0xFF NOT AND DUP4 DUP1 ADD OR DUP6 SSTORE PUSH2 0x58D JUMP JUMPDEST DUP3 DUP1 ADD PUSH1 0x1 ADD DUP6 SSTORE DUP3 ISZERO PUSH2 0x58D JUMPI SWAP2 DUP3 ADD JUMPDEST DUP3 DUP2 GT ISZERO PUSH2 0x58C JUMPI DUP3 MLOAD DUP3 SSTORE SWAP2 PUSH1 0x20 ADD SWAP2 SWAP1 PUSH1 0x1 ADD SWAP1 PUSH2 0x571 JUMP JUMPDEST JUMPDEST POP SWAP1 POP PUSH2 0x59A SWAP2 SWAP1 PUSH2 0x59E JUMP JUMPDEST POP SWAP1 JUMP JUMPDEST JUMPDEST DUP1 DUP3 GT ISZERO PUSH2 0x5B7 JUMPI PUSH1 0x0 DUP2 PUSH1 0x0 SWAP1 SSTORE POP PUSH1 0x1 ADD PUSH2 0x59F JUMP JUMPDEST POP SWAP1 JUMP JUMPDEST PUSH1 0x0 PUSH2 0x5CE PUSH2 0x5C9 DUP5 PUSH2 0x8E0 JUMP JUMPDEST PUSH2 0x8BB JUMP JUMPDEST SWAP1 POP DUP3 DUP2 MSTORE PUSH1 0x20 DUP2 ADD DUP5 DUP5 DUP5 ADD GT ISZERO PUSH2 0x5EA JUMPI PUSH2 0x5E9 PUSH2 0xBC8 JUMP JUMPDEST JUMPDEST PUSH2 0x5F5 DUP5 DUP3 DUP6 PUSH2 0xA91 JUMP JUMPDEST POP SWAP4 SWAP3 POP POP POP JUMP JUMPDEST PUSH1 0x0 DUP2 CALLDATALOAD SWAP1 POP PUSH2 0x60C DUP2 PUSH2 0xCD5 JUMP JUMPDEST SWAP3 SWAP2 POP POP JUMP JUMPDEST PUSH1 0x0 DUP2 CALLDATALOAD SWAP1 POP PUSH2 0x621 DUP2 PUSH2 0xCEC JUMP JUMPDEST SWAP3 SWAP2 POP POP JUMP JUMPDEST PUSH1 0x0 DUP3 PUSH1 0x1F DUP4 ADD SLT PUSH2 0x63C JUMPI PUSH2 0x63B PUSH2 0xBC3 JUMP JUMPDEST JUMPDEST DUP2 CALLDATALOAD PUSH2 0x64C DUP5 DUP3 PUSH1 0x20 DUP7 ADD PUSH2 0x5BB JUMP JUMPDEST SWAP2 POP POP SWAP3 SWAP2 POP POP JUMP JUMPDEST PUSH1 0x0 PUSH1 0x20 DUP3 DUP5 SUB SLT ISZERO PUSH2 0x66B JUMPI PUSH2 0x66A PUSH2 0xBD2 JUMP JUMPDEST JUMPDEST PUSH1 0x0 PUSH2 0x679 DUP5 DUP3 DUP6 ADD PUSH2 0x5FD JUMP JUMPDEST SWAP2 POP POP SWAP3 SWAP2 POP POP JUMP JUMPDEST PUSH1 0x0 PUSH1 0x20 DUP3 DUP5 SUB SLT ISZERO PUSH2 0x698 JUMPI PUSH2 0x697 PUSH2 0xBD2 JUMP JUMPDEST JUMPDEST PUSH1 0x0 PUSH2 0x6A6 DUP5 DUP3 DUP6 ADD PUSH2 0x612 JUMP JUMPDEST SWAP2 POP POP SWAP3 SWAP2 POP POP JUMP JUMPDEST PUSH1 0x0 DUP1 PUSH1 0x0 PUSH1 0x60 DUP5 DUP7 SUB SLT ISZERO PUSH2 0x6C8 JUMPI PUSH2 0x6C7 PUSH2 0xBD2 JUMP JUMPDEST JUMPDEST PUSH1 0x0 DUP5 ADD CALLDATALOAD PUSH8 0xFFFFFFFFFFFFFFFF DUP2 GT ISZERO PUSH2 0x6E6 JUMPI PUSH2 0x6E5 PUSH2 0xBCD JUMP JUMPDEST JUMPDEST PUSH2 0x6F2 DUP7 DUP3 DUP8 ADD PUSH2 0x627 JUMP JUMPDEST SWAP4 POP POP PUSH1 0x20 PUSH2 0x703 DUP7 DUP3 DUP8 ADD PUSH2 0x612 JUMP JUMPDEST SWAP3 POP POP PUSH1 0x40 DUP5 ADD CALLDATALOAD PUSH8 0xFFFFFFFFFFFFFFFF DUP2 GT ISZERO PUSH2 0x724 JUMPI PUSH2 0x723 PUSH2 0xBCD JUMP JUMPDEST JUMPDEST PUSH2 0x730 DUP7 DUP3 DUP8 ADD PUSH2 0x627 JUMP JUMPDEST SWAP2 POP POP SWAP3 POP SWAP3 POP SWAP3 JUMP JUMPDEST PUSH2 0x743 DUP2 PUSH2 0xA55 JUMP JUMPDEST DUP3 MSTORE POP POP JUMP JUMPDEST PUSH2 0x752 DUP2 PUSH2 0xA67 JUMP JUMPDEST DUP3 MSTORE POP POP JUMP JUMPDEST PUSH1 0x0 PUSH2 0x763 DUP3 PUSH2 0x911 JUMP JUMPDEST PUSH2 0x76D DUP2 DUP6 PUSH2 0x91C JUMP JUMPDEST SWAP4 POP PUSH2 0x77D DUP2 DUP6 PUSH1 0x20 DUP7 ADD PUSH2 0xAA0 JUMP JUMPDEST PUSH2 0x786 DUP2 PUSH2 0xBD7 JUMP JUMPDEST DUP5 ADD SWAP2 POP POP SWAP3 SWAP2 POP POP JUMP JUMPDEST PUSH1 0x0 PUSH2 0x79E PUSH1 0x26 DUP4 PUSH2 0x91C JUMP JUMPDEST SWAP2 POP PUSH2 0x7A9 DUP3 PUSH2 0xBE8 JUMP JUMPDEST PUSH1 0x40 DUP3 ADD SWAP1 POP SWAP2 SWAP1 POP JUMP JUMPDEST PUSH1 0x0 PUSH2 0x7C1 PUSH1 0x37 DUP4 PUSH2 0x91C JUMP JUMPDEST SWAP2 POP PUSH2 0x7CC DUP3 PUSH2 0xC37 JUMP JUMPDEST PUSH1 0x40 DUP3 ADD SWAP1 POP SWAP2 SWAP1 POP JUMP JUMPDEST PUSH1 0x0 PUSH2 0x7E4 PUSH1 0x25 DUP4 PUSH2 0x91C JUMP JUMPDEST SWAP2 POP PUSH2 0x7EF DUP3 PUSH2 0xC86 JUMP JUMPDEST PUSH1 0x40 DUP3 ADD SWAP1 POP SWAP2 SWAP1 POP JUMP JUMPDEST PUSH1 0x0 PUSH1 0xA0 DUP3 ADD SWAP1 POP PUSH2 0x80F PUSH1 0x0 DUP4 ADD DUP9 PUSH2 0x749 JUMP JUMPDEST PUSH2 0x81C PUSH1 0x20 DUP4 ADD DUP8 PUSH2 0x73A JUMP JUMPDEST DUP2 DUP2 SUB PUSH1 0x40 DUP4 ADD MSTORE PUSH2 0x82E DUP2 DUP7 PUSH2 0x758 JUMP JUMPDEST SWAP1 POP PUSH2 0x83D PUSH1 0x60 DUP4 ADD DUP6 PUSH2 0x749 JUMP JUMPDEST DUP2 DUP2 SUB PUSH1 0x80 DUP4 ADD MSTORE PUSH2 0x84F DUP2 DUP5 PUSH2 0x758 JUMP JUMPDEST SWAP1 POP SWAP7 SWAP6 POP POP POP POP POP POP JUMP JUMPDEST PUSH1 0x0 PUSH1 0x20 DUP3 ADD SWAP1 POP DUP2 DUP2 SUB PUSH1 0x0 DUP4 ADD MSTORE PUSH2 0x874 DUP2 PUSH2 0x791 JUMP JUMPDEST SWAP1 POP SWAP2 SWAP1 POP JUMP JUMPDEST PUSH1 0x0 PUSH1 0x20 DUP3 ADD SWAP1 POP DUP2 DUP2 SUB PUSH1 0x0 DUP4 ADD MSTORE PUSH2 0x894 DUP2 PUSH2 0x7B4 JUMP JUMPDEST SWAP1 POP SWAP2 SWAP1 POP JUMP JUMPDEST PUSH1 0x0 PUSH1 0x20 DUP3 ADD SWAP1 POP DUP2 DUP2 SUB PUSH1 0x0 DUP4 ADD MSTORE PUSH2 0x8B4 DUP2 PUSH2 0x7D7 JUMP JUMPDEST SWAP1 POP SWAP2 SWAP1 POP JUMP JUMPDEST PUSH1 0x0 PUSH2 0x8C5 PUSH2 0x8D6 JUMP JUMPDEST SWAP1 POP PUSH2 0x8D1 DUP3 DUP3 PUSH2 0xB05 JUMP JUMPDEST SWAP2 SWAP1 POP JUMP JUMPDEST PUSH1 0x0 PUSH1 0x40 MLOAD SWAP1 POP SWAP1 JUMP JUMPDEST PUSH1 0x0 PUSH8 0xFFFFFFFFFFFFFFFF DUP3 GT ISZERO PUSH2 0x8FB JUMPI PUSH2 0x8FA PUSH2 0xB94 JUMP JUMPDEST JUMPDEST PUSH2 0x904 DUP3 PUSH2 0xBD7 JUMP JUMPDEST SWAP1 POP PUSH1 0x20 DUP2 ADD SWAP1 POP SWAP2 SWAP1 POP JUMP JUMPDEST PUSH1 0x0 DUP2 MLOAD SWAP1 POP SWAP2 SWAP1 POP JUMP JUMPDEST PUSH1 0x0 DUP3 DUP3 MSTORE PUSH1 0x20 DUP3 ADD SWAP1 POP SWAP3 SWAP2 POP POP JUMP JUMPDEST PUSH1 0x0 PUSH2 0x938 DUP3 PUSH2 0xA67 JUMP JUMPDEST SWAP2 POP PUSH2 0x943 DUP4 PUSH2 0xA67 JUMP JUMPDEST SWAP3 POP DUP2 PUSH32 0x7FFFFFFFFFFFFFFFFFFFFFFFFFFFFFFFFFFFFFFFFFFFFFFFFFFFFFFFFFFFFFFF SUB DUP4 SGT PUSH1 0x0 DUP4 SLT ISZERO AND ISZERO PUSH2 0x97E JUMPI PUSH2 0x97D PUSH2 0xB36 JUMP JUMPDEST JUMPDEST DUP2 PUSH32 0x8000000000000000000000000000000000000000000000000000000000000000 SUB DUP4 SLT PUSH1 0x0 DUP4 SLT AND ISZERO PUSH2 0x9B6 JUMPI PUSH2 0x9B5 PUSH2 0xB36 JUMP JUMPDEST JUMPDEST DUP3 DUP3 ADD SWAP1 POP SWAP3 SWAP2 POP POP JUMP JUMPDEST PUSH1 0x0 PUSH2 0x9CC DUP3 PUSH2 0xA67 JUMP JUMPDEST SWAP2 POP PUSH2 0x9D7 DUP4 PUSH2 0xA67 JUMP JUMPDEST SWAP3 POP DUP3 PUSH32 0x8000000000000000000000000000000000000000000000000000000000000000 ADD DUP3 SLT PUSH1 0x0 DUP5 SLT ISZERO AND ISZERO PUSH2 0xA12 JUMPI PUSH2 0xA11 PUSH2 0xB36 JUMP JUMPDEST JUMPDEST DUP3 PUSH32 0x7FFFFFFFFFFFFFFFFFFFFFFFFFFFFFFFFFFFFFFFFFFFFFFFFFFFFFFFFFFFFFFF ADD DUP3 SGT PUSH1 0x0 DUP5 SLT AND ISZERO PUSH2 0xA4A JUMPI PUSH2 0xA49 PUSH2 0xB36 JUMP JUMPDEST JUMPDEST DUP3 DUP3 SUB SWAP1 POP SWAP3 SWAP2 POP POP JUMP JUMPDEST PUSH1 0x0 PUSH2 0xA60 DUP3 PUSH2 0xA71 JUMP JUMPDEST SWAP1 POP SWAP2 SWAP1 POP JUMP JUMPDEST PUSH1 0x0 DUP2 SWAP1 POP SWAP2 SWAP1 POP JUMP JUMPDEST PUSH1 0x0 PUSH20 0xFFFFFFFFFFFFFFFFFFFFFFFFFFFFFFFFFFFFFFFF DUP3 AND SWAP1 POP SWAP2 SWAP1 POP JUMP JUMPDEST DUP3 DUP2 DUP4 CALLDATACOPY PUSH1 0x0 DUP4 DUP4 ADD MSTORE POP POP POP JUMP JUMPDEST PUSH1 0x0 JUMPDEST DUP4 DUP2 LT ISZERO PUSH2 0xABE JUMPI DUP1 DUP3 ADD MLOAD DUP2 DUP5 ADD MSTORE PUSH1 0x20 DUP2 ADD SWAP1 POP PUSH2 0xAA3 JUMP JUMPDEST DUP4 DUP2 GT ISZERO PUSH2 0xACD JUMPI PUSH1 0x0 DUP5 DUP5 ADD MSTORE JUMPDEST POP POP POP POP JUMP JUMPDEST PUSH1 0x0 PUSH1 0x2 DUP3 DIV SWAP1 POP PUSH1 0x1 DUP3 AND DUP1 PUSH2 0xAEB JUMPI PUSH1 0x7F DUP3 AND SWAP2 POP JUMPDEST PUSH1 0x20 DUP3 LT DUP2 EQ ISZERO PUSH2 0xAFF JUMPI PUSH2 0xAFE PUSH2 0xB65 JUMP JUMPDEST JUMPDEST POP SWAP2 SWAP1 POP JUMP JUMPDEST PUSH2 0xB0E DUP3 PUSH2 0xBD7 JUMP JUMPDEST DUP2 ADD DUP2 DUP2 LT PUSH8 0xFFFFFFFFFFFFFFFF DUP3 GT OR ISZERO PUSH2 0xB2D JUMPI PUSH2 0xB2C PUSH2 0xB94 JUMP JUMPDEST JUMPDEST DUP1 PUSH1 0x40 MSTORE POP POP POP JUMP JUMPDEST PUSH32 0x4E487B7100000000000000000000000000000000000000000000000000000000 PUSH1 0x0 MSTORE PUSH1 0x11 PUSH1 0x4 MSTORE PUSH1 0x24 PUSH1 0x0 REVERT JUMPDEST PUSH32 0x4E487B7100000000000000000000000000000000000000000000000000000000 PUSH1 0x0 MSTORE PUSH1 0x22 PUSH1 0x4 MSTORE PUSH1 0x24 PUSH1 0x0 REVERT JUMPDEST PUSH32 0x4E487B7100000000000000000000000000000000000000000000000000000000 PUSH1 0x0 MSTORE PUSH1 0x41 PUSH1 0x4 MSTORE PUSH1 0x24 PUSH1 0x0 REVERT JUMPDEST PUSH1 0x0 DUP1 REVERT JUMPDEST PUSH1 0x0 DUP1 REVERT JUMPDEST PUSH1 0x0 DUP1 REVERT JUMPDEST PUSH1 0x0 DUP1 REVERT JUMPDEST PUSH1 0x0 PUSH1 0x1F NOT PUSH1 0x1F DUP4 ADD AND SWAP1 POP SWAP2 SWAP1 POP JUMP JUMPDEST PUSH32 0x73616C646F207061726120696E677265736172206465626520736572206D6179 PUSH1 0x0 DUP3 ADD MSTORE PUSH32 0x6F72206120300000000000000000000000000000000000000000000000000000 PUSH1 0x20 DUP3 ADD MSTORE POP JUMP JUMPDEST PUSH32 0x73616C646F20706172612072657469726172206E6F206465626520736572206D PUSH1 0x0 DUP3 ADD MSTORE PUSH32 0x61796F7220612073752073616C646F206163747561726C000000000000000000 PUSH1 0x20 DUP3 ADD MSTORE POP JUMP JUMPDEST PUSH32 0x73616C646F20706172612072657469726172206465626520736572206D61796F PUSH1 0x0 DUP3 ADD MSTORE PUSH32 0x7220612030000000000000000000000000000000000000000000000000000000 PUSH1 0x20 DUP3 ADD MSTORE POP JUMP JUMPDEST PUSH2 0xCDE DUP2 PUSH2 0xA55 JUMP JUMPDEST DUP2 EQ PUSH2 0xCE9 JUMPI PUSH1 0x0 DUP1 REVERT JUMPDEST POP JUMP JUMPDEST PUSH2 0xCF5 DUP2 PUSH2 0xA67 JUMP JUMPDEST DUP2 EQ PUSH2 0xD00 JUMPI PUSH1 0x0 DUP1 REVERT JUMPDEST POP JUMP INVALID LOG2 PUSH5 0x6970667358 0x22 SLT KECCAK256 TIMESTAMP DUP6 0xC2 CODECOPY 0xD7 DUP3 PUSH11 0x656CED32B7DEF52D84A613 CALLDATACOPY 0xE1 0x23 SELFBALANCE 0xDD 0x2D 0xDA 0xD1 EXTCODESIZE MSIZE 0xD5 DUP6 SWAP5 PUSH12 0x64736F6C6343000807003300 "
				},
				"gasEstimates": {
					"creation": {
						"codeDepositCost": "677000",
						"executionCost": "708",
						"totalCost": "677708"
					},
					"external": {
						"addCuentaAhorro(string,int256,string)": "infinite",
						"ingresarSaldo(int256)": "infinite",
						"mappingCuentaAhorro(address)": "infinite",
						"retirarSaldo(int256)": "infinite"
					}
				},
				"methodIdentifiers": {
					"addCuentaAhorro(string,int256,string)": "639d3921",
					"ingresarSaldo(int256)": "93ba1e60",
					"mappingCuentaAhorro(address)": "63e4cdcc",
					"retirarSaldo(int256)": "c28a41ec"
				}
			},
			"storageLayout": {
				"storage": [
					{
						"astId": 17,
						"contract": "contracts/Ejercicio1CuentaAhorro.sol:Ejercicio1CuentaAhorro",
						"label": "mappingCuentaAhorro",
						"offset": 0,
						"slot": "0",
						"type": "t_mapping(t_address,t_struct(CuentaAhorro)12_storage)"
					}
				],
				"types": {
					"t_address": {
						"encoding": "inplace",
						"label": "address",
						"numberOfBytes": "20"
					},
					"t_int256": {
						"encoding": "inplace",
						"label": "int256",
						"numberOfBytes": "32"
					},
					"t_mapping(t_address,t_struct(CuentaAhorro)12_storage)": {
						"encoding": "mapping",
						"key": "t_address",
						"label": "mapping(address => struct Ejercicio1CuentaAhorro.CuentaAhorro)",
						"numberOfBytes": "32",
						"value": "t_struct(CuentaAhorro)12_storage"
					},
					"t_string_storage": {
						"encoding": "bytes",
						"label": "string",
						"numberOfBytes": "32"
					},
					"t_struct(CuentaAhorro)12_storage": {
						"encoding": "inplace",
						"label": "struct Ejercicio1CuentaAhorro.CuentaAhorro",
						"members": [
							{
								"astId": 3,
								"contract": "contracts/Ejercicio1CuentaAhorro.sol:Ejercicio1CuentaAhorro",
								"label": "saldo",
								"offset": 0,
								"slot": "0",
								"type": "t_int256"
							},
							{
								"astId": 5,
								"contract": "contracts/Ejercicio1CuentaAhorro.sol:Ejercicio1CuentaAhorro",
								"label": "addressCuenta",
								"offset": 0,
								"slot": "1",
								"type": "t_address"
							},
							{
								"astId": 7,
								"contract": "contracts/Ejercicio1CuentaAhorro.sol:Ejercicio1CuentaAhorro",
								"label": "nombre",
								"offset": 0,
								"slot": "2",
								"type": "t_string_storage"
							},
							{
								"astId": 9,
								"contract": "contracts/Ejercicio1CuentaAhorro.sol:Ejercicio1CuentaAhorro",
								"label": "edad",
								"offset": 0,
								"slot": "3",
								"type": "t_int256"
							},
							{
								"astId": 11,
								"contract": "contracts/Ejercicio1CuentaAhorro.sol:Ejercicio1CuentaAhorro",
								"label": "colorFavorito",
								"offset": 0,
								"slot": "4",
								"type": "t_string_storage"
							}
						],
						"numberOfBytes": "160"
					}
				}
			},
			"userdoc": {
				"kind": "user",
				"methods": {},
				"version": 1
			}
		}
	}
}