{
	"contracts/Ejercicio1CuentaAhorro.sol": {
		"Ejercicio1CuentaAhorro": {
			"abi": [
				{
					"inputs": [],
					"name": "addCliente",
					"outputs": [],
					"stateMutability": "nonpayable",
					"type": "function"
				},
				{
					"inputs": [],
					"name": "c1",
					"outputs": [
						{
							"internalType": "int256",
							"name": "saldo",
							"type": "int256"
						},
						{
							"internalType": "string",
							"name": "addressCuenta",
							"type": "string"
						},
						{
							"internalType": "string",
							"name": "nombre",
							"type": "string"
						},
						{
							"internalType": "int256",
							"name": "edad",
							"type": "int256"
						},
						{
							"internalType": "string",
							"name": "colorFavorito",
							"type": "string"
						}
					],
					"stateMutability": "view",
					"type": "function"
				},
				{
					"inputs": [
						{
							"internalType": "int256",
							"name": "saldoParaIngresar",
							"type": "int256"
						}
					],
					"name": "ingresarSaldo",
					"outputs": [],
					"stateMutability": "nonpayable",
					"type": "function"
				},
				{
					"inputs": [
						{
							"internalType": "address",
							"name": "",
							"type": "address"
						}
					],
					"name": "mappingCuentaAhorro",
					"outputs": [
						{
							"internalType": "int256",
							"name": "saldo",
							"type": "int256"
						},
						{
							"internalType": "string",
							"name": "addressCuenta",
							"type": "string"
						},
						{
							"internalType": "string",
							"name": "nombre",
							"type": "string"
						},
						{
							"internalType": "int256",
							"name": "edad",
							"type": "int256"
						},
						{
							"internalType": "string",
							"name": "colorFavorito",
							"type": "string"
						}
					],
					"stateMutability": "view",
					"type": "function"
				},
				{
					"inputs": [
						{
							"internalType": "int256",
							"name": "saldoParaRetirar",
							"type": "int256"
						}
					],
					"name": "retirarSaldo",
					"outputs": [],
					"stateMutability": "nonpayable",
					"type": "function"
				}
			],
			"devdoc": {
				"kind": "dev",
				"methods": {},
				"version": 1
			},
			"evm": {
				"assembly": "    /* \"contracts/Ejercicio1CuentaAhorro.sol\":1630:2359  contract Ejercicio1CuentaAhorro {\r... */\n  mstore(0x40, 0x80)\n    /* \"contracts/Ejercicio1CuentaAhorro.sol\":1858:1940  CuentaAhorro(0,\"Ivy\", \"0x5B38Da6a701c568545dCfcB03FcB875f56beddC4\", 25 ,\"Purpura\") */\n  mload(0x40)\n  dup1\n  0xa0\n  add\n  0x40\n  mstore\n  dup1\n    /* \"contracts/Ejercicio1CuentaAhorro.sol\":1871:1872  0 */\n  0x00\n    /* \"contracts/Ejercicio1CuentaAhorro.sol\":1858:1940  CuentaAhorro(0,\"Ivy\", \"0x5B38Da6a701c568545dCfcB03FcB875f56beddC4\", 25 ,\"Purpura\") */\n  dup2\n  mstore\n  0x20\n  add\n  mload(0x40)\n  dup1\n  0x40\n  add\n  0x40\n  mstore\n  dup1\n  0x03\n  dup2\n  mstore\n  0x20\n  add\n  0x4976790000000000000000000000000000000000000000000000000000000000\n  dup2\n  mstore\n  pop\n  dup2\n  mstore\n  0x20\n  add\n  mload(0x40)\n  dup1\n  0x60\n  add\n  0x40\n  mstore\n  dup1\n  0x2a\n  dup2\n  mstore\n  0x20\n  add\n  data_73b49fe9b2415f7043a9fabd65f4f4ea3962b31d51617906e5ba75ced62a3fb9\n  0x2a\n  swap2\n  codecopy\n  dup2\n  mstore\n  0x20\n  add\n    /* \"contracts/Ejercicio1CuentaAhorro.sol\":1926:1928  25 */\n  0x19\n    /* \"contracts/Ejercicio1CuentaAhorro.sol\":1858:1940  CuentaAhorro(0,\"Ivy\", \"0x5B38Da6a701c568545dCfcB03FcB875f56beddC4\", 25 ,\"Purpura\") */\n  dup2\n  mstore\n  0x20\n  add\n  mload(0x40)\n  dup1\n  0x40\n  add\n  0x40\n  mstore\n  dup1\n  0x07\n  dup2\n  mstore\n  0x20\n  add\n  0x5075727075726100000000000000000000000000000000000000000000000000\n  dup2\n  mstore\n  pop\n  dup2\n  mstore\n  pop\n    /* \"contracts/Ejercicio1CuentaAhorro.sol\":1833:1940  CuentaAhorro public c1 = CuentaAhorro(0,\"Ivy\", \"0x5B38Da6a701c568545dCfcB03FcB875f56beddC4\", 25 ,\"Purpura\") */\n  0x00\n  dup1\n  dup3\n  add\n  mload\n  dup2\n  0x00\n  add\n  sstore\n  0x20\n  dup3\n  add\n  mload\n  dup2\n  0x01\n  add\n  swap1\n  dup1\n  mload\n  swap1\n  0x20\n  add\n  swap1\n  tag_1\n  swap3\n  swap2\n  swap1\n  tag_2\n  jump\t// in\ntag_1:\n  pop\n  0x40\n  dup3\n  add\n  mload\n  dup2\n  0x02\n  add\n  swap1\n  dup1\n  mload\n  swap1\n  0x20\n  add\n  swap1\n  tag_3\n  swap3\n  swap2\n  swap1\n  tag_2\n  jump\t// in\ntag_3:\n  pop\n  0x60\n  dup3\n  add\n  mload\n  dup2\n  0x03\n  add\n  sstore\n  0x80\n  dup3\n  add\n  mload\n  dup2\n  0x04\n  add\n  swap1\n  dup1\n  mload\n  swap1\n  0x20\n  add\n  swap1\n  tag_4\n  swap3\n  swap2\n  swap1\n  tag_2\n  jump\t// in\ntag_4:\n  pop\n  pop\n  pop\n    /* \"contracts/Ejercicio1CuentaAhorro.sol\":1630:2359  contract Ejercicio1CuentaAhorro {\r... */\n  callvalue\n  dup1\n  iszero\n  tag_5\n  jumpi\n  0x00\n  dup1\n  revert\ntag_5:\n  pop\n  jump(tag_6)\ntag_2:\n  dup3\n  dup1\n  sload\n  tag_7\n  swap1\n  tag_8\n  jump\t// in\ntag_7:\n  swap1\n  0x00\n  mstore\n  keccak256(0x00, 0x20)\n  swap1\n  0x1f\n  add\n  0x20\n  swap1\n  div\n  dup2\n  add\n  swap3\n  dup3\n  tag_10\n  jumpi\n  0x00\n  dup6\n  sstore\n  jump(tag_9)\ntag_10:\n  dup3\n  0x1f\n  lt\n  tag_11\n  jumpi\n  dup1\n  mload\n  not(0xff)\n  and\n  dup4\n  dup1\n  add\n  or\n  dup6\n  sstore\n  jump(tag_9)\ntag_11:\n  dup3\n  dup1\n  add\n  0x01\n  add\n  dup6\n  sstore\n  dup3\n  iszero\n  tag_9\n  jumpi\n  swap2\n  dup3\n  add\ntag_12:\n  dup3\n  dup2\n  gt\n  iszero\n  tag_13\n  jumpi\n  dup3\n  mload\n  dup3\n  sstore\n  swap2\n  0x20\n  add\n  swap2\n  swap1\n  0x01\n  add\n  swap1\n  jump(tag_12)\ntag_13:\ntag_9:\n  pop\n  swap1\n  pop\n  tag_14\n  swap2\n  swap1\n  tag_15\n  jump\t// in\ntag_14:\n  pop\n  swap1\n  jump\t// out\ntag_15:\ntag_16:\n  dup1\n  dup3\n  gt\n  iszero\n  tag_17\n  jumpi\n  0x00\n  dup2\n  0x00\n  swap1\n  sstore\n  pop\n  0x01\n  add\n  jump(tag_16)\ntag_17:\n  pop\n  swap1\n  jump\t// out\n    /* \"#utility.yul\":7:327   */\ntag_8:\n    /* \"#utility.yul\":51:57   */\n  0x00\n    /* \"#utility.yul\":88:89   */\n  0x02\n    /* \"#utility.yul\":82:86   */\n  dup3\n    /* \"#utility.yul\":78:90   */\n  div\n    /* \"#utility.yul\":68:90   */\n  swap1\n  pop\n    /* \"#utility.yul\":135:136   */\n  0x01\n    /* \"#utility.yul\":129:133   */\n  dup3\n    /* \"#utility.yul\":125:137   */\n  and\n    /* \"#utility.yul\":156:174   */\n  dup1\n    /* \"#utility.yul\":146:227   */\n  tag_20\n  jumpi\n    /* \"#utility.yul\":212:216   */\n  0x7f\n    /* \"#utility.yul\":204:210   */\n  dup3\n    /* \"#utility.yul\":200:217   */\n  and\n    /* \"#utility.yul\":190:217   */\n  swap2\n  pop\n    /* \"#utility.yul\":146:227   */\ntag_20:\n    /* \"#utility.yul\":274:276   */\n  0x20\n    /* \"#utility.yul\":266:272   */\n  dup3\n    /* \"#utility.yul\":263:277   */\n  lt\n    /* \"#utility.yul\":243:261   */\n  dup2\n    /* \"#utility.yul\":240:278   */\n  eq\n    /* \"#utility.yul\":237:321   */\n  iszero\n  tag_21\n  jumpi\n    /* \"#utility.yul\":293:311   */\n  tag_22\n  tag_23\n  jump\t// in\ntag_22:\n    /* \"#utility.yul\":237:321   */\ntag_21:\n    /* \"#utility.yul\":58:327   */\n  pop\n    /* \"#utility.yul\":7:327   */\n  swap2\n  swap1\n  pop\n  jump\t// out\n    /* \"#utility.yul\":333:513   */\ntag_23:\n    /* \"#utility.yul\":381:458   */\n  0x4e487b7100000000000000000000000000000000000000000000000000000000\n    /* \"#utility.yul\":378:379   */\n  0x00\n    /* \"#utility.yul\":371:459   */\n  mstore\n    /* \"#utility.yul\":478:482   */\n  0x22\n    /* \"#utility.yul\":475:476   */\n  0x04\n    /* \"#utility.yul\":468:483   */\n  mstore\n    /* \"#utility.yul\":502:506   */\n  0x24\n    /* \"#utility.yul\":499:500   */\n  0x00\n    /* \"#utility.yul\":492:507   */\n  revert\n    /* \"contracts/Ejercicio1CuentaAhorro.sol\":1630:2359  contract Ejercicio1CuentaAhorro {\r... */\ntag_6:\n  dataSize(sub_0)\n  dup1\n  dataOffset(sub_0)\n  0x00\n  codecopy\n  0x00\n  return\nstop\ndata_73b49fe9b2415f7043a9fabd65f4f4ea3962b31d51617906e5ba75ced62a3fb9 307835423338446136613730316335363835343564436663423033466342383735663536626564644334\n\nsub_0: assembly {\n        /* \"contracts/Ejercicio1CuentaAhorro.sol\":1630:2359  contract Ejercicio1CuentaAhorro {\r... */\n      mstore(0x40, 0x80)\n      callvalue\n      dup1\n      iszero\n      tag_1\n      jumpi\n      0x00\n      dup1\n      revert\n    tag_1:\n      pop\n      jumpi(tag_2, lt(calldatasize, 0x04))\n      shr(0xe0, calldataload(0x00))\n      dup1\n      0x3325526c\n      eq\n      tag_3\n      jumpi\n      dup1\n      0x5f57697c\n      eq\n      tag_4\n      jumpi\n      dup1\n      0x63e4cdcc\n      eq\n      tag_5\n      jumpi\n      dup1\n      0x93ba1e60\n      eq\n      tag_6\n      jumpi\n      dup1\n      0xc28a41ec\n      eq\n      tag_7\n      jumpi\n    tag_2:\n      0x00\n      dup1\n      revert\n        /* \"contracts/Ejercicio1CuentaAhorro.sol\":2018:2137  function addCliente ()public {\r... */\n    tag_3:\n      tag_8\n      tag_9\n      jump\t// in\n    tag_8:\n      stop\n        /* \"contracts/Ejercicio1CuentaAhorro.sol\":1833:1940  CuentaAhorro public c1 = CuentaAhorro(0,\"Ivy\", \"0x5B38Da6a701c568545dCfcB03FcB875f56beddC4\", 25 ,\"Purpura\") */\n    tag_4:\n      tag_10\n      tag_11\n      jump\t// in\n    tag_10:\n      mload(0x40)\n      tag_12\n      swap6\n      swap5\n      swap4\n      swap3\n      swap2\n      swap1\n      tag_13\n      jump\t// in\n    tag_12:\n      mload(0x40)\n      dup1\n      swap2\n      sub\n      swap1\n      return\n        /* \"contracts/Ejercicio1CuentaAhorro.sol\":1949:2009  mapping (address => CuentaAhorro) public mappingCuentaAhorro */\n    tag_5:\n      tag_14\n      0x04\n      dup1\n      calldatasize\n      sub\n      dup2\n      add\n      swap1\n      tag_15\n      swap2\n      swap1\n      tag_16\n      jump\t// in\n    tag_15:\n      tag_17\n      jump\t// in\n    tag_14:\n      mload(0x40)\n      tag_18\n      swap6\n      swap5\n      swap4\n      swap3\n      swap2\n      swap1\n      tag_13\n      jump\t// in\n    tag_18:\n      mload(0x40)\n      dup1\n      swap2\n      sub\n      swap1\n      return\n        /* \"contracts/Ejercicio1CuentaAhorro.sol\":2147:2249  function ingresarSaldo (int saldoParaIngresar) public {\r... */\n    tag_6:\n      tag_19\n      0x04\n      dup1\n      calldatasize\n      sub\n      dup2\n      add\n      swap1\n      tag_20\n      swap2\n      swap1\n      tag_21\n      jump\t// in\n    tag_20:\n      tag_22\n      jump\t// in\n    tag_19:\n      stop\n        /* \"contracts/Ejercicio1CuentaAhorro.sol\":2257:2356  function retirarSaldo (int saldoParaRetirar) public {\r... */\n    tag_7:\n      tag_23\n      0x04\n      dup1\n      calldatasize\n      sub\n      dup2\n      add\n      swap1\n      tag_24\n      swap2\n      swap1\n      tag_21\n      jump\t// in\n    tag_24:\n      tag_25\n      jump\t// in\n    tag_23:\n      stop\n        /* \"contracts/Ejercicio1CuentaAhorro.sol\":2018:2137  function addCliente ()public {\r... */\n    tag_9:\n        /* \"contracts/Ejercicio1CuentaAhorro.sol\":2124:2126  c1 */\n      0x00\n        /* \"contracts/Ejercicio1CuentaAhorro.sol\":2058:2077  mappingCuentaAhorro */\n      0x05\n        /* \"contracts/Ejercicio1CuentaAhorro.sol\":2058:2121  mappingCuentaAhorro[0xAb8483F64d9C6d1EcF9b849Ae677dD3315835cb2] */\n      0x00\n        /* \"contracts/Ejercicio1CuentaAhorro.sol\":2078:2120  0xAb8483F64d9C6d1EcF9b849Ae677dD3315835cb2 */\n      0xab8483f64d9c6d1ecf9b849ae677dd3315835cb2\n        /* \"contracts/Ejercicio1CuentaAhorro.sol\":2058:2121  mappingCuentaAhorro[0xAb8483F64d9C6d1EcF9b849Ae677dD3315835cb2] */\n      0xffffffffffffffffffffffffffffffffffffffff\n      and\n      0xffffffffffffffffffffffffffffffffffffffff\n      and\n      dup2\n      mstore\n      0x20\n      add\n      swap1\n      dup2\n      mstore\n      0x20\n      add\n      0x00\n      keccak256\n        /* \"contracts/Ejercicio1CuentaAhorro.sol\":2058:2126  mappingCuentaAhorro[0xAb8483F64d9C6d1EcF9b849Ae677dD3315835cb2] = c1 */\n      0x00\n      dup3\n      add\n      sload\n      dup2\n      0x00\n      add\n      sstore\n      0x01\n      dup3\n      add\n      dup2\n      0x01\n      add\n      swap1\n      dup1\n      sload\n      tag_27\n      swap1\n      tag_28\n      jump\t// in\n    tag_27:\n      tag_29\n      swap3\n      swap2\n      swap1\n      tag_30\n      jump\t// in\n    tag_29:\n      pop\n      0x02\n      dup3\n      add\n      dup2\n      0x02\n      add\n      swap1\n      dup1\n      sload\n      tag_31\n      swap1\n      tag_28\n      jump\t// in\n    tag_31:\n      tag_32\n      swap3\n      swap2\n      swap1\n      tag_30\n      jump\t// in\n    tag_32:\n      pop\n      0x03\n      dup3\n      add\n      sload\n      dup2\n      0x03\n      add\n      sstore\n      0x04\n      dup3\n      add\n      dup2\n      0x04\n      add\n      swap1\n      dup1\n      sload\n      tag_33\n      swap1\n      tag_28\n      jump\t// in\n    tag_33:\n      tag_34\n      swap3\n      swap2\n      swap1\n      tag_30\n      jump\t// in\n    tag_34:\n      pop\n      swap1\n      pop\n      pop\n        /* \"contracts/Ejercicio1CuentaAhorro.sol\":2018:2137  function addCliente ()public {\r... */\n      jump\t// out\n        /* \"contracts/Ejercicio1CuentaAhorro.sol\":1833:1940  CuentaAhorro public c1 = CuentaAhorro(0,\"Ivy\", \"0x5B38Da6a701c568545dCfcB03FcB875f56beddC4\", 25 ,\"Purpura\") */\n    tag_11:\n      0x00\n      dup1\n      0x00\n      add\n      sload\n      swap1\n      dup1\n      0x01\n      add\n      dup1\n      sload\n      tag_35\n      swap1\n      tag_28\n      jump\t// in\n    tag_35:\n      dup1\n      0x1f\n      add\n      0x20\n      dup1\n      swap2\n      div\n      mul\n      0x20\n      add\n      mload(0x40)\n      swap1\n      dup2\n      add\n      0x40\n      mstore\n      dup1\n      swap3\n      swap2\n      swap1\n      dup2\n      dup2\n      mstore\n      0x20\n      add\n      dup3\n      dup1\n      sload\n      tag_36\n      swap1\n      tag_28\n      jump\t// in\n    tag_36:\n      dup1\n      iszero\n      tag_37\n      jumpi\n      dup1\n      0x1f\n      lt\n      tag_38\n      jumpi\n      0x0100\n      dup1\n      dup4\n      sload\n      div\n      mul\n      dup4\n      mstore\n      swap2\n      0x20\n      add\n      swap2\n      jump(tag_37)\n    tag_38:\n      dup3\n      add\n      swap2\n      swap1\n      0x00\n      mstore\n      keccak256(0x00, 0x20)\n      swap1\n    tag_39:\n      dup2\n      sload\n      dup2\n      mstore\n      swap1\n      0x01\n      add\n      swap1\n      0x20\n      add\n      dup1\n      dup4\n      gt\n      tag_39\n      jumpi\n      dup3\n      swap1\n      sub\n      0x1f\n      and\n      dup3\n      add\n      swap2\n    tag_37:\n      pop\n      pop\n      pop\n      pop\n      pop\n      swap1\n      dup1\n      0x02\n      add\n      dup1\n      sload\n      tag_40\n      swap1\n      tag_28\n      jump\t// in\n    tag_40:\n      dup1\n      0x1f\n      add\n      0x20\n      dup1\n      swap2\n      div\n      mul\n      0x20\n      add\n      mload(0x40)\n      swap1\n      dup2\n      add\n      0x40\n      mstore\n      dup1\n      swap3\n      swap2\n      swap1\n      dup2\n      dup2\n      mstore\n      0x20\n      add\n      dup3\n      dup1\n      sload\n      tag_41\n      swap1\n      tag_28\n      jump\t// in\n    tag_41:\n      dup1\n      iszero\n      tag_42\n      jumpi\n      dup1\n      0x1f\n      lt\n      tag_43\n      jumpi\n      0x0100\n      dup1\n      dup4\n      sload\n      div\n      mul\n      dup4\n      mstore\n      swap2\n      0x20\n      add\n      swap2\n      jump(tag_42)\n    tag_43:\n      dup3\n      add\n      swap2\n      swap1\n      0x00\n      mstore\n      keccak256(0x00, 0x20)\n      swap1\n    tag_44:\n      dup2\n      sload\n      dup2\n      mstore\n      swap1\n      0x01\n      add\n      swap1\n      0x20\n      add\n      dup1\n      dup4\n      gt\n      tag_44\n      jumpi\n      dup3\n      swap1\n      sub\n      0x1f\n      and\n      dup3\n      add\n      swap2\n    tag_42:\n      pop\n      pop\n      pop\n      pop\n      pop\n      swap1\n      dup1\n      0x03\n      add\n      sload\n      swap1\n      dup1\n      0x04\n      add\n      dup1\n      sload\n      tag_45\n      swap1\n      tag_28\n      jump\t// in\n    tag_45:\n      dup1\n      0x1f\n      add\n      0x20\n      dup1\n      swap2\n      div\n      mul\n      0x20\n      add\n      mload(0x40)\n      swap1\n      dup2\n      add\n      0x40\n      mstore\n      dup1\n      swap3\n      swap2\n      swap1\n      dup2\n      dup2\n      mstore\n      0x20\n      add\n      dup3\n      dup1\n      sload\n      tag_46\n      swap1\n      tag_28\n      jump\t// in\n    tag_46:\n      dup1\n      iszero\n      tag_47\n      jumpi\n      dup1\n      0x1f\n      lt\n      tag_48\n      jumpi\n      0x0100\n      dup1\n      dup4\n      sload\n      div\n      mul\n      dup4\n      mstore\n      swap2\n      0x20\n      add\n      swap2\n      jump(tag_47)\n    tag_48:\n      dup3\n      add\n      swap2\n      swap1\n      0x00\n      mstore\n      keccak256(0x00, 0x20)\n      swap1\n    tag_49:\n      dup2\n      sload\n      dup2\n      mstore\n      swap1\n      0x01\n      add\n      swap1\n      0x20\n      add\n      dup1\n      dup4\n      gt\n      tag_49\n      jumpi\n      dup3\n      swap1\n      sub\n      0x1f\n      and\n      dup3\n      add\n      swap2\n    tag_47:\n      pop\n      pop\n      pop\n      pop\n      pop\n      swap1\n      pop\n      dup6\n      jump\t// out\n        /* \"contracts/Ejercicio1CuentaAhorro.sol\":1949:2009  mapping (address => CuentaAhorro) public mappingCuentaAhorro */\n    tag_17:\n      mstore(0x20, 0x05)\n      dup1\n      0x00\n      mstore\n      keccak256(0x00, 0x40)\n      0x00\n      swap2\n      pop\n      swap1\n      pop\n      dup1\n      0x00\n      add\n      sload\n      swap1\n      dup1\n      0x01\n      add\n      dup1\n      sload\n      tag_50\n      swap1\n      tag_28\n      jump\t// in\n    tag_50:\n      dup1\n      0x1f\n      add\n      0x20\n      dup1\n      swap2\n      div\n      mul\n      0x20\n      add\n      mload(0x40)\n      swap1\n      dup2\n      add\n      0x40\n      mstore\n      dup1\n      swap3\n      swap2\n      swap1\n      dup2\n      dup2\n      mstore\n      0x20\n      add\n      dup3\n      dup1\n      sload\n      tag_51\n      swap1\n      tag_28\n      jump\t// in\n    tag_51:\n      dup1\n      iszero\n      tag_52\n      jumpi\n      dup1\n      0x1f\n      lt\n      tag_53\n      jumpi\n      0x0100\n      dup1\n      dup4\n      sload\n      div\n      mul\n      dup4\n      mstore\n      swap2\n      0x20\n      add\n      swap2\n      jump(tag_52)\n    tag_53:\n      dup3\n      add\n      swap2\n      swap1\n      0x00\n      mstore\n      keccak256(0x00, 0x20)\n      swap1\n    tag_54:\n      dup2\n      sload\n      dup2\n      mstore\n      swap1\n      0x01\n      add\n      swap1\n      0x20\n      add\n      dup1\n      dup4\n      gt\n      tag_54\n      jumpi\n      dup3\n      swap1\n      sub\n      0x1f\n      and\n      dup3\n      add\n      swap2\n    tag_52:\n      pop\n      pop\n      pop\n      pop\n      pop\n      swap1\n      dup1\n      0x02\n      add\n      dup1\n      sload\n      tag_55\n      swap1\n      tag_28\n      jump\t// in\n    tag_55:\n      dup1\n      0x1f\n      add\n      0x20\n      dup1\n      swap2\n      div\n      mul\n      0x20\n      add\n      mload(0x40)\n      swap1\n      dup2\n      add\n      0x40\n      mstore\n      dup1\n      swap3\n      swap2\n      swap1\n      dup2\n      dup2\n      mstore\n      0x20\n      add\n      dup3\n      dup1\n      sload\n      tag_56\n      swap1\n      tag_28\n      jump\t// in\n    tag_56:\n      dup1\n      iszero\n      tag_57\n      jumpi\n      dup1\n      0x1f\n      lt\n      tag_58\n      jumpi\n      0x0100\n      dup1\n      dup4\n      sload\n      div\n      mul\n      dup4\n      mstore\n      swap2\n      0x20\n      add\n      swap2\n      jump(tag_57)\n    tag_58:\n      dup3\n      add\n      swap2\n      swap1\n      0x00\n      mstore\n      keccak256(0x00, 0x20)\n      swap1\n    tag_59:\n      dup2\n      sload\n      dup2\n      mstore\n      swap1\n      0x01\n      add\n      swap1\n      0x20\n      add\n      dup1\n      dup4\n      gt\n      tag_59\n      jumpi\n      dup3\n      swap1\n      sub\n      0x1f\n      and\n      dup3\n      add\n      swap2\n    tag_57:\n      pop\n      pop\n      pop\n      pop\n      pop\n      swap1\n      dup1\n      0x03\n      add\n      sload\n      swap1\n      dup1\n      0x04\n      add\n      dup1\n      sload\n      tag_60\n      swap1\n      tag_28\n      jump\t// in\n    tag_60:\n      dup1\n      0x1f\n      add\n      0x20\n      dup1\n      swap2\n      div\n      mul\n      0x20\n      add\n      mload(0x40)\n      swap1\n      dup2\n      add\n      0x40\n      mstore\n      dup1\n      swap3\n      swap2\n      swap1\n      dup2\n      dup2\n      mstore\n      0x20\n      add\n      dup3\n      dup1\n      sload\n      tag_61\n      swap1\n      tag_28\n      jump\t// in\n    tag_61:\n      dup1\n      iszero\n      tag_62\n      jumpi\n      dup1\n      0x1f\n      lt\n      tag_63\n      jumpi\n      0x0100\n      dup1\n      dup4\n      sload\n      div\n      mul\n      dup4\n      mstore\n      swap2\n      0x20\n      add\n      swap2\n      jump(tag_62)\n    tag_63:\n      dup3\n      add\n      swap2\n      swap1\n      0x00\n      mstore\n      keccak256(0x00, 0x20)\n      swap1\n    tag_64:\n      dup2\n      sload\n      dup2\n      mstore\n      swap1\n      0x01\n      add\n      swap1\n      0x20\n      add\n      dup1\n      dup4\n      gt\n      tag_64\n      jumpi\n      dup3\n      swap1\n      sub\n      0x1f\n      and\n      dup3\n      add\n      swap2\n    tag_62:\n      pop\n      pop\n      pop\n      pop\n      pop\n      swap1\n      pop\n      dup6\n      jump\t// out\n        /* \"contracts/Ejercicio1CuentaAhorro.sol\":2147:2249  function ingresarSaldo (int saldoParaIngresar) public {\r... */\n    tag_22:\n        /* \"contracts/Ejercicio1CuentaAhorro.sol\":2224:2241  saldoParaIngresar */\n      dup1\n        /* \"contracts/Ejercicio1CuentaAhorro.sol\":2212:2214  c1 */\n      0x00\n        /* \"contracts/Ejercicio1CuentaAhorro.sol\":2212:2220  c1.saldo */\n      dup1\n      add\n      0x00\n        /* \"contracts/Ejercicio1CuentaAhorro.sol\":2212:2241  c1.saldo += saldoParaIngresar */\n      dup3\n      dup3\n      sload\n      tag_66\n      swap2\n      swap1\n      tag_67\n      jump\t// in\n    tag_66:\n      swap3\n      pop\n      pop\n      dup2\n      swap1\n      sstore\n      pop\n        /* \"contracts/Ejercicio1CuentaAhorro.sol\":2147:2249  function ingresarSaldo (int saldoParaIngresar) public {\r... */\n      pop\n      jump\t// out\n        /* \"contracts/Ejercicio1CuentaAhorro.sol\":2257:2356  function retirarSaldo (int saldoParaRetirar) public {\r... */\n    tag_25:\n        /* \"contracts/Ejercicio1CuentaAhorro.sol\":2332:2348  saldoParaRetirar */\n      dup1\n        /* \"contracts/Ejercicio1CuentaAhorro.sol\":2320:2322  c1 */\n      0x00\n        /* \"contracts/Ejercicio1CuentaAhorro.sol\":2320:2328  c1.saldo */\n      dup1\n      add\n      0x00\n        /* \"contracts/Ejercicio1CuentaAhorro.sol\":2320:2348  c1.saldo -= saldoParaRetirar */\n      dup3\n      dup3\n      sload\n      tag_69\n      swap2\n      swap1\n      tag_70\n      jump\t// in\n    tag_69:\n      swap3\n      pop\n      pop\n      dup2\n      swap1\n      sstore\n      pop\n        /* \"contracts/Ejercicio1CuentaAhorro.sol\":2257:2356  function retirarSaldo (int saldoParaRetirar) public {\r... */\n      pop\n      jump\t// out\n    tag_30:\n      dup3\n      dup1\n      sload\n      tag_71\n      swap1\n      tag_28\n      jump\t// in\n    tag_71:\n      swap1\n      0x00\n      mstore\n      keccak256(0x00, 0x20)\n      swap1\n      0x1f\n      add\n      0x20\n      swap1\n      div\n      dup2\n      add\n      swap3\n      dup3\n      tag_73\n      jumpi\n      0x00\n      dup6\n      sstore\n      jump(tag_72)\n    tag_73:\n      dup3\n      0x1f\n      lt\n      tag_74\n      jumpi\n      dup1\n      sload\n      dup6\n      sstore\n      jump(tag_72)\n    tag_74:\n      dup3\n      dup1\n      add\n      0x01\n      add\n      dup6\n      sstore\n      dup3\n      iszero\n      tag_72\n      jumpi\n      0x00\n      mstore\n      keccak256(0x00, 0x20)\n      swap2\n      0x1f\n      add\n      0x20\n      swap1\n      div\n      dup3\n      add\n    tag_75:\n      dup3\n      dup2\n      gt\n      iszero\n      tag_76\n      jumpi\n      dup3\n      sload\n      dup3\n      sstore\n      swap2\n      0x01\n      add\n      swap2\n      swap1\n      0x01\n      add\n      swap1\n      jump(tag_75)\n    tag_76:\n    tag_72:\n      pop\n      swap1\n      pop\n      tag_77\n      swap2\n      swap1\n      tag_78\n      jump\t// in\n    tag_77:\n      pop\n      swap1\n      jump\t// out\n    tag_78:\n    tag_79:\n      dup1\n      dup3\n      gt\n      iszero\n      tag_80\n      jumpi\n      0x00\n      dup2\n      0x00\n      swap1\n      sstore\n      pop\n      0x01\n      add\n      jump(tag_79)\n    tag_80:\n      pop\n      swap1\n      jump\t// out\n        /* \"#utility.yul\":7:146   */\n    tag_82:\n        /* \"#utility.yul\":53:58   */\n      0x00\n        /* \"#utility.yul\":91:97   */\n      dup2\n        /* \"#utility.yul\":78:98   */\n      calldataload\n        /* \"#utility.yul\":69:98   */\n      swap1\n      pop\n        /* \"#utility.yul\":107:140   */\n      tag_84\n        /* \"#utility.yul\":134:139   */\n      dup2\n        /* \"#utility.yul\":107:140   */\n      tag_85\n      jump\t// in\n    tag_84:\n        /* \"#utility.yul\":7:146   */\n      swap3\n      swap2\n      pop\n      pop\n      jump\t// out\n        /* \"#utility.yul\":152:289   */\n    tag_86:\n        /* \"#utility.yul\":197:202   */\n      0x00\n        /* \"#utility.yul\":235:241   */\n      dup2\n        /* \"#utility.yul\":222:242   */\n      calldataload\n        /* \"#utility.yul\":213:242   */\n      swap1\n      pop\n        /* \"#utility.yul\":251:283   */\n      tag_88\n        /* \"#utility.yul\":277:282   */\n      dup2\n        /* \"#utility.yul\":251:283   */\n      tag_89\n      jump\t// in\n    tag_88:\n        /* \"#utility.yul\":152:289   */\n      swap3\n      swap2\n      pop\n      pop\n      jump\t// out\n        /* \"#utility.yul\":295:624   */\n    tag_16:\n        /* \"#utility.yul\":354:360   */\n      0x00\n        /* \"#utility.yul\":403:405   */\n      0x20\n        /* \"#utility.yul\":391:400   */\n      dup3\n        /* \"#utility.yul\":382:389   */\n      dup5\n        /* \"#utility.yul\":378:401   */\n      sub\n        /* \"#utility.yul\":374:406   */\n      slt\n        /* \"#utility.yul\":371:490   */\n      iszero\n      tag_91\n      jumpi\n        /* \"#utility.yul\":409:488   */\n      tag_92\n      tag_93\n      jump\t// in\n    tag_92:\n        /* \"#utility.yul\":371:490   */\n    tag_91:\n        /* \"#utility.yul\":529:530   */\n      0x00\n        /* \"#utility.yul\":554:607   */\n      tag_94\n        /* \"#utility.yul\":599:606   */\n      dup5\n        /* \"#utility.yul\":590:596   */\n      dup3\n        /* \"#utility.yul\":579:588   */\n      dup6\n        /* \"#utility.yul\":575:597   */\n      add\n        /* \"#utility.yul\":554:607   */\n      tag_82\n      jump\t// in\n    tag_94:\n        /* \"#utility.yul\":544:607   */\n      swap2\n      pop\n        /* \"#utility.yul\":500:617   */\n      pop\n        /* \"#utility.yul\":295:624   */\n      swap3\n      swap2\n      pop\n      pop\n      jump\t// out\n        /* \"#utility.yul\":630:957   */\n    tag_21:\n        /* \"#utility.yul\":688:694   */\n      0x00\n        /* \"#utility.yul\":737:739   */\n      0x20\n        /* \"#utility.yul\":725:734   */\n      dup3\n        /* \"#utility.yul\":716:723   */\n      dup5\n        /* \"#utility.yul\":712:735   */\n      sub\n        /* \"#utility.yul\":708:740   */\n      slt\n        /* \"#utility.yul\":705:824   */\n      iszero\n      tag_96\n      jumpi\n        /* \"#utility.yul\":743:822   */\n      tag_97\n      tag_93\n      jump\t// in\n    tag_97:\n        /* \"#utility.yul\":705:824   */\n    tag_96:\n        /* \"#utility.yul\":863:864   */\n      0x00\n        /* \"#utility.yul\":888:940   */\n      tag_98\n        /* \"#utility.yul\":932:939   */\n      dup5\n        /* \"#utility.yul\":923:929   */\n      dup3\n        /* \"#utility.yul\":912:921   */\n      dup6\n        /* \"#utility.yul\":908:930   */\n      add\n        /* \"#utility.yul\":888:940   */\n      tag_86\n      jump\t// in\n    tag_98:\n        /* \"#utility.yul\":878:940   */\n      swap2\n      pop\n        /* \"#utility.yul\":834:950   */\n      pop\n        /* \"#utility.yul\":630:957   */\n      swap3\n      swap2\n      pop\n      pop\n      jump\t// out\n        /* \"#utility.yul\":963:1078   */\n    tag_99:\n        /* \"#utility.yul\":1048:1071   */\n      tag_101\n        /* \"#utility.yul\":1065:1070   */\n      dup2\n        /* \"#utility.yul\":1048:1071   */\n      tag_102\n      jump\t// in\n    tag_101:\n        /* \"#utility.yul\":1043:1046   */\n      dup3\n        /* \"#utility.yul\":1036:1072   */\n      mstore\n        /* \"#utility.yul\":963:1078   */\n      pop\n      pop\n      jump\t// out\n        /* \"#utility.yul\":1084:1448   */\n    tag_103:\n        /* \"#utility.yul\":1172:1175   */\n      0x00\n        /* \"#utility.yul\":1200:1239   */\n      tag_105\n        /* \"#utility.yul\":1233:1238   */\n      dup3\n        /* \"#utility.yul\":1200:1239   */\n      tag_106\n      jump\t// in\n    tag_105:\n        /* \"#utility.yul\":1255:1326   */\n      tag_107\n        /* \"#utility.yul\":1319:1325   */\n      dup2\n        /* \"#utility.yul\":1314:1317   */\n      dup6\n        /* \"#utility.yul\":1255:1326   */\n      tag_108\n      jump\t// in\n    tag_107:\n        /* \"#utility.yul\":1248:1326   */\n      swap4\n      pop\n        /* \"#utility.yul\":1335:1387   */\n      tag_109\n        /* \"#utility.yul\":1380:1386   */\n      dup2\n        /* \"#utility.yul\":1375:1378   */\n      dup6\n        /* \"#utility.yul\":1368:1372   */\n      0x20\n        /* \"#utility.yul\":1361:1366   */\n      dup7\n        /* \"#utility.yul\":1357:1373   */\n      add\n        /* \"#utility.yul\":1335:1387   */\n      tag_110\n      jump\t// in\n    tag_109:\n        /* \"#utility.yul\":1412:1441   */\n      tag_111\n        /* \"#utility.yul\":1434:1440   */\n      dup2\n        /* \"#utility.yul\":1412:1441   */\n      tag_112\n      jump\t// in\n    tag_111:\n        /* \"#utility.yul\":1407:1410   */\n      dup5\n        /* \"#utility.yul\":1403:1442   */\n      add\n        /* \"#utility.yul\":1396:1442   */\n      swap2\n      pop\n        /* \"#utility.yul\":1176:1448   */\n      pop\n        /* \"#utility.yul\":1084:1448   */\n      swap3\n      swap2\n      pop\n      pop\n      jump\t// out\n        /* \"#utility.yul\":1454:2383   */\n    tag_13:\n        /* \"#utility.yul\":1715:1719   */\n      0x00\n        /* \"#utility.yul\":1753:1756   */\n      0xa0\n        /* \"#utility.yul\":1742:1751   */\n      dup3\n        /* \"#utility.yul\":1738:1757   */\n      add\n        /* \"#utility.yul\":1730:1757   */\n      swap1\n      pop\n        /* \"#utility.yul\":1767:1836   */\n      tag_114\n        /* \"#utility.yul\":1833:1834   */\n      0x00\n        /* \"#utility.yul\":1822:1831   */\n      dup4\n        /* \"#utility.yul\":1818:1835   */\n      add\n        /* \"#utility.yul\":1809:1815   */\n      dup9\n        /* \"#utility.yul\":1767:1836   */\n      tag_99\n      jump\t// in\n    tag_114:\n        /* \"#utility.yul\":1883:1892   */\n      dup2\n        /* \"#utility.yul\":1877:1881   */\n      dup2\n        /* \"#utility.yul\":1873:1893   */\n      sub\n        /* \"#utility.yul\":1868:1870   */\n      0x20\n        /* \"#utility.yul\":1857:1866   */\n      dup4\n        /* \"#utility.yul\":1853:1871   */\n      add\n        /* \"#utility.yul\":1846:1894   */\n      mstore\n        /* \"#utility.yul\":1911:1989   */\n      tag_115\n        /* \"#utility.yul\":1984:1988   */\n      dup2\n        /* \"#utility.yul\":1975:1981   */\n      dup8\n        /* \"#utility.yul\":1911:1989   */\n      tag_103\n      jump\t// in\n    tag_115:\n        /* \"#utility.yul\":1903:1989   */\n      swap1\n      pop\n        /* \"#utility.yul\":2036:2045   */\n      dup2\n        /* \"#utility.yul\":2030:2034   */\n      dup2\n        /* \"#utility.yul\":2026:2046   */\n      sub\n        /* \"#utility.yul\":2021:2023   */\n      0x40\n        /* \"#utility.yul\":2010:2019   */\n      dup4\n        /* \"#utility.yul\":2006:2024   */\n      add\n        /* \"#utility.yul\":1999:2047   */\n      mstore\n        /* \"#utility.yul\":2064:2142   */\n      tag_116\n        /* \"#utility.yul\":2137:2141   */\n      dup2\n        /* \"#utility.yul\":2128:2134   */\n      dup7\n        /* \"#utility.yul\":2064:2142   */\n      tag_103\n      jump\t// in\n    tag_116:\n        /* \"#utility.yul\":2056:2142   */\n      swap1\n      pop\n        /* \"#utility.yul\":2152:2222   */\n      tag_117\n        /* \"#utility.yul\":2218:2220   */\n      0x60\n        /* \"#utility.yul\":2207:2216   */\n      dup4\n        /* \"#utility.yul\":2203:2221   */\n      add\n        /* \"#utility.yul\":2194:2200   */\n      dup6\n        /* \"#utility.yul\":2152:2222   */\n      tag_99\n      jump\t// in\n    tag_117:\n        /* \"#utility.yul\":2270:2279   */\n      dup2\n        /* \"#utility.yul\":2264:2268   */\n      dup2\n        /* \"#utility.yul\":2260:2280   */\n      sub\n        /* \"#utility.yul\":2254:2257   */\n      0x80\n        /* \"#utility.yul\":2243:2252   */\n      dup4\n        /* \"#utility.yul\":2239:2258   */\n      add\n        /* \"#utility.yul\":2232:2281   */\n      mstore\n        /* \"#utility.yul\":2298:2376   */\n      tag_118\n        /* \"#utility.yul\":2371:2375   */\n      dup2\n        /* \"#utility.yul\":2362:2368   */\n      dup5\n        /* \"#utility.yul\":2298:2376   */\n      tag_103\n      jump\t// in\n    tag_118:\n        /* \"#utility.yul\":2290:2376   */\n      swap1\n      pop\n        /* \"#utility.yul\":1454:2383   */\n      swap7\n      swap6\n      pop\n      pop\n      pop\n      pop\n      pop\n      pop\n      jump\t// out\n        /* \"#utility.yul\":2470:2569   */\n    tag_106:\n        /* \"#utility.yul\":2522:2528   */\n      0x00\n        /* \"#utility.yul\":2556:2561   */\n      dup2\n        /* \"#utility.yul\":2550:2562   */\n      mload\n        /* \"#utility.yul\":2540:2562   */\n      swap1\n      pop\n        /* \"#utility.yul\":2470:2569   */\n      swap2\n      swap1\n      pop\n      jump\t// out\n        /* \"#utility.yul\":2575:2744   */\n    tag_108:\n        /* \"#utility.yul\":2659:2670   */\n      0x00\n        /* \"#utility.yul\":2693:2699   */\n      dup3\n        /* \"#utility.yul\":2688:2691   */\n      dup3\n        /* \"#utility.yul\":2681:2700   */\n      mstore\n        /* \"#utility.yul\":2733:2737   */\n      0x20\n        /* \"#utility.yul\":2728:2731   */\n      dup3\n        /* \"#utility.yul\":2724:2738   */\n      add\n        /* \"#utility.yul\":2709:2738   */\n      swap1\n      pop\n        /* \"#utility.yul\":2575:2744   */\n      swap3\n      swap2\n      pop\n      pop\n      jump\t// out\n        /* \"#utility.yul\":2750:3275   */\n    tag_67:\n        /* \"#utility.yul\":2789:2792   */\n      0x00\n        /* \"#utility.yul\":2808:2827   */\n      tag_124\n        /* \"#utility.yul\":2825:2826   */\n      dup3\n        /* \"#utility.yul\":2808:2827   */\n      tag_102\n      jump\t// in\n    tag_124:\n        /* \"#utility.yul\":2803:2827   */\n      swap2\n      pop\n        /* \"#utility.yul\":2841:2860   */\n      tag_125\n        /* \"#utility.yul\":2858:2859   */\n      dup4\n        /* \"#utility.yul\":2841:2860   */\n      tag_102\n      jump\t// in\n    tag_125:\n        /* \"#utility.yul\":2836:2860   */\n      swap3\n      pop\n        /* \"#utility.yul\":3029:3030   */\n      dup2\n        /* \"#utility.yul\":2961:3027   */\n      0x7fffffffffffffffffffffffffffffffffffffffffffffffffffffffffffffff\n        /* \"#utility.yul\":2957:3031   */\n      sub\n        /* \"#utility.yul\":2954:2955   */\n      dup4\n        /* \"#utility.yul\":2950:3032   */\n      sgt\n        /* \"#utility.yul\":2945:2946   */\n      0x00\n        /* \"#utility.yul\":2942:2943   */\n      dup4\n        /* \"#utility.yul\":2938:2947   */\n      slt\n        /* \"#utility.yul\":2931:2948   */\n      iszero\n        /* \"#utility.yul\":2927:3033   */\n      and\n        /* \"#utility.yul\":2924:3056   */\n      iszero\n      tag_126\n      jumpi\n        /* \"#utility.yul\":3036:3054   */\n      tag_127\n      tag_128\n      jump\t// in\n    tag_127:\n        /* \"#utility.yul\":2924:3056   */\n    tag_126:\n        /* \"#utility.yul\":3216:3217   */\n      dup2\n        /* \"#utility.yul\":3148:3214   */\n      0x8000000000000000000000000000000000000000000000000000000000000000\n        /* \"#utility.yul\":3144:3218   */\n      sub\n        /* \"#utility.yul\":3141:3142   */\n      dup4\n        /* \"#utility.yul\":3137:3219   */\n      slt\n        /* \"#utility.yul\":3133:3134   */\n      0x00\n        /* \"#utility.yul\":3130:3131   */\n      dup4\n        /* \"#utility.yul\":3126:3135   */\n      slt\n        /* \"#utility.yul\":3122:3220   */\n      and\n        /* \"#utility.yul\":3119:3243   */\n      iszero\n      tag_129\n      jumpi\n        /* \"#utility.yul\":3223:3241   */\n      tag_130\n      tag_128\n      jump\t// in\n    tag_130:\n        /* \"#utility.yul\":3119:3243   */\n    tag_129:\n        /* \"#utility.yul\":3267:3268   */\n      dup3\n        /* \"#utility.yul\":3264:3265   */\n      dup3\n        /* \"#utility.yul\":3260:3269   */\n      add\n        /* \"#utility.yul\":3253:3269   */\n      swap1\n      pop\n        /* \"#utility.yul\":2750:3275   */\n      swap3\n      swap2\n      pop\n      pop\n      jump\t// out\n        /* \"#utility.yul\":3281:3808   */\n    tag_70:\n        /* \"#utility.yul\":3320:3324   */\n      0x00\n        /* \"#utility.yul\":3340:3359   */\n      tag_132\n        /* \"#utility.yul\":3357:3358   */\n      dup3\n        /* \"#utility.yul\":3340:3359   */\n      tag_102\n      jump\t// in\n    tag_132:\n        /* \"#utility.yul\":3335:3359   */\n      swap2\n      pop\n        /* \"#utility.yul\":3373:3392   */\n      tag_133\n        /* \"#utility.yul\":3390:3391   */\n      dup4\n        /* \"#utility.yul\":3373:3392   */\n      tag_102\n      jump\t// in\n    tag_133:\n        /* \"#utility.yul\":3368:3392   */\n      swap3\n      pop\n        /* \"#utility.yul\":3562:3563   */\n      dup3\n        /* \"#utility.yul\":3494:3560   */\n      0x8000000000000000000000000000000000000000000000000000000000000000\n        /* \"#utility.yul\":3490:3564   */\n      add\n        /* \"#utility.yul\":3487:3488   */\n      dup3\n        /* \"#utility.yul\":3483:3565   */\n      slt\n        /* \"#utility.yul\":3478:3479   */\n      0x00\n        /* \"#utility.yul\":3475:3476   */\n      dup5\n        /* \"#utility.yul\":3471:3480   */\n      slt\n        /* \"#utility.yul\":3464:3481   */\n      iszero\n        /* \"#utility.yul\":3460:3566   */\n      and\n        /* \"#utility.yul\":3457:3589   */\n      iszero\n      tag_134\n      jumpi\n        /* \"#utility.yul\":3569:3587   */\n      tag_135\n      tag_128\n      jump\t// in\n    tag_135:\n        /* \"#utility.yul\":3457:3589   */\n    tag_134:\n        /* \"#utility.yul\":3748:3749   */\n      dup3\n        /* \"#utility.yul\":3680:3746   */\n      0x7fffffffffffffffffffffffffffffffffffffffffffffffffffffffffffffff\n        /* \"#utility.yul\":3676:3750   */\n      add\n        /* \"#utility.yul\":3673:3674   */\n      dup3\n        /* \"#utility.yul\":3669:3751   */\n      sgt\n        /* \"#utility.yul\":3665:3666   */\n      0x00\n        /* \"#utility.yul\":3662:3663   */\n      dup5\n        /* \"#utility.yul\":3658:3667   */\n      slt\n        /* \"#utility.yul\":3654:3752   */\n      and\n        /* \"#utility.yul\":3651:3775   */\n      iszero\n      tag_136\n      jumpi\n        /* \"#utility.yul\":3755:3773   */\n      tag_137\n      tag_128\n      jump\t// in\n    tag_137:\n        /* \"#utility.yul\":3651:3775   */\n    tag_136:\n        /* \"#utility.yul\":3800:3801   */\n      dup3\n        /* \"#utility.yul\":3797:3798   */\n      dup3\n        /* \"#utility.yul\":3793:3802   */\n      sub\n        /* \"#utility.yul\":3785:3802   */\n      swap1\n      pop\n        /* \"#utility.yul\":3281:3808   */\n      swap3\n      swap2\n      pop\n      pop\n      jump\t// out\n        /* \"#utility.yul\":3814:3910   */\n    tag_138:\n        /* \"#utility.yul\":3851:3858   */\n      0x00\n        /* \"#utility.yul\":3880:3904   */\n      tag_140\n        /* \"#utility.yul\":3898:3903   */\n      dup3\n        /* \"#utility.yul\":3880:3904   */\n      tag_141\n      jump\t// in\n    tag_140:\n        /* \"#utility.yul\":3869:3904   */\n      swap1\n      pop\n        /* \"#utility.yul\":3814:3910   */\n      swap2\n      swap1\n      pop\n      jump\t// out\n        /* \"#utility.yul\":3916:3992   */\n    tag_102:\n        /* \"#utility.yul\":3952:3959   */\n      0x00\n        /* \"#utility.yul\":3981:3986   */\n      dup2\n        /* \"#utility.yul\":3970:3986   */\n      swap1\n      pop\n        /* \"#utility.yul\":3916:3992   */\n      swap2\n      swap1\n      pop\n      jump\t// out\n        /* \"#utility.yul\":3998:4124   */\n    tag_141:\n        /* \"#utility.yul\":4035:4042   */\n      0x00\n        /* \"#utility.yul\":4075:4117   */\n      0xffffffffffffffffffffffffffffffffffffffff\n        /* \"#utility.yul\":4068:4073   */\n      dup3\n        /* \"#utility.yul\":4064:4118   */\n      and\n        /* \"#utility.yul\":4053:4118   */\n      swap1\n      pop\n        /* \"#utility.yul\":3998:4124   */\n      swap2\n      swap1\n      pop\n      jump\t// out\n        /* \"#utility.yul\":4130:4437   */\n    tag_110:\n        /* \"#utility.yul\":4198:4199   */\n      0x00\n        /* \"#utility.yul\":4208:4321   */\n    tag_145:\n        /* \"#utility.yul\":4222:4228   */\n      dup4\n        /* \"#utility.yul\":4219:4220   */\n      dup2\n        /* \"#utility.yul\":4216:4229   */\n      lt\n        /* \"#utility.yul\":4208:4321   */\n      iszero\n      tag_147\n      jumpi\n        /* \"#utility.yul\":4307:4308   */\n      dup1\n        /* \"#utility.yul\":4302:4305   */\n      dup3\n        /* \"#utility.yul\":4298:4309   */\n      add\n        /* \"#utility.yul\":4292:4310   */\n      mload\n        /* \"#utility.yul\":4288:4289   */\n      dup2\n        /* \"#utility.yul\":4283:4286   */\n      dup5\n        /* \"#utility.yul\":4279:4290   */\n      add\n        /* \"#utility.yul\":4272:4311   */\n      mstore\n        /* \"#utility.yul\":4244:4246   */\n      0x20\n        /* \"#utility.yul\":4241:4242   */\n      dup2\n        /* \"#utility.yul\":4237:4247   */\n      add\n        /* \"#utility.yul\":4232:4247   */\n      swap1\n      pop\n        /* \"#utility.yul\":4208:4321   */\n      jump(tag_145)\n    tag_147:\n        /* \"#utility.yul\":4339:4345   */\n      dup4\n        /* \"#utility.yul\":4336:4337   */\n      dup2\n        /* \"#utility.yul\":4333:4346   */\n      gt\n        /* \"#utility.yul\":4330:4431   */\n      iszero\n      tag_148\n      jumpi\n        /* \"#utility.yul\":4419:4420   */\n      0x00\n        /* \"#utility.yul\":4410:4416   */\n      dup5\n        /* \"#utility.yul\":4405:4408   */\n      dup5\n        /* \"#utility.yul\":4401:4417   */\n      add\n        /* \"#utility.yul\":4394:4421   */\n      mstore\n        /* \"#utility.yul\":4330:4431   */\n    tag_148:\n        /* \"#utility.yul\":4179:4437   */\n      pop\n        /* \"#utility.yul\":4130:4437   */\n      pop\n      pop\n      pop\n      jump\t// out\n        /* \"#utility.yul\":4443:4763   */\n    tag_28:\n        /* \"#utility.yul\":4487:4493   */\n      0x00\n        /* \"#utility.yul\":4524:4525   */\n      0x02\n        /* \"#utility.yul\":4518:4522   */\n      dup3\n        /* \"#utility.yul\":4514:4526   */\n      div\n        /* \"#utility.yul\":4504:4526   */\n      swap1\n      pop\n        /* \"#utility.yul\":4571:4572   */\n      0x01\n        /* \"#utility.yul\":4565:4569   */\n      dup3\n        /* \"#utility.yul\":4561:4573   */\n      and\n        /* \"#utility.yul\":4592:4610   */\n      dup1\n        /* \"#utility.yul\":4582:4663   */\n      tag_150\n      jumpi\n        /* \"#utility.yul\":4648:4652   */\n      0x7f\n        /* \"#utility.yul\":4640:4646   */\n      dup3\n        /* \"#utility.yul\":4636:4653   */\n      and\n        /* \"#utility.yul\":4626:4653   */\n      swap2\n      pop\n        /* \"#utility.yul\":4582:4663   */\n    tag_150:\n        /* \"#utility.yul\":4710:4712   */\n      0x20\n        /* \"#utility.yul\":4702:4708   */\n      dup3\n        /* \"#utility.yul\":4699:4713   */\n      lt\n        /* \"#utility.yul\":4679:4697   */\n      dup2\n        /* \"#utility.yul\":4676:4714   */\n      eq\n        /* \"#utility.yul\":4673:4757   */\n      iszero\n      tag_151\n      jumpi\n        /* \"#utility.yul\":4729:4747   */\n      tag_152\n      tag_153\n      jump\t// in\n    tag_152:\n        /* \"#utility.yul\":4673:4757   */\n    tag_151:\n        /* \"#utility.yul\":4494:4763   */\n      pop\n        /* \"#utility.yul\":4443:4763   */\n      swap2\n      swap1\n      pop\n      jump\t// out\n        /* \"#utility.yul\":4769:4949   */\n    tag_128:\n        /* \"#utility.yul\":4817:4894   */\n      0x4e487b7100000000000000000000000000000000000000000000000000000000\n        /* \"#utility.yul\":4814:4815   */\n      0x00\n        /* \"#utility.yul\":4807:4895   */\n      mstore\n        /* \"#utility.yul\":4914:4918   */\n      0x11\n        /* \"#utility.yul\":4911:4912   */\n      0x04\n        /* \"#utility.yul\":4904:4919   */\n      mstore\n        /* \"#utility.yul\":4938:4942   */\n      0x24\n        /* \"#utility.yul\":4935:4936   */\n      0x00\n        /* \"#utility.yul\":4928:4943   */\n      revert\n        /* \"#utility.yul\":4955:5135   */\n    tag_153:\n        /* \"#utility.yul\":5003:5080   */\n      0x4e487b7100000000000000000000000000000000000000000000000000000000\n        /* \"#utility.yul\":5000:5001   */\n      0x00\n        /* \"#utility.yul\":4993:5081   */\n      mstore\n        /* \"#utility.yul\":5100:5104   */\n      0x22\n        /* \"#utility.yul\":5097:5098   */\n      0x04\n        /* \"#utility.yul\":5090:5105   */\n      mstore\n        /* \"#utility.yul\":5124:5128   */\n      0x24\n        /* \"#utility.yul\":5121:5122   */\n      0x00\n        /* \"#utility.yul\":5114:5129   */\n      revert\n        /* \"#utility.yul\":5264:5381   */\n    tag_93:\n        /* \"#utility.yul\":5373:5374   */\n      0x00\n        /* \"#utility.yul\":5370:5371   */\n      dup1\n        /* \"#utility.yul\":5363:5375   */\n      revert\n        /* \"#utility.yul\":5387:5489   */\n    tag_112:\n        /* \"#utility.yul\":5428:5434   */\n      0x00\n        /* \"#utility.yul\":5479:5481   */\n      0x1f\n        /* \"#utility.yul\":5475:5482   */\n      not\n        /* \"#utility.yul\":5470:5472   */\n      0x1f\n        /* \"#utility.yul\":5463:5468   */\n      dup4\n        /* \"#utility.yul\":5459:5473   */\n      add\n        /* \"#utility.yul\":5455:5483   */\n      and\n        /* \"#utility.yul\":5445:5483   */\n      swap1\n      pop\n        /* \"#utility.yul\":5387:5489   */\n      swap2\n      swap1\n      pop\n      jump\t// out\n        /* \"#utility.yul\":5495:5617   */\n    tag_85:\n        /* \"#utility.yul\":5568:5592   */\n      tag_161\n        /* \"#utility.yul\":5586:5591   */\n      dup2\n        /* \"#utility.yul\":5568:5592   */\n      tag_138\n      jump\t// in\n    tag_161:\n        /* \"#utility.yul\":5561:5566   */\n      dup2\n        /* \"#utility.yul\":5558:5593   */\n      eq\n        /* \"#utility.yul\":5548:5611   */\n      tag_162\n      jumpi\n        /* \"#utility.yul\":5607:5608   */\n      0x00\n        /* \"#utility.yul\":5604:5605   */\n      dup1\n        /* \"#utility.yul\":5597:5609   */\n      revert\n        /* \"#utility.yul\":5548:5611   */\n    tag_162:\n        /* \"#utility.yul\":5495:5617   */\n      pop\n      jump\t// out\n        /* \"#utility.yul\":5623:5743   */\n    tag_89:\n        /* \"#utility.yul\":5695:5718   */\n      tag_164\n        /* \"#utility.yul\":5712:5717   */\n      dup2\n        /* \"#utility.yul\":5695:5718   */\n      tag_102\n      jump\t// in\n    tag_164:\n        /* \"#utility.yul\":5688:5693   */\n      dup2\n        /* \"#utility.yul\":5685:5719   */\n      eq\n        /* \"#utility.yul\":5675:5737   */\n      tag_165\n      jumpi\n        /* \"#utility.yul\":5733:5734   */\n      0x00\n        /* \"#utility.yul\":5730:5731   */\n      dup1\n        /* \"#utility.yul\":5723:5735   */\n      revert\n        /* \"#utility.yul\":5675:5737   */\n    tag_165:\n        /* \"#utility.yul\":5623:5743   */\n      pop\n      jump\t// out\n\n    auxdata: 0xa2646970667358221220927466d640942235477c0b4d9c04fe0503e0276da1f27a3605e274b30160008f64736f6c63430008070033\n}\n",
				"bytecode": {
					"linkReferences": {},
					"object": "60806040526040518060a00160405280600081526020016040518060400160405280600381526020017f497679000000000000000000000000000000000000000000000000000000000081525081526020016040518060600160405280602a815260200162000c80602a91398152602001601981526020016040518060400160405280600781526020017f507572707572610000000000000000000000000000000000000000000000000081525081525060008082015181600001556020820151816001019080519060200190620000d992919062000138565b506040820151816002019080519060200190620000f892919062000138565b506060820151816003015560808201518160040190805190602001906200012192919062000138565b5050503480156200013157600080fd5b506200024d565b8280546200014690620001e8565b90600052602060002090601f0160209004810192826200016a5760008555620001b6565b82601f106200018557805160ff1916838001178555620001b6565b82800160010185558215620001b6579182015b82811115620001b557825182559160200191906001019062000198565b5b509050620001c59190620001c9565b5090565b5b80821115620001e4576000816000905550600101620001ca565b5090565b600060028204905060018216806200020157607f821691505b602082108114156200021857620002176200021e565b5b50919050565b7f4e487b7100000000000000000000000000000000000000000000000000000000600052602260045260246000fd5b610a23806200025d6000396000f3fe608060405234801561001057600080fd5b50600436106100575760003560e01c80633325526c1461005c5780635f57697c1461006657806363e4cdcc1461008857806393ba1e60146100bc578063c28a41ec146100d8575b600080fd5b6100646100f4565b005b61006e6101c2565b60405161007f9594939291906106fe565b60405180910390f35b6100a2600480360381019061009d919061065c565b61037e565b6040516100b39594939291906106fe565b60405180910390f35b6100d660048036038101906100d19190610689565b61054c565b005b6100f260048036038101906100ed9190610689565b61056a565b005b60006005600073ab8483f64d9c6d1ecf9b849ae677dd3315835cb273ffffffffffffffffffffffffffffffffffffffff1673ffffffffffffffffffffffffffffffffffffffff16815260200190815260200160002060008201548160000155600182018160010190805461016790610919565b610172929190610588565b50600282018160020190805461018790610919565b610192929190610588565b506003820154816003015560048201816004019080546101b190610919565b6101bc929190610588565b50905050565b60008060000154908060010180546101d990610919565b80601f016020809104026020016040519081016040528092919081815260200182805461020590610919565b80156102525780601f1061022757610100808354040283529160200191610252565b820191906000526020600020905b81548152906001019060200180831161023557829003601f168201915b50505050509080600201805461026790610919565b80601f016020809104026020016040519081016040528092919081815260200182805461029390610919565b80156102e05780601f106102b5576101008083540402835291602001916102e0565b820191906000526020600020905b8154815290600101906020018083116102c357829003601f168201915b5050505050908060030154908060040180546102fb90610919565b80601f016020809104026020016040519081016040528092919081815260200182805461032790610919565b80156103745780601f1061034957610100808354040283529160200191610374565b820191906000526020600020905b81548152906001019060200180831161035757829003601f168201915b5050505050905085565b60056020528060005260406000206000915090508060000154908060010180546103a790610919565b80601f01602080910402602001604051908101604052809291908181526020018280546103d390610919565b80156104205780601f106103f557610100808354040283529160200191610420565b820191906000526020600020905b81548152906001019060200180831161040357829003601f168201915b50505050509080600201805461043590610919565b80601f016020809104026020016040519081016040528092919081815260200182805461046190610919565b80156104ae5780601f10610483576101008083540402835291602001916104ae565b820191906000526020600020905b81548152906001019060200180831161049157829003601f168201915b5050505050908060030154908060040180546104c990610919565b80601f01602080910402602001604051908101604052809291908181526020018280546104f590610919565b80156105425780601f1061051757610100808354040283529160200191610542565b820191906000526020600020905b81548152906001019060200180831161052557829003601f168201915b5050505050905085565b806000800160008282546105609190610782565b9250508190555050565b8060008001600082825461057e9190610816565b9250508190555050565b82805461059490610919565b90600052602060002090601f0160209004810192826105b65760008555610604565b82601f106105c75780548555610604565b8280016001018555821561060457600052602060002091601f016020900482015b828111156106035782548255916001019190600101906105e8565b5b5090506106119190610615565b5090565b5b8082111561062e576000816000905550600101610616565b5090565b600081359050610641816109bf565b92915050565b600081359050610656816109d6565b92915050565b600060208284031215610672576106716109a9565b5b600061068084828501610632565b91505092915050565b60006020828403121561069f5761069e6109a9565b5b60006106ad84828501610647565b91505092915050565b6106bf816108bc565b82525050565b60006106d082610766565b6106da8185610771565b93506106ea8185602086016108e6565b6106f3816109ae565b840191505092915050565b600060a08201905061071360008301886106b6565b818103602083015261072581876106c5565b9050818103604083015261073981866106c5565b905061074860608301856106b6565b818103608083015261075a81846106c5565b90509695505050505050565b600081519050919050565b600082825260208201905092915050565b600061078d826108bc565b9150610798836108bc565b9250817f7fffffffffffffffffffffffffffffffffffffffffffffffffffffffffffffff038313600083121516156107d3576107d261094b565b5b817f800000000000000000000000000000000000000000000000000000000000000003831260008312161561080b5761080a61094b565b5b828201905092915050565b6000610821826108bc565b915061082c836108bc565b9250827f8000000000000000000000000000000000000000000000000000000000000000018212600084121516156108675761086661094b565b5b827f7fffffffffffffffffffffffffffffffffffffffffffffffffffffffffffffff01821360008412161561089f5761089e61094b565b5b828203905092915050565b60006108b5826108c6565b9050919050565b6000819050919050565b600073ffffffffffffffffffffffffffffffffffffffff82169050919050565b60005b838110156109045780820151818401526020810190506108e9565b83811115610913576000848401525b50505050565b6000600282049050600182168061093157607f821691505b602082108114156109455761094461097a565b5b50919050565b7f4e487b7100000000000000000000000000000000000000000000000000000000600052601160045260246000fd5b7f4e487b7100000000000000000000000000000000000000000000000000000000600052602260045260246000fd5b600080fd5b6000601f19601f8301169050919050565b6109c8816108aa565b81146109d357600080fd5b50565b6109df816108bc565b81146109ea57600080fd5b5056fea2646970667358221220927466d640942235477c0b4d9c04fe0503e0276da1f27a3605e274b30160008f64736f6c63430008070033307835423338446136613730316335363835343564436663423033466342383735663536626564644334",
					"opcodes": "PUSH1 0x80 PUSH1 0x40 MSTORE PUSH1 0x40 MLOAD DUP1 PUSH1 0xA0 ADD PUSH1 0x40 MSTORE DUP1 PUSH1 0x0 DUP2 MSTORE PUSH1 0x20 ADD PUSH1 0x40 MLOAD DUP1 PUSH1 0x40 ADD PUSH1 0x40 MSTORE DUP1 PUSH1 0x3 DUP2 MSTORE PUSH1 0x20 ADD PUSH32 0x4976790000000000000000000000000000000000000000000000000000000000 DUP2 MSTORE POP DUP2 MSTORE PUSH1 0x20 ADD PUSH1 0x40 MLOAD DUP1 PUSH1 0x60 ADD PUSH1 0x40 MSTORE DUP1 PUSH1 0x2A DUP2 MSTORE PUSH1 0x20 ADD PUSH3 0xC80 PUSH1 0x2A SWAP2 CODECOPY DUP2 MSTORE PUSH1 0x20 ADD PUSH1 0x19 DUP2 MSTORE PUSH1 0x20 ADD PUSH1 0x40 MLOAD DUP1 PUSH1 0x40 ADD PUSH1 0x40 MSTORE DUP1 PUSH1 0x7 DUP2 MSTORE PUSH1 0x20 ADD PUSH32 0x5075727075726100000000000000000000000000000000000000000000000000 DUP2 MSTORE POP DUP2 MSTORE POP PUSH1 0x0 DUP1 DUP3 ADD MLOAD DUP2 PUSH1 0x0 ADD SSTORE PUSH1 0x20 DUP3 ADD MLOAD DUP2 PUSH1 0x1 ADD SWAP1 DUP1 MLOAD SWAP1 PUSH1 0x20 ADD SWAP1 PUSH3 0xD9 SWAP3 SWAP2 SWAP1 PUSH3 0x138 JUMP JUMPDEST POP PUSH1 0x40 DUP3 ADD MLOAD DUP2 PUSH1 0x2 ADD SWAP1 DUP1 MLOAD SWAP1 PUSH1 0x20 ADD SWAP1 PUSH3 0xF8 SWAP3 SWAP2 SWAP1 PUSH3 0x138 JUMP JUMPDEST POP PUSH1 0x60 DUP3 ADD MLOAD DUP2 PUSH1 0x3 ADD SSTORE PUSH1 0x80 DUP3 ADD MLOAD DUP2 PUSH1 0x4 ADD SWAP1 DUP1 MLOAD SWAP1 PUSH1 0x20 ADD SWAP1 PUSH3 0x121 SWAP3 SWAP2 SWAP1 PUSH3 0x138 JUMP JUMPDEST POP POP POP CALLVALUE DUP1 ISZERO PUSH3 0x131 JUMPI PUSH1 0x0 DUP1 REVERT JUMPDEST POP PUSH3 0x24D JUMP JUMPDEST DUP3 DUP1 SLOAD PUSH3 0x146 SWAP1 PUSH3 0x1E8 JUMP JUMPDEST SWAP1 PUSH1 0x0 MSTORE PUSH1 0x20 PUSH1 0x0 KECCAK256 SWAP1 PUSH1 0x1F ADD PUSH1 0x20 SWAP1 DIV DUP2 ADD SWAP3 DUP3 PUSH3 0x16A JUMPI PUSH1 0x0 DUP6 SSTORE PUSH3 0x1B6 JUMP JUMPDEST DUP3 PUSH1 0x1F LT PUSH3 0x185 JUMPI DUP1 MLOAD PUSH1 0xFF NOT AND DUP4 DUP1 ADD OR DUP6 SSTORE PUSH3 0x1B6 JUMP JUMPDEST DUP3 DUP1 ADD PUSH1 0x1 ADD DUP6 SSTORE DUP3 ISZERO PUSH3 0x1B6 JUMPI SWAP2 DUP3 ADD JUMPDEST DUP3 DUP2 GT ISZERO PUSH3 0x1B5 JUMPI DUP3 MLOAD DUP3 SSTORE SWAP2 PUSH1 0x20 ADD SWAP2 SWAP1 PUSH1 0x1 ADD SWAP1 PUSH3 0x198 JUMP JUMPDEST JUMPDEST POP SWAP1 POP PUSH3 0x1C5 SWAP2 SWAP1 PUSH3 0x1C9 JUMP JUMPDEST POP SWAP1 JUMP JUMPDEST JUMPDEST DUP1 DUP3 GT ISZERO PUSH3 0x1E4 JUMPI PUSH1 0x0 DUP2 PUSH1 0x0 SWAP1 SSTORE POP PUSH1 0x1 ADD PUSH3 0x1CA JUMP JUMPDEST POP SWAP1 JUMP JUMPDEST PUSH1 0x0 PUSH1 0x2 DUP3 DIV SWAP1 POP PUSH1 0x1 DUP3 AND DUP1 PUSH3 0x201 JUMPI PUSH1 0x7F DUP3 AND SWAP2 POP JUMPDEST PUSH1 0x20 DUP3 LT DUP2 EQ ISZERO PUSH3 0x218 JUMPI PUSH3 0x217 PUSH3 0x21E JUMP JUMPDEST JUMPDEST POP SWAP2 SWAP1 POP JUMP JUMPDEST PUSH32 0x4E487B7100000000000000000000000000000000000000000000000000000000 PUSH1 0x0 MSTORE PUSH1 0x22 PUSH1 0x4 MSTORE PUSH1 0x24 PUSH1 0x0 REVERT JUMPDEST PUSH2 0xA23 DUP1 PUSH3 0x25D PUSH1 0x0 CODECOPY PUSH1 0x0 RETURN INVALID PUSH1 0x80 PUSH1 0x40 MSTORE CALLVALUE DUP1 ISZERO PUSH2 0x10 JUMPI PUSH1 0x0 DUP1 REVERT JUMPDEST POP PUSH1 0x4 CALLDATASIZE LT PUSH2 0x57 JUMPI PUSH1 0x0 CALLDATALOAD PUSH1 0xE0 SHR DUP1 PUSH4 0x3325526C EQ PUSH2 0x5C JUMPI DUP1 PUSH4 0x5F57697C EQ PUSH2 0x66 JUMPI DUP1 PUSH4 0x63E4CDCC EQ PUSH2 0x88 JUMPI DUP1 PUSH4 0x93BA1E60 EQ PUSH2 0xBC JUMPI DUP1 PUSH4 0xC28A41EC EQ PUSH2 0xD8 JUMPI JUMPDEST PUSH1 0x0 DUP1 REVERT JUMPDEST PUSH2 0x64 PUSH2 0xF4 JUMP JUMPDEST STOP JUMPDEST PUSH2 0x6E PUSH2 0x1C2 JUMP JUMPDEST PUSH1 0x40 MLOAD PUSH2 0x7F SWAP6 SWAP5 SWAP4 SWAP3 SWAP2 SWAP1 PUSH2 0x6FE JUMP JUMPDEST PUSH1 0x40 MLOAD DUP1 SWAP2 SUB SWAP1 RETURN JUMPDEST PUSH2 0xA2 PUSH1 0x4 DUP1 CALLDATASIZE SUB DUP2 ADD SWAP1 PUSH2 0x9D SWAP2 SWAP1 PUSH2 0x65C JUMP JUMPDEST PUSH2 0x37E JUMP JUMPDEST PUSH1 0x40 MLOAD PUSH2 0xB3 SWAP6 SWAP5 SWAP4 SWAP3 SWAP2 SWAP1 PUSH2 0x6FE JUMP JUMPDEST PUSH1 0x40 MLOAD DUP1 SWAP2 SUB SWAP1 RETURN JUMPDEST PUSH2 0xD6 PUSH1 0x4 DUP1 CALLDATASIZE SUB DUP2 ADD SWAP1 PUSH2 0xD1 SWAP2 SWAP1 PUSH2 0x689 JUMP JUMPDEST PUSH2 0x54C JUMP JUMPDEST STOP JUMPDEST PUSH2 0xF2 PUSH1 0x4 DUP1 CALLDATASIZE SUB DUP2 ADD SWAP1 PUSH2 0xED SWAP2 SWAP1 PUSH2 0x689 JUMP JUMPDEST PUSH2 0x56A JUMP JUMPDEST STOP JUMPDEST PUSH1 0x0 PUSH1 0x5 PUSH1 0x0 PUSH20 0xAB8483F64D9C6D1ECF9B849AE677DD3315835CB2 PUSH20 0xFFFFFFFFFFFFFFFFFFFFFFFFFFFFFFFFFFFFFFFF AND PUSH20 0xFFFFFFFFFFFFFFFFFFFFFFFFFFFFFFFFFFFFFFFF AND DUP2 MSTORE PUSH1 0x20 ADD SWAP1 DUP2 MSTORE PUSH1 0x20 ADD PUSH1 0x0 KECCAK256 PUSH1 0x0 DUP3 ADD SLOAD DUP2 PUSH1 0x0 ADD SSTORE PUSH1 0x1 DUP3 ADD DUP2 PUSH1 0x1 ADD SWAP1 DUP1 SLOAD PUSH2 0x167 SWAP1 PUSH2 0x919 JUMP JUMPDEST PUSH2 0x172 SWAP3 SWAP2 SWAP1 PUSH2 0x588 JUMP JUMPDEST POP PUSH1 0x2 DUP3 ADD DUP2 PUSH1 0x2 ADD SWAP1 DUP1 SLOAD PUSH2 0x187 SWAP1 PUSH2 0x919 JUMP JUMPDEST PUSH2 0x192 SWAP3 SWAP2 SWAP1 PUSH2 0x588 JUMP JUMPDEST POP PUSH1 0x3 DUP3 ADD SLOAD DUP2 PUSH1 0x3 ADD SSTORE PUSH1 0x4 DUP3 ADD DUP2 PUSH1 0x4 ADD SWAP1 DUP1 SLOAD PUSH2 0x1B1 SWAP1 PUSH2 0x919 JUMP JUMPDEST PUSH2 0x1BC SWAP3 SWAP2 SWAP1 PUSH2 0x588 JUMP JUMPDEST POP SWAP1 POP POP JUMP JUMPDEST PUSH1 0x0 DUP1 PUSH1 0x0 ADD SLOAD SWAP1 DUP1 PUSH1 0x1 ADD DUP1 SLOAD PUSH2 0x1D9 SWAP1 PUSH2 0x919 JUMP JUMPDEST DUP1 PUSH1 0x1F ADD PUSH1 0x20 DUP1 SWAP2 DIV MUL PUSH1 0x20 ADD PUSH1 0x40 MLOAD SWAP1 DUP2 ADD PUSH1 0x40 MSTORE DUP1 SWAP3 SWAP2 SWAP1 DUP2 DUP2 MSTORE PUSH1 0x20 ADD DUP3 DUP1 SLOAD PUSH2 0x205 SWAP1 PUSH2 0x919 JUMP JUMPDEST DUP1 ISZERO PUSH2 0x252 JUMPI DUP1 PUSH1 0x1F LT PUSH2 0x227 JUMPI PUSH2 0x100 DUP1 DUP4 SLOAD DIV MUL DUP4 MSTORE SWAP2 PUSH1 0x20 ADD SWAP2 PUSH2 0x252 JUMP JUMPDEST DUP3 ADD SWAP2 SWAP1 PUSH1 0x0 MSTORE PUSH1 0x20 PUSH1 0x0 KECCAK256 SWAP1 JUMPDEST DUP2 SLOAD DUP2 MSTORE SWAP1 PUSH1 0x1 ADD SWAP1 PUSH1 0x20 ADD DUP1 DUP4 GT PUSH2 0x235 JUMPI DUP3 SWAP1 SUB PUSH1 0x1F AND DUP3 ADD SWAP2 JUMPDEST POP POP POP POP POP SWAP1 DUP1 PUSH1 0x2 ADD DUP1 SLOAD PUSH2 0x267 SWAP1 PUSH2 0x919 JUMP JUMPDEST DUP1 PUSH1 0x1F ADD PUSH1 0x20 DUP1 SWAP2 DIV MUL PUSH1 0x20 ADD PUSH1 0x40 MLOAD SWAP1 DUP2 ADD PUSH1 0x40 MSTORE DUP1 SWAP3 SWAP2 SWAP1 DUP2 DUP2 MSTORE PUSH1 0x20 ADD DUP3 DUP1 SLOAD PUSH2 0x293 SWAP1 PUSH2 0x919 JUMP JUMPDEST DUP1 ISZERO PUSH2 0x2E0 JUMPI DUP1 PUSH1 0x1F LT PUSH2 0x2B5 JUMPI PUSH2 0x100 DUP1 DUP4 SLOAD DIV MUL DUP4 MSTORE SWAP2 PUSH1 0x20 ADD SWAP2 PUSH2 0x2E0 JUMP JUMPDEST DUP3 ADD SWAP2 SWAP1 PUSH1 0x0 MSTORE PUSH1 0x20 PUSH1 0x0 KECCAK256 SWAP1 JUMPDEST DUP2 SLOAD DUP2 MSTORE SWAP1 PUSH1 0x1 ADD SWAP1 PUSH1 0x20 ADD DUP1 DUP4 GT PUSH2 0x2C3 JUMPI DUP3 SWAP1 SUB PUSH1 0x1F AND DUP3 ADD SWAP2 JUMPDEST POP POP POP POP POP SWAP1 DUP1 PUSH1 0x3 ADD SLOAD SWAP1 DUP1 PUSH1 0x4 ADD DUP1 SLOAD PUSH2 0x2FB SWAP1 PUSH2 0x919 JUMP JUMPDEST DUP1 PUSH1 0x1F ADD PUSH1 0x20 DUP1 SWAP2 DIV MUL PUSH1 0x20 ADD PUSH1 0x40 MLOAD SWAP1 DUP2 ADD PUSH1 0x40 MSTORE DUP1 SWAP3 SWAP2 SWAP1 DUP2 DUP2 MSTORE PUSH1 0x20 ADD DUP3 DUP1 SLOAD PUSH2 0x327 SWAP1 PUSH2 0x919 JUMP JUMPDEST DUP1 ISZERO PUSH2 0x374 JUMPI DUP1 PUSH1 0x1F LT PUSH2 0x349 JUMPI PUSH2 0x100 DUP1 DUP4 SLOAD DIV MUL DUP4 MSTORE SWAP2 PUSH1 0x20 ADD SWAP2 PUSH2 0x374 JUMP JUMPDEST DUP3 ADD SWAP2 SWAP1 PUSH1 0x0 MSTORE PUSH1 0x20 PUSH1 0x0 KECCAK256 SWAP1 JUMPDEST DUP2 SLOAD DUP2 MSTORE SWAP1 PUSH1 0x1 ADD SWAP1 PUSH1 0x20 ADD DUP1 DUP4 GT PUSH2 0x357 JUMPI DUP3 SWAP1 SUB PUSH1 0x1F AND DUP3 ADD SWAP2 JUMPDEST POP POP POP POP POP SWAP1 POP DUP6 JUMP JUMPDEST PUSH1 0x5 PUSH1 0x20 MSTORE DUP1 PUSH1 0x0 MSTORE PUSH1 0x40 PUSH1 0x0 KECCAK256 PUSH1 0x0 SWAP2 POP SWAP1 POP DUP1 PUSH1 0x0 ADD SLOAD SWAP1 DUP1 PUSH1 0x1 ADD DUP1 SLOAD PUSH2 0x3A7 SWAP1 PUSH2 0x919 JUMP JUMPDEST DUP1 PUSH1 0x1F ADD PUSH1 0x20 DUP1 SWAP2 DIV MUL PUSH1 0x20 ADD PUSH1 0x40 MLOAD SWAP1 DUP2 ADD PUSH1 0x40 MSTORE DUP1 SWAP3 SWAP2 SWAP1 DUP2 DUP2 MSTORE PUSH1 0x20 ADD DUP3 DUP1 SLOAD PUSH2 0x3D3 SWAP1 PUSH2 0x919 JUMP JUMPDEST DUP1 ISZERO PUSH2 0x420 JUMPI DUP1 PUSH1 0x1F LT PUSH2 0x3F5 JUMPI PUSH2 0x100 DUP1 DUP4 SLOAD DIV MUL DUP4 MSTORE SWAP2 PUSH1 0x20 ADD SWAP2 PUSH2 0x420 JUMP JUMPDEST DUP3 ADD SWAP2 SWAP1 PUSH1 0x0 MSTORE PUSH1 0x20 PUSH1 0x0 KECCAK256 SWAP1 JUMPDEST DUP2 SLOAD DUP2 MSTORE SWAP1 PUSH1 0x1 ADD SWAP1 PUSH1 0x20 ADD DUP1 DUP4 GT PUSH2 0x403 JUMPI DUP3 SWAP1 SUB PUSH1 0x1F AND DUP3 ADD SWAP2 JUMPDEST POP POP POP POP POP SWAP1 DUP1 PUSH1 0x2 ADD DUP1 SLOAD PUSH2 0x435 SWAP1 PUSH2 0x919 JUMP JUMPDEST DUP1 PUSH1 0x1F ADD PUSH1 0x20 DUP1 SWAP2 DIV MUL PUSH1 0x20 ADD PUSH1 0x40 MLOAD SWAP1 DUP2 ADD PUSH1 0x40 MSTORE DUP1 SWAP3 SWAP2 SWAP1 DUP2 DUP2 MSTORE PUSH1 0x20 ADD DUP3 DUP1 SLOAD PUSH2 0x461 SWAP1 PUSH2 0x919 JUMP JUMPDEST DUP1 ISZERO PUSH2 0x4AE JUMPI DUP1 PUSH1 0x1F LT PUSH2 0x483 JUMPI PUSH2 0x100 DUP1 DUP4 SLOAD DIV MUL DUP4 MSTORE SWAP2 PUSH1 0x20 ADD SWAP2 PUSH2 0x4AE JUMP JUMPDEST DUP3 ADD SWAP2 SWAP1 PUSH1 0x0 MSTORE PUSH1 0x20 PUSH1 0x0 KECCAK256 SWAP1 JUMPDEST DUP2 SLOAD DUP2 MSTORE SWAP1 PUSH1 0x1 ADD SWAP1 PUSH1 0x20 ADD DUP1 DUP4 GT PUSH2 0x491 JUMPI DUP3 SWAP1 SUB PUSH1 0x1F AND DUP3 ADD SWAP2 JUMPDEST POP POP POP POP POP SWAP1 DUP1 PUSH1 0x3 ADD SLOAD SWAP1 DUP1 PUSH1 0x4 ADD DUP1 SLOAD PUSH2 0x4C9 SWAP1 PUSH2 0x919 JUMP JUMPDEST DUP1 PUSH1 0x1F ADD PUSH1 0x20 DUP1 SWAP2 DIV MUL PUSH1 0x20 ADD PUSH1 0x40 MLOAD SWAP1 DUP2 ADD PUSH1 0x40 MSTORE DUP1 SWAP3 SWAP2 SWAP1 DUP2 DUP2 MSTORE PUSH1 0x20 ADD DUP3 DUP1 SLOAD PUSH2 0x4F5 SWAP1 PUSH2 0x919 JUMP JUMPDEST DUP1 ISZERO PUSH2 0x542 JUMPI DUP1 PUSH1 0x1F LT PUSH2 0x517 JUMPI PUSH2 0x100 DUP1 DUP4 SLOAD DIV MUL DUP4 MSTORE SWAP2 PUSH1 0x20 ADD SWAP2 PUSH2 0x542 JUMP JUMPDEST DUP3 ADD SWAP2 SWAP1 PUSH1 0x0 MSTORE PUSH1 0x20 PUSH1 0x0 KECCAK256 SWAP1 JUMPDEST DUP2 SLOAD DUP2 MSTORE SWAP1 PUSH1 0x1 ADD SWAP1 PUSH1 0x20 ADD DUP1 DUP4 GT PUSH2 0x525 JUMPI DUP3 SWAP1 SUB PUSH1 0x1F AND DUP3 ADD SWAP2 JUMPDEST POP POP POP POP POP SWAP1 POP DUP6 JUMP JUMPDEST DUP1 PUSH1 0x0 DUP1 ADD PUSH1 0x0 DUP3 DUP3 SLOAD PUSH2 0x560 SWAP2 SWAP1 PUSH2 0x782 JUMP JUMPDEST SWAP3 POP POP DUP2 SWAP1 SSTORE POP POP JUMP JUMPDEST DUP1 PUSH1 0x0 DUP1 ADD PUSH1 0x0 DUP3 DUP3 SLOAD PUSH2 0x57E SWAP2 SWAP1 PUSH2 0x816 JUMP JUMPDEST SWAP3 POP POP DUP2 SWAP1 SSTORE POP POP JUMP JUMPDEST DUP3 DUP1 SLOAD PUSH2 0x594 SWAP1 PUSH2 0x919 JUMP JUMPDEST SWAP1 PUSH1 0x0 MSTORE PUSH1 0x20 PUSH1 0x0 KECCAK256 SWAP1 PUSH1 0x1F ADD PUSH1 0x20 SWAP1 DIV DUP2 ADD SWAP3 DUP3 PUSH2 0x5B6 JUMPI PUSH1 0x0 DUP6 SSTORE PUSH2 0x604 JUMP JUMPDEST DUP3 PUSH1 0x1F LT PUSH2 0x5C7 JUMPI DUP1 SLOAD DUP6 SSTORE PUSH2 0x604 JUMP JUMPDEST DUP3 DUP1 ADD PUSH1 0x1 ADD DUP6 SSTORE DUP3 ISZERO PUSH2 0x604 JUMPI PUSH1 0x0 MSTORE PUSH1 0x20 PUSH1 0x0 KECCAK256 SWAP2 PUSH1 0x1F ADD PUSH1 0x20 SWAP1 DIV DUP3 ADD JUMPDEST DUP3 DUP2 GT ISZERO PUSH2 0x603 JUMPI DUP3 SLOAD DUP3 SSTORE SWAP2 PUSH1 0x1 ADD SWAP2 SWAP1 PUSH1 0x1 ADD SWAP1 PUSH2 0x5E8 JUMP JUMPDEST JUMPDEST POP SWAP1 POP PUSH2 0x611 SWAP2 SWAP1 PUSH2 0x615 JUMP JUMPDEST POP SWAP1 JUMP JUMPDEST JUMPDEST DUP1 DUP3 GT ISZERO PUSH2 0x62E JUMPI PUSH1 0x0 DUP2 PUSH1 0x0 SWAP1 SSTORE POP PUSH1 0x1 ADD PUSH2 0x616 JUMP JUMPDEST POP SWAP1 JUMP JUMPDEST PUSH1 0x0 DUP2 CALLDATALOAD SWAP1 POP PUSH2 0x641 DUP2 PUSH2 0x9BF JUMP JUMPDEST SWAP3 SWAP2 POP POP JUMP JUMPDEST PUSH1 0x0 DUP2 CALLDATALOAD SWAP1 POP PUSH2 0x656 DUP2 PUSH2 0x9D6 JUMP JUMPDEST SWAP3 SWAP2 POP POP JUMP JUMPDEST PUSH1 0x0 PUSH1 0x20 DUP3 DUP5 SUB SLT ISZERO PUSH2 0x672 JUMPI PUSH2 0x671 PUSH2 0x9A9 JUMP JUMPDEST JUMPDEST PUSH1 0x0 PUSH2 0x680 DUP5 DUP3 DUP6 ADD PUSH2 0x632 JUMP JUMPDEST SWAP2 POP POP SWAP3 SWAP2 POP POP JUMP JUMPDEST PUSH1 0x0 PUSH1 0x20 DUP3 DUP5 SUB SLT ISZERO PUSH2 0x69F JUMPI PUSH2 0x69E PUSH2 0x9A9 JUMP JUMPDEST JUMPDEST PUSH1 0x0 PUSH2 0x6AD DUP5 DUP3 DUP6 ADD PUSH2 0x647 JUMP JUMPDEST SWAP2 POP POP SWAP3 SWAP2 POP POP JUMP JUMPDEST PUSH2 0x6BF DUP2 PUSH2 0x8BC JUMP JUMPDEST DUP3 MSTORE POP POP JUMP JUMPDEST PUSH1 0x0 PUSH2 0x6D0 DUP3 PUSH2 0x766 JUMP JUMPDEST PUSH2 0x6DA DUP2 DUP6 PUSH2 0x771 JUMP JUMPDEST SWAP4 POP PUSH2 0x6EA DUP2 DUP6 PUSH1 0x20 DUP7 ADD PUSH2 0x8E6 JUMP JUMPDEST PUSH2 0x6F3 DUP2 PUSH2 0x9AE JUMP JUMPDEST DUP5 ADD SWAP2 POP POP SWAP3 SWAP2 POP POP JUMP JUMPDEST PUSH1 0x0 PUSH1 0xA0 DUP3 ADD SWAP1 POP PUSH2 0x713 PUSH1 0x0 DUP4 ADD DUP9 PUSH2 0x6B6 JUMP JUMPDEST DUP2 DUP2 SUB PUSH1 0x20 DUP4 ADD MSTORE PUSH2 0x725 DUP2 DUP8 PUSH2 0x6C5 JUMP JUMPDEST SWAP1 POP DUP2 DUP2 SUB PUSH1 0x40 DUP4 ADD MSTORE PUSH2 0x739 DUP2 DUP7 PUSH2 0x6C5 JUMP JUMPDEST SWAP1 POP PUSH2 0x748 PUSH1 0x60 DUP4 ADD DUP6 PUSH2 0x6B6 JUMP JUMPDEST DUP2 DUP2 SUB PUSH1 0x80 DUP4 ADD MSTORE PUSH2 0x75A DUP2 DUP5 PUSH2 0x6C5 JUMP JUMPDEST SWAP1 POP SWAP7 SWAP6 POP POP POP POP POP POP JUMP JUMPDEST PUSH1 0x0 DUP2 MLOAD SWAP1 POP SWAP2 SWAP1 POP JUMP JUMPDEST PUSH1 0x0 DUP3 DUP3 MSTORE PUSH1 0x20 DUP3 ADD SWAP1 POP SWAP3 SWAP2 POP POP JUMP JUMPDEST PUSH1 0x0 PUSH2 0x78D DUP3 PUSH2 0x8BC JUMP JUMPDEST SWAP2 POP PUSH2 0x798 DUP4 PUSH2 0x8BC JUMP JUMPDEST SWAP3 POP DUP2 PUSH32 0x7FFFFFFFFFFFFFFFFFFFFFFFFFFFFFFFFFFFFFFFFFFFFFFFFFFFFFFFFFFFFFFF SUB DUP4 SGT PUSH1 0x0 DUP4 SLT ISZERO AND ISZERO PUSH2 0x7D3 JUMPI PUSH2 0x7D2 PUSH2 0x94B JUMP JUMPDEST JUMPDEST DUP2 PUSH32 0x8000000000000000000000000000000000000000000000000000000000000000 SUB DUP4 SLT PUSH1 0x0 DUP4 SLT AND ISZERO PUSH2 0x80B JUMPI PUSH2 0x80A PUSH2 0x94B JUMP JUMPDEST JUMPDEST DUP3 DUP3 ADD SWAP1 POP SWAP3 SWAP2 POP POP JUMP JUMPDEST PUSH1 0x0 PUSH2 0x821 DUP3 PUSH2 0x8BC JUMP JUMPDEST SWAP2 POP PUSH2 0x82C DUP4 PUSH2 0x8BC JUMP JUMPDEST SWAP3 POP DUP3 PUSH32 0x8000000000000000000000000000000000000000000000000000000000000000 ADD DUP3 SLT PUSH1 0x0 DUP5 SLT ISZERO AND ISZERO PUSH2 0x867 JUMPI PUSH2 0x866 PUSH2 0x94B JUMP JUMPDEST JUMPDEST DUP3 PUSH32 0x7FFFFFFFFFFFFFFFFFFFFFFFFFFFFFFFFFFFFFFFFFFFFFFFFFFFFFFFFFFFFFFF ADD DUP3 SGT PUSH1 0x0 DUP5 SLT AND ISZERO PUSH2 0x89F JUMPI PUSH2 0x89E PUSH2 0x94B JUMP JUMPDEST JUMPDEST DUP3 DUP3 SUB SWAP1 POP SWAP3 SWAP2 POP POP JUMP JUMPDEST PUSH1 0x0 PUSH2 0x8B5 DUP3 PUSH2 0x8C6 JUMP JUMPDEST SWAP1 POP SWAP2 SWAP1 POP JUMP JUMPDEST PUSH1 0x0 DUP2 SWAP1 POP SWAP2 SWAP1 POP JUMP JUMPDEST PUSH1 0x0 PUSH20 0xFFFFFFFFFFFFFFFFFFFFFFFFFFFFFFFFFFFFFFFF DUP3 AND SWAP1 POP SWAP2 SWAP1 POP JUMP JUMPDEST PUSH1 0x0 JUMPDEST DUP4 DUP2 LT ISZERO PUSH2 0x904 JUMPI DUP1 DUP3 ADD MLOAD DUP2 DUP5 ADD MSTORE PUSH1 0x20 DUP2 ADD SWAP1 POP PUSH2 0x8E9 JUMP JUMPDEST DUP4 DUP2 GT ISZERO PUSH2 0x913 JUMPI PUSH1 0x0 DUP5 DUP5 ADD MSTORE JUMPDEST POP POP POP POP JUMP JUMPDEST PUSH1 0x0 PUSH1 0x2 DUP3 DIV SWAP1 POP PUSH1 0x1 DUP3 AND DUP1 PUSH2 0x931 JUMPI PUSH1 0x7F DUP3 AND SWAP2 POP JUMPDEST PUSH1 0x20 DUP3 LT DUP2 EQ ISZERO PUSH2 0x945 JUMPI PUSH2 0x944 PUSH2 0x97A JUMP JUMPDEST JUMPDEST POP SWAP2 SWAP1 POP JUMP JUMPDEST PUSH32 0x4E487B7100000000000000000000000000000000000000000000000000000000 PUSH1 0x0 MSTORE PUSH1 0x11 PUSH1 0x4 MSTORE PUSH1 0x24 PUSH1 0x0 REVERT JUMPDEST PUSH32 0x4E487B7100000000000000000000000000000000000000000000000000000000 PUSH1 0x0 MSTORE PUSH1 0x22 PUSH1 0x4 MSTORE PUSH1 0x24 PUSH1 0x0 REVERT JUMPDEST PUSH1 0x0 DUP1 REVERT JUMPDEST PUSH1 0x0 PUSH1 0x1F NOT PUSH1 0x1F DUP4 ADD AND SWAP1 POP SWAP2 SWAP1 POP JUMP JUMPDEST PUSH2 0x9C8 DUP2 PUSH2 0x8AA JUMP JUMPDEST DUP2 EQ PUSH2 0x9D3 JUMPI PUSH1 0x0 DUP1 REVERT JUMPDEST POP JUMP JUMPDEST PUSH2 0x9DF DUP2 PUSH2 0x8BC JUMP JUMPDEST DUP2 EQ PUSH2 0x9EA JUMPI PUSH1 0x0 DUP1 REVERT JUMPDEST POP JUMP INVALID LOG2 PUSH5 0x6970667358 0x22 SLT KECCAK256 SWAP3 PUSH21 0x66D640942235477C0B4D9C04FE0503E0276DA1F27A CALLDATASIZE SDIV 0xE2 PUSH21 0xB30160008F64736F6C634300080700333078354233 CODESIZE DIFFICULTY PUSH2 0x3661 CALLDATACOPY ADDRESS BALANCE PUSH4 0x35363835 CALLVALUE CALLDATALOAD PUSH5 0x4366634230 CALLER CHAINID PUSH4 0x42383735 PUSH7 0x35366265646443 CALLVALUE "
				},
				"gasEstimates": {
					"creation": {
						"codeDepositCost": "519000",
						"executionCost": "infinite",
						"totalCost": "infinite"
					},
					"external": {
						"addCliente()": "infinite",
						"c1()": "infinite",
						"ingresarSaldo(int256)": "infinite",
						"mappingCuentaAhorro(address)": "infinite",
						"retirarSaldo(int256)": "infinite"
					}
				},
				"methodIdentifiers": {
					"addCliente()": "3325526c",
					"c1()": "5f57697c",
					"ingresarSaldo(int256)": "93ba1e60",
					"mappingCuentaAhorro(address)": "63e4cdcc",
					"retirarSaldo(int256)": "c28a41ec"
				}
			},
			"storageLayout": {
				"storage": [
					{
						"astId": 22,
						"contract": "contracts/Ejercicio1CuentaAhorro.sol:Ejercicio1CuentaAhorro",
						"label": "c1",
						"offset": 0,
						"slot": "0",
						"type": "t_struct(CuentaAhorro)12_storage"
					},
					{
						"astId": 27,
						"contract": "contracts/Ejercicio1CuentaAhorro.sol:Ejercicio1CuentaAhorro",
						"label": "mappingCuentaAhorro",
						"offset": 0,
						"slot": "5",
						"type": "t_mapping(t_address,t_struct(CuentaAhorro)12_storage)"
					}
				],
				"types": {
					"t_address": {
						"encoding": "inplace",
						"label": "address",
						"numberOfBytes": "20"
					},
					"t_int256": {
						"encoding": "inplace",
						"label": "int256",
						"numberOfBytes": "32"
					},
					"t_mapping(t_address,t_struct(CuentaAhorro)12_storage)": {
						"encoding": "mapping",
						"key": "t_address",
						"label": "mapping(address => struct Ejercicio1CuentaAhorro.CuentaAhorro)",
						"numberOfBytes": "32",
						"value": "t_struct(CuentaAhorro)12_storage"
					},
					"t_string_storage": {
						"encoding": "bytes",
						"label": "string",
						"numberOfBytes": "32"
					},
					"t_struct(CuentaAhorro)12_storage": {
						"encoding": "inplace",
						"label": "struct Ejercicio1CuentaAhorro.CuentaAhorro",
						"members": [
							{
								"astId": 3,
								"contract": "contracts/Ejercicio1CuentaAhorro.sol:Ejercicio1CuentaAhorro",
								"label": "saldo",
								"offset": 0,
								"slot": "0",
								"type": "t_int256"
							},
							{
								"astId": 5,
								"contract": "contracts/Ejercicio1CuentaAhorro.sol:Ejercicio1CuentaAhorro",
								"label": "addressCuenta",
								"offset": 0,
								"slot": "1",
								"type": "t_string_storage"
							},
							{
								"astId": 7,
								"contract": "contracts/Ejercicio1CuentaAhorro.sol:Ejercicio1CuentaAhorro",
								"label": "nombre",
								"offset": 0,
								"slot": "2",
								"type": "t_string_storage"
							},
							{
								"astId": 9,
								"contract": "contracts/Ejercicio1CuentaAhorro.sol:Ejercicio1CuentaAhorro",
								"label": "edad",
								"offset": 0,
								"slot": "3",
								"type": "t_int256"
							},
							{
								"astId": 11,
								"contract": "contracts/Ejercicio1CuentaAhorro.sol:Ejercicio1CuentaAhorro",
								"label": "colorFavorito",
								"offset": 0,
								"slot": "4",
								"type": "t_string_storage"
							}
						],
						"numberOfBytes": "160"
					}
				}
			},
			"userdoc": {
				"kind": "user",
				"methods": {},
				"version": 1
			}
		}
	}
}