{
	"contracts/Ejercicio1CuentaAhorro.sol": {
		"Ejercicio1CuentaAhorro": {
			"abi": [
				{
					"inputs": [
						{
							"internalType": "uint256",
							"name": "saldoParaIngresar",
							"type": "uint256"
						}
					],
					"name": "ingresarSaldo",
					"outputs": [],
					"stateMutability": "nonpayable",
					"type": "function"
				}
			],
			"devdoc": {
				"kind": "dev",
				"methods": {},
				"version": 1
			},
			"evm": {
				"assembly": "    /* \"contracts/Ejercicio1CuentaAhorro.sol\":410:554  contract Ejercicio1CuentaAhorro {\r... */\n  mstore(0x40, 0x80)\n  callvalue\n  dup1\n  iszero\n  tag_1\n  jumpi\n  0x00\n  dup1\n  revert\ntag_1:\n  pop\n  dataSize(sub_0)\n  dup1\n  dataOffset(sub_0)\n  0x00\n  codecopy\n  0x00\n  return\nstop\n\nsub_0: assembly {\n        /* \"contracts/Ejercicio1CuentaAhorro.sol\":410:554  contract Ejercicio1CuentaAhorro {\r... */\n      mstore(0x40, 0x80)\n      callvalue\n      dup1\n      iszero\n      tag_1\n      jumpi\n      0x00\n      dup1\n      revert\n    tag_1:\n      pop\n      jumpi(tag_2, lt(calldatasize, 0x04))\n      shr(0xe0, calldataload(0x00))\n      dup1\n      0x41e85187\n      eq\n      tag_3\n      jumpi\n    tag_2:\n      0x00\n      dup1\n      revert\n        /* \"contracts/Ejercicio1CuentaAhorro.sol\":467:551  function ingresarSaldo (uint saldoParaIngresar) public {\r... */\n    tag_3:\n      tag_4\n      0x04\n      dup1\n      calldatasize\n      sub\n      dup2\n      add\n      swap1\n      tag_5\n      swap2\n      swap1\n      tag_6\n      jump\t// in\n    tag_5:\n      tag_7\n      jump\t// in\n    tag_4:\n      stop\n    tag_7:\n        /* \"contracts/Ejercicio1CuentaAhorro.sol\":542:543  1 */\n      0x01\n        /* \"contracts/Ejercicio1CuentaAhorro.sol\":533:538  saldo */\n      0x00\n      dup1\n        /* \"contracts/Ejercicio1CuentaAhorro.sol\":533:543  saldo += 1 */\n      dup3\n      dup3\n      sload\n      tag_9\n      swap2\n      swap1\n      tag_10\n      jump\t// in\n    tag_9:\n      swap3\n      pop\n      pop\n      dup2\n      swap1\n      sstore\n      pop\n        /* \"contracts/Ejercicio1CuentaAhorro.sol\":467:551  function ingresarSaldo (uint saldoParaIngresar) public {\r... */\n      pop\n      jump\t// out\n        /* \"#utility.yul\":7:146   */\n    tag_12:\n        /* \"#utility.yul\":53:58   */\n      0x00\n        /* \"#utility.yul\":91:97   */\n      dup2\n        /* \"#utility.yul\":78:98   */\n      calldataload\n        /* \"#utility.yul\":69:98   */\n      swap1\n      pop\n        /* \"#utility.yul\":107:140   */\n      tag_14\n        /* \"#utility.yul\":134:139   */\n      dup2\n        /* \"#utility.yul\":107:140   */\n      tag_15\n      jump\t// in\n    tag_14:\n        /* \"#utility.yul\":7:146   */\n      swap3\n      swap2\n      pop\n      pop\n      jump\t// out\n        /* \"#utility.yul\":152:481   */\n    tag_6:\n        /* \"#utility.yul\":211:217   */\n      0x00\n        /* \"#utility.yul\":260:262   */\n      0x20\n        /* \"#utility.yul\":248:257   */\n      dup3\n        /* \"#utility.yul\":239:246   */\n      dup5\n        /* \"#utility.yul\":235:258   */\n      sub\n        /* \"#utility.yul\":231:263   */\n      slt\n        /* \"#utility.yul\":228:347   */\n      iszero\n      tag_17\n      jumpi\n        /* \"#utility.yul\":266:345   */\n      tag_18\n      tag_19\n      jump\t// in\n    tag_18:\n        /* \"#utility.yul\":228:347   */\n    tag_17:\n        /* \"#utility.yul\":386:387   */\n      0x00\n        /* \"#utility.yul\":411:464   */\n      tag_20\n        /* \"#utility.yul\":456:463   */\n      dup5\n        /* \"#utility.yul\":447:453   */\n      dup3\n        /* \"#utility.yul\":436:445   */\n      dup6\n        /* \"#utility.yul\":432:454   */\n      add\n        /* \"#utility.yul\":411:464   */\n      tag_12\n      jump\t// in\n    tag_20:\n        /* \"#utility.yul\":401:464   */\n      swap2\n      pop\n        /* \"#utility.yul\":357:474   */\n      pop\n        /* \"#utility.yul\":152:481   */\n      swap3\n      swap2\n      pop\n      pop\n      jump\t// out\n        /* \"#utility.yul\":568:1093   */\n    tag_10:\n        /* \"#utility.yul\":607:610   */\n      0x00\n        /* \"#utility.yul\":626:645   */\n      tag_24\n        /* \"#utility.yul\":643:644   */\n      dup3\n        /* \"#utility.yul\":626:645   */\n      tag_25\n      jump\t// in\n    tag_24:\n        /* \"#utility.yul\":621:645   */\n      swap2\n      pop\n        /* \"#utility.yul\":659:678   */\n      tag_26\n        /* \"#utility.yul\":676:677   */\n      dup4\n        /* \"#utility.yul\":659:678   */\n      tag_25\n      jump\t// in\n    tag_26:\n        /* \"#utility.yul\":654:678   */\n      swap3\n      pop\n        /* \"#utility.yul\":847:848   */\n      dup2\n        /* \"#utility.yul\":779:845   */\n      0x7fffffffffffffffffffffffffffffffffffffffffffffffffffffffffffffff\n        /* \"#utility.yul\":775:849   */\n      sub\n        /* \"#utility.yul\":772:773   */\n      dup4\n        /* \"#utility.yul\":768:850   */\n      sgt\n        /* \"#utility.yul\":763:764   */\n      0x00\n        /* \"#utility.yul\":760:761   */\n      dup4\n        /* \"#utility.yul\":756:765   */\n      slt\n        /* \"#utility.yul\":749:766   */\n      iszero\n        /* \"#utility.yul\":745:851   */\n      and\n        /* \"#utility.yul\":742:874   */\n      iszero\n      tag_27\n      jumpi\n        /* \"#utility.yul\":854:872   */\n      tag_28\n      tag_29\n      jump\t// in\n    tag_28:\n        /* \"#utility.yul\":742:874   */\n    tag_27:\n        /* \"#utility.yul\":1034:1035   */\n      dup2\n        /* \"#utility.yul\":966:1032   */\n      0x8000000000000000000000000000000000000000000000000000000000000000\n        /* \"#utility.yul\":962:1036   */\n      sub\n        /* \"#utility.yul\":959:960   */\n      dup4\n        /* \"#utility.yul\":955:1037   */\n      slt\n        /* \"#utility.yul\":951:952   */\n      0x00\n        /* \"#utility.yul\":948:949   */\n      dup4\n        /* \"#utility.yul\":944:953   */\n      slt\n        /* \"#utility.yul\":940:1038   */\n      and\n        /* \"#utility.yul\":937:1061   */\n      iszero\n      tag_30\n      jumpi\n        /* \"#utility.yul\":1041:1059   */\n      tag_31\n      tag_29\n      jump\t// in\n    tag_31:\n        /* \"#utility.yul\":937:1061   */\n    tag_30:\n        /* \"#utility.yul\":1085:1086   */\n      dup3\n        /* \"#utility.yul\":1082:1083   */\n      dup3\n        /* \"#utility.yul\":1078:1087   */\n      add\n        /* \"#utility.yul\":1071:1087   */\n      swap1\n      pop\n        /* \"#utility.yul\":568:1093   */\n      swap3\n      swap2\n      pop\n      pop\n      jump\t// out\n        /* \"#utility.yul\":1099:1175   */\n    tag_25:\n        /* \"#utility.yul\":1135:1142   */\n      0x00\n        /* \"#utility.yul\":1164:1169   */\n      dup2\n        /* \"#utility.yul\":1153:1169   */\n      swap1\n      pop\n        /* \"#utility.yul\":1099:1175   */\n      swap2\n      swap1\n      pop\n      jump\t// out\n        /* \"#utility.yul\":1181:1258   */\n    tag_33:\n        /* \"#utility.yul\":1218:1225   */\n      0x00\n        /* \"#utility.yul\":1247:1252   */\n      dup2\n        /* \"#utility.yul\":1236:1252   */\n      swap1\n      pop\n        /* \"#utility.yul\":1181:1258   */\n      swap2\n      swap1\n      pop\n      jump\t// out\n        /* \"#utility.yul\":1264:1444   */\n    tag_29:\n        /* \"#utility.yul\":1312:1389   */\n      0x4e487b7100000000000000000000000000000000000000000000000000000000\n        /* \"#utility.yul\":1309:1310   */\n      0x00\n        /* \"#utility.yul\":1302:1390   */\n      mstore\n        /* \"#utility.yul\":1409:1413   */\n      0x11\n        /* \"#utility.yul\":1406:1407   */\n      0x04\n        /* \"#utility.yul\":1399:1414   */\n      mstore\n        /* \"#utility.yul\":1433:1437   */\n      0x24\n        /* \"#utility.yul\":1430:1431   */\n      0x00\n        /* \"#utility.yul\":1423:1438   */\n      revert\n        /* \"#utility.yul\":1573:1690   */\n    tag_19:\n        /* \"#utility.yul\":1682:1683   */\n      0x00\n        /* \"#utility.yul\":1679:1680   */\n      dup1\n        /* \"#utility.yul\":1672:1684   */\n      revert\n        /* \"#utility.yul\":1696:1818   */\n    tag_15:\n        /* \"#utility.yul\":1769:1793   */\n      tag_40\n        /* \"#utility.yul\":1787:1792   */\n      dup2\n        /* \"#utility.yul\":1769:1793   */\n      tag_33\n      jump\t// in\n    tag_40:\n        /* \"#utility.yul\":1762:1767   */\n      dup2\n        /* \"#utility.yul\":1759:1794   */\n      eq\n        /* \"#utility.yul\":1749:1812   */\n      tag_41\n      jumpi\n        /* \"#utility.yul\":1808:1809   */\n      0x00\n        /* \"#utility.yul\":1805:1806   */\n      dup1\n        /* \"#utility.yul\":1798:1810   */\n      revert\n        /* \"#utility.yul\":1749:1812   */\n    tag_41:\n        /* \"#utility.yul\":1696:1818   */\n      pop\n      jump\t// out\n\n    auxdata: 0xa26469706673582212203a78da2197659c97b03f9aeb48de2b75257a4f059cebaa108753f648df37473064736f6c63430008070033\n}\n",
				"bytecode": {
					"linkReferences": {},
					"object": "608060405234801561001057600080fd5b506101d3806100206000396000f3fe608060405234801561001057600080fd5b506004361061002b5760003560e01c806341e8518714610030575b600080fd5b61004a6004803603810190610045919061007d565b61004c565b005b600160008082825461005e91906100aa565b9250508190555050565b60008135905061007781610186565b92915050565b60006020828403121561009357610092610181565b5b60006100a184828501610068565b91505092915050565b60006100b58261013e565b91506100c08361013e565b9250817f7fffffffffffffffffffffffffffffffffffffffffffffffffffffffffffffff038313600083121516156100fb576100fa610152565b5b817f800000000000000000000000000000000000000000000000000000000000000003831260008312161561013357610132610152565b5b828201905092915050565b6000819050919050565b6000819050919050565b7f4e487b7100000000000000000000000000000000000000000000000000000000600052601160045260246000fd5b600080fd5b61018f81610148565b811461019a57600080fd5b5056fea26469706673582212203a78da2197659c97b03f9aeb48de2b75257a4f059cebaa108753f648df37473064736f6c63430008070033",
					"opcodes": "PUSH1 0x80 PUSH1 0x40 MSTORE CALLVALUE DUP1 ISZERO PUSH2 0x10 JUMPI PUSH1 0x0 DUP1 REVERT JUMPDEST POP PUSH2 0x1D3 DUP1 PUSH2 0x20 PUSH1 0x0 CODECOPY PUSH1 0x0 RETURN INVALID PUSH1 0x80 PUSH1 0x40 MSTORE CALLVALUE DUP1 ISZERO PUSH2 0x10 JUMPI PUSH1 0x0 DUP1 REVERT JUMPDEST POP PUSH1 0x4 CALLDATASIZE LT PUSH2 0x2B JUMPI PUSH1 0x0 CALLDATALOAD PUSH1 0xE0 SHR DUP1 PUSH4 0x41E85187 EQ PUSH2 0x30 JUMPI JUMPDEST PUSH1 0x0 DUP1 REVERT JUMPDEST PUSH2 0x4A PUSH1 0x4 DUP1 CALLDATASIZE SUB DUP2 ADD SWAP1 PUSH2 0x45 SWAP2 SWAP1 PUSH2 0x7D JUMP JUMPDEST PUSH2 0x4C JUMP JUMPDEST STOP JUMPDEST PUSH1 0x1 PUSH1 0x0 DUP1 DUP3 DUP3 SLOAD PUSH2 0x5E SWAP2 SWAP1 PUSH2 0xAA JUMP JUMPDEST SWAP3 POP POP DUP2 SWAP1 SSTORE POP POP JUMP JUMPDEST PUSH1 0x0 DUP2 CALLDATALOAD SWAP1 POP PUSH2 0x77 DUP2 PUSH2 0x186 JUMP JUMPDEST SWAP3 SWAP2 POP POP JUMP JUMPDEST PUSH1 0x0 PUSH1 0x20 DUP3 DUP5 SUB SLT ISZERO PUSH2 0x93 JUMPI PUSH2 0x92 PUSH2 0x181 JUMP JUMPDEST JUMPDEST PUSH1 0x0 PUSH2 0xA1 DUP5 DUP3 DUP6 ADD PUSH2 0x68 JUMP JUMPDEST SWAP2 POP POP SWAP3 SWAP2 POP POP JUMP JUMPDEST PUSH1 0x0 PUSH2 0xB5 DUP3 PUSH2 0x13E JUMP JUMPDEST SWAP2 POP PUSH2 0xC0 DUP4 PUSH2 0x13E JUMP JUMPDEST SWAP3 POP DUP2 PUSH32 0x7FFFFFFFFFFFFFFFFFFFFFFFFFFFFFFFFFFFFFFFFFFFFFFFFFFFFFFFFFFFFFFF SUB DUP4 SGT PUSH1 0x0 DUP4 SLT ISZERO AND ISZERO PUSH2 0xFB JUMPI PUSH2 0xFA PUSH2 0x152 JUMP JUMPDEST JUMPDEST DUP2 PUSH32 0x8000000000000000000000000000000000000000000000000000000000000000 SUB DUP4 SLT PUSH1 0x0 DUP4 SLT AND ISZERO PUSH2 0x133 JUMPI PUSH2 0x132 PUSH2 0x152 JUMP JUMPDEST JUMPDEST DUP3 DUP3 ADD SWAP1 POP SWAP3 SWAP2 POP POP JUMP JUMPDEST PUSH1 0x0 DUP2 SWAP1 POP SWAP2 SWAP1 POP JUMP JUMPDEST PUSH1 0x0 DUP2 SWAP1 POP SWAP2 SWAP1 POP JUMP JUMPDEST PUSH32 0x4E487B7100000000000000000000000000000000000000000000000000000000 PUSH1 0x0 MSTORE PUSH1 0x11 PUSH1 0x4 MSTORE PUSH1 0x24 PUSH1 0x0 REVERT JUMPDEST PUSH1 0x0 DUP1 REVERT JUMPDEST PUSH2 0x18F DUP2 PUSH2 0x148 JUMP JUMPDEST DUP2 EQ PUSH2 0x19A JUMPI PUSH1 0x0 DUP1 REVERT JUMPDEST POP JUMP INVALID LOG2 PUSH5 0x6970667358 0x22 SLT KECCAK256 GASPRICE PUSH25 0xDA2197659C97B03F9AEB48DE2B75257A4F059CEBAA108753F6 BASEFEE 0xDF CALLDATACOPY SELFBALANCE ADDRESS PUSH5 0x736F6C6343 STOP ADDMOD SMOD STOP CALLER "
				},
				"gasEstimates": {
					"creation": {
						"codeDepositCost": "93400",
						"executionCost": "141",
						"totalCost": "93541"
					},
					"external": {
						"ingresarSaldo(uint256)": "infinite"
					}
				},
				"methodIdentifiers": {
					"ingresarSaldo(uint256)": "41e85187"
				}
			},
			"storageLayout": {
				"storage": [
					{
						"astId": 3,
						"contract": "contracts/Ejercicio1CuentaAhorro.sol:Ejercicio1CuentaAhorro",
						"label": "saldo",
						"offset": 0,
						"slot": "0",
						"type": "t_int256"
					}
				],
				"types": {
					"t_int256": {
						"encoding": "inplace",
						"label": "int256",
						"numberOfBytes": "32"
					}
				}
			},
			"userdoc": {
				"kind": "user",
				"methods": {},
				"version": 1
			}
		}
	}
}