{
	"contracts/Ejercicio1CuentaAhorro.sol": {
		"Ejercicio1CuentaAhorro": {
			"abi": [
				{
					"inputs": [
						{
							"internalType": "int256",
							"name": "saldoParaIngresar",
							"type": "int256"
						}
					],
					"name": "ingresarSaldo",
					"outputs": [],
					"stateMutability": "nonpayable",
					"type": "function"
				},
				{
					"inputs": [
						{
							"internalType": "int256",
							"name": "saldoParaRetirar",
							"type": "int256"
						}
					],
					"name": "retirarSaldo",
					"outputs": [],
					"stateMutability": "nonpayable",
					"type": "function"
				}
			],
			"devdoc": {
				"kind": "dev",
				"methods": {},
				"version": 1
			},
			"evm": {
				"assembly": "    /* \"contracts/Ejercicio1CuentaAhorro.sol\":410:673  contract Ejercicio1CuentaAhorro {\r... */\n  mstore(0x40, 0x80)\n  callvalue\n  dup1\n  iszero\n  tag_1\n  jumpi\n  0x00\n  dup1\n  revert\ntag_1:\n  pop\n  dataSize(sub_0)\n  dup1\n  dataOffset(sub_0)\n  0x00\n  codecopy\n  0x00\n  return\nstop\n\nsub_0: assembly {\n        /* \"contracts/Ejercicio1CuentaAhorro.sol\":410:673  contract Ejercicio1CuentaAhorro {\r... */\n      mstore(0x40, 0x80)\n      callvalue\n      dup1\n      iszero\n      tag_1\n      jumpi\n      0x00\n      dup1\n      revert\n    tag_1:\n      pop\n      jumpi(tag_2, lt(calldatasize, 0x04))\n      shr(0xe0, calldataload(0x00))\n      dup1\n      0x93ba1e60\n      eq\n      tag_3\n      jumpi\n      dup1\n      0xc28a41ec\n      eq\n      tag_4\n      jumpi\n    tag_2:\n      0x00\n      dup1\n      revert\n        /* \"contracts/Ejercicio1CuentaAhorro.sol\":467:566  function ingresarSaldo (int saldoParaIngresar) public {\r... */\n    tag_3:\n      tag_5\n      0x04\n      dup1\n      calldatasize\n      sub\n      dup2\n      add\n      swap1\n      tag_6\n      swap2\n      swap1\n      tag_7\n      jump\t// in\n    tag_6:\n      tag_8\n      jump\t// in\n    tag_5:\n      stop\n        /* \"contracts/Ejercicio1CuentaAhorro.sol\":574:670  function retirarSaldo (int saldoParaRetirar) public {\r... */\n    tag_4:\n      tag_9\n      0x04\n      dup1\n      calldatasize\n      sub\n      dup2\n      add\n      swap1\n      tag_10\n      swap2\n      swap1\n      tag_7\n      jump\t// in\n    tag_10:\n      tag_11\n      jump\t// in\n    tag_9:\n      stop\n        /* \"contracts/Ejercicio1CuentaAhorro.sol\":467:566  function ingresarSaldo (int saldoParaIngresar) public {\r... */\n    tag_8:\n        /* \"contracts/Ejercicio1CuentaAhorro.sol\":541:558  saldoParaIngresar */\n      dup1\n        /* \"contracts/Ejercicio1CuentaAhorro.sol\":532:537  saldo */\n      0x00\n      dup1\n        /* \"contracts/Ejercicio1CuentaAhorro.sol\":532:558  saldo += saldoParaIngresar */\n      dup3\n      dup3\n      sload\n      tag_13\n      swap2\n      swap1\n      tag_14\n      jump\t// in\n    tag_13:\n      swap3\n      pop\n      pop\n      dup2\n      swap1\n      sstore\n      pop\n        /* \"contracts/Ejercicio1CuentaAhorro.sol\":467:566  function ingresarSaldo (int saldoParaIngresar) public {\r... */\n      pop\n      jump\t// out\n        /* \"contracts/Ejercicio1CuentaAhorro.sol\":574:670  function retirarSaldo (int saldoParaRetirar) public {\r... */\n    tag_11:\n        /* \"contracts/Ejercicio1CuentaAhorro.sol\":646:662  saldoParaRetirar */\n      dup1\n        /* \"contracts/Ejercicio1CuentaAhorro.sol\":637:642  saldo */\n      0x00\n      dup1\n        /* \"contracts/Ejercicio1CuentaAhorro.sol\":637:662  saldo += saldoParaRetirar */\n      dup3\n      dup3\n      sload\n      tag_16\n      swap2\n      swap1\n      tag_14\n      jump\t// in\n    tag_16:\n      swap3\n      pop\n      pop\n      dup2\n      swap1\n      sstore\n      pop\n        /* \"contracts/Ejercicio1CuentaAhorro.sol\":574:670  function retirarSaldo (int saldoParaRetirar) public {\r... */\n      pop\n      jump\t// out\n        /* \"#utility.yul\":7:144   */\n    tag_18:\n        /* \"#utility.yul\":52:57   */\n      0x00\n        /* \"#utility.yul\":90:96   */\n      dup2\n        /* \"#utility.yul\":77:97   */\n      calldataload\n        /* \"#utility.yul\":68:97   */\n      swap1\n      pop\n        /* \"#utility.yul\":106:138   */\n      tag_20\n        /* \"#utility.yul\":132:137   */\n      dup2\n        /* \"#utility.yul\":106:138   */\n      tag_21\n      jump\t// in\n    tag_20:\n        /* \"#utility.yul\":7:144   */\n      swap3\n      swap2\n      pop\n      pop\n      jump\t// out\n        /* \"#utility.yul\":150:477   */\n    tag_7:\n        /* \"#utility.yul\":208:214   */\n      0x00\n        /* \"#utility.yul\":257:259   */\n      0x20\n        /* \"#utility.yul\":245:254   */\n      dup3\n        /* \"#utility.yul\":236:243   */\n      dup5\n        /* \"#utility.yul\":232:255   */\n      sub\n        /* \"#utility.yul\":228:260   */\n      slt\n        /* \"#utility.yul\":225:344   */\n      iszero\n      tag_23\n      jumpi\n        /* \"#utility.yul\":263:342   */\n      tag_24\n      tag_25\n      jump\t// in\n    tag_24:\n        /* \"#utility.yul\":225:344   */\n    tag_23:\n        /* \"#utility.yul\":383:384   */\n      0x00\n        /* \"#utility.yul\":408:460   */\n      tag_26\n        /* \"#utility.yul\":452:459   */\n      dup5\n        /* \"#utility.yul\":443:449   */\n      dup3\n        /* \"#utility.yul\":432:441   */\n      dup6\n        /* \"#utility.yul\":428:450   */\n      add\n        /* \"#utility.yul\":408:460   */\n      tag_18\n      jump\t// in\n    tag_26:\n        /* \"#utility.yul\":398:460   */\n      swap2\n      pop\n        /* \"#utility.yul\":354:470   */\n      pop\n        /* \"#utility.yul\":150:477   */\n      swap3\n      swap2\n      pop\n      pop\n      jump\t// out\n        /* \"#utility.yul\":564:1089   */\n    tag_14:\n        /* \"#utility.yul\":603:606   */\n      0x00\n        /* \"#utility.yul\":622:641   */\n      tag_30\n        /* \"#utility.yul\":639:640   */\n      dup3\n        /* \"#utility.yul\":622:641   */\n      tag_31\n      jump\t// in\n    tag_30:\n        /* \"#utility.yul\":617:641   */\n      swap2\n      pop\n        /* \"#utility.yul\":655:674   */\n      tag_32\n        /* \"#utility.yul\":672:673   */\n      dup4\n        /* \"#utility.yul\":655:674   */\n      tag_31\n      jump\t// in\n    tag_32:\n        /* \"#utility.yul\":650:674   */\n      swap3\n      pop\n        /* \"#utility.yul\":843:844   */\n      dup2\n        /* \"#utility.yul\":775:841   */\n      0x7fffffffffffffffffffffffffffffffffffffffffffffffffffffffffffffff\n        /* \"#utility.yul\":771:845   */\n      sub\n        /* \"#utility.yul\":768:769   */\n      dup4\n        /* \"#utility.yul\":764:846   */\n      sgt\n        /* \"#utility.yul\":759:760   */\n      0x00\n        /* \"#utility.yul\":756:757   */\n      dup4\n        /* \"#utility.yul\":752:761   */\n      slt\n        /* \"#utility.yul\":745:762   */\n      iszero\n        /* \"#utility.yul\":741:847   */\n      and\n        /* \"#utility.yul\":738:870   */\n      iszero\n      tag_33\n      jumpi\n        /* \"#utility.yul\":850:868   */\n      tag_34\n      tag_35\n      jump\t// in\n    tag_34:\n        /* \"#utility.yul\":738:870   */\n    tag_33:\n        /* \"#utility.yul\":1030:1031   */\n      dup2\n        /* \"#utility.yul\":962:1028   */\n      0x8000000000000000000000000000000000000000000000000000000000000000\n        /* \"#utility.yul\":958:1032   */\n      sub\n        /* \"#utility.yul\":955:956   */\n      dup4\n        /* \"#utility.yul\":951:1033   */\n      slt\n        /* \"#utility.yul\":947:948   */\n      0x00\n        /* \"#utility.yul\":944:945   */\n      dup4\n        /* \"#utility.yul\":940:949   */\n      slt\n        /* \"#utility.yul\":936:1034   */\n      and\n        /* \"#utility.yul\":933:1057   */\n      iszero\n      tag_36\n      jumpi\n        /* \"#utility.yul\":1037:1055   */\n      tag_37\n      tag_35\n      jump\t// in\n    tag_37:\n        /* \"#utility.yul\":933:1057   */\n    tag_36:\n        /* \"#utility.yul\":1081:1082   */\n      dup3\n        /* \"#utility.yul\":1078:1079   */\n      dup3\n        /* \"#utility.yul\":1074:1083   */\n      add\n        /* \"#utility.yul\":1067:1083   */\n      swap1\n      pop\n        /* \"#utility.yul\":564:1089   */\n      swap3\n      swap2\n      pop\n      pop\n      jump\t// out\n        /* \"#utility.yul\":1095:1171   */\n    tag_31:\n        /* \"#utility.yul\":1131:1138   */\n      0x00\n        /* \"#utility.yul\":1160:1165   */\n      dup2\n        /* \"#utility.yul\":1149:1165   */\n      swap1\n      pop\n        /* \"#utility.yul\":1095:1171   */\n      swap2\n      swap1\n      pop\n      jump\t// out\n        /* \"#utility.yul\":1177:1357   */\n    tag_35:\n        /* \"#utility.yul\":1225:1302   */\n      0x4e487b7100000000000000000000000000000000000000000000000000000000\n        /* \"#utility.yul\":1222:1223   */\n      0x00\n        /* \"#utility.yul\":1215:1303   */\n      mstore\n        /* \"#utility.yul\":1322:1326   */\n      0x11\n        /* \"#utility.yul\":1319:1320   */\n      0x04\n        /* \"#utility.yul\":1312:1327   */\n      mstore\n        /* \"#utility.yul\":1346:1350   */\n      0x24\n        /* \"#utility.yul\":1343:1344   */\n      0x00\n        /* \"#utility.yul\":1336:1351   */\n      revert\n        /* \"#utility.yul\":1486:1603   */\n    tag_25:\n        /* \"#utility.yul\":1595:1596   */\n      0x00\n        /* \"#utility.yul\":1592:1593   */\n      dup1\n        /* \"#utility.yul\":1585:1597   */\n      revert\n        /* \"#utility.yul\":1609:1729   */\n    tag_21:\n        /* \"#utility.yul\":1681:1704   */\n      tag_44\n        /* \"#utility.yul\":1698:1703   */\n      dup2\n        /* \"#utility.yul\":1681:1704   */\n      tag_31\n      jump\t// in\n    tag_44:\n        /* \"#utility.yul\":1674:1679   */\n      dup2\n        /* \"#utility.yul\":1671:1705   */\n      eq\n        /* \"#utility.yul\":1661:1723   */\n      tag_45\n      jumpi\n        /* \"#utility.yul\":1719:1720   */\n      0x00\n        /* \"#utility.yul\":1716:1717   */\n      dup1\n        /* \"#utility.yul\":1709:1721   */\n      revert\n        /* \"#utility.yul\":1661:1723   */\n    tag_45:\n        /* \"#utility.yul\":1609:1729   */\n      pop\n      jump\t// out\n\n    auxdata: 0xa2646970667358221220e01cb1aaae959028977e6b433f45fe5bd6749f18a5af4eaf2beb0652ff3b90c764736f6c63430008070033\n}\n",
				"bytecode": {
					"linkReferences": {},
					"object": "608060405234801561001057600080fd5b5061020a806100206000396000f3fe608060405234801561001057600080fd5b50600436106100365760003560e01c806393ba1e601461003b578063c28a41ec14610057575b600080fd5b610055600480360381019061005091906100be565b610073565b005b610071600480360381019061006c91906100be565b61008e565b005b8060008082825461008491906100eb565b9250508190555050565b8060008082825461009f91906100eb565b9250508190555050565b6000813590506100b8816101bd565b92915050565b6000602082840312156100d4576100d36101b8565b5b60006100e2848285016100a9565b91505092915050565b60006100f68261017f565b91506101018361017f565b9250817f7fffffffffffffffffffffffffffffffffffffffffffffffffffffffffffffff0383136000831215161561013c5761013b610189565b5b817f800000000000000000000000000000000000000000000000000000000000000003831260008312161561017457610173610189565b5b828201905092915050565b6000819050919050565b7f4e487b7100000000000000000000000000000000000000000000000000000000600052601160045260246000fd5b600080fd5b6101c68161017f565b81146101d157600080fd5b5056fea2646970667358221220e01cb1aaae959028977e6b433f45fe5bd6749f18a5af4eaf2beb0652ff3b90c764736f6c63430008070033",
					"opcodes": "PUSH1 0x80 PUSH1 0x40 MSTORE CALLVALUE DUP1 ISZERO PUSH2 0x10 JUMPI PUSH1 0x0 DUP1 REVERT JUMPDEST POP PUSH2 0x20A DUP1 PUSH2 0x20 PUSH1 0x0 CODECOPY PUSH1 0x0 RETURN INVALID PUSH1 0x80 PUSH1 0x40 MSTORE CALLVALUE DUP1 ISZERO PUSH2 0x10 JUMPI PUSH1 0x0 DUP1 REVERT JUMPDEST POP PUSH1 0x4 CALLDATASIZE LT PUSH2 0x36 JUMPI PUSH1 0x0 CALLDATALOAD PUSH1 0xE0 SHR DUP1 PUSH4 0x93BA1E60 EQ PUSH2 0x3B JUMPI DUP1 PUSH4 0xC28A41EC EQ PUSH2 0x57 JUMPI JUMPDEST PUSH1 0x0 DUP1 REVERT JUMPDEST PUSH2 0x55 PUSH1 0x4 DUP1 CALLDATASIZE SUB DUP2 ADD SWAP1 PUSH2 0x50 SWAP2 SWAP1 PUSH2 0xBE JUMP JUMPDEST PUSH2 0x73 JUMP JUMPDEST STOP JUMPDEST PUSH2 0x71 PUSH1 0x4 DUP1 CALLDATASIZE SUB DUP2 ADD SWAP1 PUSH2 0x6C SWAP2 SWAP1 PUSH2 0xBE JUMP JUMPDEST PUSH2 0x8E JUMP JUMPDEST STOP JUMPDEST DUP1 PUSH1 0x0 DUP1 DUP3 DUP3 SLOAD PUSH2 0x84 SWAP2 SWAP1 PUSH2 0xEB JUMP JUMPDEST SWAP3 POP POP DUP2 SWAP1 SSTORE POP POP JUMP JUMPDEST DUP1 PUSH1 0x0 DUP1 DUP3 DUP3 SLOAD PUSH2 0x9F SWAP2 SWAP1 PUSH2 0xEB JUMP JUMPDEST SWAP3 POP POP DUP2 SWAP1 SSTORE POP POP JUMP JUMPDEST PUSH1 0x0 DUP2 CALLDATALOAD SWAP1 POP PUSH2 0xB8 DUP2 PUSH2 0x1BD JUMP JUMPDEST SWAP3 SWAP2 POP POP JUMP JUMPDEST PUSH1 0x0 PUSH1 0x20 DUP3 DUP5 SUB SLT ISZERO PUSH2 0xD4 JUMPI PUSH2 0xD3 PUSH2 0x1B8 JUMP JUMPDEST JUMPDEST PUSH1 0x0 PUSH2 0xE2 DUP5 DUP3 DUP6 ADD PUSH2 0xA9 JUMP JUMPDEST SWAP2 POP POP SWAP3 SWAP2 POP POP JUMP JUMPDEST PUSH1 0x0 PUSH2 0xF6 DUP3 PUSH2 0x17F JUMP JUMPDEST SWAP2 POP PUSH2 0x101 DUP4 PUSH2 0x17F JUMP JUMPDEST SWAP3 POP DUP2 PUSH32 0x7FFFFFFFFFFFFFFFFFFFFFFFFFFFFFFFFFFFFFFFFFFFFFFFFFFFFFFFFFFFFFFF SUB DUP4 SGT PUSH1 0x0 DUP4 SLT ISZERO AND ISZERO PUSH2 0x13C JUMPI PUSH2 0x13B PUSH2 0x189 JUMP JUMPDEST JUMPDEST DUP2 PUSH32 0x8000000000000000000000000000000000000000000000000000000000000000 SUB DUP4 SLT PUSH1 0x0 DUP4 SLT AND ISZERO PUSH2 0x174 JUMPI PUSH2 0x173 PUSH2 0x189 JUMP JUMPDEST JUMPDEST DUP3 DUP3 ADD SWAP1 POP SWAP3 SWAP2 POP POP JUMP JUMPDEST PUSH1 0x0 DUP2 SWAP1 POP SWAP2 SWAP1 POP JUMP JUMPDEST PUSH32 0x4E487B7100000000000000000000000000000000000000000000000000000000 PUSH1 0x0 MSTORE PUSH1 0x11 PUSH1 0x4 MSTORE PUSH1 0x24 PUSH1 0x0 REVERT JUMPDEST PUSH1 0x0 DUP1 REVERT JUMPDEST PUSH2 0x1C6 DUP2 PUSH2 0x17F JUMP JUMPDEST DUP2 EQ PUSH2 0x1D1 JUMPI PUSH1 0x0 DUP1 REVERT JUMPDEST POP JUMP INVALID LOG2 PUSH5 0x6970667358 0x22 SLT KECCAK256 0xE0 SHR 0xB1 0xAA 0xAE SWAP6 SWAP1 0x28 SWAP8 PUSH31 0x6B433F45FE5BD6749F18A5AF4EAF2BEB0652FF3B90C764736F6C6343000807 STOP CALLER "
				},
				"gasEstimates": {
					"creation": {
						"codeDepositCost": "104400",
						"executionCost": "153",
						"totalCost": "104553"
					},
					"external": {
						"ingresarSaldo(int256)": "infinite",
						"retirarSaldo(int256)": "infinite"
					}
				},
				"methodIdentifiers": {
					"ingresarSaldo(int256)": "93ba1e60",
					"retirarSaldo(int256)": "c28a41ec"
				}
			},
			"storageLayout": {
				"storage": [
					{
						"astId": 3,
						"contract": "contracts/Ejercicio1CuentaAhorro.sol:Ejercicio1CuentaAhorro",
						"label": "saldo",
						"offset": 0,
						"slot": "0",
						"type": "t_int256"
					}
				],
				"types": {
					"t_int256": {
						"encoding": "inplace",
						"label": "int256",
						"numberOfBytes": "32"
					}
				}
			},
			"userdoc": {
				"kind": "user",
				"methods": {},
				"version": 1
			}
		}
	}
}