{
	"data": {
		"bytecode": {
			"linkReferences": {},
			"object": "608060405230600660006101000a81548173ffffffffffffffffffffffffffffffffffffffff021916908373ffffffffffffffffffffffffffffffffffffffff1602179055503480156200005257600080fd5b5060405162000b3d38038062000b3d83398181016040528101906200007891906200027d565b826000800190805190602001906200009292919062000138565b5081600060010160006101000a81548160ff021916908360000b60ff1602179055508060006002019080519060200190620000cf92919062000138565b5060008060030160006101000a81548160ff021916908360ff16021790555033600560006101000a81548173ffffffffffffffffffffffffffffffffffffffff021916908373ffffffffffffffffffffffffffffffffffffffff160217905550505050620004c2565b8280546200014690620003b9565b90600052602060002090601f0160209004810192826200016a5760008555620001b6565b82601f106200018557805160ff1916838001178555620001b6565b82800160010185558215620001b6579182015b82811115620001b557825182559160200191906001019062000198565b5b509050620001c59190620001c9565b5090565b5b80821115620001e4576000816000905550600101620001ca565b5090565b6000620001ff620001f98462000340565b62000317565b9050828152602081018484840111156200021e576200021d62000488565b5b6200022b84828562000383565b509392505050565b6000815190506200024481620004a8565b92915050565b600082601f83011262000262576200026162000483565b5b815162000274848260208601620001e8565b91505092915050565b60008060006060848603121562000299576200029862000492565b5b600084015167ffffffffffffffff811115620002ba57620002b96200048d565b5b620002c8868287016200024a565b9350506020620002db8682870162000233565b925050604084015167ffffffffffffffff811115620002ff57620002fe6200048d565b5b6200030d868287016200024a565b9150509250925092565b60006200032362000336565b9050620003318282620003ef565b919050565b6000604051905090565b600067ffffffffffffffff8211156200035e576200035d62000454565b5b620003698262000497565b9050602081019050919050565b60008160000b9050919050565b60005b83811015620003a357808201518184015260208101905062000386565b83811115620003b3576000848401525b50505050565b60006002820490506001821680620003d257607f821691505b60208210811415620003e957620003e862000425565b5b50919050565b620003fa8262000497565b810181811067ffffffffffffffff821117156200041c576200041b62000454565b5b80604052505050565b7f4e487b7100000000000000000000000000000000000000000000000000000000600052602260045260246000fd5b7f4e487b7100000000000000000000000000000000000000000000000000000000600052604160045260246000fd5b600080fd5b600080fd5b600080fd5b600080fd5b6000601f19601f8301169050919050565b620004b38162000376565b8114620004bf57600080fd5b50565b61066b80620004d26000396000f3fe6080604052600436106100435760003560e01c806357506b821461004f5780635f57697c1461007857806388fa7c67146100a6578063e2eec9a7146100cf5761004a565b3661004a57005b600080fd5b34801561005b57600080fd5b5061007660048036038101906100719190610346565b6100fa565b005b34801561008457600080fd5b5061008d610138565b60405161009d94939291906103ed565b60405180910390f35b3480156100b257600080fd5b506100cd60048036038101906100c89190610346565b610280565b005b3480156100db57600080fd5b506100e4610318565b6040516100f19190610460565b60405180910390f35b80600060030160009054906101000a900460ff166101189190610497565b600060030160006101000a81548160ff021916908360ff16021790555050565b60008060000180546101499061054f565b80601f01602080910402602001604051908101604052809291908181526020018280546101759061054f565b80156101c25780601f10610197576101008083540402835291602001916101c2565b820191906000526020600020905b8154815290600101906020018083116101a557829003601f168201915b5050505050908060010160009054906101000a900460000b908060020180546101ea9061054f565b80601f01602080910402602001604051908101604052809291908181526020018280546102169061054f565b80156102635780601f1061023857610100808354040283529160200191610263565b820191906000526020600020905b81548152906001019060200180831161024657829003601f168201915b5050505050908060030160009054906101000a900460ff16905084565b600060030160009054906101000a900460ff1660ff168160ff16106102da576040517f08c379a00000000000000000000000000000000000000000000000000000000081526004016102d190610440565b60405180910390fd5b80600060030160009054906101000a900460ff166102f891906104ce565b600060030160006101000a81548160ff021916908360ff16021790555050565b60008060030160009054906101000a900460ff16905090565b6000813590506103408161061e565b92915050565b60006020828403121561035c5761035b6105df565b5b600061036a84828501610331565b91505092915050565b61037c81610502565b82525050565b600061038d8261047b565b6103978185610486565b93506103a781856020860161051c565b6103b0816105e4565b840191505092915050565b60006103c8601283610486565b91506103d3826105f5565b602082019050919050565b6103e78161050f565b82525050565b600060808201905081810360008301526104078187610382565b90506104166020830186610373565b81810360408301526104288185610382565b905061043760608301846103de565b95945050505050565b60006020820190508181036000830152610459816103bb565b9050919050565b600060208201905061047560008301846103de565b92915050565b600081519050919050565b600082825260208201905092915050565b60006104a28261050f565b91506104ad8361050f565b92508260ff038211156104c3576104c2610581565b5b828201905092915050565b60006104d98261050f565b91506104e48361050f565b9250828210156104f7576104f6610581565b5b828203905092915050565b60008160000b9050919050565b600060ff82169050919050565b60005b8381101561053a57808201518184015260208101905061051f565b83811115610549576000848401525b50505050565b6000600282049050600182168061056757607f821691505b6020821081141561057b5761057a6105b0565b5b50919050565b7f4e487b7100000000000000000000000000000000000000000000000000000000600052601160045260246000fd5b7f4e487b7100000000000000000000000000000000000000000000000000000000600052602260045260246000fd5b600080fd5b6000601f19601f8301169050919050565b7f53616c646f20696e737566696369656e74650000000000000000000000000000600082015250565b6106278161050f565b811461063257600080fd5b5056fea26469706673582212207ef1ebb4980c4590868a2cd20ff00fbcdeaa93f5b48a55fd36edb3e3cf8884b664736f6c63430008070033",
			"opcodes": "PUSH1 0x80 PUSH1 0x40 MSTORE ADDRESS PUSH1 0x6 PUSH1 0x0 PUSH2 0x100 EXP DUP2 SLOAD DUP2 PUSH20 0xFFFFFFFFFFFFFFFFFFFFFFFFFFFFFFFFFFFFFFFF MUL NOT AND SWAP1 DUP4 PUSH20 0xFFFFFFFFFFFFFFFFFFFFFFFFFFFFFFFFFFFFFFFF AND MUL OR SWAP1 SSTORE POP CALLVALUE DUP1 ISZERO PUSH3 0x52 JUMPI PUSH1 0x0 DUP1 REVERT JUMPDEST POP PUSH1 0x40 MLOAD PUSH3 0xB3D CODESIZE SUB DUP1 PUSH3 0xB3D DUP4 CODECOPY DUP2 DUP2 ADD PUSH1 0x40 MSTORE DUP2 ADD SWAP1 PUSH3 0x78 SWAP2 SWAP1 PUSH3 0x27D JUMP JUMPDEST DUP3 PUSH1 0x0 DUP1 ADD SWAP1 DUP1 MLOAD SWAP1 PUSH1 0x20 ADD SWAP1 PUSH3 0x92 SWAP3 SWAP2 SWAP1 PUSH3 0x138 JUMP JUMPDEST POP DUP2 PUSH1 0x0 PUSH1 0x1 ADD PUSH1 0x0 PUSH2 0x100 EXP DUP2 SLOAD DUP2 PUSH1 0xFF MUL NOT AND SWAP1 DUP4 PUSH1 0x0 SIGNEXTEND PUSH1 0xFF AND MUL OR SWAP1 SSTORE POP DUP1 PUSH1 0x0 PUSH1 0x2 ADD SWAP1 DUP1 MLOAD SWAP1 PUSH1 0x20 ADD SWAP1 PUSH3 0xCF SWAP3 SWAP2 SWAP1 PUSH3 0x138 JUMP JUMPDEST POP PUSH1 0x0 DUP1 PUSH1 0x3 ADD PUSH1 0x0 PUSH2 0x100 EXP DUP2 SLOAD DUP2 PUSH1 0xFF MUL NOT AND SWAP1 DUP4 PUSH1 0xFF AND MUL OR SWAP1 SSTORE POP CALLER PUSH1 0x5 PUSH1 0x0 PUSH2 0x100 EXP DUP2 SLOAD DUP2 PUSH20 0xFFFFFFFFFFFFFFFFFFFFFFFFFFFFFFFFFFFFFFFF MUL NOT AND SWAP1 DUP4 PUSH20 0xFFFFFFFFFFFFFFFFFFFFFFFFFFFFFFFFFFFFFFFF AND MUL OR SWAP1 SSTORE POP POP POP POP PUSH3 0x4C2 JUMP JUMPDEST DUP3 DUP1 SLOAD PUSH3 0x146 SWAP1 PUSH3 0x3B9 JUMP JUMPDEST SWAP1 PUSH1 0x0 MSTORE PUSH1 0x20 PUSH1 0x0 KECCAK256 SWAP1 PUSH1 0x1F ADD PUSH1 0x20 SWAP1 DIV DUP2 ADD SWAP3 DUP3 PUSH3 0x16A JUMPI PUSH1 0x0 DUP6 SSTORE PUSH3 0x1B6 JUMP JUMPDEST DUP3 PUSH1 0x1F LT PUSH3 0x185 JUMPI DUP1 MLOAD PUSH1 0xFF NOT AND DUP4 DUP1 ADD OR DUP6 SSTORE PUSH3 0x1B6 JUMP JUMPDEST DUP3 DUP1 ADD PUSH1 0x1 ADD DUP6 SSTORE DUP3 ISZERO PUSH3 0x1B6 JUMPI SWAP2 DUP3 ADD JUMPDEST DUP3 DUP2 GT ISZERO PUSH3 0x1B5 JUMPI DUP3 MLOAD DUP3 SSTORE SWAP2 PUSH1 0x20 ADD SWAP2 SWAP1 PUSH1 0x1 ADD SWAP1 PUSH3 0x198 JUMP JUMPDEST JUMPDEST POP SWAP1 POP PUSH3 0x1C5 SWAP2 SWAP1 PUSH3 0x1C9 JUMP JUMPDEST POP SWAP1 JUMP JUMPDEST JUMPDEST DUP1 DUP3 GT ISZERO PUSH3 0x1E4 JUMPI PUSH1 0x0 DUP2 PUSH1 0x0 SWAP1 SSTORE POP PUSH1 0x1 ADD PUSH3 0x1CA JUMP JUMPDEST POP SWAP1 JUMP JUMPDEST PUSH1 0x0 PUSH3 0x1FF PUSH3 0x1F9 DUP5 PUSH3 0x340 JUMP JUMPDEST PUSH3 0x317 JUMP JUMPDEST SWAP1 POP DUP3 DUP2 MSTORE PUSH1 0x20 DUP2 ADD DUP5 DUP5 DUP5 ADD GT ISZERO PUSH3 0x21E JUMPI PUSH3 0x21D PUSH3 0x488 JUMP JUMPDEST JUMPDEST PUSH3 0x22B DUP5 DUP3 DUP6 PUSH3 0x383 JUMP JUMPDEST POP SWAP4 SWAP3 POP POP POP JUMP JUMPDEST PUSH1 0x0 DUP2 MLOAD SWAP1 POP PUSH3 0x244 DUP2 PUSH3 0x4A8 JUMP JUMPDEST SWAP3 SWAP2 POP POP JUMP JUMPDEST PUSH1 0x0 DUP3 PUSH1 0x1F DUP4 ADD SLT PUSH3 0x262 JUMPI PUSH3 0x261 PUSH3 0x483 JUMP JUMPDEST JUMPDEST DUP2 MLOAD PUSH3 0x274 DUP5 DUP3 PUSH1 0x20 DUP7 ADD PUSH3 0x1E8 JUMP JUMPDEST SWAP2 POP POP SWAP3 SWAP2 POP POP JUMP JUMPDEST PUSH1 0x0 DUP1 PUSH1 0x0 PUSH1 0x60 DUP5 DUP7 SUB SLT ISZERO PUSH3 0x299 JUMPI PUSH3 0x298 PUSH3 0x492 JUMP JUMPDEST JUMPDEST PUSH1 0x0 DUP5 ADD MLOAD PUSH8 0xFFFFFFFFFFFFFFFF DUP2 GT ISZERO PUSH3 0x2BA JUMPI PUSH3 0x2B9 PUSH3 0x48D JUMP JUMPDEST JUMPDEST PUSH3 0x2C8 DUP7 DUP3 DUP8 ADD PUSH3 0x24A JUMP JUMPDEST SWAP4 POP POP PUSH1 0x20 PUSH3 0x2DB DUP7 DUP3 DUP8 ADD PUSH3 0x233 JUMP JUMPDEST SWAP3 POP POP PUSH1 0x40 DUP5 ADD MLOAD PUSH8 0xFFFFFFFFFFFFFFFF DUP2 GT ISZERO PUSH3 0x2FF JUMPI PUSH3 0x2FE PUSH3 0x48D JUMP JUMPDEST JUMPDEST PUSH3 0x30D DUP7 DUP3 DUP8 ADD PUSH3 0x24A JUMP JUMPDEST SWAP2 POP POP SWAP3 POP SWAP3 POP SWAP3 JUMP JUMPDEST PUSH1 0x0 PUSH3 0x323 PUSH3 0x336 JUMP JUMPDEST SWAP1 POP PUSH3 0x331 DUP3 DUP3 PUSH3 0x3EF JUMP JUMPDEST SWAP2 SWAP1 POP JUMP JUMPDEST PUSH1 0x0 PUSH1 0x40 MLOAD SWAP1 POP SWAP1 JUMP JUMPDEST PUSH1 0x0 PUSH8 0xFFFFFFFFFFFFFFFF DUP3 GT ISZERO PUSH3 0x35E JUMPI PUSH3 0x35D PUSH3 0x454 JUMP JUMPDEST JUMPDEST PUSH3 0x369 DUP3 PUSH3 0x497 JUMP JUMPDEST SWAP1 POP PUSH1 0x20 DUP2 ADD SWAP1 POP SWAP2 SWAP1 POP JUMP JUMPDEST PUSH1 0x0 DUP2 PUSH1 0x0 SIGNEXTEND SWAP1 POP SWAP2 SWAP1 POP JUMP JUMPDEST PUSH1 0x0 JUMPDEST DUP4 DUP2 LT ISZERO PUSH3 0x3A3 JUMPI DUP1 DUP3 ADD MLOAD DUP2 DUP5 ADD MSTORE PUSH1 0x20 DUP2 ADD SWAP1 POP PUSH3 0x386 JUMP JUMPDEST DUP4 DUP2 GT ISZERO PUSH3 0x3B3 JUMPI PUSH1 0x0 DUP5 DUP5 ADD MSTORE JUMPDEST POP POP POP POP JUMP JUMPDEST PUSH1 0x0 PUSH1 0x2 DUP3 DIV SWAP1 POP PUSH1 0x1 DUP3 AND DUP1 PUSH3 0x3D2 JUMPI PUSH1 0x7F DUP3 AND SWAP2 POP JUMPDEST PUSH1 0x20 DUP3 LT DUP2 EQ ISZERO PUSH3 0x3E9 JUMPI PUSH3 0x3E8 PUSH3 0x425 JUMP JUMPDEST JUMPDEST POP SWAP2 SWAP1 POP JUMP JUMPDEST PUSH3 0x3FA DUP3 PUSH3 0x497 JUMP JUMPDEST DUP2 ADD DUP2 DUP2 LT PUSH8 0xFFFFFFFFFFFFFFFF DUP3 GT OR ISZERO PUSH3 0x41C JUMPI PUSH3 0x41B PUSH3 0x454 JUMP JUMPDEST JUMPDEST DUP1 PUSH1 0x40 MSTORE POP POP POP JUMP JUMPDEST PUSH32 0x4E487B7100000000000000000000000000000000000000000000000000000000 PUSH1 0x0 MSTORE PUSH1 0x22 PUSH1 0x4 MSTORE PUSH1 0x24 PUSH1 0x0 REVERT JUMPDEST PUSH32 0x4E487B7100000000000000000000000000000000000000000000000000000000 PUSH1 0x0 MSTORE PUSH1 0x41 PUSH1 0x4 MSTORE PUSH1 0x24 PUSH1 0x0 REVERT JUMPDEST PUSH1 0x0 DUP1 REVERT JUMPDEST PUSH1 0x0 DUP1 REVERT JUMPDEST PUSH1 0x0 DUP1 REVERT JUMPDEST PUSH1 0x0 DUP1 REVERT JUMPDEST PUSH1 0x0 PUSH1 0x1F NOT PUSH1 0x1F DUP4 ADD AND SWAP1 POP SWAP2 SWAP1 POP JUMP JUMPDEST PUSH3 0x4B3 DUP2 PUSH3 0x376 JUMP JUMPDEST DUP2 EQ PUSH3 0x4BF JUMPI PUSH1 0x0 DUP1 REVERT JUMPDEST POP JUMP JUMPDEST PUSH2 0x66B DUP1 PUSH3 0x4D2 PUSH1 0x0 CODECOPY PUSH1 0x0 RETURN INVALID PUSH1 0x80 PUSH1 0x40 MSTORE PUSH1 0x4 CALLDATASIZE LT PUSH2 0x43 JUMPI PUSH1 0x0 CALLDATALOAD PUSH1 0xE0 SHR DUP1 PUSH4 0x57506B82 EQ PUSH2 0x4F JUMPI DUP1 PUSH4 0x5F57697C EQ PUSH2 0x78 JUMPI DUP1 PUSH4 0x88FA7C67 EQ PUSH2 0xA6 JUMPI DUP1 PUSH4 0xE2EEC9A7 EQ PUSH2 0xCF JUMPI PUSH2 0x4A JUMP JUMPDEST CALLDATASIZE PUSH2 0x4A JUMPI STOP JUMPDEST PUSH1 0x0 DUP1 REVERT JUMPDEST CALLVALUE DUP1 ISZERO PUSH2 0x5B JUMPI PUSH1 0x0 DUP1 REVERT JUMPDEST POP PUSH2 0x76 PUSH1 0x4 DUP1 CALLDATASIZE SUB DUP2 ADD SWAP1 PUSH2 0x71 SWAP2 SWAP1 PUSH2 0x346 JUMP JUMPDEST PUSH2 0xFA JUMP JUMPDEST STOP JUMPDEST CALLVALUE DUP1 ISZERO PUSH2 0x84 JUMPI PUSH1 0x0 DUP1 REVERT JUMPDEST POP PUSH2 0x8D PUSH2 0x138 JUMP JUMPDEST PUSH1 0x40 MLOAD PUSH2 0x9D SWAP5 SWAP4 SWAP3 SWAP2 SWAP1 PUSH2 0x3ED JUMP JUMPDEST PUSH1 0x40 MLOAD DUP1 SWAP2 SUB SWAP1 RETURN JUMPDEST CALLVALUE DUP1 ISZERO PUSH2 0xB2 JUMPI PUSH1 0x0 DUP1 REVERT JUMPDEST POP PUSH2 0xCD PUSH1 0x4 DUP1 CALLDATASIZE SUB DUP2 ADD SWAP1 PUSH2 0xC8 SWAP2 SWAP1 PUSH2 0x346 JUMP JUMPDEST PUSH2 0x280 JUMP JUMPDEST STOP JUMPDEST CALLVALUE DUP1 ISZERO PUSH2 0xDB JUMPI PUSH1 0x0 DUP1 REVERT JUMPDEST POP PUSH2 0xE4 PUSH2 0x318 JUMP JUMPDEST PUSH1 0x40 MLOAD PUSH2 0xF1 SWAP2 SWAP1 PUSH2 0x460 JUMP JUMPDEST PUSH1 0x40 MLOAD DUP1 SWAP2 SUB SWAP1 RETURN JUMPDEST DUP1 PUSH1 0x0 PUSH1 0x3 ADD PUSH1 0x0 SWAP1 SLOAD SWAP1 PUSH2 0x100 EXP SWAP1 DIV PUSH1 0xFF AND PUSH2 0x118 SWAP2 SWAP1 PUSH2 0x497 JUMP JUMPDEST PUSH1 0x0 PUSH1 0x3 ADD PUSH1 0x0 PUSH2 0x100 EXP DUP2 SLOAD DUP2 PUSH1 0xFF MUL NOT AND SWAP1 DUP4 PUSH1 0xFF AND MUL OR SWAP1 SSTORE POP POP JUMP JUMPDEST PUSH1 0x0 DUP1 PUSH1 0x0 ADD DUP1 SLOAD PUSH2 0x149 SWAP1 PUSH2 0x54F JUMP JUMPDEST DUP1 PUSH1 0x1F ADD PUSH1 0x20 DUP1 SWAP2 DIV MUL PUSH1 0x20 ADD PUSH1 0x40 MLOAD SWAP1 DUP2 ADD PUSH1 0x40 MSTORE DUP1 SWAP3 SWAP2 SWAP1 DUP2 DUP2 MSTORE PUSH1 0x20 ADD DUP3 DUP1 SLOAD PUSH2 0x175 SWAP1 PUSH2 0x54F JUMP JUMPDEST DUP1 ISZERO PUSH2 0x1C2 JUMPI DUP1 PUSH1 0x1F LT PUSH2 0x197 JUMPI PUSH2 0x100 DUP1 DUP4 SLOAD DIV MUL DUP4 MSTORE SWAP2 PUSH1 0x20 ADD SWAP2 PUSH2 0x1C2 JUMP JUMPDEST DUP3 ADD SWAP2 SWAP1 PUSH1 0x0 MSTORE PUSH1 0x20 PUSH1 0x0 KECCAK256 SWAP1 JUMPDEST DUP2 SLOAD DUP2 MSTORE SWAP1 PUSH1 0x1 ADD SWAP1 PUSH1 0x20 ADD DUP1 DUP4 GT PUSH2 0x1A5 JUMPI DUP3 SWAP1 SUB PUSH1 0x1F AND DUP3 ADD SWAP2 JUMPDEST POP POP POP POP POP SWAP1 DUP1 PUSH1 0x1 ADD PUSH1 0x0 SWAP1 SLOAD SWAP1 PUSH2 0x100 EXP SWAP1 DIV PUSH1 0x0 SIGNEXTEND SWAP1 DUP1 PUSH1 0x2 ADD DUP1 SLOAD PUSH2 0x1EA SWAP1 PUSH2 0x54F JUMP JUMPDEST DUP1 PUSH1 0x1F ADD PUSH1 0x20 DUP1 SWAP2 DIV MUL PUSH1 0x20 ADD PUSH1 0x40 MLOAD SWAP1 DUP2 ADD PUSH1 0x40 MSTORE DUP1 SWAP3 SWAP2 SWAP1 DUP2 DUP2 MSTORE PUSH1 0x20 ADD DUP3 DUP1 SLOAD PUSH2 0x216 SWAP1 PUSH2 0x54F JUMP JUMPDEST DUP1 ISZERO PUSH2 0x263 JUMPI DUP1 PUSH1 0x1F LT PUSH2 0x238 JUMPI PUSH2 0x100 DUP1 DUP4 SLOAD DIV MUL DUP4 MSTORE SWAP2 PUSH1 0x20 ADD SWAP2 PUSH2 0x263 JUMP JUMPDEST DUP3 ADD SWAP2 SWAP1 PUSH1 0x0 MSTORE PUSH1 0x20 PUSH1 0x0 KECCAK256 SWAP1 JUMPDEST DUP2 SLOAD DUP2 MSTORE SWAP1 PUSH1 0x1 ADD SWAP1 PUSH1 0x20 ADD DUP1 DUP4 GT PUSH2 0x246 JUMPI DUP3 SWAP1 SUB PUSH1 0x1F AND DUP3 ADD SWAP2 JUMPDEST POP POP POP POP POP SWAP1 DUP1 PUSH1 0x3 ADD PUSH1 0x0 SWAP1 SLOAD SWAP1 PUSH2 0x100 EXP SWAP1 DIV PUSH1 0xFF AND SWAP1 POP DUP5 JUMP JUMPDEST PUSH1 0x0 PUSH1 0x3 ADD PUSH1 0x0 SWAP1 SLOAD SWAP1 PUSH2 0x100 EXP SWAP1 DIV PUSH1 0xFF AND PUSH1 0xFF AND DUP2 PUSH1 0xFF AND LT PUSH2 0x2DA JUMPI PUSH1 0x40 MLOAD PUSH32 0x8C379A000000000000000000000000000000000000000000000000000000000 DUP2 MSTORE PUSH1 0x4 ADD PUSH2 0x2D1 SWAP1 PUSH2 0x440 JUMP JUMPDEST PUSH1 0x40 MLOAD DUP1 SWAP2 SUB SWAP1 REVERT JUMPDEST DUP1 PUSH1 0x0 PUSH1 0x3 ADD PUSH1 0x0 SWAP1 SLOAD SWAP1 PUSH2 0x100 EXP SWAP1 DIV PUSH1 0xFF AND PUSH2 0x2F8 SWAP2 SWAP1 PUSH2 0x4CE JUMP JUMPDEST PUSH1 0x0 PUSH1 0x3 ADD PUSH1 0x0 PUSH2 0x100 EXP DUP2 SLOAD DUP2 PUSH1 0xFF MUL NOT AND SWAP1 DUP4 PUSH1 0xFF AND MUL OR SWAP1 SSTORE POP POP JUMP JUMPDEST PUSH1 0x0 DUP1 PUSH1 0x3 ADD PUSH1 0x0 SWAP1 SLOAD SWAP1 PUSH2 0x100 EXP SWAP1 DIV PUSH1 0xFF AND SWAP1 POP SWAP1 JUMP JUMPDEST PUSH1 0x0 DUP2 CALLDATALOAD SWAP1 POP PUSH2 0x340 DUP2 PUSH2 0x61E JUMP JUMPDEST SWAP3 SWAP2 POP POP JUMP JUMPDEST PUSH1 0x0 PUSH1 0x20 DUP3 DUP5 SUB SLT ISZERO PUSH2 0x35C JUMPI PUSH2 0x35B PUSH2 0x5DF JUMP JUMPDEST JUMPDEST PUSH1 0x0 PUSH2 0x36A DUP5 DUP3 DUP6 ADD PUSH2 0x331 JUMP JUMPDEST SWAP2 POP POP SWAP3 SWAP2 POP POP JUMP JUMPDEST PUSH2 0x37C DUP2 PUSH2 0x502 JUMP JUMPDEST DUP3 MSTORE POP POP JUMP JUMPDEST PUSH1 0x0 PUSH2 0x38D DUP3 PUSH2 0x47B JUMP JUMPDEST PUSH2 0x397 DUP2 DUP6 PUSH2 0x486 JUMP JUMPDEST SWAP4 POP PUSH2 0x3A7 DUP2 DUP6 PUSH1 0x20 DUP7 ADD PUSH2 0x51C JUMP JUMPDEST PUSH2 0x3B0 DUP2 PUSH2 0x5E4 JUMP JUMPDEST DUP5 ADD SWAP2 POP POP SWAP3 SWAP2 POP POP JUMP JUMPDEST PUSH1 0x0 PUSH2 0x3C8 PUSH1 0x12 DUP4 PUSH2 0x486 JUMP JUMPDEST SWAP2 POP PUSH2 0x3D3 DUP3 PUSH2 0x5F5 JUMP JUMPDEST PUSH1 0x20 DUP3 ADD SWAP1 POP SWAP2 SWAP1 POP JUMP JUMPDEST PUSH2 0x3E7 DUP2 PUSH2 0x50F JUMP JUMPDEST DUP3 MSTORE POP POP JUMP JUMPDEST PUSH1 0x0 PUSH1 0x80 DUP3 ADD SWAP1 POP DUP2 DUP2 SUB PUSH1 0x0 DUP4 ADD MSTORE PUSH2 0x407 DUP2 DUP8 PUSH2 0x382 JUMP JUMPDEST SWAP1 POP PUSH2 0x416 PUSH1 0x20 DUP4 ADD DUP7 PUSH2 0x373 JUMP JUMPDEST DUP2 DUP2 SUB PUSH1 0x40 DUP4 ADD MSTORE PUSH2 0x428 DUP2 DUP6 PUSH2 0x382 JUMP JUMPDEST SWAP1 POP PUSH2 0x437 PUSH1 0x60 DUP4 ADD DUP5 PUSH2 0x3DE JUMP JUMPDEST SWAP6 SWAP5 POP POP POP POP POP JUMP JUMPDEST PUSH1 0x0 PUSH1 0x20 DUP3 ADD SWAP1 POP DUP2 DUP2 SUB PUSH1 0x0 DUP4 ADD MSTORE PUSH2 0x459 DUP2 PUSH2 0x3BB JUMP JUMPDEST SWAP1 POP SWAP2 SWAP1 POP JUMP JUMPDEST PUSH1 0x0 PUSH1 0x20 DUP3 ADD SWAP1 POP PUSH2 0x475 PUSH1 0x0 DUP4 ADD DUP5 PUSH2 0x3DE JUMP JUMPDEST SWAP3 SWAP2 POP POP JUMP JUMPDEST PUSH1 0x0 DUP2 MLOAD SWAP1 POP SWAP2 SWAP1 POP JUMP JUMPDEST PUSH1 0x0 DUP3 DUP3 MSTORE PUSH1 0x20 DUP3 ADD SWAP1 POP SWAP3 SWAP2 POP POP JUMP JUMPDEST PUSH1 0x0 PUSH2 0x4A2 DUP3 PUSH2 0x50F JUMP JUMPDEST SWAP2 POP PUSH2 0x4AD DUP4 PUSH2 0x50F JUMP JUMPDEST SWAP3 POP DUP3 PUSH1 0xFF SUB DUP3 GT ISZERO PUSH2 0x4C3 JUMPI PUSH2 0x4C2 PUSH2 0x581 JUMP JUMPDEST JUMPDEST DUP3 DUP3 ADD SWAP1 POP SWAP3 SWAP2 POP POP JUMP JUMPDEST PUSH1 0x0 PUSH2 0x4D9 DUP3 PUSH2 0x50F JUMP JUMPDEST SWAP2 POP PUSH2 0x4E4 DUP4 PUSH2 0x50F JUMP JUMPDEST SWAP3 POP DUP3 DUP3 LT ISZERO PUSH2 0x4F7 JUMPI PUSH2 0x4F6 PUSH2 0x581 JUMP JUMPDEST JUMPDEST DUP3 DUP3 SUB SWAP1 POP SWAP3 SWAP2 POP POP JUMP JUMPDEST PUSH1 0x0 DUP2 PUSH1 0x0 SIGNEXTEND SWAP1 POP SWAP2 SWAP1 POP JUMP JUMPDEST PUSH1 0x0 PUSH1 0xFF DUP3 AND SWAP1 POP SWAP2 SWAP1 POP JUMP JUMPDEST PUSH1 0x0 JUMPDEST DUP4 DUP2 LT ISZERO PUSH2 0x53A JUMPI DUP1 DUP3 ADD MLOAD DUP2 DUP5 ADD MSTORE PUSH1 0x20 DUP2 ADD SWAP1 POP PUSH2 0x51F JUMP JUMPDEST DUP4 DUP2 GT ISZERO PUSH2 0x549 JUMPI PUSH1 0x0 DUP5 DUP5 ADD MSTORE JUMPDEST POP POP POP POP JUMP JUMPDEST PUSH1 0x0 PUSH1 0x2 DUP3 DIV SWAP1 POP PUSH1 0x1 DUP3 AND DUP1 PUSH2 0x567 JUMPI PUSH1 0x7F DUP3 AND SWAP2 POP JUMPDEST PUSH1 0x20 DUP3 LT DUP2 EQ ISZERO PUSH2 0x57B JUMPI PUSH2 0x57A PUSH2 0x5B0 JUMP JUMPDEST JUMPDEST POP SWAP2 SWAP1 POP JUMP JUMPDEST PUSH32 0x4E487B7100000000000000000000000000000000000000000000000000000000 PUSH1 0x0 MSTORE PUSH1 0x11 PUSH1 0x4 MSTORE PUSH1 0x24 PUSH1 0x0 REVERT JUMPDEST PUSH32 0x4E487B7100000000000000000000000000000000000000000000000000000000 PUSH1 0x0 MSTORE PUSH1 0x22 PUSH1 0x4 MSTORE PUSH1 0x24 PUSH1 0x0 REVERT JUMPDEST PUSH1 0x0 DUP1 REVERT JUMPDEST PUSH1 0x0 PUSH1 0x1F NOT PUSH1 0x1F DUP4 ADD AND SWAP1 POP SWAP2 SWAP1 POP JUMP JUMPDEST PUSH32 0x53616C646F20696E737566696369656E74650000000000000000000000000000 PUSH1 0x0 DUP3 ADD MSTORE POP JUMP JUMPDEST PUSH2 0x627 DUP2 PUSH2 0x50F JUMP JUMPDEST DUP2 EQ PUSH2 0x632 JUMPI PUSH1 0x0 DUP1 REVERT JUMPDEST POP JUMP INVALID LOG2 PUSH5 0x6970667358 0x22 SLT KECCAK256 PUSH31 0xF1EBB4980C4590868A2CD20FF00FBCDEAA93F5B48A55FD36EDB3E3CF8884B6 PUSH5 0x736F6C6343 STOP ADDMOD SMOD STOP CALLER "
		},
		"gasEstimates": {
			"creation": {
				"codeDepositCost": "328600",
				"executionCost": "infinite",
				"totalCost": "infinite"
			},
			"external": {
				"agregarSaldo(uint8)": "infinite",
				"c1()": "infinite",
				"getSaldo()": "2529",
				"restarSaldo(uint8)": "infinite"
			},
			"internal": {
				"addCliente()": "infinite"
			}
		},
		"methodIdentifiers": {
			"agregarSaldo(uint8)": "57506b82",
			"c1()": "5f57697c",
			"getSaldo()": "e2eec9a7",
			"restarSaldo(uint8)": "88fa7c67"
		}
	},
	"abi": [
		{
			"inputs": [
				{
					"internalType": "string",
					"name": "_nombre",
					"type": "string"
				},
				{
					"internalType": "int8",
					"name": "_edad",
					"type": "int8"
				},
				{
					"internalType": "string",
					"name": "_colorFav",
					"type": "string"
				}
			],
			"stateMutability": "nonpayable",
			"type": "constructor"
		},
		{
			"inputs": [
				{
					"internalType": "uint8",
					"name": "monto",
					"type": "uint8"
				}
			],
			"name": "agregarSaldo",
			"outputs": [],
			"stateMutability": "nonpayable",
			"type": "function"
		},
		{
			"inputs": [],
			"name": "c1",
			"outputs": [
				{
					"internalType": "string",
					"name": "nombre",
					"type": "string"
				},
				{
					"internalType": "int8",
					"name": "edad",
					"type": "int8"
				},
				{
					"internalType": "string",
					"name": "colorFav",
					"type": "string"
				},
				{
					"internalType": "uint8",
					"name": "saldo",
					"type": "uint8"
				}
			],
			"stateMutability": "view",
			"type": "function"
		},
		{
			"inputs": [],
			"name": "getSaldo",
			"outputs": [
				{
					"internalType": "uint8",
					"name": "",
					"type": "uint8"
				}
			],
			"stateMutability": "view",
			"type": "function"
		},
		{
			"inputs": [
				{
					"internalType": "uint8",
					"name": "monto",
					"type": "uint8"
				}
			],
			"name": "restarSaldo",
			"outputs": [],
			"stateMutability": "nonpayable",
			"type": "function"
		},
		{
			"stateMutability": "payable",
			"type": "receive"
		}
	]
}