{
	"data": {
		"bytecode": {
			"linkReferences": {},
			"object": "6080604052336000806101000a81548173ffffffffffffffffffffffffffffffffffffffff021916908373ffffffffffffffffffffffffffffffffffffffff16021790555060026001556003600255600860045534801561005f57600080fd5b5061073a8061006f6000396000f3fe608060405234801561001057600080fd5b506004361061009e5760003560e01c806386af6ba71161006657806386af6ba71461010f5780638846636c1461011957806391607a99146101235780639e66e0f314610141578063a898fd701461015f5761009e565b8063191dbb34146100a35780631e3d73a1146100ad5780633bc5de30146100c95780635cc31747146100e75780637e7d8ec6146100f1575b600080fd5b6100ab61017d565b005b6100c760048036038101906100c291906103db565b61017f565b005b6100d16101a1565b6040516100de9190610514565b60405180910390f35b6100ef6101b4565b005b6100f961028e565b60405161010691906104f9565b60405180910390f35b610117610297565b005b610121610371565b005b61012b610373565b60405161013891906104f9565b60405180910390f35b610149610389565b60405161015691906104de565b60405180910390f35b61016761039d565b604051610174919061047a565b60405180910390f35b565b60018261018c91906105ce565b915060018161019b91906105ce565b90505050565b600080816101af91906105ce565b905090565b60058060009054906101000a900461ffff1661ffff161061020a576040517f08c379a0000000000000000000000000000000000000000000000000000000008152600401610201906104be565b60405180910390fd5b6001600560009054906101000a900461ffff166102279190610605565b600560006101000a81548161ffff021916908361ffff1602179055507fc87fc62b262b7387b8a3ed60e6d48ba88b07d6693bab9a9dd94f3292d42b7c5d33600560009054906101000a900461ffff16604051610284929190610495565b60405180910390a1565b60006004905090565b60058060009054906101000a900461ffff1661ffff16106102ed576040517f08c379a00000000000000000000000000000000000000000000000000000000081526004016102e4906104be565b60405180910390fd5b6001600560009054906101000a900461ffff1661030a9190610540565b600560006101000a81548161ffff021916908361ffff1602179055507fc87fc62b262b7387b8a3ed60e6d48ba88b07d6693bab9a9dd94f3292d42b7c5d33600560009054906101000a900461ffff16604051610367929190610495565b60405180910390a1565b565b600060026004546103849190610578565b905090565b600560009054906101000a900461ffff1681565b60008060009054906101000a900473ffffffffffffffffffffffffffffffffffffffff16905090565b6000813590506103d5816106ed565b92915050565b600080604083850312156103f2576103f16106bf565b5b6000610400858286016103c6565b9250506020610411858286016103c6565b9150509250929050565b61042481610639565b82525050565b600061043760088361052f565b9150610442826106c4565b602082019050919050565b6104568161064b565b82525050565b61046581610679565b82525050565b61047481610683565b82525050565b600060208201905061048f600083018461041b565b92915050565b60006040820190506104aa600083018561041b565b6104b7602083018461044d565b9392505050565b600060208201905081810360008301526104d78161042a565b9050919050565b60006020820190506104f3600083018461044d565b92915050565b600060208201905061050e600083018461045c565b92915050565b6000602082019050610529600083018461046b565b92915050565b600082825260208201905092915050565b600061054b8261064b565b91506105568361064b565b92508261ffff0382111561056d5761056c610690565b5b828201905092915050565b600061058382610679565b915061058e83610679565b9250827fffffffffffffffffffffffffffffffffffffffffffffffffffffffffffffffff038211156105c3576105c2610690565b5b828201905092915050565b60006105d982610683565b91506105e483610683565b92508260ff038211156105fa576105f9610690565b5b828201905092915050565b60006106108261064b565b915061061b8361064b565b92508282101561062e5761062d610690565b5b828203905092915050565b600061064482610659565b9050919050565b600061ffff82169050919050565b600073ffffffffffffffffffffffffffffffffffffffff82169050919050565b6000819050919050565b600060ff82169050919050565b7f4e487b7100000000000000000000000000000000000000000000000000000000600052601160045260246000fd5b600080fd5b7f496e76616c69646f000000000000000000000000000000000000000000000000600082015250565b6106f681610683565b811461070157600080fd5b5056fea26469706673582212200c9ec6d22c284ae98b649336921d22cdc93e574349e895b0cbad9bb0979ba7c764736f6c63430008070033",
			"opcodes": "PUSH1 0x80 PUSH1 0x40 MSTORE CALLER PUSH1 0x0 DUP1 PUSH2 0x100 EXP DUP2 SLOAD DUP2 PUSH20 0xFFFFFFFFFFFFFFFFFFFFFFFFFFFFFFFFFFFFFFFF MUL NOT AND SWAP1 DUP4 PUSH20 0xFFFFFFFFFFFFFFFFFFFFFFFFFFFFFFFFFFFFFFFF AND MUL OR SWAP1 SSTORE POP PUSH1 0x2 PUSH1 0x1 SSTORE PUSH1 0x3 PUSH1 0x2 SSTORE PUSH1 0x8 PUSH1 0x4 SSTORE CALLVALUE DUP1 ISZERO PUSH2 0x5F JUMPI PUSH1 0x0 DUP1 REVERT JUMPDEST POP PUSH2 0x73A DUP1 PUSH2 0x6F PUSH1 0x0 CODECOPY PUSH1 0x0 RETURN INVALID PUSH1 0x80 PUSH1 0x40 MSTORE CALLVALUE DUP1 ISZERO PUSH2 0x10 JUMPI PUSH1 0x0 DUP1 REVERT JUMPDEST POP PUSH1 0x4 CALLDATASIZE LT PUSH2 0x9E JUMPI PUSH1 0x0 CALLDATALOAD PUSH1 0xE0 SHR DUP1 PUSH4 0x86AF6BA7 GT PUSH2 0x66 JUMPI DUP1 PUSH4 0x86AF6BA7 EQ PUSH2 0x10F JUMPI DUP1 PUSH4 0x8846636C EQ PUSH2 0x119 JUMPI DUP1 PUSH4 0x91607A99 EQ PUSH2 0x123 JUMPI DUP1 PUSH4 0x9E66E0F3 EQ PUSH2 0x141 JUMPI DUP1 PUSH4 0xA898FD70 EQ PUSH2 0x15F JUMPI PUSH2 0x9E JUMP JUMPDEST DUP1 PUSH4 0x191DBB34 EQ PUSH2 0xA3 JUMPI DUP1 PUSH4 0x1E3D73A1 EQ PUSH2 0xAD JUMPI DUP1 PUSH4 0x3BC5DE30 EQ PUSH2 0xC9 JUMPI DUP1 PUSH4 0x5CC31747 EQ PUSH2 0xE7 JUMPI DUP1 PUSH4 0x7E7D8EC6 EQ PUSH2 0xF1 JUMPI JUMPDEST PUSH1 0x0 DUP1 REVERT JUMPDEST PUSH2 0xAB PUSH2 0x17D JUMP JUMPDEST STOP JUMPDEST PUSH2 0xC7 PUSH1 0x4 DUP1 CALLDATASIZE SUB DUP2 ADD SWAP1 PUSH2 0xC2 SWAP2 SWAP1 PUSH2 0x3DB JUMP JUMPDEST PUSH2 0x17F JUMP JUMPDEST STOP JUMPDEST PUSH2 0xD1 PUSH2 0x1A1 JUMP JUMPDEST PUSH1 0x40 MLOAD PUSH2 0xDE SWAP2 SWAP1 PUSH2 0x514 JUMP JUMPDEST PUSH1 0x40 MLOAD DUP1 SWAP2 SUB SWAP1 RETURN JUMPDEST PUSH2 0xEF PUSH2 0x1B4 JUMP JUMPDEST STOP JUMPDEST PUSH2 0xF9 PUSH2 0x28E JUMP JUMPDEST PUSH1 0x40 MLOAD PUSH2 0x106 SWAP2 SWAP1 PUSH2 0x4F9 JUMP JUMPDEST PUSH1 0x40 MLOAD DUP1 SWAP2 SUB SWAP1 RETURN JUMPDEST PUSH2 0x117 PUSH2 0x297 JUMP JUMPDEST STOP JUMPDEST PUSH2 0x121 PUSH2 0x371 JUMP JUMPDEST STOP JUMPDEST PUSH2 0x12B PUSH2 0x373 JUMP JUMPDEST PUSH1 0x40 MLOAD PUSH2 0x138 SWAP2 SWAP1 PUSH2 0x4F9 JUMP JUMPDEST PUSH1 0x40 MLOAD DUP1 SWAP2 SUB SWAP1 RETURN JUMPDEST PUSH2 0x149 PUSH2 0x389 JUMP JUMPDEST PUSH1 0x40 MLOAD PUSH2 0x156 SWAP2 SWAP1 PUSH2 0x4DE JUMP JUMPDEST PUSH1 0x40 MLOAD DUP1 SWAP2 SUB SWAP1 RETURN JUMPDEST PUSH2 0x167 PUSH2 0x39D JUMP JUMPDEST PUSH1 0x40 MLOAD PUSH2 0x174 SWAP2 SWAP1 PUSH2 0x47A JUMP JUMPDEST PUSH1 0x40 MLOAD DUP1 SWAP2 SUB SWAP1 RETURN JUMPDEST JUMP JUMPDEST PUSH1 0x1 DUP3 PUSH2 0x18C SWAP2 SWAP1 PUSH2 0x5CE JUMP JUMPDEST SWAP2 POP PUSH1 0x1 DUP2 PUSH2 0x19B SWAP2 SWAP1 PUSH2 0x5CE JUMP JUMPDEST SWAP1 POP POP POP JUMP JUMPDEST PUSH1 0x0 DUP1 DUP2 PUSH2 0x1AF SWAP2 SWAP1 PUSH2 0x5CE JUMP JUMPDEST SWAP1 POP SWAP1 JUMP JUMPDEST PUSH1 0x5 DUP1 PUSH1 0x0 SWAP1 SLOAD SWAP1 PUSH2 0x100 EXP SWAP1 DIV PUSH2 0xFFFF AND PUSH2 0xFFFF AND LT PUSH2 0x20A JUMPI PUSH1 0x40 MLOAD PUSH32 0x8C379A000000000000000000000000000000000000000000000000000000000 DUP2 MSTORE PUSH1 0x4 ADD PUSH2 0x201 SWAP1 PUSH2 0x4BE JUMP JUMPDEST PUSH1 0x40 MLOAD DUP1 SWAP2 SUB SWAP1 REVERT JUMPDEST PUSH1 0x1 PUSH1 0x5 PUSH1 0x0 SWAP1 SLOAD SWAP1 PUSH2 0x100 EXP SWAP1 DIV PUSH2 0xFFFF AND PUSH2 0x227 SWAP2 SWAP1 PUSH2 0x605 JUMP JUMPDEST PUSH1 0x5 PUSH1 0x0 PUSH2 0x100 EXP DUP2 SLOAD DUP2 PUSH2 0xFFFF MUL NOT AND SWAP1 DUP4 PUSH2 0xFFFF AND MUL OR SWAP1 SSTORE POP PUSH32 0xC87FC62B262B7387B8A3ED60E6D48BA88B07D6693BAB9A9DD94F3292D42B7C5D CALLER PUSH1 0x5 PUSH1 0x0 SWAP1 SLOAD SWAP1 PUSH2 0x100 EXP SWAP1 DIV PUSH2 0xFFFF AND PUSH1 0x40 MLOAD PUSH2 0x284 SWAP3 SWAP2 SWAP1 PUSH2 0x495 JUMP JUMPDEST PUSH1 0x40 MLOAD DUP1 SWAP2 SUB SWAP1 LOG1 JUMP JUMPDEST PUSH1 0x0 PUSH1 0x4 SWAP1 POP SWAP1 JUMP JUMPDEST PUSH1 0x5 DUP1 PUSH1 0x0 SWAP1 SLOAD SWAP1 PUSH2 0x100 EXP SWAP1 DIV PUSH2 0xFFFF AND PUSH2 0xFFFF AND LT PUSH2 0x2ED JUMPI PUSH1 0x40 MLOAD PUSH32 0x8C379A000000000000000000000000000000000000000000000000000000000 DUP2 MSTORE PUSH1 0x4 ADD PUSH2 0x2E4 SWAP1 PUSH2 0x4BE JUMP JUMPDEST PUSH1 0x40 MLOAD DUP1 SWAP2 SUB SWAP1 REVERT JUMPDEST PUSH1 0x1 PUSH1 0x5 PUSH1 0x0 SWAP1 SLOAD SWAP1 PUSH2 0x100 EXP SWAP1 DIV PUSH2 0xFFFF AND PUSH2 0x30A SWAP2 SWAP1 PUSH2 0x540 JUMP JUMPDEST PUSH1 0x5 PUSH1 0x0 PUSH2 0x100 EXP DUP2 SLOAD DUP2 PUSH2 0xFFFF MUL NOT AND SWAP1 DUP4 PUSH2 0xFFFF AND MUL OR SWAP1 SSTORE POP PUSH32 0xC87FC62B262B7387B8A3ED60E6D48BA88B07D6693BAB9A9DD94F3292D42B7C5D CALLER PUSH1 0x5 PUSH1 0x0 SWAP1 SLOAD SWAP1 PUSH2 0x100 EXP SWAP1 DIV PUSH2 0xFFFF AND PUSH1 0x40 MLOAD PUSH2 0x367 SWAP3 SWAP2 SWAP1 PUSH2 0x495 JUMP JUMPDEST PUSH1 0x40 MLOAD DUP1 SWAP2 SUB SWAP1 LOG1 JUMP JUMPDEST JUMP JUMPDEST PUSH1 0x0 PUSH1 0x2 PUSH1 0x4 SLOAD PUSH2 0x384 SWAP2 SWAP1 PUSH2 0x578 JUMP JUMPDEST SWAP1 POP SWAP1 JUMP JUMPDEST PUSH1 0x5 PUSH1 0x0 SWAP1 SLOAD SWAP1 PUSH2 0x100 EXP SWAP1 DIV PUSH2 0xFFFF AND DUP2 JUMP JUMPDEST PUSH1 0x0 DUP1 PUSH1 0x0 SWAP1 SLOAD SWAP1 PUSH2 0x100 EXP SWAP1 DIV PUSH20 0xFFFFFFFFFFFFFFFFFFFFFFFFFFFFFFFFFFFFFFFF AND SWAP1 POP SWAP1 JUMP JUMPDEST PUSH1 0x0 DUP2 CALLDATALOAD SWAP1 POP PUSH2 0x3D5 DUP2 PUSH2 0x6ED JUMP JUMPDEST SWAP3 SWAP2 POP POP JUMP JUMPDEST PUSH1 0x0 DUP1 PUSH1 0x40 DUP4 DUP6 SUB SLT ISZERO PUSH2 0x3F2 JUMPI PUSH2 0x3F1 PUSH2 0x6BF JUMP JUMPDEST JUMPDEST PUSH1 0x0 PUSH2 0x400 DUP6 DUP3 DUP7 ADD PUSH2 0x3C6 JUMP JUMPDEST SWAP3 POP POP PUSH1 0x20 PUSH2 0x411 DUP6 DUP3 DUP7 ADD PUSH2 0x3C6 JUMP JUMPDEST SWAP2 POP POP SWAP3 POP SWAP3 SWAP1 POP JUMP JUMPDEST PUSH2 0x424 DUP2 PUSH2 0x639 JUMP JUMPDEST DUP3 MSTORE POP POP JUMP JUMPDEST PUSH1 0x0 PUSH2 0x437 PUSH1 0x8 DUP4 PUSH2 0x52F JUMP JUMPDEST SWAP2 POP PUSH2 0x442 DUP3 PUSH2 0x6C4 JUMP JUMPDEST PUSH1 0x20 DUP3 ADD SWAP1 POP SWAP2 SWAP1 POP JUMP JUMPDEST PUSH2 0x456 DUP2 PUSH2 0x64B JUMP JUMPDEST DUP3 MSTORE POP POP JUMP JUMPDEST PUSH2 0x465 DUP2 PUSH2 0x679 JUMP JUMPDEST DUP3 MSTORE POP POP JUMP JUMPDEST PUSH2 0x474 DUP2 PUSH2 0x683 JUMP JUMPDEST DUP3 MSTORE POP POP JUMP JUMPDEST PUSH1 0x0 PUSH1 0x20 DUP3 ADD SWAP1 POP PUSH2 0x48F PUSH1 0x0 DUP4 ADD DUP5 PUSH2 0x41B JUMP JUMPDEST SWAP3 SWAP2 POP POP JUMP JUMPDEST PUSH1 0x0 PUSH1 0x40 DUP3 ADD SWAP1 POP PUSH2 0x4AA PUSH1 0x0 DUP4 ADD DUP6 PUSH2 0x41B JUMP JUMPDEST PUSH2 0x4B7 PUSH1 0x20 DUP4 ADD DUP5 PUSH2 0x44D JUMP JUMPDEST SWAP4 SWAP3 POP POP POP JUMP JUMPDEST PUSH1 0x0 PUSH1 0x20 DUP3 ADD SWAP1 POP DUP2 DUP2 SUB PUSH1 0x0 DUP4 ADD MSTORE PUSH2 0x4D7 DUP2 PUSH2 0x42A JUMP JUMPDEST SWAP1 POP SWAP2 SWAP1 POP JUMP JUMPDEST PUSH1 0x0 PUSH1 0x20 DUP3 ADD SWAP1 POP PUSH2 0x4F3 PUSH1 0x0 DUP4 ADD DUP5 PUSH2 0x44D JUMP JUMPDEST SWAP3 SWAP2 POP POP JUMP JUMPDEST PUSH1 0x0 PUSH1 0x20 DUP3 ADD SWAP1 POP PUSH2 0x50E PUSH1 0x0 DUP4 ADD DUP5 PUSH2 0x45C JUMP JUMPDEST SWAP3 SWAP2 POP POP JUMP JUMPDEST PUSH1 0x0 PUSH1 0x20 DUP3 ADD SWAP1 POP PUSH2 0x529 PUSH1 0x0 DUP4 ADD DUP5 PUSH2 0x46B JUMP JUMPDEST SWAP3 SWAP2 POP POP JUMP JUMPDEST PUSH1 0x0 DUP3 DUP3 MSTORE PUSH1 0x20 DUP3 ADD SWAP1 POP SWAP3 SWAP2 POP POP JUMP JUMPDEST PUSH1 0x0 PUSH2 0x54B DUP3 PUSH2 0x64B JUMP JUMPDEST SWAP2 POP PUSH2 0x556 DUP4 PUSH2 0x64B JUMP JUMPDEST SWAP3 POP DUP3 PUSH2 0xFFFF SUB DUP3 GT ISZERO PUSH2 0x56D JUMPI PUSH2 0x56C PUSH2 0x690 JUMP JUMPDEST JUMPDEST DUP3 DUP3 ADD SWAP1 POP SWAP3 SWAP2 POP POP JUMP JUMPDEST PUSH1 0x0 PUSH2 0x583 DUP3 PUSH2 0x679 JUMP JUMPDEST SWAP2 POP PUSH2 0x58E DUP4 PUSH2 0x679 JUMP JUMPDEST SWAP3 POP DUP3 PUSH32 0xFFFFFFFFFFFFFFFFFFFFFFFFFFFFFFFFFFFFFFFFFFFFFFFFFFFFFFFFFFFFFFFF SUB DUP3 GT ISZERO PUSH2 0x5C3 JUMPI PUSH2 0x5C2 PUSH2 0x690 JUMP JUMPDEST JUMPDEST DUP3 DUP3 ADD SWAP1 POP SWAP3 SWAP2 POP POP JUMP JUMPDEST PUSH1 0x0 PUSH2 0x5D9 DUP3 PUSH2 0x683 JUMP JUMPDEST SWAP2 POP PUSH2 0x5E4 DUP4 PUSH2 0x683 JUMP JUMPDEST SWAP3 POP DUP3 PUSH1 0xFF SUB DUP3 GT ISZERO PUSH2 0x5FA JUMPI PUSH2 0x5F9 PUSH2 0x690 JUMP JUMPDEST JUMPDEST DUP3 DUP3 ADD SWAP1 POP SWAP3 SWAP2 POP POP JUMP JUMPDEST PUSH1 0x0 PUSH2 0x610 DUP3 PUSH2 0x64B JUMP JUMPDEST SWAP2 POP PUSH2 0x61B DUP4 PUSH2 0x64B JUMP JUMPDEST SWAP3 POP DUP3 DUP3 LT ISZERO PUSH2 0x62E JUMPI PUSH2 0x62D PUSH2 0x690 JUMP JUMPDEST JUMPDEST DUP3 DUP3 SUB SWAP1 POP SWAP3 SWAP2 POP POP JUMP JUMPDEST PUSH1 0x0 PUSH2 0x644 DUP3 PUSH2 0x659 JUMP JUMPDEST SWAP1 POP SWAP2 SWAP1 POP JUMP JUMPDEST PUSH1 0x0 PUSH2 0xFFFF DUP3 AND SWAP1 POP SWAP2 SWAP1 POP JUMP JUMPDEST PUSH1 0x0 PUSH20 0xFFFFFFFFFFFFFFFFFFFFFFFFFFFFFFFFFFFFFFFF DUP3 AND SWAP1 POP SWAP2 SWAP1 POP JUMP JUMPDEST PUSH1 0x0 DUP2 SWAP1 POP SWAP2 SWAP1 POP JUMP JUMPDEST PUSH1 0x0 PUSH1 0xFF DUP3 AND SWAP1 POP SWAP2 SWAP1 POP JUMP JUMPDEST PUSH32 0x4E487B7100000000000000000000000000000000000000000000000000000000 PUSH1 0x0 MSTORE PUSH1 0x11 PUSH1 0x4 MSTORE PUSH1 0x24 PUSH1 0x0 REVERT JUMPDEST PUSH1 0x0 DUP1 REVERT JUMPDEST PUSH32 0x496E76616C69646F000000000000000000000000000000000000000000000000 PUSH1 0x0 DUP3 ADD MSTORE POP JUMP JUMPDEST PUSH2 0x6F6 DUP2 PUSH2 0x683 JUMP JUMPDEST DUP2 EQ PUSH2 0x701 JUMPI PUSH1 0x0 DUP1 REVERT JUMPDEST POP JUMP INVALID LOG2 PUSH5 0x6970667358 0x22 SLT KECCAK256 0xC SWAP15 0xC6 0xD2 0x2C 0x28 0x4A 0xE9 DUP12 PUSH5 0x9336921D22 0xCD 0xC9 RETURNDATACOPY JUMPI NUMBER 0x49 0xE8 SWAP6 0xB0 0xCB 0xAD SWAP12 0xB0 SWAP8 SWAP12 0xA7 0xC7 PUSH5 0x736F6C6343 STOP ADDMOD SMOD STOP CALLER "
		},
		"gasEstimates": {
			"creation": {
				"codeDepositCost": "370000",
				"executionCost": "90989",
				"totalCost": "460989"
			},
			"external": {
				"decrementarPrecio()": "infinite",
				"getData()": "infinite",
				"getData2()": "2610",
				"incrementar()": "infinite",
				"incrementarPrecio()": "infinite",
				"operacion1()": "166",
				"operacion2()": "145",
				"precio()": "2537",
				"setData(uint8,uint8)": "infinite",
				"suma()": "426"
			},
			"internal": {
				"operacion3()": "infinite",
				"operacion4()": "infinite"
			}
		},
		"methodIdentifiers": {
			"decrementarPrecio()": "5cc31747",
			"getData()": "3bc5de30",
			"getData2()": "a898fd70",
			"incrementar()": "91607a99",
			"incrementarPrecio()": "86af6ba7",
			"operacion1()": "8846636c",
			"operacion2()": "191dbb34",
			"precio()": "9e66e0f3",
			"setData(uint8,uint8)": "1e3d73a1",
			"suma()": "7e7d8ec6"
		}
	},
	"abi": [
		{
			"anonymous": false,
			"inputs": [
				{
					"indexed": false,
					"internalType": "address",
					"name": "",
					"type": "address"
				},
				{
					"indexed": false,
					"internalType": "uint16",
					"name": "",
					"type": "uint16"
				}
			],
			"name": "cambioPrecio",
			"type": "event"
		},
		{
			"inputs": [],
			"name": "decrementarPrecio",
			"outputs": [],
			"stateMutability": "nonpayable",
			"type": "function"
		},
		{
			"inputs": [],
			"name": "getData",
			"outputs": [
				{
					"internalType": "uint8",
					"name": "parametro3",
					"type": "uint8"
				}
			],
			"stateMutability": "pure",
			"type": "function"
		},
		{
			"inputs": [],
			"name": "getData2",
			"outputs": [
				{
					"internalType": "address",
					"name": "",
					"type": "address"
				}
			],
			"stateMutability": "view",
			"type": "function"
		},
		{
			"inputs": [],
			"name": "incrementar",
			"outputs": [
				{
					"internalType": "uint256",
					"name": "",
					"type": "uint256"
				}
			],
			"stateMutability": "view",
			"type": "function"
		},
		{
			"inputs": [],
			"name": "incrementarPrecio",
			"outputs": [],
			"stateMutability": "nonpayable",
			"type": "function"
		},
		{
			"inputs": [],
			"name": "operacion1",
			"outputs": [],
			"stateMutability": "nonpayable",
			"type": "function"
		},
		{
			"inputs": [],
			"name": "operacion2",
			"outputs": [],
			"stateMutability": "nonpayable",
			"type": "function"
		},
		{
			"inputs": [],
			"name": "precio",
			"outputs": [
				{
					"internalType": "uint16",
					"name": "",
					"type": "uint16"
				}
			],
			"stateMutability": "view",
			"type": "function"
		},
		{
			"inputs": [
				{
					"internalType": "uint8",
					"name": "parametro1",
					"type": "uint8"
				},
				{
					"internalType": "uint8",
					"name": "parametro2",
					"type": "uint8"
				}
			],
			"name": "setData",
			"outputs": [],
			"stateMutability": "pure",
			"type": "function"
		},
		{
			"inputs": [],
			"name": "suma",
			"outputs": [
				{
					"internalType": "uint256",
					"name": "",
					"type": "uint256"
				}
			],
			"stateMutability": "pure",
			"type": "function"
		}
	]
}