{
	"data": {
		"bytecode": {
			"linkReferences": {},
			"object": "608060405234801561001057600080fd5b506103c1806100206000396000f3fe6080604052600436106100345760003560e01c806348c981e2146100395780636b55e991146100695780636d6e241114610085575b600080fd5b610053600480360381019061004e91906101cb565b6100b6565b6040516100609190610278565b60405180910390f35b610083600480360381019061007e91906101cb565b6100f4565b005b61009f600480360381019061009a91906101cb565b61013e565b6040516100ad929190610293565b60405180910390f35b60008173ffffffffffffffffffffffffffffffffffffffff166108fc349081150290604051600060405180830381858888f193505050509050919050565b8073ffffffffffffffffffffffffffffffffffffffff166108fc349081150290604051600060405180830381858888f1935050505015801561013a573d6000803e3d6000fd5b5050565b600060608273ffffffffffffffffffffffffffffffffffffffff163460405161016690610263565b60006040518083038185875af1925050503d80600081146101a3576040519150601f19603f3d011682016040523d82523d6000602084013e6101a8565b606091505b508092508193505050915091565b6000813590506101c581610374565b92915050565b6000602082840312156101e1576101e061035b565b5b60006101ef848285016101b6565b91505092915050565b610201816102fc565b82525050565b6000610212826102c3565b61021c81856102ce565b935061022c818560208601610328565b61023581610360565b840191505092915050565b600061024d6000836102df565b915061025882610371565b600082019050919050565b600061026e82610240565b9150819050919050565b600060208201905061028d60008301846101f8565b92915050565b60006040820190506102a860008301856101f8565b81810360208301526102ba8184610207565b90509392505050565b600081519050919050565b600082825260208201905092915050565b600081905092915050565b60006102f582610308565b9050919050565b60008115159050919050565b600073ffffffffffffffffffffffffffffffffffffffff82169050919050565b60005b8381101561034657808201518184015260208101905061032b565b83811115610355576000848401525b50505050565b600080fd5b6000601f19601f8301169050919050565b50565b61037d816102ea565b811461038857600080fd5b5056fea26469706673582212202d9323156a120c6d5b8088a6e263ba77a2d9d66a7809dd67e4b304445ea30f0564736f6c63430008070033",
			"opcodes": "PUSH1 0x80 PUSH1 0x40 MSTORE CALLVALUE DUP1 ISZERO PUSH2 0x10 JUMPI PUSH1 0x0 DUP1 REVERT JUMPDEST POP PUSH2 0x3C1 DUP1 PUSH2 0x20 PUSH1 0x0 CODECOPY PUSH1 0x0 RETURN INVALID PUSH1 0x80 PUSH1 0x40 MSTORE PUSH1 0x4 CALLDATASIZE LT PUSH2 0x34 JUMPI PUSH1 0x0 CALLDATALOAD PUSH1 0xE0 SHR DUP1 PUSH4 0x48C981E2 EQ PUSH2 0x39 JUMPI DUP1 PUSH4 0x6B55E991 EQ PUSH2 0x69 JUMPI DUP1 PUSH4 0x6D6E2411 EQ PUSH2 0x85 JUMPI JUMPDEST PUSH1 0x0 DUP1 REVERT JUMPDEST PUSH2 0x53 PUSH1 0x4 DUP1 CALLDATASIZE SUB DUP2 ADD SWAP1 PUSH2 0x4E SWAP2 SWAP1 PUSH2 0x1CB JUMP JUMPDEST PUSH2 0xB6 JUMP JUMPDEST PUSH1 0x40 MLOAD PUSH2 0x60 SWAP2 SWAP1 PUSH2 0x278 JUMP JUMPDEST PUSH1 0x40 MLOAD DUP1 SWAP2 SUB SWAP1 RETURN JUMPDEST PUSH2 0x83 PUSH1 0x4 DUP1 CALLDATASIZE SUB DUP2 ADD SWAP1 PUSH2 0x7E SWAP2 SWAP1 PUSH2 0x1CB JUMP JUMPDEST PUSH2 0xF4 JUMP JUMPDEST STOP JUMPDEST PUSH2 0x9F PUSH1 0x4 DUP1 CALLDATASIZE SUB DUP2 ADD SWAP1 PUSH2 0x9A SWAP2 SWAP1 PUSH2 0x1CB JUMP JUMPDEST PUSH2 0x13E JUMP JUMPDEST PUSH1 0x40 MLOAD PUSH2 0xAD SWAP3 SWAP2 SWAP1 PUSH2 0x293 JUMP JUMPDEST PUSH1 0x40 MLOAD DUP1 SWAP2 SUB SWAP1 RETURN JUMPDEST PUSH1 0x0 DUP2 PUSH20 0xFFFFFFFFFFFFFFFFFFFFFFFFFFFFFFFFFFFFFFFF AND PUSH2 0x8FC CALLVALUE SWAP1 DUP2 ISZERO MUL SWAP1 PUSH1 0x40 MLOAD PUSH1 0x0 PUSH1 0x40 MLOAD DUP1 DUP4 SUB DUP2 DUP6 DUP9 DUP9 CALL SWAP4 POP POP POP POP SWAP1 POP SWAP2 SWAP1 POP JUMP JUMPDEST DUP1 PUSH20 0xFFFFFFFFFFFFFFFFFFFFFFFFFFFFFFFFFFFFFFFF AND PUSH2 0x8FC CALLVALUE SWAP1 DUP2 ISZERO MUL SWAP1 PUSH1 0x40 MLOAD PUSH1 0x0 PUSH1 0x40 MLOAD DUP1 DUP4 SUB DUP2 DUP6 DUP9 DUP9 CALL SWAP4 POP POP POP POP ISZERO DUP1 ISZERO PUSH2 0x13A JUMPI RETURNDATASIZE PUSH1 0x0 DUP1 RETURNDATACOPY RETURNDATASIZE PUSH1 0x0 REVERT JUMPDEST POP POP JUMP JUMPDEST PUSH1 0x0 PUSH1 0x60 DUP3 PUSH20 0xFFFFFFFFFFFFFFFFFFFFFFFFFFFFFFFFFFFFFFFF AND CALLVALUE PUSH1 0x40 MLOAD PUSH2 0x166 SWAP1 PUSH2 0x263 JUMP JUMPDEST PUSH1 0x0 PUSH1 0x40 MLOAD DUP1 DUP4 SUB DUP2 DUP6 DUP8 GAS CALL SWAP3 POP POP POP RETURNDATASIZE DUP1 PUSH1 0x0 DUP2 EQ PUSH2 0x1A3 JUMPI PUSH1 0x40 MLOAD SWAP2 POP PUSH1 0x1F NOT PUSH1 0x3F RETURNDATASIZE ADD AND DUP3 ADD PUSH1 0x40 MSTORE RETURNDATASIZE DUP3 MSTORE RETURNDATASIZE PUSH1 0x0 PUSH1 0x20 DUP5 ADD RETURNDATACOPY PUSH2 0x1A8 JUMP JUMPDEST PUSH1 0x60 SWAP2 POP JUMPDEST POP DUP1 SWAP3 POP DUP2 SWAP4 POP POP POP SWAP2 POP SWAP2 JUMP JUMPDEST PUSH1 0x0 DUP2 CALLDATALOAD SWAP1 POP PUSH2 0x1C5 DUP2 PUSH2 0x374 JUMP JUMPDEST SWAP3 SWAP2 POP POP JUMP JUMPDEST PUSH1 0x0 PUSH1 0x20 DUP3 DUP5 SUB SLT ISZERO PUSH2 0x1E1 JUMPI PUSH2 0x1E0 PUSH2 0x35B JUMP JUMPDEST JUMPDEST PUSH1 0x0 PUSH2 0x1EF DUP5 DUP3 DUP6 ADD PUSH2 0x1B6 JUMP JUMPDEST SWAP2 POP POP SWAP3 SWAP2 POP POP JUMP JUMPDEST PUSH2 0x201 DUP2 PUSH2 0x2FC JUMP JUMPDEST DUP3 MSTORE POP POP JUMP JUMPDEST PUSH1 0x0 PUSH2 0x212 DUP3 PUSH2 0x2C3 JUMP JUMPDEST PUSH2 0x21C DUP2 DUP6 PUSH2 0x2CE JUMP JUMPDEST SWAP4 POP PUSH2 0x22C DUP2 DUP6 PUSH1 0x20 DUP7 ADD PUSH2 0x328 JUMP JUMPDEST PUSH2 0x235 DUP2 PUSH2 0x360 JUMP JUMPDEST DUP5 ADD SWAP2 POP POP SWAP3 SWAP2 POP POP JUMP JUMPDEST PUSH1 0x0 PUSH2 0x24D PUSH1 0x0 DUP4 PUSH2 0x2DF JUMP JUMPDEST SWAP2 POP PUSH2 0x258 DUP3 PUSH2 0x371 JUMP JUMPDEST PUSH1 0x0 DUP3 ADD SWAP1 POP SWAP2 SWAP1 POP JUMP JUMPDEST PUSH1 0x0 PUSH2 0x26E DUP3 PUSH2 0x240 JUMP JUMPDEST SWAP2 POP DUP2 SWAP1 POP SWAP2 SWAP1 POP JUMP JUMPDEST PUSH1 0x0 PUSH1 0x20 DUP3 ADD SWAP1 POP PUSH2 0x28D PUSH1 0x0 DUP4 ADD DUP5 PUSH2 0x1F8 JUMP JUMPDEST SWAP3 SWAP2 POP POP JUMP JUMPDEST PUSH1 0x0 PUSH1 0x40 DUP3 ADD SWAP1 POP PUSH2 0x2A8 PUSH1 0x0 DUP4 ADD DUP6 PUSH2 0x1F8 JUMP JUMPDEST DUP2 DUP2 SUB PUSH1 0x20 DUP4 ADD MSTORE PUSH2 0x2BA DUP2 DUP5 PUSH2 0x207 JUMP JUMPDEST SWAP1 POP SWAP4 SWAP3 POP POP POP JUMP JUMPDEST PUSH1 0x0 DUP2 MLOAD SWAP1 POP SWAP2 SWAP1 POP JUMP JUMPDEST PUSH1 0x0 DUP3 DUP3 MSTORE PUSH1 0x20 DUP3 ADD SWAP1 POP SWAP3 SWAP2 POP POP JUMP JUMPDEST PUSH1 0x0 DUP2 SWAP1 POP SWAP3 SWAP2 POP POP JUMP JUMPDEST PUSH1 0x0 PUSH2 0x2F5 DUP3 PUSH2 0x308 JUMP JUMPDEST SWAP1 POP SWAP2 SWAP1 POP JUMP JUMPDEST PUSH1 0x0 DUP2 ISZERO ISZERO SWAP1 POP SWAP2 SWAP1 POP JUMP JUMPDEST PUSH1 0x0 PUSH20 0xFFFFFFFFFFFFFFFFFFFFFFFFFFFFFFFFFFFFFFFF DUP3 AND SWAP1 POP SWAP2 SWAP1 POP JUMP JUMPDEST PUSH1 0x0 JUMPDEST DUP4 DUP2 LT ISZERO PUSH2 0x346 JUMPI DUP1 DUP3 ADD MLOAD DUP2 DUP5 ADD MSTORE PUSH1 0x20 DUP2 ADD SWAP1 POP PUSH2 0x32B JUMP JUMPDEST DUP4 DUP2 GT ISZERO PUSH2 0x355 JUMPI PUSH1 0x0 DUP5 DUP5 ADD MSTORE JUMPDEST POP POP POP POP JUMP JUMPDEST PUSH1 0x0 DUP1 REVERT JUMPDEST PUSH1 0x0 PUSH1 0x1F NOT PUSH1 0x1F DUP4 ADD AND SWAP1 POP SWAP2 SWAP1 POP JUMP JUMPDEST POP JUMP JUMPDEST PUSH2 0x37D DUP2 PUSH2 0x2EA JUMP JUMPDEST DUP2 EQ PUSH2 0x388 JUMPI PUSH1 0x0 DUP1 REVERT JUMPDEST POP JUMP INVALID LOG2 PUSH5 0x6970667358 0x22 SLT KECCAK256 0x2D SWAP4 0x23 ISZERO PUSH11 0x120C6D5B8088A6E263BA77 LOG2 0xD9 0xD6 PUSH11 0x7809DD67E4B304445EA30F SDIV PUSH5 0x736F6C6343 STOP ADDMOD SMOD STOP CALLER "
		},
		"gasEstimates": {
			"creation": {
				"codeDepositCost": "192200",
				"executionCost": "238",
				"totalCost": "192438"
			},
			"external": {
				"callEther(address)": "infinite",
				"sendEther(address)": "infinite",
				"transferEther(address)": "infinite"
			}
		},
		"methodIdentifiers": {
			"callEther(address)": "6d6e2411",
			"sendEther(address)": "48c981e2",
			"transferEther(address)": "6b55e991"
		}
	},
	"abi": [
		{
			"inputs": [
				{
					"internalType": "address payable",
					"name": "_to",
					"type": "address"
				}
			],
			"name": "callEther",
			"outputs": [
				{
					"internalType": "bool",
					"name": "sent",
					"type": "bool"
				},
				{
					"internalType": "bytes",
					"name": "data",
					"type": "bytes"
				}
			],
			"stateMutability": "payable",
			"type": "function"
		},
		{
			"inputs": [
				{
					"internalType": "address payable",
					"name": "_to",
					"type": "address"
				}
			],
			"name": "sendEther",
			"outputs": [
				{
					"internalType": "bool",
					"name": "ok",
					"type": "bool"
				}
			],
			"stateMutability": "payable",
			"type": "function"
		},
		{
			"inputs": [
				{
					"internalType": "address payable",
					"name": "_to",
					"type": "address"
				}
			],
			"name": "transferEther",
			"outputs": [],
			"stateMutability": "payable",
			"type": "function"
		}
	]
}